{
  "accountTrie": {
    "01005ff1193cdf7d247f43622c180a11c22b5c2f208d543081d21f177480d8f9": "f873a0209bad3efd7d22d728e0b92c3bcdab947570414641f88051189032c4b246dc34b850f84e808ad3c21ece9212328b0e7ca056e81f171bcc55a6ff8345e692c0f86e5b48e01b996cadc001622fb5e363b421a0c5d2460186f7233c927e7db2dcc703c0e500b653ca82273b7bfad8045d85a470",
    "05da1ea6e46ecbaab18d2b23bc3312dadb424dad5ffa38ad6bd2ed150122e2b4": "f85180a0d3dc6ee4660bec774016c498acd09b925fd11f3e12266b31a1e1379cccde378d80808080808080808080a0b352e4c72d853473be5eac69cf10adfdc61a3747ec26a4b424f0a29292fc1d3780808080",
    "0e24604e223dd0a8d5db70542619a6ca35413af7b3e5f39b84602650b90d1b15": "f8f180a031d1eb10fdf37ef90417d463e9e3d1dad5bab6a3e8b38ccc4eaa74425031745780a0e1e12ee753fe820fd85966999855fb54a676ef1dd603fe17d38d35d65b6bd56ba0a04e84d92c0b9a1bf76647de42ecc22243261dbc4fa716e6df74039533eb1e90a005da1ea6e46ecbaab18d2b23bc3312dadb424dad5ffa38ad6bd2ed150122e2b4a088051b9667deb59e99614788c0d0aedaec2b9658bd714c851f16eb1d1ad39652a0dbe88e3ca7dd488f49b5d0d0083a9888c8c8af012881eb3de63cea270c8de723808080a0274e2e0e8f8fc8484e8dbec1d909ba8aa63f30695c18d02d0698ff7ac8d89b4b8080808080",
    "4a618aed5db385cce8817213f88071434e93d98211bcbb6dd3ce7a51b79e78cd": "f869a020c1ec272906bc470ab1b71a6d34f39bc8f50066523eb1bff07806f20088c5f6b846f8447f80a0c612d6c5bb112dc66021367f00e62a6dadecb24fa6250bc6346e95b892d7511fa07eea3a48563e7b938852aafc93d760d31a84ad520adf1128af576cdd65ee9a8e",
    "6b29ed0d90849248d9336c8ed41ff463da30c78d5b0881faa2ada87bd42e6f1d": "f851a0e29cd6451f96ed556022f6076eacfbb24d0680280f8a4a588419a89b9a4260aa80808080808080a0790ae54e5d178d60fcf685911a68d3011b46d41817fc24649c9eafc42d43ca828080808080808080",
    "790ae54e5d178d60fcf685911a68d3011b46d41817fc24649c9eafc42d43ca82": "f8729f30c7b7ae81a58eb98d9c78de4a1fd7fd9535fc953ed2be602daaa41767312ab850f84e808ad3c21bd2b1bb22e1fbfca056e81f171bcc55a6ff8345e692c0f86e5b48e01b996cadc001622fb5e363b421a0c5d2460186f7233c927e7db2dcc703c0e500b653ca82273b7bfad8045d85a470",
    "817dde137f3f5b4695a7bc85ba282328a7ecf59e6118340ca9ff2fcf654d7e37": "f90211a03e393eddf453769ee471dc5f44e6bd158c772f28a9c0f390b0b76c7ba33f1300a03570d4d2c5ff479045684c59efc4ffd57addab79f173c62dac17c88393562ba3a04fdc50254821150cfa5e6520e3f3bfd5cf2787b65c73a0a251a5eaae97d725b7a0641e7c07699053fa8ffa3fa31aaddd8fc880d3458ee749869497301fddfcce15a03d4e1d2370eb832b9bcfe2a486aa8014e4998332c819dfdb5daf8add03a6aed8a0b4fd95e78fe0c2352a4e138e1a864ef4ebc0d6cec0b149707640f04c3edca79ba0372fe5d5fb2e631312c1f0745a6439ddac3de35a74913a4518eccb04719a72f8a03c215dcd054e2a168fe3476f4015e82642b4d77b50fd2894b02710f491cf4b84a0b6f24b421eb36dff261d9295bc47fec8eaa4ff79c2fe27c764281742cc32f60ba0427d9208f34ad603b2a0925fd576a9fad8c649681d208ecec5d2a8752bc98fcca00e24604e223dd0a8d5db70542619a6ca35413af7b3e5f39b84602650b90d1b15a0977582678c73cba0918a495bb5f56decbe36ac3b1942f0a4840b52cd81b91a82a0c28f4504a633ce9be1efc00bbcd956d3ed54a6a850022b83cd0bec261b8ae389a0c25e88074bbf48a49a51a6acc11d847aebe13c56af307f0eca522c137644107aa03d70bb91ca10b78c1e95ed86f51db1f1903be1b659417797959245914f59f513a006e5e3b7d0f66369d157dec1ca7afba579d0d5156f0d7c6eb9c8636b7e188b8a80",
    "b4fd95e78fe0c2352a4e138e1a864ef4ebc0d6cec0b149707640f04c3edca79b": "f8f1a09cd6327de3ac60480be7149c0e646aa11f88b1bbf211afbc2e4c891fea5248208080a06b29ed0d90849248d9336c8ed41ff463da30c78d5b0881faa2ada87bd42e6f1da04a618aed5db385cce8817213f88071434e93d98211bcbb6dd3ce7a51b79e78cda03d2c9faa594230d254816429f8dc379c30c8b3679ef67f44dd31f3e6822f9a498080a06bcfaefc0204cc7c7d73b985cd3f4e7cc96276c7e6e694b6e8b2ac87ab446ba08080808080a0a6df3a651ac8bb7fb3dcab91700d9b204c52fcc82a257169378b3bd0a385ed11a03e3a9de9ffe6cd0b9243be48a522741f00d9ea345742f34248a0945eed1bba7280",
    "c28f4504a633ce9be1efc00bbcd956d3ed54a6a850022b83cd0bec261b8ae389": "f901118080a01ce291d29e2ff2790d4a6c86149b82d1915d54e3d7a460249822120bd0f6d7758080a03df28eb6e7d17f27be9351542dad778b5edbbb5a036df5baef45a8b9b8b8426a8080a051a7eeaa81817cd1de8e153fb4ecc49c8d2c21ca646602c2899ae0759eb8423680a05780ecc40b99abaf45f10a06e85aa492600c7b807ea797a3d294838f4819b862a05133a3c639ecdf80f9cfcf808a9945bfb262a05962f4231500b97382cd7672cba036c58cc430303d2a7262e5aa77417e47299f6a328a65b2a6446c8c97561a1de380a001005ff1193cdf7d247f43622c180a11c22b5c2f208d543081d21f177480d8f9a0fcc9951947f13c985f475d14592c0a986e4ec0a69195f48f9fcaf2e70f9d4fca80",
    "d3dc6ee4660bec774016c498acd09b925fd11f3e12266b31a1e1379cccde378d": "f8769f3eec2b84f0ba344fd4b4d2f022469febe7a772c4789acfc119eb558ab1da3db854f85282155a8c033b2e3c5de00a332b0f6cd1a056e81f171bcc55a6ff8345e692c0f86e5b48e01b996cadc001622fb5e363b421a0c5d2460186f7233c927e7db2dcc703c0e500b653ca82273b7bfad8045d85a470"
  },
  "storageTrie": {
    "034649eb17405f031599b136511e4e57800c11fb29a1d831fc0846910e7ac653": "e2a020453cac58a4906122bd90086f162821d93b6f307788c4d6298f36e423cf28c735",
    "05341d869dd85800bc47755eeb9c7bbe1a3696979fc440eb2e77e38342230a12": "e4820007a03ca33d716db2d9e417287b66f0c9ce53fdbb6205578f09b17ab33b2cace371da",
    "0e32069e549d11c441fda0a1a03b297fbcd780d9b93e20d2137c59e8fd854089": "e2a02053212a6e27a02c94ee5d9202e7da0782cd48969a6bd21c435adae34ae2d6f23b",
    "174d33ef1552ce0e7b4cf6eb84d673b5c936254e762a709e00f738970a8f46a6": "f843a0208e63dea3384bae45fc344065d50afc9f6c6012c0b0106c596c66fa9e32750ca1a0241bce43a48f910ccace3d3e50030b0405ee50ebe52e9c6f5cd79a1428d643c7",
    "2604b7f464085e35d0a9ba9b7401f8b9a2f59ff3414751cc849acb3fc2656c0b": "e2a03e04a0888e3ab636965dbe9aa38887fd9b3074921df61312fd796683c37ff4c22b",
    "26ab4afe0605f3a34e3f14aa470f0a081406ba0ecec0c85438840dace921edcc": "e2a02013dffd80ba7541d4ea05a3202a3f515d93c4b983db32843fbe26e885c3d90013",
    "284c226d1b70621b8e16843549cd78bb0df3154144acad6c70724974c04f1213": "e2a020a28634ad476c9d1092da9fedcbbe6e50fe1ad8971990fb1228ba1341f69ea27f",
    "2e87821973b82e03dc19a1f5b791410f2cd04f495e6a59387f2e05f6d3884bc8": "f8718080808080808080808080a0d688055a7ea99008e6dfa966eb0f7c1add5afeaa448b359ca1d7fe5d0c7570ea8080a0d4eb05f9fef5fd1acbb5fab0eebcaf34f5c002e022d900948b4ce6a59bd3eae7a0eb7e65e0860cf0b9fb9c86e4aaa305d65b4acd3f59236745ae4668c7f0ebb0cf80",
    "3a95cdb087c46e4a97d6530ce4f56f440aec30ea333e7fef8f528845a32eca0e": "e2a0208c4bb72991293124e1b0da83e4ea82f1433ed99c09f5bc5c5a331d9d1d156f53",
    "3ac0323197beae7ebc54615a2c4515db6b5af9007fb8accc2d7743fc71153d03": "e09e39ae181c101dc0b4e1811f1f29cc26ce82644bc675302d238468ba2090ba47",
    "3ca33d716db2d9e417287b66f0c9ce53fdbb6205578f09b17ab33b2cace371da": "f851808080a094df9f310a0eba8730b8a8b7c8049f30b41536f42b749aa73fb99c0a9a99aa478080808080808080a03ac0323197beae7ebc54615a2c4515db6b5af9007fb8accc2d7743fc71153d0380808080",
    "439ddc61a885226442f104918a1a7cf0c034d10c65801fcba2ef37fc1a10c4e0": "e2a02002d3b6b12d4463d21f1670be290f261bc491d2d9b9e976b22f9b055a686fc30b",
    "46d0787a26b94a3c5c3e63c6702586d5563915351bd658007811873077c01938": "e2a020e77ac2dfcf43e39e229445ea385a794a9ce4e04c3ba17285f4be64d11b30e549",
    "4da9c88c428e67612a055cfab8c6e513b8194297962cf9750ac6c2a5a9cd938b": "e2a0206753f8e5aa3ce421cb983577928a244ee9afbabf862d69d702cd067379f6776d",
    "664edd22c051728edb2994b36624321613f53dee06e5c02d57df61e2dc4a6284": "f8518080a0be7b351b2c9e75b42a48d7f82f0648a7533960d705bb71f0006766a74ed8091880808080a005341d869dd85800bc47755eeb9c7bbe1a3696979fc440eb2e77e38342230a12808080808080808080",
    "677493be5bbae0245ce932308edf0a9e9a78427b33386f1b89f050f93371f8ea": "f851808080808080a080eb2b3e74954aabf6a4cca717931238382c3af6291d6089b17f42ba0990af5ba08ee0abfac5ea5b4a4be77b69f66d16b750c7776ec88cd166de7bb170d7d886e3808080808080808080",
    "6c6e73f437940844816f55d174f6031fbcf5f7d073981a02fa1ed0b7fc33cf5a": "e2a02092dab2820266ca9664ab42ef2fc3bfb330178173a94c5b0333385663d1b8c125",
    "80eb2b3e74954aabf6a4cca717931238382c3af6291d6089b17f42ba0990af5b": "e19f201c07f6075ee97c5b3778eb93fa7502c596e8f370306ab83405e511a2fcf961",
    "8512fb927c8e458861aa900ae7cbe3f0f31131533e00285d510b42506222974d": "f8b180a0c908ca7697ff99c148c952726a5c8810f1bd7a90190c42924718fd4de9484212a0fec9efc94f3bf53e7b61acbf8b9b07221c5bd606fce37bbb086a5769f0529793a0b0d334c421097e7f6e936841cab36a508ac02b4eaa0843c1baba0c5627932b1a808080a00e32069e549d11c441fda0a1a03b297fbcd780d9b93e20d2137c59e8fd85408980a06c6e73f437940844816f55d174f6031fbcf5f7d073981a02fa1ed0b7fc33cf5a80808080808080",
    "8a2923de40c6a7cc1baf39b0ff5dabb5a1915421648bff8a690d78485ccf305d": "f843a03feccf6caa602894c8105bdda7f81b2a7bb7de7dba1f18af92d8d057b708cb41a1a0c9283d2b8a6d9eeb9bc9d4b65a4936d4c7f9648e4d6d6eaa881b60f72a823b42",
    "8e72c87b0365d492b081b27081c404d0b755a5155974bca2183a8d5c480f9e23": "e2a02033e0df5767776c0d08c1b798aebb516e56221cd51a5000a810f8d720018b2043",
    "8ee0abfac5ea5b4a4be77b69f66d16b750c7776ec88cd166de7bb170d7d886e3": "e19f20ac017d29f2ac78f8a7446b686fe1829697db9d432a229163a5cdf9a716ce71",
    "90228a75596d4e30519d7e89d92103ada34a6caa745dcb8a58581484ad88eac0": "f8d180a0174d33ef1552ce0e7b4cf6eb84d673b5c936254e762a709e00f738970a8f46a680a08e72c87b0365d492b081b27081c404d0b755a5155974bca2183a8d5c480f9e23a0974431e5163fb0923a1f74ed25901bf8a6fc6f525a5da024f99db011a60c743680a026ab4afe0605f3a34e3f14aa470f0a081406ba0ecec0c85438840dace921edcc808080808080a0e2c3cdc1a3b1b71eb79d206f4b927f0b3f19bceb91910cd7d463cf219da42e8c80a0c251e3cc9bdff94d043bb475cc7739782015f9f6c3cc4ce8dc4f1273a7fdda8480",
    "94df9f310a0eba8730b8a8b7c8049f30b41536f42b749aa73fb99c0a9a99aa47": "e09e31c4fc4bf9cd8fc2be4d898bd67fd357eb0135035bf4500364b4c42c4fa505",
    "974431e5163fb0923a1f74ed25901bf8a6fc6f525a5da024f99db011a60c7436": "e2a020ed2d5022c396100ccbda68a9ebe2f88eb0baceb11c3814c72007df04a25cd40d",
    "9877b4e9b36a2d77aed5ab4a37c1bd9784522f77c06436e053fbccaa63e51424": "e2a0203d5b5d1ad3248ad60cb3f5e40865a0ef3de45e8d6b158ee7bc0cf66fce1d8111",
    "9ee3a6c156b4be7d5f99694305367fab9de04aab45c98e30f86a7f03b4d3a686": "e2a03d0aad4737cb7cafd64eb2d8729fc798ec795e82dcf0cb2d9c6141a3907371b117",
    "aab601d06827bc0b472e417b23874f9d32932e93d392872f57e4be0673061d4b": "f8518080808080a0439ddc61a885226442f104918a1a7cf0c034d10c65801fcba2ef37fc1a10c4e0a02448fd7856d200759e9cfe64f2a682f91613cf51914fdc613526ea15ace78c6b80808080808080808080",
    "b0d334c421097e7f6e936841cab36a508ac02b4eaa0843c1baba0c5627932b1a": "e2a020029d6cf41e9d4c546d1c6cceabb17b9d5acab924edbe56321f985b7bf5ae7b59",
    "b2c13d19d918c7e33db2e3388d622eafb7f4beea3b01a7f54501325f4ce8b74b": "e2a0202ac0009080797e405e6f386cb815e37985f1bb7e1fa0a9b688c4e50694e9af1d",
    "b6db52cc6c813c3d4c02422ecfe45a08105a4812dc240f49bee4b7220f1d9859": "f87180a0d9724654ab42f80a893d9762e9cd933e6d664c2bbdeb85edacd89777cdfbc9cd80808080a0034649eb17405f031599b136511e4e57800c11fb29a1d831fc0846910e7ac653808080a046d0787a26b94a3c5c3e63c6702586d5563915351bd658007811873077c01938808080808080",
    "be7b351b2c9e75b42a48d7f82f0648a7533960d705bb71f0006766a74ed80918": "e21aa0677493be5bbae0245ce932308edf0a9e9a78427b33386f1b89f050f93371f8ea",
    "c251e3cc9bdff94d043bb475cc7739782015f9f6c3cc4ce8dc4f1273a7fdda84": "e2a020ef4bf8f63cf9dd467136c679c02b5c17fcf6322d9562512bf5eb952cf7cc5303",
    "c612d6c5bb112dc66021367f00e62a6dadecb24fa6250bc6346e95b892d7511f": "f901f1a03179bf76ec025a6e74e6d1b5a132ded7f98c8ddaddd2e5698cf4ac4c9bdef9a9a09ee3a6c156b4be7d5f99694305367fab9de04aab45c98e30f86a7f03b4d3a686a0f43bff5ad5f93d19221a61e3da7b90617427a4a6715320a8f77abb998c764703a0b6db52cc6c813c3d4c02422ecfe45a08105a4812dc240f49bee4b7220f1d985980a02604b7f464085e35d0a9ba9b7401f8b9a2f59ff3414751cc849acb3fc2656c0ba0aab601d06827bc0b472e417b23874f9d32932e93d392872f57e4be0673061d4ba090228a75596d4e30519d7e89d92103ada34a6caa745dcb8a58581484ad88eac0a0da38f4e7fd72b73a788cd3271791925d6b859e262bcc652969d5a435c5701e24a08a2923de40c6a7cc1baf39b0ff5dabb5a1915421648bff8a690d78485ccf305da0d914dd258a9aff0592937f0d299d9a2a1358c84f09eeb10e8cff8b087d0bd7a0a0cdaf5f83ceaf447cbca6cd44a9e0c798a02582f21e4dee2c4e41786a45fd771ea0f5a3be404ce24abe8da1f04544407c72f9f9956d1772a4448f7e04fb0ce4b194a0664edd22c051728edb2994b36624321613f53dee06e5c02d57df61e2dc4a6284a02e87821973b82e03dc19a1f5b791410f2cd04f495e6a59387f2e05f6d3884bc8a08512fb927c8e458861aa900ae7cbe3f0f31131533e00285d510b42506222974d80",
    "c908ca7697ff99c148c952726a5c8810f1bd7a90190c42924718fd4de9484212": "e2a0208ad5f9d743e7a7a6f1ae6f50e73be7491547637238de0793607fded12d2dc365",
    "cdaf5f83ceaf447cbca6cd44a9e0c798a02582f21e4dee2c4e41786a45fd771e": "f85180808080808080808080a0c58b235d9422ca4b846d4dca635839e68aea0cb07517a363f106262ab10b294da03a95cdb087c46e4a97d6530ce4f56f440aec30ea333e7fef8f528845a32eca0e8080808080",
    "d4eb05f9fef5fd1acbb5fab0eebcaf34f5c002e022d900948b4ce6a59bd3eae7": "e2a0206dbceb4272a0dabc4b21f62fbfb0c0708629506c40f2aee806f3e9e65773c63d",
    "d688055a7ea99008e6dfa966eb0f7c1add5afeaa448b359ca1d7fe5d0c7570ea": "e2a020fd6de24591b42f30ce04aa4ab8c7bf028a77aef85c9d0f085b788e944f8b962f",
    "d914dd258a9aff0592937f0d299d9a2a1358c84f09eeb10e8cff8b087d0bd7a0": "e2a0371fb72cbe0369f5d3a24dca1acb23139df79992d093906bc85d6424757cc51a6b",
    "d9724654ab42f80a893d9762e9cd933e6d664c2bbdeb85edacd89777cdfbc9cd": "e2a020b0c4fcfef3c109f2afa201e3534f360ee1503cd5a3be775f2d43854a59480b29",
    "da38f4e7fd72b73a788cd3271791925d6b859e262bcc652969d5a435c5701e24": "f871a09877b4e9b36a2d77aed5ab4a37c1bd9784522f77c06436e053fbccaa63e51424808080a0b2c13d19d918c7e33db2e3388d622eafb7f4beea3b01a7f54501325f4ce8b74ba0284c226d1b70621b8e16843549cd78bb0df3154144acad6c70724974c04f12138080808080808080808080",
    "dd5d1fbbbfa1dfe2d5ac877d16de5ab1431b22451d1ac5671ecbe48f45775a3a": "e2a020fba69384fad0b3c2457f2bff126d83ace310467d3432a3227a72a07044544a67",
    "e2c3cdc1a3b1b71eb79d206f4b927f0b3f19bceb91910cd7d463cf219da42e8c": "e2a0202944a272ac5bae96b5bd2f67b6c13276d541dc09eb1cf414d96b19a09e1c2f02",
    "eb7e65e0860cf0b9fb9c86e4aaa305d65b4acd3f59236745ae4668c7f0ebb0cf": "e2a020f0b42598d432b039d8b3ca64661940c83aba2136271d77461e298b03fa3b264f",
    "f43bff5ad5f93d19221a61e3da7b90617427a4a6715320a8f77abb998c764703": "f891808080a0dd5d1fbbbfa1dfe2d5ac877d16de5ab1431b22451d1ac5671ecbe48f45775a3a8080a04da9c88c428e67612a055cfab8c6e513b8194297962cf9750ac6c2a5a9cd938b8080a060431af0a20dc00537e1c2984fb7d8373bc225af362b1fafa76da50c5b76cf718080808080a0fb3bb6f504e28c6d8a0fb3f8d01ce802bf775fa6d657eede63587e8df976002a80",
    "fb3bb6f504e28c6d8a0fb3f8d01ce802bf775fa6d657eede63587e8df976002a": "e2a020c7941cecc943bf2000c5d7068f2b8c8e9a29be62acd583fe9e6e90489a8c8207",
    "fec9efc94f3bf53e7b61acbf8b9b07221c5bd606fce37bbb086a5769f0529793": "e2a020a0fc0df1b679f3afe38c632fecf8d8d1945e3c27d5102dd1a69d36fa20d9991f"
  },
  "parentStateRoot": "0x817dde137f3f5b4695a7bc85ba282328a7ecf59e6118340ca9ff2fcf654d7e37",
  "transactionTraces": [
    {
      "txn": "0x02f8938207d182155a84b2d05e0084b2d05e0e830a58d694c3f3338ed0fd9c2013bd26c6b4da337858a486a880a4786727d40000000000000000000000000000000000000000000000000000000000000100c080a045186bdb45c7c7922fd8eb84bf19db07c7c0655fcc23f52d937bab278a910012a0035bf6789c4a0abed5b6791d8ea72ee671483e394eaad830621c61b35778b22e",
      "delta": {
        "0x0000000000000000000000000000000000000000": {
          "address": "0x0000000000000000000000000000000000000000",
          "read": true
        },
        "0x85dA99c8a7C2C95964c8EfD687E95E632Fc533D6": {
          "address": "0x85dA99c8a7C2C95964c8EfD687E95E632Fc533D6",
          "nonce": 5467,
          "read": true
        },
        "0xA52f1226449eA47013CceD3Dc59927657e3054dF": {
          "address": "0xA52f1226449eA47013CceD3Dc59927657e3054dF",
          "read": true
        },
        "0xC3f3338ed0fd9C2013bd26c6b4DA337858A486a8": {
          "address": "0xC3f3338ed0fd9C2013bd26c6b4DA337858A486a8",
          "storage": {
            "0x00b80c4ff21059bea8fc1d75692dc11a282117d4df95e89684ca76663735d95b": "0x00000000000000000000000000000000000000000000000000000000000000ef",
            "0x1bccf7cdda3c8614e4cd7494b1ac91ffd64f111d8f3e8157c677e5d8ec07514a": "0x00000000000000000000000000000000000000000000000000000000000000df",
            "0x1d6259cceddee50e33c0ede37bb2e8136cec47688223681b2fb690d3fce7a3d9": "0x000000000000000000000000000000000000000000000000000000000000009d",
            "0x20b9f448bd756afc257978f9292eb690e01b69b27011d24a9e480dc936eddce6": "0x0000000000000000000000000000000000000000000000000000000000000095",
            "0x2a41d6eb867ddcfeac667c3fe429f7b1dc4c811189b3ece5135425064920a1b7": "0x00000000000000000000000000000000000000000000000000000000000000bf",
            "0x2c3ae7faa961c1022fc62c6e28aa6a8ca294093f03d2e3388f637423816a5ca5": "0x00000000000000000000000000000000000000000000000000000000000000c5",
            "0x43b5581607f3794931937dc64797d2130b6bf8bdfd272fb8ea0df3fe46d9c410": "0x000000000000000000000000000000000000000000000000000000000000008b",
            "0x4b9bef40f84d0af3e7ab60bb731d04fce0950a559d5370235722888a1f5f99d8": "0x0000000000000000000000000000000000000000000000000000000000000097",
            "0x5759ed2ce2b5d312af3edff82a4df858741988b1bddfcca1f32b72a28d1d70f0": "0x00000000000000000000000000000000000000000000000000000000000000b3",
            "0x5859c04fd0363b95e824b76bab6d064bf500fe171eea5114a198e11ac4dfbbf0": "0x0000000000000000000000000000000000000000000000000000000000000083",
            "0x59120eb83699c466c74218988aa3115ae72e537ee35dc8cc4c4abd122c83ad0a": "0x00000000000000000000000000000000000000000000000000000000000000a7",
            "0x5e24e8ce886354498e332d1e8a2a01424c34984b9e9878f3b90a653f45c2fe94": "0x00000000000000000000000000000000000000000000000000000000000000f1",
            "0x6185c5e8994dce17071ce177c03c6de8690044327ac7998c1b8b6b55cca70ba8": "0x00000000000000000000000000000000000000000000000000000000000000a3",
            "0x6d00efa09a7071d855bc5fb7d93921fbf02f2c4e3992802f2a9b08050cf48ea8": "0x00000000000000000000000000000000000000000000000000000000000000e9",
            "0x6db3ef05809c347508073838d040f85e724aad0387cbd203710480231a932b90": "0x00000000000000000000000000000000000000000000000000000000000000b5",
            "0x716ee643adc48c0d54d1cca3fd34acddf96d91766d436fe06943cbddbf3657c8": "0x00000000000000000000000000000000000000000000000000000000000000e5",
            "0x929186da681e8492d5c67674d8a4dc7a9df883794b8e9896af8955a73f171239": "0x00000000000000000000000000000000000000000000000000000000000000c7",
            "0xa780ab882f61163081726a9afc75e90df3c1caced105f924cbb367ec432d483c": "0x00000000000000000000000000000000000000000000000000000000000000c1",
            "0xa82effcee24f9d07d1b8ac005bd5c8627d3d8c14e389a86d3b62ee3d5f63ab89": "0x00000000000000000000000000000000000000000000000000000000000000ad",
            "0xc61cb1584591e22c2f2af6b8faa5e1dfb9c5f01cb4cf13988b636ec701ab8cfa": "0x0000000000000000000000000000000000000000000000000000000000000089",
            "0xe3c071b83ece3f25966730b2cdbe352aaff3ac63e58b83ca8d2e852975ab811a": "0x00000000000000000000000000000000000000000000000000000000000000d3",
            "0xe720f07b0e62fc810dbb64d4f17af5986a497161476b9904f42e9066ecd3e989": "0x00000000000000000000000000000000000000000000000000000000000000fb",
            "0xe7ee43b207a5830b8f1cfb6dd5e3a4a684b78ee29fa74602d586f8fb3f0c8bed": "0x00000000000000000000000000000000000000000000000000000000000000e3"
          },
          "storage_read": {
            "0x00b80c4ff21059bea8fc1d75692dc11a282117d4df95e89684ca76663735d95b": {},
            "0x0353061a88c0592f32d7468be32ff6e5e91e49a3ea3ffb3c4fbe417c36501ba2": {},
            "0x1bccf7cdda3c8614e4cd7494b1ac91ffd64f111d8f3e8157c677e5d8ec07514a": {},
            "0x1d6259cceddee50e33c0ede37bb2e8136cec47688223681b2fb690d3fce7a3d9": {},
            "0x20b9f448bd756afc257978f9292eb690e01b69b27011d24a9e480dc936eddce6": {},
            "0x20de3dd312970f46a1d560f6c70f0e5bd10e638b9bb3836368f28838c607ea3e": {},
            "0x2a41d6eb867ddcfeac667c3fe429f7b1dc4c811189b3ece5135425064920a1b7": {},
            "0x2c3ae7faa961c1022fc62c6e28aa6a8ca294093f03d2e3388f637423816a5ca5": {},
            "0x2cc0eb4b3ec5bf92d601b8938793073ef9a83f91d7e5985435824ae87524336a": {},
            "0x328b8e687a0a963892a735f0237cb763bbbbf8ba0c1dfe2c221debb32c4bbd89": {},
            "0x38378c408f71c9e5f35d8db763a45d2b35da16f98182f9f4d54306cbd58c0a09": {},
            "0x3a5ea591190eeb3f8fcdced843c78df04ec0dfd42f5510375207515664fa0a75": {},
            "0x43b5581607f3794931937dc64797d2130b6bf8bdfd272fb8ea0df3fe46d9c410": {},
            "0x44f9494ddace41673149b1ce2120e2a8dc5880bba93ff68e6b6c883c57a0c695": {},
            "0x4a5bded210bb862fae2c0d18b9d29bf7f88b08a75dd1594b1369abc7881e3fe1": {},
            "0x4b9bef40f84d0af3e7ab60bb731d04fce0950a559d5370235722888a1f5f99d8": {},
            "0x50d9dffd10eb4437a15e8bb1c50afee98ea231805f136fb9a057e7aaeec448ae": {},
            "0x5759ed2ce2b5d312af3edff82a4df858741988b1bddfcca1f32b72a28d1d70f0": {},
            "0x5859c04fd0363b95e824b76bab6d064bf500fe171eea5114a198e11ac4dfbbf0": {},
            "0x59120eb83699c466c74218988aa3115ae72e537ee35dc8cc4c4abd122c83ad0a": {},
            "0x59dd4b18488d12f51eda69757a0ed42a2010c14b564330cc74a06895e60c077b": {},
            "0x5e24e8ce886354498e332d1e8a2a01424c34984b9e9878f3b90a653f45c2fe94": {},
            "0x6185c5e8994dce17071ce177c03c6de8690044327ac7998c1b8b6b55cca70ba8": {},
            "0x679795a0195a1b76cdebb7c51d74e058aee92919b8c3389af86ef24535e8a28c": {},
            "0x6d00efa09a7071d855bc5fb7d93921fbf02f2c4e3992802f2a9b08050cf48ea8": {},
            "0x6db3ef05809c347508073838d040f85e724aad0387cbd203710480231a932b90": {},
            "0x6ea47ca2f9e3a67b0e336c514aa9f125109f49309b7162caec32e7d27e5c838c": {},
            "0x716ee643adc48c0d54d1cca3fd34acddf96d91766d436fe06943cbddbf3657c8": {},
            "0x7352bc45c8aa6995480780fe15a07c4daa795263b5e7a9d04d9ed979c93ca85e": {},
            "0x82fb8bdd0a53542a1f59046c16f7a1350c43d22db36425bb53f551e7c6a09181": {},
            "0x88601476d11616a71c5be67555bd1dff4b1cbf21533d2669b768b61518cfe1c3": {},
            "0x929186da681e8492d5c67674d8a4dc7a9df883794b8e9896af8955a73f171239": {},
            "0x9542868bcbb5bd2ea274742292a8fd9233b9d5ee15ffeb027d991190493290d8": {},
            "0xa4e0f4432e44d027a7b3f953940f096bca7a9bd910297cad2ba7c703c2b799d3": {},
            "0xa780ab882f61163081726a9afc75e90df3c1caced105f924cbb367ec432d483c": {},
            "0xa82effcee24f9d07d1b8ac005bd5c8627d3d8c14e389a86d3b62ee3d5f63ab89": {},
            "0xab9952baf6478d8cfb7253ce86a6c53a7b7549582c76210b1581ae682b7e556f": {},
            "0xac33ff75c19e70fe83507db0d683fd3465c996598dc972688b7ace676c89077b": {},
            "0xacd8ef244210bb6898e73c48bf820ed8ecc857a3bab8d79c10e4fa92b1e9ca65": {},
            "0xad2d52b8047a96778c45f477dabddaae71b5ff6b355ac44a03c9522a54a18a26": {},
            "0xb98b78633099fa36ed8b8680c4f8092689e1e04080eb9cbb077ca38a14d7e384": {},
            "0xbd814762a7e35d5c162a7570d14baa68bd622cabb1ad83d40dd70f8a88aa67c0": {},
            "0xc0c7c7c9a2a6655862feea3cc7ff13629582293fcfe0e1094efb20897bb02a65": {},
            "0xc61cb1584591e22c2f2af6b8faa5e1dfb9c5f01cb4cf13988b636ec701ab8cfa": {},
            "0xd3604db978f6137b0d18816b77b2ce810487a3af08a922e0b184963be5f3adfc": {},
            "0xe3c071b83ece3f25966730b2cdbe352aaff3ac63e58b83ca8d2e852975ab811a": {},
            "0xe720f07b0e62fc810dbb64d4f17af5986a497161476b9904f42e9066ecd3e989": {},
            "0xe7ee43b207a5830b8f1cfb6dd5e3a4a684b78ee29fa74602d586f8fb3f0c8bed": {},
            "0xe90b7bceb6e7df5418fb78d8ee546e97c83a08bbccc01a0644d599ccd2a7c2e0": {},
            "0xeb5d92aa5b18af35c2d0c0d14a538792cf1a66aa06ab9dae49d32446e9063ca1": {},
            "0xee60d0579bcffd98e668647d59fec1ff86a7fb340ce572e844f234ae73a6918f": {},
            "0xf3118d41e0deec621ee3de85ec11bfcf8aee617b34cd0b5f1496acc8de2cbdcc": {},
            "0xf85cc6ffc513dc6cf7d199ef87b7a63cf9defe62251c1c247cd12f1eec7bff29": {},
            "0xfa3bcae139a60d3922021a29633a6c8687b9ba7e920e2516b2cfd8f5fd3e0e51": {}
          },
          "code_read": "YIBgQFJgBDYQYQDzV2AANWDgHIBjdj78CBFhAIpXgGOyrNUJEWEAWVeAY7Ks1QkUYQKEV4BjyqJgMhRhAqRXgGPOGxk6FGEC0VeAY+yLRmoUYQLkV2AAgP1bgGN2PvwIFGECGleAY3hnJ9QUYQIvV4BjfZR5KhRhAk9XgGOumNsvFGECb1dgAID9W4BjQgt9rhFhAMZXgGNCC32uFGEBlFeAY0hJ8nkUYQHDV4BjSdPWBRRhAfBXgGNX/BCjFGECBVdgAID9W4BjAxO/hhRhAPhXgGMUWwVjFGEBI1eAYxoP580UYQFFV4BjMUjxTxRhAXRXW2AAgP1bNIAVYQEEV2AAgP1bUGEBDWACgVZbYEBRYQEakZBhHlxWW2BAUYCRA5DzWzSAFWEBL1dgAID9W1BhAThhAwRWW2BAUWEBGpGQYR5/Vls0gBVhAVFXYACA/VtQYQENYQFgNmAEYR6oVltgAmAgUoBgAFJgQGAAIFSQUIFWWzSAFWEBgFdgAID9W1BhAQ1hAY82YARhHtFWW2EDYFZbNIAVYQGgV2AAgP1bUGEBDWEBrzZgBGEeqFZbYAFgIFKAYABSYEBgACBUkFCBVls0gBVhAc9XYACA/VtQYQHjYQHeNmAEYR8hVlthA65WW2BAUWEBGpGQYR/NVls0gBVhAfxXYACA/VtQYQENYASBVls0gBVhAhFXYACA/VtQYQENYAiBVls0gBVhAiZXYACA/VtQYQENYAGBVls0gBVhAjtXYACA/VtQYQENYQJKNmAEYR6oVlthA/dWWzSAFWECW1dgAID9W1BgAFRhATiQYAFgAWBAGwMWgVZbNIAVYQJ7V2AAgP1bUGEBDWAQgVZbNIAVYQKQV2AAgP1bUGEBDWECnzZgBGEg2FZbYQW2Vls0gBVhArBXYACA/VtQYQLEYQK/NmAEYSDYVlthBfZWW2BAUWEBGpGQYSFuVlthAQ1hAt82YARhIbdWW2EGX1ZbNIAVYQLwV2AAgP1bUGEB42EC/zZgBGEe0VZbYR2zVltgAIBUY4AAAACQYQMlkGABYAFgQBsDFmNBxk5tYSICVlthAzGQYTA5YSIoVlthAzuRkGEiYVZbYACAVGf//////////xkWYAFgAWBAGwOSkJIWkYIXkFWRkFBWW2AAYEBRYCCBUmAggIIBUmAgYECCAVKEYGCCAVKDYICCAVKCYKCCAVJgwFFgIIFgwIRgAGAFYAAZ8WEDoldgAID9W4BRlpVQUFBQUFBWW2EDtmEd9FZbYQO+YR4PVluFgVJgIIEBhZBSYECAggGFkFJgYIIBhJBSgmCAg2AAYAZa8YCAYQPsV2AAgP1bUFBQlJNQUFBQVltgAIBhBAWDYAFhIqRWW2ABYAFgQBsDgREVYQQcV2EEHGEf21ZbYEBRkICCUoBgIAJgIAGCAWBAUoAVYQRFV4FgIAFgIIICgDaDNwGQUFtQkFBgAluDgRFhBIhXYAGCgoFRgRBhBGZXYQRmYSKOVluRFRVgIJKDApGQkQGQkQFSgGEEgIFhIrdWW5FQUGEES1ZbUGACW4NhBJeCgGEi0VZbEWEFGleBgYFRgRBhBK5XYQSuYSKOVltgIAJgIAEBURVhBQhXYABhBMeCgGEi0VZbkFBbhIERYQUGV2AAg4KBUYEQYQTlV2EE5WEijlZbkRUVYCCSgwKRkJEBkJEBUmEE/4KCYSKkVluQUGEEylZbUFuAYQUSgWEit1ZbkVBQYQSMVltQYABgAluEgRFhBXdXgoGBUYEQYQU5V2EFOWEijlZbYCACYCABAVEVYQVlV2AAgoFSYAJgIFKBkGBAkCBVgWEFYYFhIrdWW5JQUFuAYQVvgWEit1ZbkVBQYQUgVltQf+zwpdpXWAMVtcMvOdCGnL7XJUZYZQcSbHalJ//3VG8DgWBAUWEFp5GQYR5cVltgQFGAkQOQoZOSUFBQVltgAICCUZBQYQXIYMCCYSLpVlsVYQXSV2AAgP1bYEBRYCCBg2AghwFgAGAIWvGAgBVhAPNXglGWlVBQUFBQUFZbYGBgAIJRYAFgAWBAGwOBERVhBhNXYQYTYR/bVltgQFGBgVJgHxlgH4MBFoEBYCABYEBSkIAVYQY9V2AgggGBgDaDNwGQUFtQkFCCUYBgIIMBgmAghwFgAGAEWvFhBlhX/ltQkpFQUFZbYACAVGf//////////xkWYAFgAWBAGwOFFheBVX/D0GEUXGeAqnWxVxhxvdb5k3LGBDTzPYr6VAnvXHJjOoRgQFFhBqqRkGEef1ZbYEBRgJEDkKFgAIBgAIBgAIBgAIBgAGBAUWBAUYCRA5CgYABbjGP/////FoFj/////xYQFWEcwldhBuphAwRWW2ABYAFgQBsDFplQYQb9YQMEVltgAWABYEAbAxaYUGEHEomLYSKkVltgQFFgIAFhByKRkGEi+lZbYEBRYCCBgwMDgVKQYEBSgFGQYCABIJVQYQdCYQMEVltgAWABYEAbAxaZUGEHVWEDBFZbYAFgAWBAGwMWmFCFYQdrioxhItFWW2BAUWAgAWEHfJKRkGEjD1ZbYEBRYCCBgwMDgVKQYEBSgFGQYCABIJVQYQecYQMEVltgAWABYEAbAxaZUGEHr2EDBFZbYAFgAWBAGwMWmFCFiYsDYEBRYCABYQfPkpGQYSMPVltgQFFgIIGDAwOBUpBgQFKAUZBgIAEglVBZmVCFimBAUWAgAWEH/ZKRkGEjD1ZbYEBRYCCBgwMDgVKQYEBSgFGQYCABIJVQOJlQhYpgQFFgIAFhCCuSkZBhIw9WW2BAUWAggYMDA4FSkGBAUoBRkGAgASCVUGEIS2EDBFZbYAFgAWBAGwMWmVBhCF5hAwRWW2ABYAFgQBsDFphQhWEIdIqMYSM1VltgQFFgIAFhCIWSkZBhIw9WW2BAUWAggYMDA4FSkGBAUoBRkGAgASCVUGEIpWEDBFZbYAFgAWBAGwMWmVBhCLhhAwRWW2ABYAFgQBsDFphQhWEI0IpgABlhI0lWW2EI2pCMYSN6VltgQFFgIAFhCOuSkZBhIw9WW2BAUWAggYMDA4FSkGBAUoBRkGAgASCVUGEJC2EDBFZbYAFgAWBAGwMWmVBhCR5hAwRWW2ABYAFgQBsDFphQhWEJNIqMYSLpVltgQFFgIAFhCUWSkZBhIw9WW2BAUWAggYMDA4FSkGBAUoBRkGAgASCVUGEJZWEDBFZbYAFgAWBAGwMWmVBhCXhhAwRWW2ABYAFgQBsDFphQhWEJkIpgABlhI0lWW2EJmpCMYSOoVltgQFFgIAFhCauSkZBhIw9WW2BAUWAggYMDA4FSkGBAUoBRkGAgASCVUGEJy2EDBFZbYAFgAWBAGwMWmVBhCd5hAwRWW2ABYAFgQBsDFphQYQnxYQMEVltgAWABYEAbAxaXUIWIgGEKC1dhCgthIktWW4qMCGBAUWAgAWEKH5KRkGEjD1ZbYEBRYCCBgwMDgVKQYEBSgFGQYCABIJVQYQo/YQMEVltgAWABYEAbAxaZUGEKUmEDBFZbYAFgAWBAGwMWmFBhCmVhAwRWW2ABYAFgQBsDFpdQhYiAYQp/V2EKf2EiS1ZbiowJYEBRYCABYQqTkpGQYSMPVltgQFFgIIGDAwOBUpBgQFKAUZBgIAEglVBhCrNhAwRWW2ABYAFgQBsDFplQYQrGYQMEVltgAWABYEAbAxaYUIWJiwpgQFFgIAFhCuaSkZBhIw9WW2BAUWAggYMDA4FSkGBAUoBRkGAgASCVUGELBmEDBFZbYAFgAWBAGwMWmVCFimADC2BAUWAgAWELJ5KRkGEjD1ZbYEBRYCCBgwMDgVKQYEBSgFGQYCABIJVQYQtHYQMEVltgAWABYEAbAxaZUGELWmEDBFZbYAFgAWBAGwMWmFCFiYsQYQtzV4lhC3VWW4pbYEBRYCABYQuGkpGQYSMPVltgQFFgIIGDAwOBUpBgQFKAUZBgIAEglVBhC6ZhAwRWW2ABYAFgQBsDFplQYQu5YQMEVltgAWABYEAbAxaYUIWJixFhC9JXiWEL1FZbiltgQFFgIAFhC+WSkZBhIw9WW2BAUWAggYMDA4FSkGBAUoBRkGAgASCVUGEMBWEDBFZbYAFgAWBAGwMWmVBhDBhhAwRWW2ABYAFgQBsDFphQhYmLEmEMMVeJYQwzVluKW2BAUWAgAWEMRJKRkGEjD1ZbYEBRYCCBgwMDgVKQYEBSgFGQYCABIJVQYQxkYQMEVltgAWABYEAbAxaZUGEMd2EDBFZbYAFgAWBAGwMWmFCFiYsTYQyQV4lhDJJWW4pbYEBRYCABYQyjkpGQYSMPVltgQFFgIIGDAwOBUpBgQFKAUZBgIAEglVBhDMNhAwRWW2ABYAFgQBsDFplQYQzWYQMEVltgAWABYEAbAxaYUIWJixRhDO9XiWEM8VZbiltgQFFgIAFhDQKSkZBhIw9WW2BAUWAggYMDA4FSkGBAUoBRkGAgASCVUGENImEDBFZbYAFgAWBAGwMWmVBhDTVhAwRWW2ABYAFgQBsDFphQhYoVYQ1NV4lhDU9WW4pbYEBRYCABYQ1gkpGQYSMPVltgQFFgIIGDAwOBUpBgQFKAUZBgIAEglVBhDYBhAwRWW2ABYAFgQBsDFplQYQ2TYQMEVltgAWABYEAbAxaYUIWJixZgQFFgIAFhDbOSkZBhIw9WW2BAUWAggYMDA4FSkGBAUoBRkGAgASCVUGEN02EDBFZbYAFgAWBAGwMWmVBhDeZhAwRWW2ABYAFgQBsDFphQhYmLF2BAUWAgAWEOBpKRkGEjD1ZbYEBRYCCBgwMDgVKQYEBSgFGQYCABIJVQYQ4mYQMEVltgAWABYEAbAxaZUGEOOWEDBFZbYAFgAWBAGwMWmFCFiYsYYEBRYCABYQ5ZkpGQYSMPVltgQFFgIIGDAwOBUpBgQFKAUZBgIAEglVBhDnlhAwRWW2ABYAFgQBsDFplQhYoZYEBRYCABYQ6YkpGQYSMPVltgQFFgIIGDAwOBUpBgQFKAUZBgIAEglVCFgGAAGmD4G2BAUWAgAWEOyZKRkGEjzFZbYEBRYCCBgwMDgVKQYEBSgFGQYCABIJVQYQ7pYQMEVltgAWABYEAbAxaZUIVgAYuQG2BAUWAgAWEPC5KRkGEjD1ZbYEBRYCCBgwMDgVKQYEBSgFGQYCABIJVQYQ8rYQMEVltgAWABYEAbAxaZUIVgAYuQHGBAUWAgAWEPTZKRkGEjD1ZbYEBRYCCBgwMDgVKQYEBSgFGQYCABIJVQYQ9tYQMEVltgAWABYEAbAxaZUIVgAYuQHWBAUWAgAWEPj5KRkGEjD1ZbYEBRYCCBgwMDgVKQYEBSgFGQYCABIJVQhZRQhDBgQFFgIAFhD72SkZBhJCtWW2BAUWAggYMDA4FSkGBAUoBRkGAgASCVUIUwgDtgIIEBYEBRkIEBYEBSgYFSYACQgGAgAZCTPGBAUWAgAWEQBJKRkGEkeVZbYEBRYCCBgwMDgVKQYEBSgFGQYCABIJVQhTA/YEBRYCABYRAwkpGQYSMPVltgQFFgIIGDAwOBUpBgQFKAUZBgIAEglVCFYAAxYEBRYCABYRBdkpGQYSMPVltgQFFgIIGDAwOBUpBgQFKAUZBgIAEglVCFR2BAUWAgAWEQiJKRkGEjD1ZbYEBRYCCBgwMDgVKQYEBSgFGQYCABIJVQhVpgQFFgIAFhELOSkZBhIw9WW2BAUWAggYMDA4FSkGBAUoBRkGAgASCVUGABgI0WA2ERLFeFMmBAUWAgAWEQ6JKRkGEkK1ZbYEBRYCCBgwMDgVKQYEBSgFGQYCABIJVQhTpgQFFgIAFhEROSkZBhIw9WW2BAUWAggYMDA4FSkGBAUoBRkGAgASCVUFuFk1BgARlgAo0WAWER91eFM2BAUWAgAWERTpKRkGEkK1ZbYEBRYCCBgwMDgVKQYEBSgFGQYCABIJVQhWAANmBAUWAgAWERfJOSkZBhJKhWW2BAUWAggYMDA4FSkGBAUoBRkGAgASCVUIVgADVgAWABYOAbAxkWYEBRYCABYRGzkpGQYSTeVltgQFFgIIGDAwOBUpBgQFKAUZBgIAEglVCFNGBAUWAgAWER3pKRkGEjD1ZbYEBRYCCBgwMDgVKQYEBSgFGQYCABIJVQW4WSUGADGWAEjRYBYRNgV4VDQGBAUWAgAWESGpKRkGEjD1ZbYEBRYCCBgwMDgVKQYEBSgFGQYCABIJVQhUhgQFFgIAFhEkWSkZBhIw9WW2BAUWAggYMDA4FSkGBAUoBRkGAgASCVUIVGYEBRYCABYRJwkpGQYSMPVltgQFFgIIGDAwOBUpBgQFKAUZBgIAEglVCFQWBAUWAgAWESm5KRkGEkK1ZbYEBRYCCBgwMDgVKQYEBSgFGQYCABIJVQhURgQFFgIAFhEsaSkZBhIw9WW2BAUWAggYMDA4FSkGBAUoBRkGAgASCVUIVFYEBRYCABYRLxkpGQYSMPVltgQFFgIIGDAwOBUpBgQFKAUZBgIAEglVCFQ2BAUWAgAWETHJKRkGEjD1ZbYEBRYCCBgwMDgVKQYEBSgFGQYCABIJVQhUJgQFFgIAFhE0eSkZBhIw9WW2BAUWAggYMDA4FSkGBAUoBRkGAgASCVUFuFkVBgBxlgCI0WAWEY/ldhE3dhAwRWW2ABYAFgQBsDFplQYABgQFFhE5CQYR4rVltgQFGAkQOQYADwgBWAFWETrFc9YACAPj1gAP1bUJBQYACLYEBRYRO+kGEeK1ZbgZBgQFGAkQOQYAD1kFCAFYAVYRPeVz1gAIA+PWAA/VtQkFCAYAFgAWCgGwMWY+20VSkzYEBRgmP/////FmDgG4FSYAQBYRQNkZBhJQ1WW2AAYEBRgIMDgWAAh4A7FYAVYRQnV2AAgP1bUFrxFYAVYRQ7Vz1gAIA+PWAA/VtQUFBQgWABYAFgoBsDFmPQneCKYEBRgWP/////FmDgG4FSYAQBYCBgQFGAgwOBYACHWvEVgBVhFH9XPWAAgD49YAD9W1BQUFBgQFFgHz2QgQFgHxkWggFgQFJhFKKRkIEBkGElKlZbm1CHjGBAUWAgAWEUt5KRkGEjD1ZbYEBRYCCBgwMDgVKQYEBSgFGQYCABIJdQgWABYAFgoBsDFmMu/DzuYEBRgWP/////FmDgG4FSYAQBYABgQFGAgwOBYACHgDsVgBVhFQpXYACA/VtQWvGSUFBQgBVhFRtXUGABW2EVUVc9gIAVYRVJV2BAUT1gPwFgHxkWgQFgQFI9gVKRUD1gAGAghAE+YRVOVltgYJFQW1BQW4eCYAFgAWCgGwMWgDuAYCABYEBRkIEBYEBSgYFSYACQgGAgAZCTPGBAUWAgAWEViZKRkGEkeVZbYEBRYCCBgwMDgVKQYEBSgFGQYCABIJdQh4JgAWABYKAbAxY/YEBRYCABYRW+kpGQYSMPVltgQFFgIIGDAwOBUpBgQFKAUZBgIAEgl1CBYAFgAWCgGwMWYcNQYEBRYCQBYEBRYB8ZgYMDAYFSYECRkJFSY2hO8EVg4RtgIIIBgFFgAWABYOAbAxaQkReQUmBAUWEWJJGQYSVLVltgAGBAUYCDA4FgAIeH8ZJQUFA9gGAAgRRhFmJXYEBRPWA/AWAfGRaBAWBAUj2BUpFQPWAAYCCEAT5hFmdWW2BgkVBbUGAEYABgA2EWeISCYSZGVltQgVRg/2EBAJKQkgqCgQIZkJEWlBUVApOQkxeQVVBgBFSJkRZgA2BAUWAgAWEWsJOSkZBhJ8JWW2BAUWAggYMDA4FSkGBAUoBRkGAgASCXUIFgAWABYKAbAxZhw1BgQFFgJAFgQFFgHxmBgwMBgVJgQJGQkVJjaE7wRWDhG2AgggGAUWABYAFg4BsDFpCRF5BSYEBRYRcWkZBhJUtWW2AAYEBRgIMDgYaG9JJQUFA9gGAAgRRhF1JXYEBRPWA/AWAfGRaBAWBAUj2BUpFQPWAAYCCEAT5hF1dWW2BgkVBbUGAEYABgA2EXaISCYSZGVltQgVRg/2EBAJKQkgqCgQIZkJEWlBUVApOQkxeQVVBgBFSJkRZgA2BAUWAgAWEXoJOSkZBhJ8JWW2BAUWAggYMDA4FSkGBAUoBRkGAgASCXUIFgAWABYKAbAxZhw1BgQFFgJAFgQFFgHxmBgwMBgVJgQJGQkVJjaE7wRWDhG2AgggGAUWABYAFg4BsDFpCRF5BSYEBRYRgGkZBhJUtWW2AAYEBRgIMDgYaG+pJQUFA9gGAAgRRhGEJXYEBRPWA/AWAfGRaBAWBAUj2BUpFQPWAAYCCEAT5hGEdWW2BgkVBbUGAEYABgA2EYWISCYSZGVltQgVRg/2EBAJKQkgqCgQIZkJEWlBUVApOQkxeQVVBgBFSJkRZgA2BAUWAgAWEYkJOSkZBhJ8JWW2BAUWAggYMDA4FSkGBAUoBRkGAgASCXUIFgAWABYKAbAxZjB9po9WBAUYFj/////xZg4BuBUmAEAWAAYEBRgIMDgWAAh4A7FYAVYRjjV2AAgP1bUFrxFYAVYRj3Vz1gAIA+PWAA/VtQUFBQUFBbYBCAjRYDYRywV2EZEGEDBFZbYAFgAWBAGwMWmVBhGSNhAwRWW2ABYAFgQBsDFphQYRk2YQMEVltgAWABYEAbAxaXUGAAYAGBjIyMYEBRYACBUmAgAWBAUmBAUWEZZpSTkpGQYSf3VltgIGBAUWAggQOQgIQDkIVa+hWAFWEZiFc9YACAPj1gAP1bUFBQYCBgQFEDUZBQhoFgQFFgIAFhGaeSkZBhJCtWW2BAUWAggYMDA4FSkGBAUoBRkGAgASCWUGEZx2EDBFZbYAFgAWBAGwMWmlCGYAKMYEBRYCABYRnmkZBhIvpWW2BAUWAggYMDA4FSkGBAUmBAUWEaApGQYSVLVltgIGBAUYCDA4GFWvoVgBVhGh9XPWAAgD49YAD9W1BQUGBAUWAfPZCBAWAfGRaCAWBAUmEaQZGQgQGQYSUqVltgQFFgIAFhGlKSkZBhIw9WW2BAUWAggYMDA4FSkGBAUoBRkGAgASCWUGEacmEDBFZbYAFgAWBAGwMWmlCGYAOMYEBRYCABYRqRkZBhIvpWW2BAUWAggYMDA4FSkGBAUmBAUWEarZGQYSVLVltgIGBAUYCDA4GFWvoVgBVhGspXPWAAgD49YAD9W1BQUGBAUVFgYBtgQFFgIAFhGuWSkZBhKEFWW2BAUWAggYMDA4FSkGBAUoBRkGAgASCWUGEbBWEDBFZbYAFgAWBAGwMWmlCGYRs5jGBAUWAgAWEbJZGQYR5cVltgQFFgIIGDAwOBUpBgQFJhBfZWW2BAUWAgAWEbSpKRkGEkeVZbYEBRYCCBgwMDgVKQYEBSgFGQYCABIJZQYRtqYQMEVltgAWABYEAbAxaaUGEbfWEDBFZbYAFgAWBAGwMWmVCGYRuVjGAYjWEDYFZbYEBRYCABYRumkpGQYSMPVltgQFFgIIGDAwOBUpBgQFKAUZBgIAEgllBhG8ZhAwRWW2ABYAFgQBsDFppQYRvZYQMEVltgAWABYEAbAxaZUGEb7GEDBFZbYAFgAWBAGwMWmFBhG/9hAwRWW2ABYAFgQBsDFpdQhmEcF4yMjIxhA65WW2BAUWAgAWEcKJKRkGEoiVZbYEBRYCCBgwMDgVKQYEBSgFGQYCABIJZQYRxIYQMEVltgAWABYEAbAxaaUGEcW2EDBFZbYAFgAWBAGwMWmVBhHG5hAwRWW2ABYAFgQBsDFphQhmEchYyMjGEds1ZbYEBRYCABYRyWkpGQYSiJVltgQFFgIIGDAwOBUpBgQFKAUZBgIAEgllBQW2Ecu4FgAWEor1ZbkFBhBs5WW1CDf0N4mzDkxtU+JzXlcBIHsFKbLMIpsbsCuWkdOeohjafXYEBRYEBRgJEDkKKChH8suGCGvHYQeC/IYGumiADNIbLPW9nZ+AE5AZBab/TqXWBAUWBAUYCRA5CjgYOFf5SiJFDqcSbVtI84Ie8JxycgeS0lvCYOxFogIhOAVnldYEBRYEBRgJEDkKSBg4V/jzEU4AC5T6aYyrPDiWkAf/RtXYCpRdzedlNysdE4P1KEYEBRYR1/kZBhHlxWW2BAUYCRA5CkYAFgAWBAGwONFmAAkIFSYAFgIFKFkGBAkCBVUJKbmlBQUFBQUFBQUFBQVlthHbthHfRWW2Edw2EeOFZbhIFSYCCBAYSQUmBAgIIBhJBSgmBgg2AAYAda8YCAYR3qV2AAgP1bUFBQk5JQUFBWW2BAUWBAgIIBgVJgApCCkIA2gzdQkZKRUFBWW2BAUWCAgIIBYEBSYASQgpCANoM3UJGSkVBQVlthAj2AYSjQgzkBkFZbYEBRYGCAggFgQFJgA5CCkIA2gzdQkZKRUFBWW4BbglJQUFZbYCCBAWEeaoKEYR5UVluSkVBQVltgAWABYEAbA4EWYR5WVltgIIEBYR5qgoRhHnBWW4BbgRRhHppXYACA/VtQVluANWEeaoFhHo1WW2AAYCCChAMSFWEevVdhHr1gAID9W2AAYR7JhIRhHp1WW5STUFBQUFZbYACAYABgYISGAxIVYR7pV2Ee6WAAgP1bYABhHvWGhmEenVZbk1BQYCBhHwaGgocBYR6dVluSUFBgQGEfF4aChwFhHp1WW5FQUJJQklCSVltgAIBgAIBggIWHAxIVYR86V2EfOmAAgP1bYABhH0aHh2EenVZblFBQYCBhH1eHgogBYR6dVluTUFBgQGEfaIeCiAFhHp1WW5JQUGBgYR95h4KIAWEenVZbkVBQkpWRlFCSUFZbYABhH5GDg2EeVFZbUFBgIAGQVltgAoGAYABbg4EQFWEfxVeBUWEftIeCYR+FVluWUGAggwGSUFBgAQFhH6BWW1BQUFBQUFZbYECBAWEeaoKEYR+ZVltjTkh7cWDgG2AAUmBBYARSYCRgAP1bYB8ZYB+DARaBAYGBEGABYAFgQBsDghEXFWEgFldhIBZhH9tWW2BAUlBQVltgAGEgLGAAYEBRkFCQVluQUGEgOIKCYR/xVluRkFBWW2AAYAFgAWBAGwOCERVhIFZXYSBWYR/bVltgHxlgH4MBFmAgAZKRUFBWW4KBgzdQYACRAVJWW2AAYSCGYSCBhGEgPVZbYSAdVluQUIKBUmAggQGEhIQBERVhIKFXYSChYACA/VthIKyEgoVhIGdWW1CTklBQUFZbYACCYB+DARJhIMhXYSDIYACA/VuBNWEeyYSCYCCGAWEgc1ZbYABgIIKEAxIVYSDtV2Eg7WAAgP1bgTVgAWABYEAbA4ERFWEhBldhIQZgAID9W2EeyYSChQFhILRWW2AAW4OBEBVhIS1XgIIBUYOCAVJgIAFhIRVWW1BQYACRAVJWW2AAYSFGgmAAgVGSkVBQVluAhFJgIIQBk1BhIV2BhWAghgFhIRJWW2AfAWAfGRaSkJIBkpFQUFZbYCCAglKBAWEhf4GEYSE2VluTklBQUFZbYAFgAWBAGwOBFmEej1ZbgDVhHmqBYSGGVltj/////4EWYR6PVluANWEeaoFhIaBWW2AAgGAAYGCEhgMSFWEhz1dhIc9gAID9W2AAYSHbhoZhIZVWW5NQUGAgYR8GhoKHAWEhrFZbY05Ie3Fg4BtgAFJgEWAEUmAkYAD9W2ABYAFgQBsDkYIWkZCBFpCCggKQgRaQgYEUYQZYV2EGWGEh7FZbYAFgAWBAGwORghaRkIEWkIKCAZCBERVhHmpXYR5qYSHsVltjTkh7cWDgG2AAUmASYARSYCRgAP1bYABgAWABYEAbA4IWkVBgAWABYEAbA4MWW5JQgmEiiVdhIolhIktWW1AGkFZbY05Ie3Fg4BtgAFJgMmAEUmAkYAD9W4CCAYCCERVhHmpXYR5qYSHsVltgAGAAGYIDYSLKV2EiymEh7FZbUGABAZBWW4GBAoCCFYOCBIUUF2EGWFdhBlhhIexWW2AAgmEielZbgGEeVlZbkFZbYABhIwaChGEi8VZbUGAgAZGQUFZbYABhIxuChWEi8VZbYCCCAZFQYSMrgoRhIvFWW1BgIAGSkVBQVltgAIJhI0RXYSNEYSJLVltQBJBWW4GBAoBgAIMSYAFg/xuFFBYVYSNmV2EjZmEh7FZbgoIFhBSDFRdhBlhXYQZYYSHsVltgAIJhI4lXYSOJYSJLVltgAWD/G4IUYAAZhBQWFWEjo1dhI6NhIexWW1AFkFZbYACCYSO3V2Ejt2EiS1ZbUAeQVltgAWABYPgbAxmBFmEeVlZbYABhI9iChWEi8VZbYCCCAZFQYSPogoRhI7xWW1BgAQGSkVBQVltgAGABYAFgoBsDghZhHmpWW2AAYR5qgmBgG5BWW2AAYR5qgmEkA1ZbYR5WYSQmgmEj8lZbYSQPVltgAGEkN4KFYSLxVltgIIIBkVBhJEeChGEkGlZbUGAUAZKRUFBWW2AAYSRhgmAAgVGSkVBQVlthJG+BhWAghgFhIRJWW5KQkgGSkVBQVltgAGEkhYKFYSLxVltgIIIBkVBhHsmChGEkUVZbYABhJKKDhYRhIGdWW1BQAZBWW2AAYSS0goZhIvFWW2AgggGRUGEkxYKEhmEklVZblZRQUFBQUFZbYAFgAWDgGwMZgRZhHlZWW2AAYSTqgoVhIvFWW2AgggGRUGEk+oKEYSTOVltQYAQBkpFQUFZbYR5WgWEj8lZbYCCBAWEeaoKEYSUEVltgAIFRkFBhHmqBYR6NVltgAGAggoQDEhVhJT9XYSU/YACA/VtgAGEeyYSEYSUbVltgAGEhf4KEYSRRVltjTkh7cWDgG2AAUmAiYARSYCRgAP1bYAKBBGABghaAYSWBV2B/ghaRUFtgIIIQgQNhJZNXYSWTYSVXVltQkZBQVltgAGEeamEi94OBVlthJa6DYSWZVluBVGAAGWAIlJCUApOEGxkWkhuRkJEXkFVQVltgAGEl1oGEhGElpVZbUFBQVluBgRAVYSX2V2El7mAAgmElyVZbYAEBYSXbVltQUFZbYB+CERVhJdZXYSYYgWAAgYFSgZBgIJAgkpFQUFZbYCBgH4UBBIEBYCCFEBVhJi1XUIBbYSY/YCBgH4YBBIMBgmEl21ZbUFBQUFBWW2EmVIJgAIFRkpFQUFZbYAFgAWBAGwOBERVhJmtXYSZrYR/bVlthJnWCVGElbVZbYSaAgoKFYSX6VltgIGAfgxFgAYEUYSa1V2AAhBVhJp1XgocBUZBQW2AAGWAIhgIcGYEWYAKGAheGVVBhH8VWW2AfGYQWYSbPhmAAgYFSgZBgIJAgkpFQUFZbYABbgoEQFWEm8leEiQFRglVgIJSFAZRgAZCSAZEBYSbSVluGgxAVYScOV4SJAVFgABlgH4kWYAgCHBkWglVbYAFgAogCAYhVUFBQUFBQUFBQVltgAGEeaoJg+BuQVltgAGEeaoJhJyJWW2EeVoEVFWEnLlZbYACBVGEnUYFhJW1WW2ABghaAFWEnaFdgAYEUYSd9V2EnuVZbYP8ZgxaGUoEVFYIChgGTUGEnuVZbYSeShWAAgYFSgZBgIJAgkpFQUFZbYABbg4EQFWEnsVeBVIiCAVJgAZCRAZBgIAFhJ5VWW4OIAZVQUFBbUFBQkpFQUFZbYABhJ86ChmEi8VZbYCCCAZFQYSfegoVhJzlWW2ABggGRUGEkxYKEYSdEVltg/4EWYR5WVltggIEBYSgFgodhHlRWW2EoEmAggwGGYSfuVlthKB9gQIMBhWEeVFZbYSTFYGCDAYRhHlRWW2v///////////////8ZgRZhHlZWW2AAYShNgoVhIvFWW2AgggGRUGEkR4KEYSgsVltgAoGAYABbg4EQFWEfxVeBUWEoeIeCYR+FVluWUGAggwGSUFBgAQFhKGRWW2AAYSiVgoVhIvFWW2AgggGRUGEopYKEYShdVltQYEABkpFQUFZbY/////+RghaRkIEWkIKCAZCBERVhHmpXYR5qYSHsVv5ggGBAUjSAFWEAEFdgAID9W1BhAh2AYQAgYAA5YADz/mCAYEBSNIAVYQAQV2AAgP1bUGAENhBhAGJXYAA1YOAcgGMH2mj1FGEAZ1eAYy78PO4UYQBxV4BjP7XByxRhAHlXgGODgfWKFGEAjFeAY9Cd4IoUYQCrV4Bj7bRVKRRhALNXW2AAgP1bYQBvYQDGVlsAW2EAb2EA21ZbYQBvYQCHNmAEYQE8VltgAFVWW2EAlWAAVIFWW2BAUWEAopGQYQFlVltgQFGAkQOQ81thAJVhAPNWW2EAb2EAwTZgBGEBllZbYQEPVltgAIBUkIBhANWDYQHNVluRkFBVAFtgAIBUkIBhAOqDYQHNVluRkFBVYACA/VtgAIBUgYBhAQKDYQHNVluRkFBVUGAAVJBQkFZbgGABYAFgoBsDFv9bgFuBFGEBKFdgAID9W1BWW4A1YQE2gWEBG1ZbkpFQUFZbYABgIIKEAxIVYQFRV2EBUWAAgP1bYABhAV2EhGEBK1ZblJNQUFBQVluBgVJgIIEBYQE2VltgAGABYAFgoBsDghZhATZWW2EBHYFhAXFWW4A1YQE2gWEBglZbYABgIIKEAxIVYQGrV2EBq2AAgP1bYABhAV2EhGEBi1ZbY05Ie3Fg4BtgAFJgEWAEUmAkYAD9W2AAYAAZggNhAeBXYQHgYQG3VltQYAEBkFb+omRpcGZzWCISIJIzhp2aS+/m2FyicHt7gYJSdXcJ0lwV+VhhBZEQriSrZHNvbGNDAAgTADOiZGlwZnNYIhIgZttJvB2S+xvThYM5jtuo0lls0K3IuUFHVZnuBZTSp1Nkc29sY0MACBMAMw==",
          "touched": true,
          "read": true
        }
      }
    }
  ]
}
