{
  "accountTrie": {
    "6719c2acb4bb9b2bfdc0ae1e22dd004cf11db988c7a7a343dbf38f9216178810": "f873a0209bad3efd7d22d728e0b92c3bcdab947570414641f88051189032c4b246dc34b850f84e808ad3c21c118da020d8d960a056e81f171bcc55a6ff8345e692c0f86e5b48e01b996cadc001622fb5e363b421a0c5d2460186f7233c927e7db2dcc703c0e500b653ca82273b7bfad8045d85a470",
    "7653ac413a0ef3e68cd4585861e0fdb761ae8118469c555ba198d3bae6851f32": "f851a0e29cd6451f96ed556022f6076eacfbb24d0680280f8a4a588419a89b9a4260aa80808080808080a0acd35ce56ed69b44952bd08c3068b76a2159122c9267117b4975534fcd3bf2488080808080808080",
    "8316541ab79bcf6c62ced820a4cd885166ff789d06602f83e5307081d6d2e409": "f85180a09db8fab259b44229d27054101fd144a321538837e70c4b5cb7413a8a43c3cc8b80a044a39a1483a58de9b12fed25d33adfd91ebc0f6148012294794a043b06e3f36080808080808080808080808080",
    "85271baf4e17971d02ddb8ed25cdeabdc30dfdc062294f1e46a3d3b7b95e395f": "f8749f3eec2b84f0ba344fd4b4d2f022469febe7a772c4789acfc119eb558ab1da3db852f850138c033b2e3c9e9692a6369b8b1ca056e81f171bcc55a6ff8345e692c0f86e5b48e01b996cadc001622fb5e363b421a0c5d2460186f7233c927e7db2dcc703c0e500b653ca82273b7bfad8045d85a470",
    "8bff518237b7c1d75c2a2d236e9adaa0c284acbc75e670131b5299d28aec8760": "f851808080a07653ac413a0ef3e68cd4585861e0fdb761ae8118469c555ba198d3bae6851f3280a03d2c9faa594230d254816429f8dc379c30c8b3679ef67f44dd31f3e6822f9a498080808080808080808080",
    "8cc74c711aa53650e4b31d75be675a4c0625e8299e3982ec4418ce4c993e6f72": "f85180a031d1eb10fdf37ef90417d463e9e3d1dad5bab6a3e8b38ccc4eaa744250317457808080a0a3c39e5316a885ea40f3df95c2698c6e9f803ed1a786e42b50bdcb2b625913518080808080808080808080",
    "8df99f815b8aed978f07b7be6915071fcc32863c90b4fc54df8d3fef52e8f0b0": "f8918080808080a08d8d5cfa75bc646c9e6347dc2dedd4b9ce4a34d34d066344148525b0cc0cc7e58080a02b552522c790b0433d466408318c5c61bfa7e2dbb9c2e13bfec3d1d51290addd8080808080a06719c2acb4bb9b2bfdc0ae1e22dd004cf11db988c7a7a343dbf38f9216178810a099a6632dc218993740f5b428ad3602ef19498960c916c08326a1b5e6c61af9f280",
    "9db8fab259b44229d27054101fd144a321538837e70c4b5cb7413a8a43c3cc8b": "f869a0207d357a287cd753a8db1849891c491e39a6e2515209f4d6b6ebe55e730ca86ab846f8440180a054a7dbfb9323175b5ec46ee4317de391230451e4a5f47ab5e94c70f055bb1b31a068ec34b771975592f4a19d0ab58f8579ab17e382a5e6ecddfa717b354472b9b0",
    "a3c39e5316a885ea40f3df95c2698c6e9f803ed1a786e42b50bdcb2b62591351": "f85180a085271baf4e17971d02ddb8ed25cdeabdc30dfdc062294f1e46a3d3b7b95e395f80808080808080808080a0b352e4c72d853473be5eac69cf10adfdc61a3747ec26a4b424f0a29292fc1d3780808080",
    "acd35ce56ed69b44952bd08c3068b76a2159122c9267117b4975534fcd3bf248": "f8729f30c7b7ae81a58eb98d9c78de4a1fd7fd9535fc953ed2be602daaa41767312ab850f84e808ad3c21bd2b14d43b6ad95a056e81f171bcc55a6ff8345e692c0f86e5b48e01b996cadc001622fb5e363b421a0c5d2460186f7233c927e7db2dcc703c0e500b653ca82273b7bfad8045d85a470",
    "bda62c129f4f06641d03a1425cf37e58b98e05d0573490657cc47cd825c7db98": "f901f1a07aa37f4e8b1366a6e684d0ca39dfbc36ea645faf486b16404b0319a0d7a290b5a0f26b308fbf175a60c25af491f4879ba1ec11914f6fa9dc722f9746e2ab44679980a0eb0147a6c13630999c8f65d437698ef757d29f8ae4e251554df9da7d2271cd94a0855acc3496e4c492ab905d1283e41ff4d1852a31494e06f7aaa642f99169cb42a08bff518237b7c1d75c2a2d236e9adaa0c284acbc75e670131b5299d28aec8760a0f820e589d2219ae3f297594cfd731f2ec64d19b1ba0f918369e9b413c126732da0f1d3f558fb9b9d9c21f3f4fcf667ee86d3f0aac1350707c868141c0d942f1e06a00cc7cac9827e1a94b47d85e478f41dc49207a9c0b9a6f0a19bf49deca3bac22ca0e6e82a109ac4e5daed8f76043d8393d0298472e0518ff96a48b8492e479881fba08cc74c711aa53650e4b31d75be675a4c0625e8299e3982ec4418ce4c993e6f72a054cab2921d01b8ab026305874aca3f192ae1af8f0bb0c5d39e381645509e3931a08df99f815b8aed978f07b7be6915071fcc32863c90b4fc54df8d3fef52e8f0b0a0d5c3f35b3433034102536147a3dcfd190c7bb81fe37c4801a018ecc677f34deca08333762fcaf7193e048ab228010951a924224adf67ad901b5e98441becfcbbd7a08316541ab79bcf6c62ced820a4cd885166ff789d06602f83e5307081d6d2e40980"
  },
  "storageTrie": {
    "54a7dbfb9323175b5ec46ee4317de391230451e4a5f47ab5e94c70f055bb1b31": "f8b180808080a01ac2f6079764f98dd9e82b615b42071b08d04f9447557044ac4669f9b750b1108080a043ba117e754e8d1be6795f21f4fcf2092c0f37f3f3e5a8cb69a180ad4b779866a0e062e154c1096dcf46c6968b518306698cbffa8369adc6f0122a57ccb3cbb1f5a047e1b61062a7dea0eb2917358f71d509eb31e317b957ef1300dccc96c42ea2668080a02aa97a556a6e4f188c87b89510eea3a6dcff2aa9b6b85e6548476f5d7666852680808080",
    "e062e154c1096dcf46c6968b518306698cbffa8369adc6f0122a57ccb3cbb1f5": "f843a03a35acfbc15ff81a39ae7d344fd709f28e8600b4aa8c65c6b64bfe7fe36bd19ba1a05357500000000000000000000000000000000000000000000000000000000006"
  },
  "parentStateRoot": "0xbda62c129f4f06641d03a1425cf37e58b98e05d0573490657cc47cd825c7db98",
  "transactionTraces": [
    {
      "txn": "0xf8aa138496923fd282af1894f7012159bf761b312153e8c8d176932fe9aaa7ea80b844095ea7b30000000000000000000000000775aafb6dd38417581f7c583053fa3b78fd4fd10000000000000000000000000000000000000000204fce5e3e25026110000000820fc5a062bf7381ddf64911781dd03f40daf5373db4744aecfc4fc39a98c9019fef4feda047cc523ea19fc60913e9a9ea2759dea8abb1a66c03a0065c6cd0a2d96a34f946",
      "delta": {
        "0x0000000000000000000000000000000000000000": {
          "address": "0x0000000000000000000000000000000000000000",
          "read": true
        },
        "0x85dA99c8a7C2C95964c8EfD687E95E632Fc533D6": {
          "address": "0x85dA99c8a7C2C95964c8EfD687E95E632Fc533D6",
          "nonce": 20,
          "read": true
        },
        "0xA52f1226449eA47013CceD3Dc59927657e3054dF": {
          "address": "0xA52f1226449eA47013CceD3Dc59927657e3054dF",
          "read": true
        },
        "0xF7012159bF761B312153e8c8D176932Fe9aAA7eA": {
          "address": "0xF7012159bF761B312153e8c8D176932Fe9aAA7eA",
          "storage": {
            "0xf48efcc0e394bf2b7a2936469d7e5f6c8b14b6fd573df5394e9f0d1405b0f39b": "0x0000000000000000000000000000000000000000204fce5e3e25026110000000"
          },
          "storage_read": {
            "0xf48efcc0e394bf2b7a2936469d7e5f6c8b14b6fd573df5394e9f0d1405b0f39b": {}
          },
          "code_read": "YIBgQFI0gBVhABBXYACA/VtQYAQ2EGEAqVdgADVg4ByAYzlQk1ERYQBxV4BjOVCTURRhAWhXgGNwoIIxFGEBmFeAY5XYm0EUYQHIV4BjpFfC1xRhAeZXgGOpBZy7FGECFleAY91i7T4UYQJGV2EAqVZbgGMG/d4DFGEArleAYwlep7MUYQDMV4BjGBYN3RRhAPxXgGMjuHLdFGEBGleAYzE85WcUYQFKV1tgAID9W2EAtmECdlZbYEBRYQDDkZBhCwxWW2BAUYCRA5DzW2EA5mAEgDYDgQGQYQDhkZBhC8dWW2EDCFZbYEBRYQDzkZBhDCJWW2BAUYCRA5DzW2EBBGEDK1ZbYEBRYQERkZBhDExWW2BAUYCRA5DzW2EBNGAEgDYDgQGQYQEvkZBhDGdWW2EDNVZbYEBRYQFBkZBhDCJWW2BAUYCRA5DzW2EBUmEDZFZbYEBRYQFfkZBhDNZWW2BAUYCRA5DzW2EBgmAEgDYDgQGQYQF9kZBhC8dWW2EDbVZbYEBRYQGPkZBhDCJWW2BAUYCRA5DzW2EBsmAEgDYDgQGQYQGtkZBhDPFWW2EDpFZbYEBRYQG/kZBhDExWW2BAUYCRA5DzW2EB0GED7FZbYEBRYQHdkZBhCwxWW2BAUYCRA5DzW2ECAGAEgDYDgQGQYQH7kZBhC8dWW2EEflZbYEBRYQINkZBhDCJWW2BAUYCRA5DzW2ECMGAEgDYDgQGQYQIrkZBhC8dWW2EE9VZbYEBRYQI9kZBhDCJWW2BAUYCRA5DzW2ECYGAEgDYDgQGQYQJbkZBhDR5WW2EFGFZbYEBRYQJtkZBhDExWW2BAUYCRA5DzW2BgYAOAVGEChZBhDY1WW4BgHwFgIICRBAJgIAFgQFGQgQFgQFKAkpGQgYFSYCABgoBUYQKxkGENjVZbgBVhAv5XgGAfEGEC01dhAQCAg1QEAoNSkWAgAZFhAv5WW4IBkZBgAFJgIGAAIJBbgVSBUpBgAQGQYCABgIMRYQLhV4KQA2AfFoIBkVtQUFBQUJBQkFZbYACAYQMTYQWfVluQUGEDIIGFhWEFp1ZbYAGRUFCSkVBQVltgAGACVJBQkFZbYACAYQNAYQWfVluQUGEDTYWChWEHcFZbYQNYhYWFYQf8VltgAZFQUJOSUFBQVltgAGASkFCQVltgAIBhA3hhBZ9WW5BQYQOZgYWFYQOKhYlhBRhWW2EDlJGQYQ3tVlthBadWW2ABkVBQkpFQUFZbYACAYACDc///////////////////////////FnP//////////////////////////xaBUmAgAZCBUmAgAWAAIFSQUJGQUFZbYGBgBIBUYQP7kGENjVZbgGAfAWAggJEEAmAgAWBAUZCBAWBAUoCSkZCBgVJgIAGCgFRhBCeQYQ2NVluAFWEEdFeAYB8QYQRJV2EBAICDVAQCg1KRYCABkWEEdFZbggGRkGAAUmAgYAAgkFuBVIFSkGABAZBgIAGAgxFhBFdXgpADYB8WggGRW1BQUFBQkFCQVltgAIBhBIlhBZ9WW5BQYABhBJeChmEFGFZbkFCDgRAVYQTcV2BAUX8Iw3mgAAAAAAAAAAAAAAAAAAAAAAAAAAAAAAAAAAAAAIFSYAQBYQTTkGEOk1ZbYEBRgJEDkP1bYQTpgoaGhANhBadWW2ABklBQUJKRUFBWW2AAgGEFAGEFn1ZbkFBhBQ2BhYVhB/xWW2ABkVBQkpFQUFZbYABgAWAAhHP//////////////////////////xZz//////////////////////////8WgVJgIAGQgVJgIAFgACBgAINz//////////////////////////8Wc///////////////////////////FoFSYCABkIFSYCABYAAgVJBQkpFQUFZbYAAzkFCQVltgAHP//////////////////////////xaDc///////////////////////////FgNhBhZXYEBRfwjDeaAAAAAAAAAAAAAAAAAAAAAAAAAAAAAAAAAAAAAAgVJgBAFhBg2QYQ8lVltgQFGAkQOQ/VtgAHP//////////////////////////xaCc///////////////////////////FgNhBoVXYEBRfwjDeaAAAAAAAAAAAAAAAAAAAAAAAAAAAAAAAAAAAAAAgVJgBAFhBnyQYQ+3VltgQFGAkQOQ/VuAYAFgAIVz//////////////////////////8Wc///////////////////////////FoFSYCABkIFSYCABYAAgYACEc///////////////////////////FnP//////////////////////////xaBUmAgAZCBUmAgAWAAIIGQVVCBc///////////////////////////FoNz//////////////////////////8Wf4xb4eXr7H1b0U9xQn0ehPPdAxTA97IpHlsgCsjHw7klg2BAUWEHY5GQYQxMVltgQFGAkQOQo1BQUFZbYABhB3yEhGEFGFZbkFB///////////////////////////////////////////+BFGEH9leBgRAVYQfoV2BAUX8Iw3mgAAAAAAAAAAAAAAAAAAAAAAAAAAAAAAAAAAAAAIFSYAQBYQffkGEQI1ZbYEBRgJEDkP1bYQf1hISEhANhBadWW1tQUFBQVltgAHP//////////////////////////xaDc///////////////////////////FgNhCGtXYEBRfwjDeaAAAAAAAAAAAAAAAAAAAAAAAAAAAAAAAAAAAAAAgVJgBAFhCGKQYRC1VltgQFGAkQOQ/VtgAHP//////////////////////////xaCc///////////////////////////FgNhCNpXYEBRfwjDeaAAAAAAAAAAAAAAAAAAAAAAAAAAAAAAAAAAAAAAgVJgBAFhCNGQYRFHVltgQFGAkQOQ/VthCOWDg4NhCnJWW2AAgGAAhXP//////////////////////////xZz//////////////////////////8WgVJgIAGQgVJgIAFgACBUkFCBgRAVYQlrV2BAUX8Iw3mgAAAAAAAAAAAAAAAAAAAAAAAAAAAAAAAAAAAAAIFSYAQBYQlikGER2VZbYEBRgJEDkP1bgYEDYACAhnP//////////////////////////xZz//////////////////////////8WgVJgIAGQgVJgIAFgACCBkFVQgWAAgIVz//////////////////////////8Wc///////////////////////////FoFSYCABkIFSYCABYAAgYACCglQBklBQgZBVUIJz//////////////////////////8WhHP//////////////////////////xZ/3fJSrRviyJtpwrBo/DeNqpUrp/FjxKEWKPVaTfUjs++EYEBRYQpZkZBhDExWW2BAUYCRA5CjYQpshISEYQp3VltQUFBQVltQUFBWW1BQUFZbYACBUZBQkZBQVltgAIKCUmAgggGQUJKRUFBWW2AAW4OBEBVhCrZXgIIBUYGEAVJgIIEBkFBhCptWW2AAhIQBUlBQUFBWW2AAYB8ZYB+DARaQUJGQUFZbYABhCt6CYQp8VlthCuiBhWEKh1Zbk1BhCviBhWAghgFhCphWW2ELAYFhCsJWW4QBkVBQkpFQUFZbYABgIIIBkFCBgQNgAIMBUmELJoGEYQrTVluQUJKRUFBWW2AAgP1bYABz//////////////////////////+CFpBQkZBQVltgAGELXoJhCzNWW5BQkZBQVlthC26BYQtTVluBFGELeVdgAID9W1BWW2AAgTWQUGELi4FhC2VWW5KRUFBWW2AAgZBQkZBQVlthC6SBYQuRVluBFGELr1dgAID9W1BWW2AAgTWQUGELwYFhC5tWW5KRUFBWW2AAgGBAg4UDEhVhC95XYQvdYQsuVltbYABhC+yFgoYBYQt8VluSUFBgIGEL/YWChgFhC7JWW5FQUJJQkpBQVltgAIEVFZBQkZBQVlthDByBYQwHVluCUlBQVltgAGAgggGQUGEMN2AAgwGEYQwTVluSkVBQVlthDEaBYQuRVluCUlBQVltgAGAgggGQUGEMYWAAgwGEYQw9VluSkVBQVltgAIBgAGBghIYDEhVhDIBXYQx/YQsuVltbYABhDI6GgocBYQt8VluTUFBgIGEMn4aChwFhC3xWW5JQUGBAYQywhoKHAWELslZbkVBQklCSUJJWW2AAYP+CFpBQkZBQVlthDNCBYQy6VluCUlBQVltgAGAgggGQUGEM62AAgwGEYQzHVluSkVBQVltgAGAggoQDEhVhDQdXYQ0GYQsuVltbYABhDRWEgoUBYQt8VluRUFCSkVBQVltgAIBgQIOFAxIVYQ01V2ENNGELLlZbW2AAYQ1DhYKGAWELfFZbklBQYCBhDVSFgoYBYQt8VluRUFCSUJKQUFZbf05Ie3EAAAAAAAAAAAAAAAAAAAAAAAAAAAAAAAAAAAAAYABSYCJgBFJgJGAA/VtgAGACggSQUGABghaAYQ2lV2B/ghaRUFtgIIIQgQNhDbhXYQ23YQ1eVltbUJGQUFZbf05Ie3EAAAAAAAAAAAAAAAAAAAAAAAAAAAAAAAAAAAAAYABSYBFgBFJgJGAA/VtgAGEN+IJhC5FWW5FQYQ4Dg2ELkVZbklCCggGQUICCERVhDhtXYQ4aYQ2+VltbkpFQUFZbf0VSQzIwOiBkZWNyZWFzZWQgYWxsb3dhbmNlIGJlbG93YACCAVJ/IHplcm8AAAAAAAAAAAAAAAAAAAAAAAAAAAAAAAAAAABgIIIBUlBWW2AAYQ59YCWDYQqHVluRUGEOiIJhDiFWW2BAggGQUJGQUFZbYABgIIIBkFCBgQNgAIMBUmEOrIFhDnBWW5BQkZBQVlt/RVJDMjA6IGFwcHJvdmUgZnJvbSB0aGUgemVybyBhZGRgAIIBUn9yZXNzAAAAAAAAAAAAAAAAAAAAAAAAAAAAAAAAAAAAAGAgggFSUFZbYABhDw9gJINhCodWW5FQYQ8agmEOs1ZbYECCAZBQkZBQVltgAGAgggGQUIGBA2AAgwFSYQ8+gWEPAlZbkFCRkFBWW39FUkMyMDogYXBwcm92ZSB0byB0aGUgemVybyBhZGRyZWAAggFSf3NzAAAAAAAAAAAAAAAAAAAAAAAAAAAAAAAAAAAAAAAAYCCCAVJQVltgAGEPoWAig2EKh1ZbkVBhD6yCYQ9FVltgQIIBkFCRkFBWW2AAYCCCAZBQgYEDYACDAVJhD9CBYQ+UVluQUJGQUFZbf0VSQzIwOiBpbnN1ZmZpY2llbnQgYWxsb3dhbmNlAAAAYACCAVJQVltgAGEQDWAdg2EKh1ZbkVBhEBiCYQ/XVltgIIIBkFCRkFBWW2AAYCCCAZBQgYEDYACDAVJhEDyBYRAAVluQUJGQUFZbf0VSQzIwOiB0cmFuc2ZlciBmcm9tIHRoZSB6ZXJvIGFkYACCAVJ/ZHJlc3MAAAAAAAAAAAAAAAAAAAAAAAAAAAAAAAAAAABgIIIBUlBWW2AAYRCfYCWDYQqHVluRUGEQqoJhEENWW2BAggGQUJGQUFZbYABgIIIBkFCBgQNgAIMBUmEQzoFhEJJWW5BQkZBQVlt/RVJDMjA6IHRyYW5zZmVyIHRvIHRoZSB6ZXJvIGFkZHJgAIIBUn9lc3MAAAAAAAAAAAAAAAAAAAAAAAAAAAAAAAAAAAAAAGAgggFSUFZbYABhETFgI4NhCodWW5FQYRE8gmEQ1VZbYECCAZBQkZBQVltgAGAgggGQUIGBA2AAgwFSYRFggWERJFZbkFCRkFBWW39FUkMyMDogdHJhbnNmZXIgYW1vdW50IGV4Y2VlZHMgYmAAggFSf2FsYW5jZQAAAAAAAAAAAAAAAAAAAAAAAAAAAAAAAAAAYCCCAVJQVltgAGERw2Amg2EKh1ZbkVBhEc6CYRFnVltgQIIBkFCRkFBWW2AAYCCCAZBQgYEDYACDAVJhEfKBYRG2VluQUJGQUFb+omRpcGZzWCISINwaT1Bj2EQcsY1D2YT/+vOyYNTTDgTLrJPce+non9O5ZHNvbGNDAAgTADM=",
          "touched": true,
          "read": true
        }
      }
    }
  ]
}
