{
  "accountTrie": {
    "24c385cc78cfc707d27cbd3c51e23b7a8278e227a12728974f57bd14f310e9f1": "f8769f3eec2b84f0ba344fd4b4d2f022469febe7a772c4789acfc119eb558ab1da3db854f8528215548c033b2e3c5dea306b0085b595a056e81f171bcc55a6ff8345e692c0f86e5b48e01b996cadc001622fb5e363b421a0c5d2460186f7233c927e7db2dcc703c0e500b653ca82273b7bfad8045d85a470",
    "3974e3d4eb3303d5a05c18584465576cc9603b58a23c176285e0f1637efe9854": "f8f180a031d1eb10fdf37ef90417d463e9e3d1dad5bab6a3e8b38ccc4eaa74425031745780a0e1e12ee753fe820fd85966999855fb54a676ef1dd603fe17d38d35d65b6bd56ba0a04e84d92c0b9a1bf76647de42ecc22243261dbc4fa716e6df74039533eb1e90a0cfedce7fb4615215dd36d512178880aba0ce13f7b747b10a7ac7141e6fe2a345a088051b9667deb59e99614788c0d0aedaec2b9658bd714c851f16eb1d1ad39652a0dbe88e3ca7dd488f49b5d0d0083a9888c8c8af012881eb3de63cea270c8de723808080a0274e2e0e8f8fc8484e8dbec1d909ba8aa63f30695c18d02d0698ff7ac8d89b4b8080808080",
    "4005c929f299cb7f9872b437f4e3f18d2c4eb6ad5fe459d8fdf18f6e589f1171": "f90211a03e393eddf453769ee471dc5f44e6bd158c772f28a9c0f390b0b76c7ba33f1300a0fed10ebda8fd3cbf5066e7603dac758ec171b90f6041e2020a21a20cded99b58a04fdc50254821150cfa5e6520e3f3bfd5cf2787b65c73a0a251a5eaae97d725b7a0641e7c07699053fa8ffa3fa31aaddd8fc880d3458ee749869497301fddfcce15a03d4e1d2370eb832b9bcfe2a486aa8014e4998332c819dfdb5daf8add03a6aed8a097589c6684ff0440f421df0ea157f3411d3e5193eb8c8332b9741d4fee657386a0372fe5d5fb2e631312c1f0745a6439ddac3de35a74913a4518eccb04719a72f8a03c215dcd054e2a168fe3476f4015e82642b4d77b50fd2894b02710f491cf4b84a0b6f24b421eb36dff261d9295bc47fec8eaa4ff79c2fe27c764281742cc32f60ba0427d9208f34ad603b2a0925fd576a9fad8c649681d208ecec5d2a8752bc98fcca03974e3d4eb3303d5a05c18584465576cc9603b58a23c176285e0f1637efe9854a0977582678c73cba0918a495bb5f56decbe36ac3b1942f0a4840b52cd81b91a82a05c92f993f9ca0fe3fcc12137ce0470b8aead1a136a09cc4b2f45f41a6c9b1fe9a0c25e88074bbf48a49a51a6acc11d847aebe13c56af307f0eca522c137644107aa03d70bb91ca10b78c1e95ed86f51db1f1903be1b659417797959245914f59f513a006e5e3b7d0f66369d157dec1ca7afba579d0d5156f0d7c6eb9c8636b7e188b8a80",
    "494f30e90c165598aff36896dca2ca04b9ab1360564fb2ea0b55ebce2b2e3632": "f851a0e29cd6451f96ed556022f6076eacfbb24d0680280f8a4a588419a89b9a4260aa80808080808080a0bd4f985a3c9e736fac60e45b43792dfc6a8b962bc8a68a7e92cec4e1b249693f8080808080808080",
    "7aeef8c23e6b6d197c48cbf3d15e317a6efdcee7f439f04328193afd09f6c602": "f869a020c1ec272906bc470ab1b71a6d34f39bc8f50066523eb1bff07806f20088c5f6b846f8447f80a0da2907d3ef840908f00596f97f880420252d1f5819e3279ce9cf53a3867cbc64a07eea3a48563e7b938852aafc93d760d31a84ad520adf1128af576cdd65ee9a8e",
    "97589c6684ff0440f421df0ea157f3411d3e5193eb8c8332b9741d4fee657386": "f8f1a09cd6327de3ac60480be7149c0e646aa11f88b1bbf211afbc2e4c891fea5248208080a0494f30e90c165598aff36896dca2ca04b9ab1360564fb2ea0b55ebce2b2e3632a07aeef8c23e6b6d197c48cbf3d15e317a6efdcee7f439f04328193afd09f6c602a03d2c9faa594230d254816429f8dc379c30c8b3679ef67f44dd31f3e6822f9a498080a06bcfaefc0204cc7c7d73b985cd3f4e7cc96276c7e6e694b6e8b2ac87ab446ba08080808080a0a6df3a651ac8bb7fb3dcab91700d9b204c52fcc82a257169378b3bd0a385ed11a03e3a9de9ffe6cd0b9243be48a522741f00d9ea345742f34248a0945eed1bba7280",
    "bd4f985a3c9e736fac60e45b43792dfc6a8b962bc8a68a7e92cec4e1b249693f": "f8729f30c7b7ae81a58eb98d9c78de4a1fd7fd9535fc953ed2be602daaa41767312ab850f84e808ad3c21bd2b1bb227c45b5a056e81f171bcc55a6ff8345e692c0f86e5b48e01b996cadc001622fb5e363b421a0c5d2460186f7233c927e7db2dcc703c0e500b653ca82273b7bfad8045d85a470",
    "cfedce7fb4615215dd36d512178880aba0ce13f7b747b10a7ac7141e6fe2a345": "f85180a024c385cc78cfc707d27cbd3c51e23b7a8278e227a12728974f57bd14f310e9f180808080808080808080a0b352e4c72d853473be5eac69cf10adfdc61a3747ec26a4b424f0a29292fc1d3780808080",
    "e939eec0c26bd081adaf0d87d94cff6f30a5cf6e4fe85d7e620a8d56027276bf": "f873a0201e84137173633629f40faeb92a810dbcbf913533c7319539f3382ae8af9922b850f84e808ad3c21e73cfb25b64156fa056e81f171bcc55a6ff8345e692c0f86e5b48e01b996cadc001622fb5e363b421a0c5d2460186f7233c927e7db2dcc703c0e500b653ca82273b7bfad8045d85a470",
    "fed10ebda8fd3cbf5066e7603dac758ec171b90f6041e2020a21a20cded99b58": "f8f1808080a0e69d812d295bbeccf97416df44cf0b7099241dbc549a18c8542703c5e2060c8a80a0162c91a1ecf6c3da75a44156f3567e6831e19d3723f161e6e9e257fc3c77b28c8080a022d158acddf030cad84c715465c15984907c7dc5e284d865ae35b0a203d658aa8080a0218942d17c031607cd121c93fcdd68e677a875886ab22833448c66aa74d9d036a0e939eec0c26bd081adaf0d87d94cff6f30a5cf6e4fe85d7e620a8d56027276bfa0fc95a204370d1e8969158a47b5e6037b199bfd7394c6f6e2845d8130806c849f80a0e002b09f0e736f544266c91c9667d78d594fcadb9c825243d16dbad8625b8d3180"
  },
  "storageTrie": {
    "ae827d791e79fe84bcb7427a27d41428cf5394ab00bdd1d4df2d893d872cd79e": "f843a0318e63dea3384bae45fc344065d50afc9f6c6012c0b0106c596c66fa9e32750ca1a0241bce43a48f910ccace3d3e50030b0405ee50ebe52e9c6f5cd79a1428d643c7",
    "da2907d3ef840908f00596f97f880420252d1f5819e3279ce9cf53a3867cbc64": "f8f1a03179bf76ec025a6e74e6d1b5a132ded7f98c8ddaddd2e5698cf4ac4c9bdef9a980a05a7bf9f2c2239875905802f54bfaa3b69057166f5f455ed541ab516a1fdcf768808080a0f73a709aa61399427a8571ad941f7bd9edd985c66122885945ebd7a60929962fa0ae827d791e79fe84bcb7427a27d41428cf5394ab00bdd1d4df2d893d872cd79e80a08a2923de40c6a7cc1baf39b0ff5dabb5a1915421648bff8a690d78485ccf305d80a0233363542eb25b75885e4d4b1d1878e9d558bfd1962fa476dd1e56dfaed530b3a0f5a3be404ce24abe8da1f04544407c72f9f9956d1772a4448f7e04fb0ce4b19480808080"
  },
  "parentStateRoot": "0x4005c929f299cb7f9872b437f4e3f18d2c4eb6ad5fe459d8fdf18f6e589f1171",
  "transactionTraces": [
    {
      "txn": "0x02f8928207d182155484b2d05e0084b2d05e1082ff1b94c3f3338ed0fd9c2013bd26c6b4da337858a486a880a4786727d40000000000000000000000000000000000000000000000000000000000000004c001a052dce5d4eabb9ed76866700e0e10658a02e18ebd449d8b2cb5531e447e29f52da052404407ad1122a06a0d59c262a0fc97d3b2397778d6704e36fae70120e9104a",
      "delta": {
        "0x0000000000000000000000000000000000000000": {
          "address": "0x0000000000000000000000000000000000000000",
          "read": true
        },
        "0x70A0bb66cF004D0FbdB6880Db1E283871cF13D27": {
          "address": "0x70A0bb66cF004D0FbdB6880Db1E283871cF13D27",
          "read": true
        },
        "0x85dA99c8a7C2C95964c8EfD687E95E632Fc533D6": {
          "address": "0x85dA99c8a7C2C95964c8EfD687E95E632Fc533D6",
          "nonce": 5461,
          "read": true
        },
        "0xC3f3338ed0fd9C2013bd26c6b4DA337858A486a8": {
          "address": "0xC3f3338ed0fd9C2013bd26c6b4DA337858A486a8",
          "storage": {
            "0xac33ff75c19e70fe83507db0d683fd3465c996598dc972688b7ace676c89077b": "0x0000000000000000000000000000000000000000000000000000000000000002",
            "0xe90b7bceb6e7df5418fb78d8ee546e97c83a08bbccc01a0644d599ccd2a7c2e0": "0x0000000000000000000000000000000000000000000000000000000000000003"
          },
          "storage_read": {
            "0xac33ff75c19e70fe83507db0d683fd3465c996598dc972688b7ace676c89077b": {},
            "0xe90b7bceb6e7df5418fb78d8ee546e97c83a08bbccc01a0644d599ccd2a7c2e0": {}
          },
          "code_read": "YIBgQFJgBDYQYQDzV2AANWDgHIBjdj78CBFhAIpXgGOyrNUJEWEAWVeAY7Ks1QkUYQKEV4BjyqJgMhRhAqRXgGPOGxk6FGEC0VeAY+yLRmoUYQLkV2AAgP1bgGN2PvwIFGECGleAY3hnJ9QUYQIvV4BjfZR5KhRhAk9XgGOumNsvFGECb1dgAID9W4BjQgt9rhFhAMZXgGNCC32uFGEBlFeAY0hJ8nkUYQHDV4BjSdPWBRRhAfBXgGNX/BCjFGECBVdgAID9W4BjAxO/hhRhAPhXgGMUWwVjFGEBI1eAYxoP580UYQFFV4BjMUjxTxRhAXRXW2AAgP1bNIAVYQEEV2AAgP1bUGEBDWACgVZbYEBRYQEakZBhHlxWW2BAUYCRA5DzWzSAFWEBL1dgAID9W1BhAThhAwRWW2BAUWEBGpGQYR5/Vls0gBVhAVFXYACA/VtQYQENYQFgNmAEYR6oVltgAmAgUoBgAFJgQGAAIFSQUIFWWzSAFWEBgFdgAID9W1BhAQ1hAY82YARhHtFWW2EDYFZbNIAVYQGgV2AAgP1bUGEBDWEBrzZgBGEeqFZbYAFgIFKAYABSYEBgACBUkFCBVls0gBVhAc9XYACA/VtQYQHjYQHeNmAEYR8hVlthA65WW2BAUWEBGpGQYR/NVls0gBVhAfxXYACA/VtQYQENYASBVls0gBVhAhFXYACA/VtQYQENYAiBVls0gBVhAiZXYACA/VtQYQENYAGBVls0gBVhAjtXYACA/VtQYQENYQJKNmAEYR6oVlthA/dWWzSAFWECW1dgAID9W1BgAFRhATiQYAFgAWBAGwMWgVZbNIAVYQJ7V2AAgP1bUGEBDWAQgVZbNIAVYQKQV2AAgP1bUGEBDWECnzZgBGEg2FZbYQW2Vls0gBVhArBXYACA/VtQYQLEYQK/NmAEYSDYVlthBfZWW2BAUWEBGpGQYSFuVlthAQ1hAt82YARhIbdWW2EGX1ZbNIAVYQLwV2AAgP1bUGEB42EC/zZgBGEe0VZbYR2zVltgAIBUY4AAAACQYQMlkGABYAFgQBsDFmNBxk5tYSICVlthAzGQYTA5YSIoVlthAzuRkGEiYVZbYACAVGf//////////xkWYAFgAWBAGwOSkJIWkYIXkFWRkFBWW2AAYEBRYCCBUmAggIIBUmAgYECCAVKEYGCCAVKDYICCAVKCYKCCAVJgwFFgIIFgwIRgAGAFYAAZ8WEDoldgAID9W4BRlpVQUFBQUFBWW2EDtmEd9FZbYQO+YR4PVluFgVJgIIEBhZBSYECAggGFkFJgYIIBhJBSgmCAg2AAYAZa8YCAYQPsV2AAgP1bUFBQlJNQUFBQVltgAIBhBAWDYAFhIqRWW2ABYAFgQBsDgREVYQQcV2EEHGEf21ZbYEBRkICCUoBgIAJgIAGCAWBAUoAVYQRFV4FgIAFgIIICgDaDNwGQUFtQkFBgAluDgRFhBIhXYAGCgoFRgRBhBGZXYQRmYSKOVluRFRVgIJKDApGQkQGQkQFSgGEEgIFhIrdWW5FQUGEES1ZbUGACW4NhBJeCgGEi0VZbEWEFGleBgYFRgRBhBK5XYQSuYSKOVltgIAJgIAEBURVhBQhXYABhBMeCgGEi0VZbkFBbhIERYQUGV2AAg4KBUYEQYQTlV2EE5WEijlZbkRUVYCCSgwKRkJEBkJEBUmEE/4KCYSKkVluQUGEEylZbUFuAYQUSgWEit1ZbkVBQYQSMVltQYABgAluEgRFhBXdXgoGBUYEQYQU5V2EFOWEijlZbYCACYCABAVEVYQVlV2AAgoFSYAJgIFKBkGBAkCBVgWEFYYFhIrdWW5JQUFuAYQVvgWEit1ZbkVBQYQUgVltQf+zwpdpXWAMVtcMvOdCGnL7XJUZYZQcSbHalJ//3VG8DgWBAUWEFp5GQYR5cVltgQFGAkQOQoZOSUFBQVltgAICCUZBQYQXIYMCCYSLpVlsVYQXSV2AAgP1bYEBRYCCBg2AghwFgAGAIWvGAgBVhAPNXglGWlVBQUFBQUFZbYGBgAIJRYAFgAWBAGwOBERVhBhNXYQYTYR/bVltgQFGBgVJgHxlgH4MBFoEBYCABYEBSkIAVYQY9V2AgggGBgDaDNwGQUFtQkFCCUYBgIIMBgmAghwFgAGAEWvFhBlhX/ltQkpFQUFZbYACAVGf//////////xkWYAFgAWBAGwOFFheBVX/D0GEUXGeAqnWxVxhxvdb5k3LGBDTzPYr6VAnvXHJjOoRgQFFhBqqRkGEef1ZbYEBRgJEDkKFgAIBgAIBgAIBgAIBgAGBAUWBAUYCRA5CgYABbjGP/////FoFj/////xYQFWEcwldhBuphAwRWW2ABYAFgQBsDFplQYQb9YQMEVltgAWABYEAbAxaYUGEHEomLYSKkVltgQFFgIAFhByKRkGEi+lZbYEBRYCCBgwMDgVKQYEBSgFGQYCABIJVQYQdCYQMEVltgAWABYEAbAxaZUGEHVWEDBFZbYAFgAWBAGwMWmFCFYQdrioxhItFWW2BAUWAgAWEHfJKRkGEjD1ZbYEBRYCCBgwMDgVKQYEBSgFGQYCABIJVQYQecYQMEVltgAWABYEAbAxaZUGEHr2EDBFZbYAFgAWBAGwMWmFCFiYsDYEBRYCABYQfPkpGQYSMPVltgQFFgIIGDAwOBUpBgQFKAUZBgIAEglVBZmVCFimBAUWAgAWEH/ZKRkGEjD1ZbYEBRYCCBgwMDgVKQYEBSgFGQYCABIJVQOJlQhYpgQFFgIAFhCCuSkZBhIw9WW2BAUWAggYMDA4FSkGBAUoBRkGAgASCVUGEIS2EDBFZbYAFgAWBAGwMWmVBhCF5hAwRWW2ABYAFgQBsDFphQhWEIdIqMYSM1VltgQFFgIAFhCIWSkZBhIw9WW2BAUWAggYMDA4FSkGBAUoBRkGAgASCVUGEIpWEDBFZbYAFgAWBAGwMWmVBhCLhhAwRWW2ABYAFgQBsDFphQhWEI0IpgABlhI0lWW2EI2pCMYSN6VltgQFFgIAFhCOuSkZBhIw9WW2BAUWAggYMDA4FSkGBAUoBRkGAgASCVUGEJC2EDBFZbYAFgAWBAGwMWmVBhCR5hAwRWW2ABYAFgQBsDFphQhWEJNIqMYSLpVltgQFFgIAFhCUWSkZBhIw9WW2BAUWAggYMDA4FSkGBAUoBRkGAgASCVUGEJZWEDBFZbYAFgAWBAGwMWmVBhCXhhAwRWW2ABYAFgQBsDFphQhWEJkIpgABlhI0lWW2EJmpCMYSOoVltgQFFgIAFhCauSkZBhIw9WW2BAUWAggYMDA4FSkGBAUoBRkGAgASCVUGEJy2EDBFZbYAFgAWBAGwMWmVBhCd5hAwRWW2ABYAFgQBsDFphQYQnxYQMEVltgAWABYEAbAxaXUIWIgGEKC1dhCgthIktWW4qMCGBAUWAgAWEKH5KRkGEjD1ZbYEBRYCCBgwMDgVKQYEBSgFGQYCABIJVQYQo/YQMEVltgAWABYEAbAxaZUGEKUmEDBFZbYAFgAWBAGwMWmFBhCmVhAwRWW2ABYAFgQBsDFpdQhYiAYQp/V2EKf2EiS1ZbiowJYEBRYCABYQqTkpGQYSMPVltgQFFgIIGDAwOBUpBgQFKAUZBgIAEglVBhCrNhAwRWW2ABYAFgQBsDFplQYQrGYQMEVltgAWABYEAbAxaYUIWJiwpgQFFgIAFhCuaSkZBhIw9WW2BAUWAggYMDA4FSkGBAUoBRkGAgASCVUGELBmEDBFZbYAFgAWBAGwMWmVCFimADC2BAUWAgAWELJ5KRkGEjD1ZbYEBRYCCBgwMDgVKQYEBSgFGQYCABIJVQYQtHYQMEVltgAWABYEAbAxaZUGELWmEDBFZbYAFgAWBAGwMWmFCFiYsQYQtzV4lhC3VWW4pbYEBRYCABYQuGkpGQYSMPVltgQFFgIIGDAwOBUpBgQFKAUZBgIAEglVBhC6ZhAwRWW2ABYAFgQBsDFplQYQu5YQMEVltgAWABYEAbAxaYUIWJixFhC9JXiWEL1FZbiltgQFFgIAFhC+WSkZBhIw9WW2BAUWAggYMDA4FSkGBAUoBRkGAgASCVUGEMBWEDBFZbYAFgAWBAGwMWmVBhDBhhAwRWW2ABYAFgQBsDFphQhYmLEmEMMVeJYQwzVluKW2BAUWAgAWEMRJKRkGEjD1ZbYEBRYCCBgwMDgVKQYEBSgFGQYCABIJVQYQxkYQMEVltgAWABYEAbAxaZUGEMd2EDBFZbYAFgAWBAGwMWmFCFiYsTYQyQV4lhDJJWW4pbYEBRYCABYQyjkpGQYSMPVltgQFFgIIGDAwOBUpBgQFKAUZBgIAEglVBhDMNhAwRWW2ABYAFgQBsDFplQYQzWYQMEVltgAWABYEAbAxaYUIWJixRhDO9XiWEM8VZbiltgQFFgIAFhDQKSkZBhIw9WW2BAUWAggYMDA4FSkGBAUoBRkGAgASCVUGENImEDBFZbYAFgAWBAGwMWmVBhDTVhAwRWW2ABYAFgQBsDFphQhYoVYQ1NV4lhDU9WW4pbYEBRYCABYQ1gkpGQYSMPVltgQFFgIIGDAwOBUpBgQFKAUZBgIAEglVBhDYBhAwRWW2ABYAFgQBsDFplQYQ2TYQMEVltgAWABYEAbAxaYUIWJixZgQFFgIAFhDbOSkZBhIw9WW2BAUWAggYMDA4FSkGBAUoBRkGAgASCVUGEN02EDBFZbYAFgAWBAGwMWmVBhDeZhAwRWW2ABYAFgQBsDFphQhYmLF2BAUWAgAWEOBpKRkGEjD1ZbYEBRYCCBgwMDgVKQYEBSgFGQYCABIJVQYQ4mYQMEVltgAWABYEAbAxaZUGEOOWEDBFZbYAFgAWBAGwMWmFCFiYsYYEBRYCABYQ5ZkpGQYSMPVltgQFFgIIGDAwOBUpBgQFKAUZBgIAEglVBhDnlhAwRWW2ABYAFgQBsDFplQhYoZYEBRYCABYQ6YkpGQYSMPVltgQFFgIIGDAwOBUpBgQFKAUZBgIAEglVCFgGAAGmD4G2BAUWAgAWEOyZKRkGEjzFZbYEBRYCCBgwMDgVKQYEBSgFGQYCABIJVQYQ7pYQMEVltgAWABYEAbAxaZUIVgAYuQG2BAUWAgAWEPC5KRkGEjD1ZbYEBRYCCBgwMDgVKQYEBSgFGQYCABIJVQYQ8rYQMEVltgAWABYEAbAxaZUIVgAYuQHGBAUWAgAWEPTZKRkGEjD1ZbYEBRYCCBgwMDgVKQYEBSgFGQYCABIJVQYQ9tYQMEVltgAWABYEAbAxaZUIVgAYuQHWBAUWAgAWEPj5KRkGEjD1ZbYEBRYCCBgwMDgVKQYEBSgFGQYCABIJVQhZRQhDBgQFFgIAFhD72SkZBhJCtWW2BAUWAggYMDA4FSkGBAUoBRkGAgASCVUIUwgDtgIIEBYEBRkIEBYEBSgYFSYACQgGAgAZCTPGBAUWAgAWEQBJKRkGEkeVZbYEBRYCCBgwMDgVKQYEBSgFGQYCABIJVQhTA/YEBRYCABYRAwkpGQYSMPVltgQFFgIIGDAwOBUpBgQFKAUZBgIAEglVCFYAAxYEBRYCABYRBdkpGQYSMPVltgQFFgIIGDAwOBUpBgQFKAUZBgIAEglVCFR2BAUWAgAWEQiJKRkGEjD1ZbYEBRYCCBgwMDgVKQYEBSgFGQYCABIJVQhVpgQFFgIAFhELOSkZBhIw9WW2BAUWAggYMDA4FSkGBAUoBRkGAgASCVUGABgI0WA2ERLFeFMmBAUWAgAWEQ6JKRkGEkK1ZbYEBRYCCBgwMDgVKQYEBSgFGQYCABIJVQhTpgQFFgIAFhEROSkZBhIw9WW2BAUWAggYMDA4FSkGBAUoBRkGAgASCVUFuFk1BgARlgAo0WAWER91eFM2BAUWAgAWERTpKRkGEkK1ZbYEBRYCCBgwMDgVKQYEBSgFGQYCABIJVQhWAANmBAUWAgAWERfJOSkZBhJKhWW2BAUWAggYMDA4FSkGBAUoBRkGAgASCVUIVgADVgAWABYOAbAxkWYEBRYCABYRGzkpGQYSTeVltgQFFgIIGDAwOBUpBgQFKAUZBgIAEglVCFNGBAUWAgAWER3pKRkGEjD1ZbYEBRYCCBgwMDgVKQYEBSgFGQYCABIJVQW4WSUGADGWAEjRYBYRNgV4VDQGBAUWAgAWESGpKRkGEjD1ZbYEBRYCCBgwMDgVKQYEBSgFGQYCABIJVQhUhgQFFgIAFhEkWSkZBhIw9WW2BAUWAggYMDA4FSkGBAUoBRkGAgASCVUIVGYEBRYCABYRJwkpGQYSMPVltgQFFgIIGDAwOBUpBgQFKAUZBgIAEglVCFQWBAUWAgAWESm5KRkGEkK1ZbYEBRYCCBgwMDgVKQYEBSgFGQYCABIJVQhURgQFFgIAFhEsaSkZBhIw9WW2BAUWAggYMDA4FSkGBAUoBRkGAgASCVUIVFYEBRYCABYRLxkpGQYSMPVltgQFFgIIGDAwOBUpBgQFKAUZBgIAEglVCFQ2BAUWAgAWETHJKRkGEjD1ZbYEBRYCCBgwMDgVKQYEBSgFGQYCABIJVQhUJgQFFgIAFhE0eSkZBhIw9WW2BAUWAggYMDA4FSkGBAUoBRkGAgASCVUFuFkVBgBxlgCI0WAWEY/ldhE3dhAwRWW2ABYAFgQBsDFplQYABgQFFhE5CQYR4rVltgQFGAkQOQYADwgBWAFWETrFc9YACAPj1gAP1bUJBQYACLYEBRYRO+kGEeK1ZbgZBgQFGAkQOQYAD1kFCAFYAVYRPeVz1gAIA+PWAA/VtQkFCAYAFgAWCgGwMWY+20VSkzYEBRgmP/////FmDgG4FSYAQBYRQNkZBhJQ1WW2AAYEBRgIMDgWAAh4A7FYAVYRQnV2AAgP1bUFrxFYAVYRQ7Vz1gAIA+PWAA/VtQUFBQgWABYAFgoBsDFmPQneCKYEBRgWP/////FmDgG4FSYAQBYCBgQFGAgwOBYACHWvEVgBVhFH9XPWAAgD49YAD9W1BQUFBgQFFgHz2QgQFgHxkWggFgQFJhFKKRkIEBkGElKlZbm1CHjGBAUWAgAWEUt5KRkGEjD1ZbYEBRYCCBgwMDgVKQYEBSgFGQYCABIJdQgWABYAFgoBsDFmMu/DzuYEBRgWP/////FmDgG4FSYAQBYABgQFGAgwOBYACHgDsVgBVhFQpXYACA/VtQWvGSUFBQgBVhFRtXUGABW2EVUVc9gIAVYRVJV2BAUT1gPwFgHxkWgQFgQFI9gVKRUD1gAGAghAE+YRVOVltgYJFQW1BQW4eCYAFgAWCgGwMWgDuAYCABYEBRkIEBYEBSgYFSYACQgGAgAZCTPGBAUWAgAWEViZKRkGEkeVZbYEBRYCCBgwMDgVKQYEBSgFGQYCABIJdQh4JgAWABYKAbAxY/YEBRYCABYRW+kpGQYSMPVltgQFFgIIGDAwOBUpBgQFKAUZBgIAEgl1CBYAFgAWCgGwMWYcNQYEBRYCQBYEBRYB8ZgYMDAYFSYECRkJFSY2hO8EVg4RtgIIIBgFFgAWABYOAbAxaQkReQUmBAUWEWJJGQYSVLVltgAGBAUYCDA4FgAIeH8ZJQUFA9gGAAgRRhFmJXYEBRPWA/AWAfGRaBAWBAUj2BUpFQPWAAYCCEAT5hFmdWW2BgkVBbUGAEYABgA2EWeISCYSZGVltQgVRg/2EBAJKQkgqCgQIZkJEWlBUVApOQkxeQVVBgBFSJkRZgA2BAUWAgAWEWsJOSkZBhJ8JWW2BAUWAggYMDA4FSkGBAUoBRkGAgASCXUIFgAWABYKAbAxZhw1BgQFFgJAFgQFFgHxmBgwMBgVJgQJGQkVJjaE7wRWDhG2AgggGAUWABYAFg4BsDFpCRF5BSYEBRYRcWkZBhJUtWW2AAYEBRgIMDgYaG9JJQUFA9gGAAgRRhF1JXYEBRPWA/AWAfGRaBAWBAUj2BUpFQPWAAYCCEAT5hF1dWW2BgkVBbUGAEYABgA2EXaISCYSZGVltQgVRg/2EBAJKQkgqCgQIZkJEWlBUVApOQkxeQVVBgBFSJkRZgA2BAUWAgAWEXoJOSkZBhJ8JWW2BAUWAggYMDA4FSkGBAUoBRkGAgASCXUIFgAWABYKAbAxZhw1BgQFFgJAFgQFFgHxmBgwMBgVJgQJGQkVJjaE7wRWDhG2AgggGAUWABYAFg4BsDFpCRF5BSYEBRYRgGkZBhJUtWW2AAYEBRgIMDgYaG+pJQUFA9gGAAgRRhGEJXYEBRPWA/AWAfGRaBAWBAUj2BUpFQPWAAYCCEAT5hGEdWW2BgkVBbUGAEYABgA2EYWISCYSZGVltQgVRg/2EBAJKQkgqCgQIZkJEWlBUVApOQkxeQVVBgBFSJkRZgA2BAUWAgAWEYkJOSkZBhJ8JWW2BAUWAggYMDA4FSkGBAUoBRkGAgASCXUIFgAWABYKAbAxZjB9po9WBAUYFj/////xZg4BuBUmAEAWAAYEBRgIMDgWAAh4A7FYAVYRjjV2AAgP1bUFrxFYAVYRj3Vz1gAIA+PWAA/VtQUFBQUFBbYBCAjRYDYRywV2EZEGEDBFZbYAFgAWBAGwMWmVBhGSNhAwRWW2ABYAFgQBsDFphQYRk2YQMEVltgAWABYEAbAxaXUGAAYAGBjIyMYEBRYACBUmAgAWBAUmBAUWEZZpSTkpGQYSf3VltgIGBAUWAggQOQgIQDkIVa+hWAFWEZiFc9YACAPj1gAP1bUFBQYCBgQFEDUZBQhoFgQFFgIAFhGaeSkZBhJCtWW2BAUWAggYMDA4FSkGBAUoBRkGAgASCWUGEZx2EDBFZbYAFgAWBAGwMWmlCGYAKMYEBRYCABYRnmkZBhIvpWW2BAUWAggYMDA4FSkGBAUmBAUWEaApGQYSVLVltgIGBAUYCDA4GFWvoVgBVhGh9XPWAAgD49YAD9W1BQUGBAUWAfPZCBAWAfGRaCAWBAUmEaQZGQgQGQYSUqVltgQFFgIAFhGlKSkZBhIw9WW2BAUWAggYMDA4FSkGBAUoBRkGAgASCWUGEacmEDBFZbYAFgAWBAGwMWmlCGYAOMYEBRYCABYRqRkZBhIvpWW2BAUWAggYMDA4FSkGBAUmBAUWEarZGQYSVLVltgIGBAUYCDA4GFWvoVgBVhGspXPWAAgD49YAD9W1BQUGBAUVFgYBtgQFFgIAFhGuWSkZBhKEFWW2BAUWAggYMDA4FSkGBAUoBRkGAgASCWUGEbBWEDBFZbYAFgAWBAGwMWmlCGYRs5jGBAUWAgAWEbJZGQYR5cVltgQFFgIIGDAwOBUpBgQFJhBfZWW2BAUWAgAWEbSpKRkGEkeVZbYEBRYCCBgwMDgVKQYEBSgFGQYCABIJZQYRtqYQMEVltgAWABYEAbAxaaUGEbfWEDBFZbYAFgAWBAGwMWmVCGYRuVjGAYjWEDYFZbYEBRYCABYRumkpGQYSMPVltgQFFgIIGDAwOBUpBgQFKAUZBgIAEgllBhG8ZhAwRWW2ABYAFgQBsDFppQYRvZYQMEVltgAWABYEAbAxaZUGEb7GEDBFZbYAFgAWBAGwMWmFBhG/9hAwRWW2ABYAFgQBsDFpdQhmEcF4yMjIxhA65WW2BAUWAgAWEcKJKRkGEoiVZbYEBRYCCBgwMDgVKQYEBSgFGQYCABIJZQYRxIYQMEVltgAWABYEAbAxaaUGEcW2EDBFZbYAFgAWBAGwMWmVBhHG5hAwRWW2ABYAFgQBsDFphQhmEchYyMjGEds1ZbYEBRYCABYRyWkpGQYSiJVltgQFFgIIGDAwOBUpBgQFKAUZBgIAEgllBQW2Ecu4FgAWEor1ZbkFBhBs5WW1CDf0N4mzDkxtU+JzXlcBIHsFKbLMIpsbsCuWkdOeohjafXYEBRYEBRgJEDkKKChH8suGCGvHYQeC/IYGumiADNIbLPW9nZ+AE5AZBab/TqXWBAUWBAUYCRA5CjgYOFf5SiJFDqcSbVtI84Ie8JxycgeS0lvCYOxFogIhOAVnldYEBRYEBRgJEDkKSBg4V/jzEU4AC5T6aYyrPDiWkAf/RtXYCpRdzedlNysdE4P1KEYEBRYR1/kZBhHlxWW2BAUYCRA5CkYAFgAWBAGwONFmAAkIFSYAFgIFKFkGBAkCBVUJKbmlBQUFBQUFBQUFBQVlthHbthHfRWW2Edw2EeOFZbhIFSYCCBAYSQUmBAgIIBhJBSgmBgg2AAYAda8YCAYR3qV2AAgP1bUFBQk5JQUFBWW2BAUWBAgIIBgVJgApCCkIA2gzdQkZKRUFBWW2BAUWCAgIIBYEBSYASQgpCANoM3UJGSkVBQVlthAj2AYSjQgzkBkFZbYEBRYGCAggFgQFJgA5CCkIA2gzdQkZKRUFBWW4BbglJQUFZbYCCBAWEeaoKEYR5UVluSkVBQVltgAWABYEAbA4EWYR5WVltgIIEBYR5qgoRhHnBWW4BbgRRhHppXYACA/VtQVluANWEeaoFhHo1WW2AAYCCChAMSFWEevVdhHr1gAID9W2AAYR7JhIRhHp1WW5STUFBQUFZbYACAYABgYISGAxIVYR7pV2Ee6WAAgP1bYABhHvWGhmEenVZbk1BQYCBhHwaGgocBYR6dVluSUFBgQGEfF4aChwFhHp1WW5FQUJJQklCSVltgAIBgAIBggIWHAxIVYR86V2EfOmAAgP1bYABhH0aHh2EenVZblFBQYCBhH1eHgogBYR6dVluTUFBgQGEfaIeCiAFhHp1WW5JQUGBgYR95h4KIAWEenVZbkVBQkpWRlFCSUFZbYABhH5GDg2EeVFZbUFBgIAGQVltgAoGAYABbg4EQFWEfxVeBUWEftIeCYR+FVluWUGAggwGSUFBgAQFhH6BWW1BQUFBQUFZbYECBAWEeaoKEYR+ZVltjTkh7cWDgG2AAUmBBYARSYCRgAP1bYB8ZYB+DARaBAYGBEGABYAFgQBsDghEXFWEgFldhIBZhH9tWW2BAUlBQVltgAGEgLGAAYEBRkFCQVluQUGEgOIKCYR/xVluRkFBWW2AAYAFgAWBAGwOCERVhIFZXYSBWYR/bVltgHxlgH4MBFmAgAZKRUFBWW4KBgzdQYACRAVJWW2AAYSCGYSCBhGEgPVZbYSAdVluQUIKBUmAggQGEhIQBERVhIKFXYSChYACA/VthIKyEgoVhIGdWW1CTklBQUFZbYACCYB+DARJhIMhXYSDIYACA/VuBNWEeyYSCYCCGAWEgc1ZbYABgIIKEAxIVYSDtV2Eg7WAAgP1bgTVgAWABYEAbA4ERFWEhBldhIQZgAID9W2EeyYSChQFhILRWW2AAW4OBEBVhIS1XgIIBUYOCAVJgIAFhIRVWW1BQYACRAVJWW2AAYSFGgmAAgVGSkVBQVluAhFJgIIQBk1BhIV2BhWAghgFhIRJWW2AfAWAfGRaSkJIBkpFQUFZbYCCAglKBAWEhf4GEYSE2VluTklBQUFZbYAFgAWBAGwOBFmEej1ZbgDVhHmqBYSGGVltj/////4EWYR6PVluANWEeaoFhIaBWW2AAgGAAYGCEhgMSFWEhz1dhIc9gAID9W2AAYSHbhoZhIZVWW5NQUGAgYR8GhoKHAWEhrFZbY05Ie3Fg4BtgAFJgEWAEUmAkYAD9W2ABYAFgQBsDkYIWkZCBFpCCggKQgRaQgYEUYQZYV2EGWGEh7FZbYAFgAWBAGwORghaRkIEWkIKCAZCBERVhHmpXYR5qYSHsVltjTkh7cWDgG2AAUmASYARSYCRgAP1bYABgAWABYEAbA4IWkVBgAWABYEAbA4MWW5JQgmEiiVdhIolhIktWW1AGkFZbY05Ie3Fg4BtgAFJgMmAEUmAkYAD9W4CCAYCCERVhHmpXYR5qYSHsVltgAGAAGYIDYSLKV2EiymEh7FZbUGABAZBWW4GBAoCCFYOCBIUUF2EGWFdhBlhhIexWW2AAgmEielZbgGEeVlZbkFZbYABhIwaChGEi8VZbUGAgAZGQUFZbYABhIxuChWEi8VZbYCCCAZFQYSMrgoRhIvFWW1BgIAGSkVBQVltgAIJhI0RXYSNEYSJLVltQBJBWW4GBAoBgAIMSYAFg/xuFFBYVYSNmV2EjZmEh7FZbgoIFhBSDFRdhBlhXYQZYYSHsVltgAIJhI4lXYSOJYSJLVltgAWD/G4IUYAAZhBQWFWEjo1dhI6NhIexWW1AFkFZbYACCYSO3V2Ejt2EiS1ZbUAeQVltgAWABYPgbAxmBFmEeVlZbYABhI9iChWEi8VZbYCCCAZFQYSPogoRhI7xWW1BgAQGSkVBQVltgAGABYAFgoBsDghZhHmpWW2AAYR5qgmBgG5BWW2AAYR5qgmEkA1ZbYR5WYSQmgmEj8lZbYSQPVltgAGEkN4KFYSLxVltgIIIBkVBhJEeChGEkGlZbUGAUAZKRUFBWW2AAYSRhgmAAgVGSkVBQVlthJG+BhWAghgFhIRJWW5KQkgGSkVBQVltgAGEkhYKFYSLxVltgIIIBkVBhHsmChGEkUVZbYABhJKKDhYRhIGdWW1BQAZBWW2AAYSS0goZhIvFWW2AgggGRUGEkxYKEhmEklVZblZRQUFBQUFZbYAFgAWDgGwMZgRZhHlZWW2AAYSTqgoVhIvFWW2AgggGRUGEk+oKEYSTOVltQYAQBkpFQUFZbYR5WgWEj8lZbYCCBAWEeaoKEYSUEVltgAIFRkFBhHmqBYR6NVltgAGAggoQDEhVhJT9XYSU/YACA/VtgAGEeyYSEYSUbVltgAGEhf4KEYSRRVltjTkh7cWDgG2AAUmAiYARSYCRgAP1bYAKBBGABghaAYSWBV2B/ghaRUFtgIIIQgQNhJZNXYSWTYSVXVltQkZBQVltgAGEeamEi94OBVlthJa6DYSWZVluBVGAAGWAIlJCUApOEGxkWkhuRkJEXkFVQVltgAGEl1oGEhGElpVZbUFBQVluBgRAVYSX2V2El7mAAgmElyVZbYAEBYSXbVltQUFZbYB+CERVhJdZXYSYYgWAAgYFSgZBgIJAgkpFQUFZbYCBgH4UBBIEBYCCFEBVhJi1XUIBbYSY/YCBgH4YBBIMBgmEl21ZbUFBQUFBWW2EmVIJgAIFRkpFQUFZbYAFgAWBAGwOBERVhJmtXYSZrYR/bVlthJnWCVGElbVZbYSaAgoKFYSX6VltgIGAfgxFgAYEUYSa1V2AAhBVhJp1XgocBUZBQW2AAGWAIhgIcGYEWYAKGAheGVVBhH8VWW2AfGYQWYSbPhmAAgYFSgZBgIJAgkpFQUFZbYABbgoEQFWEm8leEiQFRglVgIJSFAZRgAZCSAZEBYSbSVluGgxAVYScOV4SJAVFgABlgH4kWYAgCHBkWglVbYAFgAogCAYhVUFBQUFBQUFBQVltgAGEeaoJg+BuQVltgAGEeaoJhJyJWW2EeVoEVFWEnLlZbYACBVGEnUYFhJW1WW2ABghaAFWEnaFdgAYEUYSd9V2EnuVZbYP8ZgxaGUoEVFYIChgGTUGEnuVZbYSeShWAAgYFSgZBgIJAgkpFQUFZbYABbg4EQFWEnsVeBVIiCAVJgAZCRAZBgIAFhJ5VWW4OIAZVQUFBbUFBQkpFQUFZbYABhJ86ChmEi8VZbYCCCAZFQYSfegoVhJzlWW2ABggGRUGEkxYKEYSdEVltg/4EWYR5WVltggIEBYSgFgodhHlRWW2EoEmAggwGGYSfuVlthKB9gQIMBhWEeVFZbYSTFYGCDAYRhHlRWW2v///////////////8ZgRZhHlZWW2AAYShNgoVhIvFWW2AgggGRUGEkR4KEYSgsVltgAoGAYABbg4EQFWEfxVeBUWEoeIeCYR+FVluWUGAggwGSUFBgAQFhKGRWW2AAYSiVgoVhIvFWW2AgggGRUGEopYKEYShdVltQYEABkpFQUFZbY/////+RghaRkIEWkIKCAZCBERVhHmpXYR5qYSHsVv5ggGBAUjSAFWEAEFdgAID9W1BhAh2AYQAgYAA5YADz/mCAYEBSNIAVYQAQV2AAgP1bUGAENhBhAGJXYAA1YOAcgGMH2mj1FGEAZ1eAYy78PO4UYQBxV4BjP7XByxRhAHlXgGODgfWKFGEAjFeAY9Cd4IoUYQCrV4Bj7bRVKRRhALNXW2AAgP1bYQBvYQDGVlsAW2EAb2EA21ZbYQBvYQCHNmAEYQE8VltgAFVWW2EAlWAAVIFWW2BAUWEAopGQYQFlVltgQFGAkQOQ81thAJVhAPNWW2EAb2EAwTZgBGEBllZbYQEPVltgAIBUkIBhANWDYQHNVluRkFBVAFtgAIBUkIBhAOqDYQHNVluRkFBVYACA/VtgAIBUgYBhAQKDYQHNVluRkFBVUGAAVJBQkFZbgGABYAFgoBsDFv9bgFuBFGEBKFdgAID9W1BWW4A1YQE2gWEBG1ZbkpFQUFZbYABgIIKEAxIVYQFRV2EBUWAAgP1bYABhAV2EhGEBK1ZblJNQUFBQVluBgVJgIIEBYQE2VltgAGABYAFgoBsDghZhATZWW2EBHYFhAXFWW4A1YQE2gWEBglZbYABgIIKEAxIVYQGrV2EBq2AAgP1bYABhAV2EhGEBi1ZbY05Ie3Fg4BtgAFJgEWAEUmAkYAD9W2AAYAAZggNhAeBXYQHgYQG3VltQYAEBkFb+omRpcGZzWCISIJIzhp2aS+/m2FyicHt7gYJSdXcJ0lwV+VhhBZEQriSrZHNvbGNDAAgTADOiZGlwZnNYIhIgZttJvB2S+xvThYM5jtuo0lls0K3IuUFHVZnuBZTSp1Nkc29sY0MACBMAMw==",
          "touched": true,
          "read": true
        }
      }
    }
  ]
}
