{
  "accountTrie": {
    "20b818c40ec3707f283116b1c1c7c64bde8fce235684acaa2412a941dbdae11d": "f873a0209bad3efd7d22d728e0b92c3bcdab947570414641f88051189032c4b246dc34b850f84e808ad3c21d8b9b285388f898a056e81f171bcc55a6ff8345e692c0f86e5b48e01b996cadc001622fb5e363b421a0c5d2460186f7233c927e7db2dcc703c0e500b653ca82273b7bfad8045d85a470",
    "57cd2b2d44d31470f647a0651a16a54e3510fe36b2aca7493f542328fd534fd4": "f871808080a06620a7a716294256460b2ac4c879a3136d25403ac9cd5ce8dc4910ea327071f7a0eb68126485dcaaca88731b1076aa5fe02a61cd409ffa5d95e08245b57d84c1afa03d2c9faa594230d254816429f8dc379c30c8b3679ef67f44dd31f3e6822f9a498080808080808080808080",
    "6620a7a716294256460b2ac4c879a3136d25403ac9cd5ce8dc4910ea327071f7": "f851a0e29cd6451f96ed556022f6076eacfbb24d0680280f8a4a588419a89b9a4260aa80808080808080a0700c2c2ab7ff9e07250a7a75401ad049bf3e8a01a8518515a760206cffc3321b8080808080808080",
    "700c2c2ab7ff9e07250a7a75401ad049bf3e8a01a8518515a760206cffc3321b": "f8729f30c7b7ae81a58eb98d9c78de4a1fd7fd9535fc953ed2be602daaa41767312ab850f84e808ad3c21bd2b1baf535716ca056e81f171bcc55a6ff8345e692c0f86e5b48e01b996cadc001622fb5e363b421a0c5d2460186f7233c927e7db2dcc703c0e500b653ca82273b7bfad8045d85a470",
    "8c7d1363095fed2f9d2132cca760efebf52de5f0d4f1021a18cbebbb5e2335d2": "f85180a0ff9b5215d44883cf233b83dfa7b712cc32b5d01f0628a3fa87494edd256a3cbb80808080808080808080a0b352e4c72d853473be5eac69cf10adfdc61a3747ec26a4b424f0a29292fc1d3780808080",
    "b10897a873b46e9a91543a207045fd1710081bafa10222a3152a1e5e2f077ea0": "f89180a031d1eb10fdf37ef90417d463e9e3d1dad5bab6a3e8b38ccc4eaa744250317457808080a08c7d1363095fed2f9d2132cca760efebf52de5f0d4f1021a18cbebbb5e2335d2a088051b9667deb59e99614788c0d0aedaec2b9658bd714c851f16eb1d1ad3965280808080a056c9a23710ac9835e9a1a44b6725755589fc1f9ec5936cb5b11c7352657c58508080808080",
    "b133af54c0beabe9da5514707d1adac6778ba48d15b21859e1f0a46214a4f49b": "f869a038c1b2cd4b4be08c2ee3231297634832a2c7fc46a896e3156a8c33edca1dbc6cb846f8440180a09122fdd8f0ccf06c07576dd50deeae552aea9ee63101f2f73ecdd5ddc0b99f2aa0e86cf7cc93bf311f1751ca156a07c54a62d0769f9a09b61afd05b037a4713e1b",
    "dc576475a3921548c900b980e0ffb10ad9053f9b1d030628ae8e9f4a2e0136d6": "f8918080808080a08d8d5cfa75bc646c9e6347dc2dedd4b9ce4a34d34d066344148525b0cc0cc7e58080a02b552522c790b0433d466408318c5c61bfa7e2dbb9c2e13bfec3d1d51290addd8080808080a020b818c40ec3707f283116b1c1c7c64bde8fce235684acaa2412a941dbdae11da099a6632dc218993740f5b428ad3602ef19498960c916c08326a1b5e6c61af9f280",
    "f3ee774031c682de6f138cd95710ec29d8b9eac95d148b63e0fd0c7320015a66": "f90211a09bd5985e83d92230c8f5e1f163da9b6a14db480ec2597a384ce775e4bbcb9321a0cd549d3bdcb62de71d9c5c737f2eb6413680d539bb1e51485b56b7c5787b5f95a0b133af54c0beabe9da5514707d1adac6778ba48d15b21859e1f0a46214a4f49ba04bb4c7cdcdeccf73fe237ac3243854cdbc243bf42d3c7310b243f70ae24e0deba00898774ab29060c8e1ebca88393ba0342e86bcff5cb7c23c84f62f0fec5729efa057cd2b2d44d31470f647a0651a16a54e3510fe36b2aca7493f542328fd534fd4a0f820e589d2219ae3f297594cfd731f2ec64d19b1ba0f918369e9b413c126732da033e8e4cf34afa27dff2eb641b1c4496e233a82c2738e75325c5c5c83272ea672a093cef858320d762531f52ff81ffa5a70576ffdba6410ec70685d1d1f111874b6a0e6e82a109ac4e5daed8f76043d8393d0298472e0518ff96a48b8492e479881fba0b10897a873b46e9a91543a207045fd1710081bafa10222a3152a1e5e2f077ea0a054cab2921d01b8ab026305874aca3f192ae1af8f0bb0c5d39e381645509e3931a0dc576475a3921548c900b980e0ffb10ad9053f9b1d030628ae8e9f4a2e0136d6a0d5c3f35b3433034102536147a3dcfd190c7bb81fe37c4801a018ecc677f34deca08333762fcaf7193e048ab228010951a924224adf67ad901b5e98441becfcbbd7a092825616236bb69e7dce9723d0bcf9a7f9da80602dcab4c489d1e8ed8f6b347f80",
    "ff9b5215d44883cf233b83dfa7b712cc32b5d01f0628a3fa87494edd256a3cbb": "f8769f3eec2b84f0ba344fd4b4d2f022469febe7a772c4789acfc119eb558ab1da3db854f8528210448c033b2e3c620dcdc18d1ef577a056e81f171bcc55a6ff8345e692c0f86e5b48e01b996cadc001622fb5e363b421a0c5d2460186f7233c927e7db2dcc703c0e500b653ca82273b7bfad8045d85a470"
  },
  "storageTrie": {
    "060eca651a599ca2a23269287151f3176c9e04f3867e3960defb471bb4f5bf1b": "f871a009c1a9d0e188cd329b40b60f1058da65133d212480ea9fc1405985518204703b8080808080a035965ee213bdb487d8a195c508f52dfc422be58de9a1d68a4ac7eede74be258a808080a0c7c5e593a9a5354f748c10e895c2d85efdbf14152a52cfaea23f1aed71e6b26a808080808080",
    "09c1a9d0e188cd329b40b60f1058da65133d212480ea9fc1405985518204703b": "e2a0205787fa12a823e0f2b7631cc41b3ba8828b3321ca811111fa75cd3aa3bb5ace09",
    "2e02615eb4b65ae139caa378e1d5bdd5a82c313955b9f1847019d239409b2d4b": "f8518080a00987dcd8e96c4f926e7cef495ed0651da69ed87efd7354b1faba76a133b3a86d8080808080808080a0aa93dac12cca7622e28fdb77e5560a2172782e7a931ccde01fe768acf9c808c08080808080",
    "53f0dd568b9a1a1e967f7cf3a561586fe71682ff1e7a18e2471f12348ed1becc": "f843a03605e486497dbb470ce04bc6cd8d6aa1cc0fa707511d6bcc61d0dbc855517366a1a0cafebabecafed00dcefaedfe0d15ea5edabbad00dead2baddeadbaaddeadbabe",
    "625b5b32dcc0c02ce61dc0d589d2c36f5c5644918e97979a2fc6e66e2acc4932": "f85180808080808080808080808080a0d66596f7602fa904d009a8465023bd0c55aee15125f55d2dc352ba75a242975b80a04d6a690768a0ea387b759e0bef01ee064b5d04cf830ff8fa74104e5dbeafab0980",
    "9122fdd8f0ccf06c07576dd50deeae552aea9ee63101f2f73ecdd5ddc0b99f2a": "f901b1a02e02615eb4b65ae139caa378e1d5bdd5a82c313955b9f1847019d239409b2d4ba0ce073c007ab1438c6ed1eb0762cb59c4f7231e51fab3bd359fcec46336e5d3e1a0625b5b32dcc0c02ce61dc0d589d2c36f5c5644918e97979a2fc6e66e2acc493280a0060eca651a599ca2a23269287151f3176c9e04f3867e3960defb471bb4f5bf1ba0913df64b0396aa50d3e1462d92ead210f84fc82d46a8f97986a2c393cb58e1e4a0ef817e40be5549fff6d3710633334e62f76f54b1c654275433349a5ef8de62fc80a0b911ef5df5917f1847a7634216ebb9ac343cf0bbe81d82f456c0bce9bda14613a034f927d8cb7dd37b23b0e1760984f38c0654cade533e23af873c943188110999a0f399c14a1aca218d9f65fde0fede5584dd350446a9b85edb2531cd8ca793008fa0b5d19ef013312d266c7fad275826d186f47977f4ba2c80f3b677091916e2c546a0316c463a8777740576aedfdd3d859851b8cc455ec2c3c2fe2b235e102e59eeb680a087f1a2f45e66f8a5ad146da4eb6f7466bab7b6369e5127848c7807fbd703dc11a053f0dd568b9a1a1e967f7cf3a561586fe71682ff1e7a18e2471f12348ed1becc80",
    "b5d19ef013312d266c7fad275826d186f47977f4ba2c80f3b677091916e2c546": "f871808080808080a087013d6ed7bba6d39e6c30a1629efa537f68817340178337d52ca5db3a08e46da0eea55a2063723ec5f83b1bc2fd4a14edd99b58afad68631b87dc0ac06cf12a3580a0bf9657e6432ca175ea55bb5aeb4f414dc311fd73cdc502dc6fd4b2f6365fd8c680808080808080",
    "b911ef5df5917f1847a7634216ebb9ac343cf0bbe81d82f456c0bce9bda14613": "f843a03f64f60661322b36af17ffae1d83bdb731d45dce1596efffa3ccfc42c4aa182aa1a0b105f00db16b00b50b00b135baaaaaadbaadf00dbad22222baddcafecafeb0ba",
    "ce073c007ab1438c6ed1eb0762cb59c4f7231e51fab3bd359fcec46336e5d3e1": "f85180808080808080808080a0a84873d6484ae2528c3747b1a30fd26d192067c5305322effb33eccf4bcb702da0dc46debbcbb54990b2fbd3bd1a4c0606515f3b51fd6bb6ca67bfe2580e4757628080808080",
    "ef817e40be5549fff6d3710633334e62f76f54b1c654275433349a5ef8de62fc": "f843a03700f56bdfffe5f336e60cc5d9ad093591a43a048d8c82013fa9eb71ae987399a1a0baaaaaadbaadf00dbad22222baddcafecafeb0bab0bababebeefbabec00010ff"
  },
  "parentStateRoot": "0xf3ee774031c682de6f138cd95710ec29d8b9eac95d148b63e0fd0c7320015a66",
  "transactionTraces": [
    {
      "txn": "0x02f902b58207d18210448498f6f8938498f6f8a18305cb1694608dcefe5f08532b886fc1bc5f0c308670ac21fd80b90244b374012b00000000000000000000000000000000000000000000000000000000000000200000000000000000000000000000000000000000000000000000000000000200000ff1ce00bab10c1badb0028badf00dabadbabeb105f00db16b00b50b00b135baaaaaadbaadf00dbad22222baddcafecafeb0bab0bababebeefbabec00010ffcafebabecafed00dcefaedfe0d15ea5edabbad00dead2baddeadbaaddeadbabedeadbeafdeadbeefdeadc0dedeaddeaddeadd00ddeadfa11dead10ccdeadfeeddecafbaddefec8edd0d0cacae011cfd0facefeedfbadbeeffee1deadfeedbabefeedc0deffbadd11f00dbabe000ff1ce00bab10c1badb0028badf00dabadbabeb105f00db16b00b50b00b135baaaaaadbaadf00dbad22222baddcafecafeb0bab0bababebeefbabec00010ffcafebabecafed00dcefaedfe0d15ea5edabbad00dead2baddeadbaaddeadbabedeadbeafdeadbeefdeadc0dedeaddeaddeadd00ddeadfa11dead10ccdeadfeeddecafbaddefec8edd0d0cacae011cfd0facefeedfbadbeeffee1deadfeedbabefeedc0deffbadd11f00dbabe000ff1ce00bab10c1badb0028badf00dabadbabeb105f00db16b00b50b00b135baaaaaadbaadf00dbad22222baddcafecafeb0bab0bababebeefbabec00010ffcafebabecafed00dcefaedfe0d15ea5edabbad00dead2baddeadbaaddeadbabedeadbeafdeadbeefdeadc0dedeaddeaddeadd00ddeadfa11dead10ccdeadfeeddecafbaddefec8edd0d0cacae011cfd0facefeedfbadbeeffee1deadfeedbabefeedc0deffbadd11c080a067204e199867d82335cab12501e4e82524761d16f40543d10ba9b97c36b78b46a05d2391f78116a111330d019cdafdeb5f391ef1396f969cac21c269a04a013a44",
      "delta": {
        "0x0000000000000000000000000000000000000000": {
          "address": "0x0000000000000000000000000000000000000000",
          "read": true
        },
        "0x608dcEfe5F08532b886Fc1bC5f0c308670AC21fd": {
          "address": "0x608dcEfe5F08532b886Fc1bC5f0c308670AC21fd",
          "storage": {
            "0x0000000000000000000000000000000000000000000000000000000000000002": "0x000000000000000000000000000000000000000000000000000000000000000a",
            "0x405787fa12a823e0f2b7631cc41b3ba8828b3321ca811111fa75cd3aa3bb5ad7": "0x0000000000000000000000000000000000000000000000000000000000000401",
            "0x42b286eb12a533d8c7c729753c5355246ea269cd8318557077b373b6ac391ebb": "0x000ff1ce00bab10c1badb0028badf00dabadbabeb105f00db16b00b50b00b135",
            "0x42b286eb12a533d8c7c729753c5355246ea269cd8318557077b373b6ac391ebc": "0xbaaaaaadbaadf00dbad22222baddcafecafeb0bab0bababebeefbabec00010ff",
            "0x42b286eb12a533d8c7c729753c5355246ea269cd8318557077b373b6ac391ebd": "0xcafebabecafed00dcefaedfe0d15ea5edabbad00dead2baddeadbaaddeadbabe",
            "0x42b286eb12a533d8c7c729753c5355246ea269cd8318557077b373b6ac391ebe": "0xdeadbeafdeadbeefdeadc0dedeaddeaddeadd00ddeadfa11dead10ccdeadfeed",
            "0x42b286eb12a533d8c7c729753c5355246ea269cd8318557077b373b6ac391ebf": "0xdecafbaddefec8edd0d0cacae011cfd0facefeedfbadbeeffee1deadfeedbabe",
            "0x42b286eb12a533d8c7c729753c5355246ea269cd8318557077b373b6ac391ec0": "0xfeedc0deffbadd11f00dbabe000ff1ce00bab10c1badb0028badf00dabadbabe",
            "0x42b286eb12a533d8c7c729753c5355246ea269cd8318557077b373b6ac391ec1": "0xb105f00db16b00b50b00b135baaaaaadbaadf00dbad22222baddcafecafeb0ba",
            "0x42b286eb12a533d8c7c729753c5355246ea269cd8318557077b373b6ac391ec2": "0xb0bababebeefbabec00010ffcafebabecafed00dcefaedfe0d15ea5edabbad00",
            "0x42b286eb12a533d8c7c729753c5355246ea269cd8318557077b373b6ac391ec3": "0xdead2baddeadbaaddeadbabedeadbeafdeadbeefdeadc0dedeaddeaddeadd00d",
            "0x42b286eb12a533d8c7c729753c5355246ea269cd8318557077b373b6ac391ec4": "0xdeadfa11dead10ccdeadfeeddecafbaddefec8edd0d0cacae011cfd0facefeed",
            "0x42b286eb12a533d8c7c729753c5355246ea269cd8318557077b373b6ac391ec5": "0xfbadbeeffee1deadfeedbabefeedc0deffbadd11f00dbabe000ff1ce00bab10c",
            "0x42b286eb12a533d8c7c729753c5355246ea269cd8318557077b373b6ac391ec6": "0x1badb0028badf00dabadbabeb105f00db16b00b50b00b135baaaaaadbaadf00d",
            "0x42b286eb12a533d8c7c729753c5355246ea269cd8318557077b373b6ac391ec7": "0xbad22222baddcafecafeb0bab0bababebeefbabec00010ffcafebabecafed00d",
            "0x42b286eb12a533d8c7c729753c5355246ea269cd8318557077b373b6ac391ec8": "0xcefaedfe0d15ea5edabbad00dead2baddeadbaaddeadbabedeadbeafdeadbeef",
            "0x42b286eb12a533d8c7c729753c5355246ea269cd8318557077b373b6ac391ec9": "0xdeadc0dedeaddeaddeadd00ddeadfa11dead10ccdeadfeeddecafbaddefec8ed",
            "0x42b286eb12a533d8c7c729753c5355246ea269cd8318557077b373b6ac391eca": "0xd0d0cacae011cfd0facefeedfbadbeeffee1deadfeedbabefeedc0deffbadd11"
          },
          "storage_read": {
            "0x0000000000000000000000000000000000000000000000000000000000000002": {},
            "0x405787fa12a823e0f2b7631cc41b3ba8828b3321ca811111fa75cd3aa3bb5ad7": {},
            "0x42b286eb12a533d8c7c729753c5355246ea269cd8318557077b373b6ac391ebb": {},
            "0x42b286eb12a533d8c7c729753c5355246ea269cd8318557077b373b6ac391ebc": {},
            "0x42b286eb12a533d8c7c729753c5355246ea269cd8318557077b373b6ac391ebd": {},
            "0x42b286eb12a533d8c7c729753c5355246ea269cd8318557077b373b6ac391ebe": {},
            "0x42b286eb12a533d8c7c729753c5355246ea269cd8318557077b373b6ac391ebf": {},
            "0x42b286eb12a533d8c7c729753c5355246ea269cd8318557077b373b6ac391ec0": {},
            "0x42b286eb12a533d8c7c729753c5355246ea269cd8318557077b373b6ac391ec1": {},
            "0x42b286eb12a533d8c7c729753c5355246ea269cd8318557077b373b6ac391ec2": {},
            "0x42b286eb12a533d8c7c729753c5355246ea269cd8318557077b373b6ac391ec3": {},
            "0x42b286eb12a533d8c7c729753c5355246ea269cd8318557077b373b6ac391ec4": {},
            "0x42b286eb12a533d8c7c729753c5355246ea269cd8318557077b373b6ac391ec5": {},
            "0x42b286eb12a533d8c7c729753c5355246ea269cd8318557077b373b6ac391ec6": {},
            "0x42b286eb12a533d8c7c729753c5355246ea269cd8318557077b373b6ac391ec7": {},
            "0x42b286eb12a533d8c7c729753c5355246ea269cd8318557077b373b6ac391ec8": {},
            "0x42b286eb12a533d8c7c729753c5355246ea269cd8318557077b373b6ac391ec9": {},
            "0x42b286eb12a533d8c7c729753c5355246ea269cd8318557077b373b6ac391eca": {}
          },
          "code_read": "YIBgQFI0gBVhABBXYACA/VtQYAQ2EGEEVFdgADVg4ByAY4CUf4ARYQJBV4Bjv1KcoRFhATtXgGPdm+9gEWEAw1eAY/J5yoERYQCHV4Bj8nnKgRRhEWFXgGP00fxhFGERkVeAY/WPw2oUYRHBV4Bj9rC79xRhEfFXgGP953IcFGESIVdhBFRWW4Bj3ZvvYBRhEHFXgGPel6NjFGEQoVeAY+n5s/IUYRDRV4Bj6lFB5hRhEQFXgGPt8APPFGERMVdhBFRWW4Bjzjz07xFhAQpXgGPOPPTvFGEPgVeAY9EXMgsUYQ+xV4Bj1R57WxRhD+FXgGPVP/P9FGEQEVeAY9k81VgUYRBBV2EEVFZbgGO/UpyhFGEOwVeAY8Ngq6YUYQ7xV4BjxCDrYRRhDyFXgGPEvWXVFGEPUVdhBFRWW4BjoYaDyxFhAclXgGOzdAErEWEBjVeAY7N0ASsUYQ3RV4Bjs9hH8hRhDgFXgGO3uGIHFGEOMVeAY7gcFIQUYQ5hV4Bjvch1/BRhDpFXYQRUVluAY6GGg8sUYQzzV4BjonG3IRRhDSNXgGOmChCHFGENQVeAY6ZFycIUYQ1xV4BjrK699hRhDaFXYQRUVluAY5YuTcIRYQIQV4Bjli5NwhRhDANXgGOYRW8+FGEMM1eAY5orfIEUYQxjV4BjnM58+RRhDJNXgGOgQK7GFGEMw1dhBFRWW4BjgJR/gBRhC0NXgGOIDv85FGELc1eAY5GKX80UYQujV4BjkeeydxRhC9NXYQRUVluAYzQw7AYRYQNSV4BjYOE83hFhAtpXgGNvCZyNEWECnleAY28JnI0UYQpTV4BjcdkdKBRhCoNXgGN7bgsOFGEKs1eAY3wZHSAUYQrjV4BjfejG+BRhCxNXYQRUVluAY2DhPN4UYQl1V4BjYT0KghRhCaVXgGNjE41PFGEJ1VeAY2Wbu08UYQoFV4Bjbn8f5xRhCiNXYQRUVluAY0D+JmIRYQMhV4BjQP4mYhRhCIVXgGNEzzvHFGEItVeAY0phrx8UYQjlV4BjTSx0sxRhCRVXgGNVkMLZFGEJRVdhBFRWW4BjNDDsBhRhB9dXgGM3EwPAFGEIB1eAYzpBHxIUYQglV4BjOkJd/BRhCFVXYQRUVluAYxgJO0YRYQPgV4BjIZzd6xFhA6RXgGMhnN3rFGEG51eAYyKU/H8UYQcXV4BjKHHvhRRhB0dXgGMrIe9EFGEHd1eAYy0055gUYQenV2EEVFZbgGMYCTtGFGEF91eAYxm2IdYUYQYnV4BjGroH6hRhBldXgGMd4vNDFGEGh1eAYyAHMy4UYQa3V2EEVFZbgGMLqKc7EWEEJ1eAYwuopzsUYQUZV4BjEoemjBRhBUlXgGMTXVL3FGEFZ1eAYxWBzxkUYQWXV4BjFlghUBRhBcdXYQRUVluAYwNK73EUYQRZV4BjBQCC+BRhBIlXgGMIe06EFGEEuVeAYws7mWoUYQTpV1tgAID9W2EEc2AEgDYDgQGQYQRukZBhJhFWW2ESUVZbYEBRYQSAkZBhJk1WW2BAUYCRA5DzW2EEo2AEgDYDgQGQYQSekZBhJhFWW2ESjFZbYEBRYQSwkZBhJk1WW2BAUYCRA5DzW2EE02AEgDYDgQGQYQTOkZBhJhFWW2ESx1ZbYEBRYQTgkZBhJk1WW2BAUYCRA5DzW2EFA2AEgDYDgQGQYQT+kZBhJ65WW2ETAVZbYEBRYQUQkZBhKHZWW2BAUYCRA5DzW2EFM2AEgDYDgQGQYQUukZBhJhFWW2ETKFZbYEBRYQVAkZBhJk1WW2BAUYCRA5DzW2EFUWETZFZbYEBRYQVekZBhJk1WW2BAUYCRA5DzW2EFgWAEgDYDgQGQYQV8kZBhJhFWW2ETbVZbYEBRYQWOkZBhJk1WW2BAUYCRA5DzW2EFsWAEgDYDgQGQYQWskZBhJhFWW2ETqVZbYEBRYQW+kZBhJk1WW2BAUYCRA5DzW2EF4WAEgDYDgQGQYQXckZBhJhFWW2ET5FZbYEBRYQXukZBhJk1WW2BAUYCRA5DzW2EGEWAEgDYDgQGQYQYMkZBhJhFWW2EUP1ZbYEBRYQYekZBhJk1WW2BAUYCRA5DzW2EGQWAEgDYDgQGQYQY8kZBhJhFWW2EUfVZbYEBRYQZOkZBhJk1WW2BAUYCRA5DzW2EGcWAEgDYDgQGQYQZskZBhJhFWW2EVDFZbYEBRYQZ+kZBhJk1WW2BAUYCRA5DzW2EGoWAEgDYDgQGQYQackZBhJhFWW2EVUlZbYEBRYQaukZBhJk1WW2BAUYCRA5DzW2EG0WAEgDYDgQGQYQbMkZBhJhFWW2EVkFZbYEBRYQbekZBhJk1WW2BAUYCRA5DzW2EHAWAEgDYDgQGQYQb8kZBhJhFWW2EVzFZbYEBRYQcOkZBhJk1WW2BAUYCRA5DzW2EHMWAEgDYDgQGQYQcskZBhJhFWW2EWB1ZbYEBRYQc+kZBhJk1WW2BAUYCRA5DzW2EHYWAEgDYDgQGQYQdckZBhJhFWW2EWRlZbYEBRYQdukZBhJk1WW2BAUYCRA5DzW2EHkWAEgDYDgQGQYQeMkZBhJhFWW2EWgVZbYEBRYQeekZBhJk1WW2BAUYCRA5DzW2EHwWAEgDYDgQGQYQe8kZBhJhFWW2EWvFZbYEBRYQfOkZBhJk1WW2BAUYCRA5DzW2EH8WAEgDYDgQGQYQfskZBhJhFWW2EW91ZbYEBRYQf+kZBhKHZWW2BAUYCRA5DzW2EID2EXo1ZbYEBRYQgckZBhJk1WW2BAUYCRA5DzW2EIP2AEgDYDgQGQYQg6kZBhJhFWW2EXwlZbYEBRYQhMkZBhJk1WW2BAUYCRA5DzW2EIb2AEgDYDgQGQYQhqkZBhJhFWW2EX/lZbYEBRYQh8kZBhJk1WW2BAUYCRA5DzW2EIn2AEgDYDgQGQYQiakZBhJhFWW2EYOlZbYEBRYQiskZBhJk1WW2BAUYCRA5DzW2EIz2AEgDYDgQGQYQjKkZBhJhFWW2EYeVZbYEBRYQjckZBhJk1WW2BAUYCRA5DzW2EI/2AEgDYDgQGQYQj6kZBhJhFWW2EYtFZbYEBRYQkMkZBhJk1WW2BAUYCRA5DzW2EJL2AEgDYDgQGQYQkqkZBhJhFWW2EY8lZbYEBRYQk8kZBhJk1WW2BAUYCRA5DzW2EJX2AEgDYDgQGQYQlakZBhJhFWW2EZLVZbYEBRYQlskZBhJk1WW2BAUYCRA5DzW2EJj2AEgDYDgQGQYQmKkZBhJhFWW2EZclZbYEBRYQmckZBhJk1WW2BAUYCRA5DzW2EJv2AEgDYDgQGQYQm6kZBhJ65WW2EZrlZbYEBRYQnMkZBhKHZWW2BAUYCRA5DzW2EJ72AEgDYDgQGQYQnqkZBhJ65WW2EZ4FZbYEBRYQn8kZBhKLFWW2BAUYCRA5DzW2EKDWEaDFZbYEBRYQoakZBhJk1WW2BAUYCRA5DzW2EKPWAEgDYDgQGQYQo4kZBhJhFWW2EaSFZbYEBRYQpKkZBhJk1WW2BAUYCRA5DzW2EKbWAEgDYDgQGQYQpokZBhJhFWW2EahlZbYEBRYQp6kZBhJk1WW2BAUYCRA5DzW2EKnWAEgDYDgQGQYQqYkZBhJhFWW2EawVZbYEBRYQqqkZBhJk1WW2BAUYCRA5DzW2EKzWAEgDYDgQGQYQrIkZBhJhFWW2Ea/1ZbYEBRYQrakZBhJk1WW2BAUYCRA5DzW2EK/WAEgDYDgQGQYQr4kZBhJhFWW2EbO1ZbYEBRYQsKkZBhJk1WW2BAUYCRA5DzW2ELLWAEgDYDgQGQYQsokZBhJhFWW2EbdlZbYEBRYQs6kZBhJk1WW2BAUYCRA5DzW2ELXWAEgDYDgQGQYQtYkZBhJhFWW2EbslZbYEBRYQtqkZBhJk1WW2BAUYCRA5DzW2ELjWAEgDYDgQGQYQuIkZBhJhFWW2EcD1ZbYEBRYQuakZBhJk1WW2BAUYCRA5DzW2ELvWAEgDYDgQGQYQu4kZBhJhFWW2EcTlZbYEBRYQvKkZBhJk1WW2BAUYCRA5DzW2EL7WAEgDYDgQGQYQvokZBhJhFWW2EciVZbYEBRYQv6kZBhJk1WW2BAUYCRA5DzW2EMHWAEgDYDgQGQYQwYkZBhJ65WW2Ec1VZbYEBRYQwqkZBhKHZWW2BAUYCRA5DzW2EMTWAEgDYDgQGQYQxIkZBhJhFWW2EdQ1ZbYEBRYQxakZBhJk1WW2BAUYCRA5DzW2EMfWAEgDYDgQGQYQx4kZBhJhFWW2Edg1ZbYEBRYQyKkZBhJk1WW2BAUYCRA5DzW2EMrWAEgDYDgQGQYQyokZBhJ65WW2EdvlZbYEBRYQy6kZBhKHZWW2BAUYCRA5DzW2EM3WAEgDYDgQGQYQzYkZBhJ65WW2Ed71ZbYEBRYQzqkZBhKHZWW2BAUYCRA5DzW2ENDWAEgDYDgQGQYQ0IkZBhJ65WW2EeFlZbYEBRYQ0akZBhKQ1WW2BAUYCRA5DzW2ENK2EemFZbYEBRYQ04kZBhJk1WW2BAUYCRA5DzW2ENW2AEgDYDgQGQYQ1WkZBhJhFWW2Ee41ZbYEBRYQ1okZBhJk1WW2BAUYCRA5DzW2ENi2AEgDYDgQGQYQ2GkZBhJhFWW2EfHlZbYEBRYQ2YkZBhJk1WW2BAUYCRA5DzW2ENu2AEgDYDgQGQYQ22kZBhJhFWW2EfWlZbYEBRYQ3IkZBhJk1WW2BAUYCRA5DzW2EN62AEgDYDgQGQYQ3mkZBhKYhWW2EfllZbYEBRYQ34kZBhJk1WW2BAUYCRA5DzW2EOG2AEgDYDgQGQYQ4WkZBhJhFWW2Ef5FZbYEBRYQ4okZBhJk1WW2BAUYCRA5DzW2EOS2AEgDYDgQGQYQ5GkZBhJhFWW2EgH1ZbYEBRYQ5YkZBhJk1WW2BAUYCRA5DzW2EOe2AEgDYDgQGQYQ52kZBhJhFWW2EgWlZbYEBRYQ6IkZBhJk1WW2BAUYCRA5DzW2EOq2AEgDYDgQGQYQ6mkZBhJhFWW2EglVZbYEBRYQ64kZBhJk1WW2BAUYCRA5DzW2EO22AEgDYDgQGQYQ7WkZBhJhFWW2Eg0FZbYEBRYQ7okZBhJk1WW2BAUYCRA5DzW2EPC2AEgDYDgQGQYQ8GkZBhJhFWW2EhFFZbYEBRYQ8YkZBhJk1WW2BAUYCRA5DzW2EPO2AEgDYDgQGQYQ82kZBhJhFWW2EhUFZbYEBRYQ9IkZBhJk1WW2BAUYCRA5DzW2EPa2AEgDYDgQGQYQ9mkZBhJhFWW2Ehi1ZbYEBRYQ94kZBhJk1WW2BAUYCRA5DzW2EPm2AEgDYDgQGQYQ+WkZBhJhFWW2EhyVZbYEBRYQ+okZBhJk1WW2BAUYCRA5DzW2EPy2AEgDYDgQGQYQ/GkZBhJhFWW2EiBlZbYEBRYQ/YkZBhJk1WW2BAUYCRA5DzW2EP+2AEgDYDgQGQYQ/2kZBhJhFWW2EiQFZbYEBRYRAIkZBhJk1WW2BAUYCRA5DzW2EQK2AEgDYDgQGQYRAmkZBhJhFWW2EifFZbYEBRYRA4kZBhJk1WW2BAUYCRA5DzW2EQW2AEgDYDgQGQYRBWkZBhJhFWW2EiuFZbYEBRYRBokZBhJk1WW2BAUYCRA5DzW2EQi2AEgDYDgQGQYRCGkZBhJhFWW2EjE1ZbYEBRYRCYkZBhJk1WW2BAUYCRA5DzW2EQu2AEgDYDgQGQYRC2kZBhJhFWW2EjVVZbYEBRYRDIkZBhJk1WW2BAUYCRA5DzW2EQ62AEgDYDgQGQYRDmkZBhJhFWW2EjkVZbYEBRYRD4kZBhJk1WW2BAUYCRA5DzW2ERG2AEgDYDgQGQYREWkZBhJhFWW2EjzlZbYEBRYREokZBhJk1WW2BAUYCRA5DzW2ERS2AEgDYDgQGQYRFGkZBhJ65WW2EkEFZbYEBRYRFYkZBhKHZWW2BAUYCRA5DzW2ERe2AEgDYDgQGQYRF2kZBhJhFWW2Ekf1ZbYEBRYRGIkZBhJk1WW2BAUYCRA5DzW2ERq2AEgDYDgQGQYRGmkZBhJhFWW2Eku1ZbYEBRYRG4kZBhJk1WW2BAUYCRA5DzW2ER22AEgDYDgQGQYRHWkZBhJhFWW2Ek+VZbYEBRYRHokZBhJk1WW2BAUYCRA5DzW2ESC2AEgDYDgQGQYRIGkZBhJ65WW2ElOFZbYEBRYRIYkZBhKhBWW2BAUYCRA5DzW2ESO2AEgDYDgQGQYRI2kZBhJhFWW2ElalZbYEBRYRJIkZBhJk1WW2BAUYCRA5DzW2AAYRJbYRejVltQYABl3q2+7wA2kFBgAIBbhIEQFWESgVc2kVBgAYEBkFBhEmtWW1BQgJFQUJGQUFZbYABhEpZhF6NWW1BgAGXerb7vADKQUGAAgFuEgRAVYRK8VzKRUGABgQGQUGESplZbUFCAkVBQkZBQVltgAGES0WEXo1ZbUGAAZd6tvu8AUpBQYABbg4EQFWES91eBYABSYAGBAZBQYRLgVltQgJFQUJGQUFZbYGBgAGAIkFBgQIKEUWAghgFgAIVa8YBhEyFXYACA/VtQUJGQUFZbYABhEzJhF6NWW1BgAGXerb7vAAGQUGAAW4OBEBVhE1pXYACCAZFQYAGBAZBQYRNBVltQgJFQUJGQUFZbYACAVJBQkFZbYABhE3dhF6NWW1BgAGXerb7vABeQUGAAW4OBEBVhE59XYACCF5FQYAGBAZBQYROGVltQgJFQUJGQUFZbYABhE7NhF6NWW1BgAGXerb7vADSQUGAAgFuEgRAVYRPZVzSRUGABgQGQUGETw1ZbUFCAkVBQkZBQVltgAGET7mEXo1ZbUGAAZd6tvu8ABpBQYABbg4EQFWEUNVd///////////////////////////////////////////+CBpFQYAGBAZBQYRP9VltQgJFQUJGQUFZbYABhFElhF6NWW1BgAGXerb7vABOQUGAAgFuEgRAVYRRyV2ABgxORUGABgQGQUGEUWVZbUFCAkVBQkZBQVltgAGEUh2EXo1ZbUGAAZd6tvu8AIJBQf/////8AAAAAAAAAAAAAAAAAAAAAAAAAAAAAAAAAAAAAYABSYACAW4SBEBVhFNVXYARgACCRUGABgQGQUGEUu1ZbUH8pBFpZIAfQwkbvAsIiNXDalSLQzw9zKCx5obyPC7LCOIEUYRUCV2AAkVBbUICRUFCRkFBWW2AAYRUWYRejVltQYABl3q2+7wCkkFCAYBBSYABbg4EQFWEVSFdgBGADYAKDYAZgEKRgAYEBkFBhFSlWW1CAkVBQkZBQVltgAGEVXGEXo1ZbUGAAZd6tvu8AGpBQYACAW4SBEBVhFYVXgmAAGpFQYAGBAZBQYRVsVltQUICRUFCRkFBWW2AAYRWaYRejVltQYABl3q2+7wAbkFBgAFuDgRAVYRXCV4FgABuRUGABgQGQUGEVqVZbUICRUFCRkFBWW2AAYRXWYRejVltQYABl3q2+7wBCkFBgAIBbhIEQFWEV/FdCkVBgAYEBkFBhFeZWW1BQgJFQUJGQUFZbYABhFhFhF6NWW1BgAGXerb7vADGQUGAAMGAAW4WBEBVhFjpXgTGSUGABgQGQUGEWI1ZbUFBQgJFQUJGQUFZbYABhFlBhF6NWW1BgAGXerb7vAEiQUGAAgFuEgRAVYRZ2V0iRUGABgQGQUGEWYFZbUFCAkVBQkZBQVltgAGEWi2EXo1ZbUGAAZd6tvu8APZBQYACAW4SBEBVhFrFXPZFQYAGBAZBQYRabVltQUICRUFCRkFBWW2AAYRbGYRejVltQYABl3q2+7wBDkFBgAIBbhIEQFWEW7FdDkVBgAYEBkFBhFtZWW1BQgJFQUJGQUFZbYAKBgVSBEGEXB1dgAID9W5BgAFJgIGAAIAFgAJFQkFCAVGEXIpBhKlpWW4BgHwFgIICRBAJgIAFgQFGQgQFgQFKAkpGQgYFSYCABgoBUYRdOkGEqWlZbgBVhF5tXgGAfEGEXcFdhAQCAg1QEAoNSkWAgAZFhF5tWW4IBkZBgAFJgIGAAIJBbgVSBUpBgAQGQYCABgIMRYRd+V4KQA2AfFoIBkVtQUFBQUIFWW2AAYAFgAFRhF7SRkGEqulZbYACBkFVQYABUkFCQVltgAGEXzGEXo1ZbUGAAZd6tvu8ABJBQYABbg4EQFWEX9FdgAYIEkVBgAYEBkFBhF9tWW1CAkVBQkZBQVltgAGEYCGEXo1ZbUGAAZd6tvu8AN5BQYABbg4EQFWEYMFdgIGAAgDdgAYEBkFBhGBdWW1CAkVBQkZBQVltgAGEYRGEXo1ZbUGAAZd6tvu8AoJBQgGAQUmAAW4OBEBVhGG9XYAZgEKBgAYEBkFBhGFdWW1CAkVBQkZBQVltgAGEYg2EXo1ZbUGAAZd6tvu8AM5BQYACAW4SBEBVhGKlXM5FQYAGBAZBQYRiTVltQUICRUFCRkFBWW2AAYRi+YRejVltQYABl3q2+7wBTkFBgAFuDgRAVYRjoV2Perb7vYABSYAGBAZBQYRjNVltQgJFQUJGQUFZbYABhGPxhF6NWW1BgAGXerb7vADqQUGAAgFuEgRAVYRkiVzqRUGABgQGQUGEZDFZbUFCAkVBQkZBQVltgAGEZN2EXo1ZbUGAAZd6tvu8AUZBQYACBYABSYABbhIEQFWEZZFdgAFGRUGABgQGQUGEZTFZbUICRUFCAkVBQkZBQVltgAGEZfGEXo1ZbUGAAZd6tvu8AHZBQYABbg4EQFWEZpFeBYAAdkVBgAYEBkFBhGYtWW1CAkVBQkZBQVltgYGAAYAWQUGAggwGDUWBAUWAggYOFYACIWvGAYRnTV2AAgP1bgZVQUFBQUFCRkFBWW2AAgGACkFBgIIMBg1GDYCCBg4VgAIha8YBhGgJXYACA/VtQUFBQUJGQUFZbYABhGhZhF6NWW1BbYQPoWhEVYRpAV2ABgGAAgoJUYRo0kZBhKrpWW5JQUIGQVVBhGhhWW2ABVJBQkFZbYABhGlJhF6NWW1BgAGXerb7vABCQUGAAgFuEgRAVYRp7V4JgARCRUGABgQGQUGEaYlZbUFCAkVBQkZBQVltgAGEakGEXo1ZbUGAAZd6tvu8ARJBQYACAW4SBEBVhGrZXRJFQYAGBAZBQYRqgVltQUICRUFCRkFBWW2AAYRrLYRejVltQYABl3q2+7wARkFBgAIBbhIEQFWEa9FdgAYMRkVBgAYEBkFBhGttWW1BQgJFQUJGQUFZbYABhGwlhF6NWW1BgAGXerb7vAD6QUGAAW4OBEBVhGzFXYCBgAIA+YAGBAZBQYRsYVltQgJFQUJGQUFZbYABhG0VhF6NWW1BgAGXerb7vAEWQUGAAgFuEgRAVYRtrV0WRUGABgQGQUGEbVVZbUFCAkVBQkZBQVltgAGEbgGEXo1ZbUGAAZd6tvu8AApBQYABbg4EQFWEbqFdgAYICkVBgAYEBkFBhG49WW1CAkVBQkZBQVltgAGEbvGEXo1ZbUGAAZd6tvu8ACJBQYABbg4EQFWEcBVd///////////////////////////////////////////9gAIMIkVBgAYEBkFBhG8tWW1CAkVBQkZBQVltgAGEcGWEXo1ZbUGAAZd6tvu8AVJBQgGAAVWAAW4OBEBVhHERXYABUkVBgAYEBkFBhHCxWW1CAkVBQkZBQVltgAGEcWGEXo1ZbUGAAZd6tvu8AWpBQYACAW4SBEBVhHH5XWpFQYAGBAZBQYRxoVltQUICRUFCRkFBWW2AAYRyTYRejVltQYABl3q2+7wAZkFBgAFuDgRAVYRy5V4EZkVBgAYEBkFBhHKJWW1Bl3q2+7wAZgRRhHMxXgBmQUFuAkVBQkZBQVltgYICCURRhHRpXYEBRfwjDeaAAAAAAAAAAAAAAAAAAAAAAAAAAAAAAAAAAAAAAgVJgBAFhHRGQYStLVltgQFGAkQOQ/VtgAGAHkFBgIIMBg1FgQISChGAAh1rxgGEdOldgAID9W1BQUFCRkFBWW2AAYR1NYRejVltQYABl3q2+7wChkFCAYBBSYABbg4EQFWEdeVeAYAZgEKFgAYEBkFBhHWBWW1CAkVBQkZBQVltgAGEdjWEXo1ZbUGAAZd6tvu8AFpBQYABbg4EQFWEdtFeBghaRUGABgQGQUGEdnFZbUICRUFCRkFBWW2BgYABgBJBQYCCDAYNRYEBRgYGDhWAAiFrxgGEd4ldgAID9W4GVUFBQUFBQkZBQVltgYGAAYAiQUGBAgoRRYCCGAWAAhVrxgGEeD1dgAID9W1BQkZBQVltgAGCAglEUYR5cV2BAUX8Iw3mgAAAAAAAAAAAAAAAAAAAAAAAAAAAAAAAAAAAAAIFSYAQBYR5TkGErt1ZbYEBRgJEDkP1bYABgAZBQYCCDAWAggQFRYB8aYCCCAVJgIGBAUWCAg2AAhlrxgGEeildgAID9W2BAUVGTUFBQUJGQUFZbYABhHqJhF6NWW1BbYQPoWhEVYR7bV2ABgGAAgoJUYR7AkZBhKrpWW5JQUIGQVVBDYAFUYR7VkZBhLAZWW1BhHqRWW2ABVJBQkFZbYABhHu1hF6NWW1BgAGXerb7vAEaQUGAAgFuEgRAVYR8TV0aRUGABgQGQUGEe/VZbUFCAkVBQkZBQVltgAGEfKGEXo1ZbUGAAZd6tvu8ABZBQYABbg4EQFWEfUFdgAYIFkVBgAYEBkFBhHzdWW1CAkVBQkZBQVltgAGEfZGEXo1ZbUGAAZd6tvu8AOZBQYABbg4EQFWEfjFdgIGAAgDlgAYEBkFBhH3NWW1CAkVBQkZBQVltgAGACg4OQkYBgAYFUAYCCVYCRUFBgAZADkGAAUmAgYAAgAWAAkJGSkJGSkJGSkJGSUJGCYR/VkpGQYS3uVltQYAKAVJBQkFCSkVBQVltgAGEf7mEXo1ZbUGAAZd6tvu8AWZBQYACAW4SBEBVhIBRXWZFQYAGBAZBQYR/+VltQUICRUFCRkFBWW2AAYSApYRejVltQYABl3q2+7wA4kFBgAIBbhIEQFWEgT1c4kVBgAYEBkFBhIDlWW1BQgJFQUJGQUFZbYABhIGRhF6NWW1BgAGXerb7vAEGQUGAAgFuEgRAVYSCKV0GRUGABgQGQUGEgdFZbUFCAkVBQkZBQVltgAGEgn2EXo1ZbUGAAZd6tvu8AMJBQYACAW4SBEBVhIMVXMJFQYAGBAZBQYSCvVltQUICRUFCRkFBWW2AAYSDaYRejVltQYABl3q2+7wCjkFCAYBBSYABbg4EQFWEhCldgA2ACgmAGYBCjYAGBAZBQYSDtVltQgJFQUJGQUFZbYABhIR5hF6NWW1BgAGXerb7vAAuQUGAAW4OBEBVhIUZXgWAgC5FQYAGBAZBQYSEtVltQgJFQUJGQUFZbYABhIVphF6NWW1BgAGXerb7vAEeQUGAAgFuEgRAVYSGAV0eRUGABgQGQUGEhalZbUFCAkVBQkZBQVltgAGEhlWEXo1ZbUGAAZd6tvu8AHJBQYACAW4SBEBVhIb5XgmAAHJJQYAGBAZBQYSGlVltQUICRUFCRkFBWW2AAYSHTYRejVltQYABl3q2+7wA1kFBgAIBbhIEQFWEh+1dgADWRUGABgQGQUGEh41ZbUFCAkVBQkZBQVltgAGEiEGEXo1ZbUGAAZd6tvu8AVZBQYABbg4EQFWEiNleBYABVYAGBAZBQYSIfVltQgJFQUJGQUFZbYABhIkphF6NWW1BgAGXerb7vABiQUGAAW4OBEBVhInJXYACCGJFQYAGBAZBQYSJZVltQgJFQUJGQUFZbYABhIoZhF6NWW1BgAGXerb7vAAOQUGAAW4OBEBVhIq5XYACCA5FQYAGBAZBQYSKVVltQgJFQUJGQUFZbYABhIsJhF6NWW1BgAGXerb7vAAeQUGAAW4OBEBVhIwlXf///////////////////////////////////////////ggeRUGABgQGQUGEi0VZbUICRUFCRkFBWW2AAYSMdYRejVltQYABl3q2+7wCikFCAYBBSYABbg4EQFWEjS1dgAoFgBmAQomABgQGQUGEjMFZbUICRUFCRkFBWW2AAYSNfYRejVltQYABl3q2+7wAKkFBgAFuDgRAVYSOHV2ABggqRUGABgQGQUGEjblZbUICRUFCRkFBWW2AAYSObYRejVltQYABl3q2+7wAUkFBgAIBbhIEQFWEjw1eCgxSRUGABgQGQUGEjq1ZbUFCAkVBQkZBQVltgAGEj2GEXo1ZbUGAAZd6tvu8AQJBQYABgAUMDYABbhYEQFWEkBFeBQJJQYAGBAZBQYSPtVltQUFCAkVBQkZBQVltgYGCAglEUYSRWV2BAUX8Iw3mgAAAAAAAAAAAAAAAAAAAAAAAAAAAAAAAAAAAAAIFSYAQBYSRNkGErS1ZbYEBRgJEDkP1bYABgBpBQYCCDAYNRYECEgoRgAIda8YBhJHZXYACA/VtQUFBQkZBQVltgAGEkiWEXo1ZbUGAAZd6tvu8AFZBQYACAW4SBEBVhJLBXghWRUGABgQGQUGEkmVZbUFCAkVBQkZBQVltgAGEkxWEXo1ZbUGAAZd6tvu8AEpBQYACAW4SBEBVhJO5XgmABEpFQYAGBAZBQYSTVVltQUICRUFCRkFBWW2AAYSUDYRejVltQYABl3q2+7wA7kFBgADBgAFuFgRAVYSUsV4E7klBgAYEBkFBhJRVWW1BQUICRUFCRkFBWW2AAgGADkFBgIIMBg1FgQFFgFIGDhWAAiFrxgGElXFdgAID9W4FRlVBQUFBQUJGQUFZbYABhJXRhF6NWW1BgAGXerb7vAAmQUGAAW4OBEBVhJb1Xf///////////////////////////////////////////YAGDCZFQYAGBAZBQYSWDVltQgJFQUJGQUFZbYABgQFGQUJBWW2AAgP1bYACA/VtgAIGQUJGQUFZbYSXugWEl21ZbgRRhJflXYACA/VtQVltgAIE1kFBhJguBYSXlVluSkVBQVltgAGAggoQDEhVhJidXYSYmYSXRVltbYABhJjWEgoUBYSX8VluRUFCSkVBQVlthJkeBYSXbVluCUlBQVltgAGAgggGQUGEmYmAAgwGEYSY+VluSkVBQVltgAID9W2AAgP1bYABgHxlgH4MBFpBQkZBQVlt/Tkh7cQAAAAAAAAAAAAAAAAAAAAAAAAAAAAAAAAAAAABgAFJgQWAEUmAkYAD9W2Emu4JhJnJWW4EBgYEQZ///////////ghEXFWEm2ldhJtlhJoNWW1uAYEBSUFBQVltgAGEm7WElx1ZbkFBhJvmCgmEmslZbkZBQVltgAGf//////////4IRFWEnGVdhJxhhJoNWW1thJyKCYSZyVluQUGAggQGQUJGQUFZbgoGDN2AAg4MBUlBQUFZbYABhJ1FhJ0yEYSb+VlthJuNWW5BQgoFSYCCBAYSEhAERFWEnbVdhJ2xhJm1WW1thJ3iEgoVhJy9WW1CTklBQUFZbYACCYB+DARJhJ5VXYSeUYSZoVltbgTVhJ6WEgmAghgFhJz5WW5FQUJKRUFBWW2AAYCCChAMSFWEnxFdhJ8NhJdFWW1tgAIIBNWf//////////4ERFWEn4ldhJ+FhJdZWW1thJ+6EgoUBYSeAVluRUFCSkVBQVltgAIFRkFCRkFBWW2AAgoJSYCCCAZBQkpFQUFZbYABbg4EQFWEoMVeAggFRgYQBUmAggQGQUGEoFlZbYACEhAFSUFBQUFZbYABhKEiCYSf3VlthKFKBhWEoAlZbk1BhKGKBhWAghgFhKBNWW2Eoa4FhJnJWW4QBkVBQkpFQUFZbYABgIIIBkFCBgQNgAIMBUmEokIGEYSg9VluQUJKRUFBWW2AAgZBQkZBQVlthKKuBYSiYVluCUlBQVltgAGAgggGQUGEoxmAAgwGEYSiiVluSkVBQVltgAHP//////////////////////////4IWkFCRkFBWW2AAYSj3gmEozFZbkFCRkFBWW2EpB4FhKOxWW4JSUFBWW2AAYCCCAZBQYSkiYACDAYRhKP5WW5KRUFBWW2AAgP1bYACA/VtgAICDYB+EARJhKUhXYSlHYSZoVltbgjWQUGf//////////4ERFWEpZVdhKWRhKShWW1tgIIMBkVCDYAGCAoMBERVhKYFXYSmAYSktVltbklCSkFBWW2AAgGAgg4UDEhVhKZ9XYSmeYSXRVltbYACDATVn//////////+BERVhKb1XYSm8YSXWVltbYSnJhYKGAWEpMlZbklCSUFCSUJKQUFZbYAB///////////////////////////8AAAAAAAAAAAAAAACCFpBQkZBQVlthKgqBYSnVVluCUlBQVltgAGAgggGQUGEqJWAAgwGEYSoBVluSkVBQVlt/Tkh7cQAAAAAAAAAAAAAAAAAAAAAAAAAAAAAAAAAAAABgAFJgImAEUmAkYAD9W2AAYAKCBJBQYAGCFoBhKnJXYH+CFpFQW2AgghCBA2EqhVdhKoRhKitWW1tQkZBQVlt/Tkh7cQAAAAAAAAAAAAAAAAAAAAAAAAAAAAAAAAAAAABgAFJgEWAEUmAkYAD9W2AAYSrFgmEl21ZbkVBhKtCDYSXbVluSUIKCAZBQgIIRFWEq6FdhKudhKotWW1uSkVBQVltgAIKCUmAgggGQUJKRUFBWW39JbnZhbGlkIGlucHV0IGxlbmd0aAAAAAAAAAAAAAAAAGAAggFSUFZbYABhKzVgFINhKu5WW5FQYStAgmEq/1ZbYCCCAZBQkZBQVltgAGAgggGQUIGBA2AAgwFSYStkgWErKFZbkFCRkFBWW39JbnZhbGlkIGlucHV0IGRhdGEgbGVuZ3RoLgAAAAAAAGAAggFSUFZbYABhK6FgGoNhKu5WW5FQYSusgmEra1ZbYCCCAZBQkZBQVltgAGAgggGQUIGBA2AAgwFSYSvQgWErlFZbkFCRkFBWW39OSHtxAAAAAAAAAAAAAAAAAAAAAAAAAAAAAAAAAAAAAGAAUmASYARSYCRgAP1bYABhLBGCYSXbVluRUGEsHINhJdtWW5JQgmEsLFdhLCthK9dWW1uCggaQUJKRUFBWW2AAgpBQkpFQUFZbYACBkFCBYABSYCBgACCQUJGQUFZbYABgIGAfgwEEkFCRkFBWW2AAgoIbkFCSkVBQVltgAGAIgwJhLKR///////////////////////////////////////////+CYSxnVlthLK6Gg2EsZ1ZblVCAGYQWk1CAhhaEF5JQUFCTklBQUFZbYACBkFCRkFBWW2AAYSzrYSzmYSzhhGEl21ZbYSzGVlthJdtWW5BQkZBQVltgAIGQUJGQUFZbYS0Fg2Es0FZbYS0ZYS0RgmEs8lZbhIRUYSx0VluCVVBQUFBWW2AAkFZbYS0uYS0hVlthLTmBhIRhLPxWW1BQUFZbW4GBEBVhLV1XYS1SYACCYS0mVltgAYEBkFBhLT9WW1BQVltgH4IRFWEtoldhLXOBYSxCVlthLXyEYSxXVluBAWAghRAVYS2LV4GQUFthLZ9hLZeFYSxXVluDAYJhLT5WW1BQW1BQUFZbYACCghyQUJKRUFBWW2AAYS3FYAAZhGAIAmEtp1ZbGYCDFpFQUJKRUFBWW2AAYS3eg4NhLbRWW5FQgmACAoIXkFCSkVBQVlthLfiDg2EsN1ZbZ///////////gREVYS4RV2EuEGEmg1ZbW2EuG4JUYSpaVlthLiaCgoVhLWFWW2AAYB+DEWABgRRhLlVXYACEFWEuQ1eChwE1kFBbYS5NhYJhLdJWW4ZVUGEutVZbYB8ZhBZhLmOGYSxCVltgAFuCgRAVYS6LV4SJATWCVWABggGRUGAghQGUUGAggQGQUGEuZlZbhoMQFWEuqFeEiQE1YS6kYB+JFoJhLbRWW4NVUFtgAWACiAIBiFVQUFBbUFBQUFBQUFb+omRpcGZzWCISIDEkITSIwvH8pZaHh/DD6W+6hGkSmoB5jhHudSkDtL/cZHNvbGNDAAgTADM=",
          "touched": true,
          "read": true
        },
        "0x85dA99c8a7C2C95964c8EfD687E95E632Fc533D6": {
          "address": "0x85dA99c8a7C2C95964c8EfD687E95E632Fc533D6",
          "nonce": 4165,
          "read": true
        },
        "0xA52f1226449eA47013CceD3Dc59927657e3054dF": {
          "address": "0xA52f1226449eA47013CceD3Dc59927657e3054dF",
          "read": true
        }
      }
    }
  ]
}
