{
  "accountTrie": {
    "0b0c2267a11d12be4ca6b4fbeda672d6a348f65547ad816408acd269d3bd234a": "f8518080808080a0162c91a1ecf6c3da75a44156f3567e6831e19d3723f161e6e9e257fc3c77b28c808080808080a0c51be05949673f348cf2143cba377eb9d46108c506a9b0661055961021aa94f080808080",
    "0ebba158b2e2086c95df5cc31834332c003e6817b8d6c2fa98d8c2870d832f58": "f85180a01ee39d37c1f3c417d0056bbd4dff5675964628120b536a56b54b76e082ac654480808080808080808080a0b352e4c72d853473be5eac69cf10adfdc61a3747ec26a4b424f0a29292fc1d3780808080",
    "1ee39d37c1f3c417d0056bbd4dff5675964628120b536a56b54b76e082ac6544": "f8769f3eec2b84f0ba344fd4b4d2f022469febe7a772c4789acfc119eb558ab1da3db854f8528211468c033b2e3c610c15f7f8da7d07a056e81f171bcc55a6ff8345e692c0f86e5b48e01b996cadc001622fb5e363b421a0c5d2460186f7233c927e7db2dcc703c0e500b653ca82273b7bfad8045d85a470",
    "30c78e1255bce8b3d8d5d84955874e9cdd5b3254b9762fc3d970ad162afc93d1": "f89180a031d1eb10fdf37ef90417d463e9e3d1dad5bab6a3e8b38ccc4eaa744250317457808080a00ebba158b2e2086c95df5cc31834332c003e6817b8d6c2fa98d8c2870d832f58a088051b9667deb59e99614788c0d0aedaec2b9658bd714c851f16eb1d1ad3965280808080a077bd79fedccd1b246003bc0ddd247387f96c4d399a56104ffbd141dbee38a85c8080808080",
    "31539a3c83c7ef1c193ecf60093c8041631b6693d95fd8464e9efc0eb96c35e7": "f871808080a0e72788018a8f8a7dd5f544bb7f4af3f7af9d8c3e64c281c5db2eb54c3acaf8e8a0eb68126485dcaaca88731b1076aa5fe02a61cd409ffa5d95e08245b57d84c1afa03d2c9faa594230d254816429f8dc379c30c8b3679ef67f44dd31f3e6822f9a498080808080808080808080",
    "44cbe48f3d55e487fdf0acb35194aebd2bfd0444e936502edfacb790ee9236ce": "f8729f30c7b7ae81a58eb98d9c78de4a1fd7fd9535fc953ed2be602daaa41767312ab850f84e808ad3c21bd2b1bb0100a39ca056e81f171bcc55a6ff8345e692c0f86e5b48e01b996cadc001622fb5e363b421a0c5d2460186f7233c927e7db2dcc703c0e500b653ca82273b7bfad8045d85a470",
    "77bd79fedccd1b246003bc0ddd247387f96c4d399a56104ffbd141dbee38a85c": "f869a0201153dbf206d75683e43f23b3371905565fb3664658cb6614c697cb2d268f1fb846f8440180a015a0c485c1d851f3e98116b6ffc14526aea62cf99afa8647dafbde3c227be7dfa047b29abe53c19aeca5c0eb589a063611294ffe0c4fb918af3faedacb1888a815",
    "c51be05949673f348cf2143cba377eb9d46108c506a9b0661055961021aa94f0": "f873a0201e84137173633629f40faeb92a810dbcbf913533c7319539f3382ae8af9922b850f84e808ad3c21d1fd5dabef00b0ba056e81f171bcc55a6ff8345e692c0f86e5b48e01b996cadc001622fb5e363b421a0c5d2460186f7233c927e7db2dcc703c0e500b653ca82273b7bfad8045d85a470",
    "e72788018a8f8a7dd5f544bb7f4af3f7af9d8c3e64c281c5db2eb54c3acaf8e8": "f851a0e29cd6451f96ed556022f6076eacfbb24d0680280f8a4a588419a89b9a4260aa80808080808080a044cbe48f3d55e487fdf0acb35194aebd2bfd0444e936502edfacb790ee9236ce8080808080808080",
    "f7bee45d7beea1068706652cd6c940909359ec2fc0e11f59901be95680bfe3b1": "f90211a09bd5985e83d92230c8f5e1f163da9b6a14db480ec2597a384ce775e4bbcb9321a00b0c2267a11d12be4ca6b4fbeda672d6a348f65547ad816408acd269d3bd234aa0ff0c725a3b5913d9c885b8dc3813c6643491e11d6f54c5edee6fc39a20bcbe95a04bb4c7cdcdeccf73fe237ac3243854cdbc243bf42d3c7310b243f70ae24e0deba00898774ab29060c8e1ebca88393ba0342e86bcff5cb7c23c84f62f0fec5729efa031539a3c83c7ef1c193ecf60093c8041631b6693d95fd8464e9efc0eb96c35e7a0f820e589d2219ae3f297594cfd731f2ec64d19b1ba0f918369e9b413c126732da04dc086563225b9daca876e1ec0907e4145a1b7085c025ba734ab05b08c62eacea039b7303e60e450c9ca718364e6e03bc4397d4f96d158d617d1a43e73afb2b793a0e6e82a109ac4e5daed8f76043d8393d0298472e0518ff96a48b8492e479881fba030c78e1255bce8b3d8d5d84955874e9cdd5b3254b9762fc3d970ad162afc93d1a054cab2921d01b8ab026305874aca3f192ae1af8f0bb0c5d39e381645509e3931a0d45821352c9a605f77bcb12aabc82c2c9f99cf75f83c5cf4f2a550b2d5517cc6a0d5c3f35b3433034102536147a3dcfd190c7bb81fe37c4801a018ecc677f34deca08333762fcaf7193e048ab228010951a924224adf67ad901b5e98441becfcbbd7a092825616236bb69e7dce9723d0bcf9a7f9da80602dcab4c489d1e8ed8f6b347f80"
  },
  "storageTrie": {
    "15a0c485c1d851f3e98116b6ffc14526aea62cf99afa8647dafbde3c227be7df": "f8d1a047d7ee2bc83e298d425fcad38e9b1ada9342f14b67f78ed69fe67a7893db9e5080a0ab350e4f1a393dfa843944bb80358483367e70c09427024b1610dfc15d699536a0c97ee2686fb8be66ac4255c0d74c8e38c8f9ec10a50fbfd25349695ccce27ca880808080a03c9725981e17707bd8612860278f4b6772db03e0e9ba3a550960d3cc81813df380a0d99c8705e92c4eaad48b3a49491f8cd2fed7befb5b2e4694e28e3da22b1a3cc580a00217fd512c517b27264b1a710888bfc8c65bfff172b5e3f47cc71c76f0b11e3e80808080",
    "c97ee2686fb8be66ac4255c0d74c8e38c8f9ec10a50fbfd25349695ccce27ca8": "f0a036895aeba922f7a7fbe64d6e18ac301e6895dea1b10155bc0dfdfb93dd33da408e8d01431e0fae69f2cf206c9a0000",
    "d99c8705e92c4eaad48b3a49491f8cd2fed7befb5b2e4694e28e3da22b1a3cc5": "eba033274d838c103e9f9bc29f202d8ca1c20b69ed320596d739da4d0a930f8ab17a8988037f48aa33660000"
  },
  "parentStateRoot": "0xf7bee45d7beea1068706652cd6c940909359ec2fc0e11f59901be95680bfe3b1",
  "transactionTraces": [
    {
      "txn": "0x02f8b38207d18211468498f6f8948498f6f8a2828f6794a0e8e2c0dd4c98b39f9a2aaac6cab19b77d1836980b844a9059cbb000000000000000000000000deadbeefdeadbeefdeadbeefdeadbeefdeadbeef00000000000000000000000000000000000000000000000000038d7ea4c68000c080a0a05bc1d5271901c36a3e477d96717ffce88279a66f2145b54d40876a73b4dc91a01141d9305bf8e9d84761c06d335262375db0f7a353ccf52b3ab9c3f4c52e0e3b",
      "delta": {
        "0x0000000000000000000000000000000000000000": {
          "address": "0x0000000000000000000000000000000000000000",
          "read": true
        },
        "0x70A0bb66cF004D0FbdB6880Db1E283871cF13D27": {
          "address": "0x70A0bb66cF004D0FbdB6880Db1E283871cF13D27",
          "read": true
        },
        "0x85dA99c8a7C2C95964c8EfD687E95E632Fc533D6": {
          "address": "0x85dA99c8a7C2C95964c8EfD687E95E632Fc533D6",
          "nonce": 4423,
          "read": true
        },
        "0xA0e8e2c0dd4c98b39F9A2aaAc6CAB19b77D18369": {
          "address": "0xA0e8e2c0dd4c98b39F9A2aaAc6CAB19b77D18369",
          "storage": {
            "0x42fe90393dafacccf318596e1ca7e1e77c330a9ddff37275ce72bbe7ecb10ab8": "0x0000000000000000000000000000000000000001431e0fae69ef41a1c7d38000",
            "0xabd7b398c2237712843e3e780dcd40dfb99446b30666f04c025da4efa5ce5177": "0x0000000000000000000000000000000000000000000000000382d628d82c8000"
          },
          "storage_read": {
            "0x42fe90393dafacccf318596e1ca7e1e77c330a9ddff37275ce72bbe7ecb10ab8": {},
            "0xabd7b398c2237712843e3e780dcd40dfb99446b30666f04c025da4efa5ce5177": {}
          },
          "code_read": "YIBgQFI0gBVhABBXYACA/VtQYAQ2EGEAqVdgADVg4ByAY0KWbGgRYQBxV4BjQpZsaBRhAWhXgGNwoIIxFGEBhFeAY5XYm0EUYQG0V4BjoHEtaBRhAdJXgGOpBZy7FGEB7leAY91i7T4UYQIeV2EAqVZbgGMG/d4DFGEArleAYwlep7MUYQDMV4BjGBYN3RRhAPxXgGMjuHLdFGEBGleAYzE85WcUYQFKV1tgAID9W2EAtmECTlZbYEBRYQDDkZBhCb5WW2BAUYCRA5DzW2EA5mAEgDYDgQGQYQDhkZBhCnlWW2EC3FZbYEBRYQDzkZBhCtRWW2BAUYCRA5DzW2EBBGEDzlZbYEBRYQERkZBhCv5WW2BAUYCRA5DzW2EBNGAEgDYDgQGQYQEvkZBhCxlWW2ED1FZbYEBRYQFBkZBhCtRWW2BAUYCRA5DzW2EBUmEFhVZbYEBRYQFfkZBhC4hWW2BAUYCRA5DzW2EBgmAEgDYDgQGQYQF9kZBhC6NWW2EFmFZbAFthAZ5gBIA2A4EBkGEBmZGQYQvQVlthBm9WW2BAUWEBq5GQYQr+VltgQFGAkQOQ81thAbxhBodWW2BAUWEByZGQYQm+VltgQFGAkQOQ81thAexgBIA2A4EBkGEB55GQYQujVlthBxVWWwBbYQIIYASANgOBAZBhAgORkGEKeVZbYQfsVltgQFFhAhWRkGEK1FZbYEBRgJEDkPNbYQI4YASANgOBAZBhAjORkGEL/VZbYQkJVltgQFFhAkWRkGEK/lZbYEBRgJEDkPNbYAOAVGECW5BhDGxWW4BgHwFgIICRBAJgIAFgQFGQgQFgQFKAkpGQgYFSYCABgoBUYQKHkGEMbFZbgBVhAtRXgGAfEGECqVdhAQCAg1QEAoNSkWAgAZFhAtRWW4IBkZBgAFJgIGAAIJBbgVSBUpBgAQGQYCABgIMRYQK3V4KQA2AfFoIBkVtQUFBQUIFWW2AAgWACYAAzc///////////////////////////FnP//////////////////////////xaBUmAgAZCBUmAgAWAAIGAAhXP//////////////////////////xZz//////////////////////////8WgVJgIAGQgVJgIAFgACCBkFVQgnP//////////////////////////xYzc///////////////////////////Fn+MW+Hl6+x9W9FPcUJ9HoTz3QMUwPeyKR5bIArIx8O5JYRgQFFhA7yRkGEK/lZbYEBRgJEDkKNgAZBQkpFQUFZbYABUgVZbYACBYAJgAIZz//////////////////////////8Wc///////////////////////////FoFSYCABkIFSYCABYAAgYAAzc///////////////////////////FnP//////////////////////////xaBUmAgAZCBUmAgAWAAIGAAgoJUYQRikZBhDMxWW5JQUIGQVVCBYAFgAIZz//////////////////////////8Wc///////////////////////////FoFSYCABkIFSYCABYAAgYACCglRhBLiRkGEMzFZbklBQgZBVUIFgAWAAhXP//////////////////////////xZz//////////////////////////8WgVJgIAGQgVJgIAFgACBgAIKCVGEFDpGQYQ0AVluSUFCBkFVQgnP//////////////////////////xaEc///////////////////////////Fn/d8lKtG+LIm2nCsGj8N42qlSun8WPEoRYo9VpN9SOz74RgQFFhBXKRkGEK/lZbYEBRgJEDkKNgAZBQk5JQUFBWW2AFYACQVJBhAQAKkARg/xaBVluAYAFgADNz//////////////////////////8Wc///////////////////////////FoFSYCABkIFSYCABYAAgYACCglRhBeeRkGEMzFZbklBQgZBVUIBgAICCglRhBf+RkGEMzFZbklBQgZBVUGAAc///////////////////////////FjNz//////////////////////////8Wf93yUq0b4sibacKwaPw3jaqVK6fxY8ShFij1Wk31I7Pvg2BAUWEGZJGQYQr+VltgQFGAkQOQo1BWW2ABYCBSgGAAUmBAYAAgYACRUJBQVIFWW2AEgFRhBpSQYQxsVluAYB8BYCCAkQQCYCABYEBRkIEBYEBSgJKRkIGBUmAgAYKAVGEGwJBhDGxWW4AVYQcNV4BgHxBhBuJXYQEAgINUBAKDUpFgIAGRYQcNVluCAZGQYABSYCBgACCQW4FUgVKQYAEBkGAgAYCDEWEG8FeCkANgHxaCAZFbUFBQUFCBVluAYAFgADNz//////////////////////////8Wc///////////////////////////FoFSYCABkIFSYCABYAAgYACCglRhB2SRkGENAFZbklBQgZBVUIBgAICCglRhB3yRkGENAFZbklBQgZBVUDNz//////////////////////////8WYABz//////////////////////////8Wf93yUq0b4sibacKwaPw3jaqVK6fxY8ShFij1Wk31I7Pvg2BAUWEH4ZGQYQr+VltgQFGAkQOQo1BWW2AAgWABYAAzc///////////////////////////FnP//////////////////////////xaBUmAgAZCBUmAgAWAAIGAAgoJUYQg9kZBhDMxWW5JQUIGQVVCBYAFgAIVz//////////////////////////8Wc///////////////////////////FoFSYCABkIFSYCABYAAgYACCglRhCJORkGENAFZbklBQgZBVUIJz//////////////////////////8WM3P//////////////////////////xZ/3fJSrRviyJtpwrBo/DeNqpUrp/FjxKEWKPVaTfUjs++EYEBRYQj3kZBhCv5WW2BAUYCRA5CjYAGQUJKRUFBWW2ACYCBSgWAAUmBAYAAgYCBSgGAAUmBAYAAgYACRUJFQUFSBVltgAIFRkFCRkFBWW2AAgoJSYCCCAZBQkpFQUFZbYABbg4EQFWEJaFeAggFRgYQBUmAggQGQUGEJTVZbYACEhAFSUFBQUFZbYABgHxlgH4MBFpBQkZBQVltgAGEJkIJhCS5WW2EJmoGFYQk5VluTUGEJqoGFYCCGAWEJSlZbYQmzgWEJdFZbhAGRUFCSkVBQVltgAGAgggGQUIGBA2AAgwFSYQnYgYRhCYVWW5BQkpFQUFZbYACA/VtgAHP//////////////////////////4IWkFCRkFBWW2AAYQoQgmEJ5VZbkFCRkFBWW2EKIIFhCgVWW4EUYQorV2AAgP1bUFZbYACBNZBQYQo9gWEKF1ZbkpFQUFZbYACBkFCRkFBWW2EKVoFhCkNWW4EUYQphV2AAgP1bUFZbYACBNZBQYQpzgWEKTVZbkpFQUFZbYACAYECDhQMSFWEKkFdhCo9hCeBWW1tgAGEKnoWChgFhCi5WW5JQUGAgYQqvhYKGAWEKZFZbkVBQklCSkFBWW2AAgRUVkFCRkFBWW2EKzoFhCrlWW4JSUFBWW2AAYCCCAZBQYQrpYACDAYRhCsVWW5KRUFBWW2EK+IFhCkNWW4JSUFBWW2AAYCCCAZBQYQsTYACDAYRhCu9WW5KRUFBWW2AAgGAAYGCEhgMSFWELMldhCzFhCeBWW1tgAGELQIaChwFhCi5WW5NQUGAgYQtRhoKHAWEKLlZbklBQYEBhC2KGgocBYQpkVluRUFCSUJJQklZbYABg/4IWkFCRkFBWW2ELgoFhC2xWW4JSUFBWW2AAYCCCAZBQYQudYACDAYRhC3lWW5KRUFBWW2AAYCCChAMSFWELuVdhC7hhCeBWW1tgAGELx4SChQFhCmRWW5FQUJKRUFBWW2AAYCCChAMSFWEL5ldhC+VhCeBWW1tgAGEL9ISChQFhCi5WW5FQUJKRUFBWW2AAgGBAg4UDEhVhDBRXYQwTYQngVltbYABhDCKFgoYBYQouVluSUFBgIGEMM4WChgFhCi5WW5FQUJJQkpBQVlt/Tkh7cQAAAAAAAAAAAAAAAAAAAAAAAAAAAAAAAAAAAABgAFJgImAEUmAkYAD9W2AAYAKCBJBQYAGCFoBhDIRXYH+CFpFQW2AgghCBA2EMl1dhDJZhDD1WW1tQkZBQVlt/Tkh7cQAAAAAAAAAAAAAAAAAAAAAAAAAAAAAAAAAAAABgAFJgEWAEUmAkYAD9W2AAYQzXgmEKQ1ZbkVBhDOKDYQpDVluSUIKCA5BQgYERFWEM+ldhDPlhDJ1WW1uSkVBQVltgAGENC4JhCkNWW5FQYQ0Wg2EKQ1ZbklCCggGQUICCERVhDS5XYQ0tYQydVltbkpFQUFb+omRpcGZzWCISIA/fWAkpjA7S5zoT4zClZFc2IqonjcSpYAx0+MwNHTLnZHNvbGNDAAgRADM=",
          "touched": true,
          "read": true
        }
      }
    }
  ]
}
