{
  "accountTrie": {
    "005dce666aaad3f737c5c69920c4d5780d4d051faf9296506beada996e0a9af5": "f8518080a098d0cb0f461988b32c524f081c9641ce96fce99510946457d3e41a33a7eaa8fa8080808080a0d4550d9df627398e74e8168c7df5e1aa515735d437b9324309155633f3476b298080808080808080",
    "0f16fa73cbce3a863db597a3db0dcce180597b9700b95bba46db39158b32b4a5": "f8729f30c7b7ae81a58eb98d9c78de4a1fd7fd9535fc953ed2be602daaa41767312ab850f84e808ad3c21bd2b1bacf05a847a056e81f171bcc55a6ff8345e692c0f86e5b48e01b996cadc001622fb5e363b421a0c5d2460186f7233c927e7db2dcc703c0e500b653ca82273b7bfad8045d85a470",
    "275373a21e2e9340eb59a7b293bec2ab7cf67c9e4d44582123193d45490c71c9": "f89180a031d1eb10fdf37ef90417d463e9e3d1dad5bab6a3e8b38ccc4eaa744250317457808080a07112e53986d96a8880f722d89591a2029a34fd71302f252bacb796a81da1275ea088051b9667deb59e99614788c0d0aedaec2b9658bd714c851f16eb1d1ad3965280808080a056c9a23710ac9835e9a1a44b6725755589fc1f9ec5936cb5b11c7352657c58508080808080",
    "46f9dba03a7d23be11aceb5d1323516bd89a5d02fbf20c98fc46db90d356520a": "f8749f3eec2b84f0ba344fd4b4d2f022469febe7a772c4789acfc119eb558ab1da3db852f8505b8c033b2e3c9d853ace88f3927fa056e81f171bcc55a6ff8345e692c0f86e5b48e01b996cadc001622fb5e363b421a0c5d2460186f7233c927e7db2dcc703c0e500b653ca82273b7bfad8045d85a470",
    "647006bd7f669a094b9809a04d1f559bfb1153933424f92fac3a0a13e2b773ba": "f8518080808080808080a03a80082a3587599daa3a3cc4ceb9be62daa7533f733dbe3bd62be3932cbc38f88080a0e09ba615265e037380fa65269fdc929d0c872df141b4a2c3c152365cd50ca0228080808080",
    "6dd5344853acef54cf67e37b7ef17fefbb29b0a851f85768f4c8506774e67c67": "f851a0e29cd6451f96ed556022f6076eacfbb24d0680280f8a4a588419a89b9a4260aa80808080808080a00f16fa73cbce3a863db597a3db0dcce180597b9700b95bba46db39158b32b4a58080808080808080",
    "6f6a2d3ec90d684261877246f2144416f2ab3bafb8382b96b317cadbea08fad6": "f871808080a06dd5344853acef54cf67e37b7ef17fefbb29b0a851f85768f4c8506774e67c67a0eb68126485dcaaca88731b1076aa5fe02a61cd409ffa5d95e08245b57d84c1afa03d2c9faa594230d254816429f8dc379c30c8b3679ef67f44dd31f3e6822f9a498080808080808080808080",
    "7112e53986d96a8880f722d89591a2029a34fd71302f252bacb796a81da1275e": "f85180a046f9dba03a7d23be11aceb5d1323516bd89a5d02fbf20c98fc46db90d356520a80808080808080808080a0b352e4c72d853473be5eac69cf10adfdc61a3747ec26a4b424f0a29292fc1d3780808080",
    "8b8c67e9109805abba6c5d60f906d86d58fe9c2aaff89205389f9fb442994ec1": "f90211a0bfb4978f0c9b194d742f81c38e4e1edfab5d584238d15c9c5a3b3eeb2dfd31f9a0aa420956bf549ccd06284d99acb58e82ba4aa28449d5017087f311064e840193a0f7336f1bbd47de3425668cbc835f9dea28e3337206a6ddc39e2d75c0cfbc3fa6a04bb4c7cdcdeccf73fe237ac3243854cdbc243bf42d3c7310b243f70ae24e0deba00898774ab29060c8e1ebca88393ba0342e86bcff5cb7c23c84f62f0fec5729efa06f6a2d3ec90d684261877246f2144416f2ab3bafb8382b96b317cadbea08fad6a0f820e589d2219ae3f297594cfd731f2ec64d19b1ba0f918369e9b413c126732da0122b018f29623b7faf5b19ff1fdb857ed15666aae10b1a195fa30d5a6d75527ba0d5c0369176cb42cdd9a5d3ccc7c8d451e7582410f1baf984997c3c186edecb30a0e6e82a109ac4e5daed8f76043d8393d0298472e0518ff96a48b8492e479881fba0275373a21e2e9340eb59a7b293bec2ab7cf67c9e4d44582123193d45490c71c9a054cab2921d01b8ab026305874aca3f192ae1af8f0bb0c5d39e381645509e3931a0cba15c2b1a8ee7bb2a0ed57c4831628e1acce49cc87a8747262af16748f6fc77a0d5c3f35b3433034102536147a3dcfd190c7bb81fe37c4801a018ecc677f34deca08333762fcaf7193e048ab228010951a924224adf67ad901b5e98441becfcbbd7a092825616236bb69e7dce9723d0bcf9a7f9da80602dcab4c489d1e8ed8f6b347f80",
    "bfb4978f0c9b194d742f81c38e4e1edfab5d584238d15c9c5a3b3eeb2dfd31f9": "f8718080a00a6df8e88efe9ec320b6bc3577cc219757a58ce573eadd452cbfad6bbab6813880808080a0647006bd7f669a094b9809a04d1f559bfb1153933424f92fac3a0a13e2b773baa0d6e7baf9ad6b04dff3a25f53357482c94918662b5267635373129b88ba77616f8080808080808080",
    "d4550d9df627398e74e8168c7df5e1aa515735d437b9324309155633f3476b29": "f8729f35f36a26b4ab3a7e0edbbc8241a6c302cac010ae108ba112772fdfe46ea0d4b850f84e808ad3c21c31b17010015093a056e81f171bcc55a6ff8345e692c0f86e5b48e01b996cadc001622fb5e363b421a0c5d2460186f7233c927e7db2dcc703c0e500b653ca82273b7bfad8045d85a470",
    "d5c0369176cb42cdd9a5d3ccc7c8d451e7582410f1baf984997c3c186edecb30": "f851808080808080808080a0005dce666aaad3f737c5c69920c4d5780d4d051faf9296506beada996e0a9af580a08f342a8df0569570dfa8188e00c1763a9105214e26e635ce457c859a39858ee78080808080",
    "e09ba615265e037380fa65269fdc929d0c872df141b4a2c3c152365cd50ca022": "f86f9f32adcfe18406ff7246f44d41408f7bc77391a1928be4fdde6b51a6c9c543f5b84df84b80876e2255f4098000a056e81f171bcc55a6ff8345e692c0f86e5b48e01b996cadc001622fb5e363b421a0c5d2460186f7233c927e7db2dcc703c0e500b653ca82273b7bfad8045d85a470"
  },
  "storageTrie": null,
  "parentStateRoot": "0x8b8c67e9109805abba6c5d60f906d86d58fe9c2aaff89205389f9fb442994ec1",
  "transactionTraces": [
    {
      "txn": "0xf86c5b8498f6f8a082520894deadbeefdeadbeefdeadbeefdeadbeefdeadbeef87038d7ea4c6800080820fc6a0dc1c4bc32a29dc02567fc8384642243866ef8da31d5bb2b3680ed9d415800035a0341097317f3d055a0dde7932bd3bc488e9cc71d93b748dd793a12a11dc51cf33",
      "delta": {
        "0x0000000000000000000000000000000000000000": {
          "address": "0x0000000000000000000000000000000000000000",
          "read": true
        },
        "0x27c407D3Cd295E18a19bAdBA4036542aa59eCA91": {
          "address": "0x27c407D3Cd295E18a19bAdBA4036542aa59eCA91",
          "read": true
        },
        "0x85dA99c8a7C2C95964c8EfD687E95E632Fc533D6": {
          "address": "0x85dA99c8a7C2C95964c8EfD687E95E632Fc533D6",
          "nonce": 92,
          "read": true
        },
        "0xDeaDbeefdEAdbeefdEadbEEFdeadbeEFdEaDbeeF": {
          "address": "0xDeaDbeefdEAdbeefdEadbEEFdeadbeEFdEaDbeeF",
          "touched": true,
          "read": true
        }
      }
    },
    {
      "txn": "0xf86c5c8498f6f8a082520894deadbeefdeadbeefdeadbeefdeadbeefdeadbeef87038d7ea4c6800080820fc6a04976a453d7565abe9dd0d37e53feae1454995b985a21848f7f1ff64786576de8a06aa9a9e5d71d0daf9c4708559982e588931e99b107f106d37956167f053f4f97",
      "delta": {
        "0x0000000000000000000000000000000000000000": {
          "address": "0x0000000000000000000000000000000000000000",
          "read": true
        },
        "0x27c407D3Cd295E18a19bAdBA4036542aa59eCA91": {
          "address": "0x27c407D3Cd295E18a19bAdBA4036542aa59eCA91",
          "read": true
        },
        "0x85dA99c8a7C2C95964c8EfD687E95E632Fc533D6": {
          "address": "0x85dA99c8a7C2C95964c8EfD687E95E632Fc533D6",
          "nonce": 93,
          "read": true
        },
        "0xDeaDbeefdEAdbeefdEadbEEFdeadbeEFdEaDbeeF": {
          "address": "0xDeaDbeefdEAdbeefdEadbEEFdeadbeEFdEaDbeeF",
          "touched": true,
          "read": true
        }
      }
    },
    {
      "txn": "0xf86c5d8498f6f8a082520894deadbeefdeadbeefdeadbeefdeadbeefdeadbeef87038d7ea4c6800080820fc5a022ae967d4dbd3e3b65847e8ef56d000b627f48900a3e5dc7b943a323b44a2a8fa0142bb9e3301c0efe8c6c5624e5145e19250268fce2bffae242b3da4efa19ba9e",
      "delta": {
        "0x0000000000000000000000000000000000000000": {
          "address": "0x0000000000000000000000000000000000000000",
          "read": true
        },
        "0x27c407D3Cd295E18a19bAdBA4036542aa59eCA91": {
          "address": "0x27c407D3Cd295E18a19bAdBA4036542aa59eCA91",
          "read": true
        },
        "0x85dA99c8a7C2C95964c8EfD687E95E632Fc533D6": {
          "address": "0x85dA99c8a7C2C95964c8EfD687E95E632Fc533D6",
          "nonce": 94,
          "read": true
        },
        "0xDeaDbeefdEAdbeefdEadbEEFdeadbeEFdEaDbeeF": {
          "address": "0xDeaDbeefdEAdbeefdEadbEEFdeadbeEFdEaDbeeF",
          "touched": true,
          "read": true
        }
      }
    },
    {
      "txn": "0xf86c5e8498f6f8a082520894deadbeefdeadbeefdeadbeefdeadbeefdeadbeef87038d7ea4c6800080820fc6a0b079e1bd4f98849e09adc102db8183963f7d15f5788372660e77a3e363a1c9c3a00602a09b175d0b74caefb3004f73bb7b6962f21739a0f4c7292bb41b1d6105b0",
      "delta": {
        "0x0000000000000000000000000000000000000000": {
          "address": "0x0000000000000000000000000000000000000000",
          "read": true
        },
        "0x27c407D3Cd295E18a19bAdBA4036542aa59eCA91": {
          "address": "0x27c407D3Cd295E18a19bAdBA4036542aa59eCA91",
          "read": true
        },
        "0x85dA99c8a7C2C95964c8EfD687E95E632Fc533D6": {
          "address": "0x85dA99c8a7C2C95964c8EfD687E95E632Fc533D6",
          "nonce": 95,
          "read": true
        },
        "0xDeaDbeefdEAdbeefdEadbEEFdeadbeEFdEaDbeeF": {
          "address": "0xDeaDbeefdEAdbeefdEadbEEFdeadbeEFdEaDbeeF",
          "touched": true,
          "read": true
        }
      }
    },
    {
      "txn": "0xf86c5f8498f6f8a082520894deadbeefdeadbeefdeadbeefdeadbeefdeadbeef87038d7ea4c6800080820fc6a08068196273072b75c29b97dcb3b77b2f1be161cf41940fb2505981b0f3d7b4dda02fafe58440e76304e8ae41bd6bf01781e5591587ac99e2acec882e6f735d157d",
      "delta": {
        "0x0000000000000000000000000000000000000000": {
          "address": "0x0000000000000000000000000000000000000000",
          "read": true
        },
        "0x27c407D3Cd295E18a19bAdBA4036542aa59eCA91": {
          "address": "0x27c407D3Cd295E18a19bAdBA4036542aa59eCA91",
          "read": true
        },
        "0x85dA99c8a7C2C95964c8EfD687E95E632Fc533D6": {
          "address": "0x85dA99c8a7C2C95964c8EfD687E95E632Fc533D6",
          "nonce": 96,
          "read": true
        },
        "0xDeaDbeefdEAdbeefdEadbEEFdeadbeEFdEaDbeeF": {
          "address": "0xDeaDbeefdEAdbeefdEadbEEFdeadbeEFdEaDbeeF",
          "touched": true,
          "read": true
        }
      }
    },
    {
      "txn": "0xf86c608498f6f8a082520894deadbeefdeadbeefdeadbeefdeadbeefdeadbeef87038d7ea4c6800080820fc5a07c4acdfbcc0a7b6abc5e94117c66805840fef449513b3ecaabd177af72a7bb39a03a73bc16689130a62b2f77fd13913de0c545e853e4527166f818228e03e6b4ea",
      "delta": {
        "0x0000000000000000000000000000000000000000": {
          "address": "0x0000000000000000000000000000000000000000",
          "read": true
        },
        "0x27c407D3Cd295E18a19bAdBA4036542aa59eCA91": {
          "address": "0x27c407D3Cd295E18a19bAdBA4036542aa59eCA91",
          "read": true
        },
        "0x85dA99c8a7C2C95964c8EfD687E95E632Fc533D6": {
          "address": "0x85dA99c8a7C2C95964c8EfD687E95E632Fc533D6",
          "nonce": 97,
          "read": true
        },
        "0xDeaDbeefdEAdbeefdEadbEEFdeadbeEFdEaDbeeF": {
          "address": "0xDeaDbeefdEAdbeefdEadbEEFdeadbeEFdEaDbeeF",
          "touched": true,
          "read": true
        }
      }
    },
    {
      "txn": "0xf86c618498f6f8a082520894deadbeefdeadbeefdeadbeefdeadbeefdeadbeef87038d7ea4c6800080820fc5a0381d5e0ae397f0ad3a75ad4192d9fd3085d99baf48f3811d32cbb9044fdb4562a04788030ed554b7dbcfebb4cc05ed732ad6a61b12533334649966b504efc5d4c5",
      "delta": {
        "0x0000000000000000000000000000000000000000": {
          "address": "0x0000000000000000000000000000000000000000",
          "read": true
        },
        "0x27c407D3Cd295E18a19bAdBA4036542aa59eCA91": {
          "address": "0x27c407D3Cd295E18a19bAdBA4036542aa59eCA91",
          "read": true
        },
        "0x85dA99c8a7C2C95964c8EfD687E95E632Fc533D6": {
          "address": "0x85dA99c8a7C2C95964c8EfD687E95E632Fc533D6",
          "nonce": 98,
          "read": true
        },
        "0xDeaDbeefdEAdbeefdEadbEEFdeadbeEFdEaDbeeF": {
          "address": "0xDeaDbeefdEAdbeefdEadbEEFdeadbeEFdEaDbeeF",
          "touched": true,
          "read": true
        }
      }
    },
    {
      "txn": "0xf86c628498f6f8a082520894deadbeefdeadbeefdeadbeefdeadbeefdeadbeef87038d7ea4c6800080820fc5a017c5301f71617dbea9a87432845d5c887910c55ee7a7b17e9846eec5a49b9a0fa0541e3d5bbf5993ef88da66a0f87d576dfe3c7c60f8b0e511ea757bbdbc0f9dd5",
      "delta": {
        "0x0000000000000000000000000000000000000000": {
          "address": "0x0000000000000000000000000000000000000000",
          "read": true
        },
        "0x27c407D3Cd295E18a19bAdBA4036542aa59eCA91": {
          "address": "0x27c407D3Cd295E18a19bAdBA4036542aa59eCA91",
          "read": true
        },
        "0x85dA99c8a7C2C95964c8EfD687E95E632Fc533D6": {
          "address": "0x85dA99c8a7C2C95964c8EfD687E95E632Fc533D6",
          "nonce": 99,
          "read": true
        },
        "0xDeaDbeefdEAdbeefdEadbEEFdeadbeEFdEaDbeeF": {
          "address": "0xDeaDbeefdEAdbeefdEadbEEFdeadbeEFdEaDbeeF",
          "touched": true,
          "read": true
        }
      }
    },
    {
      "txn": "0xf86c638498f6f8a082520894deadbeefdeadbeefdeadbeefdeadbeefdeadbeef87038d7ea4c6800080820fc5a0fdd2a4bbf2d62b79d007d266370a7a9b1ab49d6168cbcbc1946179e3046080a7a0355f7d6b31a71ef16788e76884a84334bc109c8b8acd17b82a9a828aef8d236b",
      "delta": {
        "0x0000000000000000000000000000000000000000": {
          "address": "0x0000000000000000000000000000000000000000",
          "read": true
        },
        "0x27c407D3Cd295E18a19bAdBA4036542aa59eCA91": {
          "address": "0x27c407D3Cd295E18a19bAdBA4036542aa59eCA91",
          "read": true
        },
        "0x85dA99c8a7C2C95964c8EfD687E95E632Fc533D6": {
          "address": "0x85dA99c8a7C2C95964c8EfD687E95E632Fc533D6",
          "nonce": 100,
          "read": true
        },
        "0xDeaDbeefdEAdbeefdEadbEEFdeadbeEFdEaDbeeF": {
          "address": "0xDeaDbeefdEAdbeefdEadbEEFdeadbeEFdEaDbeeF",
          "touched": true,
          "read": true
        }
      }
    },
    {
      "txn": "0xf86c648498f6f8a082520894deadbeefdeadbeefdeadbeefdeadbeefdeadbeef87038d7ea4c6800080820fc5a0be347d3a0dbc56cdc1da1a0e11f6f3f222dd1755b29774f3262354bfcb60b504a024d3cd2289bf59fc52ff8dc5a1881950f52d11a4c7902238aadacad5cf2286c0",
      "delta": {
        "0x0000000000000000000000000000000000000000": {
          "address": "0x0000000000000000000000000000000000000000",
          "read": true
        },
        "0x27c407D3Cd295E18a19bAdBA4036542aa59eCA91": {
          "address": "0x27c407D3Cd295E18a19bAdBA4036542aa59eCA91",
          "read": true
        },
        "0x85dA99c8a7C2C95964c8EfD687E95E632Fc533D6": {
          "address": "0x85dA99c8a7C2C95964c8EfD687E95E632Fc533D6",
          "nonce": 101,
          "read": true
        },
        "0xDeaDbeefdEAdbeefdEadbEEFdeadbeEFdEaDbeeF": {
          "address": "0xDeaDbeefdEAdbeefdEadbEEFdeadbeEFdEaDbeeF",
          "touched": true,
          "read": true
        }
      }
    },
    {
      "txn": "0xf86c658498f6f8a082520894deadbeefdeadbeefdeadbeefdeadbeefdeadbeef87038d7ea4c6800080820fc5a0d4dc7fd6516a2c3057d32937630b7ba59f69c46414bad3613a7b011061614e24a041098b1203b70266afd1dd46537091b11c71fb7ed03cc9ef29a051a784b434af",
      "delta": {
        "0x0000000000000000000000000000000000000000": {
          "address": "0x0000000000000000000000000000000000000000",
          "read": true
        },
        "0x27c407D3Cd295E18a19bAdBA4036542aa59eCA91": {
          "address": "0x27c407D3Cd295E18a19bAdBA4036542aa59eCA91",
          "read": true
        },
        "0x85dA99c8a7C2C95964c8EfD687E95E632Fc533D6": {
          "address": "0x85dA99c8a7C2C95964c8EfD687E95E632Fc533D6",
          "nonce": 102,
          "read": true
        },
        "0xDeaDbeefdEAdbeefdEadbEEFdeadbeEFdEaDbeeF": {
          "address": "0xDeaDbeefdEAdbeefdEadbEEFdeadbeEFdEaDbeeF",
          "touched": true,
          "read": true
        }
      }
    },
    {
      "txn": "0xf86c668498f6f8a082520894deadbeefdeadbeefdeadbeefdeadbeefdeadbeef87038d7ea4c6800080820fc6a02bf7bfd2909b152327a85f823b8f6b9a0c4d428d30cea804cf00ff666b29cc5ea043a76797d703bbec9ccbd36eef8489e2677e39729d6a5b616e59766198ccff0e",
      "delta": {
        "0x0000000000000000000000000000000000000000": {
          "address": "0x0000000000000000000000000000000000000000",
          "read": true
        },
        "0x27c407D3Cd295E18a19bAdBA4036542aa59eCA91": {
          "address": "0x27c407D3Cd295E18a19bAdBA4036542aa59eCA91",
          "read": true
        },
        "0x85dA99c8a7C2C95964c8EfD687E95E632Fc533D6": {
          "address": "0x85dA99c8a7C2C95964c8EfD687E95E632Fc533D6",
          "nonce": 103,
          "read": true
        },
        "0xDeaDbeefdEAdbeefdEadbEEFdeadbeEFdEaDbeeF": {
          "address": "0xDeaDbeefdEAdbeefdEadbEEFdeadbeEFdEaDbeeF",
          "touched": true,
          "read": true
        }
      }
    },
    {
      "txn": "0xf86c678498f6f8a082520894deadbeefdeadbeefdeadbeefdeadbeefdeadbeef87038d7ea4c6800080820fc5a0cf48eb925cb76aaee0d9c09993c0ea332af3cb4ff1f6c7d0149a414fbffe0445a06cf27ffe8378c8ce026e596ac1e53ba0d7612aad17b40c630534b2b6ba742867",
      "delta": {
        "0x0000000000000000000000000000000000000000": {
          "address": "0x0000000000000000000000000000000000000000",
          "read": true
        },
        "0x27c407D3Cd295E18a19bAdBA4036542aa59eCA91": {
          "address": "0x27c407D3Cd295E18a19bAdBA4036542aa59eCA91",
          "read": true
        },
        "0x85dA99c8a7C2C95964c8EfD687E95E632Fc533D6": {
          "address": "0x85dA99c8a7C2C95964c8EfD687E95E632Fc533D6",
          "nonce": 104,
          "read": true
        },
        "0xDeaDbeefdEAdbeefdEadbEEFdeadbeEFdEaDbeeF": {
          "address": "0xDeaDbeefdEAdbeefdEadbEEFdeadbeEFdEaDbeeF",
          "touched": true,
          "read": true
        }
      }
    },
    {
      "txn": "0xf86c688498f6f8a082520894deadbeefdeadbeefdeadbeefdeadbeefdeadbeef87038d7ea4c6800080820fc6a0a7c7314183c8a00b5933e453e2cebbec1d9f1e086d2d2a0ecdc1300302367cd3a055c559872c2ba034f069613200fb50131916382ebba628ab213a5cc73ff48ae0",
      "delta": {
        "0x0000000000000000000000000000000000000000": {
          "address": "0x0000000000000000000000000000000000000000",
          "read": true
        },
        "0x27c407D3Cd295E18a19bAdBA4036542aa59eCA91": {
          "address": "0x27c407D3Cd295E18a19bAdBA4036542aa59eCA91",
          "read": true
        },
        "0x85dA99c8a7C2C95964c8EfD687E95E632Fc533D6": {
          "address": "0x85dA99c8a7C2C95964c8EfD687E95E632Fc533D6",
          "nonce": 105,
          "read": true
        },
        "0xDeaDbeefdEAdbeefdEadbEEFdeadbeEFdEaDbeeF": {
          "address": "0xDeaDbeefdEAdbeefdEadbEEFdeadbeEFdEaDbeeF",
          "touched": true,
          "read": true
        }
      }
    },
    {
      "txn": "0xf86c698498f6f8a082520894deadbeefdeadbeefdeadbeefdeadbeefdeadbeef87038d7ea4c6800080820fc6a04ff3e84de3b00fef8757e059aafdf00e861921ac56ed671b8b958a8f63528cd5a05f8c6beb4f85d1299218ea8fb5f36c7f668700171ba8fdfc293dac109c35fedf",
      "delta": {
        "0x0000000000000000000000000000000000000000": {
          "address": "0x0000000000000000000000000000000000000000",
          "read": true
        },
        "0x27c407D3Cd295E18a19bAdBA4036542aa59eCA91": {
          "address": "0x27c407D3Cd295E18a19bAdBA4036542aa59eCA91",
          "read": true
        },
        "0x85dA99c8a7C2C95964c8EfD687E95E632Fc533D6": {
          "address": "0x85dA99c8a7C2C95964c8EfD687E95E632Fc533D6",
          "nonce": 106,
          "read": true
        },
        "0xDeaDbeefdEAdbeefdEadbEEFdeadbeEFdEaDbeeF": {
          "address": "0xDeaDbeefdEAdbeefdEadbEEFdeadbeEFdEaDbeeF",
          "touched": true,
          "read": true
        }
      }
    },
    {
      "txn": "0xf86c6a8498f6f8a082520894deadbeefdeadbeefdeadbeefdeadbeefdeadbeef87038d7ea4c6800080820fc5a039759deb4ef11cfb971d2c73afc90b2e8091b2b12430605b4f2c8c59e8cd9981a072304aa54fd10a92023ed03039b2ab28c9f3a3dc914de223ea990d97dd183ec4",
      "delta": {
        "0x0000000000000000000000000000000000000000": {
          "address": "0x0000000000000000000000000000000000000000",
          "read": true
        },
        "0x27c407D3Cd295E18a19bAdBA4036542aa59eCA91": {
          "address": "0x27c407D3Cd295E18a19bAdBA4036542aa59eCA91",
          "read": true
        },
        "0x85dA99c8a7C2C95964c8EfD687E95E632Fc533D6": {
          "address": "0x85dA99c8a7C2C95964c8EfD687E95E632Fc533D6",
          "nonce": 107,
          "read": true
        },
        "0xDeaDbeefdEAdbeefdEadbEEFdeadbeEFdEaDbeeF": {
          "address": "0xDeaDbeefdEAdbeefdEadbEEFdeadbeEFdEaDbeeF",
          "touched": true,
          "read": true
        }
      }
    },
    {
      "txn": "0xf86c6b8498f6f8a082520894deadbeefdeadbeefdeadbeefdeadbeefdeadbeef87038d7ea4c6800080820fc5a0eaf872116e2cd12b0fe341640266bca32158bfc417947014454974a4411acd9da01d2e45297622091850c487bc80f26a0818cf8e57b3170a123a7d0d4f27082ae4",
      "delta": {
        "0x0000000000000000000000000000000000000000": {
          "address": "0x0000000000000000000000000000000000000000",
          "read": true
        },
        "0x27c407D3Cd295E18a19bAdBA4036542aa59eCA91": {
          "address": "0x27c407D3Cd295E18a19bAdBA4036542aa59eCA91",
          "read": true
        },
        "0x85dA99c8a7C2C95964c8EfD687E95E632Fc533D6": {
          "address": "0x85dA99c8a7C2C95964c8EfD687E95E632Fc533D6",
          "nonce": 108,
          "read": true
        },
        "0xDeaDbeefdEAdbeefdEadbEEFdeadbeEFdEaDbeeF": {
          "address": "0xDeaDbeefdEAdbeefdEadbEEFdeadbeEFdEaDbeeF",
          "touched": true,
          "read": true
        }
      }
    },
    {
      "txn": "0xf86c6c8498f6f8a082520894deadbeefdeadbeefdeadbeefdeadbeefdeadbeef87038d7ea4c6800080820fc6a04a18b2b974530812ef6d72db19bd4d700883ead916484c637897d65e64d29cb5a0422a3b391ffde63eb6495a4c6e9938c6ea22a1976f8d372763b79957bd231006",
      "delta": {
        "0x0000000000000000000000000000000000000000": {
          "address": "0x0000000000000000000000000000000000000000",
          "read": true
        },
        "0x27c407D3Cd295E18a19bAdBA4036542aa59eCA91": {
          "address": "0x27c407D3Cd295E18a19bAdBA4036542aa59eCA91",
          "read": true
        },
        "0x85dA99c8a7C2C95964c8EfD687E95E632Fc533D6": {
          "address": "0x85dA99c8a7C2C95964c8EfD687E95E632Fc533D6",
          "nonce": 109,
          "read": true
        },
        "0xDeaDbeefdEAdbeefdEadbEEFdeadbeEFdEaDbeeF": {
          "address": "0xDeaDbeefdEAdbeefdEadbEEFdeadbeEFdEaDbeeF",
          "touched": true,
          "read": true
        }
      }
    },
    {
      "txn": "0xf86c6d8498f6f8a082520894deadbeefdeadbeefdeadbeefdeadbeefdeadbeef87038d7ea4c6800080820fc5a01120ca3e5187590b16616b5e28c07e1804fe6963762a7218a8448734a634326aa06236e31cc9eb872fd9e5b9b80cca7ab6a8abb3827556cd0f2756fd827667f1b9",
      "delta": {
        "0x0000000000000000000000000000000000000000": {
          "address": "0x0000000000000000000000000000000000000000",
          "read": true
        },
        "0x27c407D3Cd295E18a19bAdBA4036542aa59eCA91": {
          "address": "0x27c407D3Cd295E18a19bAdBA4036542aa59eCA91",
          "read": true
        },
        "0x85dA99c8a7C2C95964c8EfD687E95E632Fc533D6": {
          "address": "0x85dA99c8a7C2C95964c8EfD687E95E632Fc533D6",
          "nonce": 110,
          "read": true
        },
        "0xDeaDbeefdEAdbeefdEadbEEFdeadbeEFdEaDbeeF": {
          "address": "0xDeaDbeefdEAdbeefdEadbEEFdeadbeEFdEaDbeeF",
          "touched": true,
          "read": true
        }
      }
    },
    {
      "txn": "0xf86c6e8498f6f8a082520894deadbeefdeadbeefdeadbeefdeadbeefdeadbeef87038d7ea4c6800080820fc6a088f887d2cf0c58c14c115fde5ca7c65eb1907fd3f25ee31a55ec8e884dcef393a06bfcc4059d4e0e0e8fc5278cbeb1e852e05ae3e83006ca37bec387fab2859c22",
      "delta": {
        "0x0000000000000000000000000000000000000000": {
          "address": "0x0000000000000000000000000000000000000000",
          "read": true
        },
        "0x27c407D3Cd295E18a19bAdBA4036542aa59eCA91": {
          "address": "0x27c407D3Cd295E18a19bAdBA4036542aa59eCA91",
          "read": true
        },
        "0x85dA99c8a7C2C95964c8EfD687E95E632Fc533D6": {
          "address": "0x85dA99c8a7C2C95964c8EfD687E95E632Fc533D6",
          "nonce": 111,
          "read": true
        },
        "0xDeaDbeefdEAdbeefdEadbEEFdeadbeEFdEaDbeeF": {
          "address": "0xDeaDbeefdEAdbeefdEadbEEFdeadbeEFdEaDbeeF",
          "touched": true,
          "read": true
        }
      }
    },
    {
      "txn": "0xf86c6f8498f6f8a082520894deadbeefdeadbeefdeadbeefdeadbeefdeadbeef87038d7ea4c6800080820fc6a0a62c3c1bc74af9c566a6c6e7570ea287a4203d3bdd59e2ccc65e3098a5ff4405a017ae1602fc6ddf154aff6f606799513501c82c439ef86f021cabe6bfcbaca85b",
      "delta": {
        "0x0000000000000000000000000000000000000000": {
          "address": "0x0000000000000000000000000000000000000000",
          "read": true
        },
        "0x27c407D3Cd295E18a19bAdBA4036542aa59eCA91": {
          "address": "0x27c407D3Cd295E18a19bAdBA4036542aa59eCA91",
          "read": true
        },
        "0x85dA99c8a7C2C95964c8EfD687E95E632Fc533D6": {
          "address": "0x85dA99c8a7C2C95964c8EfD687E95E632Fc533D6",
          "nonce": 112,
          "read": true
        },
        "0xDeaDbeefdEAdbeefdEadbEEFdeadbeEFdEaDbeeF": {
          "address": "0xDeaDbeefdEAdbeefdEadbEEFdeadbeEFdEaDbeeF",
          "touched": true,
          "read": true
        }
      }
    },
    {
      "txn": "0xf86c708498f6f8a082520894deadbeefdeadbeefdeadbeefdeadbeefdeadbeef87038d7ea4c6800080820fc5a0c5acd369e1659ef4441fc1acaf4fe9decc42ac065f0aa18d0cbb659df143c7d4a012606663810a815dec4c62323f8aa86f5f52cb261c2e1a1ff454744d22e00f57",
      "delta": {
        "0x0000000000000000000000000000000000000000": {
          "address": "0x0000000000000000000000000000000000000000",
          "read": true
        },
        "0x27c407D3Cd295E18a19bAdBA4036542aa59eCA91": {
          "address": "0x27c407D3Cd295E18a19bAdBA4036542aa59eCA91",
          "read": true
        },
        "0x85dA99c8a7C2C95964c8EfD687E95E632Fc533D6": {
          "address": "0x85dA99c8a7C2C95964c8EfD687E95E632Fc533D6",
          "nonce": 113,
          "read": true
        },
        "0xDeaDbeefdEAdbeefdEadbEEFdeadbeEFdEaDbeeF": {
          "address": "0xDeaDbeefdEAdbeefdEadbEEFdeadbeEFdEaDbeeF",
          "touched": true,
          "read": true
        }
      }
    },
    {
      "txn": "0xf86c718498f6f8a082520894deadbeefdeadbeefdeadbeefdeadbeefdeadbeef87038d7ea4c6800080820fc6a0a683ef29d49ac0f229dba2aa20d76efb78d9c9589c37cc72346b2e8864a27caea049cf2ff77b095f30bf0b404021b4a97f6fafe85a51868f65d901a4def0d3144f",
      "delta": {
        "0x0000000000000000000000000000000000000000": {
          "address": "0x0000000000000000000000000000000000000000",
          "read": true
        },
        "0x27c407D3Cd295E18a19bAdBA4036542aa59eCA91": {
          "address": "0x27c407D3Cd295E18a19bAdBA4036542aa59eCA91",
          "read": true
        },
        "0x85dA99c8a7C2C95964c8EfD687E95E632Fc533D6": {
          "address": "0x85dA99c8a7C2C95964c8EfD687E95E632Fc533D6",
          "nonce": 114,
          "read": true
        },
        "0xDeaDbeefdEAdbeefdEadbEEFdeadbeEFdEaDbeeF": {
          "address": "0xDeaDbeefdEAdbeefdEadbEEFdeadbeEFdEaDbeeF",
          "touched": true,
          "read": true
        }
      }
    },
    {
      "txn": "0xf86c728498f6f8a082520894deadbeefdeadbeefdeadbeefdeadbeefdeadbeef87038d7ea4c6800080820fc6a0414f6552d5ec208e5068c3f01cef9e5b4ed2d0ebf8b6adfa640dff397cabb2d9a028ec03c5946ac3dbc6fbc70b1a297eab12da21aebff7f076011a0128d9abe62a",
      "delta": {
        "0x0000000000000000000000000000000000000000": {
          "address": "0x0000000000000000000000000000000000000000",
          "read": true
        },
        "0x27c407D3Cd295E18a19bAdBA4036542aa59eCA91": {
          "address": "0x27c407D3Cd295E18a19bAdBA4036542aa59eCA91",
          "read": true
        },
        "0x85dA99c8a7C2C95964c8EfD687E95E632Fc533D6": {
          "address": "0x85dA99c8a7C2C95964c8EfD687E95E632Fc533D6",
          "nonce": 115,
          "read": true
        },
        "0xDeaDbeefdEAdbeefdEadbEEFdeadbeEFdEaDbeeF": {
          "address": "0xDeaDbeefdEAdbeefdEadbEEFdeadbeEFdEaDbeeF",
          "touched": true,
          "read": true
        }
      }
    },
    {
      "txn": "0xf86c738498f6f8a082520894deadbeefdeadbeefdeadbeefdeadbeefdeadbeef87038d7ea4c6800080820fc5a0463bd3b46e77a47b44d75726b0c32beb78876250450c9f4a4d46387a877f93a5a021c4cb331d5986108c2ead0f2fbbd30b26979fee425399fc60170167e70e0ddc",
      "delta": {
        "0x0000000000000000000000000000000000000000": {
          "address": "0x0000000000000000000000000000000000000000",
          "read": true
        },
        "0x27c407D3Cd295E18a19bAdBA4036542aa59eCA91": {
          "address": "0x27c407D3Cd295E18a19bAdBA4036542aa59eCA91",
          "read": true
        },
        "0x85dA99c8a7C2C95964c8EfD687E95E632Fc533D6": {
          "address": "0x85dA99c8a7C2C95964c8EfD687E95E632Fc533D6",
          "nonce": 116,
          "read": true
        },
        "0xDeaDbeefdEAdbeefdEadbEEFdeadbeEFdEaDbeeF": {
          "address": "0xDeaDbeefdEAdbeefdEadbEEFdeadbeEFdEaDbeeF",
          "touched": true,
          "read": true
        }
      }
    },
    {
      "txn": "0xf86c748498f6f8a082520894deadbeefdeadbeefdeadbeefdeadbeefdeadbeef87038d7ea4c6800080820fc5a0d96fc54dd31d80c2f4b50f856c16df76959b4e185ddd5441605a477f09845841a068014f147c46807e44a173d5fbaef70fb6b6e8243893a02b4a1015976b194c86",
      "delta": {
        "0x0000000000000000000000000000000000000000": {
          "address": "0x0000000000000000000000000000000000000000",
          "read": true
        },
        "0x27c407D3Cd295E18a19bAdBA4036542aa59eCA91": {
          "address": "0x27c407D3Cd295E18a19bAdBA4036542aa59eCA91",
          "read": true
        },
        "0x85dA99c8a7C2C95964c8EfD687E95E632Fc533D6": {
          "address": "0x85dA99c8a7C2C95964c8EfD687E95E632Fc533D6",
          "nonce": 117,
          "read": true
        },
        "0xDeaDbeefdEAdbeefdEadbEEFdeadbeEFdEaDbeeF": {
          "address": "0xDeaDbeefdEAdbeefdEadbEEFdeadbeEFdEaDbeeF",
          "touched": true,
          "read": true
        }
      }
    },
    {
      "txn": "0xf86c758498f6f8a082520894deadbeefdeadbeefdeadbeefdeadbeefdeadbeef87038d7ea4c6800080820fc6a0cfa4c2724f6ee20bb34002e751cae11220e3e5f1515b2346a507163eb456f7c7a009f923ef8bf377087621c9758147071bb6d4eca30de9f119f77af0c5cd4a9e85",
      "delta": {
        "0x0000000000000000000000000000000000000000": {
          "address": "0x0000000000000000000000000000000000000000",
          "read": true
        },
        "0x27c407D3Cd295E18a19bAdBA4036542aa59eCA91": {
          "address": "0x27c407D3Cd295E18a19bAdBA4036542aa59eCA91",
          "read": true
        },
        "0x85dA99c8a7C2C95964c8EfD687E95E632Fc533D6": {
          "address": "0x85dA99c8a7C2C95964c8EfD687E95E632Fc533D6",
          "nonce": 118,
          "read": true
        },
        "0xDeaDbeefdEAdbeefdEadbEEFdeadbeEFdEaDbeeF": {
          "address": "0xDeaDbeefdEAdbeefdEadbEEFdeadbeEFdEaDbeeF",
          "touched": true,
          "read": true
        }
      }
    },
    {
      "txn": "0xf86c768498f6f8a082520894deadbeefdeadbeefdeadbeefdeadbeefdeadbeef87038d7ea4c6800080820fc6a04efc1d2b0e8fb7afccdac9f7a20d2600b03c12fecc2f03f77357088b489d2a3ea022f012baacfa8a98577ab97747aa2c9f12ff0e1eb75daaa2b218b07d38882dbb",
      "delta": {
        "0x0000000000000000000000000000000000000000": {
          "address": "0x0000000000000000000000000000000000000000",
          "read": true
        },
        "0x27c407D3Cd295E18a19bAdBA4036542aa59eCA91": {
          "address": "0x27c407D3Cd295E18a19bAdBA4036542aa59eCA91",
          "read": true
        },
        "0x85dA99c8a7C2C95964c8EfD687E95E632Fc533D6": {
          "address": "0x85dA99c8a7C2C95964c8EfD687E95E632Fc533D6",
          "nonce": 119,
          "read": true
        },
        "0xDeaDbeefdEAdbeefdEadbEEFdeadbeEFdEaDbeeF": {
          "address": "0xDeaDbeefdEAdbeefdEadbEEFdeadbeEFdEaDbeeF",
          "touched": true,
          "read": true
        }
      }
    },
    {
      "txn": "0xf86c778498f6f8a082520894deadbeefdeadbeefdeadbeefdeadbeefdeadbeef87038d7ea4c6800080820fc5a036eca62725eb3c66ebdb29bd11090eb6f16cc3130089e32fb4aa766f7e19b5a4a01eae6f5183c7b943d3077c256de359b903a4e605e93f5786ae53ff1f798b1cbc",
      "delta": {
        "0x0000000000000000000000000000000000000000": {
          "address": "0x0000000000000000000000000000000000000000",
          "read": true
        },
        "0x27c407D3Cd295E18a19bAdBA4036542aa59eCA91": {
          "address": "0x27c407D3Cd295E18a19bAdBA4036542aa59eCA91",
          "read": true
        },
        "0x85dA99c8a7C2C95964c8EfD687E95E632Fc533D6": {
          "address": "0x85dA99c8a7C2C95964c8EfD687E95E632Fc533D6",
          "nonce": 120,
          "read": true
        },
        "0xDeaDbeefdEAdbeefdEadbEEFdeadbeEFdEaDbeeF": {
          "address": "0xDeaDbeefdEAdbeefdEadbEEFdeadbeEFdEaDbeeF",
          "touched": true,
          "read": true
        }
      }
    },
    {
      "txn": "0xf86c788498f6f8a082520894deadbeefdeadbeefdeadbeefdeadbeefdeadbeef87038d7ea4c6800080820fc6a0dca178c1bd4a0abd459c7b0cb925e8745e6553a8b98d6e98ab59184f4a6cd94fa00f2185ec9c4dcb50a057f72f6c355e657f1b84fab90101f685397efa6e244331",
      "delta": {
        "0x0000000000000000000000000000000000000000": {
          "address": "0x0000000000000000000000000000000000000000",
          "read": true
        },
        "0x27c407D3Cd295E18a19bAdBA4036542aa59eCA91": {
          "address": "0x27c407D3Cd295E18a19bAdBA4036542aa59eCA91",
          "read": true
        },
        "0x85dA99c8a7C2C95964c8EfD687E95E632Fc533D6": {
          "address": "0x85dA99c8a7C2C95964c8EfD687E95E632Fc533D6",
          "nonce": 121,
          "read": true
        },
        "0xDeaDbeefdEAdbeefdEadbEEFdeadbeEFdEaDbeeF": {
          "address": "0xDeaDbeefdEAdbeefdEadbEEFdeadbeEFdEaDbeeF",
          "touched": true,
          "read": true
        }
      }
    },
    {
      "txn": "0xf86c798498f6f8a082520894deadbeefdeadbeefdeadbeefdeadbeefdeadbeef87038d7ea4c6800080820fc6a0db7304ab898bfd786f88b0bfc412382c3c9546ca78112f5a7adbc3a5dc7f703aa0783613fd8756b159a142951bf6837a2d26778c997b80d84eb9581127179e5582",
      "delta": {
        "0x0000000000000000000000000000000000000000": {
          "address": "0x0000000000000000000000000000000000000000",
          "read": true
        },
        "0x27c407D3Cd295E18a19bAdBA4036542aa59eCA91": {
          "address": "0x27c407D3Cd295E18a19bAdBA4036542aa59eCA91",
          "read": true
        },
        "0x85dA99c8a7C2C95964c8EfD687E95E632Fc533D6": {
          "address": "0x85dA99c8a7C2C95964c8EfD687E95E632Fc533D6",
          "nonce": 122,
          "read": true
        },
        "0xDeaDbeefdEAdbeefdEadbEEFdeadbeEFdEaDbeeF": {
          "address": "0xDeaDbeefdEAdbeefdEadbEEFdeadbeEFdEaDbeeF",
          "touched": true,
          "read": true
        }
      }
    },
    {
      "txn": "0xf86c7a8498f6f8a082520894deadbeefdeadbeefdeadbeefdeadbeefdeadbeef87038d7ea4c6800080820fc5a08c8b69ceba148a82e5d643e9ed726c65f01a2696dbc6859db4062cf7b5b1d808a041aeb10f113d6523cd21b32a5b4f325d7bd429362abba976aca777da06861c10",
      "delta": {
        "0x0000000000000000000000000000000000000000": {
          "address": "0x0000000000000000000000000000000000000000",
          "read": true
        },
        "0x27c407D3Cd295E18a19bAdBA4036542aa59eCA91": {
          "address": "0x27c407D3Cd295E18a19bAdBA4036542aa59eCA91",
          "read": true
        },
        "0x85dA99c8a7C2C95964c8EfD687E95E632Fc533D6": {
          "address": "0x85dA99c8a7C2C95964c8EfD687E95E632Fc533D6",
          "nonce": 123,
          "read": true
        },
        "0xDeaDbeefdEAdbeefdEadbEEFdeadbeEFdEaDbeeF": {
          "address": "0xDeaDbeefdEAdbeefdEadbEEFdeadbeEFdEaDbeeF",
          "touched": true,
          "read": true
        }
      }
    }
  ]
}
