{
  "accountTrie": {
    "1a7ad44e5b6e5f16ecb8bdf2a9ec798528d638e61298f38644601d1c67fec5ad": "f8729f30c7b7ae81a58eb98d9c78de4a1fd7fd9535fc953ed2be602daaa41767312ab850f84e808ad3c21bd2b1bafdfeb928a056e81f171bcc55a6ff8345e692c0f86e5b48e01b996cadc001622fb5e363b421a0c5d2460186f7233c927e7db2dcc703c0e500b653ca82273b7bfad8045d85a470",
    "1f91a70f0f2eb10e8745d7f9a97c3154ecdf5e6b5416cc6d4e7f050b08bbe3cf": "f89180a031d1eb10fdf37ef90417d463e9e3d1dad5bab6a3e8b38ccc4eaa744250317457808080a0c870efce104e290657c5fe2a2aefe17fe2b468246f7a65fa7a17dc37bbfd276da088051b9667deb59e99614788c0d0aedaec2b9658bd714c851f16eb1d1ad3965280808080a056c9a23710ac9835e9a1a44b6725755589fc1f9ec5936cb5b11c7352657c58508080808080",
    "56c9a23710ac9835e9a1a44b6725755589fc1f9ec5936cb5b11c7352657c5850": "f869a0201153dbf206d75683e43f23b3371905565fb3664658cb6614c697cb2d268f1fb846f8440180a06c3d6dd931d3eaa51411a79791286d3956ef321a7a5248464cb3e7e8241cc38aa047b29abe53c19aeca5c0eb589a063611294ffe0c4fb918af3faedacb1888a815",
    "5848a1170a78e73da377e3d247bcea06f102773362823251ad7244f588248991": "f851a0e29cd6451f96ed556022f6076eacfbb24d0680280f8a4a588419a89b9a4260aa80808080808080a01a7ad44e5b6e5f16ecb8bdf2a9ec798528d638e61298f38644601d1c67fec5ad8080808080808080",
    "b12bdd9d26dc38c9c458b5e4ea51a4e596d0620eefc3233e1c90f60606d27456": "f8918080808080808080a08acfcc5d12f75a3532d30bec4da20159bcf79c89ab54616f4652018a6a6efbfb808080a0ca07de13a5110852e9c3a79feec78206dd1e30ce11f8262a1395124ea64a565fa08a0977db0c40a342485134dc58b8ec9ca0c4d0b37ec2659d0d7333265623b7f580a0426f557212756f658ce9ad6197f233d78ac00ebad04c145d0d8a4575abbfee4780",
    "c870efce104e290657c5fe2a2aefe17fe2b468246f7a65fa7a17dc37bbfd276d": "f85180a0eb6d735e28e62f526dad526570916e2b7e842fc9c07bcd4a63b9bd44992d7d5180808080808080808080a0b352e4c72d853473be5eac69cf10adfdc61a3747ec26a4b424f0a29292fc1d3780808080",
    "ca07de13a5110852e9c3a79feec78206dd1e30ce11f8262a1395124ea64a565f": "f873a02082f050cb357a36d397fbf1bf8ae229e585729de88fbd29953f3d46e686a400b850f84e808ad3c21d2b17adaf9d81cfa056e81f171bcc55a6ff8345e692c0f86e5b48e01b996cadc001622fb5e363b421a0c5d2460186f7233c927e7db2dcc703c0e500b653ca82273b7bfad8045d85a470",
    "ceb5672a72fc3979639309c5b22bca0828f4963f1f37c9eea7d4bb7d9575aafa": "f871808080a05848a1170a78e73da377e3d247bcea06f102773362823251ad7244f588248991a0eb68126485dcaaca88731b1076aa5fe02a61cd409ffa5d95e08245b57d84c1afa03d2c9faa594230d254816429f8dc379c30c8b3679ef67f44dd31f3e6822f9a498080808080808080808080",
    "eb6d735e28e62f526dad526570916e2b7e842fc9c07bcd4a63b9bd44992d7d51": "f8769f3eec2b84f0ba344fd4b4d2f022469febe7a772c4789acfc119eb558ab1da3db854f85282104a8c033b2e3c614dce3ff6f7ed63a056e81f171bcc55a6ff8345e692c0f86e5b48e01b996cadc001622fb5e363b421a0c5d2460186f7233c927e7db2dcc703c0e500b653ca82273b7bfad8045d85a470",
    "eb7312afdc7e979a20fe7e453d6f101e6cc96b5e082e022de7159b331e5f9d76": "f90211a09bd5985e83d92230c8f5e1f163da9b6a14db480ec2597a384ce775e4bbcb9321a011c0f5a40e45a2384dbe66a23f5458b0192c56c989e7d9e1de0e94df4af27125a0ff0c725a3b5913d9c885b8dc3813c6643491e11d6f54c5edee6fc39a20bcbe95a04bb4c7cdcdeccf73fe237ac3243854cdbc243bf42d3c7310b243f70ae24e0deba00898774ab29060c8e1ebca88393ba0342e86bcff5cb7c23c84f62f0fec5729efa0ceb5672a72fc3979639309c5b22bca0828f4963f1f37c9eea7d4bb7d9575aafaa0f820e589d2219ae3f297594cfd731f2ec64d19b1ba0f918369e9b413c126732da0b12bdd9d26dc38c9c458b5e4ea51a4e596d0620eefc3233e1c90f60606d27456a05abc1d3da2c4b90afba595e6bf32790d2636591c0d38f65b2e1a395268b803eba0e6e82a109ac4e5daed8f76043d8393d0298472e0518ff96a48b8492e479881fba01f91a70f0f2eb10e8745d7f9a97c3154ecdf5e6b5416cc6d4e7f050b08bbe3cfa054cab2921d01b8ab026305874aca3f192ae1af8f0bb0c5d39e381645509e3931a028b294e131b325ce408e20ee951d8910a83ffdf1aecd32e553b344ef015e88aea0d5c3f35b3433034102536147a3dcfd190c7bb81fe37c4801a018ecc677f34deca08333762fcaf7193e048ab228010951a924224adf67ad901b5e98441becfcbbd7a092825616236bb69e7dce9723d0bcf9a7f9da80602dcab4c489d1e8ed8f6b347f80"
  },
  "storageTrie": {
    "6c3d6dd931d3eaa51411a79791286d3956ef321a7a5248464cb3e7e8241cc38a": "f8b1a047d7ee2bc83e298d425fcad38e9b1ada9342f14b67f78ed69fe67a7893db9e5080a0ab350e4f1a393dfa843944bb80358483367e70c09427024b1610dfc15d699536a0982acdb2c5f2e66fbe8f461085498ee7c52da02dc00b264c40c3700c0dd1c76980808080a03c9725981e17707bd8612860278f4b6772db03e0e9ba3a550960d3cc81813df3808080a00217fd512c517b27264b1a710888bfc8c65bfff172b5e3f47cc71c76f0b11e3e80808080",
    "982acdb2c5f2e66fbe8f461085498ee7c52da02dc00b264c40c3700c0dd1c769": "f0a036895aeba922f7a7fbe64d6e18ac301e6895dea1b10155bc0dfdfb93dd33da408e8d01431e0fae6d7217caa0000000"
  },
  "parentStateRoot": "0xeb7312afdc7e979a20fe7e453d6f101e6cc96b5e082e022de7159b331e5f9d76",
  "transactionTraces": [
    {
      "txn": "0x02f8b38207d182104a8498f6f8948498f6f8a282c9ff94a0e8e2c0dd4c98b39f9a2aaac6cab19b77d1836980b844a9059cbb000000000000000000000000deadbeefdeadbeefdeadbeefdeadbeefdeadbeef00000000000000000000000000000000000000000000000000038d7ea4c68000c080a0c45767aa0f9eea667eb6124019089c8a74f9949e2463cd78c1f7cca056dba884a060b50aa554da1ce5210d05841d6e01751b11be26d742b9c0c204d78bd659e5c8",
      "delta": {
        "0x0000000000000000000000000000000000000000": {
          "address": "0x0000000000000000000000000000000000000000",
          "read": true
        },
        "0x85dA99c8a7C2C95964c8EfD687E95E632Fc533D6": {
          "address": "0x85dA99c8a7C2C95964c8EfD687E95E632Fc533D6",
          "nonce": 4171,
          "read": true
        },
        "0x8Ef7ccE1aced4258884e831527C674a2edEA4952": {
          "address": "0x8Ef7ccE1aced4258884e831527C674a2edEA4952",
          "read": true
        },
        "0xA0e8e2c0dd4c98b39F9A2aaAc6CAB19b77D18369": {
          "address": "0xA0e8e2c0dd4c98b39F9A2aaAc6CAB19b77D18369",
          "storage": {
            "0x42fe90393dafacccf318596e1ca7e1e77c330a9ddff37275ce72bbe7ecb10ab8": "0x0000000000000000000000000000000000000001431e0fae6d6e8a4bfb398000",
            "0xabd7b398c2237712843e3e780dcd40dfb99446b30666f04c025da4efa5ce5177": "0x00000000000000000000000000000000000000000000000000038d7ea4c68000"
          },
          "storage_read": {
            "0x42fe90393dafacccf318596e1ca7e1e77c330a9ddff37275ce72bbe7ecb10ab8": {},
            "0xabd7b398c2237712843e3e780dcd40dfb99446b30666f04c025da4efa5ce5177": {}
          },
          "code_read": "YIBgQFI0gBVhABBXYACA/VtQYAQ2EGEAqVdgADVg4ByAY0KWbGgRYQBxV4BjQpZsaBRhAWhXgGNwoIIxFGEBhFeAY5XYm0EUYQG0V4BjoHEtaBRhAdJXgGOpBZy7FGEB7leAY91i7T4UYQIeV2EAqVZbgGMG/d4DFGEArleAYwlep7MUYQDMV4BjGBYN3RRhAPxXgGMjuHLdFGEBGleAYzE85WcUYQFKV1tgAID9W2EAtmECTlZbYEBRYQDDkZBhCb5WW2BAUYCRA5DzW2EA5mAEgDYDgQGQYQDhkZBhCnlWW2EC3FZbYEBRYQDzkZBhCtRWW2BAUYCRA5DzW2EBBGEDzlZbYEBRYQERkZBhCv5WW2BAUYCRA5DzW2EBNGAEgDYDgQGQYQEvkZBhCxlWW2ED1FZbYEBRYQFBkZBhCtRWW2BAUYCRA5DzW2EBUmEFhVZbYEBRYQFfkZBhC4hWW2BAUYCRA5DzW2EBgmAEgDYDgQGQYQF9kZBhC6NWW2EFmFZbAFthAZ5gBIA2A4EBkGEBmZGQYQvQVlthBm9WW2BAUWEBq5GQYQr+VltgQFGAkQOQ81thAbxhBodWW2BAUWEByZGQYQm+VltgQFGAkQOQ81thAexgBIA2A4EBkGEB55GQYQujVlthBxVWWwBbYQIIYASANgOBAZBhAgORkGEKeVZbYQfsVltgQFFhAhWRkGEK1FZbYEBRgJEDkPNbYQI4YASANgOBAZBhAjORkGEL/VZbYQkJVltgQFFhAkWRkGEK/lZbYEBRgJEDkPNbYAOAVGECW5BhDGxWW4BgHwFgIICRBAJgIAFgQFGQgQFgQFKAkpGQgYFSYCABgoBUYQKHkGEMbFZbgBVhAtRXgGAfEGECqVdhAQCAg1QEAoNSkWAgAZFhAtRWW4IBkZBgAFJgIGAAIJBbgVSBUpBgAQGQYCABgIMRYQK3V4KQA2AfFoIBkVtQUFBQUIFWW2AAgWACYAAzc///////////////////////////FnP//////////////////////////xaBUmAgAZCBUmAgAWAAIGAAhXP//////////////////////////xZz//////////////////////////8WgVJgIAGQgVJgIAFgACCBkFVQgnP//////////////////////////xYzc///////////////////////////Fn+MW+Hl6+x9W9FPcUJ9HoTz3QMUwPeyKR5bIArIx8O5JYRgQFFhA7yRkGEK/lZbYEBRgJEDkKNgAZBQkpFQUFZbYABUgVZbYACBYAJgAIZz//////////////////////////8Wc///////////////////////////FoFSYCABkIFSYCABYAAgYAAzc///////////////////////////FnP//////////////////////////xaBUmAgAZCBUmAgAWAAIGAAgoJUYQRikZBhDMxWW5JQUIGQVVCBYAFgAIZz//////////////////////////8Wc///////////////////////////FoFSYCABkIFSYCABYAAgYACCglRhBLiRkGEMzFZbklBQgZBVUIFgAWAAhXP//////////////////////////xZz//////////////////////////8WgVJgIAGQgVJgIAFgACBgAIKCVGEFDpGQYQ0AVluSUFCBkFVQgnP//////////////////////////xaEc///////////////////////////Fn/d8lKtG+LIm2nCsGj8N42qlSun8WPEoRYo9VpN9SOz74RgQFFhBXKRkGEK/lZbYEBRgJEDkKNgAZBQk5JQUFBWW2AFYACQVJBhAQAKkARg/xaBVluAYAFgADNz//////////////////////////8Wc///////////////////////////FoFSYCABkIFSYCABYAAgYACCglRhBeeRkGEMzFZbklBQgZBVUIBgAICCglRhBf+RkGEMzFZbklBQgZBVUGAAc///////////////////////////FjNz//////////////////////////8Wf93yUq0b4sibacKwaPw3jaqVK6fxY8ShFij1Wk31I7Pvg2BAUWEGZJGQYQr+VltgQFGAkQOQo1BWW2ABYCBSgGAAUmBAYAAgYACRUJBQVIFWW2AEgFRhBpSQYQxsVluAYB8BYCCAkQQCYCABYEBRkIEBYEBSgJKRkIGBUmAgAYKAVGEGwJBhDGxWW4AVYQcNV4BgHxBhBuJXYQEAgINUBAKDUpFgIAGRYQcNVluCAZGQYABSYCBgACCQW4FUgVKQYAEBkGAgAYCDEWEG8FeCkANgHxaCAZFbUFBQUFCBVluAYAFgADNz//////////////////////////8Wc///////////////////////////FoFSYCABkIFSYCABYAAgYACCglRhB2SRkGENAFZbklBQgZBVUIBgAICCglRhB3yRkGENAFZbklBQgZBVUDNz//////////////////////////8WYABz//////////////////////////8Wf93yUq0b4sibacKwaPw3jaqVK6fxY8ShFij1Wk31I7Pvg2BAUWEH4ZGQYQr+VltgQFGAkQOQo1BWW2AAgWABYAAzc///////////////////////////FnP//////////////////////////xaBUmAgAZCBUmAgAWAAIGAAgoJUYQg9kZBhDMxWW5JQUIGQVVCBYAFgAIVz//////////////////////////8Wc///////////////////////////FoFSYCABkIFSYCABYAAgYACCglRhCJORkGENAFZbklBQgZBVUIJz//////////////////////////8WM3P//////////////////////////xZ/3fJSrRviyJtpwrBo/DeNqpUrp/FjxKEWKPVaTfUjs++EYEBRYQj3kZBhCv5WW2BAUYCRA5CjYAGQUJKRUFBWW2ACYCBSgWAAUmBAYAAgYCBSgGAAUmBAYAAgYACRUJFQUFSBVltgAIFRkFCRkFBWW2AAgoJSYCCCAZBQkpFQUFZbYABbg4EQFWEJaFeAggFRgYQBUmAggQGQUGEJTVZbYACEhAFSUFBQUFZbYABgHxlgH4MBFpBQkZBQVltgAGEJkIJhCS5WW2EJmoGFYQk5VluTUGEJqoGFYCCGAWEJSlZbYQmzgWEJdFZbhAGRUFCSkVBQVltgAGAgggGQUIGBA2AAgwFSYQnYgYRhCYVWW5BQkpFQUFZbYACA/VtgAHP//////////////////////////4IWkFCRkFBWW2AAYQoQgmEJ5VZbkFCRkFBWW2EKIIFhCgVWW4EUYQorV2AAgP1bUFZbYACBNZBQYQo9gWEKF1ZbkpFQUFZbYACBkFCRkFBWW2EKVoFhCkNWW4EUYQphV2AAgP1bUFZbYACBNZBQYQpzgWEKTVZbkpFQUFZbYACAYECDhQMSFWEKkFdhCo9hCeBWW1tgAGEKnoWChgFhCi5WW5JQUGAgYQqvhYKGAWEKZFZbkVBQklCSkFBWW2AAgRUVkFCRkFBWW2EKzoFhCrlWW4JSUFBWW2AAYCCCAZBQYQrpYACDAYRhCsVWW5KRUFBWW2EK+IFhCkNWW4JSUFBWW2AAYCCCAZBQYQsTYACDAYRhCu9WW5KRUFBWW2AAgGAAYGCEhgMSFWELMldhCzFhCeBWW1tgAGELQIaChwFhCi5WW5NQUGAgYQtRhoKHAWEKLlZbklBQYEBhC2KGgocBYQpkVluRUFCSUJJQklZbYABg/4IWkFCRkFBWW2ELgoFhC2xWW4JSUFBWW2AAYCCCAZBQYQudYACDAYRhC3lWW5KRUFBWW2AAYCCChAMSFWELuVdhC7hhCeBWW1tgAGELx4SChQFhCmRWW5FQUJKRUFBWW2AAYCCChAMSFWEL5ldhC+VhCeBWW1tgAGEL9ISChQFhCi5WW5FQUJKRUFBWW2AAgGBAg4UDEhVhDBRXYQwTYQngVltbYABhDCKFgoYBYQouVluSUFBgIGEMM4WChgFhCi5WW5FQUJJQkpBQVlt/Tkh7cQAAAAAAAAAAAAAAAAAAAAAAAAAAAAAAAAAAAABgAFJgImAEUmAkYAD9W2AAYAKCBJBQYAGCFoBhDIRXYH+CFpFQW2AgghCBA2EMl1dhDJZhDD1WW1tQkZBQVlt/Tkh7cQAAAAAAAAAAAAAAAAAAAAAAAAAAAAAAAAAAAABgAFJgEWAEUmAkYAD9W2AAYQzXgmEKQ1ZbkVBhDOKDYQpDVluSUIKCA5BQgYERFWEM+ldhDPlhDJ1WW1uSkVBQVltgAGENC4JhCkNWW5FQYQ0Wg2EKQ1ZbklCCggGQUICCERVhDS5XYQ0tYQydVltbkpFQUFb+omRpcGZzWCISIA/fWAkpjA7S5zoT4zClZFc2IqonjcSpYAx0+MwNHTLnZHNvbGNDAAgRADM=",
          "touched": true,
          "read": true
        }
      }
    }
  ]
}
