{
  "accountTrie": {
    "0297d78b9dd14d187e5d2468922c29bef1d6c87c1c371f51b504a46d270c31ac": "f8749f3eec2b84f0ba344fd4b4d2f022469febe7a772c4789acfc119eb558ab1da3db852f850028c033b2e3c9f9a35f830940310a056e81f171bcc55a6ff8345e692c0f86e5b48e01b996cadc001622fb5e363b421a0c5d2460186f7233c927e7db2dcc703c0e500b653ca82273b7bfad8045d85a470",
    "3353c2c543387d6a0da08c8526f0a29da6b4931b802378bbc70191eb216b2fdb": "f869a0336d6fadc19b5ec9189ae65683241081f7c772ec596ea1facb9daef2a1396637b846f8440180a0f1a49a0142c4866abc6e92e0f96c8fd520b4ca440dffe622ed951fd4ae2e1a46a0d882a8252833e001173187080228d616c6cd5f15e7bf79a1698bfb386103567a",
    "3a95718eda9cdafa3660d1124be6f91c13646900b77e1cc4a86d1ab5a19912aa": "f901d1a03f84f317ceea01d67e9da286f143aea01d93cc275c3d9fad2722ce1aeb8a39bfa0bf3812800b8c9f1d3c31b99cedaed499d94007df3a613c1206818a08ec58732a80a0901545c5ab2336df5ee17e017dae950c1f82973bbd5298483be0c5cc86cadae0a058c2d22f47d8d3083dcd014ff3f0812cc5c30834c2b9dbc3e0d8badcb5fa3941a09b80353361015ac7fd4870a20521129bf520b57b4615697f4d7bde476aacf606a09908a050820dbe11cddcc7f205a03be0be1802097e457e00747b44be023ce9ada0b6b6db2707eefb2628c1a9bfee59bc8416d52e9fab31ca2dd246c2be7d223a33a0b251aa563eef7edc1acf532fc735a5bbc5904c39413def7d26900311a630039ca0e6e82a109ac4e5daed8f76043d8393d0298472e0518ff96a48b8492e479881fba076e6270086a90953cf7d35ee0b494a676e477a624ef81c76ebfb1507a0e81c2aa0726d471f9551f1065a538090942c40c92bf4d7e4873cade30a86d9ac42b32a76a0283a1743782e4fcc897a889dad50cf1aec59cd869077732eab214707a03bd64e80a08333762fcaf7193e048ab228010951a924224adf67ad901b5e98441becfcbbd7a03353c2c543387d6a0da08c8526f0a29da6b4931b802378bbc70191eb216b2fdb80",
    "64e737acfba690ec31d6465d6a999d075b27a8a20a46fced5484e315a6018d33": "f873a02080c7b7ae81a58eb98d9c78de4a1fd7fd9535fc953ed2be602daaa41767312ab850f84e808ad3c21bd1ffdb2742dde4a056e81f171bcc55a6ff8345e692c0f86e5b48e01b996cadc001622fb5e363b421a0c5d2460186f7233c927e7db2dcc703c0e500b653ca82273b7bfad8045d85a470",
    "76e6270086a90953cf7d35ee0b494a676e477a624ef81c76ebfb1507a0e81c2a": "f85180a031d1eb10fdf37ef90417d463e9e3d1dad5bab6a3e8b38ccc4eaa744250317457808080a0b3ddefbc673f40027fe578cd4d9d535963527aace934c2309e98dc31429b552e8080808080808080808080",
    "9b80353361015ac7fd4870a20521129bf520b57b4615697f4d7bde476aacf606": "f851808080a064e737acfba690ec31d6465d6a999d075b27a8a20a46fced5484e315a6018d3380a03d2c9faa594230d254816429f8dc379c30c8b3679ef67f44dd31f3e6822f9a498080808080808080808080",
    "b3ddefbc673f40027fe578cd4d9d535963527aace934c2309e98dc31429b552e": "f85180a00297d78b9dd14d187e5d2468922c29bef1d6c87c1c371f51b504a46d270c31ac80808080808080808080a0b352e4c72d853473be5eac69cf10adfdc61a3747ec26a4b424f0a29292fc1d3780808080",
    "bf3812800b8c9f1d3c31b99cedaed499d94007df3a613c1206818a08ec58732a": "f873a03c1e84137173633629f40faeb92a810dbcbf913533c7319539f3382ae8af9922b850f84e808ad3c21bff102d6310e800a056e81f171bcc55a6ff8345e692c0f86e5b48e01b996cadc001622fb5e363b421a0c5d2460186f7233c927e7db2dcc703c0e500b653ca82273b7bfad8045d85a470"
  },
  "storageTrie": {
    "abd3df17bce3167275a3fff2ecaf8fe0a23e77d94e477e3825cab7851a5fb091": "f7a032575a0e9e593c00f959f8c92f12db2869c3395a3b0502d05e2516446f71f85b959485da99c8a7c2c95964c8efd687e95e632fc533d6",
    "f1a49a0142c4866abc6e92e0f96c8fd520b4ca440dffe622ed951fd4ae2e1a46": "f89180808080808080a058a7573d0697cbd20967eaa387cbca09d745d66fb147a7c0022aa0a5195d701da00f946af282dbf0e95bd7dee7643b0ea5597c4ddd1daad06fd966a78db40cda3e808080a0abd3df17bce3167275a3fff2ecaf8fe0a23e77d94e477e3825cab7851a5fb09180a0c81dd0d88b7af7ac3e1bccf4b9d8c649c79b420b278172aa00bac16768db6d068080"
  },
  "parentStateRoot": "0x3a95718eda9cdafa3660d1124be6f91c13646900b77e1cc4a86d1ab5a19912aa",
  "transactionTraces": [
    {
      "txn": "0x02f8b18207d102849502f90084a07c1de882b3369458145f797db29e89b1f132f80c10f09ada7c374280b8448a7c195f00000000000000000000000000000000000000000000000000000000000000640000000000000000000000000000000000000000000000000000000000000001c080a096714f3fc47ccb8b5e503ff973debf0db14c5a88d843245fe1ae45546536d792a02b8717e953a1ff972e4984f7af490a888f0523537153310cbd2719bfdd5ab9d1",
      "delta": {
        "0x0000000000000000000000000000000000000000": {
          "address": "0x0000000000000000000000000000000000000000",
          "read": true
        },
        "0x58145F797Db29e89b1F132F80c10F09Ada7c3742": {
          "address": "0x58145F797Db29e89b1F132F80c10F09Ada7c3742",
          "storage": {
            "0x083fc81be30b6287dea23aa60f8ffaf268f507cdeac82ed9644e506b59c54ff0": "0x0000000000000000000000000000000000000000000000000000000000000001"
          },
          "storage_read": {
            "0x0000000000000000000000000000000000000000000000000000000000000003": {},
            "0x083fc81be30b6287dea23aa60f8ffaf268f507cdeac82ed9644e506b59c54ff0": {}
          },
          "code_read": "YIBgQFI0gBVhABBXYACA/VtQYAQ2EGEAfVdgADVg4ByAY4kDVzARYQBbV4BjiQNXMBRhATtXgGOKfBlfFGEBhVeAY42ly1sUYQGwV4BjoWcSlRRhAbhXYQB9VluAYxOvQDUUYQCCV4BjFpjughRhAKpXgGMir8zLFGEBAldbYACA/VthAKhgBIA2A2AggRAVYQCYV2AAgP1bUDVgAWABYKAbAxZhAfRWWwBbYQDmYASANgNgYIEQFWEAwFdgAID9W1CANWABYAFgoBsDkIEWkWAggQE1kJEWkGBAATVi////FmECZ1ZbYECAUWABYAFgoBsDkJIWglJRkIGQA2AgAZDzW2EBJGAEgDYDYCCBEBVhARhXYACA/VtQNWL///8WYQKTVltgQIBRYAKSkJILglJRkIGQA2AgAZDzW2EBQ2ECqFZbYECAUWABYAFgoBsDlocWgVKUhhZgIIYBUpKQlBaDgwFSYv///xZgYIMBUmACkpCSC2CAggFSkFGQgZADYKABkPNbYQCoYASANgNgQIEQFWEBm1dgAID9W1Bi////gTUWkGAgATVgAgthAt5WW2EA5mEDoVZbYQDmYASANgNgYIEQFWEBzldgAID9W1CANWABYAFgoBsDkIEWkWAggQE1kJEWkGBAATVi////FmEDsFZbYANUYAFgAWCgGwMWMxRhAgtXYACA/VtgA1RgQFFgAWABYKAbA4CEFpIWkH+1Mgc7OMgxRePlE1N3oIv5qrVbwP18EXnNT7mV0qUVnJBgAJCjYAOAVGABYAFgoBsDGRZgAWABYKAbA5KQkhaRkJEXkFVWW2AFYCCQgVJgAJOEUmBAgIUgglKShFKChCCQUoJSkCBUYAFgAWCgGwMWgVZbYARgIFJgAJCBUmBAkCBUYAILgVZbYABUYAFUYAKAVGABYAFgoBsDk4QWk5KDFpKBFpFi////YAFgoBuDBBaRYAFguBuQBJALhVZbYANUYAFgAWCgGwMWMxRhAvVXYACA/VtiD0JAgmL///8WEGEDCVdgAID9W2AAgWACCxOAFWEDIFdQYUAAgWACCxJbYQMpV2AAgP1bYv///4IWYACQgVJgBGAgUmBAkCBUYAKQgQuQCxVhA09XYACA/Vti////goEWYACBgVJgBGAgUmBAgIIggFRi////GRZgAoeQC5WGFheQVVF/xmo/3wcjLN0YX+vMZXnUCMJBtHri+ZB9hL5lUUHursyRkKNQUFZbYANUYAFgAWCgGwMWgVZbYABhA7phBUZWW4JgAWABYKAbAxaEYAFgAWCgGwMWFBVhA9lXYACA/VtgAICEYAFgAWCgGwMWhmABYAFgoBsDFhBhA/xXhIZhA/9WW4WFW5CSUJBQYAFgAWCgGwOCFmEEF1dgAID9W2L///+EFmAAkIFSYARgIFJgQJAgVGACkIELkIGQC2EEPldgAID9W2ABYAFgoBsDg4EWYACQgVJgBWAgkIFSYECAgyCGhRaEUoJSgIMgYv///4oWhFKQkVKQIFQWFWEEfVdgAID9W2EEijCEhIiFYQV9VltgAWABYKAbA4CFFmAAgYFSYAVgIIGBUmBAgIQgiYcWgIZSkINSgYUgYv///44WgIdSkIRSgoYggFSYihZgAWABYKAbAxmZihaBF5CRVYKHUpSEUoKGIIeHUoRSgoYggYdShFKUgpAggFSQlxaEF5CWVYBRYAKJkAuBUpGCAZKQklKBUZWZUJGUf3g8yhwEEt0NaV54RWjJbaLpwi/5iTV6LosdmytOa3EYkoGQA5CRAZCkUFBQk5JQUFBWWzBgAWABYKAbA38AAAAAAAAAAAAAAABYFF95fbKeibHxMvgMEPCa2nw3QhYUYQV7V2AAgP1bVltgQIBRYKCBAYJSYAFgAWCgGwOHgRaAg1KHghZgIICFAYKQUpKIFoSGAYGQUmL///+IgRZgYICIAYKQUmACioELYICZigGBkFJgAIBUYAFgAWCgGwMZkIEWkJkXgVVgAYBUihaJF5BVglSQmBaGF3////////////8AAAD//////////////////////////xZgAWCgG4UCF3////////8AAAD//////////////////////////////xZgAWC4G5GDC5CVFgKTkJMXkJJVh1GAhwGUkJRSg4gBkpCSUoKBAZGQkVKFUYCDA5CRAYFSkwGThJBSglGSkJEBkZCRIJCRYQaGkGEG9VZbgZBgQFGAkQOQYAD1kFCAFYAVYQamVz1gAIA+PWAA/VtQYACAVGABYAFgoBsDGZCBFpCRVWABgFSQkRaQVWACgFR/////////AAAAAAAAAAAAAAAAAAAAAAAAAAAAAAAAAAAWkFWWlVBQUFBQUFZbYVjIgGEHA4M5AZBW/mEBYGBAUjSAFWIAABJXYACA/VtQMGBgG2CAUmBAgFFjCJA1c2DkG4FSkFFgAJEzkWOJA1cwkWAEgIIBkmCgkpCRkIKQAwGBhoA7FYAVYgAAVldgAID9W1Ba+hWAFWIAAGtXPWAAgD49YAD9W1BQUFBgQFE9YKCBEBViAACCV2AAgP1bUIBRYCCAgwFRYECEAVFgYICGAVFggJCWAVFg6JaHG2ABYAFg6BsDGRZhAQBSkYEbYAFgAWBgGwMZkIEWYOBSkoEbgxZgwFKTkJMbFmCgUmACgoELkAuQkhthASBSkVBiAAD3kIKQYgABD4EbYgArhBeQHFZbYIAbYAFgAWCAGwMZFmEBQFJQYgABfVZbYACAgmACgZALYg2J5xmBYgABJVf+WwUCkFBgAINgAoGQC2INieiBYgABPVf+WwUCkFBgAIRgAguDgwNgAguBYgABVVf+WwVgAQGQUIBi////FmABYAFggBsDgBaBYgABc1f+WwSVlFBQUFBQVltggFFgYBxgoFFgYBxgwFFgYBxg4FFgYBxhAQBRYOgcYQEgUWDoHGEBQFFggBxhVn5iAAJKYAA5gGEf7lKAYUtfUoBhS5ZSUIBhDABSgGEo/VKAYUvKUoBhS/xSUIBhDO9SgGEZy1KAYRoCUoBhKUVSUIBhEcdSgGEahVKAYR70UoBhJERSgGEpIVKAYT5rUlCAYQjSUoBhEvVSgGEaVFKAYR6OUoBhI75SgGE9IlJQgGEge1KAYSJ9UoBhKNlSUIBhK/tSUGFWfmAA8/5ggGBAUjSAFWEAEFdgAID9W1BgBDYQYQGuV2AANWDgHIBjcM91ShFhAO5XgGPEWgFVEWEAl1eAY93KP0MRYQBxV4Bj3co/QxRhCABXgGPzBYOZFGEIIFeAY/MNupMUYQgoV4Bj9jdzHRRhCKpXYQGuVluAY8RaAVUUYQfRV4Bj0Mk6fBRhB9lXgGPSEiCnFGEH+FdhAa5WW4BjiDvb/RFhAMhXgGOIO9v9FGEGM1eAY6NBI6cUYQc8V4Bjo4gH8hRhB3ZXYQGuVluAY3DPdUoUYQXGV4Bjggak0RRhBc5XgGOFtmcpFGEF9ldhAa5WW4BjOFDHvRFhAVtXgGNJDmy8EWEBNVeAY0kObLwUYQRwV4BjTx6z2BRhBPxXgGNRTqS/FGEFTVeAY1M5wpYUYQWmV2EBrlZbgGM4UMe9FGEDW1eAYzyKfY0UYQO0V4BjRhQTGRRhBFZXYQGuVluAYxrYsDsRYQGMV4BjGtiwOxRhAqpXgGMlLAnXFGEC4VeAYzIUj2cUYQM4V2EBrlZbgGMN/haBFGEBs1eAYxKKywgUYQHXV4BjGmhlAhRhAoZXW2AAgP1bYQG7YQjQVltgQIBRYAFgAWCgGwOQkhaCUlGQgZADYCABkPNbYQJtYASANgNgoIEQFWEB7VdgAID9W2ABYAFgoBsDgjWBFpJgIIEBNRUVkmBAggE1kmBggwE1FpGQgQGQYKCBAWCAggE1ZAEAAAAAgREVYQIuV2AAgP1bggGDYCCCAREVYQJAV2AAgP1bgDWQYCABkYRgAYMChAERZAEAAAAAgxEXFWECYldgAID9W1CQklCQUGEI9FZbYECAUZKDUmAggwGRkJFSgFGRgpADAZDzW2ECjmEUrVZbYECAUWABYAFggBsDkJIWglJRkIGQA2AgAZDzW2ECsmEUvFZbYEBRgINgAWABYIAbAxaBUmAgAYJgAWABYIAbAxaBUmAgAZJQUFBgQFGAkQOQ81thAv5gBIA2A2AggRAVYQL3V2AAgP1bUDVhFNZWW2BAgFFj/////5CVFoVSYAaTkJMLYCCFAVJgAWABYKAbA5CRFoODAVIVFWBggwFSUZCBkANggAGQ81thA1lgBIA2A2AggRAVYQNOV2AAgP1bUDVh//8WYRUcVlsAW2EDY2EWFlZbYECAUWABYAFgoBsDkJgWiFJgApaQlgtgIIgBUmH//5SFFoeHAVKShBZgYIcBUpIWYICFAVJg/5CRFmCghAFSFRVgwIMBUlGQgZADYOABkPNbYQJtYASANgNgoIEQFWEDyldgAID9W2ABYAFgoBsDgjUWkWAggQE1YAKQgQuSYECDATWQkQuRYAFgAWCAGwNgYIIBNRaRgQGQYKCBAWCAggE1ZAEAAAAAgREVYQQXV2AAgP1bggGDYCCCAREVYQQpV2AAgP1bgDWQYCABkYRgAYMChAERZAEAAAAAgxEXFWEES1dgAID9W1CQklCQUGEWZlZbYQReYRkiVltgQIBRkYJSUZCBkANgIAGQ81thA1lgBIA2A2CAgRAVYQSGV2AAgP1bYAFgAWCgGwOCNRaRYCCBATWRYECCATWRkIEBkGCAgQFgYIIBNWQBAAAAAIERFWEEvVdgAID9W4IBg2AgggERFWEEz1dgAID9W4A1kGAgAZGEYAGDAoQBEWQBAAAAAIMRFxVhBPFXYACA/VtQkJJQkFBhGShWW2ECsmAEgDYDYKCBEBVhBRJXYACA/VtQYAFgAWCgGwOBNRaQYCCBATVgApCBC5FgQIEBNZCRC5BgAWABYIAbA2BgggE1gRaRYIABNRZhHYNWW2EFamAEgDYDYCCBEBVhBWNXYACA/VtQNWEfnVZbYECAUWABYAFggBsDlocWgVJgIIEBlZCVUoSBAZOQk1KQhBZgYIQBUpCSFmCAggFSkFGQgZADYKABkPNbYQReYASANgNgIIEQFWEFvFdgAID9W1A1YAELYR/aVlthAo5hH+xWW2EDWWAEgDYDYECBEBVhBeRXYACA/VtQYP+BNYEWkWAgATUWYSAQVlthArJgBIA2A2BggRAVYQYMV2AAgP1bUGABYAFgoBsDgTUWkGABYAFggBsDYCCCATWBFpFgQAE1FmEiD1ZbYQajYASANgNgIIEQFWEGSVdgAID9W4EBkGAggQGBNWQBAAAAAIERFWEGZFdgAID9W4IBg2AgggERFWEGdldgAID9W4A1kGAgAZGEYCCDAoQBEWQBAAAAAIMRFxVhBphXYACA/VtQkJJQkFBhJNxWW2BAUYCAYCABgGAgAYOBA4NShYGBUYFSYCABkVCAUZBgIAGQYCACgIODYABbg4EQFWEG51eBgQFRg4IBUmAgAWEGz1ZbUFBQUJBQAYOBA4JShIGBUYFSYCABkVCAUZBgIAGQYCACgIODYABbg4EQFWEHJleBgQFRg4IBUmAgAWEHDlZbUFBQUJBQAZRQUFBQUGBAUYCRA5DzW2ECbWAEgDYDYGCBEBVhB1JXYACA/VtQgDVgApCBC5FgIIEBNZCRC5BgQAE1YAFgAWCAGwMWYSVpVlthB6BgBIA2A2BAgRAVYQeMV2AAgP1bUIA1YAKQgQuRYCABNZALYSbgVltgQIBRYAaUkJQLhFJgAWABYKAbA5CSFmAghAFSY/////8WgoIBUlGQgZADYGABkPNbYQG7YSjXVlthB+FhKPtWW2BAgFFgApKQkguCUlGQgZADYCABkPNbYQG7YSkfVlthCAhhKUNWW2BAgFFi////kJIWglJRkIGQA2AgAZDzW2EEXmEpZ1ZbYQhIYASANgNgIIEQFWEIPldgAID9W1A1YAILYSltVltgQIBRYAFgAWCAGwOQmRaJUmAPl5CXC2AgiQFSh4cBlZCVUmBghwGTkJNSYAaRkJELYICGAVJgAWABYKAbAxZgoIUBUmP/////FmDAhAFSFRVg4IMBUlGQgZADYQEAAZDzW2EDWWAEgDYDYCCBEBVhCMBXYACA/VtQNWABYAFgoBsDFmEp21ZbfwAAAAAAAAAAAAAAAAAAAAAAAAAAAAAAAAAAAAAAAAAAgVZbYACAYQj/YSvwVluFYQk2V2BAgFFiRhvNYOUbgVJgIGAEggFSYAJgJIIBUmFBU2DwG2BEggFSkFGQgZADYGQBkP1bYECAUWDggQGCUmAAVGABYAFgoBsDgRaCUmABYKAbgQRgApCBC4ELkAtgIIMBUmH//2ABYLgbggSBFpODAZOQk1JgAWDIG4EEgxZgYIMBUmABYNgbgQSQkhZggIIBUmD/YAFg6BuDBIEWYKCDAVJgAWDwG5CSBJCRFhUVYMCCAYGQUmEJ71dgQIBRYkYbzWDlG4FSYCBgBIIBUmADYCSCAVJiTE9LYOgbYESCAVKQUZCBkANgZAGQ/VuHYQo6V4BgAAFRYAFgAWCgGwMWhmABYAFgoBsDFhGAFWEKNVdQc//9iWPv0fxqUGSISV2VHVJjmI0mYAFgAWCgGwOHFhBbYQpsVluAYAABUWABYAFgoBsDFoZgAWABYKAbAxYQgBVhCmxXUGQBAAJ2o2ABYAFgoBsDhxYRW2EKo1dgQIBRYkYbzWDlG4FSYCBgBIIBUmADYCSCAVJiFNQTYOobYESCAVKQUZCBkANgZAGQ/VtgAIBUYP9g8BsZFoFVYECAUWDAgQGQkVKAimEK0ldgBIRgoAFRYP8WkBxhCuVWW2AQhGCgAVFg/xaBYQrjV/5bBltg/xaBUmAEVGABYAFggBsDFmAgggFSYEABYQsGYSwnVltj/////xaBUmAgAWAAYAYLgVJgIAFgAGABYAFgoBsDFoFSYCABYAAVFYFSUJBQYACAiROQUGAAYEBRgGDgAWBAUoCLgVJgIAFgAIFSYCABhWAAAVFgAWABYKAbAxaBUmAgAYVgIAFRYAILgVJgIAGMYQuCV2ACVGELhlZbYAFUW4FSYCABYABgAWABYIAbAxaBUmAgAYRgIAFRYAFgAWCAGwMWgVJQkFBbgFEVgBWQYQvVV1CIYAFgAWCgGwMWgWBAAVFgAWABYKAbAxYUFVsVYQ+fV2EL4mFWDlZbYECCAVFgAWABYKAbAxaBUmBgggFRYQwlkGAGkH8AAAAAAAAAAAAAAAAAAAAAAAAAAAAAAAAAAAAAAAAAAI9hLCtWWxUVYECDAVJgApCBC4ELYCCDAYGQUmINiecZkQsSFWEMVldiDYnnGWAgggFSYQx1VltgIIEBUWINiehgApGQkQsTFWEMdVdiDYnoYCCCAVJbYQyCgWAgAVFhLW1WW2ABYAFgoBsDFmBgggFSYECCAVFhDROQjWEMvFeLYAFgAWCgGwMWg2BgAVFgAWABYKAbAxYRYQzWVluLYAFgAWCgGwMWg2BgAVFgAWABYKAbAxYQW2EM5FeCYGABUWEM5lZbi1tgwIUBUYVRfwAAAAAAAAAAAAAAAAAAAAAAAAAAAAAAAAAAAAAAAAAAYTCfVltgwIUBUmCghAFSYICDAVJgAWABYKAbAxZgQIMBUoIVYQ11V2ENSYFgwAFRgmCAAVEBYTKRVluCUQOCUmCggQFRYQ1rkGENYJBhMpFWW2AghAFRkGEyp1ZbYCCDAVJhDbBWW2ENgoFgoAFRYTKRVluCUQGCUmDAgQFRYICCAVFhDaqRYQ2fkQFhMpFWW2AghAFRkGEyw1ZbYCCDAVJbg1Fg/xYVYQ32V2AAhGAAAVFg/xaCYMABUYFhDdBX/ltgwIQBgFGSkJEEkYKQA5BSYKCEAYBRkJEBYAFgAWCAGwMWkFJQW2DAggFRYAFgAWCAGwMWFWEONVdhDimBYMABUWABYIAbhGDAAVFgAWABYIAbAxZhMtlWW2CAgwGAUZCRAZBSW4BgYAFRYAFgAWCgGwMWgmBAAVFgAWABYKAbAxYUFWEPXleAYEABURVhDzVXg2CgAVFhDr9XYQ6dhGBAAVFgAIdgIAFRiGBAAVGIYCABUYpgYAFRYAhhM4mQlpWUk5KRkGP/////FlZbYAFgAWCgGwMWYICGAVJgBpCBC5ALYGCFAVJgAWCghQFSW2AAYQ8LgmAgAVGOYQ7WV2ABVGEO3FZbhGCAAVFbj2EO61eFYIABUWEO71ZbYAJUW2CAiQFRYGCKAVFgQIsBUWAFlZSTkpGQYTUcVluQUIwVYQ8XV2AAA1thDyWDYMABUYJhNe9WW2ABYAFggBsDFmDAhAFSUFuLYQ9EV4BgIAFRYQ9NVltgAYFgIAFRA1tgApCBC5ALYGCDAVJhD5lWW4BgAAFRYAFgAWCgGwMWgmBAAVFgAWABYKAbAxYUYQ+ZV2EPjIJgQAFRYTalVltgApCBC5ALYGCDAVJbUGELr1Zbg2AgAVFgAguBYGABUWACCxRhEHpXYACAYQ/thmBAAVGGYEABUYhgIAFRiGAgAVGKYGABUYtggAFRYAhhOdGQlpWUk5KRkGP/////FlZbYECFAVFgYIYBUWAAgFRh//9gyBsZFmABYMgbYf//lYYWAhdh//9guBsZFmABYLgblZCUFpSQlAKSkJIXYv///2CgGxkWYAFgoBti////YAKUkJQLk5CTFpKQkgKRkJEXc///////////////////////////GRZgAWABYKAbA5CRFheQVVBhEKyQUFZbYECBAVFgAIBUc///////////////////////////GRZgAWABYKAbA5CSFpGQkReQVVuAYMABUWABYAFggBsDFoNgIAFRYAFgAWCAGwMWFGEQ8ldgwIEBUWAEgFRgAWABYIAbAxkWYAFgAWCAGwOQkhaRkJEXkFVbihVhEUJXYICBAVFgAVVgoIEBUWABYAFggBsDFhVhET1XYKCBAVFgA4BUYAFgAWCAGwMZgRZgAWABYIAbA5GCFpCTARaRkJEXkFVbYRGIVltggIEBUWACVWCggQFRYAFgAWCAGwMWFWERiFdgoIEBUWADgFRgAWABYIAbA4CCFmABYIAbkoOQBIIWkJQBFgKRkJEXkFVbgRUVixUVFGERoVdgIIEBUYFRiwNhEa5WW4BgAAFRigOBYCABUVuQllCUUIoVYRLnV2AAhRIVYRHwV2ER8H8AAAAAAAAAAAAAAAAAAAAAAAAAAAAAAAAAAAAAAAAAAI2HYAADYTuGVltgAGER+mE81FZbkFAzYAFgAWCgGwMWY/pGHjOIiIyMYEBRhWP/////FmDgG4FSYAQBgIWBUmAgAYSBUmAgAYBgIAGCgQOCUoSEgoGBUmAgAZJQgIKEN2AAgYQBUmAfGWAfggEWkFCAgwGSUFBQlVBQUFBQUGAAYEBRgIMDgWAAh4A7FYAVYRJ+V2AAgP1bUFrxFYAVYRKSVz1gAIA+PWAA/VtQUFBQYRKeYTzUVlthEqiCiWE+DVZbERVhEuFXYECAUWJGG81g5RuBUmAgYASCAVJgA2AkggFSYklJQWDoG2BEggFSkFGQgZADYGQBkP1bUGEUEVZbYACGEhVhEx5XYRMefwAAAAAAAAAAAAAAAAAAAAAAAAAAAAAAAAAAAAAAAAAAjYhgAANhO4ZWW2AAYRMoYT4dVluQUDNgAWABYKAbAxZj+kYeM4iIjIxgQFGFY/////8WYOAbgVJgBAGAhYFSYCABhIFSYCABgGAgAYKBA4JShISCgYFSYCABklCAgoQ3YACBhAFSYB8ZYB+CARaQUICDAZJQUFCVUFBQUFBQYABgQFGAgwOBYACHgDsVgBVhE6xXYACA/VtQWvEVgBVhE8BXPWAAgD49YAD9W1BQUFBhE8xhPh1WW2ET1oKIYT4NVlsRFWEUD1dgQIBRYkYbzWDlG4FSYCBgBIIBUmADYCSCAVJiSUlBYOgbYESCAVKQUZCBkANgZAGQ/VtQW2BAgIIBUWDAgwFRYGCAhQFRhFGLgVJgIIEBi5BSYAFgAWCgGwOUhRaBhwFSYAFgAWCAGwOQkxaRgwGRkJFSYAILYICCAVKRUZCOFpEzkX/EIHn5SmNQ1+YjXykXSST5KMwqyBjrZP7YAE4RX7zKZ5GBkANgoAGQo1BQYACAVGD/YPAbGRZgAWDwGxeQVVCRmJCXUJVQUFBQUFBWW2AEVGABYAFggBsDFoFWW2ADVGABYAFggBsDgIIWkWABYIAbkAQWglZbYAiBYf//gRBhFOdXYACA/VsBVGP/////gRaRUGQBAAAAAIEEYAYLkGABYFgbgQRgAWABYKAbAxaQYAFg+BuQBGD/FoRWW2AAVGABYPAbkARg/xZhFWBXYECAUWJGG81g5RuBUmAgYASCAVJgA2AkggFSYkxPS2DoG2BEggFSkFGQgZADYGQBkP1bYACAVGD/YPAbGRaQVWEVdWEr8FZbYACAVGABYNgbkARh//8WkGEVkWAIg4VhPrVWW2AAgFRh//+AhBZgAWDYG4ECYf//YNgbGZCTFpKQkheQklWRklCDFhRhFf5XYECAUWH//4CFFoJSgxZgIIIBUoFRf6xJ5Rj5CjWPZS5EABZPBaXY9+Ned0cnm8OpPb9YThJakpGBkAOQkQGQoVtQUGAAgFRg/2DwGxkWYAFg8BsXkFVQVltgAFRgAWABYKAbA4EWkGABYKAbgQRgAguQYf//YAFguBuCBIEWkWABYMgbgQSCFpFgAWDYG4IEFpBg/2ABYOgbggSBFpFgAWDwG5AEFodWW2AAgFSBkGABYPAbkARg/xZhFq1XYECAUWJGG81g5RuBUmAgYASCAVJgA2AkggFSYkxPS2DoG2BEggFSkFGQgZADYGQBkP1bYACAVGD/YPAbGRaQVWABYAFggBsDhRZhFs1XYACA/VtgAIBhFxtgQFGAYIABYEBSgIxgAWABYKAbAxaBUmAgAYtgAguBUmAgAYpgAguBUmAgAWEXEYpgAWABYIAbAxZhP1hWW2APC5BSYT9pVluSUJJQUIGTUICSUGAAgGAAhhEVYRc9V2EXOmE81FZbkVBbhBVhF05XYRdLYT4dVluQUFszYAFgAWCgGwMWY9NIeZeHh4uLYEBRhWP/////FmDgG4FSYAQBgIWBUmAgAYSBUmAgAYBgIAGCgQOCUoSEgoGBUmAgAZJQgIKEN2AAgYQBUmAfGWAfggEWkFCAgwGSUFBQlVBQUFBQUGAAYEBRgIMDgWAAh4A7FYAVYRfQV2AAgP1bUFrxFYAVYRfkVz1gAIA+PWAA/VtQUFBQYACGERVhGDtXYRf5YTzUVlthGAODiGE+DVZbERVhGDtXYECAUWJGG81g5RuBUmAgYASCAVJgAmAkggFSYQTTYPQbYESCAVKQUZCBkANgZAGQ/VuEFWEYi1dhGElhPh1WW2EYU4KHYT4NVlsRFWEYi1dgQIBRYkYbzWDlG4FSYCBgBIIBUmACYCSCAVJhTTFg8BtgRIIBUpBRkIGQA2BkAZD9W4lgAguLYAILjWABYAFgoBsDFn96UwgLpBQVi+fsabmHtft9B97hAf6FSI8IU64WI50L3jONi4tgQFGAhWABYAFgoBsDFoFSYCABhGABYAFggBsDFoFSYCABg4FSYCABgoFSYCABlFBQUFBQYEBRgJEDkKRQUGAAgFRg/2DwGxkWYAFg8BsXkFVQkZiQl1CVUFBQUFBQVltgAlSBVltgAFRgAWDwG5AEYP8WYRlsV2BAgFFiRhvNYOUbgVJgIGAEggFSYANgJIIBUmJMT0tg6BtgRIIBUpBRkIGQA2BkAZD9W2AAgFRg/2DwGxkWkFVhGYFhK/BWW2AEVGABYAFggBsDFoBhGcNXYECAUWJGG81g5RuBUmAgYASCAVJgAWAkggFSYBNg+htgRIIBUpBRkIGQA2BkAZD9W2AAYRn4hn8AAAAAAAAAAAAAAAAAAAAAAAAAAAAAAAAAAAAAAAAAAGL///8WYg9CQGFBqVZbkFBgAGEaL4Z/AAAAAAAAAAAAAAAAAAAAAAAAAAAAAAAAAAAAAAAAAABi////FmIPQkBhQalWW5BQYABhGjthPNRWW5BQYABhGkdhPh1WW5BQiBVhGnpXYRp6fwAAAAAAAAAAAAAAAAAAAAAAAAAAAAAAAAAAAAAAAAAAi4thO4ZWW4cVYRqrV2Eaq38AAAAAAAAAAAAAAAAAAAAAAAAAAAAAAAAAAAAAAAAAAIuKYTuGVlszYAFgAWCgGwMWY+nLr7CFhYqKYEBRhWP/////FmDgG4FSYAQBgIWBUmAgAYSBUmAgAYBgIAGCgQOCUoSEgoGBUmAgAZJQgIKEN2AAgYQBUmAfGWAfggEWkFCAgwGSUFBQlVBQUFBQUGAAYEBRgIMDgWAAh4A7FYAVYRstV2AAgP1bUFrxFYAVYRtBVz1gAIA+PWAA/VtQUFBQYABhG09hPNRWW5BQYABhG1thPh1WW5BQgWEbaIWIYT4NVlsRFWEboFdgQIBRYkYbzWDlG4FSYCBgBIIBUmACYCSCAVJhBGNg9BtgRIIBUpBRkIGQA2BkAZD9W4BhG6uEh2E+DVZbERVhG+NXYECAUWJGG81g5RuBUmAgYASCAVJgAmAkggFSYUYxYPAbYESCAVKQUZCBkANgZAGQ/VuDggODggOBFWEccldgAIBUYAFg6BuQBGAPFpCBFWEcFleBYP8WhIFhHBBX/lsEYRwZVltgAFuQUGABYAFggBsDgRYVYRxMV2ADgFRgAWABYIAbA4CCFoQBFmABYAFggBsDGZCRFheQVVthHGaBhQNgAWCAG41gAWABYIAbAxZhMtlWW2ABgFSQkQGQVVBQW4AVYRz9V2AAgFRgAWDoG5AEYAQcYA8WkIEVYRyiV4Fg/xaDgWEcnFf+WwRhHKVWW2AAW5BQYAFgAWCAGwOBFhVhHNdXYAOAVGABYAFggBsDYAFggBuAgwSCFoUBghYCkRYXkFVbYRzxgYQDYAFggBuNYAFgAWCAGwMWYTLZVltgAoBUkJEBkFVQUFuNYAFgAWCgGwMWM2ABYAFgoBsDFn+9vbcdeGA3a6UrJaUCi+6iNYE2SkBSL2vPuGux8tymM4+PhoZgQFGAhYFSYCABhIFSYCABg4FSYCABgoFSYCABlFBQUFBQYEBRgJEDkKNQUGAAgFRg/2DwGxkWYAFg8BsXkFVQUFBQUFBQUFBQUFBWW2AAgFSBkGABYPAbkARg/xZhHcpXYECAUWJGG81g5RuBUmAgYASCAVJgA2AkggFSYkxPS2DoG2BEggFSkFGQgZADYGQBkP1bYACAVGD/YPAbGRaBVWEd5GAHM4mJYUHjVltgA4EBVJCRUGABYAFggBsDkIEWkIYWEWEeBVeEYR4UVltgA4EBVGABYAFggBsDFltgA4IBVJCTUGABYAFggBsDYAFggBuQkQSBFpCFFhFhHjxXg2EeUlZbYAOBAVRgAWCAG5AEYAFgAWCAGwMWW5FQYAFgAWCAGwODFhVhHrdXYAOBAYBUYAFgAWCAGwMZgRZgAWABYIAbA5GCFoaQA4IWF5CRVWEet5B/AAAAAAAAAAAAAAAAAAAAAAAAAAAAAAAAAAAAAAAAAACQipCGFmE7hlZbYAFgAWCAGwOCFhVhHx1XYAOBAYBUYAFgAWCAGwNgAWCAG4CDBIIWhpADghYCkYEWkZCRF5CRVWEfHZB/AAAAAAAAAAAAAAAAAAAAAAAAAAAAAAAAAAAAAAAAAACQipCFFmE7hlZbYECAUWABYAFgoBsDihaBUmABYAFggBsDgIYWYCCDAVKEFoGDAVKQUWACiIELkpCKkAuRM5F/cJNTOOaXdUVqhd3vImw5X7Zotj+gEV9fIGELOI5sqcCRkIGQA2BgAZCkUGAAgFRg/2DwGxkWYAFg8BsXkFWQlpCVUJNQUFBQVltgB2AgUmAAkIFSYECQIIBUYAGCAVRgAoMBVGADkJMBVGABYAFggBsDkoMWk5GSgYEWkWABYIAbkAQWhVZbYAZgIFJgAJCBUmBAkCBUgVZbfwAAAAAAAAAAAAAAAAAAAAAAAAAAAAAAAAAAAAAAAAAAgVZbYABUYAFg8BuQBGD/FmEgVFdgQIBRYkYbzWDlG4FSYCBgBIIBUmADYCSCAVJiTE9LYOgbYESCAVKQUZCBkANgZAGQ/VtgAIBUYP9g8BsZFpBVYECAUWONpctbYOAbgVKQUWABYAFgoBsDfwAAAAAAAAAAAAAAAAAAAAAAAAAAAAAAAAAAAAAAAAAAFpFjjaXLW5FgBICDAZJgIJKRkIKQAwGBhoA7FYAVYSDBV2AAgP1bUFr6FYAVYSDVVz1gAIA+PWAA/VtQUFBQYEBRPWAggRAVYSDrV2AAgP1bUFFgAWABYKAbAxYzFGEhAVdgAID9W2D/ghYVgGEhJFdQYASCYP8WEBWAFWEhJFdQYAqCYP8WERVbgBVhIU5XUGD/gRYVgGEhTldQYASBYP8WEBWAFWEhTldQYAqBYP8WERVbYSFXV2AAgP1bYACAVGEP8GAEhJAbFoQBYP+QgRZgAWDoG5CBAn///wD//////////////////////////////////////4QWF5CTVZGQBBZ/lz2Nkrspn0r2zkm1Korbha5GufIUxMT8Bqx3QBI3sTNgEIJgQIBRYP+TkJIGgxaCUmAPYASGkBwWYCCDAVKGgxaCggFSkYUWYGCCAVKQUZCBkANggAGQoVBQYACAVGD/YPAbGRZgAWDwGxeQVVBWW2AAgFSBkGABYPAbkARg/xZhIlZXYECAUWJGG81g5RuBUmAgYASCAVJgA2AkggFSYkxPS2DoG2BEggFSkFGQgZADYGQBkP1bYACAVGD/YPAbGRaQVWBAgFFjjaXLW2DgG4FSkFFgAWABYKAbA38AAAAAAAAAAAAAAAAAAAAAAAAAAAAAAAAAAAAAAAAAABaRY42ly1uRYASAgwGSYCCSkZCCkAMBgYaAOxWAFWEiw1dgAID9W1Ba+hWAFWEi11c9YACAPj1gAP1bUFBQUGBAUT1gIIEQFWEi7VdgAID9W1BRYAFgAWCgGwMWMxRhIwNXYACA/VtgA1RgAWABYIAbA5CBFpCFFhFhIx9Xg2EjLFZbYANUYAFgAWCAGwMWW2ADVJCSUGABYAFggBsDYAFggBuQkQSBFpCEFhFhI1JXgmEjZlZbYANUYAFggBuQBGABYAFggBsDFluQUGABYAFggBsDghYVYSPnV2ADVGABYAFggBsDg4EWkRYUFWEjlVdgABmQkQGQW2ADgFRgAWABYIAbAxmBFmABYAFggBsDkYIWhZADghYXkJFVYSPnkH8AAAAAAAAAAAAAAAAAAAAAAAAAAAAAAAAAAAAAAAAAAJCHkIUWYTuGVltgAWABYIAbA4EWFWEkbVdgA1RgAWABYIAbA4KBFmABYIAbkJIEFhQVYSQYV2AAGQFbYAOAVGABYAFggBsDYAFggBuAgwSCFoWQA4IWApGBFpGQkReQkVVhJG2QfwAAAAAAAAAAAAAAAAAAAAAAAAAAAAAAAAAAAAAAAAAAkIeQhBZhO4ZWW2BAgFFgAWABYIAbA4CFFoJSgxZgIIIBUoFRYAFgAWCgGwOIFpIzkn9Za1c5BiGNNBGFCyamtDfWxFIv20PS0jhiY/htULixUZKQgZADkJEBkKNgAIBUYP9g8BsZFmABYPAbF5BVkJSQk1CRUFBWW2BggGEk52Er8FZbYSVeYSTyYSwnVluFhYCAYCACYCABYEBRkIEBYEBSgJOSkZCBgVJgIAGDg2AgAoCChDdgAJIBgpBSUFRgBFRgCJaVlFBgAWCgG4IEYAILk1Bh//9gAWC4G4MEgRaTUGABYAFggBsDkJEWkWABYMgbkAQWYUJHVluRUJFQklCSkFBWW2AAgFSBkGABYPAbkARg/xZhJbBXYECAUWJGG81g5RuBUmAgYASCAVJgA2AkggFSYkxPS2DoG2BEggFSkFGQgZADYGQBkP1bYACAVGD/YPAbGRaBVWBAgFFggIEBglIzgVJgAoiBC2AggwFSh5ALkYEBkZCRUoGQgZBhJgmQYGCBAWEl/GABYAFggBsDihZhP1hWW2AAA2APC5BSYT9pVluSUJJQklCBYAADlFCAYAADk1BgAIURgGEmKldQYACEEVsVYSZpV2ADgwGAVGABYAFggBsDgIIWgIkBghZgAWCAG5OEkASDFokBkJIWkJICkJEXYAFgAWCAGwMZFheQVVtgQIBRYAFgAWCAGwOIFoFSYCCBAYeQUoCCAYaQUpBRYAKJgQuSkIuQC5EzkX8MOWzZiaOfRFm1+hrtapqNzbxFkIrP1n4CjNVo2piYLJGQgZADYGABkKRQUGAAgFRg/2DwGxkWYAFg8BsXkFVQkJSQk1CRUFBWW2AAgGAAYSbtYSvwVlthJveFhWFDoVZbYAKFgQuBC2AAkIFSYAVgIFJgQICCIIeEC5CTC4JSgSBgA4MBVGAGgZALk2cBAAAAAAAAAIIEYAFgAWCgGwMWkoSSYAFg2BuBBGP/////FpKEkpCRYAFg+BuQBGD/FoBhJ19XYACA/VtgA4IBVGAGgZALmFBnAQAAAAAAAACBBGABYAFgoBsDFpZQYAFg2BuBBGP/////FpRQYAFg+BuQBGD/FoBhJ6RXYACA/VtQUGBAgFFg4IEBglJgAFRgAWABYKAbA4EWglJgAWCgG4EEYAKQgQuBC4ELYCCEAYGQUmH//2ABYLgbhASBFpWFAZWQlVJgAWDIG4MEhRZgYIUBUmABYNgbgwSQlBZggIQBUmD/YAFg6BuDBIEWYKCFAVJgAWDwG5CSBJCRFhUVYMCDAVKQk1COgQuRkAsSFZBQYShNV1CTkJQDllCQA5NQkAOQUGEo0FZbimACC4FgIAFRYAILEhVhKMFXYABhKGlhLCdWW2AggwFRYECEAVFgBFRgYIYBUZOUUGAAk4STYSifk2AIk4iTh5OSkWABYAFggBsDFpBhM4lWW5qQA5iQmAObUFCUkJYDkpCSA5ZQkJEDA5JQYSjQkVBQVltQlJCTA5ZQA5NQkAOQUFuSUJJQklZbfwAAAAAAAAAAAAAAAAAAAAAAAAAAAAAAAAAAAAAAAAAAgVZbfwAAAAAAAAAAAAAAAAAAAAAAAAAAAAAAAAAAAAAAAAAAgVZbfwAAAAAAAAAAAAAAAAAAAAAAAAAAAAAAAAAAAAAAAAAAgVZbfwAAAAAAAAAAAAAAAAAAAAAAAAAAAAAAAAAAAAAAAAAAgVZbYAFUgVZbYAVgIFJgAJCBUmBAkCCAVGABggFUYAKDAVRgA5CTAVRgAWABYIAbA4MWk2ABYIAbkJMEYA8LkpBgBoGQC5BnAQAAAAAAAACBBGABYAFgoBsDFpBgAWDYG4EEY/////8WkGABYPgbkARg/xaIVltgAFRgAWABYKAbAxYVYSoeV2BAgFFiRhvNYOUbgVJgIGAEggFSYAJgJIIBUmFBSWDwG2BEggFSkFGQgZADYGQBkP1bYABhKimCYTalVluQUGAAgGEqQWEqOWEsJ1ZbYAiQYURqVltgQIBRYOCBAYJSYAFgAWCgGwOIFoCCUmACiIELYCCAhQGCkFJgAIWHAYGQUmH//4mBFmBgiAGBkFKQiRZggIgBgZBSYKCIAYOQUmABYMCQmAGXkJdSgVRgAWDwG3P//////////////////////////xmQkRaHF2L///9goBsZFmABYKAbYv///5eHkAuXkJcWlpCWApWQlRd///////8AAAAA//////////////////////////////8WYAFgyBuQkQIXYf//YNgbGRZgAWDYG5CWApWQlRd//wAA//////////////////////////////////////8WkpCSF5CTVYNRkYJSgQGRkJFSgVGTlVCRk1B/mGNgNstmqcGaN0Ne/B6QFCGQIU6Kvrghvbo/KZDdTJWSkYKQAwGQoVBQUFBWW2AAgIJgAoGQC2INiecZgWErmVf+WwUCkFBgAINgAoGQC2INieiBYSuwV/5bBQKQUGAAhGACC4ODA2ACC4FhK8dX/lsFYAEBkFCAYv///xZgAWABYIAbA4AWgWEr5Ff+WwSTUFBQUFuRkFBWWzBgAWABYKAbA38AAAAAAAAAAAAAAAAAAAAAAAAAAAAAAAAAAAAAAAAAABYUYSwlV2AAgP1bVltCkFZbYACAYACEYAILhmACC4FhLD9X/lsFkFBgAIZgAgsSgBVhLGZXUIRgAguGYAILgWEsX1f+WwdgAgsVFVsVYSxwV2AAGQFbgxVhLOVXYACAYSyCg2FEtlZbYAGCgQuBC2AAkIFSYCCNkFJgQJAgVGD/gxaRkJEbgAFgABkBkIEWgBUVl1CSlFCQklCQhWEsx1eIg2D/FoYDAmEs2lZbiGEs0YJhRMhWW4QDYP8WhgMCW5ZQUFBQUGEtY1ZbYACAYSz0g2ABAWFEtlZbkVCRUGAAYAGCYP8WYAGQGwMZkFBgAIGLYACGYAELYAELgVJgIAGQgVJgIAFgACBUFpBQgGAAFBWVUIVhLUZXiINg/wNg/xaGYAEBAQJhLVxWW4iDYS1Rg2FFaFZbA2D/FoZgAQEBAluWUFBQUFBbUJRQlJJQUFBWW2AAgGAAg2ACCxJhLYRXgmACC2EtjFZbgmACC2AAA1uQUGINieiBERVhLcpXYECAUWJGG81g5RuBUmAgYASCAVJgAWAkggFSYBVg+htgRIIBUpBRkIGQA2BkAZD9W2AAYAGCFmEt3ldgAWCAG2Et8FZbb//8uTO9b603qi0WLRpZQAFbcP//////////////////////FpBQYAKCFhVhLiRXb//5cnI3PUEyWaRpkFgOIToCYIAcW2AEghYVYS5DV2//8uUPX2VpMu8SNXzzx/3MAmCAHFtgCIIWFWEuYldv/+XKyn4Q5OYcNiTqoJQc0AJggBxbYBCCFhVhLoFXb//LmEPWD2FZydtYg1ySZkQCYIAcW2AgghYVYS6gV2//lztB+pjAgUcuaJbfslTAAmCAHFtgQIIWFWEuv1dv/y6hZGbJajhD7HizJrUoYQJggBxbYICCFhVhLt5Xb/5d7gRqmaKoEcRh8ZacMFMCYIAcW2EBAIIWFWEu/ldv/L6Gx5AKiK7c/8g7R5qjpAJggBxbYQIAghYVYS8eV2/5h6clOsQTF28rB0z3gV5UAmCAHFthBACCFhVhLz5Xb/M5KwgitwAFlAx6OY5LcPMCYIAcW2EIAIIWFWEvXldv5xWUdaLCm3RDspx/puiJ2QJggBxbYRAAghYVYS9+V2/Ql/O9/SAiuIRa2PeSqlglAmCAHFthIACCFhVhL55Xb6n3RkYthw/fimXcH5DgYeUCYIAcW2FAAIIWFWEvvldvcNhpoVbSobiQuz32K68y9wJggBxbYYAAghYVYS/eV28xvhNfl9CP2YEjFQVUL8+mAmCAHFtiAQAAghYVYS//V28JqlCLW3qE4cZ33lTz6ZvJAmCAHFtiAgAAghYVYTAfV25davje24EZZpnDKSJe5gQCYIAcW2IEAACCFhVhMD5XbSIW5YT1+h6pJgQb7f6YAmCAHFtiCAAAghYVYTBbV2sEihcDkffcQkROj6ICYIAcW2AAhGACCxMVYTB2V4BgABmBYTByV/5bBJBQW2QBAAAAAIEGFWEwildgAWEwjVZbYABbYP8WYCCCkBwBklBQUJGQUFZbYACAgIBgAWABYKAbA4CJFpCKFhAVgYcSgBWQYTEkV2AAYTDYiYliD0JAA2L///8WYg9CQGEy2VZbkFCCYTDxV2Ew7IyMjGABYUZSVlthMP5WW2Ew/ouNjGABYUbNVluVUIWBEGExD1eKllBhMR5WW2ExG4yLg4ZhR4pWW5ZQW1BhMW5WW4FhMTtXYTE2i4uLYABhRs1WW2ExSFZbYTFIioyLYABhRlJWW5NQg4hgAAMQYTFcV4mVUGExblZbYTFri4qKYAADhWFH1lZblVBbYAFgAWCgGwOKgRaQhxYUghVhMdFXgIAVYTGNV1CBW2Exo1dhMZ6HjYxgAWFGzVZbYTGlVluFW5VQgIAVYTGyV1CBFVthMchXYTHDh42MYABhRlJWW2ExylZbhFuUUGEyG1ZbgIAVYTHbV1CBW2Ex8VdhMeyMiIxgAWFGUlZbYTHzVluFW5VQgIAVYTIAV1CBFVthMhZXYTIRjIiMYABhRs1WW2EyGFZbhFuUUFuBFYAVYTIrV1CIYAADhRFbFWEyN1eIYAADlFBbgYAVYTJWV1CKYAFgAWCgGwMWh2ABYAFgoBsDFhQVWxVhMmVXhYkDk1BhMoJWW2Eyf4aJYv///xaKYg9CQANi////FmFBqVZbk1BbUFBQlVCVUJVQlZFQUFZbYABgAWD/G4IQYTKjV2AAgP1bUJBWW4CCA4KBExVgAIMSFRRhMr1XYACA/VuSkVBQVluBgQGCgRIVYACDEhUUYTK9V2AAgP1bYACAgGAAGYWHCYaGApJQgoEQkIOQAwOQUIBhMw9XYACEEWEzBFdgAID9W1CCkASQUGEzglZbgIQRYTMbV2AAgP1bYACEhogJYACGgQOHFpaHkASWYAJgA4kCgRiAigKCAwKAigKCAwKAigKCAwKAigKCAwKAigKCAwKAigKQkQMCkYGQA4GQBGABAYaEEZCVA5SQlAKRkJQDkpCSBJGQkReRkJECkVBQW5OSUFBQVltgAIBj/////4cWYTQwV2AAiYZh//8WYf//gRBhM6pX/ltgQIBRYICBAYJSkZCSAVRj/////4CCFoCEUmQBAAAAAIMEYAaQgQuBC5ALYCCFAVJgAWBYG4MEYAFgAWCgGwMWlIQBlJCUUmABYPgbkJEEYP8WFRVgYIMBUpCSUIoWFGE0HFdhNBmBiomIYUgiVluQUFuAYCABUYFgQAFRklCSUFBhNRBWW4aIA2AAgGE0RYyMhYyMjIxhSNJWW5FQkVCBYAABUWP/////FoNj/////xYUFWE0d1eBYCABUYJgQAFRlFCUUFBQUGE1EFZbgFFj/////4SBFpEWFBVhNJ9XgGAgAVGBYEABUZRQlFBQUFBhNRBWW4FRgVFgIICFAVGQhAFRkYOQA5KGA5Fj/////4CEFpKQhRaRA2AGC4FhNM1X/lsFAoRgIAFRAYJj/////xaCY/////8WhmBAAVGGYEABUQNgAWABYKAbAxYCgWE0/1f+WwSFYEABUQGWUJZQUFBQUFBbl1CXlVBQUFBQUFZbYAKVhguGC2AAkIFSYCCXkJdSYECQliBgAYEBgFSQlQOQlFWTgwGAVJCSA5CRVWADggGAVGP/////YAFg2BtgAWABYKAbA2cBAAAAAAAAAICFBIIWkJYDFpCUAn///////wAAAAAAAAAAAAAAAAAAAAAAAAAA/////////5CSFpGQkRdgBoGBC5CWA5CVC2b/////////Fmb/////////GZCVFpSQlBeCgQSFFpCVA5CTFgJj/////2DYGxmQkxaSkJIXkFVUYAFggBuQBGAPC5BWW2AAgIJgDwsSFWE2VFeCYAFgAWCAGwMWgmAAA4QDkVCBYAFgAWCAGwMWEGE2T1dgQIBRYkYbzWDlG4FSYCBgBIIBUmACYCSCAVJhTFNg8BtgRIIBUpBRkIGQA2BkAZD9W2EyvVZbgmABYAFggBsDFoKEAZFQgWABYAFggBsDFhAVYTK9V2BAgFFiRhvNYOUbgVJgIGAEggFSYAJgJIIBUmFMQWDwG2BEggFSkFGQgZADYGQBkP1bYABkAQACdqNgAWABYKAbA4MWEIAVkGE24VdQc//9iWPv0fxqUGSISV2VHVJjmI0mYAFgAWCgGwODFhBbYTcWV2BAgFFiRhvNYOUbgVJgIGAEggFSYAFgJIIBUmApYPkbYESCAVKQUZCBkANgZAGQ/Vt3//////////////////////////8AAAAAYCCDkBsWYAFgAWCAGwOBEWAHG4GBHGf//////////4ERYAYbkIEcY/////+BEWAFG5CBHGH//4ERYAQbkIEcYP+BEWADkIEbkYIcYA+BEWACG5CBHJGCEWABkIEbkoMcl5CIEZYXkJQXkJIXF5CRFxcXYICBEGE3t1dgf4EDg5AckVBhN8FWW4BgfwODkBuRUFuQgAJgf4GBHGD/g4EckZCRHIACgIMcgYMcHIACgIQcgYQcHIACgIUcgYUcHIACgIYcgYYcHIACgIccgYccHIACgIgcgYgcHIACgIkcgYkcHIACgIocgYocHIACgIscgYscHIACgIwcgYwcHIACgI0cgY0cHIACgI4cnIGQHJyQnByAApyNkByenWB/GY8BYEAbYMCRkJEcZ4AAAAAAAAAAFhdgwZuQmxxnQAAAAAAAAAAWmpCaF2DCmZCZHGcgAAAAAAAAABaYkJgXYMOXkJccZxAAAAAAAAAAFpaQlhdgxJWQlRxnCAAAAAAAAAAWlJCUF2DFk5CTHGcEAAAAAAAAABaSkJIXYMaRkJEcZwIAAAAAAAAAFhdgx5GQkRxnAQAAAAAAAAAWF2DIkZCRHGaAAAAAAAAAFhdgyZGQkRxmQAAAAAAAABYXYMqRkJEcZiAAAAAAAAAWF2DLkZCRHGYQAAAAAAAAFhdgzJGQkRxmCAAAAAAAABYXYM2RkJEcZgQAAAAAAAAWF2k2J6MB1xBVd0yFgQJvAo9kgat/BFpa8BKhnQA6qRmBAWCAkIEdkG/bLfCegZWagUVeJgeZoGMvgwGQHWACgYELkIOQCxRhOcJXiGABYAFgoBsDFmE5poJhLW1WW2ABYAFgoBsDFhEVYTm7V4FhOb1WW4BbYTnEVluBW5mYUFBQUFBQUFBQVltgAIBgAImJYf//FmH//4EQYTnnV/5bYECAUWCAgQGCUpGQkgFUY/////+AghaAhFJkAQAAAACDBGAGkIELgQuQC2AghQFSYAFgWBuDBGABYAFgoBsDFpSEAZSQlFJgAWD4G5CRBGD/FhUVYGCDAVKQklCJFhQVYTpXV4iFklCSUFBhNRBWW4Rh//8WhGH//xYRgBVhOnhXUGABhQNh//8WiWH//xYUWxVhOoVXg5FQYTqJVluEkVBbgWH//xaJYAEBYf//FoFhOp1X/lsGklBhOqyBiYmJYUgiVluKhGH//xZh//+BEGE6vVf+W4JRkQGAVGAghAFRYECFAVFgYJCVAVEVFWABYPgbAn7/////////////////////////////////////////YAFgAWCgGwOQlhZgAWBYGwJ//wAAAAAAAAAAAAAAAAAAAAAAAAAA//////////////9gBpOQkwtm/////////xZkAQAAAAACav////////8AAAAAGWP/////kJcWY/////8ZkJUWlJCUF5WQlRaSkJIXFpKQkheSkJIWF5BVUJdQl5VQUFBQUFBWW2BAgFFgAWABYKAbA4SBFmAkgwFSYESAgwGFkFKDUYCEA5CRAYFSYGSQkgGDUmAgggGAUWABYAFg4BsDFmOpBZy7YOAbF4FSklGCUWAAlIWUk4kWk5KRgpGQgIODW2AggxBhPAJXgFGCUmAfGZCSAZFgIJGCAZEBYTvjVltgAYNgIANhAQAKA4AZglEWgYRRFoCCF4VSUFBQUFBQkFABkVBQYABgQFGAgwOBYACGWvGRUFA9gGAAgRRhPGRXYEBRkVBgHxlgPz0BFoIBYEBSPYJSPWAAYCCEAT5hPGlWW2BgkVBbUJFQkVCBgBVhPJdXUIBRFYBhPJdXUICAYCABkFFgIIEQFWE8lFdgAID9W1BRW2E8zVdgQIBRYkYbzWDlG4FSYCBgBIIBUmACYCSCAVJhKiNg8RtgRIIBUpBRkIGQA2BkAZD9W1BQUFBQVltgQIBRMGAkgIMBkZCRUoJRgIMDkJEBgVJgRJCRAYJSYCCBAYBRYAFgAWDgGwMWY3CggjFg4BsXgVKRUYFRYACThJOEk2ABYAFgoBsDfwAAAAAAAAAAAAAAAAAAAAAAAAAAAAAAAAAAAAAAAAAAFpORkpCRgpGQgIODW2AggxBhPW1XgFGCUmAfGZCSAZFgIJGCAZEBYT1OVltgAYNgIANhAQAKA4AZglEWgYRRFoCCF4VSUFBQUFBQkFABkVBQYABgQFGAgwOBhVr6kVBQPYBgAIEUYT3NV2BAUZFQYB8ZYD89ARaCAWBAUj2CUj1gAGAghAE+YT3SVltgYJFQW1CRUJFQgYAVYT3mV1BgIIFREBVbYT3vV2AAgP1bgIBgIAGQUWAggRAVYT4EV2AAgP1bUFGSUFBQkFZbgIIBgoEQFWEyvVdgAID9W2BAgFEwYCSAgwGRkJFSglGAgwOQkQGBUmBEkJEBglJgIIEBgFFgAWABYOAbAxZjcKCCMWDgGxeBUpFRgVFgAJOEk4STYAFgAWCgGwN/AAAAAAAAAAAAAAAAAAAAAAAAAAAAAAAAAAAAAAAAAAAWk5GSkJGCkZCAg4NgIIMQYT1tV4BRglJgHxmQkgGRYCCRggGRAWE9TlZbYACAg2H//xYRYT7zV2BAgFFiRhvNYOUbgVJgIGAEggFSYAFgJIIBUmBJYPgbYESCAVKQUZCBkANgZAGQ/VuCYf//FoJh//8WEWE/CVdQgWEzglZbgluCYf//FoFh//8WEBVhP09XYAGFgmH//xZh//+BEGE/Llf+WwGAVGP/////GRZj/////5KQkhaRkJEXkFVgAQFhPwtWW1CQk5JQUFBWW4BgD4GQC4EUYSvrV2AAgP1bYACAYABhP3ZhK/BWW2E/iIRgIAFRhWBAAVFhQ6FWW2BAgFFg4IEBglJgAFRgAWABYKAbA4EWglJgAWCgG4EEYAKQgQuBC5ALYCCAhAGCkFJh//9gAWC4G4QEgRaFhwFSYAFgyBuEBIEWYGCAhwGRkJFSYAFg2BuFBJCRFmCAhgFSYP9gAWDoG4UEgRZgoIcBUmABYPAbkJQEkJMWFRVgwIUBUohRkIkBUZSJAVGSiQFRk5RhQCyUkZOQkpCRkGFKz1Zbk1CEYGABUWAPC2AAFGFBoVeEYCABUWACC4FgIAFRYAILEhVhQIFXYUB6YUBjhmAgAVFhLW1WW2FAcIdgQAFRYS1tVluHYGABUWFMhFZbklBhQaFWW4RgQAFRYAILgWAgAVFgAgsSFWFBd1dgBFRgQIIBUWABYAFggBsDkJEWkGFA05BhQLdhLCdWW2AghQFRYGCGAVFggIcBUWAIlJOSkYeRYTnRVltgAIBUYf//YMgbGRZgAWDIG2H//5OEFgIXYf//YLgbGRZgAWC4G5OQkhaSkJICF5BVgVFgQIcBUWFBI5GQYUEZkGEtbVZbiGBgAVFhTIRWW5NQYUFBYUE1h2AgAVFhLW1WW4NRYGCJAVFhTMhWW5JQYUFRgYdgYAFRYTXvVltgBIBUYAFgAWCAGwMZFmABYAFggBsDkpCSFpGQkReQVVBhQaFWW2FBnmFBh4ZgIAFRYS1tVlthQZSHYEABUWEtbVZbh2BgAVFhTMhWW5FQW1CRk5CSUFZbYABhQbaEhIRhMtlWW5BQYACCgGFBwlf+W4SGCREVYTOCV2AAGYEQYUHZV2AAgP1bYAEBk5JQUFBWW2BAgFFgYJSQlBtr////////////////GRZgIICGAZGQkVJgApOEC2DokIEbYDSHAVKSkJMLkJEbYDeEAVKAUYCEA2AaAYFSYDqQkwGBUoJRkoIBkpCSIGAAkIFSkpBSkCCQVltgYIBgAINh//8WEWFCh1dgQIBRYkYbzWDlG4FSYCBgBIIBUmABYCSCAVJgSWD4G2BEggFSkFGQgZADYGQBkP1bhlFn//////////+BEYAVYUKfV2AAgP1bUGBAUZCAglKAYCACYCABggFgQFKAFWFCyVeBYCABYCCCAoA2gzcBkFBbUJFQhlFn//////////+BEYAVYULkV2AAgP1bUGBAUZCAglKAYCACYCABggFgQFKAFWFDDleBYCABYCCCAoA2gzcBkFBbUJBQYABbh1GBEBVhQ5RXYUM/ioqKhIFRgRBhQy5X/ltgIAJgIAEBUYqKiophM4lWW4SDgVGBEGFDS1f+W2AgAmAgAQGEhIFRgRBhQ15X/ltgIAJgIAEBgmABYAFgoBsDFmABYAFgoBsDFoFSUIJgBgtgBguBUlBQUICAYAEBkVBQYUMUVltQl1CXlVBQUFBQUFZbgGACC4JgAgsSYUPhV2BAgFFiRhvNYOUbgVJgIGAEggFSYANgJIIBUmJUTFVg6BtgRIIBUpBRkIGQA2BkAZD9W2INiecZYAKDkAsSFWFEJFdgQIBRYkYbzWDlG4FSYCBgBIIBUmADYCSCAVJiVExNYOgbYESCAVKQUZCBkANgZAGQ/VtiDYnoYAKCkAsTFWFEZldgQIBRYkYbzWDlG4FSYCBgBIIBUmADYCSCAVJiVFVNYOgbYESCAVKQUZCBkANgZAGQ/VtQUFZbYECAUWCAgQGCUmP/////koMWgIJSYABgIIMBgZBSkoIBkpCSUmABYGCQkQGBkFKDVGP/////GRaQkReQkRZgAWD4GxeQkVWQgZBWW2ACC2AIgZAdkWEBAJCRB5BWW2AAgIIRYUTWV2AAgP1bYAFggBuCEGFE6VdggJGCHJEBW2gBAAAAAAAAAACCEGFFAVdgQJGCHJEBW2QBAAAAAIIQYUUVV2AgkYIckQFbYgEAAIIQYUUnV2AQkYIckQFbYQEAghBhRThXYAiRghyRAVtgEIIQYUVIV2AEkYIckQFbYASCEGFFWFdgApGCHJEBW2ACghBhK+tXYAEBkZBQVltgAICCEWFFdldgAID9W1Bg/2ABYAFggBsDghYVYUWRV2B/GQFhRZlWW2CAgpAckVBbZ///////////ghYVYUWyV2A/GQFhRbpWW2BAgpAckVBbY/////+CFhVhRc9XYB8ZAWFF11ZbYCCCkByRUFth//+CFhVhRepXYA8ZAWFF8lZbYBCCkByRUFtg/4IWFWFGBFdgBxkBYUYMVltgCIKQHJFQW2APghYVYUYeV2ADGQFhRiZWW2AEgpAckVBbYAOCFhVhRjhXYAEZAWFGQFZbYAKCkByRUFtgAYIWFWEr61dgABkBkZBQVltgAINgAWABYKAbAxaFYAFgAWCgGwMWERVhRnJXkpOSW4FhRp9XYUaag2ABYAFggBsDFoaGA2ABYAFgoBsDFmABYGAbYTLZVlthRsJWW2FGwoNgAWABYIAbAxaGhgNgAWABYKAbAxZgAWBgG2FBqVZbkFBblJNQUFBQVltgAINgAWABYKAbAxaFYAFgAWCgGwMWERVhRu1XkpOSW3v/////////////////////AAAAAAAAAAAAAAAAYGCEkBsWYAFgAWCgGwOGhgOBFpCHFmFHKVdgAID9W4NhR1lXhmABYAFgoBsDFmFHTIODiWABYAFgoBsDFmEy2VZbgWFHU1f+WwRhR39WW2FHf2FHcIODiWABYAFgoBsDFmFBqVZbiGABYAFgoBsDFmFM91Zbl5ZQUFBQUFBQVltgAICFYAFgAWCgGwMWEWFHoVdgAID9W2AAhGABYAFggBsDFhFhR7dXYACA/VuBYUfJV2FGmoWFhWABYU0CVlthRsKFhYVgAWFN41ZbYACAhWABYAFgoBsDFhFhR+1XYACA/VtgAIRgAWABYIAbAxYRYUgDV2AAgP1bgWFIFVdhRpqFhYVgAGFN41ZbYUbChYWFYABhTQJWW2FIKmFWSlZbYACFYAABUYUDkFBgQFGAYIABYEBSgIZj/////xaBUmAgAYJj/////xaGYAILAohgIAFRAWAGC4FSYCABYACFYAFgAWCAGwMWEWFIfldgAWFIgFZbhFtgAWABYIAbAxZz/////wAAAAAAAAAAAAAAAAAAAABggIWQGxaBYUirV/5bBIhgQAFRAWABYAFgoBsDFoFSYCABYAEVFYFSUJFQUJSTUFBQUFZbYUjaYVZKVlthSOJhVkpWW4iFYf//FmH//4EQYUjzV/5bYECAUWCAgQGCUpGQkgFUY/////+BFoCDUmQBAAAAAIIEYAaQgQuBC5ALYCCEAVJgAWBYG4IEYAFgAWCgGwMWk4MBk5CTUmABYPgbkARg/xYVFWBgggFSklBhSViQiZCJYU7YVlsVYUmQV4Zj/////xaCYAABUWP/////FhQVYUl6V2E1EFZbgWFJh4OJiYhhSCJWW5FQkVBhNRBWW4iDYf//FoZgAQFh//8WgWFJpVf+WwZh//8WYf//gRBhSbVX/ltgQIBRYICBAYJSkpCRAVRj/////4EWg1JkAQAAAACBBGAGkIELgQuQC2AghAFSYAFgAWCgGwNgAWBYG4IEFpGDAZGQkVJg/2ABYPgbkJEEFhUVYGCCAYGQUpCSUGFKbFdgQIBRYICBAYJSilRj/////4EWglJkAQAAAACBBGAGkIELgQuQC2AggwFSYAFgWBuBBGABYAFgoBsDFpKCAZKQklJgAWD4G5CRBGD/FhUVYGCCAVKRUFthSnuIg2AAAVGJYU7YVlthSrJXYECAUWJGG81g5RuBUmAgYASCAVJgA2AkggFSYhPTEWDqG2BEggFSkFGQgZADYGQBkP1bYUq/iYmJiIdhT5tWW5FQkVCXUJeVUFBQUFBQVltgAGFK3mAHh4eHYUHjVltgAVRgAlSRklCQYACAYA+HkAsVYUwkV2AAYUr/YSwnVltgAIBUYARUkpNQkJGCkWFLSZFgCJGGkYWRYAFgoBuBBGACC5Fh//9gAWC4G4MEgRaSYAFgAWCAGwOQkhaRYAFgyBuQBBZhM4lWW5CSUJBQYUuDYAWNi42Li4eJi2AAfwAAAAAAAAAAAAAAAAAAAAAAAAAAAAAAAAAAAAAAAAAAYVE7VluUUGFLumAFjIuNi4uHiYtgAX8AAAAAAAAAAAAAAAAAAAAAAAAAAAAAAAAAAAAAAAAAAGFRO1Zbk1CEFWFL7ldhS+5gBo1/AAAAAAAAAAAAAAAAAAAAAAAAAAAAAAAAAAAAAAAAAABhUyVWW4MVYUwgV2FMIGAGjH8AAAAAAAAAAAAAAAAAAAAAAAAAAAAAAAAAAAAAAAAAAGFTJVZbUFBQW2AAgGFMNmAFjIyLiophU4tWW5CSUJBQYUxHh4qEhGFUN1ZbYACJYA8LEhVhTHVXgxVhTGRXYUxkYAWMYVXMVluCFWFMdVdhTHVgBYthVcxWW1BQUFBQUJWUUFBQUFBWW2AAgIJgDwsSYUyqV2FMpWFMoIWFhWABYUbNVlthMpFWW2FGxVZbYUy9YUyghYWFYAADYABhRs1WW2AAA5STUFBQUFZbYACAgmAPCxJhTORXYUylYUyghYWFYAFhRlJWW2FMvWFMoIWFhWAAA2AAYUZSVluAggSRBhUVAZBWW2AAgRVhTXVXYABgAWABYKAbA4QRFWFNOFdhTTOEYAFgYBuHYAFgAWCAGwMWYTLZVlthTVBWW2ABYAFggBsDhRZgYIWQG4FhTU5X/lsEW5BQYU1tYU1oYAFgAWCgGwOIFoNhPg1WW2FV+FZbkVBQYUbFVltgAGABYAFgoBsDhBEVYU2jV2FNnoRgAWBgG4dgAWABYIAbAxZhQalWW2FNulZbYU26YGCFkBtgAWABYIAbA4cWYUz3VluQUICGYAFgAWCgGwMWEWFN0VdgAID9W2ABYAFgoBsDhhYDkFBhRsVWW2AAgmFN8VdQg2FGxVZbe/////////////////////8AAAAAAAAAAAAAAABgYIWQGxaCFWFOkVdgAWABYKAbA4YWhIECkIWCgWFOMVf+WwQUFWFOYleBgQGCgRBhTmBXYU5Wg4lgAWABYKAbAxaDYUGpVluTUFBQUGFGxVZbUFthToiCYU6Dh4pgAWABYKAbAxaGgWFOfFf+WwSQYT4NVlthTPdWW5JQUFBhRsVWW2ABYAFgoBsDhhaEgQKQhYKBYU6oV/5bBBSAFWFOtVdQgIIRW2FOvldgAID9W4CCA2FOVmFNaIRgAWABYKAbA4sWhGFBqVZbYACDY/////8Wg2P/////FhEVgBVhTwJXUINj/////xaCY/////8WERVbFWFPHleBY/////8Wg2P/////FhEVkFBhM4JWW2AAhGP/////FoRj/////xYRYU9GV4Nj/////xZkAQAAAAABYU9OVluDY/////8WW2T//////xaQUGAAhWP/////FoRj/////xYRYU9/V4Nj/////xZkAQAAAAABYU+HVluDY/////8WW2T//////xaQkREVlZRQUFBQUFZbYU+jYVZKVlthT6thVkpWW2AAg2H//xaFYAEBYf//FoFhT8FX/lsGYf//FpBQYABgAYVh//8WgwEDkFBgAFtQYAKBgwEEiWH//4cWgoFhT+5X/lsGYf//gRBhT/pX/ltgQIBRYICBAYJSkpCRAVRj/////4EWg1JkAQAAAACBBGAGkIELgQuQC2AghAFSYAFgAWCgGwNgAWBYG4IEFpGDAZGQkVJg/2ABYPgbkJEEFhUVYGCCAYGQUpCVUGFQZVeAYAEBklBhT9lWW4mGYf//FoJgAQGBYVB2V/5bBmH//4EQYVCCV/5bYECAUWCAgQGCUpKQkQFUY/////+BFoNSZAEAAAAAgQRgBpCBC4ELkAtgIIQBUmABYAFgoBsDYAFgWBuCBBaRgwGRkJFSYP9gAWD4G5CRBBYVFWBgggFShVGQlFBgAJBhUO2Qi5CLYU7YVluQUICAFWFRBldQYVEGioqHYAABUWFO2FZbFWFREVdQYVEuVluAYVEhV2ABggOSUGFRKFZbgWABAZNQW1BhT9lWW1BQUJVQlZNQUFBQVltgAoqBC5ALYACQgVJgIIyQUmBAgSCAVGABYAFggBsDFoJhUWaCjWE171ZbkFCEYAFgAWCAGwMWgWABYAFggBsDFhEVYVG0V2BAgFFiRhvNYOUbgVJgIGAEggFSYAJgJIIBUmFMT2DwG2BEggFSkFGQgZADYGQBkP1bYAFgAWCAGwOCgRYVkIIWFYEUFZRQFWFSileMYAILjmACCxNhUlpXYAGDAYuQVWACgwGKkFVgA4MBgFR///////8AAAAAAAAAAAAAAAAAAAAAAAAAAP////////8WZwEAAAAAAAAAYAFgAWCgGwOMFgIXZv////////8ZFmb/////////YAaLkAsWF2P/////YNgbGRZgAWDYG2P/////ihYCF5BVW2ADgwGAVH7/////////////////////////////////////////FmABYPgbF5BVW4JUYAFgAWCAGwMZFmABYAFggBsDghYXg1WFYVLTV4JUYVLOkGFSyZBgAWCAG5AEYA+QgQuBC5CPkAthMsNWW2E/WFZbYVL0VluCVGFS9JBhUsmQYAFggBuQBGAPkIELgQuQj5ALYTKnVluDVGAPkZCRC2ABYAFggBsDkIEWYAFggBsCkRYXkJJVUJCcm1BQUFBQUFBQUFBQUFZbgGACC4JgAguBYVM0V/5bB2ACCxVhU0JXYACA/VtgAIBhU12DYAILhWACC4FhU1dX/lsFYUS2VltgAZGCC4ILYACQgVJgIJeQl1JgQJCWIIBUYP+QlxaRkJEbkJUYkJRVUFBQUFZbYAKFgQuAggtgAJCBUmAgiZBSYECAgiCIhQuFC4NSkIIgkZOEk5GSkYSRgpGQipALEmFT0VdQUGABggFUYAKDAVRhU+RWW4NgAQFUiAORUINgAgFUhwOQUFtgAICLYAILi2ACCxIVYVQGV1BQYAGDAVRgAoQBVGFUGVZbhGABAVSKA5FQhGACAVSJA5BQW5KQmAOXkJcDm5aQlQOUkJQDmFCTllBQUFBQUFBWW2BAgFFgoIEBglKFVGABYAFggBsDkIEWglJgAYcBVGAggwFSYAKHAVSSggGSkJJSYAOGAVSAgxZgYIMBUmABYIAbkASQkRZggIIBUmAAYA+FkAthVNZXgVFgAWABYIAbAxZhVM5XYECAUWJGG81g5RuBUmAgYASCAVJgAmAkggFSYQTlYPQbYESCAVKQUZCBkANgZAGQ/VtQgFFhVOVWW4FRYVTikIZhNe9WW5BQW2AAYVUJg2AgAVGGA4RgAAFRYAFgAWCAGwMWYAFggBthMtlWW5BQYABhVS+EYEABUYYDhWAAAVFgAWABYIAbAxZgAWCAG2Ey2VZbkFCGYA8LYAAUYVVWV4dUYAFgAWCAGwMZFmABYAFggBsDhBYXiFVbYAGIAYaQVWACiAGFkFVgAWABYIAbA4IWFRWAYVWEV1BgAIFgAWABYIAbAxYRWxVhVcJXYAOIAYBUYAFgAWCAGwMZgRZgAWABYIAbA5GCFoUBghYXgIIWYAFggBuRgpAEgxaFAZCSFgIXkFVbUFBQUFBQUFBWW2ACkIELgQtgAJCBUmAgkpCSUmBAgiCCgVVgAYEBg5BVkIEBgpBVYAMBVVZbgGABYAFgoBsDgRaBFGEr61dgAID9W2BAgFFg4IEBglJgAICCUmAgggGBkFKRgQGCkFJgYIEBgpBSYICBAYKQUmCggQGCkFJgwIEBkZCRUpBWW2BAgFFggIEBglJgAICCUmAgggGBkFKRgQGCkFJgYIEBkZCRUpBW/qFkc29sY0MABwYACqFkc29sY0MABwYACg==",
          "touched": true,
          "read": true
        },
        "0x70A0bb66cF004D0FbdB6880Db1E283871cF13D27": {
          "address": "0x70A0bb66cF004D0FbdB6880Db1E283871cF13D27",
          "read": true
        },
        "0x85dA99c8a7C2C95964c8EfD687E95E632Fc533D6": {
          "address": "0x85dA99c8a7C2C95964c8EfD687E95E632Fc533D6",
          "nonce": 3,
          "read": true
        }
      }
    }
  ]
}
