{
  "accountTrie": {
    "25cb52463c8e4e97d2c0c649eb3c5c5eb2a85d7d3dd320f8694a74589513587c": "f8749f3eec2b84f0ba344fd4b4d2f022469febe7a772c4789acfc119eb558ab1da3db852f8503d8c033b2e3c9df58e1a7cf1d21fa056e81f171bcc55a6ff8345e692c0f86e5b48e01b996cadc001622fb5e363b421a0c5d2460186f7233c927e7db2dcc703c0e500b653ca82273b7bfad8045d85a470",
    "2b63e2ac6917b9185499132391557d9ad3072cdd9d83cd1e149ac7bbd4046ce6": "f8518080808080808080a03a80082a3587599daa3a3cc4ceb9be62daa7533f733dbe3bd62be3932cbc38f88080a047ee23b248c97482a1a7176741e3a463c9028ffacab53924441dc454aa2b21088080808080",
    "47ee23b248c97482a1a7176741e3a463c9028ffacab53924441dc454aa2b2108": "f86f9f32adcfe18406ff7246f44d41408f7bc77391a1928be4fdde6b51a6c9c543f5b84df84b8087038d7ea4c68000a056e81f171bcc55a6ff8345e692c0f86e5b48e01b996cadc001622fb5e363b421a0c5d2460186f7233c927e7db2dcc703c0e500b653ca82273b7bfad8045d85a470",
    "4a7765acc52d6a8e52d837f872301d9f77eca78e7fa9da636b3e34fa225b25fb": "f871808080a06bd51dd129b0dbfbc6ec4ad2473e41a0bbaea9bbc0f70f20023ee4206826e826a0eb68126485dcaaca88731b1076aa5fe02a61cd409ffa5d95e08245b57d84c1afa03d2c9faa594230d254816429f8dc379c30c8b3679ef67f44dd31f3e6822f9a498080808080808080808080",
    "4eb0ee61e06feb03dca613a73871f9fbba2418b24fbc4d3b5c4a923efdea7dcc": "f89180a031d1eb10fdf37ef90417d463e9e3d1dad5bab6a3e8b38ccc4eaa744250317457808080a065d9119ffe86041048d25ef8bc07521ca00275d59dd272676dfd2c04cc7c139ea088051b9667deb59e99614788c0d0aedaec2b9658bd714c851f16eb1d1ad3965280808080a056c9a23710ac9835e9a1a44b6725755589fc1f9ec5936cb5b11c7352657c58508080808080",
    "4f8266283122eb2e2153df3b92aef41cb7a61bc5d911355fcf392d3f0b0ba802": "f90211a0d21eee7deed1d68a342cbb3bf7cc4e0e569ad58996ddb83e72dd835b3603f1c3a04fffe3b14f4b97c96945632e6e5fddd41827566dbce266b404bcf25826cc71a3a0f7336f1bbd47de3425668cbc835f9dea28e3337206a6ddc39e2d75c0cfbc3fa6a04bb4c7cdcdeccf73fe237ac3243854cdbc243bf42d3c7310b243f70ae24e0deba00898774ab29060c8e1ebca88393ba0342e86bcff5cb7c23c84f62f0fec5729efa04a7765acc52d6a8e52d837f872301d9f77eca78e7fa9da636b3e34fa225b25fba0f820e589d2219ae3f297594cfd731f2ec64d19b1ba0f918369e9b413c126732da0439b221f64c0e68adbc764dbe4e9f10efe3d6158fad6a5e555b7d8f9c7759988a0748fec3943b710a94cec1bd81e315dfd8d9d6608ad81f521be9cfb9a84b72d3da0e6e82a109ac4e5daed8f76043d8393d0298472e0518ff96a48b8492e479881fba04eb0ee61e06feb03dca613a73871f9fbba2418b24fbc4d3b5c4a923efdea7dcca054cab2921d01b8ab026305874aca3f192ae1af8f0bb0c5d39e381645509e3931a0a73d90c574fd18fd5d6ca74b2a6c42841f706bfaf831fdef76805b1029303688a0d5c3f35b3433034102536147a3dcfd190c7bb81fe37c4801a018ecc677f34deca08333762fcaf7193e048ab228010951a924224adf67ad901b5e98441becfcbbd7a092825616236bb69e7dce9723d0bcf9a7f9da80602dcab4c489d1e8ed8f6b347f80",
    "65d9119ffe86041048d25ef8bc07521ca00275d59dd272676dfd2c04cc7c139e": "f85180a025cb52463c8e4e97d2c0c649eb3c5c5eb2a85d7d3dd320f8694a74589513587c80808080808080808080a0b352e4c72d853473be5eac69cf10adfdc61a3747ec26a4b424f0a29292fc1d3780808080",
    "6bd51dd129b0dbfbc6ec4ad2473e41a0bbaea9bbc0f70f20023ee4206826e826": "f851a0e29cd6451f96ed556022f6076eacfbb24d0680280f8a4a588419a89b9a4260aa80808080808080a0e1eaf32176e278b4abc69fd37b99a7b9364b46790e37b950aae3133325de6f6c8080808080808080",
    "748fec3943b710a94cec1bd81e315dfd8d9d6608ad81f521be9cfb9a84b72d3d": "f851808080808080808080a07c2392e37fe4313ca4b6bc7e938dd2f078cdc81a951af3ebf8eb2f0df09be3b780a08f342a8df0569570dfa8188e00c1763a9105214e26e635ce457c859a39858ee78080808080",
    "762581f398eff16c99f46e6212c4f30731c05b4363db89d49a62e263e46424d1": "f8729f35f36a26b4ab3a7e0edbbc8241a6c302cac010ae108ba112772fdfe46ea0d4b850f84e808ad3c21c314f684948b653a056e81f171bcc55a6ff8345e692c0f86e5b48e01b996cadc001622fb5e363b421a0c5d2460186f7233c927e7db2dcc703c0e500b653ca82273b7bfad8045d85a470",
    "7c2392e37fe4313ca4b6bc7e938dd2f078cdc81a951af3ebf8eb2f0df09be3b7": "f8518080a098d0cb0f461988b32c524f081c9641ce96fce99510946457d3e41a33a7eaa8fa8080808080a0762581f398eff16c99f46e6212c4f30731c05b4363db89d49a62e263e46424d18080808080808080",
    "d21eee7deed1d68a342cbb3bf7cc4e0e569ad58996ddb83e72dd835b3603f1c3": "f8718080a00a6df8e88efe9ec320b6bc3577cc219757a58ce573eadd452cbfad6bbab6813880808080a02b63e2ac6917b9185499132391557d9ad3072cdd9d83cd1e149ac7bbd4046ce6a0d6e7baf9ad6b04dff3a25f53357482c94918662b5267635373129b88ba77616f8080808080808080",
    "e1eaf32176e278b4abc69fd37b99a7b9364b46790e37b950aae3133325de6f6c": "f8729f30c7b7ae81a58eb98d9c78de4a1fd7fd9535fc953ed2be602daaa41767312ab850f84e808ad3c21bd2b1bacdbc4027a056e81f171bcc55a6ff8345e692c0f86e5b48e01b996cadc001622fb5e363b421a0c5d2460186f7233c927e7db2dcc703c0e500b653ca82273b7bfad8045d85a470"
  },
  "storageTrie": null,
  "parentStateRoot": "0x4f8266283122eb2e2153df3b92aef41cb7a61bc5d911355fcf392d3f0b0ba802",
  "transactionTraces": [
    {
      "txn": "0xf86c3d8498f6f8a482520894deadbeefdeadbeefdeadbeefdeadbeefdeadbeef87038d7ea4c6800080820fc5a04626e78bdba5486e5f5a7d4f91d2fe4ecb87c8ad9a41320d5e8e7c32468fd234a075b90de3ed658a8838e6d027660c11a2d8a2ebeca5d1c7c523c7013c4d677e53",
      "delta": {
        "0x0000000000000000000000000000000000000000": {
          "address": "0x0000000000000000000000000000000000000000",
          "read": true
        },
        "0x27c407D3Cd295E18a19bAdBA4036542aa59eCA91": {
          "address": "0x27c407D3Cd295E18a19bAdBA4036542aa59eCA91",
          "read": true
        },
        "0x85dA99c8a7C2C95964c8EfD687E95E632Fc533D6": {
          "address": "0x85dA99c8a7C2C95964c8EfD687E95E632Fc533D6",
          "nonce": 62,
          "read": true
        },
        "0xDeaDbeefdEAdbeefdEadbEEFdeadbeEFdEaDbeeF": {
          "address": "0xDeaDbeefdEAdbeefdEadbEEFdeadbeEFdEaDbeeF",
          "touched": true,
          "read": true
        }
      }
    },
    {
      "txn": "0xf86c3e8498f6f8a482520894deadbeefdeadbeefdeadbeefdeadbeefdeadbeef87038d7ea4c6800080820fc5a098fe812cbd15964d0235cd169daa7ac9d07d23d905da2a9a3299ed1060d1d3a6a07042f303d0ba9009322e7c0e7407d0ef2ae808371d93cd18bda10225c3358653",
      "delta": {
        "0x0000000000000000000000000000000000000000": {
          "address": "0x0000000000000000000000000000000000000000",
          "read": true
        },
        "0x27c407D3Cd295E18a19bAdBA4036542aa59eCA91": {
          "address": "0x27c407D3Cd295E18a19bAdBA4036542aa59eCA91",
          "read": true
        },
        "0x85dA99c8a7C2C95964c8EfD687E95E632Fc533D6": {
          "address": "0x85dA99c8a7C2C95964c8EfD687E95E632Fc533D6",
          "nonce": 63,
          "read": true
        },
        "0xDeaDbeefdEAdbeefdEadbEEFdeadbeEFdEaDbeeF": {
          "address": "0xDeaDbeefdEAdbeefdEadbEEFdeadbeEFdEaDbeeF",
          "touched": true,
          "read": true
        }
      }
    }
  ]
}
