{
  "accountTrie": {
    "060701699d34e3ce92c1da290e37ee705a48bb9ed1199f7c475a0a2aed704a69": "f90211a09bd5985e83d92230c8f5e1f163da9b6a14db480ec2597a384ce775e4bbcb9321a01ba210aaba6559b91939a925213ab0b229e1882249efc35c60a37c1ed3d328aaa0ff2bef922dfa30ce8d8fae198a64a092768bc3da733be1539b0183b1997c30bda04bb4c7cdcdeccf73fe237ac3243854cdbc243bf42d3c7310b243f70ae24e0deba00898774ab29060c8e1ebca88393ba0342e86bcff5cb7c23c84f62f0fec5729efa0edf12e87cef90ae5f3dfe99bb3337a1d72d4c0984720c35bbc5cbaf2b957876ca0f820e589d2219ae3f297594cfd731f2ec64d19b1ba0f918369e9b413c126732da033e8e4cf34afa27dff2eb641b1c4496e233a82c2738e75325c5c5c83272ea672a00ca8fabab2a8781e033c673d4310021dda480e08325dd10f47ed4b48a78ee264a0e6e82a109ac4e5daed8f76043d8393d0298472e0518ff96a48b8492e479881fba0dc44b1dc40b427bb76e2fe527fab0974f8cc4c393cf6124190f262bd9f119ccda054cab2921d01b8ab026305874aca3f192ae1af8f0bb0c5d39e381645509e3931a0dc576475a3921548c900b980e0ffb10ad9053f9b1d030628ae8e9f4a2e0136d6a0d5c3f35b3433034102536147a3dcfd190c7bb81fe37c4801a018ecc677f34deca08333762fcaf7193e048ab228010951a924224adf67ad901b5e98441becfcbbd7a092825616236bb69e7dce9723d0bcf9a7f9da80602dcab4c489d1e8ed8f6b347f80",
    "1ba210aaba6559b91939a925213ab0b229e1882249efc35c60a37c1ed3d328aa": "f8518080808080a0162c91a1ecf6c3da75a44156f3567e6831e19d3723f161e6e9e257fc3c77b28c808080808080a03ada83d0115482aa41e08f17907d2cf5599b5b76ebb04dacc117df6718c1c02480808080",
    "32021e16d10694ef5ebbba16ae1e42b9e8f5137ee7e9047fc01e08d55a2b4b05": "f851a0e29cd6451f96ed556022f6076eacfbb24d0680280f8a4a588419a89b9a4260aa80808080808080a07441a91e1ee8abb0fc3b8ca5531cf7b4e464713edd2da878ba5884b708f22b568080808080808080",
    "3ada83d0115482aa41e08f17907d2cf5599b5b76ebb04dacc117df6718c1c024": "f873a0201e84137173633629f40faeb92a810dbcbf913533c7319539f3382ae8af9922b850f84e808ad3c21d170d5faf6039d1a056e81f171bcc55a6ff8345e692c0f86e5b48e01b996cadc001622fb5e363b421a0c5d2460186f7233c927e7db2dcc703c0e500b653ca82273b7bfad8045d85a470",
    "54105875e50a472357ae1c1627940bafd90cb89ac8e03407862f55d6d7bd4019": "f8769f3eec2b84f0ba344fd4b4d2f022469febe7a772c4789acfc119eb558ab1da3db854f8528210428c033b2e3c6210f8b0fb7f1e23a056e81f171bcc55a6ff8345e692c0f86e5b48e01b996cadc001622fb5e363b421a0c5d2460186f7233c927e7db2dcc703c0e500b653ca82273b7bfad8045d85a470",
    "7441a91e1ee8abb0fc3b8ca5531cf7b4e464713edd2da878ba5884b708f22b56": "f8729f30c7b7ae81a58eb98d9c78de4a1fd7fd9535fc953ed2be602daaa41767312ab850f84e808ad3c21bd2b1baf5105538a056e81f171bcc55a6ff8345e692c0f86e5b48e01b996cadc001622fb5e363b421a0c5d2460186f7233c927e7db2dcc703c0e500b653ca82273b7bfad8045d85a470",
    "7918f9c23c07143808b56fa88fe569c832a90ad21b3292d8bc243dba6dcef6eb": "f85180a054105875e50a472357ae1c1627940bafd90cb89ac8e03407862f55d6d7bd401980808080808080808080a0b352e4c72d853473be5eac69cf10adfdc61a3747ec26a4b424f0a29292fc1d3780808080",
    "dc44b1dc40b427bb76e2fe527fab0974f8cc4c393cf6124190f262bd9f119ccd": "f89180a031d1eb10fdf37ef90417d463e9e3d1dad5bab6a3e8b38ccc4eaa744250317457808080a07918f9c23c07143808b56fa88fe569c832a90ad21b3292d8bc243dba6dcef6eba088051b9667deb59e99614788c0d0aedaec2b9658bd714c851f16eb1d1ad3965280808080a056c9a23710ac9835e9a1a44b6725755589fc1f9ec5936cb5b11c7352657c58508080808080",
    "edf12e87cef90ae5f3dfe99bb3337a1d72d4c0984720c35bbc5cbaf2b957876c": "f871808080a032021e16d10694ef5ebbba16ae1e42b9e8f5137ee7e9047fc01e08d55a2b4b05a0eb68126485dcaaca88731b1076aa5fe02a61cd409ffa5d95e08245b57d84c1afa03d2c9faa594230d254816429f8dc379c30c8b3679ef67f44dd31f3e6822f9a498080808080808080808080",
    "ff2bef922dfa30ce8d8fae198a64a092768bc3da733be1539b0183b1997c30bd": "f869a038c1b2cd4b4be08c2ee3231297634832a2c7fc46a896e3156a8c33edca1dbc6cb846f8440180a0e6eafbcdc6918a1e072a75c60c522185515103fc899892d31d43607ddc67ffdaa0e86cf7cc93bf311f1751ca156a07c54a62d0769f9a09b61afd05b037a4713e1b"
  },
  "storageTrie": {
    "25de0f64b76a03837b9d5329d88dbbe83b6eab9b46807d9faa80af7fbb13642c": "f851a02714f2ca3dd355acfccfaeed95086191f9166be0109c8bd9bc6c978bed604ea6808080808080808080a0c7c5e593a9a5354f748c10e895c2d85efdbf14152a52cfaea23f1aed71e6b26a808080808080",
    "2714f2ca3dd355acfccfaeed95086191f9166be0109c8bd9bc6c978bed604ea6": "e2a0205787fa12a823e0f2b7631cc41b3ba8828b3321ca811111fa75cd3aa3bb5ace07",
    "286732df929e3b63888186fae97509f9a2be67a17713650bc12af2d1e434a0ed": "f842a03f2149d90beac0570c7f26368e4bc897ca24bba51b1a0f4960d358f764f11f31a09f0f000000000000000000000000000000000000000000000000000000000004",
    "a61d7eb768778af50ce409c7ee6fc092039773f66a8512c7126645b36116edd8": "e2a03ab0c6948a275349ae45a06aad66a8bd65ac18074615d53676c09b67809099e002",
    "e6eafbcdc6918a1e072a75c60c522185515103fc899892d31d43607ddc67ffda": "f9015180a0a61d7eb768778af50ce409c7ee6fc092039773f66a8512c7126645b36116edd8a0286732df929e3b63888186fae97509f9a2be67a17713650bc12af2d1e434a0ed80a025de0f64b76a03837b9d5329d88dbbe83b6eab9b46807d9faa80af7fbb13642ca0913df64b0396aa50d3e1462d92ead210f84fc82d46a8f97986a2c393cb58e1e4a0ef817e40be5549fff6d3710633334e62f76f54b1c654275433349a5ef8de62fc8080a0500abd24c4538d3ab6b7c90989fe078e046268cb6b3b205c7f63f510f0a2ce9aa0ebf02fb49526f855ff8782f8cda1a57326ada63a559acb52e7c309e73b90219ca03f5c8f157b1c7e3374432d89e466b9f3d8c605ac378c54325d6e3f70f66d78e1a05949646b5b0e646a428a5ece500afbabd61361c4aa4e1f946595e1f88b02c19c80a087f1a2f45e66f8a5ad146da4eb6f7466bab7b6369e5127848c7807fbd703dc118080",
    "ebf02fb49526f855ff8782f8cda1a57326ada63a559acb52e7c309e73b90219c": "f842a03b8ae412b7149ae8b8f06d0003df039a856b6cb4c82a356a9cc41db32188059ba09f0ff1ce00bab10c1badb0028badf00dabadbabeb105f00db16b00b50b00b135"
  },
  "parentStateRoot": "0x060701699d34e3ce92c1da290e37ee705a48bb9ed1199f7c475a0a2aed704a69",
  "transactionTraces": [
    {
      "txn": "0x02f901348207d18210428498f6f8938498f6f8a1830205be94608dcefe5f08532b886fc1bc5f0c308670ac21fd80b8c4b374012b00000000000000000000000000000000000000000000000000000000000000200000000000000000000000000000000000000000000000000000000000000080000ff1ce00bab10c1badb0028badf00dabadbabeb105f00db16b00b50b00b135baaaaaadbaadf00dbad22222baddcafecafeb0bab0bababebeefbabec00010ffcafebabecafed00dcefaedfe0d15ea5edabbad00dead2baddeadbaaddeadbabedeadbeafdeadbeefdeadc0dedeaddeaddeadd00ddeadfa11dead10ccdeadfeedc080a0b0cede8e34a9976782ce396525749e91ad1242b6edf588a23deb38877b9e109ea0624611e10825630745730fcb5049b0e88925ef0841b1634cda428d2f78915ee5",
      "delta": {
        "0x0000000000000000000000000000000000000000": {
          "address": "0x0000000000000000000000000000000000000000",
          "read": true
        },
        "0x608dcEfe5F08532b886Fc1bC5f0c308670AC21fd": {
          "address": "0x608dcEfe5F08532b886Fc1bC5f0c308670AC21fd",
          "storage": {
            "0x0000000000000000000000000000000000000000000000000000000000000002": "0x0000000000000000000000000000000000000000000000000000000000000008",
            "0x405787fa12a823e0f2b7631cc41b3ba8828b3321ca811111fa75cd3aa3bb5ad5": "0x0000000000000000000000000000000000000000000000000000000000000101",
            "0xa48a3c5fbb072ec5669ea9fac2d1261884ef2a63c6bae03d927c7b37ee9af970": "0x000ff1ce00bab10c1badb0028badf00dabadbabeb105f00db16b00b50b00b135",
            "0xa48a3c5fbb072ec5669ea9fac2d1261884ef2a63c6bae03d927c7b37ee9af971": "0xbaaaaaadbaadf00dbad22222baddcafecafeb0bab0bababebeefbabec00010ff",
            "0xa48a3c5fbb072ec5669ea9fac2d1261884ef2a63c6bae03d927c7b37ee9af972": "0xcafebabecafed00dcefaedfe0d15ea5edabbad00dead2baddeadbaaddeadbabe",
            "0xa48a3c5fbb072ec5669ea9fac2d1261884ef2a63c6bae03d927c7b37ee9af973": "0xdeadbeafdeadbeefdeadc0dedeaddeaddeadd00ddeadfa11dead10ccdeadfeed"
          },
          "storage_read": {
            "0x0000000000000000000000000000000000000000000000000000000000000002": {},
            "0x405787fa12a823e0f2b7631cc41b3ba8828b3321ca811111fa75cd3aa3bb5ad5": {},
            "0xa48a3c5fbb072ec5669ea9fac2d1261884ef2a63c6bae03d927c7b37ee9af970": {},
            "0xa48a3c5fbb072ec5669ea9fac2d1261884ef2a63c6bae03d927c7b37ee9af971": {},
            "0xa48a3c5fbb072ec5669ea9fac2d1261884ef2a63c6bae03d927c7b37ee9af972": {},
            "0xa48a3c5fbb072ec5669ea9fac2d1261884ef2a63c6bae03d927c7b37ee9af973": {}
          },
          "code_read": "YIBgQFI0gBVhABBXYACA/VtQYAQ2EGEEVFdgADVg4ByAY4CUf4ARYQJBV4Bjv1KcoRFhATtXgGPdm+9gEWEAw1eAY/J5yoERYQCHV4Bj8nnKgRRhEWFXgGP00fxhFGERkVeAY/WPw2oUYRHBV4Bj9rC79xRhEfFXgGP953IcFGESIVdhBFRWW4Bj3ZvvYBRhEHFXgGPel6NjFGEQoVeAY+n5s/IUYRDRV4Bj6lFB5hRhEQFXgGPt8APPFGERMVdhBFRWW4Bjzjz07xFhAQpXgGPOPPTvFGEPgVeAY9EXMgsUYQ+xV4Bj1R57WxRhD+FXgGPVP/P9FGEQEVeAY9k81VgUYRBBV2EEVFZbgGO/UpyhFGEOwVeAY8Ngq6YUYQ7xV4BjxCDrYRRhDyFXgGPEvWXVFGEPUVdhBFRWW4BjoYaDyxFhAclXgGOzdAErEWEBjVeAY7N0ASsUYQ3RV4Bjs9hH8hRhDgFXgGO3uGIHFGEOMVeAY7gcFIQUYQ5hV4Bjvch1/BRhDpFXYQRUVluAY6GGg8sUYQzzV4BjonG3IRRhDSNXgGOmChCHFGENQVeAY6ZFycIUYQ1xV4BjrK699hRhDaFXYQRUVluAY5YuTcIRYQIQV4Bjli5NwhRhDANXgGOYRW8+FGEMM1eAY5orfIEUYQxjV4BjnM58+RRhDJNXgGOgQK7GFGEMw1dhBFRWW4BjgJR/gBRhC0NXgGOIDv85FGELc1eAY5GKX80UYQujV4BjkeeydxRhC9NXYQRUVluAYzQw7AYRYQNSV4BjYOE83hFhAtpXgGNvCZyNEWECnleAY28JnI0UYQpTV4BjcdkdKBRhCoNXgGN7bgsOFGEKs1eAY3wZHSAUYQrjV4BjfejG+BRhCxNXYQRUVluAY2DhPN4UYQl1V4BjYT0KghRhCaVXgGNjE41PFGEJ1VeAY2Wbu08UYQoFV4Bjbn8f5xRhCiNXYQRUVluAY0D+JmIRYQMhV4BjQP4mYhRhCIVXgGNEzzvHFGEItVeAY0phrx8UYQjlV4BjTSx0sxRhCRVXgGNVkMLZFGEJRVdhBFRWW4BjNDDsBhRhB9dXgGM3EwPAFGEIB1eAYzpBHxIUYQglV4BjOkJd/BRhCFVXYQRUVluAYxgJO0YRYQPgV4BjIZzd6xFhA6RXgGMhnN3rFGEG51eAYyKU/H8UYQcXV4BjKHHvhRRhB0dXgGMrIe9EFGEHd1eAYy0055gUYQenV2EEVFZbgGMYCTtGFGEF91eAYxm2IdYUYQYnV4BjGroH6hRhBldXgGMd4vNDFGEGh1eAYyAHMy4UYQa3V2EEVFZbgGMLqKc7EWEEJ1eAYwuopzsUYQUZV4BjEoemjBRhBUlXgGMTXVL3FGEFZ1eAYxWBzxkUYQWXV4BjFlghUBRhBcdXYQRUVluAYwNK73EUYQRZV4BjBQCC+BRhBIlXgGMIe06EFGEEuVeAYws7mWoUYQTpV1tgAID9W2EEc2AEgDYDgQGQYQRukZBhJhFWW2ESUVZbYEBRYQSAkZBhJk1WW2BAUYCRA5DzW2EEo2AEgDYDgQGQYQSekZBhJhFWW2ESjFZbYEBRYQSwkZBhJk1WW2BAUYCRA5DzW2EE02AEgDYDgQGQYQTOkZBhJhFWW2ESx1ZbYEBRYQTgkZBhJk1WW2BAUYCRA5DzW2EFA2AEgDYDgQGQYQT+kZBhJ65WW2ETAVZbYEBRYQUQkZBhKHZWW2BAUYCRA5DzW2EFM2AEgDYDgQGQYQUukZBhJhFWW2ETKFZbYEBRYQVAkZBhJk1WW2BAUYCRA5DzW2EFUWETZFZbYEBRYQVekZBhJk1WW2BAUYCRA5DzW2EFgWAEgDYDgQGQYQV8kZBhJhFWW2ETbVZbYEBRYQWOkZBhJk1WW2BAUYCRA5DzW2EFsWAEgDYDgQGQYQWskZBhJhFWW2ETqVZbYEBRYQW+kZBhJk1WW2BAUYCRA5DzW2EF4WAEgDYDgQGQYQXckZBhJhFWW2ET5FZbYEBRYQXukZBhJk1WW2BAUYCRA5DzW2EGEWAEgDYDgQGQYQYMkZBhJhFWW2EUP1ZbYEBRYQYekZBhJk1WW2BAUYCRA5DzW2EGQWAEgDYDgQGQYQY8kZBhJhFWW2EUfVZbYEBRYQZOkZBhJk1WW2BAUYCRA5DzW2EGcWAEgDYDgQGQYQZskZBhJhFWW2EVDFZbYEBRYQZ+kZBhJk1WW2BAUYCRA5DzW2EGoWAEgDYDgQGQYQackZBhJhFWW2EVUlZbYEBRYQaukZBhJk1WW2BAUYCRA5DzW2EG0WAEgDYDgQGQYQbMkZBhJhFWW2EVkFZbYEBRYQbekZBhJk1WW2BAUYCRA5DzW2EHAWAEgDYDgQGQYQb8kZBhJhFWW2EVzFZbYEBRYQcOkZBhJk1WW2BAUYCRA5DzW2EHMWAEgDYDgQGQYQcskZBhJhFWW2EWB1ZbYEBRYQc+kZBhJk1WW2BAUYCRA5DzW2EHYWAEgDYDgQGQYQdckZBhJhFWW2EWRlZbYEBRYQdukZBhJk1WW2BAUYCRA5DzW2EHkWAEgDYDgQGQYQeMkZBhJhFWW2EWgVZbYEBRYQeekZBhJk1WW2BAUYCRA5DzW2EHwWAEgDYDgQGQYQe8kZBhJhFWW2EWvFZbYEBRYQfOkZBhJk1WW2BAUYCRA5DzW2EH8WAEgDYDgQGQYQfskZBhJhFWW2EW91ZbYEBRYQf+kZBhKHZWW2BAUYCRA5DzW2EID2EXo1ZbYEBRYQgckZBhJk1WW2BAUYCRA5DzW2EIP2AEgDYDgQGQYQg6kZBhJhFWW2EXwlZbYEBRYQhMkZBhJk1WW2BAUYCRA5DzW2EIb2AEgDYDgQGQYQhqkZBhJhFWW2EX/lZbYEBRYQh8kZBhJk1WW2BAUYCRA5DzW2EIn2AEgDYDgQGQYQiakZBhJhFWW2EYOlZbYEBRYQiskZBhJk1WW2BAUYCRA5DzW2EIz2AEgDYDgQGQYQjKkZBhJhFWW2EYeVZbYEBRYQjckZBhJk1WW2BAUYCRA5DzW2EI/2AEgDYDgQGQYQj6kZBhJhFWW2EYtFZbYEBRYQkMkZBhJk1WW2BAUYCRA5DzW2EJL2AEgDYDgQGQYQkqkZBhJhFWW2EY8lZbYEBRYQk8kZBhJk1WW2BAUYCRA5DzW2EJX2AEgDYDgQGQYQlakZBhJhFWW2EZLVZbYEBRYQlskZBhJk1WW2BAUYCRA5DzW2EJj2AEgDYDgQGQYQmKkZBhJhFWW2EZclZbYEBRYQmckZBhJk1WW2BAUYCRA5DzW2EJv2AEgDYDgQGQYQm6kZBhJ65WW2EZrlZbYEBRYQnMkZBhKHZWW2BAUYCRA5DzW2EJ72AEgDYDgQGQYQnqkZBhJ65WW2EZ4FZbYEBRYQn8kZBhKLFWW2BAUYCRA5DzW2EKDWEaDFZbYEBRYQoakZBhJk1WW2BAUYCRA5DzW2EKPWAEgDYDgQGQYQo4kZBhJhFWW2EaSFZbYEBRYQpKkZBhJk1WW2BAUYCRA5DzW2EKbWAEgDYDgQGQYQpokZBhJhFWW2EahlZbYEBRYQp6kZBhJk1WW2BAUYCRA5DzW2EKnWAEgDYDgQGQYQqYkZBhJhFWW2EawVZbYEBRYQqqkZBhJk1WW2BAUYCRA5DzW2EKzWAEgDYDgQGQYQrIkZBhJhFWW2Ea/1ZbYEBRYQrakZBhJk1WW2BAUYCRA5DzW2EK/WAEgDYDgQGQYQr4kZBhJhFWW2EbO1ZbYEBRYQsKkZBhJk1WW2BAUYCRA5DzW2ELLWAEgDYDgQGQYQsokZBhJhFWW2EbdlZbYEBRYQs6kZBhJk1WW2BAUYCRA5DzW2ELXWAEgDYDgQGQYQtYkZBhJhFWW2EbslZbYEBRYQtqkZBhJk1WW2BAUYCRA5DzW2ELjWAEgDYDgQGQYQuIkZBhJhFWW2EcD1ZbYEBRYQuakZBhJk1WW2BAUYCRA5DzW2ELvWAEgDYDgQGQYQu4kZBhJhFWW2EcTlZbYEBRYQvKkZBhJk1WW2BAUYCRA5DzW2EL7WAEgDYDgQGQYQvokZBhJhFWW2EciVZbYEBRYQv6kZBhJk1WW2BAUYCRA5DzW2EMHWAEgDYDgQGQYQwYkZBhJ65WW2Ec1VZbYEBRYQwqkZBhKHZWW2BAUYCRA5DzW2EMTWAEgDYDgQGQYQxIkZBhJhFWW2EdQ1ZbYEBRYQxakZBhJk1WW2BAUYCRA5DzW2EMfWAEgDYDgQGQYQx4kZBhJhFWW2Edg1ZbYEBRYQyKkZBhJk1WW2BAUYCRA5DzW2EMrWAEgDYDgQGQYQyokZBhJ65WW2EdvlZbYEBRYQy6kZBhKHZWW2BAUYCRA5DzW2EM3WAEgDYDgQGQYQzYkZBhJ65WW2Ed71ZbYEBRYQzqkZBhKHZWW2BAUYCRA5DzW2ENDWAEgDYDgQGQYQ0IkZBhJ65WW2EeFlZbYEBRYQ0akZBhKQ1WW2BAUYCRA5DzW2ENK2EemFZbYEBRYQ04kZBhJk1WW2BAUYCRA5DzW2ENW2AEgDYDgQGQYQ1WkZBhJhFWW2Ee41ZbYEBRYQ1okZBhJk1WW2BAUYCRA5DzW2ENi2AEgDYDgQGQYQ2GkZBhJhFWW2EfHlZbYEBRYQ2YkZBhJk1WW2BAUYCRA5DzW2ENu2AEgDYDgQGQYQ22kZBhJhFWW2EfWlZbYEBRYQ3IkZBhJk1WW2BAUYCRA5DzW2EN62AEgDYDgQGQYQ3mkZBhKYhWW2EfllZbYEBRYQ34kZBhJk1WW2BAUYCRA5DzW2EOG2AEgDYDgQGQYQ4WkZBhJhFWW2Ef5FZbYEBRYQ4okZBhJk1WW2BAUYCRA5DzW2EOS2AEgDYDgQGQYQ5GkZBhJhFWW2EgH1ZbYEBRYQ5YkZBhJk1WW2BAUYCRA5DzW2EOe2AEgDYDgQGQYQ52kZBhJhFWW2EgWlZbYEBRYQ6IkZBhJk1WW2BAUYCRA5DzW2EOq2AEgDYDgQGQYQ6mkZBhJhFWW2EglVZbYEBRYQ64kZBhJk1WW2BAUYCRA5DzW2EO22AEgDYDgQGQYQ7WkZBhJhFWW2Eg0FZbYEBRYQ7okZBhJk1WW2BAUYCRA5DzW2EPC2AEgDYDgQGQYQ8GkZBhJhFWW2EhFFZbYEBRYQ8YkZBhJk1WW2BAUYCRA5DzW2EPO2AEgDYDgQGQYQ82kZBhJhFWW2EhUFZbYEBRYQ9IkZBhJk1WW2BAUYCRA5DzW2EPa2AEgDYDgQGQYQ9mkZBhJhFWW2Ehi1ZbYEBRYQ94kZBhJk1WW2BAUYCRA5DzW2EPm2AEgDYDgQGQYQ+WkZBhJhFWW2EhyVZbYEBRYQ+okZBhJk1WW2BAUYCRA5DzW2EPy2AEgDYDgQGQYQ/GkZBhJhFWW2EiBlZbYEBRYQ/YkZBhJk1WW2BAUYCRA5DzW2EP+2AEgDYDgQGQYQ/2kZBhJhFWW2EiQFZbYEBRYRAIkZBhJk1WW2BAUYCRA5DzW2EQK2AEgDYDgQGQYRAmkZBhJhFWW2EifFZbYEBRYRA4kZBhJk1WW2BAUYCRA5DzW2EQW2AEgDYDgQGQYRBWkZBhJhFWW2EiuFZbYEBRYRBokZBhJk1WW2BAUYCRA5DzW2EQi2AEgDYDgQGQYRCGkZBhJhFWW2EjE1ZbYEBRYRCYkZBhJk1WW2BAUYCRA5DzW2EQu2AEgDYDgQGQYRC2kZBhJhFWW2EjVVZbYEBRYRDIkZBhJk1WW2BAUYCRA5DzW2EQ62AEgDYDgQGQYRDmkZBhJhFWW2EjkVZbYEBRYRD4kZBhJk1WW2BAUYCRA5DzW2ERG2AEgDYDgQGQYREWkZBhJhFWW2EjzlZbYEBRYREokZBhJk1WW2BAUYCRA5DzW2ERS2AEgDYDgQGQYRFGkZBhJ65WW2EkEFZbYEBRYRFYkZBhKHZWW2BAUYCRA5DzW2ERe2AEgDYDgQGQYRF2kZBhJhFWW2Ekf1ZbYEBRYRGIkZBhJk1WW2BAUYCRA5DzW2ERq2AEgDYDgQGQYRGmkZBhJhFWW2Eku1ZbYEBRYRG4kZBhJk1WW2BAUYCRA5DzW2ER22AEgDYDgQGQYRHWkZBhJhFWW2Ek+VZbYEBRYRHokZBhJk1WW2BAUYCRA5DzW2ESC2AEgDYDgQGQYRIGkZBhJ65WW2ElOFZbYEBRYRIYkZBhKhBWW2BAUYCRA5DzW2ESO2AEgDYDgQGQYRI2kZBhJhFWW2ElalZbYEBRYRJIkZBhJk1WW2BAUYCRA5DzW2AAYRJbYRejVltQYABl3q2+7wA2kFBgAIBbhIEQFWESgVc2kVBgAYEBkFBhEmtWW1BQgJFQUJGQUFZbYABhEpZhF6NWW1BgAGXerb7vADKQUGAAgFuEgRAVYRK8VzKRUGABgQGQUGESplZbUFCAkVBQkZBQVltgAGES0WEXo1ZbUGAAZd6tvu8AUpBQYABbg4EQFWES91eBYABSYAGBAZBQYRLgVltQgJFQUJGQUFZbYGBgAGAIkFBgQIKEUWAghgFgAIVa8YBhEyFXYACA/VtQUJGQUFZbYABhEzJhF6NWW1BgAGXerb7vAAGQUGAAW4OBEBVhE1pXYACCAZFQYAGBAZBQYRNBVltQgJFQUJGQUFZbYACAVJBQkFZbYABhE3dhF6NWW1BgAGXerb7vABeQUGAAW4OBEBVhE59XYACCF5FQYAGBAZBQYROGVltQgJFQUJGQUFZbYABhE7NhF6NWW1BgAGXerb7vADSQUGAAgFuEgRAVYRPZVzSRUGABgQGQUGETw1ZbUFCAkVBQkZBQVltgAGET7mEXo1ZbUGAAZd6tvu8ABpBQYABbg4EQFWEUNVd///////////////////////////////////////////+CBpFQYAGBAZBQYRP9VltQgJFQUJGQUFZbYABhFElhF6NWW1BgAGXerb7vABOQUGAAgFuEgRAVYRRyV2ABgxORUGABgQGQUGEUWVZbUFCAkVBQkZBQVltgAGEUh2EXo1ZbUGAAZd6tvu8AIJBQf/////8AAAAAAAAAAAAAAAAAAAAAAAAAAAAAAAAAAAAAYABSYACAW4SBEBVhFNVXYARgACCRUGABgQGQUGEUu1ZbUH8pBFpZIAfQwkbvAsIiNXDalSLQzw9zKCx5obyPC7LCOIEUYRUCV2AAkVBbUICRUFCRkFBWW2AAYRUWYRejVltQYABl3q2+7wCkkFCAYBBSYABbg4EQFWEVSFdgBGADYAKDYAZgEKRgAYEBkFBhFSlWW1CAkVBQkZBQVltgAGEVXGEXo1ZbUGAAZd6tvu8AGpBQYACAW4SBEBVhFYVXgmAAGpFQYAGBAZBQYRVsVltQUICRUFCRkFBWW2AAYRWaYRejVltQYABl3q2+7wAbkFBgAFuDgRAVYRXCV4FgABuRUGABgQGQUGEVqVZbUICRUFCRkFBWW2AAYRXWYRejVltQYABl3q2+7wBCkFBgAIBbhIEQFWEV/FdCkVBgAYEBkFBhFeZWW1BQgJFQUJGQUFZbYABhFhFhF6NWW1BgAGXerb7vADGQUGAAMGAAW4WBEBVhFjpXgTGSUGABgQGQUGEWI1ZbUFBQgJFQUJGQUFZbYABhFlBhF6NWW1BgAGXerb7vAEiQUGAAgFuEgRAVYRZ2V0iRUGABgQGQUGEWYFZbUFCAkVBQkZBQVltgAGEWi2EXo1ZbUGAAZd6tvu8APZBQYACAW4SBEBVhFrFXPZFQYAGBAZBQYRabVltQUICRUFCRkFBWW2AAYRbGYRejVltQYABl3q2+7wBDkFBgAIBbhIEQFWEW7FdDkVBgAYEBkFBhFtZWW1BQgJFQUJGQUFZbYAKBgVSBEGEXB1dgAID9W5BgAFJgIGAAIAFgAJFQkFCAVGEXIpBhKlpWW4BgHwFgIICRBAJgIAFgQFGQgQFgQFKAkpGQgYFSYCABgoBUYRdOkGEqWlZbgBVhF5tXgGAfEGEXcFdhAQCAg1QEAoNSkWAgAZFhF5tWW4IBkZBgAFJgIGAAIJBbgVSBUpBgAQGQYCABgIMRYRd+V4KQA2AfFoIBkVtQUFBQUIFWW2AAYAFgAFRhF7SRkGEqulZbYACBkFVQYABUkFCQVltgAGEXzGEXo1ZbUGAAZd6tvu8ABJBQYABbg4EQFWEX9FdgAYIEkVBgAYEBkFBhF9tWW1CAkVBQkZBQVltgAGEYCGEXo1ZbUGAAZd6tvu8AN5BQYABbg4EQFWEYMFdgIGAAgDdgAYEBkFBhGBdWW1CAkVBQkZBQVltgAGEYRGEXo1ZbUGAAZd6tvu8AoJBQgGAQUmAAW4OBEBVhGG9XYAZgEKBgAYEBkFBhGFdWW1CAkVBQkZBQVltgAGEYg2EXo1ZbUGAAZd6tvu8AM5BQYACAW4SBEBVhGKlXM5FQYAGBAZBQYRiTVltQUICRUFCRkFBWW2AAYRi+YRejVltQYABl3q2+7wBTkFBgAFuDgRAVYRjoV2Perb7vYABSYAGBAZBQYRjNVltQgJFQUJGQUFZbYABhGPxhF6NWW1BgAGXerb7vADqQUGAAgFuEgRAVYRkiVzqRUGABgQGQUGEZDFZbUFCAkVBQkZBQVltgAGEZN2EXo1ZbUGAAZd6tvu8AUZBQYACBYABSYABbhIEQFWEZZFdgAFGRUGABgQGQUGEZTFZbUICRUFCAkVBQkZBQVltgAGEZfGEXo1ZbUGAAZd6tvu8AHZBQYABbg4EQFWEZpFeBYAAdkVBgAYEBkFBhGYtWW1CAkVBQkZBQVltgYGAAYAWQUGAggwGDUWBAUWAggYOFYACIWvGAYRnTV2AAgP1bgZVQUFBQUFCRkFBWW2AAgGACkFBgIIMBg1GDYCCBg4VgAIha8YBhGgJXYACA/VtQUFBQUJGQUFZbYABhGhZhF6NWW1BbYQPoWhEVYRpAV2ABgGAAgoJUYRo0kZBhKrpWW5JQUIGQVVBhGhhWW2ABVJBQkFZbYABhGlJhF6NWW1BgAGXerb7vABCQUGAAgFuEgRAVYRp7V4JgARCRUGABgQGQUGEaYlZbUFCAkVBQkZBQVltgAGEakGEXo1ZbUGAAZd6tvu8ARJBQYACAW4SBEBVhGrZXRJFQYAGBAZBQYRqgVltQUICRUFCRkFBWW2AAYRrLYRejVltQYABl3q2+7wARkFBgAIBbhIEQFWEa9FdgAYMRkVBgAYEBkFBhGttWW1BQgJFQUJGQUFZbYABhGwlhF6NWW1BgAGXerb7vAD6QUGAAW4OBEBVhGzFXYCBgAIA+YAGBAZBQYRsYVltQgJFQUJGQUFZbYABhG0VhF6NWW1BgAGXerb7vAEWQUGAAgFuEgRAVYRtrV0WRUGABgQGQUGEbVVZbUFCAkVBQkZBQVltgAGEbgGEXo1ZbUGAAZd6tvu8AApBQYABbg4EQFWEbqFdgAYICkVBgAYEBkFBhG49WW1CAkVBQkZBQVltgAGEbvGEXo1ZbUGAAZd6tvu8ACJBQYABbg4EQFWEcBVd///////////////////////////////////////////9gAIMIkVBgAYEBkFBhG8tWW1CAkVBQkZBQVltgAGEcGWEXo1ZbUGAAZd6tvu8AVJBQgGAAVWAAW4OBEBVhHERXYABUkVBgAYEBkFBhHCxWW1CAkVBQkZBQVltgAGEcWGEXo1ZbUGAAZd6tvu8AWpBQYACAW4SBEBVhHH5XWpFQYAGBAZBQYRxoVltQUICRUFCRkFBWW2AAYRyTYRejVltQYABl3q2+7wAZkFBgAFuDgRAVYRy5V4EZkVBgAYEBkFBhHKJWW1Bl3q2+7wAZgRRhHMxXgBmQUFuAkVBQkZBQVltgYICCURRhHRpXYEBRfwjDeaAAAAAAAAAAAAAAAAAAAAAAAAAAAAAAAAAAAAAAgVJgBAFhHRGQYStLVltgQFGAkQOQ/VtgAGAHkFBgIIMBg1FgQISChGAAh1rxgGEdOldgAID9W1BQUFCRkFBWW2AAYR1NYRejVltQYABl3q2+7wChkFCAYBBSYABbg4EQFWEdeVeAYAZgEKFgAYEBkFBhHWBWW1CAkVBQkZBQVltgAGEdjWEXo1ZbUGAAZd6tvu8AFpBQYABbg4EQFWEdtFeBghaRUGABgQGQUGEdnFZbUICRUFCRkFBWW2BgYABgBJBQYCCDAYNRYEBRgYGDhWAAiFrxgGEd4ldgAID9W4GVUFBQUFBQkZBQVltgYGAAYAiQUGBAgoRRYCCGAWAAhVrxgGEeD1dgAID9W1BQkZBQVltgAGCAglEUYR5cV2BAUX8Iw3mgAAAAAAAAAAAAAAAAAAAAAAAAAAAAAAAAAAAAAIFSYAQBYR5TkGErt1ZbYEBRgJEDkP1bYABgAZBQYCCDAWAggQFRYB8aYCCCAVJgIGBAUWCAg2AAhlrxgGEeildgAID9W2BAUVGTUFBQUJGQUFZbYABhHqJhF6NWW1BbYQPoWhEVYR7bV2ABgGAAgoJUYR7AkZBhKrpWW5JQUIGQVVBDYAFUYR7VkZBhLAZWW1BhHqRWW2ABVJBQkFZbYABhHu1hF6NWW1BgAGXerb7vAEaQUGAAgFuEgRAVYR8TV0aRUGABgQGQUGEe/VZbUFCAkVBQkZBQVltgAGEfKGEXo1ZbUGAAZd6tvu8ABZBQYABbg4EQFWEfUFdgAYIFkVBgAYEBkFBhHzdWW1CAkVBQkZBQVltgAGEfZGEXo1ZbUGAAZd6tvu8AOZBQYABbg4EQFWEfjFdgIGAAgDlgAYEBkFBhH3NWW1CAkVBQkZBQVltgAGACg4OQkYBgAYFUAYCCVYCRUFBgAZADkGAAUmAgYAAgAWAAkJGSkJGSkJGSkJGSUJGCYR/VkpGQYS3uVltQYAKAVJBQkFCSkVBQVltgAGEf7mEXo1ZbUGAAZd6tvu8AWZBQYACAW4SBEBVhIBRXWZFQYAGBAZBQYR/+VltQUICRUFCRkFBWW2AAYSApYRejVltQYABl3q2+7wA4kFBgAIBbhIEQFWEgT1c4kVBgAYEBkFBhIDlWW1BQgJFQUJGQUFZbYABhIGRhF6NWW1BgAGXerb7vAEGQUGAAgFuEgRAVYSCKV0GRUGABgQGQUGEgdFZbUFCAkVBQkZBQVltgAGEgn2EXo1ZbUGAAZd6tvu8AMJBQYACAW4SBEBVhIMVXMJFQYAGBAZBQYSCvVltQUICRUFCRkFBWW2AAYSDaYRejVltQYABl3q2+7wCjkFCAYBBSYABbg4EQFWEhCldgA2ACgmAGYBCjYAGBAZBQYSDtVltQgJFQUJGQUFZbYABhIR5hF6NWW1BgAGXerb7vAAuQUGAAW4OBEBVhIUZXgWAgC5FQYAGBAZBQYSEtVltQgJFQUJGQUFZbYABhIVphF6NWW1BgAGXerb7vAEeQUGAAgFuEgRAVYSGAV0eRUGABgQGQUGEhalZbUFCAkVBQkZBQVltgAGEhlWEXo1ZbUGAAZd6tvu8AHJBQYACAW4SBEBVhIb5XgmAAHJJQYAGBAZBQYSGlVltQUICRUFCRkFBWW2AAYSHTYRejVltQYABl3q2+7wA1kFBgAIBbhIEQFWEh+1dgADWRUGABgQGQUGEh41ZbUFCAkVBQkZBQVltgAGEiEGEXo1ZbUGAAZd6tvu8AVZBQYABbg4EQFWEiNleBYABVYAGBAZBQYSIfVltQgJFQUJGQUFZbYABhIkphF6NWW1BgAGXerb7vABiQUGAAW4OBEBVhInJXYACCGJFQYAGBAZBQYSJZVltQgJFQUJGQUFZbYABhIoZhF6NWW1BgAGXerb7vAAOQUGAAW4OBEBVhIq5XYACCA5FQYAGBAZBQYSKVVltQgJFQUJGQUFZbYABhIsJhF6NWW1BgAGXerb7vAAeQUGAAW4OBEBVhIwlXf///////////////////////////////////////////ggeRUGABgQGQUGEi0VZbUICRUFCRkFBWW2AAYSMdYRejVltQYABl3q2+7wCikFCAYBBSYABbg4EQFWEjS1dgAoFgBmAQomABgQGQUGEjMFZbUICRUFCRkFBWW2AAYSNfYRejVltQYABl3q2+7wAKkFBgAFuDgRAVYSOHV2ABggqRUGABgQGQUGEjblZbUICRUFCRkFBWW2AAYSObYRejVltQYABl3q2+7wAUkFBgAIBbhIEQFWEjw1eCgxSRUGABgQGQUGEjq1ZbUFCAkVBQkZBQVltgAGEj2GEXo1ZbUGAAZd6tvu8AQJBQYABgAUMDYABbhYEQFWEkBFeBQJJQYAGBAZBQYSPtVltQUFCAkVBQkZBQVltgYGCAglEUYSRWV2BAUX8Iw3mgAAAAAAAAAAAAAAAAAAAAAAAAAAAAAAAAAAAAAIFSYAQBYSRNkGErS1ZbYEBRgJEDkP1bYABgBpBQYCCDAYNRYECEgoRgAIda8YBhJHZXYACA/VtQUFBQkZBQVltgAGEkiWEXo1ZbUGAAZd6tvu8AFZBQYACAW4SBEBVhJLBXghWRUGABgQGQUGEkmVZbUFCAkVBQkZBQVltgAGEkxWEXo1ZbUGAAZd6tvu8AEpBQYACAW4SBEBVhJO5XgmABEpFQYAGBAZBQYSTVVltQUICRUFCRkFBWW2AAYSUDYRejVltQYABl3q2+7wA7kFBgADBgAFuFgRAVYSUsV4E7klBgAYEBkFBhJRVWW1BQUICRUFCRkFBWW2AAgGADkFBgIIMBg1FgQFFgFIGDhWAAiFrxgGElXFdgAID9W4FRlVBQUFBQUJGQUFZbYABhJXRhF6NWW1BgAGXerb7vAAmQUGAAW4OBEBVhJb1Xf///////////////////////////////////////////YAGDCZFQYAGBAZBQYSWDVltQgJFQUJGQUFZbYABgQFGQUJBWW2AAgP1bYACA/VtgAIGQUJGQUFZbYSXugWEl21ZbgRRhJflXYACA/VtQVltgAIE1kFBhJguBYSXlVluSkVBQVltgAGAggoQDEhVhJidXYSYmYSXRVltbYABhJjWEgoUBYSX8VluRUFCSkVBQVlthJkeBYSXbVluCUlBQVltgAGAgggGQUGEmYmAAgwGEYSY+VluSkVBQVltgAID9W2AAgP1bYABgHxlgH4MBFpBQkZBQVlt/Tkh7cQAAAAAAAAAAAAAAAAAAAAAAAAAAAAAAAAAAAABgAFJgQWAEUmAkYAD9W2Emu4JhJnJWW4EBgYEQZ///////////ghEXFWEm2ldhJtlhJoNWW1uAYEBSUFBQVltgAGEm7WElx1ZbkFBhJvmCgmEmslZbkZBQVltgAGf//////////4IRFWEnGVdhJxhhJoNWW1thJyKCYSZyVluQUGAggQGQUJGQUFZbgoGDN2AAg4MBUlBQUFZbYABhJ1FhJ0yEYSb+VlthJuNWW5BQgoFSYCCBAYSEhAERFWEnbVdhJ2xhJm1WW1thJ3iEgoVhJy9WW1CTklBQUFZbYACCYB+DARJhJ5VXYSeUYSZoVltbgTVhJ6WEgmAghgFhJz5WW5FQUJKRUFBWW2AAYCCChAMSFWEnxFdhJ8NhJdFWW1tgAIIBNWf//////////4ERFWEn4ldhJ+FhJdZWW1thJ+6EgoUBYSeAVluRUFCSkVBQVltgAIFRkFCRkFBWW2AAgoJSYCCCAZBQkpFQUFZbYABbg4EQFWEoMVeAggFRgYQBUmAggQGQUGEoFlZbYACEhAFSUFBQUFZbYABhKEiCYSf3VlthKFKBhWEoAlZbk1BhKGKBhWAghgFhKBNWW2Eoa4FhJnJWW4QBkVBQkpFQUFZbYABgIIIBkFCBgQNgAIMBUmEokIGEYSg9VluQUJKRUFBWW2AAgZBQkZBQVlthKKuBYSiYVluCUlBQVltgAGAgggGQUGEoxmAAgwGEYSiiVluSkVBQVltgAHP//////////////////////////4IWkFCRkFBWW2AAYSj3gmEozFZbkFCRkFBWW2EpB4FhKOxWW4JSUFBWW2AAYCCCAZBQYSkiYACDAYRhKP5WW5KRUFBWW2AAgP1bYACA/VtgAICDYB+EARJhKUhXYSlHYSZoVltbgjWQUGf//////////4ERFWEpZVdhKWRhKShWW1tgIIMBkVCDYAGCAoMBERVhKYFXYSmAYSktVltbklCSkFBWW2AAgGAgg4UDEhVhKZ9XYSmeYSXRVltbYACDATVn//////////+BERVhKb1XYSm8YSXWVltbYSnJhYKGAWEpMlZbklCSUFCSUJKQUFZbYAB///////////////////////////8AAAAAAAAAAAAAAACCFpBQkZBQVlthKgqBYSnVVluCUlBQVltgAGAgggGQUGEqJWAAgwGEYSoBVluSkVBQVlt/Tkh7cQAAAAAAAAAAAAAAAAAAAAAAAAAAAAAAAAAAAABgAFJgImAEUmAkYAD9W2AAYAKCBJBQYAGCFoBhKnJXYH+CFpFQW2AgghCBA2EqhVdhKoRhKitWW1tQkZBQVlt/Tkh7cQAAAAAAAAAAAAAAAAAAAAAAAAAAAAAAAAAAAABgAFJgEWAEUmAkYAD9W2AAYSrFgmEl21ZbkVBhKtCDYSXbVluSUIKCAZBQgIIRFWEq6FdhKudhKotWW1uSkVBQVltgAIKCUmAgggGQUJKRUFBWW39JbnZhbGlkIGlucHV0IGxlbmd0aAAAAAAAAAAAAAAAAGAAggFSUFZbYABhKzVgFINhKu5WW5FQYStAgmEq/1ZbYCCCAZBQkZBQVltgAGAgggGQUIGBA2AAgwFSYStkgWErKFZbkFCRkFBWW39JbnZhbGlkIGlucHV0IGRhdGEgbGVuZ3RoLgAAAAAAAGAAggFSUFZbYABhK6FgGoNhKu5WW5FQYSusgmEra1ZbYCCCAZBQkZBQVltgAGAgggGQUIGBA2AAgwFSYSvQgWErlFZbkFCRkFBWW39OSHtxAAAAAAAAAAAAAAAAAAAAAAAAAAAAAAAAAAAAAGAAUmASYARSYCRgAP1bYABhLBGCYSXbVluRUGEsHINhJdtWW5JQgmEsLFdhLCthK9dWW1uCggaQUJKRUFBWW2AAgpBQkpFQUFZbYACBkFCBYABSYCBgACCQUJGQUFZbYABgIGAfgwEEkFCRkFBWW2AAgoIbkFCSkVBQVltgAGAIgwJhLKR///////////////////////////////////////////+CYSxnVlthLK6Gg2EsZ1ZblVCAGYQWk1CAhhaEF5JQUFCTklBQUFZbYACBkFCRkFBWW2AAYSzrYSzmYSzhhGEl21ZbYSzGVlthJdtWW5BQkZBQVltgAIGQUJGQUFZbYS0Fg2Es0FZbYS0ZYS0RgmEs8lZbhIRUYSx0VluCVVBQUFBWW2AAkFZbYS0uYS0hVlthLTmBhIRhLPxWW1BQUFZbW4GBEBVhLV1XYS1SYACCYS0mVltgAYEBkFBhLT9WW1BQVltgH4IRFWEtoldhLXOBYSxCVlthLXyEYSxXVluBAWAghRAVYS2LV4GQUFthLZ9hLZeFYSxXVluDAYJhLT5WW1BQW1BQUFZbYACCghyQUJKRUFBWW2AAYS3FYAAZhGAIAmEtp1ZbGYCDFpFQUJKRUFBWW2AAYS3eg4NhLbRWW5FQgmACAoIXkFCSkVBQVlthLfiDg2EsN1ZbZ///////////gREVYS4RV2EuEGEmg1ZbW2EuG4JUYSpaVlthLiaCgoVhLWFWW2AAYB+DEWABgRRhLlVXYACEFWEuQ1eChwE1kFBbYS5NhYJhLdJWW4ZVUGEutVZbYB8ZhBZhLmOGYSxCVltgAFuCgRAVYS6LV4SJATWCVWABggGRUGAghQGUUGAggQGQUGEuZlZbhoMQFWEuqFeEiQE1YS6kYB+JFoJhLbRWW4NVUFtgAWACiAIBiFVQUFBbUFBQUFBQUFb+omRpcGZzWCISIDEkITSIwvH8pZaHh/DD6W+6hGkSmoB5jhHudSkDtL/cZHNvbGNDAAgTADM=",
          "touched": true,
          "read": true
        },
        "0x70A0bb66cF004D0FbdB6880Db1E283871cF13D27": {
          "address": "0x70A0bb66cF004D0FbdB6880Db1E283871cF13D27",
          "read": true
        },
        "0x85dA99c8a7C2C95964c8EfD687E95E632Fc533D6": {
          "address": "0x85dA99c8a7C2C95964c8EfD687E95E632Fc533D6",
          "nonce": 4163,
          "read": true
        }
      }
    }
  ]
}
