{
  "accountTrie": {
    "02f67bcc69466e6f820cfaca73b86abd721b075cdbc55f2f8073d18d92c9bcda": "f8918080808080a0162c91a1ecf6c3da75a44156f3567e6831e19d3723f161e6e9e257fc3c77b28c8080808080a0218942d17c031607cd121c93fcdd68e677a875886ab22833448c66aa74d9d036a0b801f67a7f922907b02d00f427eed4ffc3a3e79520f26a87981b032ca216f1088080a0e002b09f0e736f544266c91c9667d78d594fcadb9c825243d16dbad8625b8d3180",
    "19ce8bf875c68141889a39462e4d5d668ff713563f2ab21c7c6dded66e96f5c1": "f8769f3eec2b84f0ba344fd4b4d2f022469febe7a772c4789acfc119eb558ab1da3db854f8528215508c033b2e3c5f6b57b61a2f7e07a056e81f171bcc55a6ff8345e692c0f86e5b48e01b996cadc001622fb5e363b421a0c5d2460186f7233c927e7db2dcc703c0e500b653ca82273b7bfad8045d85a470",
    "2c5cd267131a5b9f7bf4e31db2dbff78073fb2a2828c97c79854027ed1fa1f6b": "f869a020c1ec272906bc470ab1b71a6d34f39bc8f50066523eb1bff07806f20088c5f6b846f8440780a0324d7f3028623285ce04f57b064066819fda541fd6e3d14d2f64aefde5342654a07eea3a48563e7b938852aafc93d760d31a84ad520adf1128af576cdd65ee9a8e",
    "30680f9eede30dfb471199952e2139efe802084e5b09c5ee13d4c899067e2c47": "f871a082251e1b1db9677e9d7eba4e4303308187c1a06f127dd8ab97366437227ee86280808080808080a06650fd4f2b182fc1728a03bf288350b1874154b2102f0d617bf12030dc6bb71e808080808080a050a1bd38abb82fa8de98ca4c88d01a02d2cfe832d7eb4cc6d7575c143ea6304480",
    "386074f0aeea35b823311132c5fa72df13f28bb990d5dc211fcfb56216230d80": "f90211a0904033c9ce0a79b5a5d015fd55f475d14f88fb1f10e622852c5e67b900e6b526a002f67bcc69466e6f820cfaca73b86abd721b075cdbc55f2f8073d18d92c9bcdaa0dd342585783a6ee4f0a371fc15d768acb4be61716720e20eecd272bbf094eb0ea07e902a8d81775dc7f29ceb5265694be080a563f8f1d38b1c11847857e19368e1a033fd90bc1d66577d8671d8eb81f5253719db089c55f15834f98b8932a044a9e9a0f774048c065920fd49542a24153ddec3c313ed28b9c2c62521fa519e3ba8c697a0f820e589d2219ae3f297594cfd731f2ec64d19b1ba0f918369e9b413c126732da028f484a5a5a91b5cd65ad2948085d0fd9da8bbd3076b393a781fa923ea698573a0e8fb25e187b7e2d5f0eb7fc74e9d9368c21b9592d81521f29df2a1f11e740c9aa0e6e82a109ac4e5daed8f76043d8393d0298472e0518ff96a48b8492e479881fba0f3f30228e72d130ec03141eed45d01fd8fe1f66af37f2d7ddce915b8e43a852da030680f9eede30dfb471199952e2139efe802084e5b09c5ee13d4c899067e2c47a0d57ebe66b80f4370e375f3d73af2f08ecec12343bc35e582320cde8c8c5827a2a0d5c3f35b3433034102536147a3dcfd190c7bb81fe37c4801a018ecc677f34deca061c55a2935a894ae408aa9e7e507d0646596aef8e3300527b4ec9aa50b3068b9a092825616236bb69e7dce9723d0bcf9a7f9da80602dcab4c489d1e8ed8f6b347f80",
    "6418660375247d783331995b40288f63e16dd85839b8b31dc5d604a7b74e245d": "f8729f30c7b7ae81a58eb98d9c78de4a1fd7fd9535fc953ed2be602daaa41767312ab850f84e808ad3c21bd2b1bb13686bfca056e81f171bcc55a6ff8345e692c0f86e5b48e01b996cadc001622fb5e363b421a0c5d2460186f7233c927e7db2dcc703c0e500b653ca82273b7bfad8045d85a470",
    "7baf9d624d828c354e2eb11f46c3b495896055e98fbc25341e72d3c204f44f5c": "f85180a019ce8bf875c68141889a39462e4d5d668ff713563f2ab21c7c6dded66e96f5c180808080808080808080a0b352e4c72d853473be5eac69cf10adfdc61a3747ec26a4b424f0a29292fc1d3780808080",
    "8209d247c445921cffdbfeaa1ff0e8f81ee130c7d2a747ef27994fb77aaa094a": "f851a0e29cd6451f96ed556022f6076eacfbb24d0680280f8a4a588419a89b9a4260aa80808080808080a06418660375247d783331995b40288f63e16dd85839b8b31dc5d604a7b74e245d8080808080808080",
    "904033c9ce0a79b5a5d015fd55f475d14f88fb1f10e622852c5e67b900e6b526": "f8718080a09ccf8bf2479d96539ce9af2d29128f58672a94f3ca32ad117990a7f4c5e1622a80808080a08d468e494a3149288ecde257ca26a9828a3e7f3b267c8964d8b5172cd71f3a1ba0d6e7baf9ad6b04dff3a25f53357482c94918662b5267635373129b88ba77616f8080808080808080",
    "d57ebe66b80f4370e375f3d73af2f08ecec12343bc35e582320cde8c8c5827a2": "f8918080808080a03df28eb6e7d17f27be9351542dad778b5edbbb5a036df5baef45a8b9b8b8426a8080a051a7eeaa81817cd1de8e153fb4ecc49c8d2c21ca646602c2899ae0759eb842368080808080a0daafaefeddc83b8266d3135ac24eb4581a5470b6e4e67b66fb58cf54a36071e0a099a6632dc218993740f5b428ad3602ef19498960c916c08326a1b5e6c61af9f280",
    "d5c3f35b3433034102536147a3dcfd190c7bb81fe37c4801a018ecc677f34dec": "f869a039cdd0a87f63a204688da939157a472162fd897a259114c1239f94be46a48774b846f8440180a056e81f171bcc55a6ff8345e692c0f86e5b48e01b996cadc001622fb5e363b421a03517a31cec20558a3e62be595ee8133d0b4890f6b8947bf06e0e4c33b6fd82ae",
    "d6e7baf9ad6b04dff3a25f53357482c94918662b5267635373129b88ba77616f": "f869a020aa49c1d12105de82bf1c7ed7c54f741e846b6b70539e92d2e0dedfc801491fb846f8448080a04e71219ea0dfee98b22365f87e6c87ce10a12696c07eb611d45123aeb52c665da0bc022a807ab2cb7c98fd7ac2002a893918264d6dea60bd4797cac0d44ffca0f6",
    "daafaefeddc83b8266d3135ac24eb4581a5470b6e4e67b66fb58cf54a36071e0": "f873a0209bad3efd7d22d728e0b92c3bcdab947570414641f88051189032c4b246dc34b850f84e808ad3c21e4e762688aefe7ca056e81f171bcc55a6ff8345e692c0f86e5b48e01b996cadc001622fb5e363b421a0c5d2460186f7233c927e7db2dcc703c0e500b653ca82273b7bfad8045d85a470",
    "f3f30228e72d130ec03141eed45d01fd8fe1f66af37f2d7ddce915b8e43a852d": "f8b180a031d1eb10fdf37ef90417d463e9e3d1dad5bab6a3e8b38ccc4eaa7442503174578080a0a04e84d92c0b9a1bf76647de42ecc22243261dbc4fa716e6df74039533eb1e90a07baf9d624d828c354e2eb11f46c3b495896055e98fbc25341e72d3c204f44f5ca088051b9667deb59e99614788c0d0aedaec2b9658bd714c851f16eb1d1ad3965280808080a0274e2e0e8f8fc8484e8dbec1d909ba8aa63f30695c18d02d0698ff7ac8d89b4b8080808080",
    "f774048c065920fd49542a24153ddec3c313ed28b9c2c62521fa519e3ba8c697": "f871808080a08209d247c445921cffdbfeaa1ff0e8f81ee130c7d2a747ef27994fb77aaa094aa02c5cd267131a5b9f7bf4e31db2dbff78073fb2a2828c97c79854027ed1fa1f6ba03d2c9faa594230d254816429f8dc379c30c8b3679ef67f44dd31f3e6822f9a498080808080808080808080"
  },
  "storageTrie": {
    "324d7f3028623285ce04f57b064066819fda541fd6e3d14d2f64aefde5342654": "f8718080a095b67224ff76fcdc2ccb1b5ee200b0d5eb9e2bdeb5f546b1980e89576b897a8e808080a0f73a709aa61399427a8571ad941f7bd9edd985c66122885945ebd7a60929962f8080a08a2923de40c6a7cc1baf39b0ff5dabb5a1915421648bff8a690d78485ccf305d80808080808080",
    "95b67224ff76fcdc2ccb1b5ee200b0d5eb9e2bdeb5f546b1980e89576b897a8e": "e7a0390decd9548b62a8d60345a988386fc84ba6bc95484008f6362f93160ef3e56385840562d530"
  },
  "parentStateRoot": "0x386074f0aeea35b823311132c5fa72df13f28bb990d5dc211fcfb56216230d80",
  "transactionTraces": [
    {
      "txn": "0x02f8d48207d182155084b2d05e0084b2d05e0e83289cc794c3f3338ed0fd9c2013bd26c6b4da337858a486a880b864ce1b193a00000000000000000000000000000000000000000000000000000000000000040000000000000000000000000000000000000000000000000000000000000004000000000000000000000000000000000000000000000000000000000000ffefc001a0a38f8447f107262880a6be30515a6322c42ab5c5bfc9d6636aff242950ad4d6ea0756e12adbfbdf97b8336370fca0abb3936424c4cae6f8363ce47f42860b5e2d7",
      "delta": {
        "0x0000000000000000000000000000000000000000": {
          "address": "0x0000000000000000000000000000000000000000",
          "read": true
        },
        "0x275975E294128b1663980f4D00BcbAfBe6bAA411": {
          "address": "0x275975E294128b1663980f4D00BcbAfBe6bAA411",
          "nonce": 1,
          "storage": {
            "0x0000000000000000000000000000000000000000000000000000000000000000": "0x0000000000000000000000000000000000000000000000000000000000000003"
          },
          "storage_read": {
            "0x0000000000000000000000000000000000000000000000000000000000000000": {}
          },
          "code": "YIBgQFI0gBVhABBXYACA/VtQYAQ2EGEAYldgADVg4ByAYwfaaPUUYQBnV4BjLvw87hRhAHFXgGM/tcHLFGEAeVeAY4OB9YoUYQCMV4Bj0J3gihRhAKtXgGPttFUpFGEAs1dbYACA/VthAG9hAMZWWwBbYQBvYQDbVlthAG9hAIc2YARhATxWW2AAVVZbYQCVYABUgVZbYEBRYQCikZBhAWVWW2BAUYCRA5DzW2EAlWEA81ZbYQBvYQDBNmAEYQGWVlthAQ9WW2AAgFSQgGEA1YNhAc1WW5GQUFUAW2AAgFSQgGEA6oNhAc1WW5GQUFVgAID9W2AAgFSBgGEBAoNhAc1WW5GQUFVQYABUkFCQVluAYAFgAWCgGwMW/1uAW4EUYQEoV2AAgP1bUFZbgDVhATaBYQEbVluSkVBQVltgAGAggoQDEhVhAVFXYQFRYACA/VtgAGEBXYSEYQErVluUk1BQUFBWW4GBUmAggQFhATZWW2AAYAFgAWCgGwOCFmEBNlZbYQEdgWEBcVZbgDVhATaBYQGCVltgAGAggoQDEhVhAatXYQGrYACA/VtgAGEBXYSEYQGLVltjTkh7cWDgG2AAUmARYARSYCRgAP1bYABgABmCA2EB4FdhAeBhAbdWW1BgAQGQVv6iZGlwZnNYIhIgkjOGnZpL7+bYXKJwe3uBglJ1dwnSXBX5WGEFkRCuJKtkc29sY0MACBMAMw==",
          "code_read": "YIBgQFI0gBVhABBXYACA/VtQYAQ2EGEAYldgADVg4ByAYwfaaPUUYQBnV4BjLvw87hRhAHFXgGM/tcHLFGEAeVeAY4OB9YoUYQCMV4Bj0J3gihRhAKtXgGPttFUpFGEAs1dbYACA/VthAG9hAMZWWwBbYQBvYQDbVlthAG9hAIc2YARhATxWW2AAVVZbYQCVYABUgVZbYEBRYQCikZBhAWVWW2BAUYCRA5DzW2EAlWEA81ZbYQBvYQDBNmAEYQGWVlthAQ9WW2AAgFSQgGEA1YNhAc1WW5GQUFUAW2AAgFSQgGEA6oNhAc1WW5GQUFVgAID9W2AAgFSBgGEBAoNhAc1WW5GQUFVQYABUkFCQVluAYAFgAWCgGwMW/1uAW4EUYQEoV2AAgP1bUFZbgDVhATaBYQEbVluSkVBQVltgAGAggoQDEhVhAVFXYQFRYACA/VtgAGEBXYSEYQErVluUk1BQUFBWW4GBUmAggQFhATZWW2AAYAFgAWCgGwOCFmEBNlZbYQEdgWEBcVZbgDVhATaBYQGCVltgAGAggoQDEhVhAatXYQGrYACA/VtgAGEBXYSEYQGLVltjTkh7cWDgG2AAUmARYARSYCRgAP1bYABgABmCA2EB4FdhAeBhAbdWW1BgAQGQVv6iZGlwZnNYIhIgkjOGnZpL7+bYXKJwe3uBglJ1dwnSXBX5WGEFkRCuJKtkc29sY0MACBMAMw==",
          "touched": true,
          "read": true
        },
        "0x5b392B64b3aCFab17429bd57a12683A88794F006": {
          "address": "0x5b392B64b3aCFab17429bd57a12683A88794F006",
          "nonce": 1,
          "code": "YIBgQFI0gBVhABBXYACA/VtQYAQ2EGEAYldgADVg4ByAYwfaaPUUYQBnV4BjLvw87hRhAHFXgGM/tcHLFGEAeVeAY4OB9YoUYQCMV4Bj0J3gihRhAKtXgGPttFUpFGEAs1dbYACA/VthAG9hAMZWWwBbYQBvYQDbVlthAG9hAIc2YARhATxWW2AAVVZbYQCVYABUgVZbYEBRYQCikZBhAWVWW2BAUYCRA5DzW2EAlWEA81ZbYQBvYQDBNmAEYQGWVlthAQ9WW2AAgFSQgGEA1YNhAc1WW5GQUFUAW2AAgFSQgGEA6oNhAc1WW5GQUFVgAID9W2AAgFSBgGEBAoNhAc1WW5GQUFVQYABUkFCQVluAYAFgAWCgGwMW/1uAW4EUYQEoV2AAgP1bUFZbgDVhATaBYQEbVluSkVBQVltgAGAggoQDEhVhAVFXYQFRYACA/VtgAGEBXYSEYQErVluUk1BQUFBWW4GBUmAggQFhATZWW2AAYAFgAWCgGwOCFmEBNlZbYQEdgWEBcVZbgDVhATaBYQGCVltgAGAggoQDEhVhAatXYQGrYACA/VtgAGEBXYSEYQGLVltjTkh7cWDgG2AAUmARYARSYCRgAP1bYABgABmCA2EB4FdhAeBhAbdWW1BgAQGQVv6iZGlwZnNYIhIgkjOGnZpL7+bYXKJwe3uBglJ1dwnSXBX5WGEFkRCuJKtkc29sY0MACBMAMw==",
          "code_read": "YIBgQFI0gBVhABBXYACA/VtQYAQ2EGEAYldgADVg4ByAYwfaaPUUYQBnV4BjLvw87hRhAHFXgGM/tcHLFGEAeVeAY4OB9YoUYQCMV4Bj0J3gihRhAKtXgGPttFUpFGEAs1dbYACA/VthAG9hAMZWWwBbYQBvYQDbVlthAG9hAIc2YARhATxWW2AAVVZbYQCVYABUgVZbYEBRYQCikZBhAWVWW2BAUYCRA5DzW2EAlWEA81ZbYQBvYQDBNmAEYQGWVlthAQ9WW2AAgFSQgGEA1YNhAc1WW5GQUFUAW2AAgFSQgGEA6oNhAc1WW5GQUFVgAID9W2AAgFSBgGEBAoNhAc1WW5GQUFVQYABUkFCQVluAYAFgAWCgGwMW/1uAW4EUYQEoV2AAgP1bUFZbgDVhATaBYQEbVluSkVBQVltgAGAggoQDEhVhAVFXYQFRYACA/VtgAGEBXYSEYQErVluUk1BQUFBWW4GBUmAggQFhATZWW2AAYAFgAWCgGwOCFmEBNlZbYQEdgWEBcVZbgDVhATaBYQGCVltgAGAggoQDEhVhAatXYQGrYACA/VtgAGEBXYSEYQGLVltjTkh7cWDgG2AAUmARYARSYCRgAP1bYABgABmCA2EB4FdhAeBhAbdWW1BgAQGQVv6iZGlwZnNYIhIgkjOGnZpL7+bYXKJwe3uBglJ1dwnSXBX5WGEFkRCuJKtkc29sY0MACBMAMw==",
          "suicide": true,
          "touched": true,
          "read": true
        },
        "0x85dA99c8a7C2C95964c8EfD687E95E632Fc533D6": {
          "address": "0x85dA99c8a7C2C95964c8EfD687E95E632Fc533D6",
          "nonce": 5457,
          "read": true
        },
        "0x86C1F45885Ee368B1896FfB690Eaf940CC032410": {
          "address": "0x86C1F45885Ee368B1896FfB690Eaf940CC032410",
          "nonce": 1,
          "code": "YIBgQFI0gBVhABBXYACA/VtQYAQ2EGEAYldgADVg4ByAYwfaaPUUYQBnV4BjLvw87hRhAHFXgGM/tcHLFGEAeVeAY4OB9YoUYQCMV4Bj0J3gihRhAKtXgGPttFUpFGEAs1dbYACA/VthAG9hAMZWWwBbYQBvYQDbVlthAG9hAIc2YARhATxWW2AAVVZbYQCVYABUgVZbYEBRYQCikZBhAWVWW2BAUYCRA5DzW2EAlWEA81ZbYQBvYQDBNmAEYQGWVlthAQ9WW2AAgFSQgGEA1YNhAc1WW5GQUFUAW2AAgFSQgGEA6oNhAc1WW5GQUFVgAID9W2AAgFSBgGEBAoNhAc1WW5GQUFVQYABUkFCQVluAYAFgAWCgGwMW/1uAW4EUYQEoV2AAgP1bUFZbgDVhATaBYQEbVluSkVBQVltgAGAggoQDEhVhAVFXYQFRYACA/VtgAGEBXYSEYQErVluUk1BQUFBWW4GBUmAggQFhATZWW2AAYAFgAWCgGwOCFmEBNlZbYQEdgWEBcVZbgDVhATaBYQGCVltgAGAggoQDEhVhAatXYQGrYACA/VtgAGEBXYSEYQGLVltjTkh7cWDgG2AAUmARYARSYCRgAP1bYABgABmCA2EB4FdhAeBhAbdWW1BgAQGQVv6iZGlwZnNYIhIgkjOGnZpL7+bYXKJwe3uBglJ1dwnSXBX5WGEFkRCuJKtkc29sY0MACBMAMw==",
          "code_read": "YIBgQFI0gBVhABBXYACA/VtQYAQ2EGEAYldgADVg4ByAYwfaaPUUYQBnV4BjLvw87hRhAHFXgGM/tcHLFGEAeVeAY4OB9YoUYQCMV4Bj0J3gihRhAKtXgGPttFUpFGEAs1dbYACA/VthAG9hAMZWWwBbYQBvYQDbVlthAG9hAIc2YARhATxWW2AAVVZbYQCVYABUgVZbYEBRYQCikZBhAWVWW2BAUYCRA5DzW2EAlWEA81ZbYQBvYQDBNmAEYQGWVlthAQ9WW2AAgFSQgGEA1YNhAc1WW5GQUFUAW2AAgFSQgGEA6oNhAc1WW5GQUFVgAID9W2AAgFSBgGEBAoNhAc1WW5GQUFVQYABUkFCQVluAYAFgAWCgGwMW/1uAW4EUYQEoV2AAgP1bUFZbgDVhATaBYQEbVluSkVBQVltgAGAggoQDEhVhAVFXYQFRYACA/VtgAGEBXYSEYQErVluUk1BQUFBWW4GBUmAggQFhATZWW2AAYAFgAWCgGwOCFmEBNlZbYQEdgWEBcVZbgDVhATaBYQGCVltgAGAggoQDEhVhAatXYQGrYACA/VtgAGEBXYSEYQGLVltjTkh7cWDgG2AAUmARYARSYCRgAP1bYABgABmCA2EB4FdhAeBhAbdWW1BgAQGQVv6iZGlwZnNYIhIgkjOGnZpL7+bYXKJwe3uBglJ1dwnSXBX5WGEFkRCuJKtkc29sY0MACBMAMw==",
          "suicide": true,
          "touched": true,
          "read": true
        },
        "0x90A2E8a44CBd78cbF832154Fa9e7aa1A4f14DA75": {
          "address": "0x90A2E8a44CBd78cbF832154Fa9e7aa1A4f14DA75",
          "nonce": 1,
          "storage": {
            "0x0000000000000000000000000000000000000000000000000000000000000000": "0x0000000000000000000000000000000000000000000000000000000000000003"
          },
          "storage_read": {
            "0x0000000000000000000000000000000000000000000000000000000000000000": {}
          },
          "code": "YIBgQFI0gBVhABBXYACA/VtQYAQ2EGEAYldgADVg4ByAYwfaaPUUYQBnV4BjLvw87hRhAHFXgGM/tcHLFGEAeVeAY4OB9YoUYQCMV4Bj0J3gihRhAKtXgGPttFUpFGEAs1dbYACA/VthAG9hAMZWWwBbYQBvYQDbVlthAG9hAIc2YARhATxWW2AAVVZbYQCVYABUgVZbYEBRYQCikZBhAWVWW2BAUYCRA5DzW2EAlWEA81ZbYQBvYQDBNmAEYQGWVlthAQ9WW2AAgFSQgGEA1YNhAc1WW5GQUFUAW2AAgFSQgGEA6oNhAc1WW5GQUFVgAID9W2AAgFSBgGEBAoNhAc1WW5GQUFVQYABUkFCQVluAYAFgAWCgGwMW/1uAW4EUYQEoV2AAgP1bUFZbgDVhATaBYQEbVluSkVBQVltgAGAggoQDEhVhAVFXYQFRYACA/VtgAGEBXYSEYQErVluUk1BQUFBWW4GBUmAggQFhATZWW2AAYAFgAWCgGwOCFmEBNlZbYQEdgWEBcVZbgDVhATaBYQGCVltgAGAggoQDEhVhAatXYQGrYACA/VtgAGEBXYSEYQGLVltjTkh7cWDgG2AAUmARYARSYCRgAP1bYABgABmCA2EB4FdhAeBhAbdWW1BgAQGQVv6iZGlwZnNYIhIgkjOGnZpL7+bYXKJwe3uBglJ1dwnSXBX5WGEFkRCuJKtkc29sY0MACBMAMw==",
          "code_read": "YIBgQFI0gBVhABBXYACA/VtQYAQ2EGEAYldgADVg4ByAYwfaaPUUYQBnV4BjLvw87hRhAHFXgGM/tcHLFGEAeVeAY4OB9YoUYQCMV4Bj0J3gihRhAKtXgGPttFUpFGEAs1dbYACA/VthAG9hAMZWWwBbYQBvYQDbVlthAG9hAIc2YARhATxWW2AAVVZbYQCVYABUgVZbYEBRYQCikZBhAWVWW2BAUYCRA5DzW2EAlWEA81ZbYQBvYQDBNmAEYQGWVlthAQ9WW2AAgFSQgGEA1YNhAc1WW5GQUFUAW2AAgFSQgGEA6oNhAc1WW5GQUFVgAID9W2AAgFSBgGEBAoNhAc1WW5GQUFVQYABUkFCQVluAYAFgAWCgGwMW/1uAW4EUYQEoV2AAgP1bUFZbgDVhATaBYQEbVluSkVBQVltgAGAggoQDEhVhAVFXYQFRYACA/VtgAGEBXYSEYQErVluUk1BQUFBWW4GBUmAggQFhATZWW2AAYAFgAWCgGwOCFmEBNlZbYQEdgWEBcVZbgDVhATaBYQGCVltgAGAggoQDEhVhAatXYQGrYACA/VtgAGEBXYSEYQGLVltjTkh7cWDgG2AAUmARYARSYCRgAP1bYABgABmCA2EB4FdhAeBhAbdWW1BgAQGQVv6iZGlwZnNYIhIgkjOGnZpL7+bYXKJwe3uBglJ1dwnSXBX5WGEFkRCuJKtkc29sY0MACBMAMw==",
          "touched": true,
          "read": true
        },
        "0x9F28e2277C165A2a9fBfa6e07b6b0Ad7bfB32708": {
          "address": "0x9F28e2277C165A2a9fBfa6e07b6b0Ad7bfB32708",
          "nonce": 1,
          "storage": {
            "0x0000000000000000000000000000000000000000000000000000000000000000": "0x0000000000000000000000000000000000000000000000000000000000000003"
          },
          "storage_read": {
            "0x0000000000000000000000000000000000000000000000000000000000000000": {}
          },
          "code": "YIBgQFI0gBVhABBXYACA/VtQYAQ2EGEAYldgADVg4ByAYwfaaPUUYQBnV4BjLvw87hRhAHFXgGM/tcHLFGEAeVeAY4OB9YoUYQCMV4Bj0J3gihRhAKtXgGPttFUpFGEAs1dbYACA/VthAG9hAMZWWwBbYQBvYQDbVlthAG9hAIc2YARhATxWW2AAVVZbYQCVYABUgVZbYEBRYQCikZBhAWVWW2BAUYCRA5DzW2EAlWEA81ZbYQBvYQDBNmAEYQGWVlthAQ9WW2AAgFSQgGEA1YNhAc1WW5GQUFUAW2AAgFSQgGEA6oNhAc1WW5GQUFVgAID9W2AAgFSBgGEBAoNhAc1WW5GQUFVQYABUkFCQVluAYAFgAWCgGwMW/1uAW4EUYQEoV2AAgP1bUFZbgDVhATaBYQEbVluSkVBQVltgAGAggoQDEhVhAVFXYQFRYACA/VtgAGEBXYSEYQErVluUk1BQUFBWW4GBUmAggQFhATZWW2AAYAFgAWCgGwOCFmEBNlZbYQEdgWEBcVZbgDVhATaBYQGCVltgAGAggoQDEhVhAatXYQGrYACA/VtgAGEBXYSEYQGLVltjTkh7cWDgG2AAUmARYARSYCRgAP1bYABgABmCA2EB4FdhAeBhAbdWW1BgAQGQVv6iZGlwZnNYIhIgkjOGnZpL7+bYXKJwe3uBglJ1dwnSXBX5WGEFkRCuJKtkc29sY0MACBMAMw==",
          "code_read": "YIBgQFI0gBVhABBXYACA/VtQYAQ2EGEAYldgADVg4ByAYwfaaPUUYQBnV4BjLvw87hRhAHFXgGM/tcHLFGEAeVeAY4OB9YoUYQCMV4Bj0J3gihRhAKtXgGPttFUpFGEAs1dbYACA/VthAG9hAMZWWwBbYQBvYQDbVlthAG9hAIc2YARhATxWW2AAVVZbYQCVYABUgVZbYEBRYQCikZBhAWVWW2BAUYCRA5DzW2EAlWEA81ZbYQBvYQDBNmAEYQGWVlthAQ9WW2AAgFSQgGEA1YNhAc1WW5GQUFUAW2AAgFSQgGEA6oNhAc1WW5GQUFVgAID9W2AAgFSBgGEBAoNhAc1WW5GQUFVQYABUkFCQVluAYAFgAWCgGwMW/1uAW4EUYQEoV2AAgP1bUFZbgDVhATaBYQEbVluSkVBQVltgAGAggoQDEhVhAVFXYQFRYACA/VtgAGEBXYSEYQErVluUk1BQUFBWW4GBUmAggQFhATZWW2AAYAFgAWCgGwOCFmEBNlZbYQEdgWEBcVZbgDVhATaBYQGCVltgAGAggoQDEhVhAatXYQGrYACA/VtgAGEBXYSEYQGLVltjTkh7cWDgG2AAUmARYARSYCRgAP1bYABgABmCA2EB4FdhAeBhAbdWW1BgAQGQVv6iZGlwZnNYIhIgkjOGnZpL7+bYXKJwe3uBglJ1dwnSXBX5WGEFkRCuJKtkc29sY0MACBMAMw==",
          "touched": true,
          "read": true
        },
        "0xA52f1226449eA47013CceD3Dc59927657e3054dF": {
          "address": "0xA52f1226449eA47013CceD3Dc59927657e3054dF",
          "read": true
        },
        "0xC3f3338ed0fd9C2013bd26c6b4DA337858A486a8": {
          "address": "0xC3f3338ed0fd9C2013bd26c6b4DA337858A486a8",
          "nonce": 15,
          "storage": {
            "0x0000000000000000000000000000000000000000000000000000000000000000": "0x000000000000000000000000000000000000000000000000000000005a5fd040",
            "0x0000000000000000000000000000000000000000000000000000000000000003": "0x0000000000000000000000000000000000000000000000000000000000000000",
            "0x0000000000000000000000000000000000000000000000000000000000000004": "0x0000000000000000000000000000000000000000000000000000000000000000",
            "0xc2575a0e9e593c00f959f8c92f12db2869c3395a3b0502d05e2516446f71f85b": "0x0000000000000000000000000000000000000000000000000000000000000000",
            "0xedc95719e9a3b28dd8e80877cb5880a9be7de1a13fc8b05e7999683b6b567643": "0x241bce43a48f910ccace3d3e50030b0405ee50ebe52e9c6f5cd79a1428d643c7"
          },
          "storage_read": {
            "0x0000000000000000000000000000000000000000000000000000000000000000": {},
            "0x0000000000000000000000000000000000000000000000000000000000000003": {},
            "0x0000000000000000000000000000000000000000000000000000000000000004": {},
            "0xc2575a0e9e593c00f959f8c92f12db2869c3395a3b0502d05e2516446f71f85b": {},
            "0xedc95719e9a3b28dd8e80877cb5880a9be7de1a13fc8b05e7999683b6b567643": {}
          },
          "code_read": "YIBgQFJgBDYQYQDzV2AANWDgHIBjdj78CBFhAIpXgGOyrNUJEWEAWVeAY7Ks1QkUYQKEV4BjyqJgMhRhAqRXgGPOGxk6FGEC0VeAY+yLRmoUYQLkV2AAgP1bgGN2PvwIFGECGleAY3hnJ9QUYQIvV4BjfZR5KhRhAk9XgGOumNsvFGECb1dgAID9W4BjQgt9rhFhAMZXgGNCC32uFGEBlFeAY0hJ8nkUYQHDV4BjSdPWBRRhAfBXgGNX/BCjFGECBVdgAID9W4BjAxO/hhRhAPhXgGMUWwVjFGEBI1eAYxoP580UYQFFV4BjMUjxTxRhAXRXW2AAgP1bNIAVYQEEV2AAgP1bUGEBDWACgVZbYEBRYQEakZBhHlxWW2BAUYCRA5DzWzSAFWEBL1dgAID9W1BhAThhAwRWW2BAUWEBGpGQYR5/Vls0gBVhAVFXYACA/VtQYQENYQFgNmAEYR6oVltgAmAgUoBgAFJgQGAAIFSQUIFWWzSAFWEBgFdgAID9W1BhAQ1hAY82YARhHtFWW2EDYFZbNIAVYQGgV2AAgP1bUGEBDWEBrzZgBGEeqFZbYAFgIFKAYABSYEBgACBUkFCBVls0gBVhAc9XYACA/VtQYQHjYQHeNmAEYR8hVlthA65WW2BAUWEBGpGQYR/NVls0gBVhAfxXYACA/VtQYQENYASBVls0gBVhAhFXYACA/VtQYQENYAiBVls0gBVhAiZXYACA/VtQYQENYAGBVls0gBVhAjtXYACA/VtQYQENYQJKNmAEYR6oVlthA/dWWzSAFWECW1dgAID9W1BgAFRhATiQYAFgAWBAGwMWgVZbNIAVYQJ7V2AAgP1bUGEBDWAQgVZbNIAVYQKQV2AAgP1bUGEBDWECnzZgBGEg2FZbYQW2Vls0gBVhArBXYACA/VtQYQLEYQK/NmAEYSDYVlthBfZWW2BAUWEBGpGQYSFuVlthAQ1hAt82YARhIbdWW2EGX1ZbNIAVYQLwV2AAgP1bUGEB42EC/zZgBGEe0VZbYR2zVltgAIBUY4AAAACQYQMlkGABYAFgQBsDFmNBxk5tYSICVlthAzGQYTA5YSIoVlthAzuRkGEiYVZbYACAVGf//////////xkWYAFgAWBAGwOSkJIWkYIXkFWRkFBWW2AAYEBRYCCBUmAggIIBUmAgYECCAVKEYGCCAVKDYICCAVKCYKCCAVJgwFFgIIFgwIRgAGAFYAAZ8WEDoldgAID9W4BRlpVQUFBQUFBWW2EDtmEd9FZbYQO+YR4PVluFgVJgIIEBhZBSYECAggGFkFJgYIIBhJBSgmCAg2AAYAZa8YCAYQPsV2AAgP1bUFBQlJNQUFBQVltgAIBhBAWDYAFhIqRWW2ABYAFgQBsDgREVYQQcV2EEHGEf21ZbYEBRkICCUoBgIAJgIAGCAWBAUoAVYQRFV4FgIAFgIIICgDaDNwGQUFtQkFBgAluDgRFhBIhXYAGCgoFRgRBhBGZXYQRmYSKOVluRFRVgIJKDApGQkQGQkQFSgGEEgIFhIrdWW5FQUGEES1ZbUGACW4NhBJeCgGEi0VZbEWEFGleBgYFRgRBhBK5XYQSuYSKOVltgIAJgIAEBURVhBQhXYABhBMeCgGEi0VZbkFBbhIERYQUGV2AAg4KBUYEQYQTlV2EE5WEijlZbkRUVYCCSgwKRkJEBkJEBUmEE/4KCYSKkVluQUGEEylZbUFuAYQUSgWEit1ZbkVBQYQSMVltQYABgAluEgRFhBXdXgoGBUYEQYQU5V2EFOWEijlZbYCACYCABAVEVYQVlV2AAgoFSYAJgIFKBkGBAkCBVgWEFYYFhIrdWW5JQUFuAYQVvgWEit1ZbkVBQYQUgVltQf+zwpdpXWAMVtcMvOdCGnL7XJUZYZQcSbHalJ//3VG8DgWBAUWEFp5GQYR5cVltgQFGAkQOQoZOSUFBQVltgAICCUZBQYQXIYMCCYSLpVlsVYQXSV2AAgP1bYEBRYCCBg2AghwFgAGAIWvGAgBVhAPNXglGWlVBQUFBQUFZbYGBgAIJRYAFgAWBAGwOBERVhBhNXYQYTYR/bVltgQFGBgVJgHxlgH4MBFoEBYCABYEBSkIAVYQY9V2AgggGBgDaDNwGQUFtQkFCCUYBgIIMBgmAghwFgAGAEWvFhBlhX/ltQkpFQUFZbYACAVGf//////////xkWYAFgAWBAGwOFFheBVX/D0GEUXGeAqnWxVxhxvdb5k3LGBDTzPYr6VAnvXHJjOoRgQFFhBqqRkGEef1ZbYEBRgJEDkKFgAIBgAIBgAIBgAIBgAGBAUWBAUYCRA5CgYABbjGP/////FoFj/////xYQFWEcwldhBuphAwRWW2ABYAFgQBsDFplQYQb9YQMEVltgAWABYEAbAxaYUGEHEomLYSKkVltgQFFgIAFhByKRkGEi+lZbYEBRYCCBgwMDgVKQYEBSgFGQYCABIJVQYQdCYQMEVltgAWABYEAbAxaZUGEHVWEDBFZbYAFgAWBAGwMWmFCFYQdrioxhItFWW2BAUWAgAWEHfJKRkGEjD1ZbYEBRYCCBgwMDgVKQYEBSgFGQYCABIJVQYQecYQMEVltgAWABYEAbAxaZUGEHr2EDBFZbYAFgAWBAGwMWmFCFiYsDYEBRYCABYQfPkpGQYSMPVltgQFFgIIGDAwOBUpBgQFKAUZBgIAEglVBZmVCFimBAUWAgAWEH/ZKRkGEjD1ZbYEBRYCCBgwMDgVKQYEBSgFGQYCABIJVQOJlQhYpgQFFgIAFhCCuSkZBhIw9WW2BAUWAggYMDA4FSkGBAUoBRkGAgASCVUGEIS2EDBFZbYAFgAWBAGwMWmVBhCF5hAwRWW2ABYAFgQBsDFphQhWEIdIqMYSM1VltgQFFgIAFhCIWSkZBhIw9WW2BAUWAggYMDA4FSkGBAUoBRkGAgASCVUGEIpWEDBFZbYAFgAWBAGwMWmVBhCLhhAwRWW2ABYAFgQBsDFphQhWEI0IpgABlhI0lWW2EI2pCMYSN6VltgQFFgIAFhCOuSkZBhIw9WW2BAUWAggYMDA4FSkGBAUoBRkGAgASCVUGEJC2EDBFZbYAFgAWBAGwMWmVBhCR5hAwRWW2ABYAFgQBsDFphQhWEJNIqMYSLpVltgQFFgIAFhCUWSkZBhIw9WW2BAUWAggYMDA4FSkGBAUoBRkGAgASCVUGEJZWEDBFZbYAFgAWBAGwMWmVBhCXhhAwRWW2ABYAFgQBsDFphQhWEJkIpgABlhI0lWW2EJmpCMYSOoVltgQFFgIAFhCauSkZBhIw9WW2BAUWAggYMDA4FSkGBAUoBRkGAgASCVUGEJy2EDBFZbYAFgAWBAGwMWmVBhCd5hAwRWW2ABYAFgQBsDFphQYQnxYQMEVltgAWABYEAbAxaXUIWIgGEKC1dhCgthIktWW4qMCGBAUWAgAWEKH5KRkGEjD1ZbYEBRYCCBgwMDgVKQYEBSgFGQYCABIJVQYQo/YQMEVltgAWABYEAbAxaZUGEKUmEDBFZbYAFgAWBAGwMWmFBhCmVhAwRWW2ABYAFgQBsDFpdQhYiAYQp/V2EKf2EiS1ZbiowJYEBRYCABYQqTkpGQYSMPVltgQFFgIIGDAwOBUpBgQFKAUZBgIAEglVBhCrNhAwRWW2ABYAFgQBsDFplQYQrGYQMEVltgAWABYEAbAxaYUIWJiwpgQFFgIAFhCuaSkZBhIw9WW2BAUWAggYMDA4FSkGBAUoBRkGAgASCVUGELBmEDBFZbYAFgAWBAGwMWmVCFimADC2BAUWAgAWELJ5KRkGEjD1ZbYEBRYCCBgwMDgVKQYEBSgFGQYCABIJVQYQtHYQMEVltgAWABYEAbAxaZUGELWmEDBFZbYAFgAWBAGwMWmFCFiYsQYQtzV4lhC3VWW4pbYEBRYCABYQuGkpGQYSMPVltgQFFgIIGDAwOBUpBgQFKAUZBgIAEglVBhC6ZhAwRWW2ABYAFgQBsDFplQYQu5YQMEVltgAWABYEAbAxaYUIWJixFhC9JXiWEL1FZbiltgQFFgIAFhC+WSkZBhIw9WW2BAUWAggYMDA4FSkGBAUoBRkGAgASCVUGEMBWEDBFZbYAFgAWBAGwMWmVBhDBhhAwRWW2ABYAFgQBsDFphQhYmLEmEMMVeJYQwzVluKW2BAUWAgAWEMRJKRkGEjD1ZbYEBRYCCBgwMDgVKQYEBSgFGQYCABIJVQYQxkYQMEVltgAWABYEAbAxaZUGEMd2EDBFZbYAFgAWBAGwMWmFCFiYsTYQyQV4lhDJJWW4pbYEBRYCABYQyjkpGQYSMPVltgQFFgIIGDAwOBUpBgQFKAUZBgIAEglVBhDMNhAwRWW2ABYAFgQBsDFplQYQzWYQMEVltgAWABYEAbAxaYUIWJixRhDO9XiWEM8VZbiltgQFFgIAFhDQKSkZBhIw9WW2BAUWAggYMDA4FSkGBAUoBRkGAgASCVUGENImEDBFZbYAFgAWBAGwMWmVBhDTVhAwRWW2ABYAFgQBsDFphQhYoVYQ1NV4lhDU9WW4pbYEBRYCABYQ1gkpGQYSMPVltgQFFgIIGDAwOBUpBgQFKAUZBgIAEglVBhDYBhAwRWW2ABYAFgQBsDFplQYQ2TYQMEVltgAWABYEAbAxaYUIWJixZgQFFgIAFhDbOSkZBhIw9WW2BAUWAggYMDA4FSkGBAUoBRkGAgASCVUGEN02EDBFZbYAFgAWBAGwMWmVBhDeZhAwRWW2ABYAFgQBsDFphQhYmLF2BAUWAgAWEOBpKRkGEjD1ZbYEBRYCCBgwMDgVKQYEBSgFGQYCABIJVQYQ4mYQMEVltgAWABYEAbAxaZUGEOOWEDBFZbYAFgAWBAGwMWmFCFiYsYYEBRYCABYQ5ZkpGQYSMPVltgQFFgIIGDAwOBUpBgQFKAUZBgIAEglVBhDnlhAwRWW2ABYAFgQBsDFplQhYoZYEBRYCABYQ6YkpGQYSMPVltgQFFgIIGDAwOBUpBgQFKAUZBgIAEglVCFgGAAGmD4G2BAUWAgAWEOyZKRkGEjzFZbYEBRYCCBgwMDgVKQYEBSgFGQYCABIJVQYQ7pYQMEVltgAWABYEAbAxaZUIVgAYuQG2BAUWAgAWEPC5KRkGEjD1ZbYEBRYCCBgwMDgVKQYEBSgFGQYCABIJVQYQ8rYQMEVltgAWABYEAbAxaZUIVgAYuQHGBAUWAgAWEPTZKRkGEjD1ZbYEBRYCCBgwMDgVKQYEBSgFGQYCABIJVQYQ9tYQMEVltgAWABYEAbAxaZUIVgAYuQHWBAUWAgAWEPj5KRkGEjD1ZbYEBRYCCBgwMDgVKQYEBSgFGQYCABIJVQhZRQhDBgQFFgIAFhD72SkZBhJCtWW2BAUWAggYMDA4FSkGBAUoBRkGAgASCVUIUwgDtgIIEBYEBRkIEBYEBSgYFSYACQgGAgAZCTPGBAUWAgAWEQBJKRkGEkeVZbYEBRYCCBgwMDgVKQYEBSgFGQYCABIJVQhTA/YEBRYCABYRAwkpGQYSMPVltgQFFgIIGDAwOBUpBgQFKAUZBgIAEglVCFYAAxYEBRYCABYRBdkpGQYSMPVltgQFFgIIGDAwOBUpBgQFKAUZBgIAEglVCFR2BAUWAgAWEQiJKRkGEjD1ZbYEBRYCCBgwMDgVKQYEBSgFGQYCABIJVQhVpgQFFgIAFhELOSkZBhIw9WW2BAUWAggYMDA4FSkGBAUoBRkGAgASCVUGABgI0WA2ERLFeFMmBAUWAgAWEQ6JKRkGEkK1ZbYEBRYCCBgwMDgVKQYEBSgFGQYCABIJVQhTpgQFFgIAFhEROSkZBhIw9WW2BAUWAggYMDA4FSkGBAUoBRkGAgASCVUFuFk1BgARlgAo0WAWER91eFM2BAUWAgAWERTpKRkGEkK1ZbYEBRYCCBgwMDgVKQYEBSgFGQYCABIJVQhWAANmBAUWAgAWERfJOSkZBhJKhWW2BAUWAggYMDA4FSkGBAUoBRkGAgASCVUIVgADVgAWABYOAbAxkWYEBRYCABYRGzkpGQYSTeVltgQFFgIIGDAwOBUpBgQFKAUZBgIAEglVCFNGBAUWAgAWER3pKRkGEjD1ZbYEBRYCCBgwMDgVKQYEBSgFGQYCABIJVQW4WSUGADGWAEjRYBYRNgV4VDQGBAUWAgAWESGpKRkGEjD1ZbYEBRYCCBgwMDgVKQYEBSgFGQYCABIJVQhUhgQFFgIAFhEkWSkZBhIw9WW2BAUWAggYMDA4FSkGBAUoBRkGAgASCVUIVGYEBRYCABYRJwkpGQYSMPVltgQFFgIIGDAwOBUpBgQFKAUZBgIAEglVCFQWBAUWAgAWESm5KRkGEkK1ZbYEBRYCCBgwMDgVKQYEBSgFGQYCABIJVQhURgQFFgIAFhEsaSkZBhIw9WW2BAUWAggYMDA4FSkGBAUoBRkGAgASCVUIVFYEBRYCABYRLxkpGQYSMPVltgQFFgIIGDAwOBUpBgQFKAUZBgIAEglVCFQ2BAUWAgAWETHJKRkGEjD1ZbYEBRYCCBgwMDgVKQYEBSgFGQYCABIJVQhUJgQFFgIAFhE0eSkZBhIw9WW2BAUWAggYMDA4FSkGBAUoBRkGAgASCVUFuFkVBgBxlgCI0WAWEY/ldhE3dhAwRWW2ABYAFgQBsDFplQYABgQFFhE5CQYR4rVltgQFGAkQOQYADwgBWAFWETrFc9YACAPj1gAP1bUJBQYACLYEBRYRO+kGEeK1ZbgZBgQFGAkQOQYAD1kFCAFYAVYRPeVz1gAIA+PWAA/VtQkFCAYAFgAWCgGwMWY+20VSkzYEBRgmP/////FmDgG4FSYAQBYRQNkZBhJQ1WW2AAYEBRgIMDgWAAh4A7FYAVYRQnV2AAgP1bUFrxFYAVYRQ7Vz1gAIA+PWAA/VtQUFBQgWABYAFgoBsDFmPQneCKYEBRgWP/////FmDgG4FSYAQBYCBgQFGAgwOBYACHWvEVgBVhFH9XPWAAgD49YAD9W1BQUFBgQFFgHz2QgQFgHxkWggFgQFJhFKKRkIEBkGElKlZbm1CHjGBAUWAgAWEUt5KRkGEjD1ZbYEBRYCCBgwMDgVKQYEBSgFGQYCABIJdQgWABYAFgoBsDFmMu/DzuYEBRgWP/////FmDgG4FSYAQBYABgQFGAgwOBYACHgDsVgBVhFQpXYACA/VtQWvGSUFBQgBVhFRtXUGABW2EVUVc9gIAVYRVJV2BAUT1gPwFgHxkWgQFgQFI9gVKRUD1gAGAghAE+YRVOVltgYJFQW1BQW4eCYAFgAWCgGwMWgDuAYCABYEBRkIEBYEBSgYFSYACQgGAgAZCTPGBAUWAgAWEViZKRkGEkeVZbYEBRYCCBgwMDgVKQYEBSgFGQYCABIJdQh4JgAWABYKAbAxY/YEBRYCABYRW+kpGQYSMPVltgQFFgIIGDAwOBUpBgQFKAUZBgIAEgl1CBYAFgAWCgGwMWYcNQYEBRYCQBYEBRYB8ZgYMDAYFSYECRkJFSY2hO8EVg4RtgIIIBgFFgAWABYOAbAxaQkReQUmBAUWEWJJGQYSVLVltgAGBAUYCDA4FgAIeH8ZJQUFA9gGAAgRRhFmJXYEBRPWA/AWAfGRaBAWBAUj2BUpFQPWAAYCCEAT5hFmdWW2BgkVBbUGAEYABgA2EWeISCYSZGVltQgVRg/2EBAJKQkgqCgQIZkJEWlBUVApOQkxeQVVBgBFSJkRZgA2BAUWAgAWEWsJOSkZBhJ8JWW2BAUWAggYMDA4FSkGBAUoBRkGAgASCXUIFgAWABYKAbAxZhw1BgQFFgJAFgQFFgHxmBgwMBgVJgQJGQkVJjaE7wRWDhG2AgggGAUWABYAFg4BsDFpCRF5BSYEBRYRcWkZBhJUtWW2AAYEBRgIMDgYaG9JJQUFA9gGAAgRRhF1JXYEBRPWA/AWAfGRaBAWBAUj2BUpFQPWAAYCCEAT5hF1dWW2BgkVBbUGAEYABgA2EXaISCYSZGVltQgVRg/2EBAJKQkgqCgQIZkJEWlBUVApOQkxeQVVBgBFSJkRZgA2BAUWAgAWEXoJOSkZBhJ8JWW2BAUWAggYMDA4FSkGBAUoBRkGAgASCXUIFgAWABYKAbAxZhw1BgQFFgJAFgQFFgHxmBgwMBgVJgQJGQkVJjaE7wRWDhG2AgggGAUWABYAFg4BsDFpCRF5BSYEBRYRgGkZBhJUtWW2AAYEBRgIMDgYaG+pJQUFA9gGAAgRRhGEJXYEBRPWA/AWAfGRaBAWBAUj2BUpFQPWAAYCCEAT5hGEdWW2BgkVBbUGAEYABgA2EYWISCYSZGVltQgVRg/2EBAJKQkgqCgQIZkJEWlBUVApOQkxeQVVBgBFSJkRZgA2BAUWAgAWEYkJOSkZBhJ8JWW2BAUWAggYMDA4FSkGBAUoBRkGAgASCXUIFgAWABYKAbAxZjB9po9WBAUYFj/////xZg4BuBUmAEAWAAYEBRgIMDgWAAh4A7FYAVYRjjV2AAgP1bUFrxFYAVYRj3Vz1gAIA+PWAA/VtQUFBQUFBbYBCAjRYDYRywV2EZEGEDBFZbYAFgAWBAGwMWmVBhGSNhAwRWW2ABYAFgQBsDFphQYRk2YQMEVltgAWABYEAbAxaXUGAAYAGBjIyMYEBRYACBUmAgAWBAUmBAUWEZZpSTkpGQYSf3VltgIGBAUWAggQOQgIQDkIVa+hWAFWEZiFc9YACAPj1gAP1bUFBQYCBgQFEDUZBQhoFgQFFgIAFhGaeSkZBhJCtWW2BAUWAggYMDA4FSkGBAUoBRkGAgASCWUGEZx2EDBFZbYAFgAWBAGwMWmlCGYAKMYEBRYCABYRnmkZBhIvpWW2BAUWAggYMDA4FSkGBAUmBAUWEaApGQYSVLVltgIGBAUYCDA4GFWvoVgBVhGh9XPWAAgD49YAD9W1BQUGBAUWAfPZCBAWAfGRaCAWBAUmEaQZGQgQGQYSUqVltgQFFgIAFhGlKSkZBhIw9WW2BAUWAggYMDA4FSkGBAUoBRkGAgASCWUGEacmEDBFZbYAFgAWBAGwMWmlCGYAOMYEBRYCABYRqRkZBhIvpWW2BAUWAggYMDA4FSkGBAUmBAUWEarZGQYSVLVltgIGBAUYCDA4GFWvoVgBVhGspXPWAAgD49YAD9W1BQUGBAUVFgYBtgQFFgIAFhGuWSkZBhKEFWW2BAUWAggYMDA4FSkGBAUoBRkGAgASCWUGEbBWEDBFZbYAFgAWBAGwMWmlCGYRs5jGBAUWAgAWEbJZGQYR5cVltgQFFgIIGDAwOBUpBgQFJhBfZWW2BAUWAgAWEbSpKRkGEkeVZbYEBRYCCBgwMDgVKQYEBSgFGQYCABIJZQYRtqYQMEVltgAWABYEAbAxaaUGEbfWEDBFZbYAFgAWBAGwMWmVCGYRuVjGAYjWEDYFZbYEBRYCABYRumkpGQYSMPVltgQFFgIIGDAwOBUpBgQFKAUZBgIAEgllBhG8ZhAwRWW2ABYAFgQBsDFppQYRvZYQMEVltgAWABYEAbAxaZUGEb7GEDBFZbYAFgAWBAGwMWmFBhG/9hAwRWW2ABYAFgQBsDFpdQhmEcF4yMjIxhA65WW2BAUWAgAWEcKJKRkGEoiVZbYEBRYCCBgwMDgVKQYEBSgFGQYCABIJZQYRxIYQMEVltgAWABYEAbAxaaUGEcW2EDBFZbYAFgAWBAGwMWmVBhHG5hAwRWW2ABYAFgQBsDFphQhmEchYyMjGEds1ZbYEBRYCABYRyWkpGQYSiJVltgQFFgIIGDAwOBUpBgQFKAUZBgIAEgllBQW2Ecu4FgAWEor1ZbkFBhBs5WW1CDf0N4mzDkxtU+JzXlcBIHsFKbLMIpsbsCuWkdOeohjafXYEBRYEBRgJEDkKKChH8suGCGvHYQeC/IYGumiADNIbLPW9nZ+AE5AZBab/TqXWBAUWBAUYCRA5CjgYOFf5SiJFDqcSbVtI84Ie8JxycgeS0lvCYOxFogIhOAVnldYEBRYEBRgJEDkKSBg4V/jzEU4AC5T6aYyrPDiWkAf/RtXYCpRdzedlNysdE4P1KEYEBRYR1/kZBhHlxWW2BAUYCRA5CkYAFgAWBAGwONFmAAkIFSYAFgIFKFkGBAkCBVUJKbmlBQUFBQUFBQUFBQVlthHbthHfRWW2Edw2EeOFZbhIFSYCCBAYSQUmBAgIIBhJBSgmBgg2AAYAda8YCAYR3qV2AAgP1bUFBQk5JQUFBWW2BAUWBAgIIBgVJgApCCkIA2gzdQkZKRUFBWW2BAUWCAgIIBYEBSYASQgpCANoM3UJGSkVBQVlthAj2AYSjQgzkBkFZbYEBRYGCAggFgQFJgA5CCkIA2gzdQkZKRUFBWW4BbglJQUFZbYCCBAWEeaoKEYR5UVluSkVBQVltgAWABYEAbA4EWYR5WVltgIIEBYR5qgoRhHnBWW4BbgRRhHppXYACA/VtQVluANWEeaoFhHo1WW2AAYCCChAMSFWEevVdhHr1gAID9W2AAYR7JhIRhHp1WW5STUFBQUFZbYACAYABgYISGAxIVYR7pV2Ee6WAAgP1bYABhHvWGhmEenVZbk1BQYCBhHwaGgocBYR6dVluSUFBgQGEfF4aChwFhHp1WW5FQUJJQklCSVltgAIBgAIBggIWHAxIVYR86V2EfOmAAgP1bYABhH0aHh2EenVZblFBQYCBhH1eHgogBYR6dVluTUFBgQGEfaIeCiAFhHp1WW5JQUGBgYR95h4KIAWEenVZbkVBQkpWRlFCSUFZbYABhH5GDg2EeVFZbUFBgIAGQVltgAoGAYABbg4EQFWEfxVeBUWEftIeCYR+FVluWUGAggwGSUFBgAQFhH6BWW1BQUFBQUFZbYECBAWEeaoKEYR+ZVltjTkh7cWDgG2AAUmBBYARSYCRgAP1bYB8ZYB+DARaBAYGBEGABYAFgQBsDghEXFWEgFldhIBZhH9tWW2BAUlBQVltgAGEgLGAAYEBRkFCQVluQUGEgOIKCYR/xVluRkFBWW2AAYAFgAWBAGwOCERVhIFZXYSBWYR/bVltgHxlgH4MBFmAgAZKRUFBWW4KBgzdQYACRAVJWW2AAYSCGYSCBhGEgPVZbYSAdVluQUIKBUmAggQGEhIQBERVhIKFXYSChYACA/VthIKyEgoVhIGdWW1CTklBQUFZbYACCYB+DARJhIMhXYSDIYACA/VuBNWEeyYSCYCCGAWEgc1ZbYABgIIKEAxIVYSDtV2Eg7WAAgP1bgTVgAWABYEAbA4ERFWEhBldhIQZgAID9W2EeyYSChQFhILRWW2AAW4OBEBVhIS1XgIIBUYOCAVJgIAFhIRVWW1BQYACRAVJWW2AAYSFGgmAAgVGSkVBQVluAhFJgIIQBk1BhIV2BhWAghgFhIRJWW2AfAWAfGRaSkJIBkpFQUFZbYCCAglKBAWEhf4GEYSE2VluTklBQUFZbYAFgAWBAGwOBFmEej1ZbgDVhHmqBYSGGVltj/////4EWYR6PVluANWEeaoFhIaBWW2AAgGAAYGCEhgMSFWEhz1dhIc9gAID9W2AAYSHbhoZhIZVWW5NQUGAgYR8GhoKHAWEhrFZbY05Ie3Fg4BtgAFJgEWAEUmAkYAD9W2ABYAFgQBsDkYIWkZCBFpCCggKQgRaQgYEUYQZYV2EGWGEh7FZbYAFgAWBAGwORghaRkIEWkIKCAZCBERVhHmpXYR5qYSHsVltjTkh7cWDgG2AAUmASYARSYCRgAP1bYABgAWABYEAbA4IWkVBgAWABYEAbA4MWW5JQgmEiiVdhIolhIktWW1AGkFZbY05Ie3Fg4BtgAFJgMmAEUmAkYAD9W4CCAYCCERVhHmpXYR5qYSHsVltgAGAAGYIDYSLKV2EiymEh7FZbUGABAZBWW4GBAoCCFYOCBIUUF2EGWFdhBlhhIexWW2AAgmEielZbgGEeVlZbkFZbYABhIwaChGEi8VZbUGAgAZGQUFZbYABhIxuChWEi8VZbYCCCAZFQYSMrgoRhIvFWW1BgIAGSkVBQVltgAIJhI0RXYSNEYSJLVltQBJBWW4GBAoBgAIMSYAFg/xuFFBYVYSNmV2EjZmEh7FZbgoIFhBSDFRdhBlhXYQZYYSHsVltgAIJhI4lXYSOJYSJLVltgAWD/G4IUYAAZhBQWFWEjo1dhI6NhIexWW1AFkFZbYACCYSO3V2Ejt2EiS1ZbUAeQVltgAWABYPgbAxmBFmEeVlZbYABhI9iChWEi8VZbYCCCAZFQYSPogoRhI7xWW1BgAQGSkVBQVltgAGABYAFgoBsDghZhHmpWW2AAYR5qgmBgG5BWW2AAYR5qgmEkA1ZbYR5WYSQmgmEj8lZbYSQPVltgAGEkN4KFYSLxVltgIIIBkVBhJEeChGEkGlZbUGAUAZKRUFBWW2AAYSRhgmAAgVGSkVBQVlthJG+BhWAghgFhIRJWW5KQkgGSkVBQVltgAGEkhYKFYSLxVltgIIIBkVBhHsmChGEkUVZbYABhJKKDhYRhIGdWW1BQAZBWW2AAYSS0goZhIvFWW2AgggGRUGEkxYKEhmEklVZblZRQUFBQUFZbYAFgAWDgGwMZgRZhHlZWW2AAYSTqgoVhIvFWW2AgggGRUGEk+oKEYSTOVltQYAQBkpFQUFZbYR5WgWEj8lZbYCCBAWEeaoKEYSUEVltgAIFRkFBhHmqBYR6NVltgAGAggoQDEhVhJT9XYSU/YACA/VtgAGEeyYSEYSUbVltgAGEhf4KEYSRRVltjTkh7cWDgG2AAUmAiYARSYCRgAP1bYAKBBGABghaAYSWBV2B/ghaRUFtgIIIQgQNhJZNXYSWTYSVXVltQkZBQVltgAGEeamEi94OBVlthJa6DYSWZVluBVGAAGWAIlJCUApOEGxkWkhuRkJEXkFVQVltgAGEl1oGEhGElpVZbUFBQVluBgRAVYSX2V2El7mAAgmElyVZbYAEBYSXbVltQUFZbYB+CERVhJdZXYSYYgWAAgYFSgZBgIJAgkpFQUFZbYCBgH4UBBIEBYCCFEBVhJi1XUIBbYSY/YCBgH4YBBIMBgmEl21ZbUFBQUFBWW2EmVIJgAIFRkpFQUFZbYAFgAWBAGwOBERVhJmtXYSZrYR/bVlthJnWCVGElbVZbYSaAgoKFYSX6VltgIGAfgxFgAYEUYSa1V2AAhBVhJp1XgocBUZBQW2AAGWAIhgIcGYEWYAKGAheGVVBhH8VWW2AfGYQWYSbPhmAAgYFSgZBgIJAgkpFQUFZbYABbgoEQFWEm8leEiQFRglVgIJSFAZRgAZCSAZEBYSbSVluGgxAVYScOV4SJAVFgABlgH4kWYAgCHBkWglVbYAFgAogCAYhVUFBQUFBQUFBQVltgAGEeaoJg+BuQVltgAGEeaoJhJyJWW2EeVoEVFWEnLlZbYACBVGEnUYFhJW1WW2ABghaAFWEnaFdgAYEUYSd9V2EnuVZbYP8ZgxaGUoEVFYIChgGTUGEnuVZbYSeShWAAgYFSgZBgIJAgkpFQUFZbYABbg4EQFWEnsVeBVIiCAVJgAZCRAZBgIAFhJ5VWW4OIAZVQUFBbUFBQkpFQUFZbYABhJ86ChmEi8VZbYCCCAZFQYSfegoVhJzlWW2ABggGRUGEkxYKEYSdEVltg/4EWYR5WVltggIEBYSgFgodhHlRWW2EoEmAggwGGYSfuVlthKB9gQIMBhWEeVFZbYSTFYGCDAYRhHlRWW2v///////////////8ZgRZhHlZWW2AAYShNgoVhIvFWW2AgggGRUGEkR4KEYSgsVltgAoGAYABbg4EQFWEfxVeBUWEoeIeCYR+FVluWUGAggwGSUFBgAQFhKGRWW2AAYSiVgoVhIvFWW2AgggGRUGEopYKEYShdVltQYEABkpFQUFZbY/////+RghaRkIEWkIKCAZCBERVhHmpXYR5qYSHsVv5ggGBAUjSAFWEAEFdgAID9W1BhAh2AYQAgYAA5YADz/mCAYEBSNIAVYQAQV2AAgP1bUGAENhBhAGJXYAA1YOAcgGMH2mj1FGEAZ1eAYy78PO4UYQBxV4BjP7XByxRhAHlXgGODgfWKFGEAjFeAY9Cd4IoUYQCrV4Bj7bRVKRRhALNXW2AAgP1bYQBvYQDGVlsAW2EAb2EA21ZbYQBvYQCHNmAEYQE8VltgAFVWW2EAlWAAVIFWW2BAUWEAopGQYQFlVltgQFGAkQOQ81thAJVhAPNWW2EAb2EAwTZgBGEBllZbYQEPVltgAIBUkIBhANWDYQHNVluRkFBVAFtgAIBUkIBhAOqDYQHNVluRkFBVYACA/VtgAIBUgYBhAQKDYQHNVluRkFBVUGAAVJBQkFZbgGABYAFgoBsDFv9bgFuBFGEBKFdgAID9W1BWW4A1YQE2gWEBG1ZbkpFQUFZbYABgIIKEAxIVYQFRV2EBUWAAgP1bYABhAV2EhGEBK1ZblJNQUFBQVluBgVJgIIEBYQE2VltgAGABYAFgoBsDghZhATZWW2EBHYFhAXFWW4A1YQE2gWEBglZbYABgIIKEAxIVYQGrV2EBq2AAgP1bYABhAV2EhGEBi1ZbY05Ie3Fg4BtgAFJgEWAEUmAkYAD9W2AAYAAZggNhAeBXYQHgYQG3VltQYAEBkFb+omRpcGZzWCISIJIzhp2aS+/m2FyicHt7gYJSdXcJ0lwV+VhhBZEQriSrZHNvbGNDAAgTADOiZGlwZnNYIhIgZttJvB2S+xvThYM5jtuo0lls0K3IuUFHVZnuBZTSp1Nkc29sY0MACBMAMw==",
          "touched": true,
          "read": true
        },
        "0xb71F614Cb2deC02fe8bB5ed53C00d49F804c5EbA": {
          "address": "0xb71F614Cb2deC02fe8bB5ed53C00d49F804c5EbA",
          "nonce": 1,
          "code": "YIBgQFI0gBVhABBXYACA/VtQYAQ2EGEAYldgADVg4ByAYwfaaPUUYQBnV4BjLvw87hRhAHFXgGM/tcHLFGEAeVeAY4OB9YoUYQCMV4Bj0J3gihRhAKtXgGPttFUpFGEAs1dbYACA/VthAG9hAMZWWwBbYQBvYQDbVlthAG9hAIc2YARhATxWW2AAVVZbYQCVYABUgVZbYEBRYQCikZBhAWVWW2BAUYCRA5DzW2EAlWEA81ZbYQBvYQDBNmAEYQGWVlthAQ9WW2AAgFSQgGEA1YNhAc1WW5GQUFUAW2AAgFSQgGEA6oNhAc1WW5GQUFVgAID9W2AAgFSBgGEBAoNhAc1WW5GQUFVQYABUkFCQVluAYAFgAWCgGwMW/1uAW4EUYQEoV2AAgP1bUFZbgDVhATaBYQEbVluSkVBQVltgAGAggoQDEhVhAVFXYQFRYACA/VtgAGEBXYSEYQErVluUk1BQUFBWW4GBUmAggQFhATZWW2AAYAFgAWCgGwOCFmEBNlZbYQEdgWEBcVZbgDVhATaBYQGCVltgAGAggoQDEhVhAatXYQGrYACA/VtgAGEBXYSEYQGLVltjTkh7cWDgG2AAUmARYARSYCRgAP1bYABgABmCA2EB4FdhAeBhAbdWW1BgAQGQVv6iZGlwZnNYIhIgkjOGnZpL7+bYXKJwe3uBglJ1dwnSXBX5WGEFkRCuJKtkc29sY0MACBMAMw==",
          "code_read": "YIBgQFI0gBVhABBXYACA/VtQYAQ2EGEAYldgADVg4ByAYwfaaPUUYQBnV4BjLvw87hRhAHFXgGM/tcHLFGEAeVeAY4OB9YoUYQCMV4Bj0J3gihRhAKtXgGPttFUpFGEAs1dbYACA/VthAG9hAMZWWwBbYQBvYQDbVlthAG9hAIc2YARhATxWW2AAVVZbYQCVYABUgVZbYEBRYQCikZBhAWVWW2BAUYCRA5DzW2EAlWEA81ZbYQBvYQDBNmAEYQGWVlthAQ9WW2AAgFSQgGEA1YNhAc1WW5GQUFUAW2AAgFSQgGEA6oNhAc1WW5GQUFVgAID9W2AAgFSBgGEBAoNhAc1WW5GQUFVQYABUkFCQVluAYAFgAWCgGwMW/1uAW4EUYQEoV2AAgP1bUFZbgDVhATaBYQEbVluSkVBQVltgAGAggoQDEhVhAVFXYQFRYACA/VtgAGEBXYSEYQErVluUk1BQUFBWW4GBUmAggQFhATZWW2AAYAFgAWCgGwOCFmEBNlZbYQEdgWEBcVZbgDVhATaBYQGCVltgAGAggoQDEhVhAatXYQGrYACA/VtgAGEBXYSEYQGLVltjTkh7cWDgG2AAUmARYARSYCRgAP1bYABgABmCA2EB4FdhAeBhAbdWW1BgAQGQVv6iZGlwZnNYIhIgkjOGnZpL7+bYXKJwe3uBglJ1dwnSXBX5WGEFkRCuJKtkc29sY0MACBMAMw==",
          "suicide": true,
          "touched": true,
          "read": true
        },
        "0xbAA34EC447Ee67dbd1c929F4D42F369BD0Fa580F": {
          "address": "0xbAA34EC447Ee67dbd1c929F4D42F369BD0Fa580F",
          "nonce": 1,
          "code": "YIBgQFI0gBVhABBXYACA/VtQYAQ2EGEAYldgADVg4ByAYwfaaPUUYQBnV4BjLvw87hRhAHFXgGM/tcHLFGEAeVeAY4OB9YoUYQCMV4Bj0J3gihRhAKtXgGPttFUpFGEAs1dbYACA/VthAG9hAMZWWwBbYQBvYQDbVlthAG9hAIc2YARhATxWW2AAVVZbYQCVYABUgVZbYEBRYQCikZBhAWVWW2BAUYCRA5DzW2EAlWEA81ZbYQBvYQDBNmAEYQGWVlthAQ9WW2AAgFSQgGEA1YNhAc1WW5GQUFUAW2AAgFSQgGEA6oNhAc1WW5GQUFVgAID9W2AAgFSBgGEBAoNhAc1WW5GQUFVQYABUkFCQVluAYAFgAWCgGwMW/1uAW4EUYQEoV2AAgP1bUFZbgDVhATaBYQEbVluSkVBQVltgAGAggoQDEhVhAVFXYQFRYACA/VtgAGEBXYSEYQErVluUk1BQUFBWW4GBUmAggQFhATZWW2AAYAFgAWCgGwOCFmEBNlZbYQEdgWEBcVZbgDVhATaBYQGCVltgAGAggoQDEhVhAatXYQGrYACA/VtgAGEBXYSEYQGLVltjTkh7cWDgG2AAUmARYARSYCRgAP1bYABgABmCA2EB4FdhAeBhAbdWW1BgAQGQVv6iZGlwZnNYIhIgkjOGnZpL7+bYXKJwe3uBglJ1dwnSXBX5WGEFkRCuJKtkc29sY0MACBMAMw==",
          "code_read": "YIBgQFI0gBVhABBXYACA/VtQYAQ2EGEAYldgADVg4ByAYwfaaPUUYQBnV4BjLvw87hRhAHFXgGM/tcHLFGEAeVeAY4OB9YoUYQCMV4Bj0J3gihRhAKtXgGPttFUpFGEAs1dbYACA/VthAG9hAMZWWwBbYQBvYQDbVlthAG9hAIc2YARhATxWW2AAVVZbYQCVYABUgVZbYEBRYQCikZBhAWVWW2BAUYCRA5DzW2EAlWEA81ZbYQBvYQDBNmAEYQGWVlthAQ9WW2AAgFSQgGEA1YNhAc1WW5GQUFUAW2AAgFSQgGEA6oNhAc1WW5GQUFVgAID9W2AAgFSBgGEBAoNhAc1WW5GQUFVQYABUkFCQVluAYAFgAWCgGwMW/1uAW4EUYQEoV2AAgP1bUFZbgDVhATaBYQEbVluSkVBQVltgAGAggoQDEhVhAVFXYQFRYACA/VtgAGEBXYSEYQErVluUk1BQUFBWW4GBUmAggQFhATZWW2AAYAFgAWCgGwOCFmEBNlZbYQEdgWEBcVZbgDVhATaBYQGCVltgAGAggoQDEhVhAatXYQGrYACA/VtgAGEBXYSEYQGLVltjTkh7cWDgG2AAUmARYARSYCRgAP1bYABgABmCA2EB4FdhAeBhAbdWW1BgAQGQVv6iZGlwZnNYIhIgkjOGnZpL7+bYXKJwe3uBglJ1dwnSXBX5WGEFkRCuJKtkc29sY0MACBMAMw==",
          "suicide": true,
          "touched": true,
          "read": true
        },
        "0xe0dBc2B9937f2E802E0598632ee6261C979C8C94": {
          "address": "0xe0dBc2B9937f2E802E0598632ee6261C979C8C94",
          "nonce": 1,
          "storage": {
            "0x0000000000000000000000000000000000000000000000000000000000000000": "0x0000000000000000000000000000000000000000000000000000000000000003"
          },
          "storage_read": {
            "0x0000000000000000000000000000000000000000000000000000000000000000": {}
          },
          "code": "YIBgQFI0gBVhABBXYACA/VtQYAQ2EGEAYldgADVg4ByAYwfaaPUUYQBnV4BjLvw87hRhAHFXgGM/tcHLFGEAeVeAY4OB9YoUYQCMV4Bj0J3gihRhAKtXgGPttFUpFGEAs1dbYACA/VthAG9hAMZWWwBbYQBvYQDbVlthAG9hAIc2YARhATxWW2AAVVZbYQCVYABUgVZbYEBRYQCikZBhAWVWW2BAUYCRA5DzW2EAlWEA81ZbYQBvYQDBNmAEYQGWVlthAQ9WW2AAgFSQgGEA1YNhAc1WW5GQUFUAW2AAgFSQgGEA6oNhAc1WW5GQUFVgAID9W2AAgFSBgGEBAoNhAc1WW5GQUFVQYABUkFCQVluAYAFgAWCgGwMW/1uAW4EUYQEoV2AAgP1bUFZbgDVhATaBYQEbVluSkVBQVltgAGAggoQDEhVhAVFXYQFRYACA/VtgAGEBXYSEYQErVluUk1BQUFBWW4GBUmAggQFhATZWW2AAYAFgAWCgGwOCFmEBNlZbYQEdgWEBcVZbgDVhATaBYQGCVltgAGAggoQDEhVhAatXYQGrYACA/VtgAGEBXYSEYQGLVltjTkh7cWDgG2AAUmARYARSYCRgAP1bYABgABmCA2EB4FdhAeBhAbdWW1BgAQGQVv6iZGlwZnNYIhIgkjOGnZpL7+bYXKJwe3uBglJ1dwnSXBX5WGEFkRCuJKtkc29sY0MACBMAMw==",
          "code_read": "YIBgQFI0gBVhABBXYACA/VtQYAQ2EGEAYldgADVg4ByAYwfaaPUUYQBnV4BjLvw87hRhAHFXgGM/tcHLFGEAeVeAY4OB9YoUYQCMV4Bj0J3gihRhAKtXgGPttFUpFGEAs1dbYACA/VthAG9hAMZWWwBbYQBvYQDbVlthAG9hAIc2YARhATxWW2AAVVZbYQCVYABUgVZbYEBRYQCikZBhAWVWW2BAUYCRA5DzW2EAlWEA81ZbYQBvYQDBNmAEYQGWVlthAQ9WW2AAgFSQgGEA1YNhAc1WW5GQUFUAW2AAgFSQgGEA6oNhAc1WW5GQUFVgAID9W2AAgFSBgGEBAoNhAc1WW5GQUFVQYABUkFCQVluAYAFgAWCgGwMW/1uAW4EUYQEoV2AAgP1bUFZbgDVhATaBYQEbVluSkVBQVltgAGAggoQDEhVhAVFXYQFRYACA/VtgAGEBXYSEYQErVluUk1BQUFBWW4GBUmAggQFhATZWW2AAYAFgAWCgGwOCFmEBNlZbYQEdgWEBcVZbgDVhATaBYQGCVltgAGAggoQDEhVhAatXYQGrYACA/VtgAGEBXYSEYQGLVltjTkh7cWDgG2AAUmARYARSYCRgAP1bYABgABmCA2EB4FdhAeBhAbdWW1BgAQGQVv6iZGlwZnNYIhIgkjOGnZpL7+bYXKJwe3uBglJ1dwnSXBX5WGEFkRCuJKtkc29sY0MACBMAMw==",
          "touched": true,
          "read": true
        }
      }
    }
  ]
}
