{
  "accountTrie": {
    "02d72480406ff28d1eebfb455f2599aa7f3a9509f0de1588245ba1bb5539d288": "f851a0e29cd6451f96ed556022f6076eacfbb24d0680280f8a4a588419a89b9a4260aa80808080808080a0bd88c640d2508a8a6cea82b16c1f5e8409e8d43c8a1665880ef9968f9e5451538080808080808080",
    "1cb313ad99e089b708592ed3cc840a038f66b80e27693a57077878a563eda75a": "f871808080a002d72480406ff28d1eebfb455f2599aa7f3a9509f0de1588245ba1bb5539d288a0eb68126485dcaaca88731b1076aa5fe02a61cd409ffa5d95e08245b57d84c1afa03d2c9faa594230d254816429f8dc379c30c8b3679ef67f44dd31f3e6822f9a498080808080808080808080",
    "44cf03dc93eacc320e3c53fab357f896083cc6bd3b5933b12d3177003fe60f4d": "f90211a07aa37f4e8b1366a6e684d0ca39dfbc36ea645faf486b16404b0319a0d7a290b5a04fffe3b14f4b97c96945632e6e5fddd41827566dbce266b404bcf25826cc71a3a0f7336f1bbd47de3425668cbc835f9dea28e3337206a6ddc39e2d75c0cfbc3fa6a04bb4c7cdcdeccf73fe237ac3243854cdbc243bf42d3c7310b243f70ae24e0deba00898774ab29060c8e1ebca88393ba0342e86bcff5cb7c23c84f62f0fec5729efa01cb313ad99e089b708592ed3cc840a038f66b80e27693a57077878a563eda75aa0f820e589d2219ae3f297594cfd731f2ec64d19b1ba0f918369e9b413c126732da0c95b3da4ec3d45d58ff6944152a656571e178a885202b56c882b5e3cc0311e75a0748fec3943b710a94cec1bd81e315dfd8d9d6608ad81f521be9cfb9a84b72d3da0e6e82a109ac4e5daed8f76043d8393d0298472e0518ff96a48b8492e479881fba07d93d1d97d232cb9ed04e1f4cc3a82e036c640986853cfe44dae7134f8fa2d3da054cab2921d01b8ab026305874aca3f192ae1af8f0bb0c5d39e381645509e3931a0a73d90c574fd18fd5d6ca74b2a6c42841f706bfaf831fdef76805b1029303688a0d5c3f35b3433034102536147a3dcfd190c7bb81fe37c4801a018ecc677f34deca08333762fcaf7193e048ab228010951a924224adf67ad901b5e98441becfcbbd7a092825616236bb69e7dce9723d0bcf9a7f9da80602dcab4c489d1e8ed8f6b347f80",
    "74ef96c74bcca2f7baa7f983d42256479f3436205610374ea1cbae991e6ffa8e": "f8749f3eec2b84f0ba344fd4b4d2f022469febe7a772c4789acfc119eb558ab1da3db852f8503c8c033b2e3c9df94c9d05149f3fa056e81f171bcc55a6ff8345e692c0f86e5b48e01b996cadc001622fb5e363b421a0c5d2460186f7233c927e7db2dcc703c0e500b653ca82273b7bfad8045d85a470",
    "7aa37f4e8b1366a6e684d0ca39dfbc36ea645faf486b16404b0319a0d7a290b5": "f8718080a00a6df8e88efe9ec320b6bc3577cc219757a58ce573eadd452cbfad6bbab6813880808080a0e76cc85e0b60b763047c0bf7f03856ac7457af32cf276e984a0d2751874ade06a0d6e7baf9ad6b04dff3a25f53357482c94918662b5267635373129b88ba77616f8080808080808080",
    "7d93d1d97d232cb9ed04e1f4cc3a82e036c640986853cfe44dae7134f8fa2d3d": "f89180a031d1eb10fdf37ef90417d463e9e3d1dad5bab6a3e8b38ccc4eaa744250317457808080a0b3bc9d1b374fcb16086ca58078eff9ca368be86e1770538db0d1b06658e3f198a088051b9667deb59e99614788c0d0aedaec2b9658bd714c851f16eb1d1ad3965280808080a056c9a23710ac9835e9a1a44b6725755589fc1f9ec5936cb5b11c7352657c58508080808080",
    "b3bc9d1b374fcb16086ca58078eff9ca368be86e1770538db0d1b06658e3f198": "f85180a074ef96c74bcca2f7baa7f983d42256479f3436205610374ea1cbae991e6ffa8e80808080808080808080a0b352e4c72d853473be5eac69cf10adfdc61a3747ec26a4b424f0a29292fc1d3780808080",
    "bd88c640d2508a8a6cea82b16c1f5e8409e8d43c8a1665880ef9968f9e545153": "f8729f30c7b7ae81a58eb98d9c78de4a1fd7fd9535fc953ed2be602daaa41767312ab850f84e808ad3c21bd2b1bacd9dcf2fa056e81f171bcc55a6ff8345e692c0f86e5b48e01b996cadc001622fb5e363b421a0c5d2460186f7233c927e7db2dcc703c0e500b653ca82273b7bfad8045d85a470",
    "c95b3da4ec3d45d58ff6944152a656571e178a885202b56c882b5e3cc0311e75": "f8918080808080808080a08acfcc5d12f75a3532d30bec4da20159bcf79c89ab54616f4652018a6a6efbfb808080a0fe63526de7f60814b7c6b0b4a11aba6d7f9d5aa973ccbd5800f8b5eba1083246a08a0977db0c40a342485134dc58b8ec9ca0c4d0b37ec2659d0d7333265623b7f580a0426f557212756f658ce9ad6197f233d78ac00ebad04c145d0d8a4575abbfee4780",
    "e76cc85e0b60b763047c0bf7f03856ac7457af32cf276e984a0d2751874ade06": "f869a02088cf291b5b859fa19c00375139aec4555453a73d38f743f3d355998748e353b846f8440180a056e81f171bcc55a6ff8345e692c0f86e5b48e01b996cadc001622fb5e363b421a09ea438ce0b01775924aa396ee7ba6bc8cbf87959a86b229951c623bcb9cb5fdc",
    "fe63526de7f60814b7c6b0b4a11aba6d7f9d5aa973ccbd5800f8b5eba1083246": "f873a02082f050cb357a36d397fbf1bf8ae229e585729de88fbd29953f3d46e686a400b850f84e808ad3c21bf17bd82ec21e70a056e81f171bcc55a6ff8345e692c0f86e5b48e01b996cadc001622fb5e363b421a0c5d2460186f7233c927e7db2dcc703c0e500b653ca82273b7bfad8045d85a470"
  },
  "storageTrie": null,
  "parentStateRoot": "0x44cf03dc93eacc320e3c53fab357f896083cc6bd3b5933b12d3177003fe60f4d",
  "transactionTraces": [
    {
      "txn": "0xf86c3c8498f6f8a482520894deadbeefdeadbeefdeadbeefdeadbeefdeadbeef87038d7ea4c6800080820fc5a08b1bc7c111a407bfb39c26daaa27fe03bf437319c42d4c5c1d027fd8494e37aba01d6d201ac437c0d6feab1139a3c90fde2fc66007bb7f84d2d03b105807947209",
      "delta": {
        "0x0000000000000000000000000000000000000000": {
          "address": "0x0000000000000000000000000000000000000000",
          "read": true
        },
        "0x85dA99c8a7C2C95964c8EfD687E95E632Fc533D6": {
          "address": "0x85dA99c8a7C2C95964c8EfD687E95E632Fc533D6",
          "nonce": 61,
          "read": true
        },
        "0x8Ef7ccE1aced4258884e831527C674a2edEA4952": {
          "address": "0x8Ef7ccE1aced4258884e831527C674a2edEA4952",
          "read": true
        },
        "0xDeaDbeefdEAdbeefdEadbEEFdeadbeEFdEaDbeeF": {
          "address": "0xDeaDbeefdEAdbeefdEadbEEFdeadbeEFdEaDbeeF",
          "touched": true,
          "read": true
        }
      }
    }
  ]
}
