{
  "accountTrie": {
    "09a76ea492d9d2bdab0b2ea0f9f9a124376a24410ff3f2bbb258a867f9c82610": "f901f1a07aa37f4e8b1366a6e684d0ca39dfbc36ea645faf486b16404b0319a0d7a290b5a0f26b308fbf175a60c25af491f4879ba1ec11914f6fa9dc722f9746e2ab44679980a0eb0147a6c13630999c8f65d437698ef757d29f8ae4e251554df9da7d2271cd94a0855acc3496e4c492ab905d1283e41ff4d1852a31494e06f7aaa642f99169cb42a07bb3d4f78769214dc1617a7fcaae1d6e8141d608a5b15ee2b5edcedd217258e3a0f820e589d2219ae3f297594cfd731f2ec64d19b1ba0f918369e9b413c126732da02f78bcf8aa858d16afd49d0301bd709a825ff00b81dfbb8a1f6842066d557abaa010acbab12823357aa0f63313a255c78eec09c0b4d1c87054de7e7ba6b7fd90bea0e6e82a109ac4e5daed8f76043d8393d0298472e0518ff96a48b8492e479881fba02213fff360f7535e0e4449455906e53c515dae1f0e34f857c32b5d1c79122baca054cab2921d01b8ab026305874aca3f192ae1af8f0bb0c5d39e381645509e3931a08df99f815b8aed978f07b7be6915071fcc32863c90b4fc54df8d3fef52e8f0b0a0d5c3f35b3433034102536147a3dcfd190c7bb81fe37c4801a018ecc677f34deca08333762fcaf7193e048ab228010951a924224adf67ad901b5e98441becfcbbd7a02b0d17fcac67194c466f69c97363fa60de92d1e9131811960f13c9a19677d77680",
    "16f573d36904194fa34ba95a698b6cf789c6210320bfc14b79841a7b341ae22a": "f8749f3eec2b84f0ba344fd4b4d2f022469febe7a772c4789acfc119eb558ab1da3db852f850118c033b2e3c9e97609e654aabc4a056e81f171bcc55a6ff8345e692c0f86e5b48e01b996cadc001622fb5e363b421a0c5d2460186f7233c927e7db2dcc703c0e500b653ca82273b7bfad8045d85a470",
    "2213fff360f7535e0e4449455906e53c515dae1f0e34f857c32b5d1c79122bac": "f85180a031d1eb10fdf37ef90417d463e9e3d1dad5bab6a3e8b38ccc4eaa744250317457808080a097746f22192a00fd628ce57246bb087b9241a97051e5e263fa03229dbed72c068080808080808080808080",
    "277ddeaa48e5aea277b5f6b564760712ec46a77f43dfe1c776a52ca09e2f14a2": "f873a02082f050cb357a36d397fbf1bf8ae229e585729de88fbd29953f3d46e686a400b850f84e808ad3c21be11d3a5812f000a056e81f171bcc55a6ff8345e692c0f86e5b48e01b996cadc001622fb5e363b421a0c5d2460186f7233c927e7db2dcc703c0e500b653ca82273b7bfad8045d85a470",
    "2b0d17fcac67194c466f69c97363fa60de92d1e9131811960f13c9a19677d776": "f85180a0a998b6373554d332c8855599b3d532833d81c2246d814cbae760876126077dc280a044a39a1483a58de9b12fed25d33adfd91ebc0f6148012294794a043b06e3f36080808080808080808080808080",
    "2f78bcf8aa858d16afd49d0301bd709a825ff00b81dfbb8a1f6842066d557aba": "f8918080808080808080a08acfcc5d12f75a3532d30bec4da20159bcf79c89ab54616f4652018a6a6efbfb808080a0277ddeaa48e5aea277b5f6b564760712ec46a77f43dfe1c776a52ca09e2f14a2a08a0977db0c40a342485134dc58b8ec9ca0c4d0b37ec2659d0d7333265623b7f580a0426f557212756f658ce9ad6197f233d78ac00ebad04c145d0d8a4575abbfee4780",
    "375506c694c918842d30df06e8852f5c338a4a912f4218b979afbff695eec153": "f8729f30c7b7ae81a58eb98d9c78de4a1fd7fd9535fc953ed2be602daaa41767312ab850f84e808ad3c21bd2b148e43b3f35a056e81f171bcc55a6ff8345e692c0f86e5b48e01b996cadc001622fb5e363b421a0c5d2460186f7233c927e7db2dcc703c0e500b653ca82273b7bfad8045d85a470",
    "620827e7a0f798656888797f3f5721ee254921186ede8d0025eca474a8244e8d": "f851a0e29cd6451f96ed556022f6076eacfbb24d0680280f8a4a588419a89b9a4260aa80808080808080a0375506c694c918842d30df06e8852f5c338a4a912f4218b979afbff695eec1538080808080808080",
    "7bb3d4f78769214dc1617a7fcaae1d6e8141d608a5b15ee2b5edcedd217258e3": "f851808080a0620827e7a0f798656888797f3f5721ee254921186ede8d0025eca474a8244e8d80a03d2c9faa594230d254816429f8dc379c30c8b3679ef67f44dd31f3e6822f9a498080808080808080808080",
    "97746f22192a00fd628ce57246bb087b9241a97051e5e263fa03229dbed72c06": "f85180a016f573d36904194fa34ba95a698b6cf789c6210320bfc14b79841a7b341ae22a80808080808080808080a0b352e4c72d853473be5eac69cf10adfdc61a3747ec26a4b424f0a29292fc1d3780808080",
    "a998b6373554d332c8855599b3d532833d81c2246d814cbae760876126077dc2": "f869a0207d357a287cd753a8db1849891c491e39a6e2515209f4d6b6ebe55e730ca86ab846f8440180a086135ef5bd264b22dcb0535beb1447dfb1788a2e09e0e003d8c93a2d6b67c5dca068ec34b771975592f4a19d0ab58f8579ab17e382a5e6ecddfa717b354472b9b0"
  },
  "storageTrie": {
    "86135ef5bd264b22dcb0535beb1447dfb1788a2e09e0e003d8c93a2d6b67c5dc": "f89180808080a01ac2f6079764f98dd9e82b615b42071b08d04f9447557044ac4669f9b750b110808080a0e062e154c1096dcf46c6968b518306698cbffa8369adc6f0122a57ccb3cbb1f5a047e1b61062a7dea0eb2917358f71d509eb31e317b957ef1300dccc96c42ea2668080a02aa97a556a6e4f188c87b89510eea3a6dcff2aa9b6b85e6548476f5d7666852680808080"
  },
  "parentStateRoot": "0x09a76ea492d9d2bdab0b2ea0f9f9a124376a24410ff3f2bbb258a867f9c82610",
  "transactionTraces": [
    {
      "txn": "0xf8aa118496923fd482af1894f7012159bf761b312153e8c8d176932fe9aaa7ea80b844095ea7b3000000000000000000000000d15f63c56aeceb772022eb0f3fec874b5157a36a0000000000000000000000000000000000000000204fce5e3e25026110000000820fc6a0f6acedaaceb74c73c4061c8549d5a7054cd254790f31ee529547dfac0786a0f6a036c2ebfd8da1a15090d50a63d6cf0c9b3e87d444899fe15e19655443e72aba33",
      "delta": {
        "0x0000000000000000000000000000000000000000": {
          "address": "0x0000000000000000000000000000000000000000",
          "read": true
        },
        "0x85dA99c8a7C2C95964c8EfD687E95E632Fc533D6": {
          "address": "0x85dA99c8a7C2C95964c8EfD687E95E632Fc533D6",
          "nonce": 18,
          "read": true
        },
        "0x8Ef7ccE1aced4258884e831527C674a2edEA4952": {
          "address": "0x8Ef7ccE1aced4258884e831527C674a2edEA4952",
          "read": true
        },
        "0xF7012159bF761B312153e8c8D176932Fe9aAA7eA": {
          "address": "0xF7012159bF761B312153e8c8D176932Fe9aAA7eA",
          "storage": {
            "0xcfe79f1d9c2f81f0d0827df84e6478f76e8ecd52a898e7bb91d92decac2d9211": "0x0000000000000000000000000000000000000000204fce5e3e25026110000000"
          },
          "storage_read": {
            "0xcfe79f1d9c2f81f0d0827df84e6478f76e8ecd52a898e7bb91d92decac2d9211": {}
          },
          "code_read": "YIBgQFI0gBVhABBXYACA/VtQYAQ2EGEAqVdgADVg4ByAYzlQk1ERYQBxV4BjOVCTURRhAWhXgGNwoIIxFGEBmFeAY5XYm0EUYQHIV4BjpFfC1xRhAeZXgGOpBZy7FGECFleAY91i7T4UYQJGV2EAqVZbgGMG/d4DFGEArleAYwlep7MUYQDMV4BjGBYN3RRhAPxXgGMjuHLdFGEBGleAYzE85WcUYQFKV1tgAID9W2EAtmECdlZbYEBRYQDDkZBhCwxWW2BAUYCRA5DzW2EA5mAEgDYDgQGQYQDhkZBhC8dWW2EDCFZbYEBRYQDzkZBhDCJWW2BAUYCRA5DzW2EBBGEDK1ZbYEBRYQERkZBhDExWW2BAUYCRA5DzW2EBNGAEgDYDgQGQYQEvkZBhDGdWW2EDNVZbYEBRYQFBkZBhDCJWW2BAUYCRA5DzW2EBUmEDZFZbYEBRYQFfkZBhDNZWW2BAUYCRA5DzW2EBgmAEgDYDgQGQYQF9kZBhC8dWW2EDbVZbYEBRYQGPkZBhDCJWW2BAUYCRA5DzW2EBsmAEgDYDgQGQYQGtkZBhDPFWW2EDpFZbYEBRYQG/kZBhDExWW2BAUYCRA5DzW2EB0GED7FZbYEBRYQHdkZBhCwxWW2BAUYCRA5DzW2ECAGAEgDYDgQGQYQH7kZBhC8dWW2EEflZbYEBRYQINkZBhDCJWW2BAUYCRA5DzW2ECMGAEgDYDgQGQYQIrkZBhC8dWW2EE9VZbYEBRYQI9kZBhDCJWW2BAUYCRA5DzW2ECYGAEgDYDgQGQYQJbkZBhDR5WW2EFGFZbYEBRYQJtkZBhDExWW2BAUYCRA5DzW2BgYAOAVGEChZBhDY1WW4BgHwFgIICRBAJgIAFgQFGQgQFgQFKAkpGQgYFSYCABgoBUYQKxkGENjVZbgBVhAv5XgGAfEGEC01dhAQCAg1QEAoNSkWAgAZFhAv5WW4IBkZBgAFJgIGAAIJBbgVSBUpBgAQGQYCABgIMRYQLhV4KQA2AfFoIBkVtQUFBQUJBQkFZbYACAYQMTYQWfVluQUGEDIIGFhWEFp1ZbYAGRUFCSkVBQVltgAGACVJBQkFZbYACAYQNAYQWfVluQUGEDTYWChWEHcFZbYQNYhYWFYQf8VltgAZFQUJOSUFBQVltgAGASkFCQVltgAIBhA3hhBZ9WW5BQYQOZgYWFYQOKhYlhBRhWW2EDlJGQYQ3tVlthBadWW2ABkVBQkpFQUFZbYACAYACDc///////////////////////////FnP//////////////////////////xaBUmAgAZCBUmAgAWAAIFSQUJGQUFZbYGBgBIBUYQP7kGENjVZbgGAfAWAggJEEAmAgAWBAUZCBAWBAUoCSkZCBgVJgIAGCgFRhBCeQYQ2NVluAFWEEdFeAYB8QYQRJV2EBAICDVAQCg1KRYCABkWEEdFZbggGRkGAAUmAgYAAgkFuBVIFSkGABAZBgIAGAgxFhBFdXgpADYB8WggGRW1BQUFBQkFCQVltgAIBhBIlhBZ9WW5BQYABhBJeChmEFGFZbkFCDgRAVYQTcV2BAUX8Iw3mgAAAAAAAAAAAAAAAAAAAAAAAAAAAAAAAAAAAAAIFSYAQBYQTTkGEOk1ZbYEBRgJEDkP1bYQTpgoaGhANhBadWW2ABklBQUJKRUFBWW2AAgGEFAGEFn1ZbkFBhBQ2BhYVhB/xWW2ABkVBQkpFQUFZbYABgAWAAhHP//////////////////////////xZz//////////////////////////8WgVJgIAGQgVJgIAFgACBgAINz//////////////////////////8Wc///////////////////////////FoFSYCABkIFSYCABYAAgVJBQkpFQUFZbYAAzkFCQVltgAHP//////////////////////////xaDc///////////////////////////FgNhBhZXYEBRfwjDeaAAAAAAAAAAAAAAAAAAAAAAAAAAAAAAAAAAAAAAgVJgBAFhBg2QYQ8lVltgQFGAkQOQ/VtgAHP//////////////////////////xaCc///////////////////////////FgNhBoVXYEBRfwjDeaAAAAAAAAAAAAAAAAAAAAAAAAAAAAAAAAAAAAAAgVJgBAFhBnyQYQ+3VltgQFGAkQOQ/VuAYAFgAIVz//////////////////////////8Wc///////////////////////////FoFSYCABkIFSYCABYAAgYACEc///////////////////////////FnP//////////////////////////xaBUmAgAZCBUmAgAWAAIIGQVVCBc///////////////////////////FoNz//////////////////////////8Wf4xb4eXr7H1b0U9xQn0ehPPdAxTA97IpHlsgCsjHw7klg2BAUWEHY5GQYQxMVltgQFGAkQOQo1BQUFZbYABhB3yEhGEFGFZbkFB///////////////////////////////////////////+BFGEH9leBgRAVYQfoV2BAUX8Iw3mgAAAAAAAAAAAAAAAAAAAAAAAAAAAAAAAAAAAAAIFSYAQBYQffkGEQI1ZbYEBRgJEDkP1bYQf1hISEhANhBadWW1tQUFBQVltgAHP//////////////////////////xaDc///////////////////////////FgNhCGtXYEBRfwjDeaAAAAAAAAAAAAAAAAAAAAAAAAAAAAAAAAAAAAAAgVJgBAFhCGKQYRC1VltgQFGAkQOQ/VtgAHP//////////////////////////xaCc///////////////////////////FgNhCNpXYEBRfwjDeaAAAAAAAAAAAAAAAAAAAAAAAAAAAAAAAAAAAAAAgVJgBAFhCNGQYRFHVltgQFGAkQOQ/VthCOWDg4NhCnJWW2AAgGAAhXP//////////////////////////xZz//////////////////////////8WgVJgIAGQgVJgIAFgACBUkFCBgRAVYQlrV2BAUX8Iw3mgAAAAAAAAAAAAAAAAAAAAAAAAAAAAAAAAAAAAAIFSYAQBYQlikGER2VZbYEBRgJEDkP1bgYEDYACAhnP//////////////////////////xZz//////////////////////////8WgVJgIAGQgVJgIAFgACCBkFVQgWAAgIVz//////////////////////////8Wc///////////////////////////FoFSYCABkIFSYCABYAAgYACCglQBklBQgZBVUIJz//////////////////////////8WhHP//////////////////////////xZ/3fJSrRviyJtpwrBo/DeNqpUrp/FjxKEWKPVaTfUjs++EYEBRYQpZkZBhDExWW2BAUYCRA5CjYQpshISEYQp3VltQUFBQVltQUFBWW1BQUFZbYACBUZBQkZBQVltgAIKCUmAgggGQUJKRUFBWW2AAW4OBEBVhCrZXgIIBUYGEAVJgIIEBkFBhCptWW2AAhIQBUlBQUFBWW2AAYB8ZYB+DARaQUJGQUFZbYABhCt6CYQp8VlthCuiBhWEKh1Zbk1BhCviBhWAghgFhCphWW2ELAYFhCsJWW4QBkVBQkpFQUFZbYABgIIIBkFCBgQNgAIMBUmELJoGEYQrTVluQUJKRUFBWW2AAgP1bYABz//////////////////////////+CFpBQkZBQVltgAGELXoJhCzNWW5BQkZBQVlthC26BYQtTVluBFGELeVdgAID9W1BWW2AAgTWQUGELi4FhC2VWW5KRUFBWW2AAgZBQkZBQVlthC6SBYQuRVluBFGELr1dgAID9W1BWW2AAgTWQUGELwYFhC5tWW5KRUFBWW2AAgGBAg4UDEhVhC95XYQvdYQsuVltbYABhC+yFgoYBYQt8VluSUFBgIGEL/YWChgFhC7JWW5FQUJJQkpBQVltgAIEVFZBQkZBQVlthDByBYQwHVluCUlBQVltgAGAgggGQUGEMN2AAgwGEYQwTVluSkVBQVlthDEaBYQuRVluCUlBQVltgAGAgggGQUGEMYWAAgwGEYQw9VluSkVBQVltgAIBgAGBghIYDEhVhDIBXYQx/YQsuVltbYABhDI6GgocBYQt8VluTUFBgIGEMn4aChwFhC3xWW5JQUGBAYQywhoKHAWELslZbkVBQklCSUJJWW2AAYP+CFpBQkZBQVlthDNCBYQy6VluCUlBQVltgAGAgggGQUGEM62AAgwGEYQzHVluSkVBQVltgAGAggoQDEhVhDQdXYQ0GYQsuVltbYABhDRWEgoUBYQt8VluRUFCSkVBQVltgAIBgQIOFAxIVYQ01V2ENNGELLlZbW2AAYQ1DhYKGAWELfFZbklBQYCBhDVSFgoYBYQt8VluRUFCSUJKQUFZbf05Ie3EAAAAAAAAAAAAAAAAAAAAAAAAAAAAAAAAAAAAAYABSYCJgBFJgJGAA/VtgAGACggSQUGABghaAYQ2lV2B/ghaRUFtgIIIQgQNhDbhXYQ23YQ1eVltbUJGQUFZbf05Ie3EAAAAAAAAAAAAAAAAAAAAAAAAAAAAAAAAAAAAAYABSYBFgBFJgJGAA/VtgAGEN+IJhC5FWW5FQYQ4Dg2ELkVZbklCCggGQUICCERVhDhtXYQ4aYQ2+VltbkpFQUFZbf0VSQzIwOiBkZWNyZWFzZWQgYWxsb3dhbmNlIGJlbG93YACCAVJ/IHplcm8AAAAAAAAAAAAAAAAAAAAAAAAAAAAAAAAAAABgIIIBUlBWW2AAYQ59YCWDYQqHVluRUGEOiIJhDiFWW2BAggGQUJGQUFZbYABgIIIBkFCBgQNgAIMBUmEOrIFhDnBWW5BQkZBQVlt/RVJDMjA6IGFwcHJvdmUgZnJvbSB0aGUgemVybyBhZGRgAIIBUn9yZXNzAAAAAAAAAAAAAAAAAAAAAAAAAAAAAAAAAAAAAGAgggFSUFZbYABhDw9gJINhCodWW5FQYQ8agmEOs1ZbYECCAZBQkZBQVltgAGAgggGQUIGBA2AAgwFSYQ8+gWEPAlZbkFCRkFBWW39FUkMyMDogYXBwcm92ZSB0byB0aGUgemVybyBhZGRyZWAAggFSf3NzAAAAAAAAAAAAAAAAAAAAAAAAAAAAAAAAAAAAAAAAYCCCAVJQVltgAGEPoWAig2EKh1ZbkVBhD6yCYQ9FVltgQIIBkFCRkFBWW2AAYCCCAZBQgYEDYACDAVJhD9CBYQ+UVluQUJGQUFZbf0VSQzIwOiBpbnN1ZmZpY2llbnQgYWxsb3dhbmNlAAAAYACCAVJQVltgAGEQDWAdg2EKh1ZbkVBhEBiCYQ/XVltgIIIBkFCRkFBWW2AAYCCCAZBQgYEDYACDAVJhEDyBYRAAVluQUJGQUFZbf0VSQzIwOiB0cmFuc2ZlciBmcm9tIHRoZSB6ZXJvIGFkYACCAVJ/ZHJlc3MAAAAAAAAAAAAAAAAAAAAAAAAAAAAAAAAAAABgIIIBUlBWW2AAYRCfYCWDYQqHVluRUGEQqoJhEENWW2BAggGQUJGQUFZbYABgIIIBkFCBgQNgAIMBUmEQzoFhEJJWW5BQkZBQVlt/RVJDMjA6IHRyYW5zZmVyIHRvIHRoZSB6ZXJvIGFkZHJgAIIBUn9lc3MAAAAAAAAAAAAAAAAAAAAAAAAAAAAAAAAAAAAAAGAgggFSUFZbYABhETFgI4NhCodWW5FQYRE8gmEQ1VZbYECCAZBQkZBQVltgAGAgggGQUIGBA2AAgwFSYRFggWERJFZbkFCRkFBWW39FUkMyMDogdHJhbnNmZXIgYW1vdW50IGV4Y2VlZHMgYmAAggFSf2FsYW5jZQAAAAAAAAAAAAAAAAAAAAAAAAAAAAAAAAAAYCCCAVJQVltgAGERw2Amg2EKh1ZbkVBhEc6CYRFnVltgQIIBkFCRkFBWW2AAYCCCAZBQgYEDYACDAVJhEfKBYRG2VluQUJGQUFb+omRpcGZzWCISINwaT1Bj2EQcsY1D2YT/+vOyYNTTDgTLrJPce+non9O5ZHNvbGNDAAgTADM=",
          "touched": true,
          "read": true
        }
      }
    }
  ]
}
