{
  "accountTrie": {
    "0576ce49f29e47809e66883fcb29ccf5d977a12e34a489ea01bf44d603b290a3": "f85180a0c066482694dbb571c9181eb4d8bc2e45c46f66a85399fd51de7dea651dfd78d680808080808080808080a0b352e4c72d853473be5eac69cf10adfdc61a3747ec26a4b424f0a29292fc1d3780808080",
    "06e19f319c00f4ddd33747aa9282548ce0bf176449110bd0d49ca51d27bceb2c": "f8729f30c7b7ae81a58eb98d9c78de4a1fd7fd9535fc953ed2be602daaa41767312ab850f84e808ad3c21bd2b1bacd111d73a056e81f171bcc55a6ff8345e692c0f86e5b48e01b996cadc001622fb5e363b421a0c5d2460186f7233c927e7db2dcc703c0e500b653ca82273b7bfad8045d85a470",
    "0a6a431ca0a8fbd233f53ff96d6122e87cec551cad517bf263526d75796c1d14": "f869a0201153dbf206d75683e43f23b3371905565fb3664658cb6614c697cb2d268f1fb846f8440180a00ec8b6461f29898609825bdac473d45556a3e04f17edbafb21100bcb9029e5b2a047b29abe53c19aeca5c0eb589a063611294ffe0c4fb918af3faedacb1888a815",
    "206a974a9b148852a1df797894bb7942ae83e628a1d4f92a38bfeece7f402b57": "f89180a031d1eb10fdf37ef90417d463e9e3d1dad5bab6a3e8b38ccc4eaa744250317457808080a00576ce49f29e47809e66883fcb29ccf5d977a12e34a489ea01bf44d603b290a3a088051b9667deb59e99614788c0d0aedaec2b9658bd714c851f16eb1d1ad3965280808080a00a6a431ca0a8fbd233f53ff96d6122e87cec551cad517bf263526d75796c1d148080808080",
    "2501d424a772d4cc8f5c14223635efed2924a62aa9c504ddd73edaa0b7079cba": "f851a0e29cd6451f96ed556022f6076eacfbb24d0680280f8a4a588419a89b9a4260aa80808080808080a006e19f319c00f4ddd33747aa9282548ce0bf176449110bd0d49ca51d27bceb2c8080808080808080",
    "65efad2e0d947f6a817c9c17ad9a7645bac7d01de2f06519cb0ebfa98921ae8c": "f871808080a02501d424a772d4cc8f5c14223635efed2924a62aa9c504ddd73edaa0b7079cbaa0eb68126485dcaaca88731b1076aa5fe02a61cd409ffa5d95e08245b57d84c1afa03d2c9faa594230d254816429f8dc379c30c8b3679ef67f44dd31f3e6822f9a498080808080808080808080",
    "7dc7412593292c3c009a629ca55031f3b257cdf855ecddaa34c35378a4b17c9c": "f90211a07aa37f4e8b1366a6e684d0ca39dfbc36ea645faf486b16404b0319a0d7a290b5a04fffe3b14f4b97c96945632e6e5fddd41827566dbce266b404bcf25826cc71a3a0f7336f1bbd47de3425668cbc835f9dea28e3337206a6ddc39e2d75c0cfbc3fa6a04bb4c7cdcdeccf73fe237ac3243854cdbc243bf42d3c7310b243f70ae24e0deba00898774ab29060c8e1ebca88393ba0342e86bcff5cb7c23c84f62f0fec5729efa065efad2e0d947f6a817c9c17ad9a7645bac7d01de2f06519cb0ebfa98921ae8ca0f820e589d2219ae3f297594cfd731f2ec64d19b1ba0f918369e9b413c126732da0c95b3da4ec3d45d58ff6944152a656571e178a885202b56c882b5e3cc0311e75a0748fec3943b710a94cec1bd81e315dfd8d9d6608ad81f521be9cfb9a84b72d3da0e6e82a109ac4e5daed8f76043d8393d0298472e0518ff96a48b8492e479881fba0206a974a9b148852a1df797894bb7942ae83e628a1d4f92a38bfeece7f402b57a054cab2921d01b8ab026305874aca3f192ae1af8f0bb0c5d39e381645509e3931a09219f0f9feeec10e5820e653a018ba19aa01e019bfb2149913771cf1f0ec090da0d5c3f35b3433034102536147a3dcfd190c7bb81fe37c4801a018ecc677f34deca08333762fcaf7193e048ab228010951a924224adf67ad901b5e98441becfcbbd7a092825616236bb69e7dce9723d0bcf9a7f9da80602dcab4c489d1e8ed8f6b347f80",
    "9219f0f9feeec10e5820e653a018ba19aa01e019bfb2149913771cf1f0ec090d": "f8918080808080a08d8d5cfa75bc646c9e6347dc2dedd4b9ce4a34d34d066344148525b0cc0cc7e58080a02b552522c790b0433d466408318c5c61bfa7e2dbb9c2e13bfec3d1d51290addd8080808080a0d3065c6221898cccb854b843d457e07b2d0613151811a88736126845faab9a71a099a6632dc218993740f5b428ad3602ef19498960c916c08326a1b5e6c61af9f280",
    "c066482694dbb571c9181eb4d8bc2e45c46f66a85399fd51de7dea651dfd78d6": "f8749f3eec2b84f0ba344fd4b4d2f022469febe7a772c4789acfc119eb558ab1da3db852f8503b8c033b2e3c9dfa00506705be47a056e81f171bcc55a6ff8345e692c0f86e5b48e01b996cadc001622fb5e363b421a0c5d2460186f7233c927e7db2dcc703c0e500b653ca82273b7bfad8045d85a470",
    "d3065c6221898cccb854b843d457e07b2d0613151811a88736126845faab9a71": "f873a0209bad3efd7d22d728e0b92c3bcdab947570414641f88051189032c4b246dc34b850f84e808ad3c21c1cf24bd79b99bea056e81f171bcc55a6ff8345e692c0f86e5b48e01b996cadc001622fb5e363b421a0c5d2460186f7233c927e7db2dcc703c0e500b653ca82273b7bfad8045d85a470"
  },
  "storageTrie": {
    "0ec8b6461f29898609825bdac473d45556a3e04f17edbafb21100bcb9029e5b2": "f871a047d7ee2bc83e298d425fcad38e9b1ada9342f14b67f78ed69fe67a7893db9e5080808080808080a03c9725981e17707bd8612860278f4b6772db03e0e9ba3a550960d3cc81813df3808080a00217fd512c517b27264b1a710888bfc8c65bfff172b5e3f47cc71c76f0b11e3e80808080"
  },
  "parentStateRoot": "0x7dc7412593292c3c009a629ca55031f3b257cdf855ecddaa34c35378a4b17c9c",
  "transactionTraces": [
    {
      "txn": "0x02f8918207d13b84b2d05e0084b2d05f688301014594a0e8e2c0dd4c98b39f9a2aaac6cab19b77d1836980a4a0712d680000000000000000000000000000000000000001431e0fae6d7217caa0000000c001a05a4fd5fbab67b819fe2328a4c1d2ff1e680539b3fc1d0aa941772ed689d0d740a01632da17108b80a348be0cd086c8b151c78d845482daa3507495c990453b2657",
      "delta": {
        "0x0000000000000000000000000000000000000000": {
          "address": "0x0000000000000000000000000000000000000000",
          "read": true
        },
        "0x85dA99c8a7C2C95964c8EfD687E95E632Fc533D6": {
          "address": "0x85dA99c8a7C2C95964c8EfD687E95E632Fc533D6",
          "nonce": 60,
          "read": true
        },
        "0xA0e8e2c0dd4c98b39F9A2aaAc6CAB19b77D18369": {
          "address": "0xA0e8e2c0dd4c98b39F9A2aaAc6CAB19b77D18369",
          "storage": {
            "0x0000000000000000000000000000000000000000000000000000000000000000": "0x0000000000000000000000000000000000000001431e0fae6d7217caa0000000",
            "0x42fe90393dafacccf318596e1ca7e1e77c330a9ddff37275ce72bbe7ecb10ab8": "0x0000000000000000000000000000000000000001431e0fae6d7217caa0000000"
          },
          "storage_read": {
            "0x0000000000000000000000000000000000000000000000000000000000000000": {},
            "0x42fe90393dafacccf318596e1ca7e1e77c330a9ddff37275ce72bbe7ecb10ab8": {}
          },
          "code_read": "YIBgQFI0gBVhABBXYACA/VtQYAQ2EGEAqVdgADVg4ByAY0KWbGgRYQBxV4BjQpZsaBRhAWhXgGNwoIIxFGEBhFeAY5XYm0EUYQG0V4BjoHEtaBRhAdJXgGOpBZy7FGEB7leAY91i7T4UYQIeV2EAqVZbgGMG/d4DFGEArleAYwlep7MUYQDMV4BjGBYN3RRhAPxXgGMjuHLdFGEBGleAYzE85WcUYQFKV1tgAID9W2EAtmECTlZbYEBRYQDDkZBhCb5WW2BAUYCRA5DzW2EA5mAEgDYDgQGQYQDhkZBhCnlWW2EC3FZbYEBRYQDzkZBhCtRWW2BAUYCRA5DzW2EBBGEDzlZbYEBRYQERkZBhCv5WW2BAUYCRA5DzW2EBNGAEgDYDgQGQYQEvkZBhCxlWW2ED1FZbYEBRYQFBkZBhCtRWW2BAUYCRA5DzW2EBUmEFhVZbYEBRYQFfkZBhC4hWW2BAUYCRA5DzW2EBgmAEgDYDgQGQYQF9kZBhC6NWW2EFmFZbAFthAZ5gBIA2A4EBkGEBmZGQYQvQVlthBm9WW2BAUWEBq5GQYQr+VltgQFGAkQOQ81thAbxhBodWW2BAUWEByZGQYQm+VltgQFGAkQOQ81thAexgBIA2A4EBkGEB55GQYQujVlthBxVWWwBbYQIIYASANgOBAZBhAgORkGEKeVZbYQfsVltgQFFhAhWRkGEK1FZbYEBRgJEDkPNbYQI4YASANgOBAZBhAjORkGEL/VZbYQkJVltgQFFhAkWRkGEK/lZbYEBRgJEDkPNbYAOAVGECW5BhDGxWW4BgHwFgIICRBAJgIAFgQFGQgQFgQFKAkpGQgYFSYCABgoBUYQKHkGEMbFZbgBVhAtRXgGAfEGECqVdhAQCAg1QEAoNSkWAgAZFhAtRWW4IBkZBgAFJgIGAAIJBbgVSBUpBgAQGQYCABgIMRYQK3V4KQA2AfFoIBkVtQUFBQUIFWW2AAgWACYAAzc///////////////////////////FnP//////////////////////////xaBUmAgAZCBUmAgAWAAIGAAhXP//////////////////////////xZz//////////////////////////8WgVJgIAGQgVJgIAFgACCBkFVQgnP//////////////////////////xYzc///////////////////////////Fn+MW+Hl6+x9W9FPcUJ9HoTz3QMUwPeyKR5bIArIx8O5JYRgQFFhA7yRkGEK/lZbYEBRgJEDkKNgAZBQkpFQUFZbYABUgVZbYACBYAJgAIZz//////////////////////////8Wc///////////////////////////FoFSYCABkIFSYCABYAAgYAAzc///////////////////////////FnP//////////////////////////xaBUmAgAZCBUmAgAWAAIGAAgoJUYQRikZBhDMxWW5JQUIGQVVCBYAFgAIZz//////////////////////////8Wc///////////////////////////FoFSYCABkIFSYCABYAAgYACCglRhBLiRkGEMzFZbklBQgZBVUIFgAWAAhXP//////////////////////////xZz//////////////////////////8WgVJgIAGQgVJgIAFgACBgAIKCVGEFDpGQYQ0AVluSUFCBkFVQgnP//////////////////////////xaEc///////////////////////////Fn/d8lKtG+LIm2nCsGj8N42qlSun8WPEoRYo9VpN9SOz74RgQFFhBXKRkGEK/lZbYEBRgJEDkKNgAZBQk5JQUFBWW2AFYACQVJBhAQAKkARg/xaBVluAYAFgADNz//////////////////////////8Wc///////////////////////////FoFSYCABkIFSYCABYAAgYACCglRhBeeRkGEMzFZbklBQgZBVUIBgAICCglRhBf+RkGEMzFZbklBQgZBVUGAAc///////////////////////////FjNz//////////////////////////8Wf93yUq0b4sibacKwaPw3jaqVK6fxY8ShFij1Wk31I7Pvg2BAUWEGZJGQYQr+VltgQFGAkQOQo1BWW2ABYCBSgGAAUmBAYAAgYACRUJBQVIFWW2AEgFRhBpSQYQxsVluAYB8BYCCAkQQCYCABYEBRkIEBYEBSgJKRkIGBUmAgAYKAVGEGwJBhDGxWW4AVYQcNV4BgHxBhBuJXYQEAgINUBAKDUpFgIAGRYQcNVluCAZGQYABSYCBgACCQW4FUgVKQYAEBkGAgAYCDEWEG8FeCkANgHxaCAZFbUFBQUFCBVluAYAFgADNz//////////////////////////8Wc///////////////////////////FoFSYCABkIFSYCABYAAgYACCglRhB2SRkGENAFZbklBQgZBVUIBgAICCglRhB3yRkGENAFZbklBQgZBVUDNz//////////////////////////8WYABz//////////////////////////8Wf93yUq0b4sibacKwaPw3jaqVK6fxY8ShFij1Wk31I7Pvg2BAUWEH4ZGQYQr+VltgQFGAkQOQo1BWW2AAgWABYAAzc///////////////////////////FnP//////////////////////////xaBUmAgAZCBUmAgAWAAIGAAgoJUYQg9kZBhDMxWW5JQUIGQVVCBYAFgAIVz//////////////////////////8Wc///////////////////////////FoFSYCABkIFSYCABYAAgYACCglRhCJORkGENAFZbklBQgZBVUIJz//////////////////////////8WM3P//////////////////////////xZ/3fJSrRviyJtpwrBo/DeNqpUrp/FjxKEWKPVaTfUjs++EYEBRYQj3kZBhCv5WW2BAUYCRA5CjYAGQUJKRUFBWW2ACYCBSgWAAUmBAYAAgYCBSgGAAUmBAYAAgYACRUJFQUFSBVltgAIFRkFCRkFBWW2AAgoJSYCCCAZBQkpFQUFZbYABbg4EQFWEJaFeAggFRgYQBUmAggQGQUGEJTVZbYACEhAFSUFBQUFZbYABgHxlgH4MBFpBQkZBQVltgAGEJkIJhCS5WW2EJmoGFYQk5VluTUGEJqoGFYCCGAWEJSlZbYQmzgWEJdFZbhAGRUFCSkVBQVltgAGAgggGQUIGBA2AAgwFSYQnYgYRhCYVWW5BQkpFQUFZbYACA/VtgAHP//////////////////////////4IWkFCRkFBWW2AAYQoQgmEJ5VZbkFCRkFBWW2EKIIFhCgVWW4EUYQorV2AAgP1bUFZbYACBNZBQYQo9gWEKF1ZbkpFQUFZbYACBkFCRkFBWW2EKVoFhCkNWW4EUYQphV2AAgP1bUFZbYACBNZBQYQpzgWEKTVZbkpFQUFZbYACAYECDhQMSFWEKkFdhCo9hCeBWW1tgAGEKnoWChgFhCi5WW5JQUGAgYQqvhYKGAWEKZFZbkVBQklCSkFBWW2AAgRUVkFCRkFBWW2EKzoFhCrlWW4JSUFBWW2AAYCCCAZBQYQrpYACDAYRhCsVWW5KRUFBWW2EK+IFhCkNWW4JSUFBWW2AAYCCCAZBQYQsTYACDAYRhCu9WW5KRUFBWW2AAgGAAYGCEhgMSFWELMldhCzFhCeBWW1tgAGELQIaChwFhCi5WW5NQUGAgYQtRhoKHAWEKLlZbklBQYEBhC2KGgocBYQpkVluRUFCSUJJQklZbYABg/4IWkFCRkFBWW2ELgoFhC2xWW4JSUFBWW2AAYCCCAZBQYQudYACDAYRhC3lWW5KRUFBWW2AAYCCChAMSFWELuVdhC7hhCeBWW1tgAGELx4SChQFhCmRWW5FQUJKRUFBWW2AAYCCChAMSFWEL5ldhC+VhCeBWW1tgAGEL9ISChQFhCi5WW5FQUJKRUFBWW2AAgGBAg4UDEhVhDBRXYQwTYQngVltbYABhDCKFgoYBYQouVluSUFBgIGEMM4WChgFhCi5WW5FQUJJQkpBQVlt/Tkh7cQAAAAAAAAAAAAAAAAAAAAAAAAAAAAAAAAAAAABgAFJgImAEUmAkYAD9W2AAYAKCBJBQYAGCFoBhDIRXYH+CFpFQW2AgghCBA2EMl1dhDJZhDD1WW1tQkZBQVlt/Tkh7cQAAAAAAAAAAAAAAAAAAAAAAAAAAAAAAAAAAAABgAFJgEWAEUmAkYAD9W2AAYQzXgmEKQ1ZbkVBhDOKDYQpDVluSUIKCA5BQgYERFWEM+ldhDPlhDJ1WW1uSkVBQVltgAGENC4JhCkNWW5FQYQ0Wg2EKQ1ZbklCCggGQUICCERVhDS5XYQ0tYQydVltbkpFQUFb+omRpcGZzWCISIA/fWAkpjA7S5zoT4zClZFc2IqonjcSpYAx0+MwNHTLnZHNvbGNDAAgRADM=",
          "touched": true,
          "read": true
        },
        "0xA52f1226449eA47013CceD3Dc59927657e3054dF": {
          "address": "0xA52f1226449eA47013CceD3Dc59927657e3054dF",
          "read": true
        }
      }
    }
  ]
}
