{
  "accountTrie": {
    "173c113124e4134496f12ab37e95f162dbfe331df5b882c28d5d8a0010549191": "f851a0e29cd6451f96ed556022f6076eacfbb24d0680280f8a4a588419a89b9a4260aa80808080808080a0afc2de25834119793ef32522ebd86bdbf3da2693c7b981c73147fee4108000a18080808080808080",
    "4c75e02150d2c7b08f4209a9b9e58531bbfb233c493978770b27ef4a1694e3c4": "f85180a0c4e25cd966d76259dffa64f3b7ecb10aec2c92a010a6b107b8bc6896903c3db880808080808080808080a0b352e4c72d853473be5eac69cf10adfdc61a3747ec26a4b424f0a29292fc1d3780808080",
    "5f08b79fff5b13a35f422cb0499bde18806bbf7ee03e1246df5ffd2d9692d0c3": "f8b180a031d1eb10fdf37ef90417d463e9e3d1dad5bab6a3e8b38ccc4eaa7442503174578080a0a04e84d92c0b9a1bf76647de42ecc22243261dbc4fa716e6df74039533eb1e90a04c75e02150d2c7b08f4209a9b9e58531bbfb233c493978770b27ef4a1694e3c4a088051b9667deb59e99614788c0d0aedaec2b9658bd714c851f16eb1d1ad3965280808080a0274e2e0e8f8fc8484e8dbec1d909ba8aa63f30695c18d02d0698ff7ac8d89b4b8080808080",
    "66ee920b267039779651b63b965058e48bc4dd79508bdcd501ed2f5e845bc8c8": "f871808080a0173c113124e4134496f12ab37e95f162dbfe331df5b882c28d5d8a0010549191a0eb68126485dcaaca88731b1076aa5fe02a61cd409ffa5d95e08245b57d84c1afa03d2c9faa594230d254816429f8dc379c30c8b3679ef67f44dd31f3e6822f9a498080808080808080808080",
    "77725d55f70b3b8fd7facaf6e6f78301119b04726d6b43902274dc9c71c1066e": "f873a0201e84137173633629f40faeb92a810dbcbf913533c7319539f3382ae8af9922b850f84e808ad3c21d5cfcb75ba3f76fa056e81f171bcc55a6ff8345e692c0f86e5b48e01b996cadc001622fb5e363b421a0c5d2460186f7233c927e7db2dcc703c0e500b653ca82273b7bfad8045d85a470",
    "9e2dbb72f227ab14c4a17abdddb536c8af27c9f5cbb8ed3e0dcd8de18f7f03c0": "f90211a0904033c9ce0a79b5a5d015fd55f475d14f88fb1f10e622852c5e67b900e6b526a0d2c4cf71b9a1395f27a9e7b1113001b7dd2fa0b6d58ac37c4453af69493c31cca0dd342585783a6ee4f0a371fc15d768acb4be61716720e20eecd272bbf094eb0ea04bb4c7cdcdeccf73fe237ac3243854cdbc243bf42d3c7310b243f70ae24e0deba033fd90bc1d66577d8671d8eb81f5253719db089c55f15834f98b8932a044a9e9a066ee920b267039779651b63b965058e48bc4dd79508bdcd501ed2f5e845bc8c8a0f820e589d2219ae3f297594cfd731f2ec64d19b1ba0f918369e9b413c126732da028f484a5a5a91b5cd65ad2948085d0fd9da8bbd3076b393a781fa923ea698573a0bb75324507b857b342328adbfb9cd197b1646c5ab2b31c0cc1207e9f60f49fd3a0e6e82a109ac4e5daed8f76043d8393d0298472e0518ff96a48b8492e479881fba05f08b79fff5b13a35f422cb0499bde18806bbf7ee03e1246df5ffd2d9692d0c3a030680f9eede30dfb471199952e2139efe802084e5b09c5ee13d4c899067e2c47a0d57ebe66b80f4370e375f3d73af2f08ecec12343bc35e582320cde8c8c5827a2a0d5c3f35b3433034102536147a3dcfd190c7bb81fe37c4801a018ecc677f34deca061c55a2935a894ae408aa9e7e507d0646596aef8e3300527b4ec9aa50b3068b9a092825616236bb69e7dce9723d0bcf9a7f9da80602dcab4c489d1e8ed8f6b347f80",
    "afc2de25834119793ef32522ebd86bdbf3da2693c7b981c73147fee4108000a1": "f8729f30c7b7ae81a58eb98d9c78de4a1fd7fd9535fc953ed2be602daaa41767312ab850f84e808ad3c21bd2b1bb12a554dfa056e81f171bcc55a6ff8345e692c0f86e5b48e01b996cadc001622fb5e363b421a0c5d2460186f7233c927e7db2dcc703c0e500b653ca82273b7bfad8045d85a470",
    "bb75324507b857b342328adbfb9cd197b1646c5ab2b31c0cc1207e9f60f49fd3": "f87180808080a012b41603780664ce2545ea3858e3e5f612701ba574a1c32bbc52c129c36c379080808080a01ee5af32dd5edca3317aca4854247bb4d80a6bfa6000262a585381e18d2a81dd80a08f342a8df0569570dfa8188e00c1763a9105214e26e635ce457c859a39858ee78080808080",
    "c4e25cd966d76259dffa64f3b7ecb10aec2c92a010a6b107b8bc6896903c3db8": "f8769f3eec2b84f0ba344fd4b4d2f022469febe7a772c4789acfc119eb558ab1da3db854f85282154e8c033b2e3c5f7ecf4355887c01a056e81f171bcc55a6ff8345e692c0f86e5b48e01b996cadc001622fb5e363b421a0c5d2460186f7233c927e7db2dcc703c0e500b653ca82273b7bfad8045d85a470",
    "d2c4cf71b9a1395f27a9e7b1113001b7dd2fa0b6d58ac37c4453af69493c31cc": "f8718080808080a0162c91a1ecf6c3da75a44156f3567e6831e19d3723f161e6e9e257fc3c77b28c8080808080a0218942d17c031607cd121c93fcdd68e677a875886ab22833448c66aa74d9d036a077725d55f70b3b8fd7facaf6e6f78301119b04726d6b43902274dc9c71c1066e80808080",
    "eb68126485dcaaca88731b1076aa5fe02a61cd409ffa5d95e08245b57d84c1af": "f869a020c1ec272906bc470ab1b71a6d34f39bc8f50066523eb1bff07806f20088c5f6b846f8440180a056e81f171bcc55a6ff8345e692c0f86e5b48e01b996cadc001622fb5e363b421a07eea3a48563e7b938852aafc93d760d31a84ad520adf1128af576cdd65ee9a8e"
  },
  "storageTrie": null,
  "parentStateRoot": "0x9e2dbb72f227ab14c4a17abdddb536c8af27c9f5cbb8ed3e0dcd8de18f7f03c0",
  "transactionTraces": [
    {
      "txn": "0x02f8d48207d182154e84b2d05e0084b2d05e0e830af5da94c3f3338ed0fd9c2013bd26c6b4da337858a486a880b864ce1b193a00000000000000000000000000000000000000000000000000000000000000010000000000000000000000000000000000000000000000000000000000000001000000000000000000000000000000000000000000000000000000000000ffefc080a029151425b1c246df5f6cfe0b35ba63571a2dbe25f02ce7243acf07b10db9ad46a01f49a83c5cc25ea5347612f2a3610d6a9003ee133c5b8a630b41681064005093",
      "delta": {
        "0x0000000000000000000000000000000000000000": {
          "address": "0x0000000000000000000000000000000000000000",
          "read": true
        },
        "0x70A0bb66cF004D0FbdB6880Db1E283871cF13D27": {
          "address": "0x70A0bb66cF004D0FbdB6880Db1E283871cF13D27",
          "read": true
        },
        "0x85dA99c8a7C2C95964c8EfD687E95E632Fc533D6": {
          "address": "0x85dA99c8a7C2C95964c8EfD687E95E632Fc533D6",
          "nonce": 5455,
          "read": true
        },
        "0xC3f3338ed0fd9C2013bd26c6b4DA337858A486a8": {
          "address": "0xC3f3338ed0fd9C2013bd26c6b4DA337858A486a8",
          "nonce": 3,
          "storage": {
            "0x0000000000000000000000000000000000000000000000000000000000000000": "0x000000000000000000000000000000000000000000000000000000007aae88dc",
            "0x0000000000000000000000000000000000000000000000000000000000000003": "0x0000000000000000000000000000000000000000000000000000000000000000",
            "0x0000000000000000000000000000000000000000000000000000000000000004": "0x0000000000000000000000000000000000000000000000000000000000000000",
            "0xc2575a0e9e593c00f959f8c92f12db2869c3395a3b0502d05e2516446f71f85b": "0x0000000000000000000000000000000000000000000000000000000000000000",
            "0xcc69885fda6bcc1a4ace058b4a62bf5e179ea78fd58a1ccd71c22cc9b688792f": "0xccdc366860a81a07edc681b8882cb7950ec6736d27ca42d623fdceb340044e30"
          },
          "storage_read": {
            "0x0000000000000000000000000000000000000000000000000000000000000000": {},
            "0x0000000000000000000000000000000000000000000000000000000000000003": {},
            "0x0000000000000000000000000000000000000000000000000000000000000004": {},
            "0xc2575a0e9e593c00f959f8c92f12db2869c3395a3b0502d05e2516446f71f85b": {},
            "0xcc69885fda6bcc1a4ace058b4a62bf5e179ea78fd58a1ccd71c22cc9b688792f": {}
          },
          "code_read": "YIBgQFJgBDYQYQDzV2AANWDgHIBjdj78CBFhAIpXgGOyrNUJEWEAWVeAY7Ks1QkUYQKEV4BjyqJgMhRhAqRXgGPOGxk6FGEC0VeAY+yLRmoUYQLkV2AAgP1bgGN2PvwIFGECGleAY3hnJ9QUYQIvV4BjfZR5KhRhAk9XgGOumNsvFGECb1dgAID9W4BjQgt9rhFhAMZXgGNCC32uFGEBlFeAY0hJ8nkUYQHDV4BjSdPWBRRhAfBXgGNX/BCjFGECBVdgAID9W4BjAxO/hhRhAPhXgGMUWwVjFGEBI1eAYxoP580UYQFFV4BjMUjxTxRhAXRXW2AAgP1bNIAVYQEEV2AAgP1bUGEBDWACgVZbYEBRYQEakZBhHlxWW2BAUYCRA5DzWzSAFWEBL1dgAID9W1BhAThhAwRWW2BAUWEBGpGQYR5/Vls0gBVhAVFXYACA/VtQYQENYQFgNmAEYR6oVltgAmAgUoBgAFJgQGAAIFSQUIFWWzSAFWEBgFdgAID9W1BhAQ1hAY82YARhHtFWW2EDYFZbNIAVYQGgV2AAgP1bUGEBDWEBrzZgBGEeqFZbYAFgIFKAYABSYEBgACBUkFCBVls0gBVhAc9XYACA/VtQYQHjYQHeNmAEYR8hVlthA65WW2BAUWEBGpGQYR/NVls0gBVhAfxXYACA/VtQYQENYASBVls0gBVhAhFXYACA/VtQYQENYAiBVls0gBVhAiZXYACA/VtQYQENYAGBVls0gBVhAjtXYACA/VtQYQENYQJKNmAEYR6oVlthA/dWWzSAFWECW1dgAID9W1BgAFRhATiQYAFgAWBAGwMWgVZbNIAVYQJ7V2AAgP1bUGEBDWAQgVZbNIAVYQKQV2AAgP1bUGEBDWECnzZgBGEg2FZbYQW2Vls0gBVhArBXYACA/VtQYQLEYQK/NmAEYSDYVlthBfZWW2BAUWEBGpGQYSFuVlthAQ1hAt82YARhIbdWW2EGX1ZbNIAVYQLwV2AAgP1bUGEB42EC/zZgBGEe0VZbYR2zVltgAIBUY4AAAACQYQMlkGABYAFgQBsDFmNBxk5tYSICVlthAzGQYTA5YSIoVlthAzuRkGEiYVZbYACAVGf//////////xkWYAFgAWBAGwOSkJIWkYIXkFWRkFBWW2AAYEBRYCCBUmAggIIBUmAgYECCAVKEYGCCAVKDYICCAVKCYKCCAVJgwFFgIIFgwIRgAGAFYAAZ8WEDoldgAID9W4BRlpVQUFBQUFBWW2EDtmEd9FZbYQO+YR4PVluFgVJgIIEBhZBSYECAggGFkFJgYIIBhJBSgmCAg2AAYAZa8YCAYQPsV2AAgP1bUFBQlJNQUFBQVltgAIBhBAWDYAFhIqRWW2ABYAFgQBsDgREVYQQcV2EEHGEf21ZbYEBRkICCUoBgIAJgIAGCAWBAUoAVYQRFV4FgIAFgIIICgDaDNwGQUFtQkFBgAluDgRFhBIhXYAGCgoFRgRBhBGZXYQRmYSKOVluRFRVgIJKDApGQkQGQkQFSgGEEgIFhIrdWW5FQUGEES1ZbUGACW4NhBJeCgGEi0VZbEWEFGleBgYFRgRBhBK5XYQSuYSKOVltgIAJgIAEBURVhBQhXYABhBMeCgGEi0VZbkFBbhIERYQUGV2AAg4KBUYEQYQTlV2EE5WEijlZbkRUVYCCSgwKRkJEBkJEBUmEE/4KCYSKkVluQUGEEylZbUFuAYQUSgWEit1ZbkVBQYQSMVltQYABgAluEgRFhBXdXgoGBUYEQYQU5V2EFOWEijlZbYCACYCABAVEVYQVlV2AAgoFSYAJgIFKBkGBAkCBVgWEFYYFhIrdWW5JQUFuAYQVvgWEit1ZbkVBQYQUgVltQf+zwpdpXWAMVtcMvOdCGnL7XJUZYZQcSbHalJ//3VG8DgWBAUWEFp5GQYR5cVltgQFGAkQOQoZOSUFBQVltgAICCUZBQYQXIYMCCYSLpVlsVYQXSV2AAgP1bYEBRYCCBg2AghwFgAGAIWvGAgBVhAPNXglGWlVBQUFBQUFZbYGBgAIJRYAFgAWBAGwOBERVhBhNXYQYTYR/bVltgQFGBgVJgHxlgH4MBFoEBYCABYEBSkIAVYQY9V2AgggGBgDaDNwGQUFtQkFCCUYBgIIMBgmAghwFgAGAEWvFhBlhX/ltQkpFQUFZbYACAVGf//////////xkWYAFgAWBAGwOFFheBVX/D0GEUXGeAqnWxVxhxvdb5k3LGBDTzPYr6VAnvXHJjOoRgQFFhBqqRkGEef1ZbYEBRgJEDkKFgAIBgAIBgAIBgAIBgAGBAUWBAUYCRA5CgYABbjGP/////FoFj/////xYQFWEcwldhBuphAwRWW2ABYAFgQBsDFplQYQb9YQMEVltgAWABYEAbAxaYUGEHEomLYSKkVltgQFFgIAFhByKRkGEi+lZbYEBRYCCBgwMDgVKQYEBSgFGQYCABIJVQYQdCYQMEVltgAWABYEAbAxaZUGEHVWEDBFZbYAFgAWBAGwMWmFCFYQdrioxhItFWW2BAUWAgAWEHfJKRkGEjD1ZbYEBRYCCBgwMDgVKQYEBSgFGQYCABIJVQYQecYQMEVltgAWABYEAbAxaZUGEHr2EDBFZbYAFgAWBAGwMWmFCFiYsDYEBRYCABYQfPkpGQYSMPVltgQFFgIIGDAwOBUpBgQFKAUZBgIAEglVBZmVCFimBAUWAgAWEH/ZKRkGEjD1ZbYEBRYCCBgwMDgVKQYEBSgFGQYCABIJVQOJlQhYpgQFFgIAFhCCuSkZBhIw9WW2BAUWAggYMDA4FSkGBAUoBRkGAgASCVUGEIS2EDBFZbYAFgAWBAGwMWmVBhCF5hAwRWW2ABYAFgQBsDFphQhWEIdIqMYSM1VltgQFFgIAFhCIWSkZBhIw9WW2BAUWAggYMDA4FSkGBAUoBRkGAgASCVUGEIpWEDBFZbYAFgAWBAGwMWmVBhCLhhAwRWW2ABYAFgQBsDFphQhWEI0IpgABlhI0lWW2EI2pCMYSN6VltgQFFgIAFhCOuSkZBhIw9WW2BAUWAggYMDA4FSkGBAUoBRkGAgASCVUGEJC2EDBFZbYAFgAWBAGwMWmVBhCR5hAwRWW2ABYAFgQBsDFphQhWEJNIqMYSLpVltgQFFgIAFhCUWSkZBhIw9WW2BAUWAggYMDA4FSkGBAUoBRkGAgASCVUGEJZWEDBFZbYAFgAWBAGwMWmVBhCXhhAwRWW2ABYAFgQBsDFphQhWEJkIpgABlhI0lWW2EJmpCMYSOoVltgQFFgIAFhCauSkZBhIw9WW2BAUWAggYMDA4FSkGBAUoBRkGAgASCVUGEJy2EDBFZbYAFgAWBAGwMWmVBhCd5hAwRWW2ABYAFgQBsDFphQYQnxYQMEVltgAWABYEAbAxaXUIWIgGEKC1dhCgthIktWW4qMCGBAUWAgAWEKH5KRkGEjD1ZbYEBRYCCBgwMDgVKQYEBSgFGQYCABIJVQYQo/YQMEVltgAWABYEAbAxaZUGEKUmEDBFZbYAFgAWBAGwMWmFBhCmVhAwRWW2ABYAFgQBsDFpdQhYiAYQp/V2EKf2EiS1ZbiowJYEBRYCABYQqTkpGQYSMPVltgQFFgIIGDAwOBUpBgQFKAUZBgIAEglVBhCrNhAwRWW2ABYAFgQBsDFplQYQrGYQMEVltgAWABYEAbAxaYUIWJiwpgQFFgIAFhCuaSkZBhIw9WW2BAUWAggYMDA4FSkGBAUoBRkGAgASCVUGELBmEDBFZbYAFgAWBAGwMWmVCFimADC2BAUWAgAWELJ5KRkGEjD1ZbYEBRYCCBgwMDgVKQYEBSgFGQYCABIJVQYQtHYQMEVltgAWABYEAbAxaZUGELWmEDBFZbYAFgAWBAGwMWmFCFiYsQYQtzV4lhC3VWW4pbYEBRYCABYQuGkpGQYSMPVltgQFFgIIGDAwOBUpBgQFKAUZBgIAEglVBhC6ZhAwRWW2ABYAFgQBsDFplQYQu5YQMEVltgAWABYEAbAxaYUIWJixFhC9JXiWEL1FZbiltgQFFgIAFhC+WSkZBhIw9WW2BAUWAggYMDA4FSkGBAUoBRkGAgASCVUGEMBWEDBFZbYAFgAWBAGwMWmVBhDBhhAwRWW2ABYAFgQBsDFphQhYmLEmEMMVeJYQwzVluKW2BAUWAgAWEMRJKRkGEjD1ZbYEBRYCCBgwMDgVKQYEBSgFGQYCABIJVQYQxkYQMEVltgAWABYEAbAxaZUGEMd2EDBFZbYAFgAWBAGwMWmFCFiYsTYQyQV4lhDJJWW4pbYEBRYCABYQyjkpGQYSMPVltgQFFgIIGDAwOBUpBgQFKAUZBgIAEglVBhDMNhAwRWW2ABYAFgQBsDFplQYQzWYQMEVltgAWABYEAbAxaYUIWJixRhDO9XiWEM8VZbiltgQFFgIAFhDQKSkZBhIw9WW2BAUWAggYMDA4FSkGBAUoBRkGAgASCVUGENImEDBFZbYAFgAWBAGwMWmVBhDTVhAwRWW2ABYAFgQBsDFphQhYoVYQ1NV4lhDU9WW4pbYEBRYCABYQ1gkpGQYSMPVltgQFFgIIGDAwOBUpBgQFKAUZBgIAEglVBhDYBhAwRWW2ABYAFgQBsDFplQYQ2TYQMEVltgAWABYEAbAxaYUIWJixZgQFFgIAFhDbOSkZBhIw9WW2BAUWAggYMDA4FSkGBAUoBRkGAgASCVUGEN02EDBFZbYAFgAWBAGwMWmVBhDeZhAwRWW2ABYAFgQBsDFphQhYmLF2BAUWAgAWEOBpKRkGEjD1ZbYEBRYCCBgwMDgVKQYEBSgFGQYCABIJVQYQ4mYQMEVltgAWABYEAbAxaZUGEOOWEDBFZbYAFgAWBAGwMWmFCFiYsYYEBRYCABYQ5ZkpGQYSMPVltgQFFgIIGDAwOBUpBgQFKAUZBgIAEglVBhDnlhAwRWW2ABYAFgQBsDFplQhYoZYEBRYCABYQ6YkpGQYSMPVltgQFFgIIGDAwOBUpBgQFKAUZBgIAEglVCFgGAAGmD4G2BAUWAgAWEOyZKRkGEjzFZbYEBRYCCBgwMDgVKQYEBSgFGQYCABIJVQYQ7pYQMEVltgAWABYEAbAxaZUIVgAYuQG2BAUWAgAWEPC5KRkGEjD1ZbYEBRYCCBgwMDgVKQYEBSgFGQYCABIJVQYQ8rYQMEVltgAWABYEAbAxaZUIVgAYuQHGBAUWAgAWEPTZKRkGEjD1ZbYEBRYCCBgwMDgVKQYEBSgFGQYCABIJVQYQ9tYQMEVltgAWABYEAbAxaZUIVgAYuQHWBAUWAgAWEPj5KRkGEjD1ZbYEBRYCCBgwMDgVKQYEBSgFGQYCABIJVQhZRQhDBgQFFgIAFhD72SkZBhJCtWW2BAUWAggYMDA4FSkGBAUoBRkGAgASCVUIUwgDtgIIEBYEBRkIEBYEBSgYFSYACQgGAgAZCTPGBAUWAgAWEQBJKRkGEkeVZbYEBRYCCBgwMDgVKQYEBSgFGQYCABIJVQhTA/YEBRYCABYRAwkpGQYSMPVltgQFFgIIGDAwOBUpBgQFKAUZBgIAEglVCFYAAxYEBRYCABYRBdkpGQYSMPVltgQFFgIIGDAwOBUpBgQFKAUZBgIAEglVCFR2BAUWAgAWEQiJKRkGEjD1ZbYEBRYCCBgwMDgVKQYEBSgFGQYCABIJVQhVpgQFFgIAFhELOSkZBhIw9WW2BAUWAggYMDA4FSkGBAUoBRkGAgASCVUGABgI0WA2ERLFeFMmBAUWAgAWEQ6JKRkGEkK1ZbYEBRYCCBgwMDgVKQYEBSgFGQYCABIJVQhTpgQFFgIAFhEROSkZBhIw9WW2BAUWAggYMDA4FSkGBAUoBRkGAgASCVUFuFk1BgARlgAo0WAWER91eFM2BAUWAgAWERTpKRkGEkK1ZbYEBRYCCBgwMDgVKQYEBSgFGQYCABIJVQhWAANmBAUWAgAWERfJOSkZBhJKhWW2BAUWAggYMDA4FSkGBAUoBRkGAgASCVUIVgADVgAWABYOAbAxkWYEBRYCABYRGzkpGQYSTeVltgQFFgIIGDAwOBUpBgQFKAUZBgIAEglVCFNGBAUWAgAWER3pKRkGEjD1ZbYEBRYCCBgwMDgVKQYEBSgFGQYCABIJVQW4WSUGADGWAEjRYBYRNgV4VDQGBAUWAgAWESGpKRkGEjD1ZbYEBRYCCBgwMDgVKQYEBSgFGQYCABIJVQhUhgQFFgIAFhEkWSkZBhIw9WW2BAUWAggYMDA4FSkGBAUoBRkGAgASCVUIVGYEBRYCABYRJwkpGQYSMPVltgQFFgIIGDAwOBUpBgQFKAUZBgIAEglVCFQWBAUWAgAWESm5KRkGEkK1ZbYEBRYCCBgwMDgVKQYEBSgFGQYCABIJVQhURgQFFgIAFhEsaSkZBhIw9WW2BAUWAggYMDA4FSkGBAUoBRkGAgASCVUIVFYEBRYCABYRLxkpGQYSMPVltgQFFgIIGDAwOBUpBgQFKAUZBgIAEglVCFQ2BAUWAgAWETHJKRkGEjD1ZbYEBRYCCBgwMDgVKQYEBSgFGQYCABIJVQhUJgQFFgIAFhE0eSkZBhIw9WW2BAUWAggYMDA4FSkGBAUoBRkGAgASCVUFuFkVBgBxlgCI0WAWEY/ldhE3dhAwRWW2ABYAFgQBsDFplQYABgQFFhE5CQYR4rVltgQFGAkQOQYADwgBWAFWETrFc9YACAPj1gAP1bUJBQYACLYEBRYRO+kGEeK1ZbgZBgQFGAkQOQYAD1kFCAFYAVYRPeVz1gAIA+PWAA/VtQkFCAYAFgAWCgGwMWY+20VSkzYEBRgmP/////FmDgG4FSYAQBYRQNkZBhJQ1WW2AAYEBRgIMDgWAAh4A7FYAVYRQnV2AAgP1bUFrxFYAVYRQ7Vz1gAIA+PWAA/VtQUFBQgWABYAFgoBsDFmPQneCKYEBRgWP/////FmDgG4FSYAQBYCBgQFGAgwOBYACHWvEVgBVhFH9XPWAAgD49YAD9W1BQUFBgQFFgHz2QgQFgHxkWggFgQFJhFKKRkIEBkGElKlZbm1CHjGBAUWAgAWEUt5KRkGEjD1ZbYEBRYCCBgwMDgVKQYEBSgFGQYCABIJdQgWABYAFgoBsDFmMu/DzuYEBRgWP/////FmDgG4FSYAQBYABgQFGAgwOBYACHgDsVgBVhFQpXYACA/VtQWvGSUFBQgBVhFRtXUGABW2EVUVc9gIAVYRVJV2BAUT1gPwFgHxkWgQFgQFI9gVKRUD1gAGAghAE+YRVOVltgYJFQW1BQW4eCYAFgAWCgGwMWgDuAYCABYEBRkIEBYEBSgYFSYACQgGAgAZCTPGBAUWAgAWEViZKRkGEkeVZbYEBRYCCBgwMDgVKQYEBSgFGQYCABIJdQh4JgAWABYKAbAxY/YEBRYCABYRW+kpGQYSMPVltgQFFgIIGDAwOBUpBgQFKAUZBgIAEgl1CBYAFgAWCgGwMWYcNQYEBRYCQBYEBRYB8ZgYMDAYFSYECRkJFSY2hO8EVg4RtgIIIBgFFgAWABYOAbAxaQkReQUmBAUWEWJJGQYSVLVltgAGBAUYCDA4FgAIeH8ZJQUFA9gGAAgRRhFmJXYEBRPWA/AWAfGRaBAWBAUj2BUpFQPWAAYCCEAT5hFmdWW2BgkVBbUGAEYABgA2EWeISCYSZGVltQgVRg/2EBAJKQkgqCgQIZkJEWlBUVApOQkxeQVVBgBFSJkRZgA2BAUWAgAWEWsJOSkZBhJ8JWW2BAUWAggYMDA4FSkGBAUoBRkGAgASCXUIFgAWABYKAbAxZhw1BgQFFgJAFgQFFgHxmBgwMBgVJgQJGQkVJjaE7wRWDhG2AgggGAUWABYAFg4BsDFpCRF5BSYEBRYRcWkZBhJUtWW2AAYEBRgIMDgYaG9JJQUFA9gGAAgRRhF1JXYEBRPWA/AWAfGRaBAWBAUj2BUpFQPWAAYCCEAT5hF1dWW2BgkVBbUGAEYABgA2EXaISCYSZGVltQgVRg/2EBAJKQkgqCgQIZkJEWlBUVApOQkxeQVVBgBFSJkRZgA2BAUWAgAWEXoJOSkZBhJ8JWW2BAUWAggYMDA4FSkGBAUoBRkGAgASCXUIFgAWABYKAbAxZhw1BgQFFgJAFgQFFgHxmBgwMBgVJgQJGQkVJjaE7wRWDhG2AgggGAUWABYAFg4BsDFpCRF5BSYEBRYRgGkZBhJUtWW2AAYEBRgIMDgYaG+pJQUFA9gGAAgRRhGEJXYEBRPWA/AWAfGRaBAWBAUj2BUpFQPWAAYCCEAT5hGEdWW2BgkVBbUGAEYABgA2EYWISCYSZGVltQgVRg/2EBAJKQkgqCgQIZkJEWlBUVApOQkxeQVVBgBFSJkRZgA2BAUWAgAWEYkJOSkZBhJ8JWW2BAUWAggYMDA4FSkGBAUoBRkGAgASCXUIFgAWABYKAbAxZjB9po9WBAUYFj/////xZg4BuBUmAEAWAAYEBRgIMDgWAAh4A7FYAVYRjjV2AAgP1bUFrxFYAVYRj3Vz1gAIA+PWAA/VtQUFBQUFBbYBCAjRYDYRywV2EZEGEDBFZbYAFgAWBAGwMWmVBhGSNhAwRWW2ABYAFgQBsDFphQYRk2YQMEVltgAWABYEAbAxaXUGAAYAGBjIyMYEBRYACBUmAgAWBAUmBAUWEZZpSTkpGQYSf3VltgIGBAUWAggQOQgIQDkIVa+hWAFWEZiFc9YACAPj1gAP1bUFBQYCBgQFEDUZBQhoFgQFFgIAFhGaeSkZBhJCtWW2BAUWAggYMDA4FSkGBAUoBRkGAgASCWUGEZx2EDBFZbYAFgAWBAGwMWmlCGYAKMYEBRYCABYRnmkZBhIvpWW2BAUWAggYMDA4FSkGBAUmBAUWEaApGQYSVLVltgIGBAUYCDA4GFWvoVgBVhGh9XPWAAgD49YAD9W1BQUGBAUWAfPZCBAWAfGRaCAWBAUmEaQZGQgQGQYSUqVltgQFFgIAFhGlKSkZBhIw9WW2BAUWAggYMDA4FSkGBAUoBRkGAgASCWUGEacmEDBFZbYAFgAWBAGwMWmlCGYAOMYEBRYCABYRqRkZBhIvpWW2BAUWAggYMDA4FSkGBAUmBAUWEarZGQYSVLVltgIGBAUYCDA4GFWvoVgBVhGspXPWAAgD49YAD9W1BQUGBAUVFgYBtgQFFgIAFhGuWSkZBhKEFWW2BAUWAggYMDA4FSkGBAUoBRkGAgASCWUGEbBWEDBFZbYAFgAWBAGwMWmlCGYRs5jGBAUWAgAWEbJZGQYR5cVltgQFFgIIGDAwOBUpBgQFJhBfZWW2BAUWAgAWEbSpKRkGEkeVZbYEBRYCCBgwMDgVKQYEBSgFGQYCABIJZQYRtqYQMEVltgAWABYEAbAxaaUGEbfWEDBFZbYAFgAWBAGwMWmVCGYRuVjGAYjWEDYFZbYEBRYCABYRumkpGQYSMPVltgQFFgIIGDAwOBUpBgQFKAUZBgIAEgllBhG8ZhAwRWW2ABYAFgQBsDFppQYRvZYQMEVltgAWABYEAbAxaZUGEb7GEDBFZbYAFgAWBAGwMWmFBhG/9hAwRWW2ABYAFgQBsDFpdQhmEcF4yMjIxhA65WW2BAUWAgAWEcKJKRkGEoiVZbYEBRYCCBgwMDgVKQYEBSgFGQYCABIJZQYRxIYQMEVltgAWABYEAbAxaaUGEcW2EDBFZbYAFgAWBAGwMWmVBhHG5hAwRWW2ABYAFgQBsDFphQhmEchYyMjGEds1ZbYEBRYCABYRyWkpGQYSiJVltgQFFgIIGDAwOBUpBgQFKAUZBgIAEgllBQW2Ecu4FgAWEor1ZbkFBhBs5WW1CDf0N4mzDkxtU+JzXlcBIHsFKbLMIpsbsCuWkdOeohjafXYEBRYEBRgJEDkKKChH8suGCGvHYQeC/IYGumiADNIbLPW9nZ+AE5AZBab/TqXWBAUWBAUYCRA5CjgYOFf5SiJFDqcSbVtI84Ie8JxycgeS0lvCYOxFogIhOAVnldYEBRYEBRgJEDkKSBg4V/jzEU4AC5T6aYyrPDiWkAf/RtXYCpRdzedlNysdE4P1KEYEBRYR1/kZBhHlxWW2BAUYCRA5CkYAFgAWBAGwONFmAAkIFSYAFgIFKFkGBAkCBVUJKbmlBQUFBQUFBQUFBQVlthHbthHfRWW2Edw2EeOFZbhIFSYCCBAYSQUmBAgIIBhJBSgmBgg2AAYAda8YCAYR3qV2AAgP1bUFBQk5JQUFBWW2BAUWBAgIIBgVJgApCCkIA2gzdQkZKRUFBWW2BAUWCAgIIBYEBSYASQgpCANoM3UJGSkVBQVlthAj2AYSjQgzkBkFZbYEBRYGCAggFgQFJgA5CCkIA2gzdQkZKRUFBWW4BbglJQUFZbYCCBAWEeaoKEYR5UVluSkVBQVltgAWABYEAbA4EWYR5WVltgIIEBYR5qgoRhHnBWW4BbgRRhHppXYACA/VtQVluANWEeaoFhHo1WW2AAYCCChAMSFWEevVdhHr1gAID9W2AAYR7JhIRhHp1WW5STUFBQUFZbYACAYABgYISGAxIVYR7pV2Ee6WAAgP1bYABhHvWGhmEenVZbk1BQYCBhHwaGgocBYR6dVluSUFBgQGEfF4aChwFhHp1WW5FQUJJQklCSVltgAIBgAIBggIWHAxIVYR86V2EfOmAAgP1bYABhH0aHh2EenVZblFBQYCBhH1eHgogBYR6dVluTUFBgQGEfaIeCiAFhHp1WW5JQUGBgYR95h4KIAWEenVZbkVBQkpWRlFCSUFZbYABhH5GDg2EeVFZbUFBgIAGQVltgAoGAYABbg4EQFWEfxVeBUWEftIeCYR+FVluWUGAggwGSUFBgAQFhH6BWW1BQUFBQUFZbYECBAWEeaoKEYR+ZVltjTkh7cWDgG2AAUmBBYARSYCRgAP1bYB8ZYB+DARaBAYGBEGABYAFgQBsDghEXFWEgFldhIBZhH9tWW2BAUlBQVltgAGEgLGAAYEBRkFCQVluQUGEgOIKCYR/xVluRkFBWW2AAYAFgAWBAGwOCERVhIFZXYSBWYR/bVltgHxlgH4MBFmAgAZKRUFBWW4KBgzdQYACRAVJWW2AAYSCGYSCBhGEgPVZbYSAdVluQUIKBUmAggQGEhIQBERVhIKFXYSChYACA/VthIKyEgoVhIGdWW1CTklBQUFZbYACCYB+DARJhIMhXYSDIYACA/VuBNWEeyYSCYCCGAWEgc1ZbYABgIIKEAxIVYSDtV2Eg7WAAgP1bgTVgAWABYEAbA4ERFWEhBldhIQZgAID9W2EeyYSChQFhILRWW2AAW4OBEBVhIS1XgIIBUYOCAVJgIAFhIRVWW1BQYACRAVJWW2AAYSFGgmAAgVGSkVBQVluAhFJgIIQBk1BhIV2BhWAghgFhIRJWW2AfAWAfGRaSkJIBkpFQUFZbYCCAglKBAWEhf4GEYSE2VluTklBQUFZbYAFgAWBAGwOBFmEej1ZbgDVhHmqBYSGGVltj/////4EWYR6PVluANWEeaoFhIaBWW2AAgGAAYGCEhgMSFWEhz1dhIc9gAID9W2AAYSHbhoZhIZVWW5NQUGAgYR8GhoKHAWEhrFZbY05Ie3Fg4BtgAFJgEWAEUmAkYAD9W2ABYAFgQBsDkYIWkZCBFpCCggKQgRaQgYEUYQZYV2EGWGEh7FZbYAFgAWBAGwORghaRkIEWkIKCAZCBERVhHmpXYR5qYSHsVltjTkh7cWDgG2AAUmASYARSYCRgAP1bYABgAWABYEAbA4IWkVBgAWABYEAbA4MWW5JQgmEiiVdhIolhIktWW1AGkFZbY05Ie3Fg4BtgAFJgMmAEUmAkYAD9W4CCAYCCERVhHmpXYR5qYSHsVltgAGAAGYIDYSLKV2EiymEh7FZbUGABAZBWW4GBAoCCFYOCBIUUF2EGWFdhBlhhIexWW2AAgmEielZbgGEeVlZbkFZbYABhIwaChGEi8VZbUGAgAZGQUFZbYABhIxuChWEi8VZbYCCCAZFQYSMrgoRhIvFWW1BgIAGSkVBQVltgAIJhI0RXYSNEYSJLVltQBJBWW4GBAoBgAIMSYAFg/xuFFBYVYSNmV2EjZmEh7FZbgoIFhBSDFRdhBlhXYQZYYSHsVltgAIJhI4lXYSOJYSJLVltgAWD/G4IUYAAZhBQWFWEjo1dhI6NhIexWW1AFkFZbYACCYSO3V2Ejt2EiS1ZbUAeQVltgAWABYPgbAxmBFmEeVlZbYABhI9iChWEi8VZbYCCCAZFQYSPogoRhI7xWW1BgAQGSkVBQVltgAGABYAFgoBsDghZhHmpWW2AAYR5qgmBgG5BWW2AAYR5qgmEkA1ZbYR5WYSQmgmEj8lZbYSQPVltgAGEkN4KFYSLxVltgIIIBkVBhJEeChGEkGlZbUGAUAZKRUFBWW2AAYSRhgmAAgVGSkVBQVlthJG+BhWAghgFhIRJWW5KQkgGSkVBQVltgAGEkhYKFYSLxVltgIIIBkVBhHsmChGEkUVZbYABhJKKDhYRhIGdWW1BQAZBWW2AAYSS0goZhIvFWW2AgggGRUGEkxYKEhmEklVZblZRQUFBQUFZbYAFgAWDgGwMZgRZhHlZWW2AAYSTqgoVhIvFWW2AgggGRUGEk+oKEYSTOVltQYAQBkpFQUFZbYR5WgWEj8lZbYCCBAWEeaoKEYSUEVltgAIFRkFBhHmqBYR6NVltgAGAggoQDEhVhJT9XYSU/YACA/VtgAGEeyYSEYSUbVltgAGEhf4KEYSRRVltjTkh7cWDgG2AAUmAiYARSYCRgAP1bYAKBBGABghaAYSWBV2B/ghaRUFtgIIIQgQNhJZNXYSWTYSVXVltQkZBQVltgAGEeamEi94OBVlthJa6DYSWZVluBVGAAGWAIlJCUApOEGxkWkhuRkJEXkFVQVltgAGEl1oGEhGElpVZbUFBQVluBgRAVYSX2V2El7mAAgmElyVZbYAEBYSXbVltQUFZbYB+CERVhJdZXYSYYgWAAgYFSgZBgIJAgkpFQUFZbYCBgH4UBBIEBYCCFEBVhJi1XUIBbYSY/YCBgH4YBBIMBgmEl21ZbUFBQUFBWW2EmVIJgAIFRkpFQUFZbYAFgAWBAGwOBERVhJmtXYSZrYR/bVlthJnWCVGElbVZbYSaAgoKFYSX6VltgIGAfgxFgAYEUYSa1V2AAhBVhJp1XgocBUZBQW2AAGWAIhgIcGYEWYAKGAheGVVBhH8VWW2AfGYQWYSbPhmAAgYFSgZBgIJAgkpFQUFZbYABbgoEQFWEm8leEiQFRglVgIJSFAZRgAZCSAZEBYSbSVluGgxAVYScOV4SJAVFgABlgH4kWYAgCHBkWglVbYAFgAogCAYhVUFBQUFBQUFBQVltgAGEeaoJg+BuQVltgAGEeaoJhJyJWW2EeVoEVFWEnLlZbYACBVGEnUYFhJW1WW2ABghaAFWEnaFdgAYEUYSd9V2EnuVZbYP8ZgxaGUoEVFYIChgGTUGEnuVZbYSeShWAAgYFSgZBgIJAgkpFQUFZbYABbg4EQFWEnsVeBVIiCAVJgAZCRAZBgIAFhJ5VWW4OIAZVQUFBbUFBQkpFQUFZbYABhJ86ChmEi8VZbYCCCAZFQYSfegoVhJzlWW2ABggGRUGEkxYKEYSdEVltg/4EWYR5WVltggIEBYSgFgodhHlRWW2EoEmAggwGGYSfuVlthKB9gQIMBhWEeVFZbYSTFYGCDAYRhHlRWW2v///////////////8ZgRZhHlZWW2AAYShNgoVhIvFWW2AgggGRUGEkR4KEYSgsVltgAoGAYABbg4EQFWEfxVeBUWEoeIeCYR+FVluWUGAggwGSUFBgAQFhKGRWW2AAYSiVgoVhIvFWW2AgggGRUGEopYKEYShdVltQYEABkpFQUFZbY/////+RghaRkIEWkIKCAZCBERVhHmpXYR5qYSHsVv5ggGBAUjSAFWEAEFdgAID9W1BhAh2AYQAgYAA5YADz/mCAYEBSNIAVYQAQV2AAgP1bUGAENhBhAGJXYAA1YOAcgGMH2mj1FGEAZ1eAYy78PO4UYQBxV4BjP7XByxRhAHlXgGODgfWKFGEAjFeAY9Cd4IoUYQCrV4Bj7bRVKRRhALNXW2AAgP1bYQBvYQDGVlsAW2EAb2EA21ZbYQBvYQCHNmAEYQE8VltgAFVWW2EAlWAAVIFWW2BAUWEAopGQYQFlVltgQFGAkQOQ81thAJVhAPNWW2EAb2EAwTZgBGEBllZbYQEPVltgAIBUkIBhANWDYQHNVluRkFBVAFtgAIBUkIBhAOqDYQHNVluRkFBVYACA/VtgAIBUgYBhAQKDYQHNVluRkFBVUGAAVJBQkFZbgGABYAFgoBsDFv9bgFuBFGEBKFdgAID9W1BWW4A1YQE2gWEBG1ZbkpFQUFZbYABgIIKEAxIVYQFRV2EBUWAAgP1bYABhAV2EhGEBK1ZblJNQUFBQVluBgVJgIIEBYQE2VltgAGABYAFgoBsDghZhATZWW2EBHYFhAXFWW4A1YQE2gWEBglZbYABgIIKEAxIVYQGrV2EBq2AAgP1bYABhAV2EhGEBi1ZbY05Ie3Fg4BtgAFJgEWAEUmAkYAD9W2AAYAAZggNhAeBXYQHgYQG3VltQYAEBkFb+omRpcGZzWCISIJIzhp2aS+/m2FyicHt7gYJSdXcJ0lwV+VhhBZEQriSrZHNvbGNDAAgTADOiZGlwZnNYIhIgZttJvB2S+xvThYM5jtuo0lls0K3IuUFHVZnuBZTSp1Nkc29sY0MACBMAMw==",
          "touched": true,
          "read": true
        },
        "0xC57Fd1C8340de315af73730d6FfAE46b10856B42": {
          "address": "0xC57Fd1C8340de315af73730d6FfAE46b10856B42",
          "nonce": 1,
          "code": "YIBgQFI0gBVhABBXYACA/VtQYAQ2EGEAYldgADVg4ByAYwfaaPUUYQBnV4BjLvw87hRhAHFXgGM/tcHLFGEAeVeAY4OB9YoUYQCMV4Bj0J3gihRhAKtXgGPttFUpFGEAs1dbYACA/VthAG9hAMZWWwBbYQBvYQDbVlthAG9hAIc2YARhATxWW2AAVVZbYQCVYABUgVZbYEBRYQCikZBhAWVWW2BAUYCRA5DzW2EAlWEA81ZbYQBvYQDBNmAEYQGWVlthAQ9WW2AAgFSQgGEA1YNhAc1WW5GQUFUAW2AAgFSQgGEA6oNhAc1WW5GQUFVgAID9W2AAgFSBgGEBAoNhAc1WW5GQUFVQYABUkFCQVluAYAFgAWCgGwMW/1uAW4EUYQEoV2AAgP1bUFZbgDVhATaBYQEbVluSkVBQVltgAGAggoQDEhVhAVFXYQFRYACA/VtgAGEBXYSEYQErVluUk1BQUFBWW4GBUmAggQFhATZWW2AAYAFgAWCgGwOCFmEBNlZbYQEdgWEBcVZbgDVhATaBYQGCVltgAGAggoQDEhVhAatXYQGrYACA/VtgAGEBXYSEYQGLVltjTkh7cWDgG2AAUmARYARSYCRgAP1bYABgABmCA2EB4FdhAeBhAbdWW1BgAQGQVv6iZGlwZnNYIhIgkjOGnZpL7+bYXKJwe3uBglJ1dwnSXBX5WGEFkRCuJKtkc29sY0MACBMAMw==",
          "code_read": "YIBgQFI0gBVhABBXYACA/VtQYAQ2EGEAYldgADVg4ByAYwfaaPUUYQBnV4BjLvw87hRhAHFXgGM/tcHLFGEAeVeAY4OB9YoUYQCMV4Bj0J3gihRhAKtXgGPttFUpFGEAs1dbYACA/VthAG9hAMZWWwBbYQBvYQDbVlthAG9hAIc2YARhATxWW2AAVVZbYQCVYABUgVZbYEBRYQCikZBhAWVWW2BAUYCRA5DzW2EAlWEA81ZbYQBvYQDBNmAEYQGWVlthAQ9WW2AAgFSQgGEA1YNhAc1WW5GQUFUAW2AAgFSQgGEA6oNhAc1WW5GQUFVgAID9W2AAgFSBgGEBAoNhAc1WW5GQUFVQYABUkFCQVluAYAFgAWCgGwMW/1uAW4EUYQEoV2AAgP1bUFZbgDVhATaBYQEbVluSkVBQVltgAGAggoQDEhVhAVFXYQFRYACA/VtgAGEBXYSEYQErVluUk1BQUFBWW4GBUmAggQFhATZWW2AAYAFgAWCgGwOCFmEBNlZbYQEdgWEBcVZbgDVhATaBYQGCVltgAGAggoQDEhVhAatXYQGrYACA/VtgAGEBXYSEYQGLVltjTkh7cWDgG2AAUmARYARSYCRgAP1bYABgABmCA2EB4FdhAeBhAbdWW1BgAQGQVv6iZGlwZnNYIhIgkjOGnZpL7+bYXKJwe3uBglJ1dwnSXBX5WGEFkRCuJKtkc29sY0MACBMAMw==",
          "suicide": true,
          "touched": true,
          "read": true
        },
        "0xEf5B2942645AB5607c953Ad5d4079A6fc3F04485": {
          "address": "0xEf5B2942645AB5607c953Ad5d4079A6fc3F04485",
          "nonce": 1,
          "storage": {
            "0x0000000000000000000000000000000000000000000000000000000000000000": "0x0000000000000000000000000000000000000000000000000000000000000003"
          },
          "storage_read": {
            "0x0000000000000000000000000000000000000000000000000000000000000000": {}
          },
          "code": "YIBgQFI0gBVhABBXYACA/VtQYAQ2EGEAYldgADVg4ByAYwfaaPUUYQBnV4BjLvw87hRhAHFXgGM/tcHLFGEAeVeAY4OB9YoUYQCMV4Bj0J3gihRhAKtXgGPttFUpFGEAs1dbYACA/VthAG9hAMZWWwBbYQBvYQDbVlthAG9hAIc2YARhATxWW2AAVVZbYQCVYABUgVZbYEBRYQCikZBhAWVWW2BAUYCRA5DzW2EAlWEA81ZbYQBvYQDBNmAEYQGWVlthAQ9WW2AAgFSQgGEA1YNhAc1WW5GQUFUAW2AAgFSQgGEA6oNhAc1WW5GQUFVgAID9W2AAgFSBgGEBAoNhAc1WW5GQUFVQYABUkFCQVluAYAFgAWCgGwMW/1uAW4EUYQEoV2AAgP1bUFZbgDVhATaBYQEbVluSkVBQVltgAGAggoQDEhVhAVFXYQFRYACA/VtgAGEBXYSEYQErVluUk1BQUFBWW4GBUmAggQFhATZWW2AAYAFgAWCgGwOCFmEBNlZbYQEdgWEBcVZbgDVhATaBYQGCVltgAGAggoQDEhVhAatXYQGrYACA/VtgAGEBXYSEYQGLVltjTkh7cWDgG2AAUmARYARSYCRgAP1bYABgABmCA2EB4FdhAeBhAbdWW1BgAQGQVv6iZGlwZnNYIhIgkjOGnZpL7+bYXKJwe3uBglJ1dwnSXBX5WGEFkRCuJKtkc29sY0MACBMAMw==",
          "code_read": "YIBgQFI0gBVhABBXYACA/VtQYAQ2EGEAYldgADVg4ByAYwfaaPUUYQBnV4BjLvw87hRhAHFXgGM/tcHLFGEAeVeAY4OB9YoUYQCMV4Bj0J3gihRhAKtXgGPttFUpFGEAs1dbYACA/VthAG9hAMZWWwBbYQBvYQDbVlthAG9hAIc2YARhATxWW2AAVVZbYQCVYABUgVZbYEBRYQCikZBhAWVWW2BAUYCRA5DzW2EAlWEA81ZbYQBvYQDBNmAEYQGWVlthAQ9WW2AAgFSQgGEA1YNhAc1WW5GQUFUAW2AAgFSQgGEA6oNhAc1WW5GQUFVgAID9W2AAgFSBgGEBAoNhAc1WW5GQUFVQYABUkFCQVluAYAFgAWCgGwMW/1uAW4EUYQEoV2AAgP1bUFZbgDVhATaBYQEbVluSkVBQVltgAGAggoQDEhVhAVFXYQFRYACA/VtgAGEBXYSEYQErVluUk1BQUFBWW4GBUmAggQFhATZWW2AAYAFgAWCgGwOCFmEBNlZbYQEdgWEBcVZbgDVhATaBYQGCVltgAGAggoQDEhVhAatXYQGrYACA/VtgAGEBXYSEYQGLVltjTkh7cWDgG2AAUmARYARSYCRgAP1bYABgABmCA2EB4FdhAeBhAbdWW1BgAQGQVv6iZGlwZnNYIhIgkjOGnZpL7+bYXKJwe3uBglJ1dwnSXBX5WGEFkRCuJKtkc29sY0MACBMAMw==",
          "touched": true,
          "read": true
        }
      }
    }
  ]
}
