{
  "accountTrie": {
    "017294d8a2199f5fa4caefea538835446598d54b8fea197eb865539290927f85": "f8769f3eec2b84f0ba344fd4b4d2f022469febe7a772c4789acfc119eb558ab1da3db854f85282103b8c033b2e3c6214e29d8ef596dfa056e81f171bcc55a6ff8345e692c0f86e5b48e01b996cadc001622fb5e363b421a0c5d2460186f7233c927e7db2dcc703c0e500b653ca82273b7bfad8045d85a470",
    "091e23ddcf50a8f18d26ad8605d87716a2aa1f878624a610c235332de432e02a": "f8918080808080808080a08acfcc5d12f75a3532d30bec4da20159bcf79c89ab54616f4652018a6a6efbfb808080a02df826967e256d2964c39161850a903e2801aa8e189794e57c0af58c788d5b6ba08a0977db0c40a342485134dc58b8ec9ca0c4d0b37ec2659d0d7333265623b7f580a0426f557212756f658ce9ad6197f233d78ac00ebad04c145d0d8a4575abbfee4780",
    "0fa3b7b8101af0529e8e1773705208669795b905f93a8a4bfca4409bc9f4fcf6": "f8729f30c7b7ae81a58eb98d9c78de4a1fd7fd9535fc953ed2be602daaa41767312ab850f84e808ad3c21bd2b1baf4e27b8fa056e81f171bcc55a6ff8345e692c0f86e5b48e01b996cadc001622fb5e363b421a0c5d2460186f7233c927e7db2dcc703c0e500b653ca82273b7bfad8045d85a470",
    "2df826967e256d2964c39161850a903e2801aa8e189794e57c0af58c788d5b6b": "f873a02082f050cb357a36d397fbf1bf8ae229e585729de88fbd29953f3d46e686a400b850f84e808ad3c21cf983c9d86e8d30a056e81f171bcc55a6ff8345e692c0f86e5b48e01b996cadc001622fb5e363b421a0c5d2460186f7233c927e7db2dcc703c0e500b653ca82273b7bfad8045d85a470",
    "690966f2c65a2a062e520d5fa659363c3e1e5436d8b738fa39798df3beafe9a7": "f851a0e29cd6451f96ed556022f6076eacfbb24d0680280f8a4a588419a89b9a4260aa80808080808080a00fa3b7b8101af0529e8e1773705208669795b905f93a8a4bfca4409bc9f4fcf68080808080808080",
    "91878e9e8436ad110a522692b1777d85b055ea9b141495b9aee3dafe556c10d9": "f90211a09bd5985e83d92230c8f5e1f163da9b6a14db480ec2597a384ce775e4bbcb9321a02144d331fa7f48817b3ab44349958d8f75a3ab6cbee7acb2aa36af6e368f2a4da0f7336f1bbd47de3425668cbc835f9dea28e3337206a6ddc39e2d75c0cfbc3fa6a04bb4c7cdcdeccf73fe237ac3243854cdbc243bf42d3c7310b243f70ae24e0deba00898774ab29060c8e1ebca88393ba0342e86bcff5cb7c23c84f62f0fec5729efa0ceabce3b50532d76be78e9d81c8ef58c7673cd308121da4576436dd911949712a0f820e589d2219ae3f297594cfd731f2ec64d19b1ba0f918369e9b413c126732da0091e23ddcf50a8f18d26ad8605d87716a2aa1f878624a610c235332de432e02aa097cc9a291b5461103c7c527f85b1287ca3915d97fdedc51b19f6c958e5e57522a0e6e82a109ac4e5daed8f76043d8393d0298472e0518ff96a48b8492e479881fba0cd6feb08157348b2daa80604e9799e7b19446b804aa2172a4333e2ff0d3c0363a054cab2921d01b8ab026305874aca3f192ae1af8f0bb0c5d39e381645509e3931a072852d91b3e3e22bd2b12f3d3e831ec84e3fb3e6b5c23bda641807fc0f6fdf5ea0d5c3f35b3433034102536147a3dcfd190c7bb81fe37c4801a018ecc677f34deca08333762fcaf7193e048ab228010951a924224adf67ad901b5e98441becfcbbd7a092825616236bb69e7dce9723d0bcf9a7f9da80602dcab4c489d1e8ed8f6b347f80",
    "c8a538b47a0c5beb1e9e6c16b0cc46ed27e4af09bc5b015f78554ed6b701f45f": "f85180a0017294d8a2199f5fa4caefea538835446598d54b8fea197eb865539290927f8580808080808080808080a0b352e4c72d853473be5eac69cf10adfdc61a3747ec26a4b424f0a29292fc1d3780808080",
    "cd6feb08157348b2daa80604e9799e7b19446b804aa2172a4333e2ff0d3c0363": "f89180a031d1eb10fdf37ef90417d463e9e3d1dad5bab6a3e8b38ccc4eaa744250317457808080a0c8a538b47a0c5beb1e9e6c16b0cc46ed27e4af09bc5b015f78554ed6b701f45fa088051b9667deb59e99614788c0d0aedaec2b9658bd714c851f16eb1d1ad3965280808080a056c9a23710ac9835e9a1a44b6725755589fc1f9ec5936cb5b11c7352657c58508080808080",
    "ceabce3b50532d76be78e9d81c8ef58c7673cd308121da4576436dd911949712": "f871808080a0690966f2c65a2a062e520d5fa659363c3e1e5436d8b738fa39798df3beafe9a7a0eb68126485dcaaca88731b1076aa5fe02a61cd409ffa5d95e08245b57d84c1afa03d2c9faa594230d254816429f8dc379c30c8b3679ef67f44dd31f3e6822f9a498080808080808080808080",
    "f7336f1bbd47de3425668cbc835f9dea28e3337206a6ddc39e2d75c0cfbc3fa6": "f869a038c1b2cd4b4be08c2ee3231297634832a2c7fc46a896e3156a8c33edca1dbc6cb846f8440180a056e81f171bcc55a6ff8345e692c0f86e5b48e01b996cadc001622fb5e363b421a0e86cf7cc93bf311f1751ca156a07c54a62d0769f9a09b61afd05b037a4713e1b"
  },
  "storageTrie": null,
  "parentStateRoot": "0x91878e9e8436ad110a522692b1777d85b055ea9b141495b9aee3dafe556c10d9",
  "transactionTraces": [
    {
      "txn": "0x02f8d38207d182103b8498f6f8938498f6f8a382ff6194608dcefe5f08532b886fc1bc5f0c308670ac21fd80b864b374012b000000000000000000000000000000000000000000000000000000000000002000000000000000000000000000000000000000000000000000000000000000010000000000000000000000000000000000000000000000000000000000000000c080a03f72ea1680a3a2835f43042844a2401938e10aeecb55383ae9b2d755f933f556a073740697652066c0acbaaf79513ffab09b6776a8bee1f43b36e2bea4097efdd2",
      "delta": {
        "0x0000000000000000000000000000000000000000": {
          "address": "0x0000000000000000000000000000000000000000",
          "read": true
        },
        "0x608dcEfe5F08532b886Fc1bC5f0c308670AC21fd": {
          "address": "0x608dcEfe5F08532b886Fc1bC5f0c308670AC21fd",
          "storage": {
            "0x0000000000000000000000000000000000000000000000000000000000000002": "0x0000000000000000000000000000000000000000000000000000000000000001",
            "0x405787fa12a823e0f2b7631cc41b3ba8828b3321ca811111fa75cd3aa3bb5ace": "0x0000000000000000000000000000000000000000000000000000000000000002"
          },
          "storage_read": {
            "0x0000000000000000000000000000000000000000000000000000000000000002": {},
            "0x405787fa12a823e0f2b7631cc41b3ba8828b3321ca811111fa75cd3aa3bb5ace": {}
          },
          "code_read": "YIBgQFI0gBVhABBXYACA/VtQYAQ2EGEEVFdgADVg4ByAY4CUf4ARYQJBV4Bjv1KcoRFhATtXgGPdm+9gEWEAw1eAY/J5yoERYQCHV4Bj8nnKgRRhEWFXgGP00fxhFGERkVeAY/WPw2oUYRHBV4Bj9rC79xRhEfFXgGP953IcFGESIVdhBFRWW4Bj3ZvvYBRhEHFXgGPel6NjFGEQoVeAY+n5s/IUYRDRV4Bj6lFB5hRhEQFXgGPt8APPFGERMVdhBFRWW4Bjzjz07xFhAQpXgGPOPPTvFGEPgVeAY9EXMgsUYQ+xV4Bj1R57WxRhD+FXgGPVP/P9FGEQEVeAY9k81VgUYRBBV2EEVFZbgGO/UpyhFGEOwVeAY8Ngq6YUYQ7xV4BjxCDrYRRhDyFXgGPEvWXVFGEPUVdhBFRWW4BjoYaDyxFhAclXgGOzdAErEWEBjVeAY7N0ASsUYQ3RV4Bjs9hH8hRhDgFXgGO3uGIHFGEOMVeAY7gcFIQUYQ5hV4Bjvch1/BRhDpFXYQRUVluAY6GGg8sUYQzzV4BjonG3IRRhDSNXgGOmChCHFGENQVeAY6ZFycIUYQ1xV4BjrK699hRhDaFXYQRUVluAY5YuTcIRYQIQV4Bjli5NwhRhDANXgGOYRW8+FGEMM1eAY5orfIEUYQxjV4BjnM58+RRhDJNXgGOgQK7GFGEMw1dhBFRWW4BjgJR/gBRhC0NXgGOIDv85FGELc1eAY5GKX80UYQujV4BjkeeydxRhC9NXYQRUVluAYzQw7AYRYQNSV4BjYOE83hFhAtpXgGNvCZyNEWECnleAY28JnI0UYQpTV4BjcdkdKBRhCoNXgGN7bgsOFGEKs1eAY3wZHSAUYQrjV4BjfejG+BRhCxNXYQRUVluAY2DhPN4UYQl1V4BjYT0KghRhCaVXgGNjE41PFGEJ1VeAY2Wbu08UYQoFV4Bjbn8f5xRhCiNXYQRUVluAY0D+JmIRYQMhV4BjQP4mYhRhCIVXgGNEzzvHFGEItVeAY0phrx8UYQjlV4BjTSx0sxRhCRVXgGNVkMLZFGEJRVdhBFRWW4BjNDDsBhRhB9dXgGM3EwPAFGEIB1eAYzpBHxIUYQglV4BjOkJd/BRhCFVXYQRUVluAYxgJO0YRYQPgV4BjIZzd6xFhA6RXgGMhnN3rFGEG51eAYyKU/H8UYQcXV4BjKHHvhRRhB0dXgGMrIe9EFGEHd1eAYy0055gUYQenV2EEVFZbgGMYCTtGFGEF91eAYxm2IdYUYQYnV4BjGroH6hRhBldXgGMd4vNDFGEGh1eAYyAHMy4UYQa3V2EEVFZbgGMLqKc7EWEEJ1eAYwuopzsUYQUZV4BjEoemjBRhBUlXgGMTXVL3FGEFZ1eAYxWBzxkUYQWXV4BjFlghUBRhBcdXYQRUVluAYwNK73EUYQRZV4BjBQCC+BRhBIlXgGMIe06EFGEEuVeAYws7mWoUYQTpV1tgAID9W2EEc2AEgDYDgQGQYQRukZBhJhFWW2ESUVZbYEBRYQSAkZBhJk1WW2BAUYCRA5DzW2EEo2AEgDYDgQGQYQSekZBhJhFWW2ESjFZbYEBRYQSwkZBhJk1WW2BAUYCRA5DzW2EE02AEgDYDgQGQYQTOkZBhJhFWW2ESx1ZbYEBRYQTgkZBhJk1WW2BAUYCRA5DzW2EFA2AEgDYDgQGQYQT+kZBhJ65WW2ETAVZbYEBRYQUQkZBhKHZWW2BAUYCRA5DzW2EFM2AEgDYDgQGQYQUukZBhJhFWW2ETKFZbYEBRYQVAkZBhJk1WW2BAUYCRA5DzW2EFUWETZFZbYEBRYQVekZBhJk1WW2BAUYCRA5DzW2EFgWAEgDYDgQGQYQV8kZBhJhFWW2ETbVZbYEBRYQWOkZBhJk1WW2BAUYCRA5DzW2EFsWAEgDYDgQGQYQWskZBhJhFWW2ETqVZbYEBRYQW+kZBhJk1WW2BAUYCRA5DzW2EF4WAEgDYDgQGQYQXckZBhJhFWW2ET5FZbYEBRYQXukZBhJk1WW2BAUYCRA5DzW2EGEWAEgDYDgQGQYQYMkZBhJhFWW2EUP1ZbYEBRYQYekZBhJk1WW2BAUYCRA5DzW2EGQWAEgDYDgQGQYQY8kZBhJhFWW2EUfVZbYEBRYQZOkZBhJk1WW2BAUYCRA5DzW2EGcWAEgDYDgQGQYQZskZBhJhFWW2EVDFZbYEBRYQZ+kZBhJk1WW2BAUYCRA5DzW2EGoWAEgDYDgQGQYQackZBhJhFWW2EVUlZbYEBRYQaukZBhJk1WW2BAUYCRA5DzW2EG0WAEgDYDgQGQYQbMkZBhJhFWW2EVkFZbYEBRYQbekZBhJk1WW2BAUYCRA5DzW2EHAWAEgDYDgQGQYQb8kZBhJhFWW2EVzFZbYEBRYQcOkZBhJk1WW2BAUYCRA5DzW2EHMWAEgDYDgQGQYQcskZBhJhFWW2EWB1ZbYEBRYQc+kZBhJk1WW2BAUYCRA5DzW2EHYWAEgDYDgQGQYQdckZBhJhFWW2EWRlZbYEBRYQdukZBhJk1WW2BAUYCRA5DzW2EHkWAEgDYDgQGQYQeMkZBhJhFWW2EWgVZbYEBRYQeekZBhJk1WW2BAUYCRA5DzW2EHwWAEgDYDgQGQYQe8kZBhJhFWW2EWvFZbYEBRYQfOkZBhJk1WW2BAUYCRA5DzW2EH8WAEgDYDgQGQYQfskZBhJhFWW2EW91ZbYEBRYQf+kZBhKHZWW2BAUYCRA5DzW2EID2EXo1ZbYEBRYQgckZBhJk1WW2BAUYCRA5DzW2EIP2AEgDYDgQGQYQg6kZBhJhFWW2EXwlZbYEBRYQhMkZBhJk1WW2BAUYCRA5DzW2EIb2AEgDYDgQGQYQhqkZBhJhFWW2EX/lZbYEBRYQh8kZBhJk1WW2BAUYCRA5DzW2EIn2AEgDYDgQGQYQiakZBhJhFWW2EYOlZbYEBRYQiskZBhJk1WW2BAUYCRA5DzW2EIz2AEgDYDgQGQYQjKkZBhJhFWW2EYeVZbYEBRYQjckZBhJk1WW2BAUYCRA5DzW2EI/2AEgDYDgQGQYQj6kZBhJhFWW2EYtFZbYEBRYQkMkZBhJk1WW2BAUYCRA5DzW2EJL2AEgDYDgQGQYQkqkZBhJhFWW2EY8lZbYEBRYQk8kZBhJk1WW2BAUYCRA5DzW2EJX2AEgDYDgQGQYQlakZBhJhFWW2EZLVZbYEBRYQlskZBhJk1WW2BAUYCRA5DzW2EJj2AEgDYDgQGQYQmKkZBhJhFWW2EZclZbYEBRYQmckZBhJk1WW2BAUYCRA5DzW2EJv2AEgDYDgQGQYQm6kZBhJ65WW2EZrlZbYEBRYQnMkZBhKHZWW2BAUYCRA5DzW2EJ72AEgDYDgQGQYQnqkZBhJ65WW2EZ4FZbYEBRYQn8kZBhKLFWW2BAUYCRA5DzW2EKDWEaDFZbYEBRYQoakZBhJk1WW2BAUYCRA5DzW2EKPWAEgDYDgQGQYQo4kZBhJhFWW2EaSFZbYEBRYQpKkZBhJk1WW2BAUYCRA5DzW2EKbWAEgDYDgQGQYQpokZBhJhFWW2EahlZbYEBRYQp6kZBhJk1WW2BAUYCRA5DzW2EKnWAEgDYDgQGQYQqYkZBhJhFWW2EawVZbYEBRYQqqkZBhJk1WW2BAUYCRA5DzW2EKzWAEgDYDgQGQYQrIkZBhJhFWW2Ea/1ZbYEBRYQrakZBhJk1WW2BAUYCRA5DzW2EK/WAEgDYDgQGQYQr4kZBhJhFWW2EbO1ZbYEBRYQsKkZBhJk1WW2BAUYCRA5DzW2ELLWAEgDYDgQGQYQsokZBhJhFWW2EbdlZbYEBRYQs6kZBhJk1WW2BAUYCRA5DzW2ELXWAEgDYDgQGQYQtYkZBhJhFWW2EbslZbYEBRYQtqkZBhJk1WW2BAUYCRA5DzW2ELjWAEgDYDgQGQYQuIkZBhJhFWW2EcD1ZbYEBRYQuakZBhJk1WW2BAUYCRA5DzW2ELvWAEgDYDgQGQYQu4kZBhJhFWW2EcTlZbYEBRYQvKkZBhJk1WW2BAUYCRA5DzW2EL7WAEgDYDgQGQYQvokZBhJhFWW2EciVZbYEBRYQv6kZBhJk1WW2BAUYCRA5DzW2EMHWAEgDYDgQGQYQwYkZBhJ65WW2Ec1VZbYEBRYQwqkZBhKHZWW2BAUYCRA5DzW2EMTWAEgDYDgQGQYQxIkZBhJhFWW2EdQ1ZbYEBRYQxakZBhJk1WW2BAUYCRA5DzW2EMfWAEgDYDgQGQYQx4kZBhJhFWW2Edg1ZbYEBRYQyKkZBhJk1WW2BAUYCRA5DzW2EMrWAEgDYDgQGQYQyokZBhJ65WW2EdvlZbYEBRYQy6kZBhKHZWW2BAUYCRA5DzW2EM3WAEgDYDgQGQYQzYkZBhJ65WW2Ed71ZbYEBRYQzqkZBhKHZWW2BAUYCRA5DzW2ENDWAEgDYDgQGQYQ0IkZBhJ65WW2EeFlZbYEBRYQ0akZBhKQ1WW2BAUYCRA5DzW2ENK2EemFZbYEBRYQ04kZBhJk1WW2BAUYCRA5DzW2ENW2AEgDYDgQGQYQ1WkZBhJhFWW2Ee41ZbYEBRYQ1okZBhJk1WW2BAUYCRA5DzW2ENi2AEgDYDgQGQYQ2GkZBhJhFWW2EfHlZbYEBRYQ2YkZBhJk1WW2BAUYCRA5DzW2ENu2AEgDYDgQGQYQ22kZBhJhFWW2EfWlZbYEBRYQ3IkZBhJk1WW2BAUYCRA5DzW2EN62AEgDYDgQGQYQ3mkZBhKYhWW2EfllZbYEBRYQ34kZBhJk1WW2BAUYCRA5DzW2EOG2AEgDYDgQGQYQ4WkZBhJhFWW2Ef5FZbYEBRYQ4okZBhJk1WW2BAUYCRA5DzW2EOS2AEgDYDgQGQYQ5GkZBhJhFWW2EgH1ZbYEBRYQ5YkZBhJk1WW2BAUYCRA5DzW2EOe2AEgDYDgQGQYQ52kZBhJhFWW2EgWlZbYEBRYQ6IkZBhJk1WW2BAUYCRA5DzW2EOq2AEgDYDgQGQYQ6mkZBhJhFWW2EglVZbYEBRYQ64kZBhJk1WW2BAUYCRA5DzW2EO22AEgDYDgQGQYQ7WkZBhJhFWW2Eg0FZbYEBRYQ7okZBhJk1WW2BAUYCRA5DzW2EPC2AEgDYDgQGQYQ8GkZBhJhFWW2EhFFZbYEBRYQ8YkZBhJk1WW2BAUYCRA5DzW2EPO2AEgDYDgQGQYQ82kZBhJhFWW2EhUFZbYEBRYQ9IkZBhJk1WW2BAUYCRA5DzW2EPa2AEgDYDgQGQYQ9mkZBhJhFWW2Ehi1ZbYEBRYQ94kZBhJk1WW2BAUYCRA5DzW2EPm2AEgDYDgQGQYQ+WkZBhJhFWW2EhyVZbYEBRYQ+okZBhJk1WW2BAUYCRA5DzW2EPy2AEgDYDgQGQYQ/GkZBhJhFWW2EiBlZbYEBRYQ/YkZBhJk1WW2BAUYCRA5DzW2EP+2AEgDYDgQGQYQ/2kZBhJhFWW2EiQFZbYEBRYRAIkZBhJk1WW2BAUYCRA5DzW2EQK2AEgDYDgQGQYRAmkZBhJhFWW2EifFZbYEBRYRA4kZBhJk1WW2BAUYCRA5DzW2EQW2AEgDYDgQGQYRBWkZBhJhFWW2EiuFZbYEBRYRBokZBhJk1WW2BAUYCRA5DzW2EQi2AEgDYDgQGQYRCGkZBhJhFWW2EjE1ZbYEBRYRCYkZBhJk1WW2BAUYCRA5DzW2EQu2AEgDYDgQGQYRC2kZBhJhFWW2EjVVZbYEBRYRDIkZBhJk1WW2BAUYCRA5DzW2EQ62AEgDYDgQGQYRDmkZBhJhFWW2EjkVZbYEBRYRD4kZBhJk1WW2BAUYCRA5DzW2ERG2AEgDYDgQGQYREWkZBhJhFWW2EjzlZbYEBRYREokZBhJk1WW2BAUYCRA5DzW2ERS2AEgDYDgQGQYRFGkZBhJ65WW2EkEFZbYEBRYRFYkZBhKHZWW2BAUYCRA5DzW2ERe2AEgDYDgQGQYRF2kZBhJhFWW2Ekf1ZbYEBRYRGIkZBhJk1WW2BAUYCRA5DzW2ERq2AEgDYDgQGQYRGmkZBhJhFWW2Eku1ZbYEBRYRG4kZBhJk1WW2BAUYCRA5DzW2ER22AEgDYDgQGQYRHWkZBhJhFWW2Ek+VZbYEBRYRHokZBhJk1WW2BAUYCRA5DzW2ESC2AEgDYDgQGQYRIGkZBhJ65WW2ElOFZbYEBRYRIYkZBhKhBWW2BAUYCRA5DzW2ESO2AEgDYDgQGQYRI2kZBhJhFWW2ElalZbYEBRYRJIkZBhJk1WW2BAUYCRA5DzW2AAYRJbYRejVltQYABl3q2+7wA2kFBgAIBbhIEQFWESgVc2kVBgAYEBkFBhEmtWW1BQgJFQUJGQUFZbYABhEpZhF6NWW1BgAGXerb7vADKQUGAAgFuEgRAVYRK8VzKRUGABgQGQUGESplZbUFCAkVBQkZBQVltgAGES0WEXo1ZbUGAAZd6tvu8AUpBQYABbg4EQFWES91eBYABSYAGBAZBQYRLgVltQgJFQUJGQUFZbYGBgAGAIkFBgQIKEUWAghgFgAIVa8YBhEyFXYACA/VtQUJGQUFZbYABhEzJhF6NWW1BgAGXerb7vAAGQUGAAW4OBEBVhE1pXYACCAZFQYAGBAZBQYRNBVltQgJFQUJGQUFZbYACAVJBQkFZbYABhE3dhF6NWW1BgAGXerb7vABeQUGAAW4OBEBVhE59XYACCF5FQYAGBAZBQYROGVltQgJFQUJGQUFZbYABhE7NhF6NWW1BgAGXerb7vADSQUGAAgFuEgRAVYRPZVzSRUGABgQGQUGETw1ZbUFCAkVBQkZBQVltgAGET7mEXo1ZbUGAAZd6tvu8ABpBQYABbg4EQFWEUNVd///////////////////////////////////////////+CBpFQYAGBAZBQYRP9VltQgJFQUJGQUFZbYABhFElhF6NWW1BgAGXerb7vABOQUGAAgFuEgRAVYRRyV2ABgxORUGABgQGQUGEUWVZbUFCAkVBQkZBQVltgAGEUh2EXo1ZbUGAAZd6tvu8AIJBQf/////8AAAAAAAAAAAAAAAAAAAAAAAAAAAAAAAAAAAAAYABSYACAW4SBEBVhFNVXYARgACCRUGABgQGQUGEUu1ZbUH8pBFpZIAfQwkbvAsIiNXDalSLQzw9zKCx5obyPC7LCOIEUYRUCV2AAkVBbUICRUFCRkFBWW2AAYRUWYRejVltQYABl3q2+7wCkkFCAYBBSYABbg4EQFWEVSFdgBGADYAKDYAZgEKRgAYEBkFBhFSlWW1CAkVBQkZBQVltgAGEVXGEXo1ZbUGAAZd6tvu8AGpBQYACAW4SBEBVhFYVXgmAAGpFQYAGBAZBQYRVsVltQUICRUFCRkFBWW2AAYRWaYRejVltQYABl3q2+7wAbkFBgAFuDgRAVYRXCV4FgABuRUGABgQGQUGEVqVZbUICRUFCRkFBWW2AAYRXWYRejVltQYABl3q2+7wBCkFBgAIBbhIEQFWEV/FdCkVBgAYEBkFBhFeZWW1BQgJFQUJGQUFZbYABhFhFhF6NWW1BgAGXerb7vADGQUGAAMGAAW4WBEBVhFjpXgTGSUGABgQGQUGEWI1ZbUFBQgJFQUJGQUFZbYABhFlBhF6NWW1BgAGXerb7vAEiQUGAAgFuEgRAVYRZ2V0iRUGABgQGQUGEWYFZbUFCAkVBQkZBQVltgAGEWi2EXo1ZbUGAAZd6tvu8APZBQYACAW4SBEBVhFrFXPZFQYAGBAZBQYRabVltQUICRUFCRkFBWW2AAYRbGYRejVltQYABl3q2+7wBDkFBgAIBbhIEQFWEW7FdDkVBgAYEBkFBhFtZWW1BQgJFQUJGQUFZbYAKBgVSBEGEXB1dgAID9W5BgAFJgIGAAIAFgAJFQkFCAVGEXIpBhKlpWW4BgHwFgIICRBAJgIAFgQFGQgQFgQFKAkpGQgYFSYCABgoBUYRdOkGEqWlZbgBVhF5tXgGAfEGEXcFdhAQCAg1QEAoNSkWAgAZFhF5tWW4IBkZBgAFJgIGAAIJBbgVSBUpBgAQGQYCABgIMRYRd+V4KQA2AfFoIBkVtQUFBQUIFWW2AAYAFgAFRhF7SRkGEqulZbYACBkFVQYABUkFCQVltgAGEXzGEXo1ZbUGAAZd6tvu8ABJBQYABbg4EQFWEX9FdgAYIEkVBgAYEBkFBhF9tWW1CAkVBQkZBQVltgAGEYCGEXo1ZbUGAAZd6tvu8AN5BQYABbg4EQFWEYMFdgIGAAgDdgAYEBkFBhGBdWW1CAkVBQkZBQVltgAGEYRGEXo1ZbUGAAZd6tvu8AoJBQgGAQUmAAW4OBEBVhGG9XYAZgEKBgAYEBkFBhGFdWW1CAkVBQkZBQVltgAGEYg2EXo1ZbUGAAZd6tvu8AM5BQYACAW4SBEBVhGKlXM5FQYAGBAZBQYRiTVltQUICRUFCRkFBWW2AAYRi+YRejVltQYABl3q2+7wBTkFBgAFuDgRAVYRjoV2Perb7vYABSYAGBAZBQYRjNVltQgJFQUJGQUFZbYABhGPxhF6NWW1BgAGXerb7vADqQUGAAgFuEgRAVYRkiVzqRUGABgQGQUGEZDFZbUFCAkVBQkZBQVltgAGEZN2EXo1ZbUGAAZd6tvu8AUZBQYACBYABSYABbhIEQFWEZZFdgAFGRUGABgQGQUGEZTFZbUICRUFCAkVBQkZBQVltgAGEZfGEXo1ZbUGAAZd6tvu8AHZBQYABbg4EQFWEZpFeBYAAdkVBgAYEBkFBhGYtWW1CAkVBQkZBQVltgYGAAYAWQUGAggwGDUWBAUWAggYOFYACIWvGAYRnTV2AAgP1bgZVQUFBQUFCRkFBWW2AAgGACkFBgIIMBg1GDYCCBg4VgAIha8YBhGgJXYACA/VtQUFBQUJGQUFZbYABhGhZhF6NWW1BbYQPoWhEVYRpAV2ABgGAAgoJUYRo0kZBhKrpWW5JQUIGQVVBhGhhWW2ABVJBQkFZbYABhGlJhF6NWW1BgAGXerb7vABCQUGAAgFuEgRAVYRp7V4JgARCRUGABgQGQUGEaYlZbUFCAkVBQkZBQVltgAGEakGEXo1ZbUGAAZd6tvu8ARJBQYACAW4SBEBVhGrZXRJFQYAGBAZBQYRqgVltQUICRUFCRkFBWW2AAYRrLYRejVltQYABl3q2+7wARkFBgAIBbhIEQFWEa9FdgAYMRkVBgAYEBkFBhGttWW1BQgJFQUJGQUFZbYABhGwlhF6NWW1BgAGXerb7vAD6QUGAAW4OBEBVhGzFXYCBgAIA+YAGBAZBQYRsYVltQgJFQUJGQUFZbYABhG0VhF6NWW1BgAGXerb7vAEWQUGAAgFuEgRAVYRtrV0WRUGABgQGQUGEbVVZbUFCAkVBQkZBQVltgAGEbgGEXo1ZbUGAAZd6tvu8AApBQYABbg4EQFWEbqFdgAYICkVBgAYEBkFBhG49WW1CAkVBQkZBQVltgAGEbvGEXo1ZbUGAAZd6tvu8ACJBQYABbg4EQFWEcBVd///////////////////////////////////////////9gAIMIkVBgAYEBkFBhG8tWW1CAkVBQkZBQVltgAGEcGWEXo1ZbUGAAZd6tvu8AVJBQgGAAVWAAW4OBEBVhHERXYABUkVBgAYEBkFBhHCxWW1CAkVBQkZBQVltgAGEcWGEXo1ZbUGAAZd6tvu8AWpBQYACAW4SBEBVhHH5XWpFQYAGBAZBQYRxoVltQUICRUFCRkFBWW2AAYRyTYRejVltQYABl3q2+7wAZkFBgAFuDgRAVYRy5V4EZkVBgAYEBkFBhHKJWW1Bl3q2+7wAZgRRhHMxXgBmQUFuAkVBQkZBQVltgYICCURRhHRpXYEBRfwjDeaAAAAAAAAAAAAAAAAAAAAAAAAAAAAAAAAAAAAAAgVJgBAFhHRGQYStLVltgQFGAkQOQ/VtgAGAHkFBgIIMBg1FgQISChGAAh1rxgGEdOldgAID9W1BQUFCRkFBWW2AAYR1NYRejVltQYABl3q2+7wChkFCAYBBSYABbg4EQFWEdeVeAYAZgEKFgAYEBkFBhHWBWW1CAkVBQkZBQVltgAGEdjWEXo1ZbUGAAZd6tvu8AFpBQYABbg4EQFWEdtFeBghaRUGABgQGQUGEdnFZbUICRUFCRkFBWW2BgYABgBJBQYCCDAYNRYEBRgYGDhWAAiFrxgGEd4ldgAID9W4GVUFBQUFBQkZBQVltgYGAAYAiQUGBAgoRRYCCGAWAAhVrxgGEeD1dgAID9W1BQkZBQVltgAGCAglEUYR5cV2BAUX8Iw3mgAAAAAAAAAAAAAAAAAAAAAAAAAAAAAAAAAAAAAIFSYAQBYR5TkGErt1ZbYEBRgJEDkP1bYABgAZBQYCCDAWAggQFRYB8aYCCCAVJgIGBAUWCAg2AAhlrxgGEeildgAID9W2BAUVGTUFBQUJGQUFZbYABhHqJhF6NWW1BbYQPoWhEVYR7bV2ABgGAAgoJUYR7AkZBhKrpWW5JQUIGQVVBDYAFUYR7VkZBhLAZWW1BhHqRWW2ABVJBQkFZbYABhHu1hF6NWW1BgAGXerb7vAEaQUGAAgFuEgRAVYR8TV0aRUGABgQGQUGEe/VZbUFCAkVBQkZBQVltgAGEfKGEXo1ZbUGAAZd6tvu8ABZBQYABbg4EQFWEfUFdgAYIFkVBgAYEBkFBhHzdWW1CAkVBQkZBQVltgAGEfZGEXo1ZbUGAAZd6tvu8AOZBQYABbg4EQFWEfjFdgIGAAgDlgAYEBkFBhH3NWW1CAkVBQkZBQVltgAGACg4OQkYBgAYFUAYCCVYCRUFBgAZADkGAAUmAgYAAgAWAAkJGSkJGSkJGSkJGSUJGCYR/VkpGQYS3uVltQYAKAVJBQkFCSkVBQVltgAGEf7mEXo1ZbUGAAZd6tvu8AWZBQYACAW4SBEBVhIBRXWZFQYAGBAZBQYR/+VltQUICRUFCRkFBWW2AAYSApYRejVltQYABl3q2+7wA4kFBgAIBbhIEQFWEgT1c4kVBgAYEBkFBhIDlWW1BQgJFQUJGQUFZbYABhIGRhF6NWW1BgAGXerb7vAEGQUGAAgFuEgRAVYSCKV0GRUGABgQGQUGEgdFZbUFCAkVBQkZBQVltgAGEgn2EXo1ZbUGAAZd6tvu8AMJBQYACAW4SBEBVhIMVXMJFQYAGBAZBQYSCvVltQUICRUFCRkFBWW2AAYSDaYRejVltQYABl3q2+7wCjkFCAYBBSYABbg4EQFWEhCldgA2ACgmAGYBCjYAGBAZBQYSDtVltQgJFQUJGQUFZbYABhIR5hF6NWW1BgAGXerb7vAAuQUGAAW4OBEBVhIUZXgWAgC5FQYAGBAZBQYSEtVltQgJFQUJGQUFZbYABhIVphF6NWW1BgAGXerb7vAEeQUGAAgFuEgRAVYSGAV0eRUGABgQGQUGEhalZbUFCAkVBQkZBQVltgAGEhlWEXo1ZbUGAAZd6tvu8AHJBQYACAW4SBEBVhIb5XgmAAHJJQYAGBAZBQYSGlVltQUICRUFCRkFBWW2AAYSHTYRejVltQYABl3q2+7wA1kFBgAIBbhIEQFWEh+1dgADWRUGABgQGQUGEh41ZbUFCAkVBQkZBQVltgAGEiEGEXo1ZbUGAAZd6tvu8AVZBQYABbg4EQFWEiNleBYABVYAGBAZBQYSIfVltQgJFQUJGQUFZbYABhIkphF6NWW1BgAGXerb7vABiQUGAAW4OBEBVhInJXYACCGJFQYAGBAZBQYSJZVltQgJFQUJGQUFZbYABhIoZhF6NWW1BgAGXerb7vAAOQUGAAW4OBEBVhIq5XYACCA5FQYAGBAZBQYSKVVltQgJFQUJGQUFZbYABhIsJhF6NWW1BgAGXerb7vAAeQUGAAW4OBEBVhIwlXf///////////////////////////////////////////ggeRUGABgQGQUGEi0VZbUICRUFCRkFBWW2AAYSMdYRejVltQYABl3q2+7wCikFCAYBBSYABbg4EQFWEjS1dgAoFgBmAQomABgQGQUGEjMFZbUICRUFCRkFBWW2AAYSNfYRejVltQYABl3q2+7wAKkFBgAFuDgRAVYSOHV2ABggqRUGABgQGQUGEjblZbUICRUFCRkFBWW2AAYSObYRejVltQYABl3q2+7wAUkFBgAIBbhIEQFWEjw1eCgxSRUGABgQGQUGEjq1ZbUFCAkVBQkZBQVltgAGEj2GEXo1ZbUGAAZd6tvu8AQJBQYABgAUMDYABbhYEQFWEkBFeBQJJQYAGBAZBQYSPtVltQUFCAkVBQkZBQVltgYGCAglEUYSRWV2BAUX8Iw3mgAAAAAAAAAAAAAAAAAAAAAAAAAAAAAAAAAAAAAIFSYAQBYSRNkGErS1ZbYEBRgJEDkP1bYABgBpBQYCCDAYNRYECEgoRgAIda8YBhJHZXYACA/VtQUFBQkZBQVltgAGEkiWEXo1ZbUGAAZd6tvu8AFZBQYACAW4SBEBVhJLBXghWRUGABgQGQUGEkmVZbUFCAkVBQkZBQVltgAGEkxWEXo1ZbUGAAZd6tvu8AEpBQYACAW4SBEBVhJO5XgmABEpFQYAGBAZBQYSTVVltQUICRUFCRkFBWW2AAYSUDYRejVltQYABl3q2+7wA7kFBgADBgAFuFgRAVYSUsV4E7klBgAYEBkFBhJRVWW1BQUICRUFCRkFBWW2AAgGADkFBgIIMBg1FgQFFgFIGDhWAAiFrxgGElXFdgAID9W4FRlVBQUFBQUJGQUFZbYABhJXRhF6NWW1BgAGXerb7vAAmQUGAAW4OBEBVhJb1Xf///////////////////////////////////////////YAGDCZFQYAGBAZBQYSWDVltQgJFQUJGQUFZbYABgQFGQUJBWW2AAgP1bYACA/VtgAIGQUJGQUFZbYSXugWEl21ZbgRRhJflXYACA/VtQVltgAIE1kFBhJguBYSXlVluSkVBQVltgAGAggoQDEhVhJidXYSYmYSXRVltbYABhJjWEgoUBYSX8VluRUFCSkVBQVlthJkeBYSXbVluCUlBQVltgAGAgggGQUGEmYmAAgwGEYSY+VluSkVBQVltgAID9W2AAgP1bYABgHxlgH4MBFpBQkZBQVlt/Tkh7cQAAAAAAAAAAAAAAAAAAAAAAAAAAAAAAAAAAAABgAFJgQWAEUmAkYAD9W2Emu4JhJnJWW4EBgYEQZ///////////ghEXFWEm2ldhJtlhJoNWW1uAYEBSUFBQVltgAGEm7WElx1ZbkFBhJvmCgmEmslZbkZBQVltgAGf//////////4IRFWEnGVdhJxhhJoNWW1thJyKCYSZyVluQUGAggQGQUJGQUFZbgoGDN2AAg4MBUlBQUFZbYABhJ1FhJ0yEYSb+VlthJuNWW5BQgoFSYCCBAYSEhAERFWEnbVdhJ2xhJm1WW1thJ3iEgoVhJy9WW1CTklBQUFZbYACCYB+DARJhJ5VXYSeUYSZoVltbgTVhJ6WEgmAghgFhJz5WW5FQUJKRUFBWW2AAYCCChAMSFWEnxFdhJ8NhJdFWW1tgAIIBNWf//////////4ERFWEn4ldhJ+FhJdZWW1thJ+6EgoUBYSeAVluRUFCSkVBQVltgAIFRkFCRkFBWW2AAgoJSYCCCAZBQkpFQUFZbYABbg4EQFWEoMVeAggFRgYQBUmAggQGQUGEoFlZbYACEhAFSUFBQUFZbYABhKEiCYSf3VlthKFKBhWEoAlZbk1BhKGKBhWAghgFhKBNWW2Eoa4FhJnJWW4QBkVBQkpFQUFZbYABgIIIBkFCBgQNgAIMBUmEokIGEYSg9VluQUJKRUFBWW2AAgZBQkZBQVlthKKuBYSiYVluCUlBQVltgAGAgggGQUGEoxmAAgwGEYSiiVluSkVBQVltgAHP//////////////////////////4IWkFCRkFBWW2AAYSj3gmEozFZbkFCRkFBWW2EpB4FhKOxWW4JSUFBWW2AAYCCCAZBQYSkiYACDAYRhKP5WW5KRUFBWW2AAgP1bYACA/VtgAICDYB+EARJhKUhXYSlHYSZoVltbgjWQUGf//////////4ERFWEpZVdhKWRhKShWW1tgIIMBkVCDYAGCAoMBERVhKYFXYSmAYSktVltbklCSkFBWW2AAgGAgg4UDEhVhKZ9XYSmeYSXRVltbYACDATVn//////////+BERVhKb1XYSm8YSXWVltbYSnJhYKGAWEpMlZbklCSUFCSUJKQUFZbYAB///////////////////////////8AAAAAAAAAAAAAAACCFpBQkZBQVlthKgqBYSnVVluCUlBQVltgAGAgggGQUGEqJWAAgwGEYSoBVluSkVBQVlt/Tkh7cQAAAAAAAAAAAAAAAAAAAAAAAAAAAAAAAAAAAABgAFJgImAEUmAkYAD9W2AAYAKCBJBQYAGCFoBhKnJXYH+CFpFQW2AgghCBA2EqhVdhKoRhKitWW1tQkZBQVlt/Tkh7cQAAAAAAAAAAAAAAAAAAAAAAAAAAAAAAAAAAAABgAFJgEWAEUmAkYAD9W2AAYSrFgmEl21ZbkVBhKtCDYSXbVluSUIKCAZBQgIIRFWEq6FdhKudhKotWW1uSkVBQVltgAIKCUmAgggGQUJKRUFBWW39JbnZhbGlkIGlucHV0IGxlbmd0aAAAAAAAAAAAAAAAAGAAggFSUFZbYABhKzVgFINhKu5WW5FQYStAgmEq/1ZbYCCCAZBQkZBQVltgAGAgggGQUIGBA2AAgwFSYStkgWErKFZbkFCRkFBWW39JbnZhbGlkIGlucHV0IGRhdGEgbGVuZ3RoLgAAAAAAAGAAggFSUFZbYABhK6FgGoNhKu5WW5FQYSusgmEra1ZbYCCCAZBQkZBQVltgAGAgggGQUIGBA2AAgwFSYSvQgWErlFZbkFCRkFBWW39OSHtxAAAAAAAAAAAAAAAAAAAAAAAAAAAAAAAAAAAAAGAAUmASYARSYCRgAP1bYABhLBGCYSXbVluRUGEsHINhJdtWW5JQgmEsLFdhLCthK9dWW1uCggaQUJKRUFBWW2AAgpBQkpFQUFZbYACBkFCBYABSYCBgACCQUJGQUFZbYABgIGAfgwEEkFCRkFBWW2AAgoIbkFCSkVBQVltgAGAIgwJhLKR///////////////////////////////////////////+CYSxnVlthLK6Gg2EsZ1ZblVCAGYQWk1CAhhaEF5JQUFCTklBQUFZbYACBkFCRkFBWW2AAYSzrYSzmYSzhhGEl21ZbYSzGVlthJdtWW5BQkZBQVltgAIGQUJGQUFZbYS0Fg2Es0FZbYS0ZYS0RgmEs8lZbhIRUYSx0VluCVVBQUFBWW2AAkFZbYS0uYS0hVlthLTmBhIRhLPxWW1BQUFZbW4GBEBVhLV1XYS1SYACCYS0mVltgAYEBkFBhLT9WW1BQVltgH4IRFWEtoldhLXOBYSxCVlthLXyEYSxXVluBAWAghRAVYS2LV4GQUFthLZ9hLZeFYSxXVluDAYJhLT5WW1BQW1BQUFZbYACCghyQUJKRUFBWW2AAYS3FYAAZhGAIAmEtp1ZbGYCDFpFQUJKRUFBWW2AAYS3eg4NhLbRWW5FQgmACAoIXkFCSkVBQVlthLfiDg2EsN1ZbZ///////////gREVYS4RV2EuEGEmg1ZbW2EuG4JUYSpaVlthLiaCgoVhLWFWW2AAYB+DEWABgRRhLlVXYACEFWEuQ1eChwE1kFBbYS5NhYJhLdJWW4ZVUGEutVZbYB8ZhBZhLmOGYSxCVltgAFuCgRAVYS6LV4SJATWCVWABggGRUGAghQGUUGAggQGQUGEuZlZbhoMQFWEuqFeEiQE1YS6kYB+JFoJhLbRWW4NVUFtgAWACiAIBiFVQUFBbUFBQUFBQUFb+omRpcGZzWCISIDEkITSIwvH8pZaHh/DD6W+6hGkSmoB5jhHudSkDtL/cZHNvbGNDAAgTADM=",
          "touched": true,
          "read": true
        },
        "0x85dA99c8a7C2C95964c8EfD687E95E632Fc533D6": {
          "address": "0x85dA99c8a7C2C95964c8EfD687E95E632Fc533D6",
          "nonce": 4156,
          "read": true
        },
        "0x8Ef7ccE1aced4258884e831527C674a2edEA4952": {
          "address": "0x8Ef7ccE1aced4258884e831527C674a2edEA4952",
          "read": true
        }
      }
    }
  ]
}
