{
  "accountTrie": {
    "129cbf22cb97ccfe34430e062b52e5cfa74ce346a8e314c6af112cdc494e9c73": "f85180a0df8dd50b21f45907486b90883e05560bf0fa41695248d1eb4f432f349afc5d7c80808080808080808080a0b352e4c72d853473be5eac69cf10adfdc61a3747ec26a4b424f0a29292fc1d3780808080",
    "159699b5feb78df202a46ec6eca3d38b9ed7df59c62600af8bddc6fbf789b764": "f873a0201e84137173633629f40faeb92a810dbcbf913533c7319539f3382ae8af9922b850f84e808ad3c21e7796e8aa87476fa056e81f171bcc55a6ff8345e692c0f86e5b48e01b996cadc001622fb5e363b421a0c5d2460186f7233c927e7db2dcc703c0e500b653ca82273b7bfad8045d85a470",
    "16ed6135ce9fe1a30f8566e582afa24ceb4909b93088bdd9fae965b663e23892": "f8f1a09cd6327de3ac60480be7149c0e646aa11f88b1bbf211afbc2e4c891fea5248208080a018c9b7026564c891b29aeec92b756b11a53f0a211f77108434a46f25f77e4e62a0c25883bea27795f0f03011df388255bd0b5c2f95bbc6198981880e11310a5ec4a03d2c9faa594230d254816429f8dc379c30c8b3679ef67f44dd31f3e6822f9a498080a06bcfaefc0204cc7c7d73b985cd3f4e7cc96276c7e6e694b6e8b2ac87ab446ba08080808080a0a6df3a651ac8bb7fb3dcab91700d9b204c52fcc82a257169378b3bd0a385ed11a03e3a9de9ffe6cd0b9243be48a522741f00d9ea345742f34248a0945eed1bba7280",
    "18c9b7026564c891b29aeec92b756b11a53f0a211f77108434a46f25f77e4e62": "f851a0e29cd6451f96ed556022f6076eacfbb24d0680280f8a4a588419a89b9a4260aa80808080808080a0e16a241cb5140a521a7914d1a29649170c4389a259da0716a34f1269bf0968588080808080808080",
    "79bb0b1b9e332b4fc5d286c04d89cd7516e8d2eeafad6e316fda8cb27224cad3": "f8f180a031d1eb10fdf37ef90417d463e9e3d1dad5bab6a3e8b38ccc4eaa74425031745780a0e1e12ee753fe820fd85966999855fb54a676ef1dd603fe17d38d35d65b6bd56ba0a04e84d92c0b9a1bf76647de42ecc22243261dbc4fa716e6df74039533eb1e90a0129cbf22cb97ccfe34430e062b52e5cfa74ce346a8e314c6af112cdc494e9c73a088051b9667deb59e99614788c0d0aedaec2b9658bd714c851f16eb1d1ad39652a0dbe88e3ca7dd488f49b5d0d0083a9888c8c8af012881eb3de63cea270c8de723808080a0274e2e0e8f8fc8484e8dbec1d909ba8aa63f30695c18d02d0698ff7ac8d89b4b8080808080",
    "c25883bea27795f0f03011df388255bd0b5c2f95bbc6198981880e11310a5ec4": "f869a020c1ec272906bc470ab1b71a6d34f39bc8f50066523eb1bff07806f20088c5f6b846f8447f80a07dba1b2d0b0495683dbed61dd3e6fe5a348d245aa2002ba0fc25cefba773a11fa07eea3a48563e7b938852aafc93d760d31a84ad520adf1128af576cdd65ee9a8e",
    "df8dd50b21f45907486b90883e05560bf0fa41695248d1eb4f432f349afc5d7c": "f8769f3eec2b84f0ba344fd4b4d2f022469febe7a772c4789acfc119eb558ab1da3db854f8528215598c033b2e3c5de419263a7a0eaba056e81f171bcc55a6ff8345e692c0f86e5b48e01b996cadc001622fb5e363b421a0c5d2460186f7233c927e7db2dcc703c0e500b653ca82273b7bfad8045d85a470",
    "e0dbe661abf4f2d89b5abdc866c9221b7a48a39cb03fca03517a84b28f12762c": "f90211a03e393eddf453769ee471dc5f44e6bd158c772f28a9c0f390b0b76c7ba33f1300a0f8ced0fd6ec5f70c5cddfe126495cdbc952204f3169e17856d5e5e902c0779a4a04fdc50254821150cfa5e6520e3f3bfd5cf2787b65c73a0a251a5eaae97d725b7a0641e7c07699053fa8ffa3fa31aaddd8fc880d3458ee749869497301fddfcce15a03d4e1d2370eb832b9bcfe2a486aa8014e4998332c819dfdb5daf8add03a6aed8a016ed6135ce9fe1a30f8566e582afa24ceb4909b93088bdd9fae965b663e23892a0372fe5d5fb2e631312c1f0745a6439ddac3de35a74913a4518eccb04719a72f8a03c215dcd054e2a168fe3476f4015e82642b4d77b50fd2894b02710f491cf4b84a0b6f24b421eb36dff261d9295bc47fec8eaa4ff79c2fe27c764281742cc32f60ba0427d9208f34ad603b2a0925fd576a9fad8c649681d208ecec5d2a8752bc98fcca079bb0b1b9e332b4fc5d286c04d89cd7516e8d2eeafad6e316fda8cb27224cad3a0977582678c73cba0918a495bb5f56decbe36ac3b1942f0a4840b52cd81b91a82a0c28f4504a633ce9be1efc00bbcd956d3ed54a6a850022b83cd0bec261b8ae389a0c25e88074bbf48a49a51a6acc11d847aebe13c56af307f0eca522c137644107aa03d70bb91ca10b78c1e95ed86f51db1f1903be1b659417797959245914f59f513a006e5e3b7d0f66369d157dec1ca7afba579d0d5156f0d7c6eb9c8636b7e188b8a80",
    "e16a241cb5140a521a7914d1a29649170c4389a259da0716a34f1269bf096858": "f8729f30c7b7ae81a58eb98d9c78de4a1fd7fd9535fc953ed2be602daaa41767312ab850f84e808ad3c21bd2b1bb22b9500fa056e81f171bcc55a6ff8345e692c0f86e5b48e01b996cadc001622fb5e363b421a0c5d2460186f7233c927e7db2dcc703c0e500b653ca82273b7bfad8045d85a470",
    "f8ced0fd6ec5f70c5cddfe126495cdbc952204f3169e17856d5e5e902c0779a4": "f8f1808080a0e69d812d295bbeccf97416df44cf0b7099241dbc549a18c8542703c5e2060c8a80a0162c91a1ecf6c3da75a44156f3567e6831e19d3723f161e6e9e257fc3c77b28c8080a022d158acddf030cad84c715465c15984907c7dc5e284d865ae35b0a203d658aa8080a0218942d17c031607cd121c93fcdd68e677a875886ab22833448c66aa74d9d036a0159699b5feb78df202a46ec6eca3d38b9ed7df59c62600af8bddc6fbf789b764a0fc95a204370d1e8969158a47b5e6037b199bfd7394c6f6e2845d8130806c849f80a0e002b09f0e736f544266c91c9667d78d594fcadb9c825243d16dbad8625b8d3180"
  },
  "storageTrie": {
    "034649eb17405f031599b136511e4e57800c11fb29a1d831fc0846910e7ac653": "e2a020453cac58a4906122bd90086f162821d93b6f307788c4d6298f36e423cf28c735",
    "034ea9dc11d7e437dc239d233fbd9df8f37123727dd662fde29f214644516ab5": "f8b180a0174d33ef1552ce0e7b4cf6eb84d673b5c936254e762a709e00f738970a8f46a68080a0974431e5163fb0923a1f74ed25901bf8a6fc6f525a5da024f99db011a60c743680a026ab4afe0605f3a34e3f14aa470f0a081406ba0ecec0c85438840dace921edcc808080808080a0e2c3cdc1a3b1b71eb79d206f4b927f0b3f19bceb91910cd7d463cf219da42e8c80a0c251e3cc9bdff94d043bb475cc7739782015f9f6c3cc4ce8dc4f1273a7fdda8480",
    "0e32069e549d11c441fda0a1a03b297fbcd780d9b93e20d2137c59e8fd854089": "e2a02053212a6e27a02c94ee5d9202e7da0782cd48969a6bd21c435adae34ae2d6f23b",
    "0eec99561e354d1b3bdb7cf9eca5e5dd6c4f6b4c36d6169df85319e86740dabb": "f85180a0d9724654ab42f80a893d9762e9cd933e6d664c2bbdeb85edacd89777cdfbc9cd80808080a0034649eb17405f031599b136511e4e57800c11fb29a1d831fc0846910e7ac65380808080808080808080",
    "233363542eb25b75885e4d4b1d1878e9d558bfd1962fa476dd1e56dfaed530b3": "f843a03a7f1cf05fa4014779c1ee00711ae93670053b17da79c3c18427fbe2f354a2f1a1a0865585597b2579a954346c2e492a682c8d0a61f2d02db557da21e68339312fbd",
    "2604b7f464085e35d0a9ba9b7401f8b9a2f59ff3414751cc849acb3fc2656c0b": "e2a03e04a0888e3ab636965dbe9aa38887fd9b3074921df61312fd796683c37ff4c22b",
    "26ab4afe0605f3a34e3f14aa470f0a081406ba0ecec0c85438840dace921edcc": "e2a02013dffd80ba7541d4ea05a3202a3f515d93c4b983db32843fbe26e885c3d90013",
    "439ddc61a885226442f104918a1a7cf0c034d10c65801fcba2ef37fc1a10c4e0": "e2a02002d3b6b12d4463d21f1670be290f261bc491d2d9b9e976b22f9b055a686fc30b",
    "68c2bbeb1d50a734f582ac29a7fa6fa781cf2eb3c1ee3d2cce4fb0328b0680ba": "f8718080a0fec9efc94f3bf53e7b61acbf8b9b07221c5bd606fce37bbb086a5769f052979380808080a00e32069e549d11c441fda0a1a03b297fbcd780d9b93e20d2137c59e8fd85408980a06c6e73f437940844816f55d174f6031fbcf5f7d073981a02fa1ed0b7fc33cf5a80808080808080",
    "6c6e73f437940844816f55d174f6031fbcf5f7d073981a02fa1ed0b7fc33cf5a": "e2a02092dab2820266ca9664ab42ef2fc3bfb330178173a94c5b0333385663d1b8c125",
    "7dba1b2d0b0495683dbed61dd3e6fe5a348d245aa2002ba0fc25cefba773a11f": "f901d1a03179bf76ec025a6e74e6d1b5a132ded7f98c8ddaddd2e5698cf4ac4c9bdef9a9a09ee3a6c156b4be7d5f99694305367fab9de04aab45c98e30f86a7f03b4d3a686a09c9502387350dd7e4af260031aa1ee8ee347178853c34fd0322022f75ea93925a00eec99561e354d1b3bdb7cf9eca5e5dd6c4f6b4c36d6169df85319e86740dabb80a02604b7f464085e35d0a9ba9b7401f8b9a2f59ff3414751cc849acb3fc2656c0ba0aab601d06827bc0b472e417b23874f9d32932e93d392872f57e4be0673061d4ba0034ea9dc11d7e437dc239d233fbd9df8f37123727dd662fde29f214644516ab5a0b0ce06bf11d02ae0f1dbb90f47a4d2059386931f23f6258d441fde95439959b5a08a2923de40c6a7cc1baf39b0ff5dabb5a1915421648bff8a690d78485ccf305d80a0233363542eb25b75885e4d4b1d1878e9d558bfd1962fa476dd1e56dfaed530b3a0f5a3be404ce24abe8da1f04544407c72f9f9956d1772a4448f7e04fb0ce4b194a0f8e1375e83a0f9c9041ca6271a0584edb394f07fe9d9b65bf334e215ddc70135a0cd1d95260f896d37114ce65ab9cd3f3b04b27ea608b8a2174b69df43ed0d2fe1a068c2bbeb1d50a734f582ac29a7fa6fa781cf2eb3c1ee3d2cce4fb0328b0680ba80",
    "974431e5163fb0923a1f74ed25901bf8a6fc6f525a5da024f99db011a60c7436": "e2a020ed2d5022c396100ccbda68a9ebe2f88eb0baceb11c3814c72007df04a25cd40d",
    "9877b4e9b36a2d77aed5ab4a37c1bd9784522f77c06436e053fbccaa63e51424": "e2a0203d5b5d1ad3248ad60cb3f5e40865a0ef3de45e8d6b158ee7bc0cf66fce1d8111",
    "9c9502387350dd7e4af260031aa1ee8ee347178853c34fd0322022f75ea93925": "f851808080808080808080a060431af0a20dc00537e1c2984fb7d8373bc225af362b1fafa76da50c5b76cf718080808080a0fb3bb6f504e28c6d8a0fb3f8d01ce802bf775fa6d657eede63587e8df976002a80",
    "9ee3a6c156b4be7d5f99694305367fab9de04aab45c98e30f86a7f03b4d3a686": "e2a03d0aad4737cb7cafd64eb2d8729fc798ec795e82dcf0cb2d9c6141a3907371b117",
    "aab601d06827bc0b472e417b23874f9d32932e93d392872f57e4be0673061d4b": "f8518080808080a0439ddc61a885226442f104918a1a7cf0c034d10c65801fcba2ef37fc1a10c4e0a02448fd7856d200759e9cfe64f2a682f91613cf51914fdc613526ea15ace78c6b80808080808080808080",
    "b0ce06bf11d02ae0f1dbb90f47a4d2059386931f23f6258d441fde95439959b5": "f851a09877b4e9b36a2d77aed5ab4a37c1bd9784522f77c06436e053fbccaa63e51424808080a0b2c13d19d918c7e33db2e3388d622eafb7f4beea3b01a7f54501325f4ce8b74b808080808080808080808080",
    "b2c13d19d918c7e33db2e3388d622eafb7f4beea3b01a7f54501325f4ce8b74b": "e2a0202ac0009080797e405e6f386cb815e37985f1bb7e1fa0a9b688c4e50694e9af1d",
    "c251e3cc9bdff94d043bb475cc7739782015f9f6c3cc4ce8dc4f1273a7fdda84": "e2a020ef4bf8f63cf9dd467136c679c02b5c17fcf6322d9562512bf5eb952cf7cc5303",
    "cd1d95260f896d37114ce65ab9cd3f3b04b27ea608b8a2174b69df43ed0d2fe1": "f8518080808080808080808080a0d688055a7ea99008e6dfa966eb0f7c1add5afeaa448b359ca1d7fe5d0c7570ea8080a0d4eb05f9fef5fd1acbb5fab0eebcaf34f5c002e022d900948b4ce6a59bd3eae78080",
    "d4eb05f9fef5fd1acbb5fab0eebcaf34f5c002e022d900948b4ce6a59bd3eae7": "e2a0206dbceb4272a0dabc4b21f62fbfb0c0708629506c40f2aee806f3e9e65773c63d",
    "d688055a7ea99008e6dfa966eb0f7c1add5afeaa448b359ca1d7fe5d0c7570ea": "e2a020fd6de24591b42f30ce04aa4ab8c7bf028a77aef85c9d0f085b788e944f8b962f",
    "d9724654ab42f80a893d9762e9cd933e6d664c2bbdeb85edacd89777cdfbc9cd": "e2a020b0c4fcfef3c109f2afa201e3534f360ee1503cd5a3be775f2d43854a59480b29",
    "e2c3cdc1a3b1b71eb79d206f4b927f0b3f19bceb91910cd7d463cf219da42e8c": "e2a0202944a272ac5bae96b5bd2f67b6c13276d541dc09eb1cf414d96b19a09e1c2f02",
    "f8e1375e83a0f9c9041ca6271a0584edb394f07fe9d9b65bf334e215ddc70135": "e2a0370731c4fc4bf9cd8fc2be4d898bd67fd357eb0135035bf4500364b4c42c4fa505",
    "fb3bb6f504e28c6d8a0fb3f8d01ce802bf775fa6d657eede63587e8df976002a": "e2a020c7941cecc943bf2000c5d7068f2b8c8e9a29be62acd583fe9e6e90489a8c8207",
    "fec9efc94f3bf53e7b61acbf8b9b07221c5bd606fce37bbb086a5769f0529793": "e2a020a0fc0df1b679f3afe38c632fecf8d8d1945e3c27d5102dd1a69d36fa20d9991f"
  },
  "parentStateRoot": "0xe0dbe661abf4f2d89b5abdc866c9221b7a48a39cb03fca03517a84b28f12762c",
  "transactionTraces": [
    {
      "txn": "0x02f8938207d182155984b2d05e0084b2d05e0e8305cf6b94c3f3338ed0fd9c2013bd26c6b4da337858a486a880a4786727d40000000000000000000000000000000000000000000000000000000000000080c080a0580d5a8e334752a8116ce188ad04170447cce3655534f290d8dbaa97041e1d55a01c31a123550761963cbe8ac954115a78fb833bac8fbaea0e3bd0fbb6fd14a6a7",
      "delta": {
        "0x0000000000000000000000000000000000000000": {
          "address": "0x0000000000000000000000000000000000000000",
          "read": true
        },
        "0x70A0bb66cF004D0FbdB6880Db1E283871cF13D27": {
          "address": "0x70A0bb66cF004D0FbdB6880Db1E283871cF13D27",
          "read": true
        },
        "0x85dA99c8a7C2C95964c8EfD687E95E632Fc533D6": {
          "address": "0x85dA99c8a7C2C95964c8EfD687E95E632Fc533D6",
          "nonce": 5466,
          "read": true
        },
        "0xC3f3338ed0fd9C2013bd26c6b4DA337858A486a8": {
          "address": "0xC3f3338ed0fd9C2013bd26c6b4DA337858A486a8",
          "storage": {
            "0x2cc0eb4b3ec5bf92d601b8938793073ef9a83f91d7e5985435824ae87524336a": "0x0000000000000000000000000000000000000000000000000000000000000067",
            "0x38378c408f71c9e5f35d8db763a45d2b35da16f98182f9f4d54306cbd58c0a09": "0x0000000000000000000000000000000000000000000000000000000000000065",
            "0x44f9494ddace41673149b1ce2120e2a8dc5880bba93ff68e6b6c883c57a0c695": "0x000000000000000000000000000000000000000000000000000000000000004f",
            "0x4a5bded210bb862fae2c0d18b9d29bf7f88b08a75dd1594b1369abc7881e3fe1": "0x0000000000000000000000000000000000000000000000000000000000000047",
            "0x50d9dffd10eb4437a15e8bb1c50afee98ea231805f136fb9a057e7aaeec448ae": "0x0000000000000000000000000000000000000000000000000000000000000049",
            "0x6ea47ca2f9e3a67b0e336c514aa9f125109f49309b7162caec32e7d27e5c838c": "0x000000000000000000000000000000000000000000000000000000000000007f",
            "0x7352bc45c8aa6995480780fe15a07c4daa795263b5e7a9d04d9ed979c93ca85e": "0x000000000000000000000000000000000000000000000000000000000000006d",
            "0x82fb8bdd0a53542a1f59046c16f7a1350c43d22db36425bb53f551e7c6a09181": "0x0000000000000000000000000000000000000000000000000000000000000071",
            "0x9542868bcbb5bd2ea274742292a8fd9233b9d5ee15ffeb027d991190493290d8": "0x0000000000000000000000000000000000000000000000000000000000000061",
            "0xad2d52b8047a96778c45f477dabddaae71b5ff6b355ac44a03c9522a54a18a26": "0x000000000000000000000000000000000000000000000000000000000000006b",
            "0xc0c7c7c9a2a6655862feea3cc7ff13629582293fcfe0e1094efb20897bb02a65": "0x0000000000000000000000000000000000000000000000000000000000000043",
            "0xf3118d41e0deec621ee3de85ec11bfcf8aee617b34cd0b5f1496acc8de2cbdcc": "0x0000000000000000000000000000000000000000000000000000000000000059",
            "0xfa3bcae139a60d3922021a29633a6c8687b9ba7e920e2516b2cfd8f5fd3e0e51": "0x0000000000000000000000000000000000000000000000000000000000000053"
          },
          "storage_read": {
            "0x0353061a88c0592f32d7468be32ff6e5e91e49a3ea3ffb3c4fbe417c36501ba2": {},
            "0x20de3dd312970f46a1d560f6c70f0e5bd10e638b9bb3836368f28838c607ea3e": {},
            "0x2cc0eb4b3ec5bf92d601b8938793073ef9a83f91d7e5985435824ae87524336a": {},
            "0x328b8e687a0a963892a735f0237cb763bbbbf8ba0c1dfe2c221debb32c4bbd89": {},
            "0x38378c408f71c9e5f35d8db763a45d2b35da16f98182f9f4d54306cbd58c0a09": {},
            "0x3a5ea591190eeb3f8fcdced843c78df04ec0dfd42f5510375207515664fa0a75": {},
            "0x44f9494ddace41673149b1ce2120e2a8dc5880bba93ff68e6b6c883c57a0c695": {},
            "0x4a5bded210bb862fae2c0d18b9d29bf7f88b08a75dd1594b1369abc7881e3fe1": {},
            "0x50d9dffd10eb4437a15e8bb1c50afee98ea231805f136fb9a057e7aaeec448ae": {},
            "0x59dd4b18488d12f51eda69757a0ed42a2010c14b564330cc74a06895e60c077b": {},
            "0x679795a0195a1b76cdebb7c51d74e058aee92919b8c3389af86ef24535e8a28c": {},
            "0x6ea47ca2f9e3a67b0e336c514aa9f125109f49309b7162caec32e7d27e5c838c": {},
            "0x7352bc45c8aa6995480780fe15a07c4daa795263b5e7a9d04d9ed979c93ca85e": {},
            "0x82fb8bdd0a53542a1f59046c16f7a1350c43d22db36425bb53f551e7c6a09181": {},
            "0x88601476d11616a71c5be67555bd1dff4b1cbf21533d2669b768b61518cfe1c3": {},
            "0x9542868bcbb5bd2ea274742292a8fd9233b9d5ee15ffeb027d991190493290d8": {},
            "0xa4e0f4432e44d027a7b3f953940f096bca7a9bd910297cad2ba7c703c2b799d3": {},
            "0xab9952baf6478d8cfb7253ce86a6c53a7b7549582c76210b1581ae682b7e556f": {},
            "0xac33ff75c19e70fe83507db0d683fd3465c996598dc972688b7ace676c89077b": {},
            "0xacd8ef244210bb6898e73c48bf820ed8ecc857a3bab8d79c10e4fa92b1e9ca65": {},
            "0xad2d52b8047a96778c45f477dabddaae71b5ff6b355ac44a03c9522a54a18a26": {},
            "0xb98b78633099fa36ed8b8680c4f8092689e1e04080eb9cbb077ca38a14d7e384": {},
            "0xbd814762a7e35d5c162a7570d14baa68bd622cabb1ad83d40dd70f8a88aa67c0": {},
            "0xc0c7c7c9a2a6655862feea3cc7ff13629582293fcfe0e1094efb20897bb02a65": {},
            "0xd3604db978f6137b0d18816b77b2ce810487a3af08a922e0b184963be5f3adfc": {},
            "0xe90b7bceb6e7df5418fb78d8ee546e97c83a08bbccc01a0644d599ccd2a7c2e0": {},
            "0xeb5d92aa5b18af35c2d0c0d14a538792cf1a66aa06ab9dae49d32446e9063ca1": {},
            "0xee60d0579bcffd98e668647d59fec1ff86a7fb340ce572e844f234ae73a6918f": {},
            "0xf3118d41e0deec621ee3de85ec11bfcf8aee617b34cd0b5f1496acc8de2cbdcc": {},
            "0xf85cc6ffc513dc6cf7d199ef87b7a63cf9defe62251c1c247cd12f1eec7bff29": {},
            "0xfa3bcae139a60d3922021a29633a6c8687b9ba7e920e2516b2cfd8f5fd3e0e51": {}
          },
          "code_read": "YIBgQFJgBDYQYQDzV2AANWDgHIBjdj78CBFhAIpXgGOyrNUJEWEAWVeAY7Ks1QkUYQKEV4BjyqJgMhRhAqRXgGPOGxk6FGEC0VeAY+yLRmoUYQLkV2AAgP1bgGN2PvwIFGECGleAY3hnJ9QUYQIvV4BjfZR5KhRhAk9XgGOumNsvFGECb1dgAID9W4BjQgt9rhFhAMZXgGNCC32uFGEBlFeAY0hJ8nkUYQHDV4BjSdPWBRRhAfBXgGNX/BCjFGECBVdgAID9W4BjAxO/hhRhAPhXgGMUWwVjFGEBI1eAYxoP580UYQFFV4BjMUjxTxRhAXRXW2AAgP1bNIAVYQEEV2AAgP1bUGEBDWACgVZbYEBRYQEakZBhHlxWW2BAUYCRA5DzWzSAFWEBL1dgAID9W1BhAThhAwRWW2BAUWEBGpGQYR5/Vls0gBVhAVFXYACA/VtQYQENYQFgNmAEYR6oVltgAmAgUoBgAFJgQGAAIFSQUIFWWzSAFWEBgFdgAID9W1BhAQ1hAY82YARhHtFWW2EDYFZbNIAVYQGgV2AAgP1bUGEBDWEBrzZgBGEeqFZbYAFgIFKAYABSYEBgACBUkFCBVls0gBVhAc9XYACA/VtQYQHjYQHeNmAEYR8hVlthA65WW2BAUWEBGpGQYR/NVls0gBVhAfxXYACA/VtQYQENYASBVls0gBVhAhFXYACA/VtQYQENYAiBVls0gBVhAiZXYACA/VtQYQENYAGBVls0gBVhAjtXYACA/VtQYQENYQJKNmAEYR6oVlthA/dWWzSAFWECW1dgAID9W1BgAFRhATiQYAFgAWBAGwMWgVZbNIAVYQJ7V2AAgP1bUGEBDWAQgVZbNIAVYQKQV2AAgP1bUGEBDWECnzZgBGEg2FZbYQW2Vls0gBVhArBXYACA/VtQYQLEYQK/NmAEYSDYVlthBfZWW2BAUWEBGpGQYSFuVlthAQ1hAt82YARhIbdWW2EGX1ZbNIAVYQLwV2AAgP1bUGEB42EC/zZgBGEe0VZbYR2zVltgAIBUY4AAAACQYQMlkGABYAFgQBsDFmNBxk5tYSICVlthAzGQYTA5YSIoVlthAzuRkGEiYVZbYACAVGf//////////xkWYAFgAWBAGwOSkJIWkYIXkFWRkFBWW2AAYEBRYCCBUmAggIIBUmAgYECCAVKEYGCCAVKDYICCAVKCYKCCAVJgwFFgIIFgwIRgAGAFYAAZ8WEDoldgAID9W4BRlpVQUFBQUFBWW2EDtmEd9FZbYQO+YR4PVluFgVJgIIEBhZBSYECAggGFkFJgYIIBhJBSgmCAg2AAYAZa8YCAYQPsV2AAgP1bUFBQlJNQUFBQVltgAIBhBAWDYAFhIqRWW2ABYAFgQBsDgREVYQQcV2EEHGEf21ZbYEBRkICCUoBgIAJgIAGCAWBAUoAVYQRFV4FgIAFgIIICgDaDNwGQUFtQkFBgAluDgRFhBIhXYAGCgoFRgRBhBGZXYQRmYSKOVluRFRVgIJKDApGQkQGQkQFSgGEEgIFhIrdWW5FQUGEES1ZbUGACW4NhBJeCgGEi0VZbEWEFGleBgYFRgRBhBK5XYQSuYSKOVltgIAJgIAEBURVhBQhXYABhBMeCgGEi0VZbkFBbhIERYQUGV2AAg4KBUYEQYQTlV2EE5WEijlZbkRUVYCCSgwKRkJEBkJEBUmEE/4KCYSKkVluQUGEEylZbUFuAYQUSgWEit1ZbkVBQYQSMVltQYABgAluEgRFhBXdXgoGBUYEQYQU5V2EFOWEijlZbYCACYCABAVEVYQVlV2AAgoFSYAJgIFKBkGBAkCBVgWEFYYFhIrdWW5JQUFuAYQVvgWEit1ZbkVBQYQUgVltQf+zwpdpXWAMVtcMvOdCGnL7XJUZYZQcSbHalJ//3VG8DgWBAUWEFp5GQYR5cVltgQFGAkQOQoZOSUFBQVltgAICCUZBQYQXIYMCCYSLpVlsVYQXSV2AAgP1bYEBRYCCBg2AghwFgAGAIWvGAgBVhAPNXglGWlVBQUFBQUFZbYGBgAIJRYAFgAWBAGwOBERVhBhNXYQYTYR/bVltgQFGBgVJgHxlgH4MBFoEBYCABYEBSkIAVYQY9V2AgggGBgDaDNwGQUFtQkFCCUYBgIIMBgmAghwFgAGAEWvFhBlhX/ltQkpFQUFZbYACAVGf//////////xkWYAFgAWBAGwOFFheBVX/D0GEUXGeAqnWxVxhxvdb5k3LGBDTzPYr6VAnvXHJjOoRgQFFhBqqRkGEef1ZbYEBRgJEDkKFgAIBgAIBgAIBgAIBgAGBAUWBAUYCRA5CgYABbjGP/////FoFj/////xYQFWEcwldhBuphAwRWW2ABYAFgQBsDFplQYQb9YQMEVltgAWABYEAbAxaYUGEHEomLYSKkVltgQFFgIAFhByKRkGEi+lZbYEBRYCCBgwMDgVKQYEBSgFGQYCABIJVQYQdCYQMEVltgAWABYEAbAxaZUGEHVWEDBFZbYAFgAWBAGwMWmFCFYQdrioxhItFWW2BAUWAgAWEHfJKRkGEjD1ZbYEBRYCCBgwMDgVKQYEBSgFGQYCABIJVQYQecYQMEVltgAWABYEAbAxaZUGEHr2EDBFZbYAFgAWBAGwMWmFCFiYsDYEBRYCABYQfPkpGQYSMPVltgQFFgIIGDAwOBUpBgQFKAUZBgIAEglVBZmVCFimBAUWAgAWEH/ZKRkGEjD1ZbYEBRYCCBgwMDgVKQYEBSgFGQYCABIJVQOJlQhYpgQFFgIAFhCCuSkZBhIw9WW2BAUWAggYMDA4FSkGBAUoBRkGAgASCVUGEIS2EDBFZbYAFgAWBAGwMWmVBhCF5hAwRWW2ABYAFgQBsDFphQhWEIdIqMYSM1VltgQFFgIAFhCIWSkZBhIw9WW2BAUWAggYMDA4FSkGBAUoBRkGAgASCVUGEIpWEDBFZbYAFgAWBAGwMWmVBhCLhhAwRWW2ABYAFgQBsDFphQhWEI0IpgABlhI0lWW2EI2pCMYSN6VltgQFFgIAFhCOuSkZBhIw9WW2BAUWAggYMDA4FSkGBAUoBRkGAgASCVUGEJC2EDBFZbYAFgAWBAGwMWmVBhCR5hAwRWW2ABYAFgQBsDFphQhWEJNIqMYSLpVltgQFFgIAFhCUWSkZBhIw9WW2BAUWAggYMDA4FSkGBAUoBRkGAgASCVUGEJZWEDBFZbYAFgAWBAGwMWmVBhCXhhAwRWW2ABYAFgQBsDFphQhWEJkIpgABlhI0lWW2EJmpCMYSOoVltgQFFgIAFhCauSkZBhIw9WW2BAUWAggYMDA4FSkGBAUoBRkGAgASCVUGEJy2EDBFZbYAFgAWBAGwMWmVBhCd5hAwRWW2ABYAFgQBsDFphQYQnxYQMEVltgAWABYEAbAxaXUIWIgGEKC1dhCgthIktWW4qMCGBAUWAgAWEKH5KRkGEjD1ZbYEBRYCCBgwMDgVKQYEBSgFGQYCABIJVQYQo/YQMEVltgAWABYEAbAxaZUGEKUmEDBFZbYAFgAWBAGwMWmFBhCmVhAwRWW2ABYAFgQBsDFpdQhYiAYQp/V2EKf2EiS1ZbiowJYEBRYCABYQqTkpGQYSMPVltgQFFgIIGDAwOBUpBgQFKAUZBgIAEglVBhCrNhAwRWW2ABYAFgQBsDFplQYQrGYQMEVltgAWABYEAbAxaYUIWJiwpgQFFgIAFhCuaSkZBhIw9WW2BAUWAggYMDA4FSkGBAUoBRkGAgASCVUGELBmEDBFZbYAFgAWBAGwMWmVCFimADC2BAUWAgAWELJ5KRkGEjD1ZbYEBRYCCBgwMDgVKQYEBSgFGQYCABIJVQYQtHYQMEVltgAWABYEAbAxaZUGELWmEDBFZbYAFgAWBAGwMWmFCFiYsQYQtzV4lhC3VWW4pbYEBRYCABYQuGkpGQYSMPVltgQFFgIIGDAwOBUpBgQFKAUZBgIAEglVBhC6ZhAwRWW2ABYAFgQBsDFplQYQu5YQMEVltgAWABYEAbAxaYUIWJixFhC9JXiWEL1FZbiltgQFFgIAFhC+WSkZBhIw9WW2BAUWAggYMDA4FSkGBAUoBRkGAgASCVUGEMBWEDBFZbYAFgAWBAGwMWmVBhDBhhAwRWW2ABYAFgQBsDFphQhYmLEmEMMVeJYQwzVluKW2BAUWAgAWEMRJKRkGEjD1ZbYEBRYCCBgwMDgVKQYEBSgFGQYCABIJVQYQxkYQMEVltgAWABYEAbAxaZUGEMd2EDBFZbYAFgAWBAGwMWmFCFiYsTYQyQV4lhDJJWW4pbYEBRYCABYQyjkpGQYSMPVltgQFFgIIGDAwOBUpBgQFKAUZBgIAEglVBhDMNhAwRWW2ABYAFgQBsDFplQYQzWYQMEVltgAWABYEAbAxaYUIWJixRhDO9XiWEM8VZbiltgQFFgIAFhDQKSkZBhIw9WW2BAUWAggYMDA4FSkGBAUoBRkGAgASCVUGENImEDBFZbYAFgAWBAGwMWmVBhDTVhAwRWW2ABYAFgQBsDFphQhYoVYQ1NV4lhDU9WW4pbYEBRYCABYQ1gkpGQYSMPVltgQFFgIIGDAwOBUpBgQFKAUZBgIAEglVBhDYBhAwRWW2ABYAFgQBsDFplQYQ2TYQMEVltgAWABYEAbAxaYUIWJixZgQFFgIAFhDbOSkZBhIw9WW2BAUWAggYMDA4FSkGBAUoBRkGAgASCVUGEN02EDBFZbYAFgAWBAGwMWmVBhDeZhAwRWW2ABYAFgQBsDFphQhYmLF2BAUWAgAWEOBpKRkGEjD1ZbYEBRYCCBgwMDgVKQYEBSgFGQYCABIJVQYQ4mYQMEVltgAWABYEAbAxaZUGEOOWEDBFZbYAFgAWBAGwMWmFCFiYsYYEBRYCABYQ5ZkpGQYSMPVltgQFFgIIGDAwOBUpBgQFKAUZBgIAEglVBhDnlhAwRWW2ABYAFgQBsDFplQhYoZYEBRYCABYQ6YkpGQYSMPVltgQFFgIIGDAwOBUpBgQFKAUZBgIAEglVCFgGAAGmD4G2BAUWAgAWEOyZKRkGEjzFZbYEBRYCCBgwMDgVKQYEBSgFGQYCABIJVQYQ7pYQMEVltgAWABYEAbAxaZUIVgAYuQG2BAUWAgAWEPC5KRkGEjD1ZbYEBRYCCBgwMDgVKQYEBSgFGQYCABIJVQYQ8rYQMEVltgAWABYEAbAxaZUIVgAYuQHGBAUWAgAWEPTZKRkGEjD1ZbYEBRYCCBgwMDgVKQYEBSgFGQYCABIJVQYQ9tYQMEVltgAWABYEAbAxaZUIVgAYuQHWBAUWAgAWEPj5KRkGEjD1ZbYEBRYCCBgwMDgVKQYEBSgFGQYCABIJVQhZRQhDBgQFFgIAFhD72SkZBhJCtWW2BAUWAggYMDA4FSkGBAUoBRkGAgASCVUIUwgDtgIIEBYEBRkIEBYEBSgYFSYACQgGAgAZCTPGBAUWAgAWEQBJKRkGEkeVZbYEBRYCCBgwMDgVKQYEBSgFGQYCABIJVQhTA/YEBRYCABYRAwkpGQYSMPVltgQFFgIIGDAwOBUpBgQFKAUZBgIAEglVCFYAAxYEBRYCABYRBdkpGQYSMPVltgQFFgIIGDAwOBUpBgQFKAUZBgIAEglVCFR2BAUWAgAWEQiJKRkGEjD1ZbYEBRYCCBgwMDgVKQYEBSgFGQYCABIJVQhVpgQFFgIAFhELOSkZBhIw9WW2BAUWAggYMDA4FSkGBAUoBRkGAgASCVUGABgI0WA2ERLFeFMmBAUWAgAWEQ6JKRkGEkK1ZbYEBRYCCBgwMDgVKQYEBSgFGQYCABIJVQhTpgQFFgIAFhEROSkZBhIw9WW2BAUWAggYMDA4FSkGBAUoBRkGAgASCVUFuFk1BgARlgAo0WAWER91eFM2BAUWAgAWERTpKRkGEkK1ZbYEBRYCCBgwMDgVKQYEBSgFGQYCABIJVQhWAANmBAUWAgAWERfJOSkZBhJKhWW2BAUWAggYMDA4FSkGBAUoBRkGAgASCVUIVgADVgAWABYOAbAxkWYEBRYCABYRGzkpGQYSTeVltgQFFgIIGDAwOBUpBgQFKAUZBgIAEglVCFNGBAUWAgAWER3pKRkGEjD1ZbYEBRYCCBgwMDgVKQYEBSgFGQYCABIJVQW4WSUGADGWAEjRYBYRNgV4VDQGBAUWAgAWESGpKRkGEjD1ZbYEBRYCCBgwMDgVKQYEBSgFGQYCABIJVQhUhgQFFgIAFhEkWSkZBhIw9WW2BAUWAggYMDA4FSkGBAUoBRkGAgASCVUIVGYEBRYCABYRJwkpGQYSMPVltgQFFgIIGDAwOBUpBgQFKAUZBgIAEglVCFQWBAUWAgAWESm5KRkGEkK1ZbYEBRYCCBgwMDgVKQYEBSgFGQYCABIJVQhURgQFFgIAFhEsaSkZBhIw9WW2BAUWAggYMDA4FSkGBAUoBRkGAgASCVUIVFYEBRYCABYRLxkpGQYSMPVltgQFFgIIGDAwOBUpBgQFKAUZBgIAEglVCFQ2BAUWAgAWETHJKRkGEjD1ZbYEBRYCCBgwMDgVKQYEBSgFGQYCABIJVQhUJgQFFgIAFhE0eSkZBhIw9WW2BAUWAggYMDA4FSkGBAUoBRkGAgASCVUFuFkVBgBxlgCI0WAWEY/ldhE3dhAwRWW2ABYAFgQBsDFplQYABgQFFhE5CQYR4rVltgQFGAkQOQYADwgBWAFWETrFc9YACAPj1gAP1bUJBQYACLYEBRYRO+kGEeK1ZbgZBgQFGAkQOQYAD1kFCAFYAVYRPeVz1gAIA+PWAA/VtQkFCAYAFgAWCgGwMWY+20VSkzYEBRgmP/////FmDgG4FSYAQBYRQNkZBhJQ1WW2AAYEBRgIMDgWAAh4A7FYAVYRQnV2AAgP1bUFrxFYAVYRQ7Vz1gAIA+PWAA/VtQUFBQgWABYAFgoBsDFmPQneCKYEBRgWP/////FmDgG4FSYAQBYCBgQFGAgwOBYACHWvEVgBVhFH9XPWAAgD49YAD9W1BQUFBgQFFgHz2QgQFgHxkWggFgQFJhFKKRkIEBkGElKlZbm1CHjGBAUWAgAWEUt5KRkGEjD1ZbYEBRYCCBgwMDgVKQYEBSgFGQYCABIJdQgWABYAFgoBsDFmMu/DzuYEBRgWP/////FmDgG4FSYAQBYABgQFGAgwOBYACHgDsVgBVhFQpXYACA/VtQWvGSUFBQgBVhFRtXUGABW2EVUVc9gIAVYRVJV2BAUT1gPwFgHxkWgQFgQFI9gVKRUD1gAGAghAE+YRVOVltgYJFQW1BQW4eCYAFgAWCgGwMWgDuAYCABYEBRkIEBYEBSgYFSYACQgGAgAZCTPGBAUWAgAWEViZKRkGEkeVZbYEBRYCCBgwMDgVKQYEBSgFGQYCABIJdQh4JgAWABYKAbAxY/YEBRYCABYRW+kpGQYSMPVltgQFFgIIGDAwOBUpBgQFKAUZBgIAEgl1CBYAFgAWCgGwMWYcNQYEBRYCQBYEBRYB8ZgYMDAYFSYECRkJFSY2hO8EVg4RtgIIIBgFFgAWABYOAbAxaQkReQUmBAUWEWJJGQYSVLVltgAGBAUYCDA4FgAIeH8ZJQUFA9gGAAgRRhFmJXYEBRPWA/AWAfGRaBAWBAUj2BUpFQPWAAYCCEAT5hFmdWW2BgkVBbUGAEYABgA2EWeISCYSZGVltQgVRg/2EBAJKQkgqCgQIZkJEWlBUVApOQkxeQVVBgBFSJkRZgA2BAUWAgAWEWsJOSkZBhJ8JWW2BAUWAggYMDA4FSkGBAUoBRkGAgASCXUIFgAWABYKAbAxZhw1BgQFFgJAFgQFFgHxmBgwMBgVJgQJGQkVJjaE7wRWDhG2AgggGAUWABYAFg4BsDFpCRF5BSYEBRYRcWkZBhJUtWW2AAYEBRgIMDgYaG9JJQUFA9gGAAgRRhF1JXYEBRPWA/AWAfGRaBAWBAUj2BUpFQPWAAYCCEAT5hF1dWW2BgkVBbUGAEYABgA2EXaISCYSZGVltQgVRg/2EBAJKQkgqCgQIZkJEWlBUVApOQkxeQVVBgBFSJkRZgA2BAUWAgAWEXoJOSkZBhJ8JWW2BAUWAggYMDA4FSkGBAUoBRkGAgASCXUIFgAWABYKAbAxZhw1BgQFFgJAFgQFFgHxmBgwMBgVJgQJGQkVJjaE7wRWDhG2AgggGAUWABYAFg4BsDFpCRF5BSYEBRYRgGkZBhJUtWW2AAYEBRgIMDgYaG+pJQUFA9gGAAgRRhGEJXYEBRPWA/AWAfGRaBAWBAUj2BUpFQPWAAYCCEAT5hGEdWW2BgkVBbUGAEYABgA2EYWISCYSZGVltQgVRg/2EBAJKQkgqCgQIZkJEWlBUVApOQkxeQVVBgBFSJkRZgA2BAUWAgAWEYkJOSkZBhJ8JWW2BAUWAggYMDA4FSkGBAUoBRkGAgASCXUIFgAWABYKAbAxZjB9po9WBAUYFj/////xZg4BuBUmAEAWAAYEBRgIMDgWAAh4A7FYAVYRjjV2AAgP1bUFrxFYAVYRj3Vz1gAIA+PWAA/VtQUFBQUFBbYBCAjRYDYRywV2EZEGEDBFZbYAFgAWBAGwMWmVBhGSNhAwRWW2ABYAFgQBsDFphQYRk2YQMEVltgAWABYEAbAxaXUGAAYAGBjIyMYEBRYACBUmAgAWBAUmBAUWEZZpSTkpGQYSf3VltgIGBAUWAggQOQgIQDkIVa+hWAFWEZiFc9YACAPj1gAP1bUFBQYCBgQFEDUZBQhoFgQFFgIAFhGaeSkZBhJCtWW2BAUWAggYMDA4FSkGBAUoBRkGAgASCWUGEZx2EDBFZbYAFgAWBAGwMWmlCGYAKMYEBRYCABYRnmkZBhIvpWW2BAUWAggYMDA4FSkGBAUmBAUWEaApGQYSVLVltgIGBAUYCDA4GFWvoVgBVhGh9XPWAAgD49YAD9W1BQUGBAUWAfPZCBAWAfGRaCAWBAUmEaQZGQgQGQYSUqVltgQFFgIAFhGlKSkZBhIw9WW2BAUWAggYMDA4FSkGBAUoBRkGAgASCWUGEacmEDBFZbYAFgAWBAGwMWmlCGYAOMYEBRYCABYRqRkZBhIvpWW2BAUWAggYMDA4FSkGBAUmBAUWEarZGQYSVLVltgIGBAUYCDA4GFWvoVgBVhGspXPWAAgD49YAD9W1BQUGBAUVFgYBtgQFFgIAFhGuWSkZBhKEFWW2BAUWAggYMDA4FSkGBAUoBRkGAgASCWUGEbBWEDBFZbYAFgAWBAGwMWmlCGYRs5jGBAUWAgAWEbJZGQYR5cVltgQFFgIIGDAwOBUpBgQFJhBfZWW2BAUWAgAWEbSpKRkGEkeVZbYEBRYCCBgwMDgVKQYEBSgFGQYCABIJZQYRtqYQMEVltgAWABYEAbAxaaUGEbfWEDBFZbYAFgAWBAGwMWmVCGYRuVjGAYjWEDYFZbYEBRYCABYRumkpGQYSMPVltgQFFgIIGDAwOBUpBgQFKAUZBgIAEgllBhG8ZhAwRWW2ABYAFgQBsDFppQYRvZYQMEVltgAWABYEAbAxaZUGEb7GEDBFZbYAFgAWBAGwMWmFBhG/9hAwRWW2ABYAFgQBsDFpdQhmEcF4yMjIxhA65WW2BAUWAgAWEcKJKRkGEoiVZbYEBRYCCBgwMDgVKQYEBSgFGQYCABIJZQYRxIYQMEVltgAWABYEAbAxaaUGEcW2EDBFZbYAFgAWBAGwMWmVBhHG5hAwRWW2ABYAFgQBsDFphQhmEchYyMjGEds1ZbYEBRYCABYRyWkpGQYSiJVltgQFFgIIGDAwOBUpBgQFKAUZBgIAEgllBQW2Ecu4FgAWEor1ZbkFBhBs5WW1CDf0N4mzDkxtU+JzXlcBIHsFKbLMIpsbsCuWkdOeohjafXYEBRYEBRgJEDkKKChH8suGCGvHYQeC/IYGumiADNIbLPW9nZ+AE5AZBab/TqXWBAUWBAUYCRA5CjgYOFf5SiJFDqcSbVtI84Ie8JxycgeS0lvCYOxFogIhOAVnldYEBRYEBRgJEDkKSBg4V/jzEU4AC5T6aYyrPDiWkAf/RtXYCpRdzedlNysdE4P1KEYEBRYR1/kZBhHlxWW2BAUYCRA5CkYAFgAWBAGwONFmAAkIFSYAFgIFKFkGBAkCBVUJKbmlBQUFBQUFBQUFBQVlthHbthHfRWW2Edw2EeOFZbhIFSYCCBAYSQUmBAgIIBhJBSgmBgg2AAYAda8YCAYR3qV2AAgP1bUFBQk5JQUFBWW2BAUWBAgIIBgVJgApCCkIA2gzdQkZKRUFBWW2BAUWCAgIIBYEBSYASQgpCANoM3UJGSkVBQVlthAj2AYSjQgzkBkFZbYEBRYGCAggFgQFJgA5CCkIA2gzdQkZKRUFBWW4BbglJQUFZbYCCBAWEeaoKEYR5UVluSkVBQVltgAWABYEAbA4EWYR5WVltgIIEBYR5qgoRhHnBWW4BbgRRhHppXYACA/VtQVluANWEeaoFhHo1WW2AAYCCChAMSFWEevVdhHr1gAID9W2AAYR7JhIRhHp1WW5STUFBQUFZbYACAYABgYISGAxIVYR7pV2Ee6WAAgP1bYABhHvWGhmEenVZbk1BQYCBhHwaGgocBYR6dVluSUFBgQGEfF4aChwFhHp1WW5FQUJJQklCSVltgAIBgAIBggIWHAxIVYR86V2EfOmAAgP1bYABhH0aHh2EenVZblFBQYCBhH1eHgogBYR6dVluTUFBgQGEfaIeCiAFhHp1WW5JQUGBgYR95h4KIAWEenVZbkVBQkpWRlFCSUFZbYABhH5GDg2EeVFZbUFBgIAGQVltgAoGAYABbg4EQFWEfxVeBUWEftIeCYR+FVluWUGAggwGSUFBgAQFhH6BWW1BQUFBQUFZbYECBAWEeaoKEYR+ZVltjTkh7cWDgG2AAUmBBYARSYCRgAP1bYB8ZYB+DARaBAYGBEGABYAFgQBsDghEXFWEgFldhIBZhH9tWW2BAUlBQVltgAGEgLGAAYEBRkFCQVluQUGEgOIKCYR/xVluRkFBWW2AAYAFgAWBAGwOCERVhIFZXYSBWYR/bVltgHxlgH4MBFmAgAZKRUFBWW4KBgzdQYACRAVJWW2AAYSCGYSCBhGEgPVZbYSAdVluQUIKBUmAggQGEhIQBERVhIKFXYSChYACA/VthIKyEgoVhIGdWW1CTklBQUFZbYACCYB+DARJhIMhXYSDIYACA/VuBNWEeyYSCYCCGAWEgc1ZbYABgIIKEAxIVYSDtV2Eg7WAAgP1bgTVgAWABYEAbA4ERFWEhBldhIQZgAID9W2EeyYSChQFhILRWW2AAW4OBEBVhIS1XgIIBUYOCAVJgIAFhIRVWW1BQYACRAVJWW2AAYSFGgmAAgVGSkVBQVluAhFJgIIQBk1BhIV2BhWAghgFhIRJWW2AfAWAfGRaSkJIBkpFQUFZbYCCAglKBAWEhf4GEYSE2VluTklBQUFZbYAFgAWBAGwOBFmEej1ZbgDVhHmqBYSGGVltj/////4EWYR6PVluANWEeaoFhIaBWW2AAgGAAYGCEhgMSFWEhz1dhIc9gAID9W2AAYSHbhoZhIZVWW5NQUGAgYR8GhoKHAWEhrFZbY05Ie3Fg4BtgAFJgEWAEUmAkYAD9W2ABYAFgQBsDkYIWkZCBFpCCggKQgRaQgYEUYQZYV2EGWGEh7FZbYAFgAWBAGwORghaRkIEWkIKCAZCBERVhHmpXYR5qYSHsVltjTkh7cWDgG2AAUmASYARSYCRgAP1bYABgAWABYEAbA4IWkVBgAWABYEAbA4MWW5JQgmEiiVdhIolhIktWW1AGkFZbY05Ie3Fg4BtgAFJgMmAEUmAkYAD9W4CCAYCCERVhHmpXYR5qYSHsVltgAGAAGYIDYSLKV2EiymEh7FZbUGABAZBWW4GBAoCCFYOCBIUUF2EGWFdhBlhhIexWW2AAgmEielZbgGEeVlZbkFZbYABhIwaChGEi8VZbUGAgAZGQUFZbYABhIxuChWEi8VZbYCCCAZFQYSMrgoRhIvFWW1BgIAGSkVBQVltgAIJhI0RXYSNEYSJLVltQBJBWW4GBAoBgAIMSYAFg/xuFFBYVYSNmV2EjZmEh7FZbgoIFhBSDFRdhBlhXYQZYYSHsVltgAIJhI4lXYSOJYSJLVltgAWD/G4IUYAAZhBQWFWEjo1dhI6NhIexWW1AFkFZbYACCYSO3V2Ejt2EiS1ZbUAeQVltgAWABYPgbAxmBFmEeVlZbYABhI9iChWEi8VZbYCCCAZFQYSPogoRhI7xWW1BgAQGSkVBQVltgAGABYAFgoBsDghZhHmpWW2AAYR5qgmBgG5BWW2AAYR5qgmEkA1ZbYR5WYSQmgmEj8lZbYSQPVltgAGEkN4KFYSLxVltgIIIBkVBhJEeChGEkGlZbUGAUAZKRUFBWW2AAYSRhgmAAgVGSkVBQVlthJG+BhWAghgFhIRJWW5KQkgGSkVBQVltgAGEkhYKFYSLxVltgIIIBkVBhHsmChGEkUVZbYABhJKKDhYRhIGdWW1BQAZBWW2AAYSS0goZhIvFWW2AgggGRUGEkxYKEhmEklVZblZRQUFBQUFZbYAFgAWDgGwMZgRZhHlZWW2AAYSTqgoVhIvFWW2AgggGRUGEk+oKEYSTOVltQYAQBkpFQUFZbYR5WgWEj8lZbYCCBAWEeaoKEYSUEVltgAIFRkFBhHmqBYR6NVltgAGAggoQDEhVhJT9XYSU/YACA/VtgAGEeyYSEYSUbVltgAGEhf4KEYSRRVltjTkh7cWDgG2AAUmAiYARSYCRgAP1bYAKBBGABghaAYSWBV2B/ghaRUFtgIIIQgQNhJZNXYSWTYSVXVltQkZBQVltgAGEeamEi94OBVlthJa6DYSWZVluBVGAAGWAIlJCUApOEGxkWkhuRkJEXkFVQVltgAGEl1oGEhGElpVZbUFBQVluBgRAVYSX2V2El7mAAgmElyVZbYAEBYSXbVltQUFZbYB+CERVhJdZXYSYYgWAAgYFSgZBgIJAgkpFQUFZbYCBgH4UBBIEBYCCFEBVhJi1XUIBbYSY/YCBgH4YBBIMBgmEl21ZbUFBQUFBWW2EmVIJgAIFRkpFQUFZbYAFgAWBAGwOBERVhJmtXYSZrYR/bVlthJnWCVGElbVZbYSaAgoKFYSX6VltgIGAfgxFgAYEUYSa1V2AAhBVhJp1XgocBUZBQW2AAGWAIhgIcGYEWYAKGAheGVVBhH8VWW2AfGYQWYSbPhmAAgYFSgZBgIJAgkpFQUFZbYABbgoEQFWEm8leEiQFRglVgIJSFAZRgAZCSAZEBYSbSVluGgxAVYScOV4SJAVFgABlgH4kWYAgCHBkWglVbYAFgAogCAYhVUFBQUFBQUFBQVltgAGEeaoJg+BuQVltgAGEeaoJhJyJWW2EeVoEVFWEnLlZbYACBVGEnUYFhJW1WW2ABghaAFWEnaFdgAYEUYSd9V2EnuVZbYP8ZgxaGUoEVFYIChgGTUGEnuVZbYSeShWAAgYFSgZBgIJAgkpFQUFZbYABbg4EQFWEnsVeBVIiCAVJgAZCRAZBgIAFhJ5VWW4OIAZVQUFBbUFBQkpFQUFZbYABhJ86ChmEi8VZbYCCCAZFQYSfegoVhJzlWW2ABggGRUGEkxYKEYSdEVltg/4EWYR5WVltggIEBYSgFgodhHlRWW2EoEmAggwGGYSfuVlthKB9gQIMBhWEeVFZbYSTFYGCDAYRhHlRWW2v///////////////8ZgRZhHlZWW2AAYShNgoVhIvFWW2AgggGRUGEkR4KEYSgsVltgAoGAYABbg4EQFWEfxVeBUWEoeIeCYR+FVluWUGAggwGSUFBgAQFhKGRWW2AAYSiVgoVhIvFWW2AgggGRUGEopYKEYShdVltQYEABkpFQUFZbY/////+RghaRkIEWkIKCAZCBERVhHmpXYR5qYSHsVv5ggGBAUjSAFWEAEFdgAID9W1BhAh2AYQAgYAA5YADz/mCAYEBSNIAVYQAQV2AAgP1bUGAENhBhAGJXYAA1YOAcgGMH2mj1FGEAZ1eAYy78PO4UYQBxV4BjP7XByxRhAHlXgGODgfWKFGEAjFeAY9Cd4IoUYQCrV4Bj7bRVKRRhALNXW2AAgP1bYQBvYQDGVlsAW2EAb2EA21ZbYQBvYQCHNmAEYQE8VltgAFVWW2EAlWAAVIFWW2BAUWEAopGQYQFlVltgQFGAkQOQ81thAJVhAPNWW2EAb2EAwTZgBGEBllZbYQEPVltgAIBUkIBhANWDYQHNVluRkFBVAFtgAIBUkIBhAOqDYQHNVluRkFBVYACA/VtgAIBUgYBhAQKDYQHNVluRkFBVUGAAVJBQkFZbgGABYAFgoBsDFv9bgFuBFGEBKFdgAID9W1BWW4A1YQE2gWEBG1ZbkpFQUFZbYABgIIKEAxIVYQFRV2EBUWAAgP1bYABhAV2EhGEBK1ZblJNQUFBQVluBgVJgIIEBYQE2VltgAGABYAFgoBsDghZhATZWW2EBHYFhAXFWW4A1YQE2gWEBglZbYABgIIKEAxIVYQGrV2EBq2AAgP1bYABhAV2EhGEBi1ZbY05Ie3Fg4BtgAFJgEWAEUmAkYAD9W2AAYAAZggNhAeBXYQHgYQG3VltQYAEBkFb+omRpcGZzWCISIJIzhp2aS+/m2FyicHt7gYJSdXcJ0lwV+VhhBZEQriSrZHNvbGNDAAgTADOiZGlwZnNYIhIgZttJvB2S+xvThYM5jtuo0lls0K3IuUFHVZnuBZTSp1Nkc29sY0MACBMAMw==",
          "touched": true,
          "read": true
        }
      }
    }
  ]
}
