{
  "accountTrie": {
    "1f8bb060e70505377e3a5a21c682d9443f80206418ca7ce9b99fc8d7e50193f5": "f90211a03e393eddf453769ee471dc5f44e6bd158c772f28a9c0f390b0b76c7ba33f1300a0e872bbc0f357182df6b7075ab483f8c48e82da155cc977d5e65051260b54a51ba04fdc50254821150cfa5e6520e3f3bfd5cf2787b65c73a0a251a5eaae97d725b7a0641e7c07699053fa8ffa3fa31aaddd8fc880d3458ee749869497301fddfcce15a03d4e1d2370eb832b9bcfe2a486aa8014e4998332c819dfdb5daf8add03a6aed8a069473dc6840b9b1ca87fa70f9295c33b29f09b15f9a78277e000c5bcc7178004a0372fe5d5fb2e631312c1f0745a6439ddac3de35a74913a4518eccb04719a72f8a03c215dcd054e2a168fe3476f4015e82642b4d77b50fd2894b02710f491cf4b84a0b6f24b421eb36dff261d9295bc47fec8eaa4ff79c2fe27c764281742cc32f60ba0427d9208f34ad603b2a0925fd576a9fad8c649681d208ecec5d2a8752bc98fcca041d86b27482bf6e7bda89a211e547dc84840464cd85553829a48e41056faced7a0977582678c73cba0918a495bb5f56decbe36ac3b1942f0a4840b52cd81b91a82a0c28f4504a633ce9be1efc00bbcd956d3ed54a6a850022b83cd0bec261b8ae389a0c25e88074bbf48a49a51a6acc11d847aebe13c56af307f0eca522c137644107aa03d70bb91ca10b78c1e95ed86f51db1f1903be1b659417797959245914f59f513a006e5e3b7d0f66369d157dec1ca7afba579d0d5156f0d7c6eb9c8636b7e188b8a80",
    "280e525b92e39c71e335c2b26b0f61998aa1e8d606c40050a9afe26b666cabe6": "f8729f30c7b7ae81a58eb98d9c78de4a1fd7fd9535fc953ed2be602daaa41767312ab850f84e808ad3c21bd2b1bb22a28dc3a056e81f171bcc55a6ff8345e692c0f86e5b48e01b996cadc001622fb5e363b421a0c5d2460186f7233c927e7db2dcc703c0e500b653ca82273b7bfad8045d85a470",
    "41d86b27482bf6e7bda89a211e547dc84840464cd85553829a48e41056faced7": "f8f180a031d1eb10fdf37ef90417d463e9e3d1dad5bab6a3e8b38ccc4eaa74425031745780a0e1e12ee753fe820fd85966999855fb54a676ef1dd603fe17d38d35d65b6bd56ba0a04e84d92c0b9a1bf76647de42ecc22243261dbc4fa716e6df74039533eb1e90a0e9897e6aec6182851fa4bc9a3acb334fd1f8ea692f1439e41d588af0bf28caaea088051b9667deb59e99614788c0d0aedaec2b9658bd714c851f16eb1d1ad39652a0dbe88e3ca7dd488f49b5d0d0083a9888c8c8af012881eb3de63cea270c8de723808080a0274e2e0e8f8fc8484e8dbec1d909ba8aa63f30695c18d02d0698ff7ac8d89b4b8080808080",
    "4d4c0730d4b733b002a7f3489486ca25e15d81826334fddb4dd983df1eb06858": "f873a0201e84137173633629f40faeb92a810dbcbf913533c7319539f3382ae8af9922b850f84e808ad3c21e755188cca86f6fa056e81f171bcc55a6ff8345e692c0f86e5b48e01b996cadc001622fb5e363b421a0c5d2460186f7233c927e7db2dcc703c0e500b653ca82273b7bfad8045d85a470",
    "588cb96ef4bd4ccd205d01861fbeef6aebaadaeae36caac11e5e21557f145ad3": "f869a020c1ec272906bc470ab1b71a6d34f39bc8f50066523eb1bff07806f20088c5f6b846f8447f80a0d9253813d06a1ff60df1fe9552e36f895fafb20ddaa202bad4e2d7d215d55178a07eea3a48563e7b938852aafc93d760d31a84ad520adf1128af576cdd65ee9a8e",
    "69473dc6840b9b1ca87fa70f9295c33b29f09b15f9a78277e000c5bcc7178004": "f8f1a09cd6327de3ac60480be7149c0e646aa11f88b1bbf211afbc2e4c891fea5248208080a0b887c1b27aacb73d627ed7121cd5258fd3e40dcf661c2a61e2a2f7f9cedbfd41a0588cb96ef4bd4ccd205d01861fbeef6aebaadaeae36caac11e5e21557f145ad3a03d2c9faa594230d254816429f8dc379c30c8b3679ef67f44dd31f3e6822f9a498080a06bcfaefc0204cc7c7d73b985cd3f4e7cc96276c7e6e694b6e8b2ac87ab446ba08080808080a0a6df3a651ac8bb7fb3dcab91700d9b204c52fcc82a257169378b3bd0a385ed11a03e3a9de9ffe6cd0b9243be48a522741f00d9ea345742f34248a0945eed1bba7280",
    "69c4ef23229ee05493e71a63de267d3da4a3e44176ebde2ec3637c87be0a17f0": "f8769f3eec2b84f0ba344fd4b4d2f022469febe7a772c4789acfc119eb558ab1da3db854f8528215588c033b2e3c5de65e8618866b43a056e81f171bcc55a6ff8345e692c0f86e5b48e01b996cadc001622fb5e363b421a0c5d2460186f7233c927e7db2dcc703c0e500b653ca82273b7bfad8045d85a470",
    "b887c1b27aacb73d627ed7121cd5258fd3e40dcf661c2a61e2a2f7f9cedbfd41": "f851a0e29cd6451f96ed556022f6076eacfbb24d0680280f8a4a588419a89b9a4260aa80808080808080a0280e525b92e39c71e335c2b26b0f61998aa1e8d606c40050a9afe26b666cabe68080808080808080",
    "e872bbc0f357182df6b7075ab483f8c48e82da155cc977d5e65051260b54a51b": "f8f1808080a0e69d812d295bbeccf97416df44cf0b7099241dbc549a18c8542703c5e2060c8a80a0162c91a1ecf6c3da75a44156f3567e6831e19d3723f161e6e9e257fc3c77b28c8080a022d158acddf030cad84c715465c15984907c7dc5e284d865ae35b0a203d658aa8080a0218942d17c031607cd121c93fcdd68e677a875886ab22833448c66aa74d9d036a04d4c0730d4b733b002a7f3489486ca25e15d81826334fddb4dd983df1eb06858a0fc95a204370d1e8969158a47b5e6037b199bfd7394c6f6e2845d8130806c849f80a0e002b09f0e736f544266c91c9667d78d594fcadb9c825243d16dbad8625b8d3180",
    "e9897e6aec6182851fa4bc9a3acb334fd1f8ea692f1439e41d588af0bf28caae": "f85180a069c4ef23229ee05493e71a63de267d3da4a3e44176ebde2ec3637c87be0a17f080808080808080808080a0b352e4c72d853473be5eac69cf10adfdc61a3747ec26a4b424f0a29292fc1d3780808080"
  },
  "storageTrie": {
    "034ea9dc11d7e437dc239d233fbd9df8f37123727dd662fde29f214644516ab5": "f8b180a0174d33ef1552ce0e7b4cf6eb84d673b5c936254e762a709e00f738970a8f46a68080a0974431e5163fb0923a1f74ed25901bf8a6fc6f525a5da024f99db011a60c743680a026ab4afe0605f3a34e3f14aa470f0a081406ba0ecec0c85438840dace921edcc808080808080a0e2c3cdc1a3b1b71eb79d206f4b927f0b3f19bceb91910cd7d463cf219da42e8c80a0c251e3cc9bdff94d043bb475cc7739782015f9f6c3cc4ce8dc4f1273a7fdda8480",
    "26ab4afe0605f3a34e3f14aa470f0a081406ba0ecec0c85438840dace921edcc": "e2a02013dffd80ba7541d4ea05a3202a3f515d93c4b983db32843fbe26e885c3d90013",
    "4368b99d068d9c341d2231f0dcf8bc69dbf4924b9064d9a46e2f8a3e0e7e08e8": "e2a032a0fc0df1b679f3afe38c632fecf8d8d1945e3c27d5102dd1a69d36fa20d9991f",
    "439ddc61a885226442f104918a1a7cf0c034d10c65801fcba2ef37fc1a10c4e0": "e2a02002d3b6b12d4463d21f1670be290f261bc491d2d9b9e976b22f9b055a686fc30b",
    "974431e5163fb0923a1f74ed25901bf8a6fc6f525a5da024f99db011a60c7436": "e2a020ed2d5022c396100ccbda68a9ebe2f88eb0baceb11c3814c72007df04a25cd40d",
    "9877b4e9b36a2d77aed5ab4a37c1bd9784522f77c06436e053fbccaa63e51424": "e2a0203d5b5d1ad3248ad60cb3f5e40865a0ef3de45e8d6b158ee7bc0cf66fce1d8111",
    "9c9502387350dd7e4af260031aa1ee8ee347178853c34fd0322022f75ea93925": "f851808080808080808080a060431af0a20dc00537e1c2984fb7d8373bc225af362b1fafa76da50c5b76cf718080808080a0fb3bb6f504e28c6d8a0fb3f8d01ce802bf775fa6d657eede63587e8df976002a80",
    "9ee3a6c156b4be7d5f99694305367fab9de04aab45c98e30f86a7f03b4d3a686": "e2a03d0aad4737cb7cafd64eb2d8729fc798ec795e82dcf0cb2d9c6141a3907371b117",
    "aab601d06827bc0b472e417b23874f9d32932e93d392872f57e4be0673061d4b": "f8518080808080a0439ddc61a885226442f104918a1a7cf0c034d10c65801fcba2ef37fc1a10c4e0a02448fd7856d200759e9cfe64f2a682f91613cf51914fdc613526ea15ace78c6b80808080808080808080",
    "b0ce06bf11d02ae0f1dbb90f47a4d2059386931f23f6258d441fde95439959b5": "f851a09877b4e9b36a2d77aed5ab4a37c1bd9784522f77c06436e053fbccaa63e51424808080a0b2c13d19d918c7e33db2e3388d622eafb7f4beea3b01a7f54501325f4ce8b74b808080808080808080808080",
    "b2c13d19d918c7e33db2e3388d622eafb7f4beea3b01a7f54501325f4ce8b74b": "e2a0202ac0009080797e405e6f386cb815e37985f1bb7e1fa0a9b688c4e50694e9af1d",
    "c251e3cc9bdff94d043bb475cc7739782015f9f6c3cc4ce8dc4f1273a7fdda84": "e2a020ef4bf8f63cf9dd467136c679c02b5c17fcf6322d9562512bf5eb952cf7cc5303",
    "d9253813d06a1ff60df1fe9552e36f895fafb20ddaa202bad4e2d7d215d55178": "f90171a03179bf76ec025a6e74e6d1b5a132ded7f98c8ddaddd2e5698cf4ac4c9bdef9a9a09ee3a6c156b4be7d5f99694305367fab9de04aab45c98e30f86a7f03b4d3a686a09c9502387350dd7e4af260031aa1ee8ee347178853c34fd0322022f75ea93925808080a0aab601d06827bc0b472e417b23874f9d32932e93d392872f57e4be0673061d4ba0034ea9dc11d7e437dc239d233fbd9df8f37123727dd662fde29f214644516ab5a0b0ce06bf11d02ae0f1dbb90f47a4d2059386931f23f6258d441fde95439959b5a08a2923de40c6a7cc1baf39b0ff5dabb5a1915421648bff8a690d78485ccf305d80a0233363542eb25b75885e4d4b1d1878e9d558bfd1962fa476dd1e56dfaed530b3a0f5a3be404ce24abe8da1f04544407c72f9f9956d1772a4448f7e04fb0ce4b194a0f8e1375e83a0f9c9041ca6271a0584edb394f07fe9d9b65bf334e215ddc7013580a04368b99d068d9c341d2231f0dcf8bc69dbf4924b9064d9a46e2f8a3e0e7e08e880",
    "e2c3cdc1a3b1b71eb79d206f4b927f0b3f19bceb91910cd7d463cf219da42e8c": "e2a0202944a272ac5bae96b5bd2f67b6c13276d541dc09eb1cf414d96b19a09e1c2f02",
    "f8e1375e83a0f9c9041ca6271a0584edb394f07fe9d9b65bf334e215ddc70135": "e2a0370731c4fc4bf9cd8fc2be4d898bd67fd357eb0135035bf4500364b4c42c4fa505",
    "fb3bb6f504e28c6d8a0fb3f8d01ce802bf775fa6d657eede63587e8df976002a": "e2a020c7941cecc943bf2000c5d7068f2b8c8e9a29be62acd583fe9e6e90489a8c8207"
  },
  "parentStateRoot": "0x1f8bb060e70505377e3a5a21c682d9443f80206418ca7ce9b99fc8d7e50193f5",
  "transactionTraces": [
    {
      "txn": "0x02f8938207d182155884b2d05e0084b2d05e0e8303405494c3f3338ed0fd9c2013bd26c6b4da337858a486a880a4786727d40000000000000000000000000000000000000000000000000000000000000040c080a01f3b9740242895dfa23485fd75898767a4915d64d1eacf3df328523fe2cd885aa0767b5162014aae5147973e8c04615361ba22dea993e01c92a9c1fee6d6c0ffc5",
      "delta": {
        "0x0000000000000000000000000000000000000000": {
          "address": "0x0000000000000000000000000000000000000000",
          "read": true
        },
        "0x70A0bb66cF004D0FbdB6880Db1E283871cF13D27": {
          "address": "0x70A0bb66cF004D0FbdB6880Db1E283871cF13D27",
          "read": true
        },
        "0x85dA99c8a7C2C95964c8EfD687E95E632Fc533D6": {
          "address": "0x85dA99c8a7C2C95964c8EfD687E95E632Fc533D6",
          "nonce": 5465,
          "read": true
        },
        "0xC3f3338ed0fd9C2013bd26c6b4DA337858A486a8": {
          "address": "0xC3f3338ed0fd9C2013bd26c6b4DA337858A486a8",
          "storage": {
            "0x0353061a88c0592f32d7468be32ff6e5e91e49a3ea3ffb3c4fbe417c36501ba2": "0x0000000000000000000000000000000000000000000000000000000000000035",
            "0x20de3dd312970f46a1d560f6c70f0e5bd10e638b9bb3836368f28838c607ea3e": "0x000000000000000000000000000000000000000000000000000000000000002f",
            "0x328b8e687a0a963892a735f0237cb763bbbbf8ba0c1dfe2c221debb32c4bbd89": "0x000000000000000000000000000000000000000000000000000000000000003b",
            "0xa4e0f4432e44d027a7b3f953940f096bca7a9bd910297cad2ba7c703c2b799d3": "0x000000000000000000000000000000000000000000000000000000000000003d",
            "0xab9952baf6478d8cfb7253ce86a6c53a7b7549582c76210b1581ae682b7e556f": "0x0000000000000000000000000000000000000000000000000000000000000025",
            "0xbd814762a7e35d5c162a7570d14baa68bd622cabb1ad83d40dd70f8a88aa67c0": "0x0000000000000000000000000000000000000000000000000000000000000029",
            "0xeb5d92aa5b18af35c2d0c0d14a538792cf1a66aa06ab9dae49d32446e9063ca1": "0x000000000000000000000000000000000000000000000000000000000000002b"
          },
          "storage_read": {
            "0x0353061a88c0592f32d7468be32ff6e5e91e49a3ea3ffb3c4fbe417c36501ba2": {},
            "0x20de3dd312970f46a1d560f6c70f0e5bd10e638b9bb3836368f28838c607ea3e": {},
            "0x328b8e687a0a963892a735f0237cb763bbbbf8ba0c1dfe2c221debb32c4bbd89": {},
            "0x3a5ea591190eeb3f8fcdced843c78df04ec0dfd42f5510375207515664fa0a75": {},
            "0x59dd4b18488d12f51eda69757a0ed42a2010c14b564330cc74a06895e60c077b": {},
            "0x679795a0195a1b76cdebb7c51d74e058aee92919b8c3389af86ef24535e8a28c": {},
            "0x88601476d11616a71c5be67555bd1dff4b1cbf21533d2669b768b61518cfe1c3": {},
            "0xa4e0f4432e44d027a7b3f953940f096bca7a9bd910297cad2ba7c703c2b799d3": {},
            "0xab9952baf6478d8cfb7253ce86a6c53a7b7549582c76210b1581ae682b7e556f": {},
            "0xac33ff75c19e70fe83507db0d683fd3465c996598dc972688b7ace676c89077b": {},
            "0xacd8ef244210bb6898e73c48bf820ed8ecc857a3bab8d79c10e4fa92b1e9ca65": {},
            "0xb98b78633099fa36ed8b8680c4f8092689e1e04080eb9cbb077ca38a14d7e384": {},
            "0xbd814762a7e35d5c162a7570d14baa68bd622cabb1ad83d40dd70f8a88aa67c0": {},
            "0xd3604db978f6137b0d18816b77b2ce810487a3af08a922e0b184963be5f3adfc": {},
            "0xe90b7bceb6e7df5418fb78d8ee546e97c83a08bbccc01a0644d599ccd2a7c2e0": {},
            "0xeb5d92aa5b18af35c2d0c0d14a538792cf1a66aa06ab9dae49d32446e9063ca1": {},
            "0xee60d0579bcffd98e668647d59fec1ff86a7fb340ce572e844f234ae73a6918f": {},
            "0xf85cc6ffc513dc6cf7d199ef87b7a63cf9defe62251c1c247cd12f1eec7bff29": {}
          },
          "code_read": "YIBgQFJgBDYQYQDzV2AANWDgHIBjdj78CBFhAIpXgGOyrNUJEWEAWVeAY7Ks1QkUYQKEV4BjyqJgMhRhAqRXgGPOGxk6FGEC0VeAY+yLRmoUYQLkV2AAgP1bgGN2PvwIFGECGleAY3hnJ9QUYQIvV4BjfZR5KhRhAk9XgGOumNsvFGECb1dgAID9W4BjQgt9rhFhAMZXgGNCC32uFGEBlFeAY0hJ8nkUYQHDV4BjSdPWBRRhAfBXgGNX/BCjFGECBVdgAID9W4BjAxO/hhRhAPhXgGMUWwVjFGEBI1eAYxoP580UYQFFV4BjMUjxTxRhAXRXW2AAgP1bNIAVYQEEV2AAgP1bUGEBDWACgVZbYEBRYQEakZBhHlxWW2BAUYCRA5DzWzSAFWEBL1dgAID9W1BhAThhAwRWW2BAUWEBGpGQYR5/Vls0gBVhAVFXYACA/VtQYQENYQFgNmAEYR6oVltgAmAgUoBgAFJgQGAAIFSQUIFWWzSAFWEBgFdgAID9W1BhAQ1hAY82YARhHtFWW2EDYFZbNIAVYQGgV2AAgP1bUGEBDWEBrzZgBGEeqFZbYAFgIFKAYABSYEBgACBUkFCBVls0gBVhAc9XYACA/VtQYQHjYQHeNmAEYR8hVlthA65WW2BAUWEBGpGQYR/NVls0gBVhAfxXYACA/VtQYQENYASBVls0gBVhAhFXYACA/VtQYQENYAiBVls0gBVhAiZXYACA/VtQYQENYAGBVls0gBVhAjtXYACA/VtQYQENYQJKNmAEYR6oVlthA/dWWzSAFWECW1dgAID9W1BgAFRhATiQYAFgAWBAGwMWgVZbNIAVYQJ7V2AAgP1bUGEBDWAQgVZbNIAVYQKQV2AAgP1bUGEBDWECnzZgBGEg2FZbYQW2Vls0gBVhArBXYACA/VtQYQLEYQK/NmAEYSDYVlthBfZWW2BAUWEBGpGQYSFuVlthAQ1hAt82YARhIbdWW2EGX1ZbNIAVYQLwV2AAgP1bUGEB42EC/zZgBGEe0VZbYR2zVltgAIBUY4AAAACQYQMlkGABYAFgQBsDFmNBxk5tYSICVlthAzGQYTA5YSIoVlthAzuRkGEiYVZbYACAVGf//////////xkWYAFgAWBAGwOSkJIWkYIXkFWRkFBWW2AAYEBRYCCBUmAggIIBUmAgYECCAVKEYGCCAVKDYICCAVKCYKCCAVJgwFFgIIFgwIRgAGAFYAAZ8WEDoldgAID9W4BRlpVQUFBQUFBWW2EDtmEd9FZbYQO+YR4PVluFgVJgIIEBhZBSYECAggGFkFJgYIIBhJBSgmCAg2AAYAZa8YCAYQPsV2AAgP1bUFBQlJNQUFBQVltgAIBhBAWDYAFhIqRWW2ABYAFgQBsDgREVYQQcV2EEHGEf21ZbYEBRkICCUoBgIAJgIAGCAWBAUoAVYQRFV4FgIAFgIIICgDaDNwGQUFtQkFBgAluDgRFhBIhXYAGCgoFRgRBhBGZXYQRmYSKOVluRFRVgIJKDApGQkQGQkQFSgGEEgIFhIrdWW5FQUGEES1ZbUGACW4NhBJeCgGEi0VZbEWEFGleBgYFRgRBhBK5XYQSuYSKOVltgIAJgIAEBURVhBQhXYABhBMeCgGEi0VZbkFBbhIERYQUGV2AAg4KBUYEQYQTlV2EE5WEijlZbkRUVYCCSgwKRkJEBkJEBUmEE/4KCYSKkVluQUGEEylZbUFuAYQUSgWEit1ZbkVBQYQSMVltQYABgAluEgRFhBXdXgoGBUYEQYQU5V2EFOWEijlZbYCACYCABAVEVYQVlV2AAgoFSYAJgIFKBkGBAkCBVgWEFYYFhIrdWW5JQUFuAYQVvgWEit1ZbkVBQYQUgVltQf+zwpdpXWAMVtcMvOdCGnL7XJUZYZQcSbHalJ//3VG8DgWBAUWEFp5GQYR5cVltgQFGAkQOQoZOSUFBQVltgAICCUZBQYQXIYMCCYSLpVlsVYQXSV2AAgP1bYEBRYCCBg2AghwFgAGAIWvGAgBVhAPNXglGWlVBQUFBQUFZbYGBgAIJRYAFgAWBAGwOBERVhBhNXYQYTYR/bVltgQFGBgVJgHxlgH4MBFoEBYCABYEBSkIAVYQY9V2AgggGBgDaDNwGQUFtQkFCCUYBgIIMBgmAghwFgAGAEWvFhBlhX/ltQkpFQUFZbYACAVGf//////////xkWYAFgAWBAGwOFFheBVX/D0GEUXGeAqnWxVxhxvdb5k3LGBDTzPYr6VAnvXHJjOoRgQFFhBqqRkGEef1ZbYEBRgJEDkKFgAIBgAIBgAIBgAIBgAGBAUWBAUYCRA5CgYABbjGP/////FoFj/////xYQFWEcwldhBuphAwRWW2ABYAFgQBsDFplQYQb9YQMEVltgAWABYEAbAxaYUGEHEomLYSKkVltgQFFgIAFhByKRkGEi+lZbYEBRYCCBgwMDgVKQYEBSgFGQYCABIJVQYQdCYQMEVltgAWABYEAbAxaZUGEHVWEDBFZbYAFgAWBAGwMWmFCFYQdrioxhItFWW2BAUWAgAWEHfJKRkGEjD1ZbYEBRYCCBgwMDgVKQYEBSgFGQYCABIJVQYQecYQMEVltgAWABYEAbAxaZUGEHr2EDBFZbYAFgAWBAGwMWmFCFiYsDYEBRYCABYQfPkpGQYSMPVltgQFFgIIGDAwOBUpBgQFKAUZBgIAEglVBZmVCFimBAUWAgAWEH/ZKRkGEjD1ZbYEBRYCCBgwMDgVKQYEBSgFGQYCABIJVQOJlQhYpgQFFgIAFhCCuSkZBhIw9WW2BAUWAggYMDA4FSkGBAUoBRkGAgASCVUGEIS2EDBFZbYAFgAWBAGwMWmVBhCF5hAwRWW2ABYAFgQBsDFphQhWEIdIqMYSM1VltgQFFgIAFhCIWSkZBhIw9WW2BAUWAggYMDA4FSkGBAUoBRkGAgASCVUGEIpWEDBFZbYAFgAWBAGwMWmVBhCLhhAwRWW2ABYAFgQBsDFphQhWEI0IpgABlhI0lWW2EI2pCMYSN6VltgQFFgIAFhCOuSkZBhIw9WW2BAUWAggYMDA4FSkGBAUoBRkGAgASCVUGEJC2EDBFZbYAFgAWBAGwMWmVBhCR5hAwRWW2ABYAFgQBsDFphQhWEJNIqMYSLpVltgQFFgIAFhCUWSkZBhIw9WW2BAUWAggYMDA4FSkGBAUoBRkGAgASCVUGEJZWEDBFZbYAFgAWBAGwMWmVBhCXhhAwRWW2ABYAFgQBsDFphQhWEJkIpgABlhI0lWW2EJmpCMYSOoVltgQFFgIAFhCauSkZBhIw9WW2BAUWAggYMDA4FSkGBAUoBRkGAgASCVUGEJy2EDBFZbYAFgAWBAGwMWmVBhCd5hAwRWW2ABYAFgQBsDFphQYQnxYQMEVltgAWABYEAbAxaXUIWIgGEKC1dhCgthIktWW4qMCGBAUWAgAWEKH5KRkGEjD1ZbYEBRYCCBgwMDgVKQYEBSgFGQYCABIJVQYQo/YQMEVltgAWABYEAbAxaZUGEKUmEDBFZbYAFgAWBAGwMWmFBhCmVhAwRWW2ABYAFgQBsDFpdQhYiAYQp/V2EKf2EiS1ZbiowJYEBRYCABYQqTkpGQYSMPVltgQFFgIIGDAwOBUpBgQFKAUZBgIAEglVBhCrNhAwRWW2ABYAFgQBsDFplQYQrGYQMEVltgAWABYEAbAxaYUIWJiwpgQFFgIAFhCuaSkZBhIw9WW2BAUWAggYMDA4FSkGBAUoBRkGAgASCVUGELBmEDBFZbYAFgAWBAGwMWmVCFimADC2BAUWAgAWELJ5KRkGEjD1ZbYEBRYCCBgwMDgVKQYEBSgFGQYCABIJVQYQtHYQMEVltgAWABYEAbAxaZUGELWmEDBFZbYAFgAWBAGwMWmFCFiYsQYQtzV4lhC3VWW4pbYEBRYCABYQuGkpGQYSMPVltgQFFgIIGDAwOBUpBgQFKAUZBgIAEglVBhC6ZhAwRWW2ABYAFgQBsDFplQYQu5YQMEVltgAWABYEAbAxaYUIWJixFhC9JXiWEL1FZbiltgQFFgIAFhC+WSkZBhIw9WW2BAUWAggYMDA4FSkGBAUoBRkGAgASCVUGEMBWEDBFZbYAFgAWBAGwMWmVBhDBhhAwRWW2ABYAFgQBsDFphQhYmLEmEMMVeJYQwzVluKW2BAUWAgAWEMRJKRkGEjD1ZbYEBRYCCBgwMDgVKQYEBSgFGQYCABIJVQYQxkYQMEVltgAWABYEAbAxaZUGEMd2EDBFZbYAFgAWBAGwMWmFCFiYsTYQyQV4lhDJJWW4pbYEBRYCABYQyjkpGQYSMPVltgQFFgIIGDAwOBUpBgQFKAUZBgIAEglVBhDMNhAwRWW2ABYAFgQBsDFplQYQzWYQMEVltgAWABYEAbAxaYUIWJixRhDO9XiWEM8VZbiltgQFFgIAFhDQKSkZBhIw9WW2BAUWAggYMDA4FSkGBAUoBRkGAgASCVUGENImEDBFZbYAFgAWBAGwMWmVBhDTVhAwRWW2ABYAFgQBsDFphQhYoVYQ1NV4lhDU9WW4pbYEBRYCABYQ1gkpGQYSMPVltgQFFgIIGDAwOBUpBgQFKAUZBgIAEglVBhDYBhAwRWW2ABYAFgQBsDFplQYQ2TYQMEVltgAWABYEAbAxaYUIWJixZgQFFgIAFhDbOSkZBhIw9WW2BAUWAggYMDA4FSkGBAUoBRkGAgASCVUGEN02EDBFZbYAFgAWBAGwMWmVBhDeZhAwRWW2ABYAFgQBsDFphQhYmLF2BAUWAgAWEOBpKRkGEjD1ZbYEBRYCCBgwMDgVKQYEBSgFGQYCABIJVQYQ4mYQMEVltgAWABYEAbAxaZUGEOOWEDBFZbYAFgAWBAGwMWmFCFiYsYYEBRYCABYQ5ZkpGQYSMPVltgQFFgIIGDAwOBUpBgQFKAUZBgIAEglVBhDnlhAwRWW2ABYAFgQBsDFplQhYoZYEBRYCABYQ6YkpGQYSMPVltgQFFgIIGDAwOBUpBgQFKAUZBgIAEglVCFgGAAGmD4G2BAUWAgAWEOyZKRkGEjzFZbYEBRYCCBgwMDgVKQYEBSgFGQYCABIJVQYQ7pYQMEVltgAWABYEAbAxaZUIVgAYuQG2BAUWAgAWEPC5KRkGEjD1ZbYEBRYCCBgwMDgVKQYEBSgFGQYCABIJVQYQ8rYQMEVltgAWABYEAbAxaZUIVgAYuQHGBAUWAgAWEPTZKRkGEjD1ZbYEBRYCCBgwMDgVKQYEBSgFGQYCABIJVQYQ9tYQMEVltgAWABYEAbAxaZUIVgAYuQHWBAUWAgAWEPj5KRkGEjD1ZbYEBRYCCBgwMDgVKQYEBSgFGQYCABIJVQhZRQhDBgQFFgIAFhD72SkZBhJCtWW2BAUWAggYMDA4FSkGBAUoBRkGAgASCVUIUwgDtgIIEBYEBRkIEBYEBSgYFSYACQgGAgAZCTPGBAUWAgAWEQBJKRkGEkeVZbYEBRYCCBgwMDgVKQYEBSgFGQYCABIJVQhTA/YEBRYCABYRAwkpGQYSMPVltgQFFgIIGDAwOBUpBgQFKAUZBgIAEglVCFYAAxYEBRYCABYRBdkpGQYSMPVltgQFFgIIGDAwOBUpBgQFKAUZBgIAEglVCFR2BAUWAgAWEQiJKRkGEjD1ZbYEBRYCCBgwMDgVKQYEBSgFGQYCABIJVQhVpgQFFgIAFhELOSkZBhIw9WW2BAUWAggYMDA4FSkGBAUoBRkGAgASCVUGABgI0WA2ERLFeFMmBAUWAgAWEQ6JKRkGEkK1ZbYEBRYCCBgwMDgVKQYEBSgFGQYCABIJVQhTpgQFFgIAFhEROSkZBhIw9WW2BAUWAggYMDA4FSkGBAUoBRkGAgASCVUFuFk1BgARlgAo0WAWER91eFM2BAUWAgAWERTpKRkGEkK1ZbYEBRYCCBgwMDgVKQYEBSgFGQYCABIJVQhWAANmBAUWAgAWERfJOSkZBhJKhWW2BAUWAggYMDA4FSkGBAUoBRkGAgASCVUIVgADVgAWABYOAbAxkWYEBRYCABYRGzkpGQYSTeVltgQFFgIIGDAwOBUpBgQFKAUZBgIAEglVCFNGBAUWAgAWER3pKRkGEjD1ZbYEBRYCCBgwMDgVKQYEBSgFGQYCABIJVQW4WSUGADGWAEjRYBYRNgV4VDQGBAUWAgAWESGpKRkGEjD1ZbYEBRYCCBgwMDgVKQYEBSgFGQYCABIJVQhUhgQFFgIAFhEkWSkZBhIw9WW2BAUWAggYMDA4FSkGBAUoBRkGAgASCVUIVGYEBRYCABYRJwkpGQYSMPVltgQFFgIIGDAwOBUpBgQFKAUZBgIAEglVCFQWBAUWAgAWESm5KRkGEkK1ZbYEBRYCCBgwMDgVKQYEBSgFGQYCABIJVQhURgQFFgIAFhEsaSkZBhIw9WW2BAUWAggYMDA4FSkGBAUoBRkGAgASCVUIVFYEBRYCABYRLxkpGQYSMPVltgQFFgIIGDAwOBUpBgQFKAUZBgIAEglVCFQ2BAUWAgAWETHJKRkGEjD1ZbYEBRYCCBgwMDgVKQYEBSgFGQYCABIJVQhUJgQFFgIAFhE0eSkZBhIw9WW2BAUWAggYMDA4FSkGBAUoBRkGAgASCVUFuFkVBgBxlgCI0WAWEY/ldhE3dhAwRWW2ABYAFgQBsDFplQYABgQFFhE5CQYR4rVltgQFGAkQOQYADwgBWAFWETrFc9YACAPj1gAP1bUJBQYACLYEBRYRO+kGEeK1ZbgZBgQFGAkQOQYAD1kFCAFYAVYRPeVz1gAIA+PWAA/VtQkFCAYAFgAWCgGwMWY+20VSkzYEBRgmP/////FmDgG4FSYAQBYRQNkZBhJQ1WW2AAYEBRgIMDgWAAh4A7FYAVYRQnV2AAgP1bUFrxFYAVYRQ7Vz1gAIA+PWAA/VtQUFBQgWABYAFgoBsDFmPQneCKYEBRgWP/////FmDgG4FSYAQBYCBgQFGAgwOBYACHWvEVgBVhFH9XPWAAgD49YAD9W1BQUFBgQFFgHz2QgQFgHxkWggFgQFJhFKKRkIEBkGElKlZbm1CHjGBAUWAgAWEUt5KRkGEjD1ZbYEBRYCCBgwMDgVKQYEBSgFGQYCABIJdQgWABYAFgoBsDFmMu/DzuYEBRgWP/////FmDgG4FSYAQBYABgQFGAgwOBYACHgDsVgBVhFQpXYACA/VtQWvGSUFBQgBVhFRtXUGABW2EVUVc9gIAVYRVJV2BAUT1gPwFgHxkWgQFgQFI9gVKRUD1gAGAghAE+YRVOVltgYJFQW1BQW4eCYAFgAWCgGwMWgDuAYCABYEBRkIEBYEBSgYFSYACQgGAgAZCTPGBAUWAgAWEViZKRkGEkeVZbYEBRYCCBgwMDgVKQYEBSgFGQYCABIJdQh4JgAWABYKAbAxY/YEBRYCABYRW+kpGQYSMPVltgQFFgIIGDAwOBUpBgQFKAUZBgIAEgl1CBYAFgAWCgGwMWYcNQYEBRYCQBYEBRYB8ZgYMDAYFSYECRkJFSY2hO8EVg4RtgIIIBgFFgAWABYOAbAxaQkReQUmBAUWEWJJGQYSVLVltgAGBAUYCDA4FgAIeH8ZJQUFA9gGAAgRRhFmJXYEBRPWA/AWAfGRaBAWBAUj2BUpFQPWAAYCCEAT5hFmdWW2BgkVBbUGAEYABgA2EWeISCYSZGVltQgVRg/2EBAJKQkgqCgQIZkJEWlBUVApOQkxeQVVBgBFSJkRZgA2BAUWAgAWEWsJOSkZBhJ8JWW2BAUWAggYMDA4FSkGBAUoBRkGAgASCXUIFgAWABYKAbAxZhw1BgQFFgJAFgQFFgHxmBgwMBgVJgQJGQkVJjaE7wRWDhG2AgggGAUWABYAFg4BsDFpCRF5BSYEBRYRcWkZBhJUtWW2AAYEBRgIMDgYaG9JJQUFA9gGAAgRRhF1JXYEBRPWA/AWAfGRaBAWBAUj2BUpFQPWAAYCCEAT5hF1dWW2BgkVBbUGAEYABgA2EXaISCYSZGVltQgVRg/2EBAJKQkgqCgQIZkJEWlBUVApOQkxeQVVBgBFSJkRZgA2BAUWAgAWEXoJOSkZBhJ8JWW2BAUWAggYMDA4FSkGBAUoBRkGAgASCXUIFgAWABYKAbAxZhw1BgQFFgJAFgQFFgHxmBgwMBgVJgQJGQkVJjaE7wRWDhG2AgggGAUWABYAFg4BsDFpCRF5BSYEBRYRgGkZBhJUtWW2AAYEBRgIMDgYaG+pJQUFA9gGAAgRRhGEJXYEBRPWA/AWAfGRaBAWBAUj2BUpFQPWAAYCCEAT5hGEdWW2BgkVBbUGAEYABgA2EYWISCYSZGVltQgVRg/2EBAJKQkgqCgQIZkJEWlBUVApOQkxeQVVBgBFSJkRZgA2BAUWAgAWEYkJOSkZBhJ8JWW2BAUWAggYMDA4FSkGBAUoBRkGAgASCXUIFgAWABYKAbAxZjB9po9WBAUYFj/////xZg4BuBUmAEAWAAYEBRgIMDgWAAh4A7FYAVYRjjV2AAgP1bUFrxFYAVYRj3Vz1gAIA+PWAA/VtQUFBQUFBbYBCAjRYDYRywV2EZEGEDBFZbYAFgAWBAGwMWmVBhGSNhAwRWW2ABYAFgQBsDFphQYRk2YQMEVltgAWABYEAbAxaXUGAAYAGBjIyMYEBRYACBUmAgAWBAUmBAUWEZZpSTkpGQYSf3VltgIGBAUWAggQOQgIQDkIVa+hWAFWEZiFc9YACAPj1gAP1bUFBQYCBgQFEDUZBQhoFgQFFgIAFhGaeSkZBhJCtWW2BAUWAggYMDA4FSkGBAUoBRkGAgASCWUGEZx2EDBFZbYAFgAWBAGwMWmlCGYAKMYEBRYCABYRnmkZBhIvpWW2BAUWAggYMDA4FSkGBAUmBAUWEaApGQYSVLVltgIGBAUYCDA4GFWvoVgBVhGh9XPWAAgD49YAD9W1BQUGBAUWAfPZCBAWAfGRaCAWBAUmEaQZGQgQGQYSUqVltgQFFgIAFhGlKSkZBhIw9WW2BAUWAggYMDA4FSkGBAUoBRkGAgASCWUGEacmEDBFZbYAFgAWBAGwMWmlCGYAOMYEBRYCABYRqRkZBhIvpWW2BAUWAggYMDA4FSkGBAUmBAUWEarZGQYSVLVltgIGBAUYCDA4GFWvoVgBVhGspXPWAAgD49YAD9W1BQUGBAUVFgYBtgQFFgIAFhGuWSkZBhKEFWW2BAUWAggYMDA4FSkGBAUoBRkGAgASCWUGEbBWEDBFZbYAFgAWBAGwMWmlCGYRs5jGBAUWAgAWEbJZGQYR5cVltgQFFgIIGDAwOBUpBgQFJhBfZWW2BAUWAgAWEbSpKRkGEkeVZbYEBRYCCBgwMDgVKQYEBSgFGQYCABIJZQYRtqYQMEVltgAWABYEAbAxaaUGEbfWEDBFZbYAFgAWBAGwMWmVCGYRuVjGAYjWEDYFZbYEBRYCABYRumkpGQYSMPVltgQFFgIIGDAwOBUpBgQFKAUZBgIAEgllBhG8ZhAwRWW2ABYAFgQBsDFppQYRvZYQMEVltgAWABYEAbAxaZUGEb7GEDBFZbYAFgAWBAGwMWmFBhG/9hAwRWW2ABYAFgQBsDFpdQhmEcF4yMjIxhA65WW2BAUWAgAWEcKJKRkGEoiVZbYEBRYCCBgwMDgVKQYEBSgFGQYCABIJZQYRxIYQMEVltgAWABYEAbAxaaUGEcW2EDBFZbYAFgAWBAGwMWmVBhHG5hAwRWW2ABYAFgQBsDFphQhmEchYyMjGEds1ZbYEBRYCABYRyWkpGQYSiJVltgQFFgIIGDAwOBUpBgQFKAUZBgIAEgllBQW2Ecu4FgAWEor1ZbkFBhBs5WW1CDf0N4mzDkxtU+JzXlcBIHsFKbLMIpsbsCuWkdOeohjafXYEBRYEBRgJEDkKKChH8suGCGvHYQeC/IYGumiADNIbLPW9nZ+AE5AZBab/TqXWBAUWBAUYCRA5CjgYOFf5SiJFDqcSbVtI84Ie8JxycgeS0lvCYOxFogIhOAVnldYEBRYEBRgJEDkKSBg4V/jzEU4AC5T6aYyrPDiWkAf/RtXYCpRdzedlNysdE4P1KEYEBRYR1/kZBhHlxWW2BAUYCRA5CkYAFgAWBAGwONFmAAkIFSYAFgIFKFkGBAkCBVUJKbmlBQUFBQUFBQUFBQVlthHbthHfRWW2Edw2EeOFZbhIFSYCCBAYSQUmBAgIIBhJBSgmBgg2AAYAda8YCAYR3qV2AAgP1bUFBQk5JQUFBWW2BAUWBAgIIBgVJgApCCkIA2gzdQkZKRUFBWW2BAUWCAgIIBYEBSYASQgpCANoM3UJGSkVBQVlthAj2AYSjQgzkBkFZbYEBRYGCAggFgQFJgA5CCkIA2gzdQkZKRUFBWW4BbglJQUFZbYCCBAWEeaoKEYR5UVluSkVBQVltgAWABYEAbA4EWYR5WVltgIIEBYR5qgoRhHnBWW4BbgRRhHppXYACA/VtQVluANWEeaoFhHo1WW2AAYCCChAMSFWEevVdhHr1gAID9W2AAYR7JhIRhHp1WW5STUFBQUFZbYACAYABgYISGAxIVYR7pV2Ee6WAAgP1bYABhHvWGhmEenVZbk1BQYCBhHwaGgocBYR6dVluSUFBgQGEfF4aChwFhHp1WW5FQUJJQklCSVltgAIBgAIBggIWHAxIVYR86V2EfOmAAgP1bYABhH0aHh2EenVZblFBQYCBhH1eHgogBYR6dVluTUFBgQGEfaIeCiAFhHp1WW5JQUGBgYR95h4KIAWEenVZbkVBQkpWRlFCSUFZbYABhH5GDg2EeVFZbUFBgIAGQVltgAoGAYABbg4EQFWEfxVeBUWEftIeCYR+FVluWUGAggwGSUFBgAQFhH6BWW1BQUFBQUFZbYECBAWEeaoKEYR+ZVltjTkh7cWDgG2AAUmBBYARSYCRgAP1bYB8ZYB+DARaBAYGBEGABYAFgQBsDghEXFWEgFldhIBZhH9tWW2BAUlBQVltgAGEgLGAAYEBRkFCQVluQUGEgOIKCYR/xVluRkFBWW2AAYAFgAWBAGwOCERVhIFZXYSBWYR/bVltgHxlgH4MBFmAgAZKRUFBWW4KBgzdQYACRAVJWW2AAYSCGYSCBhGEgPVZbYSAdVluQUIKBUmAggQGEhIQBERVhIKFXYSChYACA/VthIKyEgoVhIGdWW1CTklBQUFZbYACCYB+DARJhIMhXYSDIYACA/VuBNWEeyYSCYCCGAWEgc1ZbYABgIIKEAxIVYSDtV2Eg7WAAgP1bgTVgAWABYEAbA4ERFWEhBldhIQZgAID9W2EeyYSChQFhILRWW2AAW4OBEBVhIS1XgIIBUYOCAVJgIAFhIRVWW1BQYACRAVJWW2AAYSFGgmAAgVGSkVBQVluAhFJgIIQBk1BhIV2BhWAghgFhIRJWW2AfAWAfGRaSkJIBkpFQUFZbYCCAglKBAWEhf4GEYSE2VluTklBQUFZbYAFgAWBAGwOBFmEej1ZbgDVhHmqBYSGGVltj/////4EWYR6PVluANWEeaoFhIaBWW2AAgGAAYGCEhgMSFWEhz1dhIc9gAID9W2AAYSHbhoZhIZVWW5NQUGAgYR8GhoKHAWEhrFZbY05Ie3Fg4BtgAFJgEWAEUmAkYAD9W2ABYAFgQBsDkYIWkZCBFpCCggKQgRaQgYEUYQZYV2EGWGEh7FZbYAFgAWBAGwORghaRkIEWkIKCAZCBERVhHmpXYR5qYSHsVltjTkh7cWDgG2AAUmASYARSYCRgAP1bYABgAWABYEAbA4IWkVBgAWABYEAbA4MWW5JQgmEiiVdhIolhIktWW1AGkFZbY05Ie3Fg4BtgAFJgMmAEUmAkYAD9W4CCAYCCERVhHmpXYR5qYSHsVltgAGAAGYIDYSLKV2EiymEh7FZbUGABAZBWW4GBAoCCFYOCBIUUF2EGWFdhBlhhIexWW2AAgmEielZbgGEeVlZbkFZbYABhIwaChGEi8VZbUGAgAZGQUFZbYABhIxuChWEi8VZbYCCCAZFQYSMrgoRhIvFWW1BgIAGSkVBQVltgAIJhI0RXYSNEYSJLVltQBJBWW4GBAoBgAIMSYAFg/xuFFBYVYSNmV2EjZmEh7FZbgoIFhBSDFRdhBlhXYQZYYSHsVltgAIJhI4lXYSOJYSJLVltgAWD/G4IUYAAZhBQWFWEjo1dhI6NhIexWW1AFkFZbYACCYSO3V2Ejt2EiS1ZbUAeQVltgAWABYPgbAxmBFmEeVlZbYABhI9iChWEi8VZbYCCCAZFQYSPogoRhI7xWW1BgAQGSkVBQVltgAGABYAFgoBsDghZhHmpWW2AAYR5qgmBgG5BWW2AAYR5qgmEkA1ZbYR5WYSQmgmEj8lZbYSQPVltgAGEkN4KFYSLxVltgIIIBkVBhJEeChGEkGlZbUGAUAZKRUFBWW2AAYSRhgmAAgVGSkVBQVlthJG+BhWAghgFhIRJWW5KQkgGSkVBQVltgAGEkhYKFYSLxVltgIIIBkVBhHsmChGEkUVZbYABhJKKDhYRhIGdWW1BQAZBWW2AAYSS0goZhIvFWW2AgggGRUGEkxYKEhmEklVZblZRQUFBQUFZbYAFgAWDgGwMZgRZhHlZWW2AAYSTqgoVhIvFWW2AgggGRUGEk+oKEYSTOVltQYAQBkpFQUFZbYR5WgWEj8lZbYCCBAWEeaoKEYSUEVltgAIFRkFBhHmqBYR6NVltgAGAggoQDEhVhJT9XYSU/YACA/VtgAGEeyYSEYSUbVltgAGEhf4KEYSRRVltjTkh7cWDgG2AAUmAiYARSYCRgAP1bYAKBBGABghaAYSWBV2B/ghaRUFtgIIIQgQNhJZNXYSWTYSVXVltQkZBQVltgAGEeamEi94OBVlthJa6DYSWZVluBVGAAGWAIlJCUApOEGxkWkhuRkJEXkFVQVltgAGEl1oGEhGElpVZbUFBQVluBgRAVYSX2V2El7mAAgmElyVZbYAEBYSXbVltQUFZbYB+CERVhJdZXYSYYgWAAgYFSgZBgIJAgkpFQUFZbYCBgH4UBBIEBYCCFEBVhJi1XUIBbYSY/YCBgH4YBBIMBgmEl21ZbUFBQUFBWW2EmVIJgAIFRkpFQUFZbYAFgAWBAGwOBERVhJmtXYSZrYR/bVlthJnWCVGElbVZbYSaAgoKFYSX6VltgIGAfgxFgAYEUYSa1V2AAhBVhJp1XgocBUZBQW2AAGWAIhgIcGYEWYAKGAheGVVBhH8VWW2AfGYQWYSbPhmAAgYFSgZBgIJAgkpFQUFZbYABbgoEQFWEm8leEiQFRglVgIJSFAZRgAZCSAZEBYSbSVluGgxAVYScOV4SJAVFgABlgH4kWYAgCHBkWglVbYAFgAogCAYhVUFBQUFBQUFBQVltgAGEeaoJg+BuQVltgAGEeaoJhJyJWW2EeVoEVFWEnLlZbYACBVGEnUYFhJW1WW2ABghaAFWEnaFdgAYEUYSd9V2EnuVZbYP8ZgxaGUoEVFYIChgGTUGEnuVZbYSeShWAAgYFSgZBgIJAgkpFQUFZbYABbg4EQFWEnsVeBVIiCAVJgAZCRAZBgIAFhJ5VWW4OIAZVQUFBbUFBQkpFQUFZbYABhJ86ChmEi8VZbYCCCAZFQYSfegoVhJzlWW2ABggGRUGEkxYKEYSdEVltg/4EWYR5WVltggIEBYSgFgodhHlRWW2EoEmAggwGGYSfuVlthKB9gQIMBhWEeVFZbYSTFYGCDAYRhHlRWW2v///////////////8ZgRZhHlZWW2AAYShNgoVhIvFWW2AgggGRUGEkR4KEYSgsVltgAoGAYABbg4EQFWEfxVeBUWEoeIeCYR+FVluWUGAggwGSUFBgAQFhKGRWW2AAYSiVgoVhIvFWW2AgggGRUGEopYKEYShdVltQYEABkpFQUFZbY/////+RghaRkIEWkIKCAZCBERVhHmpXYR5qYSHsVv5ggGBAUjSAFWEAEFdgAID9W1BhAh2AYQAgYAA5YADz/mCAYEBSNIAVYQAQV2AAgP1bUGAENhBhAGJXYAA1YOAcgGMH2mj1FGEAZ1eAYy78PO4UYQBxV4BjP7XByxRhAHlXgGODgfWKFGEAjFeAY9Cd4IoUYQCrV4Bj7bRVKRRhALNXW2AAgP1bYQBvYQDGVlsAW2EAb2EA21ZbYQBvYQCHNmAEYQE8VltgAFVWW2EAlWAAVIFWW2BAUWEAopGQYQFlVltgQFGAkQOQ81thAJVhAPNWW2EAb2EAwTZgBGEBllZbYQEPVltgAIBUkIBhANWDYQHNVluRkFBVAFtgAIBUkIBhAOqDYQHNVluRkFBVYACA/VtgAIBUgYBhAQKDYQHNVluRkFBVUGAAVJBQkFZbgGABYAFgoBsDFv9bgFuBFGEBKFdgAID9W1BWW4A1YQE2gWEBG1ZbkpFQUFZbYABgIIKEAxIVYQFRV2EBUWAAgP1bYABhAV2EhGEBK1ZblJNQUFBQVluBgVJgIIEBYQE2VltgAGABYAFgoBsDghZhATZWW2EBHYFhAXFWW4A1YQE2gWEBglZbYABgIIKEAxIVYQGrV2EBq2AAgP1bYABhAV2EhGEBi1ZbY05Ie3Fg4BtgAFJgEWAEUmAkYAD9W2AAYAAZggNhAeBXYQHgYQG3VltQYAEBkFb+omRpcGZzWCISIJIzhp2aS+/m2FyicHt7gYJSdXcJ0lwV+VhhBZEQriSrZHNvbGNDAAgTADOiZGlwZnNYIhIgZttJvB2S+xvThYM5jtuo0lls0K3IuUFHVZnuBZTSp1Nkc29sY0MACBMAMw==",
          "touched": true,
          "read": true
        }
      }
    }
  ]
}
