{
  "accountTrie": {
    "01fcc149a6e6afa3fef31371172936a72acc00ae629e73e391b7989b1914cf51": "f8518080a0a61debc92f4673fd71efd295e4fa634c53c3399ae594fae4926b2b05c6ce8f6780808080808080a03c6f881bc19560d22c617b35b9910ed20d0a9f519757cca5adf72fdd6fa84bc7808080808080",
    "0898774ab29060c8e1ebca88393ba0342e86bcff5cb7c23c84f62f0fec5729ef": "f8718080a001fcc149a6e6afa3fef31371172936a72acc00ae629e73e391b7989b1914cf518080a00ae1c4ba02676383dae477d0d99593002667249882cdd4469d1d8ddc39a491b7a00a694125e1d64f1116dbd48a397eccc689b388092d3ffcba2fec27efc4282e3480808080808080808080",
    "2d82a606f033fe25d5df1d1d53c8f7b50b61a159628a363c53ba65713a18bb23": "f8918080808080a08d8d5cfa75bc646c9e6347dc2dedd4b9ce4a34d34d066344148525b0cc0cc7e58080a02b552522c790b0433d466408318c5c61bfa7e2dbb9c2e13bfec3d1d51290addd8080808080a0cfc7e193889065caa5e9be1d42a754d0cf02368c8493b37b527180de6c99ddc5a099a6632dc218993740f5b428ad3602ef19498960c916c08326a1b5e6c61af9f280",
    "4376a69f4170729df65697eaf99a8b390eb949bd850d0693a508f381b6096c9a": "f90211a09bd5985e83d92230c8f5e1f163da9b6a14db480ec2597a384ce775e4bbcb9321a0a3b9fd22535c0030749564cb9b9841f04f38861551efdfdb3edd0c238d6221b0a0ff0c725a3b5913d9c885b8dc3813c6643491e11d6f54c5edee6fc39a20bcbe95a04bb4c7cdcdeccf73fe237ac3243854cdbc243bf42d3c7310b243f70ae24e0deba00898774ab29060c8e1ebca88393ba0342e86bcff5cb7c23c84f62f0fec5729efa083eac2cd8ae5d968ed840035e2993bb021207d554df1d735874d3694c0221446a0f820e589d2219ae3f297594cfd731f2ec64d19b1ba0f918369e9b413c126732da04dc086563225b9daca876e1ec0907e4145a1b7085c025ba734ab05b08c62eacea0228ada2f11d5a2bca88f3d87ca344e2c09d7eb66dbc19333b8b0b628adb18c18a0e6e82a109ac4e5daed8f76043d8393d0298472e0518ff96a48b8492e479881fba0f63fdadb3b9b082d271b9a7b386a70c79c32a1d52b616848f7003ebcb2118d2da054cab2921d01b8ab026305874aca3f192ae1af8f0bb0c5d39e381645509e3931a02d82a606f033fe25d5df1d1d53c8f7b50b61a159628a363c53ba65713a18bb23a0d5c3f35b3433034102536147a3dcfd190c7bb81fe37c4801a018ecc677f34deca08333762fcaf7193e048ab228010951a924224adf67ad901b5e98441becfcbbd7a092825616236bb69e7dce9723d0bcf9a7f9da80602dcab4c489d1e8ed8f6b347f80",
    "5446b03c9d029da9ebe18f0fe5f1df0a8a2aebe314ee2738f9fdce85932d6e44": "f8729f30c7b7ae81a58eb98d9c78de4a1fd7fd9535fc953ed2be602daaa41767312ab850f84e808ad3c21bd2b1bb0a19a37da056e81f171bcc55a6ff8345e692c0f86e5b48e01b996cadc001622fb5e363b421a0c5d2460186f7233c927e7db2dcc703c0e500b653ca82273b7bfad8045d85a470",
    "83eac2cd8ae5d968ed840035e2993bb021207d554df1d735874d3694c0221446": "f871808080a0a552c6387ca99864dfbbdd70a3dbb1efe197144c1995f03b87e6f22b3aeebbcea0eb68126485dcaaca88731b1076aa5fe02a61cd409ffa5d95e08245b57d84c1afa03d2c9faa594230d254816429f8dc379c30c8b3679ef67f44dd31f3e6822f9a498080808080808080808080",
    "891000a314551644783b3e90de190e706b276bea21a5094055e94c4f28210618": "f8769f3eec2b84f0ba344fd4b4d2f022469febe7a772c4789acfc119eb558ab1da3db854f8528214478c033b2e3c6045486d77e62209a056e81f171bcc55a6ff8345e692c0f86e5b48e01b996cadc001622fb5e363b421a0c5d2460186f7233c927e7db2dcc703c0e500b653ca82273b7bfad8045d85a470",
    "934659a4f3428b7c2270ab9724d15eeaab796d43d0ed767b5da10c396515927c": "f85180a0891000a314551644783b3e90de190e706b276bea21a5094055e94c4f2821061880808080808080808080a0b352e4c72d853473be5eac69cf10adfdc61a3747ec26a4b424f0a29292fc1d3780808080",
    "a552c6387ca99864dfbbdd70a3dbb1efe197144c1995f03b87e6f22b3aeebbce": "f851a0e29cd6451f96ed556022f6076eacfbb24d0680280f8a4a588419a89b9a4260aa80808080808080a05446b03c9d029da9ebe18f0fe5f1df0a8a2aebe314ee2738f9fdce85932d6e448080808080808080",
    "a61debc92f4673fd71efd295e4fa634c53c3399ae594fae4926b2b05c6ce8f67": "f8689f3606e41962f1804c88941fa04f6729c0b43f9bec0a6d09728995eba88736bdb846f8440180a056e81f171bcc55a6ff8345e692c0f86e5b48e01b996cadc001622fb5e363b421a05deadf02dd8344275283fee394945c5e15787054e0eef21f50c960fd91323297",
    "cfc7e193889065caa5e9be1d42a754d0cf02368c8493b37b527180de6c99ddc5": "f873a0209bad3efd7d22d728e0b92c3bcdab947570414641f88051189032c4b246dc34b850f84e808ad3c21dd66e459912d110a056e81f171bcc55a6ff8345e692c0f86e5b48e01b996cadc001622fb5e363b421a0c5d2460186f7233c927e7db2dcc703c0e500b653ca82273b7bfad8045d85a470",
    "f63fdadb3b9b082d271b9a7b386a70c79c32a1d52b616848f7003ebcb2118d2d": "f89180a031d1eb10fdf37ef90417d463e9e3d1dad5bab6a3e8b38ccc4eaa744250317457808080a0934659a4f3428b7c2270ab9724d15eeaab796d43d0ed767b5da10c396515927ca088051b9667deb59e99614788c0d0aedaec2b9658bd714c851f16eb1d1ad3965280808080a0274e2e0e8f8fc8484e8dbec1d909ba8aa63f30695c18d02d0698ff7ac8d89b4b8080808080"
  },
  "storageTrie": null,
  "parentStateRoot": "0x4376a69f4170729df65697eaf99a8b390eb949bd850d0693a508f381b6096c9a",
  "transactionTraces": [
    {
      "txn": "0x02f8b48207d18214478498f6f8948498f6f8a2830159b3945b10b3e9e5489916ab01c3fcdc6cf061c271121080b844248b71fc00000000000000000000000085da99c8a7c2c95964c8efd687e95e632fc533d60000000000000000000000000000000000000000000000000000000000000001c001a0de1e90ae9a06bae97e8e080d0bb744da9d934209cbb086d7df968250021bf43da028b5ee9a5677b453ac88139cc9b370872b6008cec61ef002b521f7111af3b186",
      "delta": {
        "0x0000000000000000000000000000000000000000": {
          "address": "0x0000000000000000000000000000000000000000",
          "read": true
        },
        "0x5b10B3E9E5489916ab01C3fcdC6Cf061C2711210": {
          "address": "0x5b10B3E9E5489916ab01C3fcdC6Cf061C2711210",
          "storage": {
            "0x0000000000000000000000000000000000000000000000000000000000000004": "0x0000000000000000000000000000000000000000000000000000000000000001",
            "0x42fe90393dafacccf318596e1ca7e1e77c330a9ddff37275ce72bbe7ecb10ab8": "0x0000000000000000000000000000000000000000000000000000000000000001",
            "0xad3228b676f7d3cd4284a5443f17f1962b36e491b30a40b2405849e597ba5fb5": "0x00000000000000000000000085da99c8a7c2c95964c8efd687e95e632fc533d6"
          },
          "storage_read": {
            "0x0000000000000000000000000000000000000000000000000000000000000004": {},
            "0x42fe90393dafacccf318596e1ca7e1e77c330a9ddff37275ce72bbe7ecb10ab8": {},
            "0xad3228b676f7d3cd4284a5443f17f1962b36e491b30a40b2405849e597ba5fb5": {}
          },
          "code_read": "YIBgQFI0gBVhABBXYACA/VtQYAQ2EGEAqVdgADVg4ByAY0KELg4RYQBxV4BjQoQuDhRhAWJXgGNjUiEeFGEBfleAY3CggjEUYQGuV4Bjoiy0ZRRhAd5XgGO4jU/eFGEB+leAY+mF6cUUYQIWV2EAqVZbgGMB/8mnFGEArleAYwgYEvwUYQDeV4BjCV6nsxRhAQ5XgGMjuHLdFGEBKleAYySLcfwUYQFGV1tgAID9W2EAyGAEgDYDgQGQYQDDkZBhEj9WW2ECRlZbYEBRYQDVkZBhEodWW2BAUYCRA5DzW2EA+GAEgDYDgQGQYQDzkZBhEthWW2EDGFZbYEBRYQEFkZBhE0ZWW2BAUYCRA5DzW2EBKGAEgDYDgQGQYQEjkZBhE41WW2ED9VZbAFthAURgBIA2A4EBkGEBP5GQYRPNVlthBd1WWwBbYQFgYASANgOBAZBhAVuRkGETjVZbYQjJVlsAW2EBfGAEgDYDgQGQYQF3kZBhE81WW2EI11ZbAFthAZhgBIA2A4EBkGEBk5GQYRLYVlthCg9WW2BAUWEBpZGQYRNGVltgQFGAkQOQ81thAchgBIA2A4EBkGEBw5GQYRQgVlthCrpWW2BAUWEB1ZGQYRRcVltgQFGAkQOQ81thAfhgBIA2A4EBkGEB85GQYRSjVlthC3FWWwBbYQIUYASANgOBAZBhAg+RkGEVSFZbYQxuVlsAW2ECMGAEgDYDgQGQYQIrkZBhFdBWW2ENrFZbYEBRYQI9kZBhEodWW2BAUYCRA5DzW2AAf4CsWM0AAAAAAAAAAAAAAAAAAAAAAAAAAAAAAAAAAAAAe/////////////////////////////////////8ZFoJ7/////////////////////////////////////xkWFIBhAxFXUH8B/8mnAAAAAAAAAAAAAAAAAAAAAAAAAAAAAAAAAAAAAHv/////////////////////////////////////GRaCe/////////////////////////////////////8ZFhRbkFCRkFBWW2AAgHP//////////////////////////xZgAICEgVJgIAGQgVJgIAFgACBgAJBUkGEBAAqQBHP//////////////////////////xZz//////////////////////////8WA2EDuldgQFF/CMN5oAAAAAAAAAAAAAAAAAAAAAAAAAAAAAAAAAAAAACBUmAEAWEDsZBhFm1WW2BAUYCRA5D9W2ACYACDgVJgIAGQgVJgIAFgACBgAJBUkGEBAAqQBHP//////////////////////////xaQUJGQUFZbYACAYACDgVJgIAGQgVJgIAFgACBgAJBUkGEBAAqQBHP//////////////////////////xaQUIBz//////////////////////////8WM3P//////////////////////////xYUgGEE7FdQYANgAIJz//////////////////////////8Wc///////////////////////////FoFSYCABkIFSYCABYAAgYAAzc///////////////////////////FnP//////////////////////////xaBUmAgAZCBUmAgAWAAIGAAkFSQYQEACpAEYP8WW2EFK1dgQFF/CMN5oAAAAAAAAAAAAAAAAAAAAAAAAAAAAAAAAAAAAACBUmAEAWEFIpBhFtlWW2BAUYCRA5D9W4JgAmAAhIFSYCABkIFSYCABYAAgYABhAQAKgVSBc///////////////////////////AhkWkINz//////////////////////////8WAheQVVCBg3P//////////////////////////xaCc///////////////////////////Fn+MW+Hl6+x9W9FPcUJ9HoTz3QMUwPeyKR5bIArIx8O5JWBAUWBAUYCRA5CkUFBQVltgAICCgVJgIAGQgVJgIAFgACBgAJBUkGEBAAqQBHP//////////////////////////xZz//////////////////////////8Wg3P//////////////////////////xYUYQZ9V2BAUX8Iw3mgAAAAAAAAAAAAAAAAAAAAAAAAAAAAAAAAAAAAAIFSYAQBYQZ0kGEXRVZbYEBRgJEDkP1bYABz//////////////////////////8WgnP//////////////////////////xYDYQbsV2BAUX8Iw3mgAAAAAAAAAAAAAAAAAAAAAAAAAAAAAAAAAAAAAIFSYAQBYQbjkGEXsVZbYEBRgJEDkP1bYQb3gzODYQ3bVlthBzZXYEBRfwjDeaAAAAAAAAAAAAAAAAAAAAAAAAAAAAAAAAAAAAAAgVJgBAFhBy2QYRbZVltgQFGAkQOQ/VtgAYBgAIVz//////////////////////////8Wc///////////////////////////FoFSYCABkIFSYCABYAAgYACCglRhB4WRkGEYAFZbklBQgZBVUGABgGAAhHP//////////////////////////xZz//////////////////////////8WgVJgIAGQgVJgIAFgACBgAIKCVGEH25GQYRg0VluSUFCBkFVQgWAAgIOBUmAgAZCBUmAgAWAAIGAAYQEACoFUgXP//////////////////////////wIZFpCDc///////////////////////////FgIXkFVQYAJgAIKBUmAgAZCBUmAgAWAAIGAAYQEACoFUkHP//////////////////////////wIZFpBVgIJz//////////////////////////8WhHP//////////////////////////xZ/3fJSrRviyJtpwrBo/DeNqpUrp/FjxKEWKPVaTfUjs+9gQFFgQFGAkQOQpFBQUFZbYQjTgoJhDw9WW1BQVlthCOKDg4NhBd1WW2AAgnP//////////////////////////xY7FIBhCctXUGMVC3oCYOAbe/////////////////////////////////////8ZFoJz//////////////////////////8WYxULegIzhoVgQFGEY/////8WYOAbgVJgBAFhCWeTkpGQYRifVltgIGBAUYCDA4FgAIda8RWAFWEJhlc9YACAPj1gAP1bUFBQUGBAUT1gHxlgH4IBFoIBgGBAUlCBAZBhCaqRkGEY/lZbe/////////////////////////////////////8ZFhRbYQoKV2BAUX8Iw3mgAAAAAAAAAAAAAAAAAAAAAAAAAAAAAAAAAAAAAIFSYAQBYQoBkGEZd1ZbYEBRgJEDkP1bUFBQVltgAIBgAIOBUmAgAZCBUmAgAWAAIGAAkFSQYQEACpAEc///////////////////////////FpBQYABz//////////////////////////8WgXP//////////////////////////xYDYQq1V2BAUX8Iw3mgAAAAAAAAAAAAAAAAAAAAAAAAAAAAAAAAAAAAAIFSYAQBYQqskGEWbVZbYEBRgJEDkP1bkZBQVltgAIBz//////////////////////////8WgnP//////////////////////////xYDYQsqV2BAUX8Iw3mgAAAAAAAAAAAAAAAAAAAAAAAAAAAAAAAAAAAAAIFSYAQBYQshkGEZ41ZbYEBRgJEDkP1bYAFgAINz//////////////////////////8Wc///////////////////////////FoFSYCABkIFSYCABYAAgVJBQkZBQVluAYANgADNz//////////////////////////8Wc///////////////////////////FoFSYCABkIFSYCABYAAgYACEc///////////////////////////FnP//////////////////////////xaBUmAgAZCBUmAgAWAAIGAAYQEACoFUgWD/AhkWkIMVFQIXkFVQgXP//////////////////////////xYzc///////////////////////////Fn8XMH6rOathB+iJmEWtPVm9llPyAPIgkgSJyitZN2lsMYNgQFFhDGKRkGESh1ZbYEBRgJEDkKNQUFZbYQx5hYWFYQXdVltgAIRz//////////////////////////8WOxSAYQ1mV1BjFQt6AmDgG3v/////////////////////////////////////GRaEc///////////////////////////FmMVC3oCM4iHh4dgQFGGY/////8WYOAbgVJgBAFhDQKVlJOSkZBhGlBWW2AgYEBRgIMDgWAAh1rxFYAVYQ0hVz1gAIA+PWAA/VtQUFBQYEBRPWAfGWAfggEWggGAYEBSUIEBkGENRZGQYRj+Vlt7/////////////////////////////////////xkWFFthDaVXYEBRfwjDeaAAAAAAAAAAAAAAAAAAAAAAAAAAAAAAAAAAAAAAgVJgBAFhDZyQYRl3VltgQFGAkQOQ/VtQUFBQUFZbYANgIFKBYABSYEBgACBgIFKAYABSYEBgACBgAJFQkVCQVJBhAQAKkARg/xaBVltgAINz//////////////////////////8Wg3P//////////////////////////xYUgGEOnVdQYANgAIVz//////////////////////////8Wc///////////////////////////FoFSYCABkIFSYCABYAAgYACEc///////////////////////////FnP//////////////////////////xaBUmAgAZCBUmAgAWAAIGAAkFSQYQEACpAEYP8WW4BhDwZXUGACYACDgVJgIAGQgVJgIAFgACBgAJBUkGEBAAqQBHP//////////////////////////xZz//////////////////////////8Wg3P//////////////////////////xYUW5BQk5JQUFBWW2AAYARUkFBgAHP//////////////////////////xaDc///////////////////////////FgNhD4VXYEBRfwjDeaAAAAAAAAAAAAAAAAAAAAAAAAAAAAAAAAAAAAAAgVJgBAFhD3yQYRrqVltgQFGAkQOQ/VtgAHP//////////////////////////xZgAICDgVJgIAGQgVJgIAFgACBgAJBUkGEBAAqQBHP//////////////////////////xZz//////////////////////////8WFGEQJldgQFF/CMN5oAAAAAAAAAAAAAAAAAAAAAAAAAAAAAAAAAAAAACBUmAEAWEQHZBhG1ZWW2BAUYCRA5D9W38AAAAAAAAAAAAAAAAAAAAAAAAAAAAAAAAAAAAAAAAAZIIRFWEQiVdgQFF/CMN5oAAAAAAAAAAAAAAAAAAAAAAAAAAAAAAAAAAAAACBUmAEAWEQgJBhG+hWW2BAUYCRA5D9W4Fv/////////////////////xZgAWAAhXP//////////////////////////xZz//////////////////////////8WgVJgIAGQgVJgIAFgACBgAIKCVGEQ6pGQYRg0VluSUFCBkFVQYACBkFBgAFuDgRAVYRHPV4GFc///////////////////////////FmAAc///////////////////////////Fn/d8lKtG+LIm2nCsGj8N42qlSun8WPEoRYo9VpN9SOz72BAUWBAUYCRA5CkhGAAgISBUmAgAZCBUmAgAWAAIGAAYQEACoFUgXP//////////////////////////wIZFpCDc///////////////////////////FgIXkFVQgYBhEbmQYRwIVluSUFCAgGERx5BhHAhWW5FQUGEQ+VZbUIBgBIGQVVBQUFBQVltgAID9W2AAgP1bYAB//////wAAAAAAAAAAAAAAAAAAAAAAAAAAAAAAAAAAAACCFpBQkZBQVlthEhyBYRHnVluBFGESJ1dgAID9W1BWW2AAgTWQUGESOYFhEhNWW5KRUFBWW2AAYCCChAMSFWESVVdhElRhEd1WW1tgAGESY4SChQFhEipWW5FQUJKRUFBWW2AAgRUVkFCRkFBWW2ESgYFhEmxWW4JSUFBWW2AAYCCCAZBQYRKcYACDAYRhEnhWW5KRUFBWW2AAgZBQkZBQVlthErWBYRKiVluBFGESwFdgAID9W1BWW2AAgTWQUGES0oFhEqxWW5KRUFBWW2AAYCCChAMSFWES7ldhEu1hEd1WW1tgAGES/ISChQFhEsNWW5FQUJKRUFBWW2AAc///////////////////////////ghaQUJGQUFZbYABhEzCCYRMFVluQUJGQUFZbYRNAgWETJVZbglJQUFZbYABgIIIBkFBhE1tgAIMBhGETN1ZbkpFQUFZbYRNqgWETJVZbgRRhE3VXYACA/VtQVltgAIE1kFBhE4eBYRNhVluSkVBQVltgAIBgQIOFAxIVYROkV2ETo2ER3VZbW2AAYROyhYKGAWETeFZbklBQYCBhE8OFgoYBYRLDVluRUFCSUJKQUFZbYACAYABgYISGAxIVYRPmV2ET5WER3VZbW2AAYRP0hoKHAWETeFZbk1BQYCBhFAWGgocBYRN4VluSUFBgQGEUFoaChwFhEsNWW5FQUJJQklCSVltgAGAggoQDEhVhFDZXYRQ1YRHdVltbYABhFESEgoUBYRN4VluRUFCSkVBQVlthFFaBYRKiVluCUlBQVltgAGAgggGQUGEUcWAAgwGEYRRNVluSkVBQVlthFICBYRJsVluBFGEUi1dgAID9W1BWW2AAgTWQUGEUnYFhFHdWW5KRUFBWW2AAgGBAg4UDEhVhFLpXYRS5YRHdVltbYABhFMiFgoYBYRN4VluSUFBgIGEU2YWChgFhFI5WW5FQUJJQkpBQVltgAID9W2AAgP1bYACA/VtgAICDYB+EARJhFQhXYRUHYRTjVltbgjWQUGf//////////4ERFWEVJVdhFSRhFOhWW1tgIIMBkVCDYAGCAoMBERVhFUFXYRVAYRTtVltbklCSkFBWW2AAgGAAgGAAYICGiAMSFWEVZFdhFWNhEd1WW1tgAGEVcoiCiQFhE3hWW5VQUGAgYRWDiIKJAWETeFZblFBQYEBhFZSIgokBYRLDVluTUFBgYIYBNWf//////////4ERFWEVtVdhFbRhEeJWW1thFcGIgokBYRTyVluSUJJQUJKVUJKVkJNQVltgAIBgQIOFAxIVYRXnV2EV5mER3VZbW2AAYRX1hYKGAWETeFZbklBQYCBhFgaFgoYBYRN4VluRUFCSUJKQUFZbYACCglJgIIIBkFCSkVBQVlt/dG9rZW4gZG9lc24ndCBleGlzdAAAAAAAAAAAAAAAAABgAIIBUlBWW2AAYRZXYBODYRYQVluRUGEWYoJhFiFWW2AgggGQUJGQUFZbYABgIIIBkFCBgQNgAIMBUmEWhoFhFkpWW5BQkZBQVlt/bm90IGF1dGhvcml6ZWQAAAAAAAAAAAAAAAAAAAAAAABgAIIBUlBWW2AAYRbDYA6DYRYQVluRUGEWzoJhFo1WW2AgggGQUJGQUFZbYABgIIIBkFCBgQNgAIMBUmEW8oFhFrZWW5BQkZBQVlt/ZnJvbSAhPSBvd25lcgAAAAAAAAAAAAAAAAAAAAAAAABgAIIBUlBWW2AAYRcvYA2DYRYQVluRUGEXOoJhFvlWW2AgggGQUJGQUFZbYABgIIIBkFCBgQNgAIMBUmEXXoFhFyJWW5BQkZBQVlt/dHJhbnNmZXIgdG8gemVybyBhZGRyZXNzAAAAAAAAAABgAIIBUlBWW2AAYRebYBiDYRYQVluRUGEXpoJhF2VWW2AgggGQUJGQUFZbYABgIIIBkFCBgQNgAIMBUmEXyoFhF45WW5BQkZBQVlt/Tkh7cQAAAAAAAAAAAAAAAAAAAAAAAAAAAAAAAAAAAABgAFJgEWAEUmAkYAD9W2AAYRgLgmESolZbkVBhGBaDYRKiVluSUIKCA5BQgYERFWEYLldhGC1hF9FWW1uSkVBQVltgAGEYP4JhEqJWW5FQYRhKg2ESolZbklCCggGQUICCERVhGGJXYRhhYRfRVltbkpFQUFZbYACCglJgIIIBkFCSkVBQVltQVltgAGEYiWAAg2EYaFZbkVBhGJSCYRh5VltgAIIBkFCRkFBWW2AAYICCAZBQYRi0YACDAYZhEzdWW2EYwWAggwGFYRM3VlthGM5gQIMBhGEUTVZbgYEDYGCDAVJhGN+BYRh8VluQUJSTUFBQUFZbYACBUZBQYRj4gWESE1ZbkpFQUFZbYABgIIKEAxIVYRkUV2EZE2ER3VZbW2AAYRkihIKFAWEY6VZbkVBQkpFQUFZbf3Vuc2FmZSByZWNpcGllbnQAAAAAAAAAAAAAAAAAAAAAYACCAVJQVltgAGEZYWAQg2EWEFZbkVBhGWyCYRkrVltgIIIBkFCRkFBWW2AAYCCCAZBQgYEDYACDAVJhGZCBYRlUVluQUJGQUFZbf293bmVyID0gemVybyBhZGRyZXNzAAAAAAAAAAAAAAAAYACCAVJQVltgAGEZzWAUg2EWEFZbkVBhGdiCYRmXVltgIIIBkFCRkFBWW2AAYCCCAZBQgYEDYACDAVJhGfyBYRnAVluQUJGQUFZbgoGDN2AAg4MBUlBQUFZbYABgHxlgH4MBFpBQkZBQVltgAGEaL4OFYRhoVluTUGEaPIOFhGEaA1ZbYRpFg2EaElZbhAGQUJOSUFBQVltgAGCAggGQUGEaZWAAgwGIYRM3VlthGnJgIIMBh2ETN1ZbYRp/YECDAYZhFE1WW4GBA2BggwFSYRqSgYSGYRojVluQUJaVUFBQUFBQVlt/bWludCB0byB6ZXJvIGFkZHJlc3MAAAAAAAAAAAAAAABgAIIBUlBWW2AAYRrUYBSDYRYQVluRUGEa34JhGp5WW2AgggGQUJGQUFZbYABgIIIBkFCBgQNgAIMBUmEbA4FhGsdWW5BQkZBQVlt/YWxyZWFkeSBtaW50ZWQAAAAAAAAAAAAAAAAAAAAAAABgAIIBUlBWW2AAYRtAYA6DYRYQVluRUGEbS4JhGwpWW2AgggGQUJGQUFZbYABgIIIBkFCBgQNgAIMBUmEbb4FhGzNWW5BQkZBQVlt/RVJDNzIxQTogcXVhbnRpdHkgdG8gbWludCB0b28gaGlgAIIBUn9naAAAAAAAAAAAAAAAAAAAAAAAAAAAAAAAAAAAAAAAAGAgggFSUFZbYABhG9JgIoNhFhBWW5FQYRvdgmEbdlZbYECCAZBQkZBQVltgAGAgggGQUIGBA2AAgwFSYRwBgWEbxVZbkFCRkFBWW2AAYRwTgmESolZbkVB///////////////////////////////////////////+CA2EcRVdhHERhF9FWW1tgAYIBkFCRkFBW/qJkaXBmc1giEiB0ShnjEsZGBJjOoPQklISOU39GbAYmnRiOIVC0F6mikmRzb2xjQwAIEQAz",
          "touched": true,
          "read": true
        },
        "0x85dA99c8a7C2C95964c8EfD687E95E632Fc533D6": {
          "address": "0x85dA99c8a7C2C95964c8EfD687E95E632Fc533D6",
          "nonce": 5192,
          "read": true
        },
        "0xA52f1226449eA47013CceD3Dc59927657e3054dF": {
          "address": "0xA52f1226449eA47013CceD3Dc59927657e3054dF",
          "read": true
        }
      }
    }
  ]
}
