{
  "accountTrie": {
    "042ba29ce25612002ba9da8c6b04d944b747e4facb46533eb106a8a77e4433a3": "f851a0e29cd6451f96ed556022f6076eacfbb24d0680280f8a4a588419a89b9a4260aa80808080808080a099602bff93c4b162e59ea47e0a193aa48ffdc08b1d31379ad51e31c3564d5f288080808080808080",
    "0d50488d118a4ebcc45bef7f3e26f93869001bc47bd7aeef171e70a1bba66742": "f873a0209bad3efd7d22d728e0b92c3bcdab947570414641f88051189032c4b246dc34b850f84e808ad3c21c1126a409804268a056e81f171bcc55a6ff8345e692c0f86e5b48e01b996cadc001622fb5e363b421a0c5d2460186f7233c927e7db2dcc703c0e500b653ca82273b7bfad8045d85a470",
    "148a3aed915439129581f277f3f80fc81f9adabc13abae6000d74abc464c2ca2": "f869a02038fb9c592da60867c745d18fca27ef0eb8ef0634db9f985ac5c8410bc5e81eb846f8440180a086135ef5bd264b22dcb0535beb1447dfb1788a2e09e0e003d8c93a2d6b67c5dca068ec34b771975592f4a19d0ab58f8579ab17e382a5e6ecddfa717b354472b9b0",
    "1e01f4681919b5ebae31a48e035814636288331d49ee10beef978c49a8953131": "f851808080808080808080a0dca76e0366599f3337b265d40bb5f1974763ca05f94a496f333a243d2397827d80a0148a3aed915439129581f277f3f80fc81f9adabc13abae6000d74abc464c2ca28080808080",
    "21a1cc1abd5cc771420b9fdab7101d968e6ddd6539aab612714de627f5a1870d": "f8918080808080a08d8d5cfa75bc646c9e6347dc2dedd4b9ce4a34d34d066344148525b0cc0cc7e58080a02b552522c790b0433d466408318c5c61bfa7e2dbb9c2e13bfec3d1d51290addd8080808080a00d50488d118a4ebcc45bef7f3e26f93869001bc47bd7aeef171e70a1bba66742a099a6632dc218993740f5b428ad3602ef19498960c916c08326a1b5e6c61af9f280",
    "416d8ecfb6fd93be83e57e05ea304989c1983a341bc1f2888c42777f1fa2d89e": "f8749f3eec2b84f0ba344fd4b4d2f022469febe7a772c4789acfc119eb558ab1da3db852f850108c033b2e3c9e97c79a7ca342bca056e81f171bcc55a6ff8345e692c0f86e5b48e01b996cadc001622fb5e363b421a0c5d2460186f7233c927e7db2dcc703c0e500b653ca82273b7bfad8045d85a470",
    "549b3d872c7112d93655ea9209ce14070a4a3c4f636d2d2da920a104817d1e2e": "f85180a0416d8ecfb6fd93be83e57e05ea304989c1983a341bc1f2888c42777f1fa2d89e80808080808080808080a0b352e4c72d853473be5eac69cf10adfdc61a3747ec26a4b424f0a29292fc1d3780808080",
    "687a3279da3cfc8c63394d9ab101c03fdd2ba28bf5b409378cfe8940661f8c9d": "f901f1a07aa37f4e8b1366a6e684d0ca39dfbc36ea645faf486b16404b0319a0d7a290b5a0f26b308fbf175a60c25af491f4879ba1ec11914f6fa9dc722f9746e2ab44679980a0eb0147a6c13630999c8f65d437698ef757d29f8ae4e251554df9da7d2271cd94a0855acc3496e4c492ab905d1283e41ff4d1852a31494e06f7aaa642f99169cb42a0d520ed28963bc0af0a3c86c6e38d1c542fa89ec9996ade77c05e237df45da7f3a0f820e589d2219ae3f297594cfd731f2ec64d19b1ba0f918369e9b413c126732da02f78bcf8aa858d16afd49d0301bd709a825ff00b81dfbb8a1f6842066d557abaa01e01f4681919b5ebae31a48e035814636288331d49ee10beef978c49a8953131a0e6e82a109ac4e5daed8f76043d8393d0298472e0518ff96a48b8492e479881fba0cbf5398029118db57a04e80e567095dcca8a98bf4f3dd1becb117556bd044f0ba054cab2921d01b8ab026305874aca3f192ae1af8f0bb0c5d39e381645509e3931a021a1cc1abd5cc771420b9fdab7101d968e6ddd6539aab612714de627f5a1870da0d5c3f35b3433034102536147a3dcfd190c7bb81fe37c4801a018ecc677f34deca08333762fcaf7193e048ab228010951a924224adf67ad901b5e98441becfcbbd7a02b0d17fcac67194c466f69c97363fa60de92d1e9131811960f13c9a19677d77680",
    "99602bff93c4b162e59ea47e0a193aa48ffdc08b1d31379ad51e31c3564d5f28": "f8729f30c7b7ae81a58eb98d9c78de4a1fd7fd9535fc953ed2be602daaa41767312ab850f84e808ad3c21bd2b1453260525da056e81f171bcc55a6ff8345e692c0f86e5b48e01b996cadc001622fb5e363b421a0c5d2460186f7233c927e7db2dcc703c0e500b653ca82273b7bfad8045d85a470",
    "cbf5398029118db57a04e80e567095dcca8a98bf4f3dd1becb117556bd044f0b": "f85180a031d1eb10fdf37ef90417d463e9e3d1dad5bab6a3e8b38ccc4eaa744250317457808080a0549b3d872c7112d93655ea9209ce14070a4a3c4f636d2d2da920a104817d1e2e8080808080808080808080",
    "d520ed28963bc0af0a3c86c6e38d1c542fa89ec9996ade77c05e237df45da7f3": "f851808080a0042ba29ce25612002ba9da8c6b04d944b747e4facb46533eb106a8a77e4433a380a03d2c9faa594230d254816429f8dc379c30c8b3679ef67f44dd31f3e6822f9a498080808080808080808080"
  },
  "storageTrie": {
    "86135ef5bd264b22dcb0535beb1447dfb1788a2e09e0e003d8c93a2d6b67c5dc": "f89180808080a01ac2f6079764f98dd9e82b615b42071b08d04f9447557044ac4669f9b750b110808080a0e062e154c1096dcf46c6968b518306698cbffa8369adc6f0122a57ccb3cbb1f5a047e1b61062a7dea0eb2917358f71d509eb31e317b957ef1300dccc96c42ea2668080a02aa97a556a6e4f188c87b89510eea3a6dcff2aa9b6b85e6548476f5d7666852680808080"
  },
  "parentStateRoot": "0x687a3279da3cfc8c63394d9ab101c03fdd2ba28bf5b409378cfe8940661f8c9d",
  "transactionTraces": [
    {
      "txn": "0xf8aa108496923fd582af189438d5062a70b0203580ca0c444df1041ad1bcc50e80b844095ea7b3000000000000000000000000d15f63c56aeceb772022eb0f3fec874b5157a36a0000000000000000000000000000000000000000204fce5e3e25026110000000820fc5a0d561cda7a666a173582a70e58198911c20768e2d36a1532559663224aa1a9575a01d9f323412f57edce679111bcbcc81b1c26a5bd2c9d9e9dfa9310ba611974c06",
      "delta": {
        "0x0000000000000000000000000000000000000000": {
          "address": "0x0000000000000000000000000000000000000000",
          "read": true
        },
        "0x38D5062a70b0203580ca0C444Df1041Ad1BCc50E": {
          "address": "0x38D5062a70b0203580ca0C444Df1041Ad1BCc50E",
          "storage": {
            "0xcfe79f1d9c2f81f0d0827df84e6478f76e8ecd52a898e7bb91d92decac2d9211": "0x0000000000000000000000000000000000000000204fce5e3e25026110000000"
          },
          "storage_read": {
            "0xcfe79f1d9c2f81f0d0827df84e6478f76e8ecd52a898e7bb91d92decac2d9211": {}
          },
          "code_read": "YIBgQFI0gBVhABBXYACA/VtQYAQ2EGEAqVdgADVg4ByAYzlQk1ERYQBxV4BjOVCTURRhAWhXgGNwoIIxFGEBmFeAY5XYm0EUYQHIV4BjpFfC1xRhAeZXgGOpBZy7FGECFleAY91i7T4UYQJGV2EAqVZbgGMG/d4DFGEArleAYwlep7MUYQDMV4BjGBYN3RRhAPxXgGMjuHLdFGEBGleAYzE85WcUYQFKV1tgAID9W2EAtmECdlZbYEBRYQDDkZBhCwxWW2BAUYCRA5DzW2EA5mAEgDYDgQGQYQDhkZBhC8dWW2EDCFZbYEBRYQDzkZBhDCJWW2BAUYCRA5DzW2EBBGEDK1ZbYEBRYQERkZBhDExWW2BAUYCRA5DzW2EBNGAEgDYDgQGQYQEvkZBhDGdWW2EDNVZbYEBRYQFBkZBhDCJWW2BAUYCRA5DzW2EBUmEDZFZbYEBRYQFfkZBhDNZWW2BAUYCRA5DzW2EBgmAEgDYDgQGQYQF9kZBhC8dWW2EDbVZbYEBRYQGPkZBhDCJWW2BAUYCRA5DzW2EBsmAEgDYDgQGQYQGtkZBhDPFWW2EDpFZbYEBRYQG/kZBhDExWW2BAUYCRA5DzW2EB0GED7FZbYEBRYQHdkZBhCwxWW2BAUYCRA5DzW2ECAGAEgDYDgQGQYQH7kZBhC8dWW2EEflZbYEBRYQINkZBhDCJWW2BAUYCRA5DzW2ECMGAEgDYDgQGQYQIrkZBhC8dWW2EE9VZbYEBRYQI9kZBhDCJWW2BAUYCRA5DzW2ECYGAEgDYDgQGQYQJbkZBhDR5WW2EFGFZbYEBRYQJtkZBhDExWW2BAUYCRA5DzW2BgYAOAVGEChZBhDY1WW4BgHwFgIICRBAJgIAFgQFGQgQFgQFKAkpGQgYFSYCABgoBUYQKxkGENjVZbgBVhAv5XgGAfEGEC01dhAQCAg1QEAoNSkWAgAZFhAv5WW4IBkZBgAFJgIGAAIJBbgVSBUpBgAQGQYCABgIMRYQLhV4KQA2AfFoIBkVtQUFBQUJBQkFZbYACAYQMTYQWfVluQUGEDIIGFhWEFp1ZbYAGRUFCSkVBQVltgAGACVJBQkFZbYACAYQNAYQWfVluQUGEDTYWChWEHcFZbYQNYhYWFYQf8VltgAZFQUJOSUFBQVltgAGASkFCQVltgAIBhA3hhBZ9WW5BQYQOZgYWFYQOKhYlhBRhWW2EDlJGQYQ3tVlthBadWW2ABkVBQkpFQUFZbYACAYACDc///////////////////////////FnP//////////////////////////xaBUmAgAZCBUmAgAWAAIFSQUJGQUFZbYGBgBIBUYQP7kGENjVZbgGAfAWAggJEEAmAgAWBAUZCBAWBAUoCSkZCBgVJgIAGCgFRhBCeQYQ2NVluAFWEEdFeAYB8QYQRJV2EBAICDVAQCg1KRYCABkWEEdFZbggGRkGAAUmAgYAAgkFuBVIFSkGABAZBgIAGAgxFhBFdXgpADYB8WggGRW1BQUFBQkFCQVltgAIBhBIlhBZ9WW5BQYABhBJeChmEFGFZbkFCDgRAVYQTcV2BAUX8Iw3mgAAAAAAAAAAAAAAAAAAAAAAAAAAAAAAAAAAAAAIFSYAQBYQTTkGEOk1ZbYEBRgJEDkP1bYQTpgoaGhANhBadWW2ABklBQUJKRUFBWW2AAgGEFAGEFn1ZbkFBhBQ2BhYVhB/xWW2ABkVBQkpFQUFZbYABgAWAAhHP//////////////////////////xZz//////////////////////////8WgVJgIAGQgVJgIAFgACBgAINz//////////////////////////8Wc///////////////////////////FoFSYCABkIFSYCABYAAgVJBQkpFQUFZbYAAzkFCQVltgAHP//////////////////////////xaDc///////////////////////////FgNhBhZXYEBRfwjDeaAAAAAAAAAAAAAAAAAAAAAAAAAAAAAAAAAAAAAAgVJgBAFhBg2QYQ8lVltgQFGAkQOQ/VtgAHP//////////////////////////xaCc///////////////////////////FgNhBoVXYEBRfwjDeaAAAAAAAAAAAAAAAAAAAAAAAAAAAAAAAAAAAAAAgVJgBAFhBnyQYQ+3VltgQFGAkQOQ/VuAYAFgAIVz//////////////////////////8Wc///////////////////////////FoFSYCABkIFSYCABYAAgYACEc///////////////////////////FnP//////////////////////////xaBUmAgAZCBUmAgAWAAIIGQVVCBc///////////////////////////FoNz//////////////////////////8Wf4xb4eXr7H1b0U9xQn0ehPPdAxTA97IpHlsgCsjHw7klg2BAUWEHY5GQYQxMVltgQFGAkQOQo1BQUFZbYABhB3yEhGEFGFZbkFB///////////////////////////////////////////+BFGEH9leBgRAVYQfoV2BAUX8Iw3mgAAAAAAAAAAAAAAAAAAAAAAAAAAAAAAAAAAAAAIFSYAQBYQffkGEQI1ZbYEBRgJEDkP1bYQf1hISEhANhBadWW1tQUFBQVltgAHP//////////////////////////xaDc///////////////////////////FgNhCGtXYEBRfwjDeaAAAAAAAAAAAAAAAAAAAAAAAAAAAAAAAAAAAAAAgVJgBAFhCGKQYRC1VltgQFGAkQOQ/VtgAHP//////////////////////////xaCc///////////////////////////FgNhCNpXYEBRfwjDeaAAAAAAAAAAAAAAAAAAAAAAAAAAAAAAAAAAAAAAgVJgBAFhCNGQYRFHVltgQFGAkQOQ/VthCOWDg4NhCnJWW2AAgGAAhXP//////////////////////////xZz//////////////////////////8WgVJgIAGQgVJgIAFgACBUkFCBgRAVYQlrV2BAUX8Iw3mgAAAAAAAAAAAAAAAAAAAAAAAAAAAAAAAAAAAAAIFSYAQBYQlikGER2VZbYEBRgJEDkP1bgYEDYACAhnP//////////////////////////xZz//////////////////////////8WgVJgIAGQgVJgIAFgACCBkFVQgWAAgIVz//////////////////////////8Wc///////////////////////////FoFSYCABkIFSYCABYAAgYACCglQBklBQgZBVUIJz//////////////////////////8WhHP//////////////////////////xZ/3fJSrRviyJtpwrBo/DeNqpUrp/FjxKEWKPVaTfUjs++EYEBRYQpZkZBhDExWW2BAUYCRA5CjYQpshISEYQp3VltQUFBQVltQUFBWW1BQUFZbYACBUZBQkZBQVltgAIKCUmAgggGQUJKRUFBWW2AAW4OBEBVhCrZXgIIBUYGEAVJgIIEBkFBhCptWW2AAhIQBUlBQUFBWW2AAYB8ZYB+DARaQUJGQUFZbYABhCt6CYQp8VlthCuiBhWEKh1Zbk1BhCviBhWAghgFhCphWW2ELAYFhCsJWW4QBkVBQkpFQUFZbYABgIIIBkFCBgQNgAIMBUmELJoGEYQrTVluQUJKRUFBWW2AAgP1bYABz//////////////////////////+CFpBQkZBQVltgAGELXoJhCzNWW5BQkZBQVlthC26BYQtTVluBFGELeVdgAID9W1BWW2AAgTWQUGELi4FhC2VWW5KRUFBWW2AAgZBQkZBQVlthC6SBYQuRVluBFGELr1dgAID9W1BWW2AAgTWQUGELwYFhC5tWW5KRUFBWW2AAgGBAg4UDEhVhC95XYQvdYQsuVltbYABhC+yFgoYBYQt8VluSUFBgIGEL/YWChgFhC7JWW5FQUJJQkpBQVltgAIEVFZBQkZBQVlthDByBYQwHVluCUlBQVltgAGAgggGQUGEMN2AAgwGEYQwTVluSkVBQVlthDEaBYQuRVluCUlBQVltgAGAgggGQUGEMYWAAgwGEYQw9VluSkVBQVltgAIBgAGBghIYDEhVhDIBXYQx/YQsuVltbYABhDI6GgocBYQt8VluTUFBgIGEMn4aChwFhC3xWW5JQUGBAYQywhoKHAWELslZbkVBQklCSUJJWW2AAYP+CFpBQkZBQVlthDNCBYQy6VluCUlBQVltgAGAgggGQUGEM62AAgwGEYQzHVluSkVBQVltgAGAggoQDEhVhDQdXYQ0GYQsuVltbYABhDRWEgoUBYQt8VluRUFCSkVBQVltgAIBgQIOFAxIVYQ01V2ENNGELLlZbW2AAYQ1DhYKGAWELfFZbklBQYCBhDVSFgoYBYQt8VluRUFCSUJKQUFZbf05Ie3EAAAAAAAAAAAAAAAAAAAAAAAAAAAAAAAAAAAAAYABSYCJgBFJgJGAA/VtgAGACggSQUGABghaAYQ2lV2B/ghaRUFtgIIIQgQNhDbhXYQ23YQ1eVltbUJGQUFZbf05Ie3EAAAAAAAAAAAAAAAAAAAAAAAAAAAAAAAAAAAAAYABSYBFgBFJgJGAA/VtgAGEN+IJhC5FWW5FQYQ4Dg2ELkVZbklCCggGQUICCERVhDhtXYQ4aYQ2+VltbkpFQUFZbf0VSQzIwOiBkZWNyZWFzZWQgYWxsb3dhbmNlIGJlbG93YACCAVJ/IHplcm8AAAAAAAAAAAAAAAAAAAAAAAAAAAAAAAAAAABgIIIBUlBWW2AAYQ59YCWDYQqHVluRUGEOiIJhDiFWW2BAggGQUJGQUFZbYABgIIIBkFCBgQNgAIMBUmEOrIFhDnBWW5BQkZBQVlt/RVJDMjA6IGFwcHJvdmUgZnJvbSB0aGUgemVybyBhZGRgAIIBUn9yZXNzAAAAAAAAAAAAAAAAAAAAAAAAAAAAAAAAAAAAAGAgggFSUFZbYABhDw9gJINhCodWW5FQYQ8agmEOs1ZbYECCAZBQkZBQVltgAGAgggGQUIGBA2AAgwFSYQ8+gWEPAlZbkFCRkFBWW39FUkMyMDogYXBwcm92ZSB0byB0aGUgemVybyBhZGRyZWAAggFSf3NzAAAAAAAAAAAAAAAAAAAAAAAAAAAAAAAAAAAAAAAAYCCCAVJQVltgAGEPoWAig2EKh1ZbkVBhD6yCYQ9FVltgQIIBkFCRkFBWW2AAYCCCAZBQgYEDYACDAVJhD9CBYQ+UVluQUJGQUFZbf0VSQzIwOiBpbnN1ZmZpY2llbnQgYWxsb3dhbmNlAAAAYACCAVJQVltgAGEQDWAdg2EKh1ZbkVBhEBiCYQ/XVltgIIIBkFCRkFBWW2AAYCCCAZBQgYEDYACDAVJhEDyBYRAAVluQUJGQUFZbf0VSQzIwOiB0cmFuc2ZlciBmcm9tIHRoZSB6ZXJvIGFkYACCAVJ/ZHJlc3MAAAAAAAAAAAAAAAAAAAAAAAAAAAAAAAAAAABgIIIBUlBWW2AAYRCfYCWDYQqHVluRUGEQqoJhEENWW2BAggGQUJGQUFZbYABgIIIBkFCBgQNgAIMBUmEQzoFhEJJWW5BQkZBQVlt/RVJDMjA6IHRyYW5zZmVyIHRvIHRoZSB6ZXJvIGFkZHJgAIIBUn9lc3MAAAAAAAAAAAAAAAAAAAAAAAAAAAAAAAAAAAAAAGAgggFSUFZbYABhETFgI4NhCodWW5FQYRE8gmEQ1VZbYECCAZBQkZBQVltgAGAgggGQUIGBA2AAgwFSYRFggWERJFZbkFCRkFBWW39FUkMyMDogdHJhbnNmZXIgYW1vdW50IGV4Y2VlZHMgYmAAggFSf2FsYW5jZQAAAAAAAAAAAAAAAAAAAAAAAAAAAAAAAAAAYCCCAVJQVltgAGERw2Amg2EKh1ZbkVBhEc6CYRFnVltgQIIBkFCRkFBWW2AAYCCCAZBQgYEDYACDAVJhEfKBYRG2VluQUJGQUFb+omRpcGZzWCISINwaT1Bj2EQcsY1D2YT/+vOyYNTTDgTLrJPce+non9O5ZHNvbGNDAAgTADM=",
          "touched": true,
          "read": true
        },
        "0x85dA99c8a7C2C95964c8EfD687E95E632Fc533D6": {
          "address": "0x85dA99c8a7C2C95964c8EfD687E95E632Fc533D6",
          "nonce": 17,
          "read": true
        },
        "0xA52f1226449eA47013CceD3Dc59927657e3054dF": {
          "address": "0xA52f1226449eA47013CceD3Dc59927657e3054dF",
          "read": true
        }
      }
    }
  ]
}
