{
  "accountTrie": {
    "03d6fc28b98425157fa9ead0925e20c2c8a91731c52a4d6c5bc35ddffc5b7170": "f901f1a07aa37f4e8b1366a6e684d0ca39dfbc36ea645faf486b16404b0319a0d7a290b5a0959f5c9f51975d9547a7b2741130a1227d85e91282973b60ed14283f4b7ea9e980a0eb0147a6c13630999c8f65d437698ef757d29f8ae4e251554df9da7d2271cd94a0855acc3496e4c492ab905d1283e41ff4d1852a31494e06f7aaa642f99169cb42a03bf44bb148a3b72cd7a8857194b6b1f08649293fd930b1fd1c2292071372e58aa0f820e589d2219ae3f297594cfd731f2ec64d19b1ba0f918369e9b413c126732da0f1d3f558fb9b9d9c21f3f4fcf667ee86d3f0aac1350707c868141c0d942f1e06a00cc7cac9827e1a94b47d85e478f41dc49207a9c0b9a6f0a19bf49deca3bac22ca0e6e82a109ac4e5daed8f76043d8393d0298472e0518ff96a48b8492e479881fba0567c19d33f869e7443d72fe148cf7bdc4641349d386dabd4362d74b89132b156a054cab2921d01b8ab026305874aca3f192ae1af8f0bb0c5d39e381645509e3931a09ffb32d6224f14aab2c1a482300ece996d60fbc4e507357e5bacb74fdb6562c6a0d5c3f35b3433034102536147a3dcfd190c7bb81fe37c4801a018ecc677f34deca08333762fcaf7193e048ab228010951a924224adf67ad901b5e98441becfcbbd7a0ef1161e2e879e2d1f3d6a768d8b5b17a77a54e5ed3ce608f04c3dc5f5fbd23ec80",
    "0cc7cac9827e1a94b47d85e478f41dc49207a9c0b9a6f0a19bf49deca3bac22c": "f851808080808080808080a0f15dcd31d4127732304c51d0f4cefe4fe81e90bb474e164334466fbc72fb5d3580a0cf04c0615ef0861ff80c0cd8472b52551c627d0673af11388e859d6ba610390c8080808080",
    "344e298a4c1e7b27af5ac6806544188c9cc6ab3026f88fed3e63db179a9fbc04": "f851a0e29cd6451f96ed556022f6076eacfbb24d0680280f8a4a588419a89b9a4260aa80808080808080a039b79d7e8066e261df9d9bca6195f88e0dcb0a903fbc7a7b523ed63c23f32d7e8080808080808080",
    "39b79d7e8066e261df9d9bca6195f88e0dcb0a903fbc7a7b523ed63c23f32d7e": "f8729f30c7b7ae81a58eb98d9c78de4a1fd7fd9535fc953ed2be602daaa41767312ab850f84e808ad3c21bd2b1b197454d7da056e81f171bcc55a6ff8345e692c0f86e5b48e01b996cadc001622fb5e363b421a0c5d2460186f7233c927e7db2dcc703c0e500b653ca82273b7bfad8045d85a470",
    "3bf44bb148a3b72cd7a8857194b6b1f08649293fd930b1fd1c2292071372e58a": "f851808080a0344e298a4c1e7b27af5ac6806544188c9cc6ab3026f88fed3e63db179a9fbc0480a03d2c9faa594230d254816429f8dc379c30c8b3679ef67f44dd31f3e6822f9a498080808080808080808080",
    "40947538d7aeabb6b9956bbc6d56e25733e9fc2b651fd1bd4ab6236db2fc1d3e": "f8749f3eec2b84f0ba344fd4b4d2f022469febe7a772c4789acfc119eb558ab1da3db852f850158c033b2e3c9e6d3ecada7f4dbca056e81f171bcc55a6ff8345e692c0f86e5b48e01b996cadc001622fb5e363b421a0c5d2460186f7233c927e7db2dcc703c0e500b653ca82273b7bfad8045d85a470",
    "4d28acf9a4ebe44772b87089e703cca372f3c79dab1d361c32269c90e5d0ded7": "f8729f35f36a26b4ab3a7e0edbbc8241a6c302cac010ae108ba112772fdfe46ea0d4b850f84e808ad3c21c08198548ac8ec8a056e81f171bcc55a6ff8345e692c0f86e5b48e01b996cadc001622fb5e363b421a0c5d2460186f7233c927e7db2dcc703c0e500b653ca82273b7bfad8045d85a470",
    "567c19d33f869e7443d72fe148cf7bdc4641349d386dabd4362d74b89132b156": "f87180a031d1eb10fdf37ef90417d463e9e3d1dad5bab6a3e8b38ccc4eaa744250317457808080a0d84a006c9d0cdf19afec487883e8029ef1e919240831c14568c09c9f35c1cd0da08ba744f53d9cd8d1e4ca43aea8eda0535c577e3eda059458f41b6d08a798228880808080808080808080",
    "8ba744f53d9cd8d1e4ca43aea8eda0535c577e3eda059458f41b6d08a7982288": "f869a020bbe7ec37c77894ac1f8d22b5a1fef29dbaf0e9499e9c8afebc3179c85d14ebb846f8440180a056e81f171bcc55a6ff8345e692c0f86e5b48e01b996cadc001622fb5e363b421a08fd4b6b98c0833aaac6f0db7ec632ef00d8e7ddacd7e75240caf170761fa441e",
    "d84a006c9d0cdf19afec487883e8029ef1e919240831c14568c09c9f35c1cd0d": "f85180a040947538d7aeabb6b9956bbc6d56e25733e9fc2b651fd1bd4ab6236db2fc1d3e80808080808080808080a0b352e4c72d853473be5eac69cf10adfdc61a3747ec26a4b424f0a29292fc1d3780808080",
    "f15dcd31d4127732304c51d0f4cefe4fe81e90bb474e164334466fbc72fb5d35": "f8518080a098d0cb0f461988b32c524f081c9641ce96fce99510946457d3e41a33a7eaa8fa8080808080a04d28acf9a4ebe44772b87089e703cca372f3c79dab1d361c32269c90e5d0ded78080808080808080"
  },
  "storageTrie": null,
  "parentStateRoot": "0x03d6fc28b98425157fa9ead0925e20c2c8a91731c52a4d6c5bc35ddffc5b7170",
  "transactionTraces": [
    {
      "txn": "0xf889158496923fd083010b4294e6f00f16667c5c61fec21a365eec2b408815169080a4f637731d0000000000000000000000000000000000000001000346d6ff11672ae55ad010820fc69fcfbd1f8493cf353623b9b6b4be6893c090c3b258aff4f1b0989320a1ee8de9a0438cffb8be903c25de4777596be9ff2c49883951b25132d6269303004674e560",
      "delta": {
        "0x0000000000000000000000000000000000000000": {
          "address": "0x0000000000000000000000000000000000000000",
          "read": true
        },
        "0x27c407D3Cd295E18a19bAdBA4036542aa59eCA91": {
          "address": "0x27c407D3Cd295E18a19bAdBA4036542aa59eCA91",
          "read": true
        },
        "0x85dA99c8a7C2C95964c8EfD687E95E632Fc533D6": {
          "address": "0x85dA99c8a7C2C95964c8EfD687E95E632Fc533D6",
          "nonce": 22,
          "read": true
        },
        "0xE6f00F16667c5C61FeC21a365eeC2B4088151690": {
          "address": "0xE6f00F16667c5C61FeC21a365eeC2B4088151690",
          "storage": {
            "0x0000000000000000000000000000000000000000000000000000000000000000": "0x0001000001000100000000010000000000000001000346d6ff11672ae55ad010",
            "0x0000000000000000000000000000000000000000000000000000000000000008": "0x0100000000000000000000000000000000000000000000000000000064efd786"
          },
          "storage_read": {
            "0x0000000000000000000000000000000000000000000000000000000000000000": {},
            "0x0000000000000000000000000000000000000000000000000000000000000008": {}
          },
          "code_read": "YIBgQFI0gBVhABBXYACA/VtQYAQ2EGEBrldgADVg4ByAY3DPdUoRYQDuV4BjxFoBVRFhAJdXgGPdyj9DEWEAcVeAY93KP0MUYQgAV4Bj8wWDmRRhCCBXgGPzDbqTFGEIKFeAY/Y3cx0UYQiqV2EBrlZbgGPEWgFVFGEH0VeAY9DJOnwUYQfZV4Bj0hIgpxRhB/hXYQGuVluAY4g72/0RYQDIV4BjiDvb/RRhBjNXgGOjQSOnFGEHPFeAY6OIB/IUYQd2V2EBrlZbgGNwz3VKFGEFxleAY4IGpNEUYQXOV4BjhbZnKRRhBfZXYQGuVluAYzhQx70RYQFbV4BjSQ5svBFhATVXgGNJDmy8FGEEcFeAY08es9gUYQT8V4BjUU6kvxRhBU1XgGNTOcKWFGEFpldhAa5WW4BjOFDHvRRhA1tXgGM8in2NFGEDtFeAY0YUExkUYQRWV2EBrlZbgGMa2LA7EWEBjFeAYxrYsDsUYQKqV4BjJSwJ1xRhAuFXgGMyFI9nFGEDOFdhAa5WW4BjDf4WgRRhAbNXgGMSissIFGEB11eAYxpoZQIUYQKGV1tgAID9W2EBu2EI0FZbYECAUWABYAFgoBsDkJIWglJRkIGQA2AgAZDzW2ECbWAEgDYDYKCBEBVhAe1XYACA/VtgAWABYKAbA4I1gRaSYCCBATUVFZJgQIIBNZJgYIMBNRaRkIEBkGCggQFggIIBNWQBAAAAAIERFWECLldgAID9W4IBg2AgggERFWECQFdgAID9W4A1kGAgAZGEYAGDAoQBEWQBAAAAAIMRFxVhAmJXYACA/VtQkJJQkFBhCPRWW2BAgFGSg1JgIIMBkZCRUoBRkYKQAwGQ81thAo5hFK1WW2BAgFFgAWABYIAbA5CSFoJSUZCBkANgIAGQ81thArJhFLxWW2BAUYCDYAFgAWCAGwMWgVJgIAGCYAFgAWCAGwMWgVJgIAGSUFBQYEBRgJEDkPNbYQL+YASANgNgIIEQFWEC91dgAID9W1A1YRTWVltgQIBRY/////+QlRaFUmAGk5CTC2AghQFSYAFgAWCgGwOQkRaDgwFSFRVgYIMBUlGQgZADYIABkPNbYQNZYASANgNgIIEQFWEDTldgAID9W1A1Yf//FmEVHFZbAFthA2NhFhZWW2BAgFFgAWABYKAbA5CYFohSYAKWkJYLYCCIAVJh//+UhRaHhwFSkoQWYGCHAVKSFmCAhQFSYP+QkRZgoIQBUhUVYMCDAVJRkIGQA2DgAZDzW2ECbWAEgDYDYKCBEBVhA8pXYACA/VtgAWABYKAbA4I1FpFgIIEBNWACkIELkmBAgwE1kJELkWABYAFggBsDYGCCATUWkYEBkGCggQFggIIBNWQBAAAAAIERFWEEF1dgAID9W4IBg2AgggERFWEEKVdgAID9W4A1kGAgAZGEYAGDAoQBEWQBAAAAAIMRFxVhBEtXYACA/VtQkJJQkFBhFmZWW2EEXmEZIlZbYECAUZGCUlGQgZADYCABkPNbYQNZYASANgNggIEQFWEEhldgAID9W2ABYAFgoBsDgjUWkWAggQE1kWBAggE1kZCBAZBggIEBYGCCATVkAQAAAACBERVhBL1XYACA/VuCAYNgIIIBERVhBM9XYACA/VuANZBgIAGRhGABgwKEARFkAQAAAACDERcVYQTxV2AAgP1bUJCSUJBQYRkoVlthArJgBIA2A2CggRAVYQUSV2AAgP1bUGABYAFgoBsDgTUWkGAggQE1YAKQgQuRYECBATWQkQuQYAFgAWCAGwNgYIIBNYEWkWCAATUWYR2DVlthBWpgBIA2A2AggRAVYQVjV2AAgP1bUDVhH51WW2BAgFFgAWABYIAbA5aHFoFSYCCBAZWQlVKEgQGTkJNSkIQWYGCEAVKQkhZggIIBUpBRkIGQA2CgAZDzW2EEXmAEgDYDYCCBEBVhBbxXYACA/VtQNWABC2Ef2lZbYQKOYR/sVlthA1lgBIA2A2BAgRAVYQXkV2AAgP1bUGD/gTWBFpFgIAE1FmEgEFZbYQKyYASANgNgYIEQFWEGDFdgAID9W1BgAWABYKAbA4E1FpBgAWABYIAbA2AgggE1gRaRYEABNRZhIg9WW2EGo2AEgDYDYCCBEBVhBklXYACA/VuBAZBgIIEBgTVkAQAAAACBERVhBmRXYACA/VuCAYNgIIIBERVhBnZXYACA/VuANZBgIAGRhGAggwKEARFkAQAAAACDERcVYQaYV2AAgP1bUJCSUJBQYSTcVltgQFGAgGAgAYBgIAGDgQODUoWBgVGBUmAgAZFQgFGQYCABkGAgAoCDg2AAW4OBEBVhBudXgYEBUYOCAVJgIAFhBs9WW1BQUFCQUAGDgQOCUoSBgVGBUmAgAZFQgFGQYCABkGAgAoCDg2AAW4OBEBVhByZXgYEBUYOCAVJgIAFhBw5WW1BQUFCQUAGUUFBQUFBgQFGAkQOQ81thAm1gBIA2A2BggRAVYQdSV2AAgP1bUIA1YAKQgQuRYCCBATWQkQuQYEABNWABYAFggBsDFmElaVZbYQegYASANgNgQIEQFWEHjFdgAID9W1CANWACkIELkWAgATWQC2Em4FZbYECAUWAGlJCUC4RSYAFgAWCgGwOQkhZgIIQBUmP/////FoKCAVJRkIGQA2BgAZDzW2EBu2Eo11ZbYQfhYSj7VltgQIBRYAKSkJILglJRkIGQA2AgAZDzW2EBu2EpH1ZbYQgIYSlDVltgQIBRYv///5CSFoJSUZCBkANgIAGQ81thBF5hKWdWW2EISGAEgDYDYCCBEBVhCD5XYACA/VtQNWACC2EpbVZbYECAUWABYAFggBsDkJkWiVJgD5eQlwtgIIkBUoeHAZWQlVJgYIcBk5CTUmAGkZCRC2CAhgFSYAFgAWCgGwMWYKCFAVJj/////xZgwIQBUhUVYOCDAVJRkIGQA2EBAAGQ81thA1lgBIA2A2AggRAVYQjAV2AAgP1bUDVgAWABYKAbAxZhKdtWW38AAAAAAAAAAAAAAAA41QYqcLAgNYDKDERN8QQa0bzFDoFWW2AAgGEI/2Er8FZbhWEJNldgQIBRYkYbzWDlG4FSYCBgBIIBUmACYCSCAVJhQVNg8BtgRIIBUpBRkIGQA2BkAZD9W2BAgFFg4IEBglJgAFRgAWABYKAbA4EWglJgAWCgG4EEYAKQgQuBC5ALYCCDAVJh//9gAWC4G4IEgRaTgwGTkJNSYAFgyBuBBIMWYGCDAVJgAWDYG4EEkJIWYICCAVJg/2ABYOgbgwSBFmCggwFSYAFg8BuQkgSQkRYVFWDAggGBkFJhCe9XYECAUWJGG81g5RuBUmAgYASCAVJgA2AkggFSYkxPS2DoG2BEggFSkFGQgZADYGQBkP1bh2EKOleAYAABUWABYAFgoBsDFoZgAWABYKAbAxYRgBVhCjVXUHP//Ylj79H8alBkiEldlR1SY5iNJmABYAFgoBsDhxYQW2EKbFZbgGAAAVFgAWABYKAbAxaGYAFgAWCgGwMWEIAVYQpsV1BkAQACdqNgAWABYKAbA4cWEVthCqNXYECAUWJGG81g5RuBUmAgYASCAVJgA2AkggFSYhTUE2DqG2BEggFSkFGQgZADYGQBkP1bYACAVGD/YPAbGRaBVWBAgFFgwIEBkJFSgIphCtJXYASEYKABUWD/FpAcYQrlVltgEIRgoAFRYP8WgWEK41f+WwZbYP8WgVJgBFRgAWABYIAbAxZgIIIBUmBAAWELBmEsJ1ZbY/////8WgVJgIAFgAGAGC4FSYCABYABgAWABYKAbAxaBUmAgAWAAFRWBUlCQUGAAgIkTkFBgAGBAUYBg4AFgQFKAi4FSYCABYACBUmAgAYVgAAFRYAFgAWCgGwMWgVJgIAGFYCABUWACC4FSYCABjGELgldgAlRhC4ZWW2ABVFuBUmAgAWAAYAFgAWCAGwMWgVJgIAGEYCABUWABYAFggBsDFoFSUJBQW4BRFYAVkGEL1VdQiGABYAFgoBsDFoFgQAFRYAFgAWCgGwMWFBVbFWEPn1dhC+JhVg5WW2BAggFRYAFgAWCgGwMWgVJgYIIBUWEMJZBgBpB/AAAAAAAAAAAAAAAAAAAAAAAAAAAAAAAAAAAAAAAAADyPYSwrVlsVFWBAgwFSYAKQgQuBC2AggwGBkFJiDYnnGZELEhVhDFZXYg2J5xlgIIIBUmEMdVZbYCCBAVFiDYnoYAKRkJELExVhDHVXYg2J6GAgggFSW2EMgoFgIAFRYS1tVltgAWABYKAbAxZgYIIBUmBAggFRYQ0TkI1hDLxXi2ABYAFgoBsDFoNgYAFRYAFgAWCgGwMWEWEM1lZbi2ABYAFgoBsDFoNgYAFRYAFgAWCgGwMWEFthDORXgmBgAVFhDOZWW4tbYMCFAVGFUX8AAAAAAAAAAAAAAAAAAAAAAAAAAAAAAAAAAAAAAAALuGEwn1ZbYMCFAVJgoIQBUmCAgwFSYAFgAWCgGwMWYECDAVKCFWENdVdhDUmBYMABUYJggAFRAWEykVZbglEDglJgoIEBUWENa5BhDWCQYTKRVltgIIQBUZBhMqdWW2AggwFSYQ2wVlthDYKBYKABUWEykVZbglEBglJgwIEBUWCAggFRYQ2qkWENn5EBYTKRVltgIIQBUZBhMsNWW2AggwFSW4NRYP8WFWEN9ldgAIRgAAFRYP8WgmDAAVGBYQ3QV/5bYMCEAYBRkpCRBJGCkAOQUmCghAGAUZCRAWABYAFggBsDFpBSUFtgwIIBUWABYAFggBsDFhVhDjVXYQ4pgWDAAVFgAWCAG4RgwAFRYAFgAWCAGwMWYTLZVltggIMBgFGQkQGQUluAYGABUWABYAFgoBsDFoJgQAFRYAFgAWCgGwMWFBVhD15XgGBAAVEVYQ81V4NgoAFRYQ6/V2EOnYRgQAFRYACHYCABUYhgQAFRiGAgAVGKYGABUWAIYTOJkJaVlJOSkZBj/////xZWW2ABYAFgoBsDFmCAhgFSYAaQgQuQC2BghQFSYAFgoIUBUltgAGEPC4JgIAFRjmEO1ldgAVRhDtxWW4RggAFRW49hDutXhWCAAVFhDu9WW2ACVFtggIkBUWBgigFRYECLAVFgBZWUk5KRkGE1HFZbkFCMFWEPF1dgAANbYQ8lg2DAAVGCYTXvVltgAWABYIAbAxZgwIQBUlBbi2EPRFeAYCABUWEPTVZbYAGBYCABUQNbYAKQgQuQC2BggwFSYQ+ZVluAYAABUWABYAFgoBsDFoJgQAFRYAFgAWCgGwMWFGEPmVdhD4yCYEABUWE2pVZbYAKQgQuQC2BggwFSW1BhC69WW4NgIAFRYAILgWBgAVFgAgsUYRB6V2AAgGEP7YZgQAFRhmBAAVGIYCABUYhgIAFRimBgAVGLYIABUWAIYTnRkJaVlJOSkZBj/////xZWW2BAhQFRYGCGAVFgAIBUYf//YMgbGRZgAWDIG2H//5WGFgIXYf//YLgbGRZgAWC4G5WQlBaUkJQCkpCSF2L///9goBsZFmABYKAbYv///2AClJCUC5OQkxaSkJICkZCRF3P//////////////////////////xkWYAFgAWCgGwOQkRYXkFVQYRCskFBWW2BAgQFRYACAVHP//////////////////////////xkWYAFgAWCgGwOQkhaRkJEXkFVbgGDAAVFgAWABYIAbAxaDYCABUWABYAFggBsDFhRhEPJXYMCBAVFgBIBUYAFgAWCAGwMZFmABYAFggBsDkJIWkZCRF5BVW4oVYRFCV2CAgQFRYAFVYKCBAVFgAWABYIAbAxYVYRE9V2CggQFRYAOAVGABYAFggBsDGYEWYAFgAWCAGwORghaQkwEWkZCRF5BVW2ERiFZbYICBAVFgAlVgoIEBUWABYAFggBsDFhVhEYhXYKCBAVFgA4BUYAFgAWCAGwOAghZgAWCAG5KDkASCFpCUARYCkZCRF5BVW4EVFYsVFRRhEaFXYCCBAVGBUYsDYRGuVluAYAABUYoDgWAgAVFbkJZQlFCKFWES51dgAIUSFWER8FdhEfB/AAAAAAAAAAAAAAAA9wEhWb92GzEhU+jI0XaTL+mqp+qNh2AAA2E7hlZbYABhEfphPNRWW5BQM2ABYAFgoBsDFmP6Rh4ziIiMjGBAUYVj/////xZg4BuBUmAEAYCFgVJgIAGEgVJgIAGAYCABgoEDglKEhIKBgVJgIAGSUICChDdgAIGEAVJgHxlgH4IBFpBQgIMBklBQUJVQUFBQUFBgAGBAUYCDA4FgAIeAOxWAFWESfldgAID9W1Ba8RWAFWESklc9YACAPj1gAP1bUFBQUGESnmE81FZbYRKogolhPg1WWxEVYRLhV2BAgFFiRhvNYOUbgVJgIGAEggFSYANgJIIBUmJJSUFg6BtgRIIBUpBRkIGQA2BkAZD9W1BhFBFWW2AAhhIVYRMeV2ETHn8AAAAAAAAAAAAAAAA41QYqcLAgNYDKDERN8QQa0bzFDo2IYAADYTuGVltgAGETKGE+HVZbkFAzYAFgAWCgGwMWY/pGHjOIiIyMYEBRhWP/////FmDgG4FSYAQBgIWBUmAgAYSBUmAgAYBgIAGCgQOCUoSEgoGBUmAgAZJQgIKEN2AAgYQBUmAfGWAfggEWkFCAgwGSUFBQlVBQUFBQUGAAYEBRgIMDgWAAh4A7FYAVYROsV2AAgP1bUFrxFYAVYRPAVz1gAIA+PWAA/VtQUFBQYRPMYT4dVlthE9aCiGE+DVZbERVhFA9XYECAUWJGG81g5RuBUmAgYASCAVJgA2AkggFSYklJQWDoG2BEggFSkFGQgZADYGQBkP1bUFtgQICCAVFgwIMBUWBggIUBUYRRi4FSYCCBAYuQUmABYAFgoBsDlIUWgYcBUmABYAFggBsDkJMWkYMBkZCRUmACC2CAggFSkVGQjhaRM5F/xCB5+UpjUNfmI18pF0kk+SjMKsgY62T+2ABOEV+8ymeRgZADYKABkKNQUGAAgFRg/2DwGxkWYAFg8BsXkFVQkZiQl1CVUFBQUFBQVltgBFRgAWABYIAbAxaBVltgA1RgAWABYIAbA4CCFpFgAWCAG5AEFoJWW2AIgWH//4EQYRTnV2AAgP1bAVRj/////4EWkVBkAQAAAACBBGAGC5BgAWBYG4EEYAFgAWCgGwMWkGABYPgbkARg/xaEVltgAFRgAWDwG5AEYP8WYRVgV2BAgFFiRhvNYOUbgVJgIGAEggFSYANgJIIBUmJMT0tg6BtgRIIBUpBRkIGQA2BkAZD9W2AAgFRg/2DwGxkWkFVhFXVhK/BWW2AAgFRgAWDYG5AEYf//FpBhFZFgCIOFYT61VltgAIBUYf//gIQWYAFg2BuBAmH//2DYGxmQkxaSkJIXkJJVkZJQgxYUYRX+V2BAgFFh//+AhRaCUoMWYCCCAVKBUX+sSeUY+Qo1j2UuRAAWTwWl2PfjXndHJ5vDqT2/WE4SWpKRgZADkJEBkKFbUFBgAIBUYP9g8BsZFmABYPAbF5BVUFZbYABUYAFgAWCgGwOBFpBgAWCgG4EEYAILkGH//2ABYLgbggSBFpFgAWDIG4EEghaRYAFg2BuCBBaQYP9gAWDoG4IEgRaRYAFg8BuQBBaHVltgAIBUgZBgAWDwG5AEYP8WYRatV2BAgFFiRhvNYOUbgVJgIGAEggFSYANgJIIBUmJMT0tg6BtgRIIBUpBRkIGQA2BkAZD9W2AAgFRg/2DwGxkWkFVgAWABYIAbA4UWYRbNV2AAgP1bYACAYRcbYEBRgGCAAWBAUoCMYAFgAWCgGwMWgVJgIAGLYAILgVJgIAGKYAILgVJgIAFhFxGKYAFgAWCAGwMWYT9YVltgDwuQUmE/aVZbklCSUFCBk1CAklBgAIBgAIYRFWEXPVdhFzphPNRWW5FQW4QVYRdOV2EXS2E+HVZbkFBbM2ABYAFgoBsDFmPTSHmXh4eLi2BAUYVj/////xZg4BuBUmAEAYCFgVJgIAGEgVJgIAGAYCABgoEDglKEhIKBgVJgIAGSUICChDdgAIGEAVJgHxlgH4IBFpBQgIMBklBQUJVQUFBQUFBgAGBAUYCDA4FgAIeAOxWAFWEX0FdgAID9W1Ba8RWAFWEX5Fc9YACAPj1gAP1bUFBQUGAAhhEVYRg7V2EX+WE81FZbYRgDg4hhPg1WWxEVYRg7V2BAgFFiRhvNYOUbgVJgIGAEggFSYAJgJIIBUmEE02D0G2BEggFSkFGQgZADYGQBkP1bhBVhGItXYRhJYT4dVlthGFOCh2E+DVZbERVhGItXYECAUWJGG81g5RuBUmAgYASCAVJgAmAkggFSYU0xYPAbYESCAVKQUZCBkANgZAGQ/VuJYAILi2ACC41gAWABYKAbAxZ/elMIC6QUFYvn7Gm5h7X7fQfe4QH+hUiPCFOuFiOdC94zjYuLYEBRgIVgAWABYKAbAxaBUmAgAYRgAWABYIAbAxaBUmAgAYOBUmAgAYKBUmAgAZRQUFBQUGBAUYCRA5CkUFBgAIBUYP9g8BsZFmABYPAbF5BVUJGYkJdQlVBQUFBQUFZbYAJUgVZbYABUYAFg8BuQBGD/FmEZbFdgQIBRYkYbzWDlG4FSYCBgBIIBUmADYCSCAVJiTE9LYOgbYESCAVKQUZCBkANgZAGQ/VtgAIBUYP9g8BsZFpBVYRmBYSvwVltgBFRgAWABYIAbAxaAYRnDV2BAgFFiRhvNYOUbgVJgIGAEggFSYAFgJIIBUmATYPobYESCAVKQUZCBkANgZAGQ/VtgAGEZ+IZ/AAAAAAAAAAAAAAAAAAAAAAAAAAAAAAAAAAAAAAAAC7hi////FmIPQkBhQalWW5BQYABhGi+GfwAAAAAAAAAAAAAAAAAAAAAAAAAAAAAAAAAAAAAAAAu4Yv///xZiD0JAYUGpVluQUGAAYRo7YTzUVluQUGAAYRpHYT4dVluQUIgVYRp6V2Eaen8AAAAAAAAAAAAAAAA41QYqcLAgNYDKDERN8QQa0bzFDouLYTuGVluHFWEaq1dhGqt/AAAAAAAAAAAAAAAA9wEhWb92GzEhU+jI0XaTL+mqp+qLimE7hlZbM2ABYAFgoBsDFmPpy6+whYWKimBAUYVj/////xZg4BuBUmAEAYCFgVJgIAGEgVJgIAGAYCABgoEDglKEhIKBgVJgIAGSUICChDdgAIGEAVJgHxlgH4IBFpBQgIMBklBQUJVQUFBQUFBgAGBAUYCDA4FgAIeAOxWAFWEbLVdgAID9W1Ba8RWAFWEbQVc9YACAPj1gAP1bUFBQUGAAYRtPYTzUVluQUGAAYRtbYT4dVluQUIFhG2iFiGE+DVZbERVhG6BXYECAUWJGG81g5RuBUmAgYASCAVJgAmAkggFSYQRjYPQbYESCAVKQUZCBkANgZAGQ/VuAYRurhIdhPg1WWxEVYRvjV2BAgFFiRhvNYOUbgVJgIGAEggFSYAJgJIIBUmFGMWDwG2BEggFSkFGQgZADYGQBkP1bg4IDg4IDgRVhHHJXYACAVGABYOgbkARgDxaQgRVhHBZXgWD/FoSBYRwQV/5bBGEcGVZbYABbkFBgAWABYIAbA4EWFWEcTFdgA4BUYAFgAWCAGwOAghaEARZgAWABYIAbAxmQkRYXkFVbYRxmgYUDYAFggBuNYAFgAWCAGwMWYTLZVltgAYBUkJEBkFVQUFuAFWEc/VdgAIBUYAFg6BuQBGAEHGAPFpCBFWEcoleBYP8Wg4FhHJxX/lsEYRylVltgAFuQUGABYAFggBsDgRYVYRzXV2ADgFRgAWABYIAbA2ABYIAbgIMEghaFAYIWApEWF5BVW2Ec8YGEA2ABYIAbjWABYAFggBsDFmEy2VZbYAKAVJCRAZBVUFBbjWABYAFgoBsDFjNgAWABYKAbAxZ/vb23HXhgN2ulKyWlAovuojWBNkpAUi9rz7hrsfLcpjOPj4aGYEBRgIWBUmAgAYSBUmAgAYOBUmAgAYKBUmAgAZRQUFBQUGBAUYCRA5CjUFBgAIBUYP9g8BsZFmABYPAbF5BVUFBQUFBQUFBQUFBQVltgAIBUgZBgAWDwG5AEYP8WYR3KV2BAgFFiRhvNYOUbgVJgIGAEggFSYANgJIIBUmJMT0tg6BtgRIIBUpBRkIGQA2BkAZD9W2AAgFRg/2DwGxkWgVVhHeRgBzOJiWFB41ZbYAOBAVSQkVBgAWABYIAbA5CBFpCGFhFhHgVXhGEeFFZbYAOBAVRgAWABYIAbAxZbYAOCAVSQk1BgAWABYIAbA2ABYIAbkJEEgRaQhRYRYR48V4NhHlJWW2ADgQFUYAFggBuQBGABYAFggBsDFluRUGABYAFggBsDgxYVYR63V2ADgQGAVGABYAFggBsDGYEWYAFgAWCAGwORghaGkAOCFheQkVVhHreQfwAAAAAAAAAAAAAAADjVBipwsCA1gMoMRE3xBBrRvMUOkIqQhhZhO4ZWW2ABYAFggBsDghYVYR8dV2ADgQGAVGABYAFggBsDYAFggBuAgwSCFoaQA4IWApGBFpGQkReQkVVhHx2QfwAAAAAAAAAAAAAAAPcBIVm/dhsxIVPoyNF2ky/pqqfqkIqQhRZhO4ZWW2BAgFFgAWABYKAbA4oWgVJgAWABYIAbA4CGFmAggwFShBaBgwFSkFFgAoiBC5KQipALkTORf3CTUzjml3VFaoXd7yJsOV+2aLY/oBFfXyBhCziObKnAkZCBkANgYAGQpFBgAIBUYP9g8BsZFmABYPAbF5BVkJaQlVCTUFBQUFZbYAdgIFJgAJCBUmBAkCCAVGABggFUYAKDAVRgA5CTAVRgAWABYIAbA5KDFpORkoGBFpFgAWCAG5AEFoVWW2AGYCBSYACQgVJgQJAgVIFWW38AAAAAAAAAAAAAAAAAAAAAAAI3RualjcsT1K+CG5PwYoFWW2AAVGABYPAbkARg/xZhIFRXYECAUWJGG81g5RuBUmAgYASCAVJgA2AkggFSYkxPS2DoG2BEggFSkFGQgZADYGQBkP1bYACAVGD/YPAbGRaQVWBAgFFjjaXLW2DgG4FSkFFgAWABYKAbA38AAAAAAAAAAAAAAABYFF95fbKeibHxMvgMEPCa2nw3QhaRY42ly1uRYASAgwGSYCCSkZCCkAMBgYaAOxWAFWEgwVdgAID9W1Ba+hWAFWEg1Vc9YACAPj1gAP1bUFBQUGBAUT1gIIEQFWEg61dgAID9W1BRYAFgAWCgGwMWMxRhIQFXYACA/Vtg/4IWFYBhISRXUGAEgmD/FhAVgBVhISRXUGAKgmD/FhEVW4AVYSFOV1Bg/4EWFYBhIU5XUGAEgWD/FhAVgBVhIU5XUGAKgWD/FhEVW2EhV1dgAID9W2AAgFRhD/BgBISQGxaEAWD/kIEWYAFg6BuQgQJ///8A//////////////////////////////////////+EFheQk1WRkAQWf5c9jZK7KZ9K9s5JtSqK24WuRrnyFMTE/Aasd0ASN7EzYBCCYECAUWD/k5CSBoMWglJgD2AEhpAcFmAggwFShoMWgoIBUpGFFmBgggFSkFGQgZADYIABkKFQUGAAgFRg/2DwGxkWYAFg8BsXkFVQVltgAIBUgZBgAWDwG5AEYP8WYSJWV2BAgFFiRhvNYOUbgVJgIGAEggFSYANgJIIBUmJMT0tg6BtgRIIBUpBRkIGQA2BkAZD9W2AAgFRg/2DwGxkWkFVgQIBRY42ly1tg4BuBUpBRYAFgAWCgGwN/AAAAAAAAAAAAAAAAWBRfeX2ynomx8TL4DBDwmtp8N0IWkWONpctbkWAEgIMBkmAgkpGQgpADAYGGgDsVgBVhIsNXYACA/VtQWvoVgBVhItdXPWAAgD49YAD9W1BQUFBgQFE9YCCBEBVhIu1XYACA/VtQUWABYAFgoBsDFjMUYSMDV2AAgP1bYANUYAFgAWCAGwOQgRaQhRYRYSMfV4NhIyxWW2ADVGABYAFggBsDFltgA1SQklBgAWABYIAbA2ABYIAbkJEEgRaQhBYRYSNSV4JhI2ZWW2ADVGABYIAbkARgAWABYIAbAxZbkFBgAWABYIAbA4IWFWEj51dgA1RgAWABYIAbA4OBFpEWFBVhI5VXYAAZkJEBkFtgA4BUYAFgAWCAGwMZgRZgAWABYIAbA5GCFoWQA4IWF5CRVWEj55B/AAAAAAAAAAAAAAAAONUGKnCwIDWAygxETfEEGtG8xQ6Qh5CFFmE7hlZbYAFgAWCAGwOBFhVhJG1XYANUYAFgAWCAGwOCgRZgAWCAG5CSBBYUFWEkGFdgABkBW2ADgFRgAWABYIAbA2ABYIAbgIMEghaFkAOCFgKRgRaRkJEXkJFVYSRtkH8AAAAAAAAAAAAAAAD3ASFZv3YbMSFT6MjRdpMv6aqn6pCHkIQWYTuGVltgQIBRYAFgAWCAGwOAhRaCUoMWYCCCAVKBUWABYAFgoBsDiBaSM5J/WWtXOQYhjTQRhQsmprQ31sRSL9tD0tI4YmP4bVC4sVGSkIGQA5CRAZCjYACAVGD/YPAbGRZgAWDwGxeQVZCUkJNQkVBQVltgYIBhJOdhK/BWW2ElXmEk8mEsJ1ZbhYWAgGAgAmAgAWBAUZCBAWBAUoCTkpGQgYFSYCABg4NgIAKAgoQ3YACSAYKQUlBUYARUYAiWlZRQYAFgoBuCBGACC5NQYf//YAFguBuDBIEWk1BgAWABYIAbA5CRFpFgAWDIG5AEFmFCR1ZbkVCRUJJQkpBQVltgAIBUgZBgAWDwG5AEYP8WYSWwV2BAgFFiRhvNYOUbgVJgIGAEggFSYANgJIIBUmJMT0tg6BtgRIIBUpBRkIGQA2BkAZD9W2AAgFRg/2DwGxkWgVVgQIBRYICBAYJSM4FSYAKIgQtgIIMBUoeQC5GBAZGQkVKBkIGQYSYJkGBggQFhJfxgAWABYIAbA4oWYT9YVltgAANgDwuQUmE/aVZbklCSUJJQgWAAA5RQgGAAA5NQYACFEYBhJipXUGAAhBFbFWEmaVdgA4MBgFRgAWABYIAbA4CCFoCJAYIWYAFggBuThJAEgxaJAZCSFpCSApCRF2ABYAFggBsDGRYXkFVbYECAUWABYAFggBsDiBaBUmAggQGHkFKAggGGkFKQUWACiYELkpCLkAuRM5F/DDls2Ymjn0RZtfoa7Wqajc28RZCKz9Z+AozVaNqYmCyRkIGQA2BgAZCkUFBgAIBUYP9g8BsZFmABYPAbF5BVUJCUkJNQkVBQVltgAIBgAGEm7WEr8FZbYSb3hYVhQ6FWW2AChYELgQtgAJCBUmAFYCBSYECAgiCHhAuQkwuCUoEgYAODAVRgBoGQC5NnAQAAAAAAAACCBGABYAFgoBsDFpKEkmABYNgbgQRj/////xaShJKQkWABYPgbkARg/xaAYSdfV2AAgP1bYAOCAVRgBoGQC5hQZwEAAAAAAAAAgQRgAWABYKAbAxaWUGABYNgbgQRj/////xaUUGABYPgbkARg/xaAYSekV2AAgP1bUFBgQIBRYOCBAYJSYABUYAFgAWCgGwOBFoJSYAFgoBuBBGACkIELgQuBC2AghAGBkFJh//9gAWC4G4QEgRaVhQGVkJVSYAFgyBuDBIUWYGCFAVJgAWDYG4MEkJQWYICEAVJg/2ABYOgbgwSBFmCghQFSYAFg8BuQkgSQkRYVFWDAgwFSkJNQjoELkZALEhWQUGEoTVdQk5CUA5ZQkAOTUJADkFBhKNBWW4pgAguBYCABUWACCxIVYSjBV2AAYShpYSwnVltgIIMBUWBAhAFRYARUYGCGAVGTlFBgAJOEk2Eon5NgCJOIk4eTkpFgAWABYIAbAxaQYTOJVluakAOYkJgDm1BQlJCWA5KQkgOWUJCRAwOSUGEo0JFQUFZbUJSQkwOWUAOTUJADkFBbklCSUJJWW38AAAAAAAAAAAAAAABYFF95fbKeibHxMvgMEPCa2nw3QoFWW38AAAAAAAAAAAAAAAAAAAAAAAAAAAAAAAAAAAAAAAAAPIFWW38AAAAAAAAAAAAAAAD3ASFZv3YbMSFT6MjRdpMv6aqn6oFWW38AAAAAAAAAAAAAAAAAAAAAAAAAAAAAAAAAAAAAAAALuIFWW2ABVIFWW2AFYCBSYACQgVJgQJAggFRgAYIBVGACgwFUYAOQkwFUYAFgAWCAGwODFpNgAWCAG5CTBGAPC5KQYAaBkAuQZwEAAAAAAAAAgQRgAWABYKAbAxaQYAFg2BuBBGP/////FpBgAWD4G5AEYP8WiFZbYABUYAFgAWCgGwMWFWEqHldgQIBRYkYbzWDlG4FSYCBgBIIBUmACYCSCAVJhQUlg8BtgRIIBUpBRkIGQA2BkAZD9W2AAYSopgmE2pVZbkFBgAIBhKkFhKjlhLCdWW2AIkGFEalZbYECAUWDggQGCUmABYAFgoBsDiBaAglJgAoiBC2AggIUBgpBSYACFhwGBkFJh//+JgRZgYIgBgZBSkIkWYICIAYGQUmCgiAGDkFJgAWDAkJgBl5CXUoFUYAFg8Btz//////////////////////////8ZkJEWhxdi////YKAbGRZgAWCgG2L///+Xh5ALl5CXFpaQlgKVkJUXf///////AAAAAP//////////////////////////////FmABYMgbkJECF2H//2DYGxkWYAFg2BuQlgKVkJUXf/8AAP//////////////////////////////////////FpKQkheQk1WDUZGCUoEBkZCRUoFRk5VQkZNQf5hjYDbLZqnBmjdDXvwekBQhkCFOir64Ib26PymQ3UyVkpGCkAMBkKFQUFBQVltgAICCYAKBkAtiDYnnGYFhK5lX/lsFApBQYACDYAKBkAtiDYnogWErsFf+WwUCkFBgAIRgAguDgwNgAguBYSvHV/5bBWABAZBQgGL///8WYAFgAWCAGwOAFoFhK+RX/lsEk1BQUFBbkZBQVlswYAFgAWCgGwN/AAAAAAAAAAAAAAAA5vAPFmZ8XGH+who2XuwrQIgVFpAWFGEsJVdgAID9W1ZbQpBWW2AAgGAAhGACC4ZgAguBYSw/V/5bBZBQYACGYAILEoAVYSxmV1CEYAILhmACC4FhLF9X/lsHYAILFRVbFWEscFdgABkBW4MVYSzlV2AAgGEsgoNhRLZWW2ABgoELgQtgAJCBUmAgjZBSYECQIFRg/4MWkZCRG4ABYAAZAZCBFoAVFZdQkpRQkJJQkIVhLMdXiINg/xaGAwJhLNpWW4hhLNGCYUTIVluEA2D/FoYDAluWUFBQUFBhLWNWW2AAgGEs9INgAQFhRLZWW5FQkVBgAGABgmD/FmABkBsDGZBQYACBi2AAhmABC2ABC4FSYCABkIFSYCABYAAgVBaQUIBgABQVlVCFYS1GV4iDYP8DYP8WhmABAQECYS1cVluIg2EtUYNhRWhWWwNg/xaGYAEBAQJbllBQUFBQW1CUUJSSUFBQVltgAIBgAINgAgsSYS2EV4JgAgthLYxWW4JgAgtgAANbkFBiDYnogREVYS3KV2BAgFFiRhvNYOUbgVJgIGAEggFSYAFgJIIBUmAVYPobYESCAVKQUZCBkANgZAGQ/VtgAGABghZhLd5XYAFggBthLfBWW2///LkzvW+tN6otFi0aWUABW3D//////////////////////xaQUGACghYVYS4kV2//+XJyNz1BMlmkaZBYDiE6AmCAHFtgBIIWFWEuQ1dv//LlD19laTLvEjV888f9zAJggBxbYAiCFhVhLmJXb//lysp+EOTmHDYk6qCUHNACYIAcW2AQghYVYS6BV2//y5hD1g9hWcnbWINckmZEAmCAHFtgIIIWFWEuoFdv/5c7QfqYwIFHLmiW37JUwAJggBxbYECCFhVhLr9Xb/8uoWRmyWo4Q+x4sya1KGECYIAcW2CAghYVYS7eV2/+Xe4EapmiqBHEYfGWnDBTAmCAHFthAQCCFhVhLv5Xb/y+hseQCoiu3P/IO0eao6QCYIAcW2ECAIIWFWEvHldv+YenJTrEExdvKwdM94FeVAJggBxbYQQAghYVYS8+V2/zOSsIIrcABZQMejmOS3DzAmCAHFthCACCFhVhL15Xb+cVlHWiwpt0Q7Kcf6boidkCYIAcW2EQAIIWFWEvfldv0Jfzvf0gIriEWtj3kqpYJQJggBxbYSAAghYVYS+eV2+p90ZGLYcP34pl3B+Q4GHlAmCAHFthQACCFhVhL75Xb3DYaaFW0qG4kLs99iuvMvcCYIAcW2GAAIIWFWEv3ldvMb4TX5fQj9mBIxUFVC/PpgJggBxbYgEAAIIWFWEv/1dvCapQi1t6hOHGd95U8+mbyQJggBxbYgIAAIIWFWEwH1duXWr43tuBGWaZwykiXuYEAmCAHFtiBAAAghYVYTA+V20iFuWE9foeqSYEG+3+mAJggBxbYggAAIIWFWEwW1drBIoXA5H33EJETo+iAmCAHFtgAIRgAgsTFWEwdleAYAAZgWEwclf+WwSQUFtkAQAAAACBBhVhMIpXYAFhMI1WW2AAW2D/FmAggpAcAZJQUFCRkFBWW2AAgICAYAFgAWCgGwOAiRaQihYQFYGHEoAVkGExJFdgAGEw2ImJYg9CQANi////FmIPQkBhMtlWW5BQgmEw8VdhMOyMjIxgAWFGUlZbYTD+VlthMP6LjYxgAWFGzVZblVCFgRBhMQ9XipZQYTEeVlthMRuMi4OGYUeKVluWUFtQYTFuVluBYTE7V2ExNouLi2AAYUbNVlthMUhWW2ExSIqMi2AAYUZSVluTUIOIYAADEGExXFeJlVBhMW5WW2Exa4uKimAAA4VhR9ZWW5VQW2ABYAFgoBsDioEWkIcWFIIVYTHRV4CAFWExjVdQgVthMaNXYTGeh42MYAFhRs1WW2ExpVZbhVuVUICAFWExsldQgRVbYTHIV2Exw4eNjGAAYUZSVlthMcpWW4RblFBhMhtWW4CAFWEx21dQgVthMfFXYTHsjIiMYAFhRlJWW2Ex81ZbhVuVUICAFWEyAFdQgRVbYTIWV2EyEYyIjGAAYUbNVlthMhhWW4RblFBbgRWAFWEyK1dQiGAAA4URWxVhMjdXiGAAA5RQW4GAFWEyVldQimABYAFgoBsDFodgAWABYKAbAxYUFVsVYTJlV4WJA5NQYTKCVlthMn+GiWL///8WimIPQkADYv///xZhQalWW5NQW1BQUJVQlVCVUJWRUFBWW2AAYAFg/xuCEGEyo1dgAID9W1CQVluAggOCgRMVYACDEhUUYTK9V2AAgP1bkpFQUFZbgYEBgoESFWAAgxIVFGEyvVdgAID9W2AAgIBgABmFhwmGhgKSUIKBEJCDkAMDkFCAYTMPV2AAhBFhMwRXYACA/VtQgpAEkFBhM4JWW4CEEWEzG1dgAID9W2AAhIaICWAAhoEDhxaWh5AElmACYAOJAoEYgIoCggMCgIoCggMCgIoCggMCgIoCggMCgIoCggMCgIoCkJEDApGBkAOBkARgAQGGhBGQlQOUkJQCkZCUA5KQkgSRkJEXkZCRApFQUFuTklBQUFZbYACAY/////+HFmE0MFdgAImGYf//FmH//4EQYTOqV/5bYECAUWCAgQGCUpGQkgFUY/////+AghaAhFJkAQAAAACDBGAGkIELgQuQC2AghQFSYAFgWBuDBGABYAFgoBsDFpSEAZSQlFJgAWD4G5CRBGD/FhUVYGCDAVKQklCKFhRhNBxXYTQZgYqJiGFIIlZbkFBbgGAgAVGBYEABUZJQklBQYTUQVluGiANgAIBhNEWMjIWMjIyMYUjSVluRUJFQgWAAAVFj/////xaDY/////8WFBVhNHdXgWAgAVGCYEABUZRQlFBQUFBhNRBWW4BRY/////+EgRaRFhQVYTSfV4BgIAFRgWBAAVGUUJRQUFBQYTUQVluBUYFRYCCAhQFRkIQBUZGDkAOShgORY/////+AhBaSkIUWkQNgBguBYTTNV/5bBQKEYCABUQGCY/////8WgmP/////FoZgQAFRhmBAAVEDYAFgAWCgGwMWAoFhNP9X/lsEhWBAAVEBllCWUFBQUFBQW5dQl5VQUFBQUFBWW2AClYYLhgtgAJCBUmAgl5CXUmBAkJYgYAGBAYBUkJUDkJRVk4MBgFSQkgOQkVVgA4IBgFRj/////2ABYNgbYAFgAWCgGwNnAQAAAAAAAACAhQSCFpCWAxaQlAJ///////8AAAAAAAAAAAAAAAAAAAAAAAAAAP////////+QkhaRkJEXYAaBgQuQlgOQlQtm/////////xZm/////////xmQlRaUkJQXgoEEhRaQlQOQkxYCY/////9g2BsZkJMWkpCSF5BVVGABYIAbkARgDwuQVltgAICCYA8LEhVhNlRXgmABYAFggBsDFoJgAAOEA5FQgWABYAFggBsDFhBhNk9XYECAUWJGG81g5RuBUmAgYASCAVJgAmAkggFSYUxTYPAbYESCAVKQUZCBkANgZAGQ/VthMr1WW4JgAWABYIAbAxaChAGRUIFgAWABYIAbAxYQFWEyvVdgQIBRYkYbzWDlG4FSYCBgBIIBUmACYCSCAVJhTEFg8BtgRIIBUpBRkIGQA2BkAZD9W2AAZAEAAnajYAFgAWCgGwODFhCAFZBhNuFXUHP//Ylj79H8alBkiEldlR1SY5iNJmABYAFgoBsDgxYQW2E3FldgQIBRYkYbzWDlG4FSYCBgBIIBUmABYCSCAVJgKWD5G2BEggFSkFGQgZADYGQBkP1bd///////////////////////////AAAAAGAgg5AbFmABYAFggBsDgRFgBxuBgRxn//////////+BEWAGG5CBHGP/////gRFgBRuQgRxh//+BEWAEG5CBHGD/gRFgA5CBG5GCHGAPgRFgAhuQgRyRghFgAZCBG5KDHJeQiBGWF5CUF5CSFxeQkRcXF2CAgRBhN7dXYH+BA4OQHJFQYTfBVluAYH8Dg5AbkVBbkIACYH+BgRxg/4OBHJGQkRyAAoCDHIGDHByAAoCEHIGEHByAAoCFHIGFHByAAoCGHIGGHByAAoCHHIGHHByAAoCIHIGIHByAAoCJHIGJHByAAoCKHIGKHByAAoCLHIGLHByAAoCMHIGMHByAAoCNHIGNHByAAoCOHJyBkByckJwcgAKcjZAcnp1gfxmPAWBAG2DAkZCRHGeAAAAAAAAAABYXYMGbkJscZ0AAAAAAAAAAFpqQmhdgwpmQmRxnIAAAAAAAAAAWmJCYF2DDl5CXHGcQAAAAAAAAABaWkJYXYMSVkJUcZwgAAAAAAAAAFpSQlBdgxZOQkxxnBAAAAAAAAAAWkpCSF2DGkZCRHGcCAAAAAAAAABYXYMeRkJEcZwEAAAAAAAAAFhdgyJGQkRxmgAAAAAAAABYXYMmRkJEcZkAAAAAAAAAWF2DKkZCRHGYgAAAAAAAAFhdgy5GQkRxmEAAAAAAAABYXYMyRkJEcZggAAAAAAAAWF2DNkZCRHGYEAAAAAAAAFhdpNiejAdcQVXdMhYECbwKPZIGrfwRaWvASoZ0AOqkZgQFggJCBHZBv2y3wnoGVmoFFXiYHmaBjL4MBkB1gAoGBC5CDkAsUYTnCV4hgAWABYKAbAxZhOaaCYS1tVltgAWABYKAbAxYRFWE5u1eBYTm9VluAW2E5xFZbgVuZmFBQUFBQUFBQUFZbYACAYACJiWH//xZh//+BEGE551f+W2BAgFFggIEBglKRkJIBVGP/////gIIWgIRSZAEAAAAAgwRgBpCBC4ELkAtgIIUBUmABYFgbgwRgAWABYKAbAxaUhAGUkJRSYAFg+BuQkQRg/xYVFWBggwFSkJJQiRYUFWE6V1eIhZJQklBQYTUQVluEYf//FoRh//8WEYAVYTp4V1BgAYUDYf//Folh//8WFFsVYTqFV4ORUGE6iVZbhJFQW4Fh//8WiWABAWH//xaBYTqdV/5bBpJQYTqsgYmJiWFIIlZbioRh//8WYf//gRBhOr1X/luCUZEBgFRgIIQBUWBAhQFRYGCQlQFRFRVgAWD4GwJ+/////////////////////////////////////////2ABYAFgoBsDkJYWYAFgWBsCf/8AAAAAAAAAAAAAAAAAAAAAAAAAAP//////////////YAaTkJMLZv////////8WZAEAAAAAAmr/////////AAAAABlj/////5CXFmP/////GZCVFpSQlBeVkJUWkpCSFxaSkJIXkpCSFheQVVCXUJeVUFBQUFBQVltgQIBRYAFgAWCgGwOEgRZgJIMBUmBEgIMBhZBSg1GAhAOQkQGBUmBkkJIBg1JgIIIBgFFgAWABYOAbAxZjqQWcu2DgGxeBUpJRglFgAJSFlJOJFpOSkYKRkICDg1tgIIMQYTwCV4BRglJgHxmQkgGRYCCRggGRAWE741ZbYAGDYCADYQEACgOAGYJRFoGEURaAgheFUlBQUFBQUJBQAZFQUGAAYEBRgIMDgWAAhlrxkVBQPYBgAIEUYTxkV2BAUZFQYB8ZYD89ARaCAWBAUj2CUj1gAGAghAE+YTxpVltgYJFQW1CRUJFQgYAVYTyXV1CAURWAYTyXV1CAgGAgAZBRYCCBEBVhPJRXYACA/VtQUVthPM1XYECAUWJGG81g5RuBUmAgYASCAVJgAmAkggFSYSojYPEbYESCAVKQUZCBkANgZAGQ/VtQUFBQUFZbYECAUTBgJICDAZGQkVKCUYCDA5CRAYFSYESQkQGCUmAggQGAUWABYAFg4BsDFmNwoIIxYOAbF4FSkVGBUWAAk4SThJNgAWABYKAbA38AAAAAAAAAAAAAAAA41QYqcLAgNYDKDERN8QQa0bzFDhaTkZKQkYKRkICDg1tgIIMQYT1tV4BRglJgHxmQkgGRYCCRggGRAWE9TlZbYAGDYCADYQEACgOAGYJRFoGEURaAgheFUlBQUFBQUJBQAZFQUGAAYEBRgIMDgYVa+pFQUD2AYACBFGE9zVdgQFGRUGAfGWA/PQEWggFgQFI9glI9YABgIIQBPmE90lZbYGCRUFtQkVCRUIGAFWE95ldQYCCBURAVW2E971dgAID9W4CAYCABkFFgIIEQFWE+BFdgAID9W1BRklBQUJBWW4CCAYKBEBVhMr1XYACA/VtgQIBRMGAkgIMBkZCRUoJRgIMDkJEBgVJgRJCRAYJSYCCBAYBRYAFgAWDgGwMWY3CggjFg4BsXgVKRUYFRYACThJOEk2ABYAFgoBsDfwAAAAAAAAAAAAAAAPcBIVm/dhsxIVPoyNF2ky/pqqfqFpORkpCRgpGQgIODYCCDEGE9bVeAUYJSYB8ZkJIBkWAgkYIBkQFhPU5WW2AAgINh//8WEWE+81dgQIBRYkYbzWDlG4FSYCBgBIIBUmABYCSCAVJgSWD4G2BEggFSkFGQgZADYGQBkP1bgmH//xaCYf//FhFhPwlXUIFhM4JWW4JbgmH//xaBYf//FhAVYT9PV2ABhYJh//8WYf//gRBhPy5X/lsBgFRj/////xkWY/////+SkJIWkZCRF5BVYAEBYT8LVltQkJOSUFBQVluAYA+BkAuBFGEr61dgAID9W2AAgGAAYT92YSvwVlthP4iEYCABUYVgQAFRYUOhVltgQIBRYOCBAYJSYABUYAFgAWCgGwOBFoJSYAFgoBuBBGACkIELgQuQC2AggIQBgpBSYf//YAFguBuEBIEWhYcBUmABYMgbhASBFmBggIcBkZCRUmABYNgbhQSQkRZggIYBUmD/YAFg6BuFBIEWYKCHAVJgAWDwG5CUBJCTFhUVYMCFAVKIUZCJAVGUiQFRkokBUZOUYUAslJGTkJKQkZBhSs9WW5NQhGBgAVFgDwtgABRhQaFXhGAgAVFgAguBYCABUWACCxIVYUCBV2FAemFAY4ZgIAFRYS1tVlthQHCHYEABUWEtbVZbh2BgAVFhTIRWW5JQYUGhVluEYEABUWACC4FgIAFRYAILEhVhQXdXYARUYECCAVFgAWABYIAbA5CRFpBhQNOQYUC3YSwnVltgIIUBUWBghgFRYICHAVFgCJSTkpGHkWE50VZbYACAVGH//2DIGxkWYAFgyBth//+ThBYCF2H//2C4GxkWYAFguBuTkJIWkpCSAheQVYFRYECHAVFhQSORkGFBGZBhLW1WW4hgYAFRYUyEVluTUGFBQWFBNYdgIAFRYS1tVluDUWBgiQFRYUzIVluSUGFBUYGHYGABUWE171ZbYASAVGABYAFggBsDGRZgAWABYIAbA5KQkhaRkJEXkFVQYUGhVlthQZ5hQYeGYCABUWEtbVZbYUGUh2BAAVFhLW1WW4dgYAFRYUzIVluRUFtQkZOQklBWW2AAYUG2hISEYTLZVluQUGAAgoBhQcJX/luEhgkRFWEzgldgABmBEGFB2VdgAID9W2ABAZOSUFBQVltgQIBRYGCUkJQba////////////////xkWYCCAhgGRkJFSYAKThAtg6JCBG2A0hwFSkpCTC5CRG2A3hAFSgFGAhANgGgGBUmA6kJMBgVKCUZKCAZKQkiBgAJCBUpKQUpAgkFZbYGCAYACDYf//FhFhQodXYECAUWJGG81g5RuBUmAgYASCAVJgAWAkggFSYElg+BtgRIIBUpBRkIGQA2BkAZD9W4ZRZ///////////gRGAFWFCn1dgAID9W1BgQFGQgIJSgGAgAmAgAYIBYEBSgBVhQslXgWAgAWAgggKANoM3AZBQW1CRUIZRZ///////////gRGAFWFC5FdgAID9W1BgQFGQgIJSgGAgAmAgAYIBYEBSgBVhQw5XgWAgAWAgggKANoM3AZBQW1CQUGAAW4dRgRAVYUOUV2FDP4qKioSBUYEQYUMuV/5bYCACYCABAVGKioqKYTOJVluEg4FRgRBhQ0tX/ltgIAJgIAEBhISBUYEQYUNeV/5bYCACYCABAYJgAWABYKAbAxZgAWABYKAbAxaBUlCCYAYLYAYLgVJQUFCAgGABAZFQUGFDFFZbUJdQl5VQUFBQUFBWW4BgAguCYAILEmFD4VdgQIBRYkYbzWDlG4FSYCBgBIIBUmADYCSCAVJiVExVYOgbYESCAVKQUZCBkANgZAGQ/VtiDYnnGWACg5ALEhVhRCRXYECAUWJGG81g5RuBUmAgYASCAVJgA2AkggFSYlRMTWDoG2BEggFSkFGQgZADYGQBkP1bYg2J6GACgpALExVhRGZXYECAUWJGG81g5RuBUmAgYASCAVJgA2AkggFSYlRVTWDoG2BEggFSkFGQgZADYGQBkP1bUFBWW2BAgFFggIEBglJj/////5KDFoCCUmAAYCCDAYGQUpKCAZKQklJgAWBgkJEBgZBSg1Rj/////xkWkJEXkJEWYAFg+BsXkJFVkIGQVltgAgtgCIGQHZFhAQCQkQeQVltgAICCEWFE1ldgAID9W2ABYIAbghBhROlXYICRghyRAVtoAQAAAAAAAAAAghBhRQFXYECRghyRAVtkAQAAAACCEGFFFVdgIJGCHJEBW2IBAACCEGFFJ1dgEJGCHJEBW2EBAIIQYUU4V2AIkYIckQFbYBCCEGFFSFdgBJGCHJEBW2AEghBhRVhXYAKRghyRAVtgAoIQYSvrV2ABAZGQUFZbYACAghFhRXZXYACA/VtQYP9gAWABYIAbA4IWFWFFkVdgfxkBYUWZVltggIKQHJFQW2f//////////4IWFWFFsldgPxkBYUW6VltgQIKQHJFQW2P/////ghYVYUXPV2AfGQFhRddWW2AggpAckVBbYf//ghYVYUXqV2APGQFhRfJWW2AQgpAckVBbYP+CFhVhRgRXYAcZAWFGDFZbYAiCkByRUFtgD4IWFWFGHldgAxkBYUYmVltgBIKQHJFQW2ADghYVYUY4V2ABGQFhRkBWW2ACgpAckVBbYAGCFhVhK+tXYAAZAZGQUFZbYACDYAFgAWCgGwMWhWABYAFgoBsDFhEVYUZyV5KTkluBYUafV2FGmoNgAWABYIAbAxaGhgNgAWABYKAbAxZgAWBgG2Ey2VZbYUbCVlthRsKDYAFgAWCAGwMWhoYDYAFgAWCgGwMWYAFgYBthQalWW5BQW5STUFBQUFZbYACDYAFgAWCgGwMWhWABYAFgoBsDFhEVYUbtV5KTklt7/////////////////////wAAAAAAAAAAAAAAAGBghJAbFmABYAFgoBsDhoYDgRaQhxZhRylXYACA/VuDYUdZV4ZgAWABYKAbAxZhR0yDg4lgAWABYKAbAxZhMtlWW4FhR1NX/lsEYUd/VlthR39hR3CDg4lgAWABYKAbAxZhQalWW4hgAWABYKAbAxZhTPdWW5eWUFBQUFBQUFZbYACAhWABYAFgoBsDFhFhR6FXYACA/VtgAIRgAWABYIAbAxYRYUe3V2AAgP1bgWFHyVdhRpqFhYVgAWFNAlZbYUbChYWFYAFhTeNWW2AAgIVgAWABYKAbAxYRYUftV2AAgP1bYACEYAFgAWCAGwMWEWFIA1dgAID9W4FhSBVXYUaahYWFYABhTeNWW2FGwoWFhWAAYU0CVlthSCphVkpWW2AAhWAAAVGFA5BQYEBRgGCAAWBAUoCGY/////8WgVJgIAGCY/////8WhmACCwKIYCABUQFgBguBUmAgAWAAhWABYAFggBsDFhFhSH5XYAFhSIBWW4RbYAFgAWCAGwMWc/////8AAAAAAAAAAAAAAAAAAAAAYICFkBsWgWFIq1f+WwSIYEABUQFgAWABYKAbAxaBUmAgAWABFRWBUlCRUFCUk1BQUFBWW2FI2mFWSlZbYUjiYVZKVluIhWH//xZh//+BEGFI81f+W2BAgFFggIEBglKRkJIBVGP/////gRaAg1JkAQAAAACCBGAGkIELgQuQC2AghAFSYAFgWBuCBGABYAFgoBsDFpODAZOQk1JgAWD4G5AEYP8WFRVgYIIBUpJQYUlYkImQiWFO2FZbFWFJkFeGY/////8WgmAAAVFj/////xYUFWFJeldhNRBWW4FhSYeDiYmIYUgiVluRUJFQYTUQVluIg2H//xaGYAEBYf//FoFhSaVX/lsGYf//FmH//4EQYUm1V/5bYECAUWCAgQGCUpKQkQFUY/////+BFoNSZAEAAAAAgQRgBpCBC4ELkAtgIIQBUmABYAFgoBsDYAFgWBuCBBaRgwGRkJFSYP9gAWD4G5CRBBYVFWBgggGBkFKQklBhSmxXYECAUWCAgQGCUopUY/////+BFoJSZAEAAAAAgQRgBpCBC4ELkAtgIIMBUmABYFgbgQRgAWABYKAbAxaSggGSkJJSYAFg+BuQkQRg/xYVFWBgggFSkVBbYUp7iINgAAFRiWFO2FZbYUqyV2BAgFFiRhvNYOUbgVJgIGAEggFSYANgJIIBUmIT0xFg6htgRIIBUpBRkIGQA2BkAZD9W2FKv4mJiYiHYU+bVluRUJFQl1CXlVBQUFBQUFZbYABhSt5gB4eHh2FB41ZbYAFUYAJUkZJQkGAAgGAPh5ALFWFMJFdgAGFK/2EsJ1ZbYACAVGAEVJKTUJCRgpFhS0mRYAiRhpGFkWABYKAbgQRgAguRYf//YAFguBuDBIEWkmABYAFggBsDkJIWkWABYMgbkAQWYTOJVluQklCQUGFLg2AFjYuNi4uHiYtgAH8AAAAAAAAAAAAAAAAAAAAAAAI3RualjcsT1K+CG5PwYmFRO1ZblFBhS7pgBYyLjYuLh4mLYAF/AAAAAAAAAAAAAAAAAAAAAAACN0bmpY3LE9SvghuT8GJhUTtWW5NQhBVhS+5XYUvuYAaNfwAAAAAAAAAAAAAAAAAAAAAAAAAAAAAAAAAAAAAAAAA8YVMlVluDFWFMIFdhTCBgBox/AAAAAAAAAAAAAAAAAAAAAAAAAAAAAAAAAAAAAAAAADxhUyVWW1BQUFtgAIBhTDZgBYyMi4qKYVOLVluQklCQUGFMR4eKhIRhVDdWW2AAiWAPCxIVYUx1V4MVYUxkV2FMZGAFjGFVzFZbghVhTHVXYUx1YAWLYVXMVltQUFBQUFCVlFBQUFBQVltgAICCYA8LEmFMqldhTKVhTKCFhYVgAWFGzVZbYTKRVlthRsVWW2FMvWFMoIWFhWAAA2AAYUbNVltgAAOUk1BQUFBWW2AAgIJgDwsSYUzkV2FMpWFMoIWFhWABYUZSVlthTL1hTKCFhYVgAANgAGFGUlZbgIIEkQYVFQGQVltgAIEVYU11V2AAYAFgAWCgGwOEERVhTThXYU0zhGABYGAbh2ABYAFggBsDFmEy2VZbYU1QVltgAWABYIAbA4UWYGCFkBuBYU1OV/5bBFuQUGFNbWFNaGABYAFgoBsDiBaDYT4NVlthVfhWW5FQUGFGxVZbYABgAWABYKAbA4QRFWFNo1dhTZ6EYAFgYBuHYAFgAWCAGwMWYUGpVlthTbpWW2FNumBghZAbYAFgAWCAGwOHFmFM91ZbkFCAhmABYAFgoBsDFhFhTdFXYACA/VtgAWABYKAbA4YWA5BQYUbFVltgAIJhTfFXUINhRsVWW3v/////////////////////AAAAAAAAAAAAAAAAYGCFkBsWghVhTpFXYAFgAWCgGwOGFoSBApCFgoFhTjFX/lsEFBVhTmJXgYEBgoEQYU5gV2FOVoOJYAFgAWCgGwMWg2FBqVZbk1BQUFBhRsVWW1BbYU6IgmFOg4eKYAFgAWCgGwMWhoFhTnxX/lsEkGE+DVZbYUz3VluSUFBQYUbFVltgAWABYKAbA4YWhIECkIWCgWFOqFf+WwQUgBVhTrVXUICCEVthTr5XYACA/VuAggNhTlZhTWiEYAFgAWCgGwOLFoRhQalWW2AAg2P/////FoNj/////xYRFYAVYU8CV1CDY/////8WgmP/////FhEVWxVhTx5XgWP/////FoNj/////xYRFZBQYTOCVltgAIRj/////xaEY/////8WEWFPRleDY/////8WZAEAAAAAAWFPTlZbg2P/////Fltk//////8WkFBgAIVj/////xaEY/////8WEWFPf1eDY/////8WZAEAAAAAAWFPh1Zbg2P/////Fltk//////8WkJERFZWUUFBQUFBWW2FPo2FWSlZbYU+rYVZKVltgAINh//8WhWABAWH//xaBYU/BV/5bBmH//xaQUGAAYAGFYf//FoMBA5BQYABbUGACgYMBBIlh//+HFoKBYU/uV/5bBmH//4EQYU/6V/5bYECAUWCAgQGCUpKQkQFUY/////+BFoNSZAEAAAAAgQRgBpCBC4ELkAtgIIQBUmABYAFgoBsDYAFgWBuCBBaRgwGRkJFSYP9gAWD4G5CRBBYVFWBgggGBkFKQlVBhUGVXgGABAZJQYU/ZVluJhmH//xaCYAEBgWFQdlf+WwZh//+BEGFQglf+W2BAgFFggIEBglKSkJEBVGP/////gRaDUmQBAAAAAIEEYAaQgQuBC5ALYCCEAVJgAWABYKAbA2ABYFgbggQWkYMBkZCRUmD/YAFg+BuQkQQWFRVgYIIBUoVRkJRQYACQYVDtkIuQi2FO2FZbkFCAgBVhUQZXUGFRBoqKh2AAAVFhTthWWxVhURFXUGFRLlZbgGFRIVdgAYIDklBhUShWW4FgAQGTUFtQYU/ZVltQUFCVUJWTUFBQUFZbYAKKgQuQC2AAkIFSYCCMkFJgQIEggFRgAWABYIAbAxaCYVFmgo1hNe9WW5BQhGABYAFggBsDFoFgAWABYIAbAxYRFWFRtFdgQIBRYkYbzWDlG4FSYCBgBIIBUmACYCSCAVJhTE9g8BtgRIIBUpBRkIGQA2BkAZD9W2ABYAFggBsDgoEWFZCCFhWBFBWUUBVhUopXjGACC45gAgsTYVJaV2ABgwGLkFVgAoMBipBVYAODAYBUf///////AAAAAAAAAAAAAAAAAAAAAAAAAAD/////////FmcBAAAAAAAAAGABYAFgoBsDjBYCF2b/////////GRZm/////////2AGi5ALFhdj/////2DYGxkWYAFg2Btj/////4oWAheQVVtgA4MBgFR+/////////////////////////////////////////xZgAWD4GxeQVVuCVGABYAFggBsDGRZgAWABYIAbA4IWF4NVhWFS01eCVGFSzpBhUsmQYAFggBuQBGAPkIELgQuQj5ALYTLDVlthP1hWW2FS9FZbglRhUvSQYVLJkGABYIAbkARgD5CBC4ELkI+QC2Eyp1Zbg1RgD5GQkQtgAWABYIAbA5CBFmABYIAbApEWF5CSVVCQnJtQUFBQUFBQUFBQUFBWW4BgAguCYAILgWFTNFf+WwdgAgsVYVNCV2AAgP1bYACAYVNdg2ACC4VgAguBYVNXV/5bBWFEtlZbYAGRgguCC2AAkIFSYCCXkJdSYECQliCAVGD/kJcWkZCRG5CVGJCUVVBQUFBWW2AChYELgIILYACQgVJgIImQUmBAgIIgiIULhQuDUpCCIJGThJORkpGEkYKRkIqQCxJhU9FXUFBgAYIBVGACgwFUYVPkVluDYAEBVIgDkVCDYAIBVIcDkFBbYACAi2ACC4tgAgsSFWFUBldQUGABgwFUYAKEAVRhVBlWW4RgAQFUigORUIRgAgFUiQOQUFuSkJgDl5CXA5uWkJUDlJCUA5hQk5ZQUFBQUFBQVltgQIBRYKCBAYJShVRgAWABYIAbA5CBFoJSYAGHAVRgIIMBUmAChwFUkoIBkpCSUmADhgFUgIMWYGCDAVJgAWCAG5AEkJEWYICCAVJgAGAPhZALYVTWV4FRYAFgAWCAGwMWYVTOV2BAgFFiRhvNYOUbgVJgIGAEggFSYAJgJIIBUmEE5WD0G2BEggFSkFGQgZADYGQBkP1bUIBRYVTlVluBUWFU4pCGYTXvVluQUFtgAGFVCYNgIAFRhgOEYAABUWABYAFggBsDFmABYIAbYTLZVluQUGAAYVUvhGBAAVGGA4VgAAFRYAFgAWCAGwMWYAFggBthMtlWW5BQhmAPC2AAFGFVVleHVGABYAFggBsDGRZgAWABYIAbA4QWF4hVW2ABiAGGkFVgAogBhZBVYAFgAWCAGwOCFhUVgGFVhFdQYACBYAFgAWCAGwMWEVsVYVXCV2ADiAGAVGABYAFggBsDGYEWYAFgAWCAGwORghaFAYIWF4CCFmABYIAbkYKQBIMWhQGQkhYCF5BVW1BQUFBQUFBQVltgApCBC4ELYACQgVJgIJKQklJgQIIggoFVYAGBAYOQVZCBAYKQVWADAVVWW4BgAWABYKAbA4EWgRRhK+tXYACA/VtgQIBRYOCBAYJSYACAglJgIIIBgZBSkYEBgpBSYGCBAYKQUmCAgQGCkFJgoIEBgpBSYMCBAZGQkVKQVltgQIBRYICBAYJSYACAglJgIIIBgZBSkYEBgpBSYGCBAZGQkVKQVv6hZHNvbGNDAAcGAAo=",
          "touched": true,
          "read": true
        }
      }
    }
  ]
}
