{
  "accountTrie": {
    "0e50dd792b560b70b95f63011641aff65795de53fc4185c0cb277f1657f48b66": "f85180a0f23b527039bcf1a9803a51316a44853ec0117281b818dc14855ca4eb8a7493e980808080808080808080a0b352e4c72d853473be5eac69cf10adfdc61a3747ec26a4b424f0a29292fc1d3780808080",
    "29fbcf47f2ded2ae0888c0d63c01095028e03ca6adf96431f9fdf786b6162605": "f8518080808080808080a03a80082a3587599daa3a3cc4ceb9be62daa7533f733dbe3bd62be3932cbc38f88080a05421da8ac21a13e33e43906909e57f0c16dd5bb7ab98af0dc9e64e6a88f7b5d58080808080",
    "4d4c6cb37e600fcfa14763ee4631c44a0b5a37e31d11b0484b7ebceff03a87fa": "f89180a031d1eb10fdf37ef90417d463e9e3d1dad5bab6a3e8b38ccc4eaa744250317457808080a00e50dd792b560b70b95f63011641aff65795de53fc4185c0cb277f1657f48b66a088051b9667deb59e99614788c0d0aedaec2b9658bd714c851f16eb1d1ad3965280808080a056c9a23710ac9835e9a1a44b6725755589fc1f9ec5936cb5b11c7352657c58508080808080",
    "4fffe3b14f4b97c96945632e6e5fddd41827566dbce266b404bcf25826cc71a3": "f8518080808080a0162c91a1ecf6c3da75a44156f3567e6831e19d3723f161e6e9e257fc3c77b28c808080808080a0ee9cf8818d5364bc9be86a78738dee00e24b06bb8f3a677ef514fd2c6c14712780808080",
    "5421da8ac21a13e33e43906909e57f0c16dd5bb7ab98af0dc9e64e6a88f7b5d5": "f86f9f32adcfe18406ff7246f44d41408f7bc77391a1928be4fdde6b51a6c9c543f5b84df84b8087354a6ba7a18000a056e81f171bcc55a6ff8345e692c0f86e5b48e01b996cadc001622fb5e363b421a0c5d2460186f7233c927e7db2dcc703c0e500b653ca82273b7bfad8045d85a470",
    "643ac860eb731cbc6bfd0b6a2bb2e2eb80de56fcf9aa43351713c9269474377f": "f8729f30c7b7ae81a58eb98d9c78de4a1fd7fd9535fc953ed2be602daaa41767312ab850f84e808ad3c21bd2b1bace857bc7a056e81f171bcc55a6ff8345e692c0f86e5b48e01b996cadc001622fb5e363b421a0c5d2460186f7233c927e7db2dcc703c0e500b653ca82273b7bfad8045d85a470",
    "6c7fb3e1a1fb99110b0160185f4a4fb37c108c2ae64a3591f904f7655da68299": "f90211a09b4f7ff0f54e13541fc5e5acc3bcfeed72b58341d505af7c7a53e7f102203c90a04fffe3b14f4b97c96945632e6e5fddd41827566dbce266b404bcf25826cc71a3a0f7336f1bbd47de3425668cbc835f9dea28e3337206a6ddc39e2d75c0cfbc3fa6a04bb4c7cdcdeccf73fe237ac3243854cdbc243bf42d3c7310b243f70ae24e0deba00898774ab29060c8e1ebca88393ba0342e86bcff5cb7c23c84f62f0fec5729efa0ec056e9c9fa1767453faee96ad2573e23af727d7b7cae5d377bddbd314bf45afa0f820e589d2219ae3f297594cfd731f2ec64d19b1ba0f918369e9b413c126732da0122b018f29623b7faf5b19ff1fdb857ed15666aae10b1a195fa30d5a6d75527ba0d5c0369176cb42cdd9a5d3ccc7c8d451e7582410f1baf984997c3c186edecb30a0e6e82a109ac4e5daed8f76043d8393d0298472e0518ff96a48b8492e479881fba04d4c6cb37e600fcfa14763ee4631c44a0b5a37e31d11b0484b7ebceff03a87faa054cab2921d01b8ab026305874aca3f192ae1af8f0bb0c5d39e381645509e3931a0cba15c2b1a8ee7bb2a0ed57c4831628e1acce49cc87a8747262af16748f6fc77a0d5c3f35b3433034102536147a3dcfd190c7bb81fe37c4801a018ecc677f34deca08333762fcaf7193e048ab228010951a924224adf67ad901b5e98441becfcbbd7a092825616236bb69e7dce9723d0bcf9a7f9da80602dcab4c489d1e8ed8f6b347f80",
    "6ffaa05836570bda0c43768c8274a477f12213a32eb022238df0946598f8f542": "f851a0e29cd6451f96ed556022f6076eacfbb24d0680280f8a4a588419a89b9a4260aa80808080808080a0643ac860eb731cbc6bfd0b6a2bb2e2eb80de56fcf9aa43351713c9269474377f8080808080808080",
    "9b4f7ff0f54e13541fc5e5acc3bcfeed72b58341d505af7c7a53e7f102203c90": "f8718080a00a6df8e88efe9ec320b6bc3577cc219757a58ce573eadd452cbfad6bbab6813880808080a029fbcf47f2ded2ae0888c0d63c01095028e03ca6adf96431f9fdf786b6162605a0d6e7baf9ad6b04dff3a25f53357482c94918662b5267635373129b88ba77616f8080808080808080",
    "ec056e9c9fa1767453faee96ad2573e23af727d7b7cae5d377bddbd314bf45af": "f871808080a06ffaa05836570bda0c43768c8274a477f12213a32eb022238df0946598f8f542a0eb68126485dcaaca88731b1076aa5fe02a61cd409ffa5d95e08245b57d84c1afa03d2c9faa594230d254816429f8dc379c30c8b3679ef67f44dd31f3e6822f9a498080808080808080808080",
    "ee9cf8818d5364bc9be86a78738dee00e24b06bb8f3a677ef514fd2c6c147127": "f873a0201e84137173633629f40faeb92a810dbcbf913533c7319539f3382ae8af9922b850f84e808ad3c21cca1ec22ff5e01ea056e81f171bcc55a6ff8345e692c0f86e5b48e01b996cadc001622fb5e363b421a0c5d2460186f7233c927e7db2dcc703c0e500b653ca82273b7bfad8045d85a470",
    "f23b527039bcf1a9803a51316a44853ec0117281b818dc14855ca4eb8a7493e9": "f8749f3eec2b84f0ba344fd4b4d2f022469febe7a772c4789acfc119eb558ab1da3db852f8504b8c033b2e3c9dc122f70b1102ffa056e81f171bcc55a6ff8345e692c0f86e5b48e01b996cadc001622fb5e363b421a0c5d2460186f7233c927e7db2dcc703c0e500b653ca82273b7bfad8045d85a470"
  },
  "storageTrie": null,
  "parentStateRoot": "0x6c7fb3e1a1fb99110b0160185f4a4fb37c108c2ae64a3591f904f7655da68299",
  "transactionTraces": [
    {
      "txn": "0xf86c4b8498f6f8a182520894deadbeefdeadbeefdeadbeefdeadbeefdeadbeef87038d7ea4c6800080820fc6a07b7ce79d89ca2b79f39c6bbd3b80c15e9403438dcfeaee807f1390f9d59eee18a012d29f2604a623a2886b22dcd1435ed3d0892eaf6e1e568879c1045b85235fe3",
      "delta": {
        "0x0000000000000000000000000000000000000000": {
          "address": "0x0000000000000000000000000000000000000000",
          "read": true
        },
        "0x70A0bb66cF004D0FbdB6880Db1E283871cF13D27": {
          "address": "0x70A0bb66cF004D0FbdB6880Db1E283871cF13D27",
          "read": true
        },
        "0x85dA99c8a7C2C95964c8EfD687E95E632Fc533D6": {
          "address": "0x85dA99c8a7C2C95964c8EfD687E95E632Fc533D6",
          "nonce": 76,
          "read": true
        },
        "0xDeaDbeefdEAdbeefdEadbEEFdeadbeEFdEaDbeeF": {
          "address": "0xDeaDbeefdEAdbeefdEadbEEFdeadbeEFdEaDbeeF",
          "touched": true,
          "read": true
        }
      }
    },
    {
      "txn": "0xf86c4c8498f6f8a182520894deadbeefdeadbeefdeadbeefdeadbeefdeadbeef87038d7ea4c6800080820fc6a050afc9be1146dd92226c9dd407f152b552e16398dff02fc2e0b7e5cfc46736fba0626a3e0e0f1d09e021a6d398e2ce0856f74e611bc1bea59ca127bc981618a4f3",
      "delta": {
        "0x0000000000000000000000000000000000000000": {
          "address": "0x0000000000000000000000000000000000000000",
          "read": true
        },
        "0x70A0bb66cF004D0FbdB6880Db1E283871cF13D27": {
          "address": "0x70A0bb66cF004D0FbdB6880Db1E283871cF13D27",
          "read": true
        },
        "0x85dA99c8a7C2C95964c8EfD687E95E632Fc533D6": {
          "address": "0x85dA99c8a7C2C95964c8EfD687E95E632Fc533D6",
          "nonce": 77,
          "read": true
        },
        "0xDeaDbeefdEAdbeefdEadbEEFdeadbeEFdEaDbeeF": {
          "address": "0xDeaDbeefdEAdbeefdEadbEEFdeadbeEFdEaDbeeF",
          "touched": true,
          "read": true
        }
      }
    },
    {
      "txn": "0xf86c4d8498f6f8a182520894deadbeefdeadbeefdeadbeefdeadbeefdeadbeef87038d7ea4c6800080820fc6a07a751378afe59313d53d50b70ab08a5e0a030eef3afd36910334503edc09f894a018c7f023d7c2b5483fadc1163f48f10bd35212479a9e4ad1c0a77d9bbb385d0a",
      "delta": {
        "0x0000000000000000000000000000000000000000": {
          "address": "0x0000000000000000000000000000000000000000",
          "read": true
        },
        "0x70A0bb66cF004D0FbdB6880Db1E283871cF13D27": {
          "address": "0x70A0bb66cF004D0FbdB6880Db1E283871cF13D27",
          "read": true
        },
        "0x85dA99c8a7C2C95964c8EfD687E95E632Fc533D6": {
          "address": "0x85dA99c8a7C2C95964c8EfD687E95E632Fc533D6",
          "nonce": 78,
          "read": true
        },
        "0xDeaDbeefdEAdbeefdEadbEEFdeadbeEFdEaDbeeF": {
          "address": "0xDeaDbeefdEAdbeefdEadbEEFdeadbeEFdEaDbeeF",
          "touched": true,
          "read": true
        }
      }
    },
    {
      "txn": "0xf86c4e8498f6f8a182520894deadbeefdeadbeefdeadbeefdeadbeefdeadbeef87038d7ea4c6800080820fc5a0f9f4cb7133660b87c0cfe4bc3cf31bbf92a89bdbb635400ca353346290242396a064172a240946ca6b8f2a60432b639f980a7648af690dc10fe227703e18c9de9f",
      "delta": {
        "0x0000000000000000000000000000000000000000": {
          "address": "0x0000000000000000000000000000000000000000",
          "read": true
        },
        "0x70A0bb66cF004D0FbdB6880Db1E283871cF13D27": {
          "address": "0x70A0bb66cF004D0FbdB6880Db1E283871cF13D27",
          "read": true
        },
        "0x85dA99c8a7C2C95964c8EfD687E95E632Fc533D6": {
          "address": "0x85dA99c8a7C2C95964c8EfD687E95E632Fc533D6",
          "nonce": 79,
          "read": true
        },
        "0xDeaDbeefdEAdbeefdEadbEEFdeadbeEFdEaDbeeF": {
          "address": "0xDeaDbeefdEAdbeefdEadbEEFdeadbeEFdEaDbeeF",
          "touched": true,
          "read": true
        }
      }
    },
    {
      "txn": "0xf86c4f8498f6f8a182520894deadbeefdeadbeefdeadbeefdeadbeefdeadbeef87038d7ea4c6800080820fc6a00dfadbe57a3494e01b99a7090eda86f923cd52df19eeba960bfe6da28c0a90fda02f56c1b839b2a55540dcfeafa30fcb1254d3f85845b7f4b02bb77f0b84d654c8",
      "delta": {
        "0x0000000000000000000000000000000000000000": {
          "address": "0x0000000000000000000000000000000000000000",
          "read": true
        },
        "0x70A0bb66cF004D0FbdB6880Db1E283871cF13D27": {
          "address": "0x70A0bb66cF004D0FbdB6880Db1E283871cF13D27",
          "read": true
        },
        "0x85dA99c8a7C2C95964c8EfD687E95E632Fc533D6": {
          "address": "0x85dA99c8a7C2C95964c8EfD687E95E632Fc533D6",
          "nonce": 80,
          "read": true
        },
        "0xDeaDbeefdEAdbeefdEadbEEFdeadbeEFdEaDbeeF": {
          "address": "0xDeaDbeefdEAdbeefdEadbEEFdeadbeEFdEaDbeeF",
          "touched": true,
          "read": true
        }
      }
    },
    {
      "txn": "0xf86c508498f6f8a182520894deadbeefdeadbeefdeadbeefdeadbeefdeadbeef87038d7ea4c6800080820fc5a001adfbb7936b9e762ead8452058b97d7a1e143513618f0011e2a46a1cccf3866a042ffc851561a906890ea5fadfb3638114615d2452d926279255d32dc65df5576",
      "delta": {
        "0x0000000000000000000000000000000000000000": {
          "address": "0x0000000000000000000000000000000000000000",
          "read": true
        },
        "0x70A0bb66cF004D0FbdB6880Db1E283871cF13D27": {
          "address": "0x70A0bb66cF004D0FbdB6880Db1E283871cF13D27",
          "read": true
        },
        "0x85dA99c8a7C2C95964c8EfD687E95E632Fc533D6": {
          "address": "0x85dA99c8a7C2C95964c8EfD687E95E632Fc533D6",
          "nonce": 81,
          "read": true
        },
        "0xDeaDbeefdEAdbeefdEadbEEFdeadbeEFdEaDbeeF": {
          "address": "0xDeaDbeefdEAdbeefdEadbEEFdeadbeEFdEaDbeeF",
          "touched": true,
          "read": true
        }
      }
    },
    {
      "txn": "0xf86c518498f6f8a182520894deadbeefdeadbeefdeadbeefdeadbeefdeadbeef87038d7ea4c6800080820fc6a021ebbe2e2040228a9687414742f94d757fb9eec7836a554a21f0d229977d5dd5a067599063fd9bbfb8c7d2425b9b84f78e42c9f8a497911d5f50573a40379016d4",
      "delta": {
        "0x0000000000000000000000000000000000000000": {
          "address": "0x0000000000000000000000000000000000000000",
          "read": true
        },
        "0x70A0bb66cF004D0FbdB6880Db1E283871cF13D27": {
          "address": "0x70A0bb66cF004D0FbdB6880Db1E283871cF13D27",
          "read": true
        },
        "0x85dA99c8a7C2C95964c8EfD687E95E632Fc533D6": {
          "address": "0x85dA99c8a7C2C95964c8EfD687E95E632Fc533D6",
          "nonce": 82,
          "read": true
        },
        "0xDeaDbeefdEAdbeefdEadbEEFdeadbeEFdEaDbeeF": {
          "address": "0xDeaDbeefdEAdbeefdEadbEEFdeadbeEFdEaDbeeF",
          "touched": true,
          "read": true
        }
      }
    },
    {
      "txn": "0xf86c528498f6f8a182520894deadbeefdeadbeefdeadbeefdeadbeefdeadbeef87038d7ea4c6800080820fc5a0559372ea536454b6e33e9120d476a1c0ad0f32d990eec9297662e9e37e99ea5ca041e3ad8c7389be03e7b4a01fe3211335b10bc3889e2257bc5917bc75d43e56c6",
      "delta": {
        "0x0000000000000000000000000000000000000000": {
          "address": "0x0000000000000000000000000000000000000000",
          "read": true
        },
        "0x70A0bb66cF004D0FbdB6880Db1E283871cF13D27": {
          "address": "0x70A0bb66cF004D0FbdB6880Db1E283871cF13D27",
          "read": true
        },
        "0x85dA99c8a7C2C95964c8EfD687E95E632Fc533D6": {
          "address": "0x85dA99c8a7C2C95964c8EfD687E95E632Fc533D6",
          "nonce": 83,
          "read": true
        },
        "0xDeaDbeefdEAdbeefdEadbEEFdeadbeEFdEaDbeeF": {
          "address": "0xDeaDbeefdEAdbeefdEadbEEFdeadbeEFdEaDbeeF",
          "touched": true,
          "read": true
        }
      }
    },
    {
      "txn": "0xf86c538498f6f8a182520894deadbeefdeadbeefdeadbeefdeadbeefdeadbeef87038d7ea4c6800080820fc5a0dcca7e5f2a8beed24b0716b81feb6136e313c2143417c4abc80ef7234f0a850fa0460720dcaeb5716bf17efdc5842802da8e9ef8acb49a3ca7afd785d4e26d8250",
      "delta": {
        "0x0000000000000000000000000000000000000000": {
          "address": "0x0000000000000000000000000000000000000000",
          "read": true
        },
        "0x70A0bb66cF004D0FbdB6880Db1E283871cF13D27": {
          "address": "0x70A0bb66cF004D0FbdB6880Db1E283871cF13D27",
          "read": true
        },
        "0x85dA99c8a7C2C95964c8EfD687E95E632Fc533D6": {
          "address": "0x85dA99c8a7C2C95964c8EfD687E95E632Fc533D6",
          "nonce": 84,
          "read": true
        },
        "0xDeaDbeefdEAdbeefdEadbEEFdeadbeEFdEaDbeeF": {
          "address": "0xDeaDbeefdEAdbeefdEadbEEFdeadbeEFdEaDbeeF",
          "touched": true,
          "read": true
        }
      }
    },
    {
      "txn": "0xf86c548498f6f8a182520894deadbeefdeadbeefdeadbeefdeadbeefdeadbeef87038d7ea4c6800080820fc5a09c7c7137bd210cc3458746bf0f4a0b7d7914d246a4d97e15bb88c7ccbb6ebd80a0641c117117c03149bb2a86f235d401f03d54c87b63cd254a83f691bfca6f4f47",
      "delta": {
        "0x0000000000000000000000000000000000000000": {
          "address": "0x0000000000000000000000000000000000000000",
          "read": true
        },
        "0x70A0bb66cF004D0FbdB6880Db1E283871cF13D27": {
          "address": "0x70A0bb66cF004D0FbdB6880Db1E283871cF13D27",
          "read": true
        },
        "0x85dA99c8a7C2C95964c8EfD687E95E632Fc533D6": {
          "address": "0x85dA99c8a7C2C95964c8EfD687E95E632Fc533D6",
          "nonce": 85,
          "read": true
        },
        "0xDeaDbeefdEAdbeefdEadbEEFdeadbeEFdEaDbeeF": {
          "address": "0xDeaDbeefdEAdbeefdEadbEEFdeadbeEFdEaDbeeF",
          "touched": true,
          "read": true
        }
      }
    },
    {
      "txn": "0xf86c558498f6f8a182520894deadbeefdeadbeefdeadbeefdeadbeefdeadbeef87038d7ea4c6800080820fc6a0f71fb1e6f7172fbde5a4c81a73199e2aaa89aa2feb9b76370b3a1f7585c53df6a071cfc58032482e127968cf6097c2862ab5acde874673c9583f77d18ab722fc0b",
      "delta": {
        "0x0000000000000000000000000000000000000000": {
          "address": "0x0000000000000000000000000000000000000000",
          "read": true
        },
        "0x70A0bb66cF004D0FbdB6880Db1E283871cF13D27": {
          "address": "0x70A0bb66cF004D0FbdB6880Db1E283871cF13D27",
          "read": true
        },
        "0x85dA99c8a7C2C95964c8EfD687E95E632Fc533D6": {
          "address": "0x85dA99c8a7C2C95964c8EfD687E95E632Fc533D6",
          "nonce": 86,
          "read": true
        },
        "0xDeaDbeefdEAdbeefdEadbEEFdeadbeEFdEaDbeeF": {
          "address": "0xDeaDbeefdEAdbeefdEadbEEFdeadbeEFdEaDbeeF",
          "touched": true,
          "read": true
        }
      }
    },
    {
      "txn": "0xf86c568498f6f8a182520894deadbeefdeadbeefdeadbeefdeadbeefdeadbeef87038d7ea4c6800080820fc6a0285f1a13c016709810bc3e0bd98887942b957f4d751774b858bf5580bec8c8baa009f9027b11cd3267cd1679971e65bba2d0b336d48f2d9d471022aadbae748782",
      "delta": {
        "0x0000000000000000000000000000000000000000": {
          "address": "0x0000000000000000000000000000000000000000",
          "read": true
        },
        "0x70A0bb66cF004D0FbdB6880Db1E283871cF13D27": {
          "address": "0x70A0bb66cF004D0FbdB6880Db1E283871cF13D27",
          "read": true
        },
        "0x85dA99c8a7C2C95964c8EfD687E95E632Fc533D6": {
          "address": "0x85dA99c8a7C2C95964c8EfD687E95E632Fc533D6",
          "nonce": 87,
          "read": true
        },
        "0xDeaDbeefdEAdbeefdEadbEEFdeadbeEFdEaDbeeF": {
          "address": "0xDeaDbeefdEAdbeefdEadbEEFdeadbeEFdEaDbeeF",
          "touched": true,
          "read": true
        }
      }
    },
    {
      "txn": "0xf86c578498f6f8a182520894deadbeefdeadbeefdeadbeefdeadbeefdeadbeef87038d7ea4c6800080820fc6a0549553267a5930b422ede28db044e8c04469b5a66f298c74863473a12df074a8a06b251659cb2c517b9ca4d2f661c801b1c1c1e862db5f9943815dd884d6985cb3",
      "delta": {
        "0x0000000000000000000000000000000000000000": {
          "address": "0x0000000000000000000000000000000000000000",
          "read": true
        },
        "0x70A0bb66cF004D0FbdB6880Db1E283871cF13D27": {
          "address": "0x70A0bb66cF004D0FbdB6880Db1E283871cF13D27",
          "read": true
        },
        "0x85dA99c8a7C2C95964c8EfD687E95E632Fc533D6": {
          "address": "0x85dA99c8a7C2C95964c8EfD687E95E632Fc533D6",
          "nonce": 88,
          "read": true
        },
        "0xDeaDbeefdEAdbeefdEadbEEFdeadbeEFdEaDbeeF": {
          "address": "0xDeaDbeefdEAdbeefdEadbEEFdeadbeEFdEaDbeeF",
          "touched": true,
          "read": true
        }
      }
    },
    {
      "txn": "0xf86c588498f6f8a182520894deadbeefdeadbeefdeadbeefdeadbeefdeadbeef87038d7ea4c6800080820fc6a0cad7ee3e7dec548fc937dc8aaefc35c92449cb2a4f3ccc4bed708e4e6d386c62a031630662d8080c66535de82db88ec06d08b26ba0e1c5594ddee0bd957fd98dd4",
      "delta": {
        "0x0000000000000000000000000000000000000000": {
          "address": "0x0000000000000000000000000000000000000000",
          "read": true
        },
        "0x70A0bb66cF004D0FbdB6880Db1E283871cF13D27": {
          "address": "0x70A0bb66cF004D0FbdB6880Db1E283871cF13D27",
          "read": true
        },
        "0x85dA99c8a7C2C95964c8EfD687E95E632Fc533D6": {
          "address": "0x85dA99c8a7C2C95964c8EfD687E95E632Fc533D6",
          "nonce": 89,
          "read": true
        },
        "0xDeaDbeefdEAdbeefdEadbEEFdeadbeEFdEaDbeeF": {
          "address": "0xDeaDbeefdEAdbeefdEadbEEFdeadbeEFdEaDbeeF",
          "touched": true,
          "read": true
        }
      }
    },
    {
      "txn": "0xf86c598498f6f8a182520894deadbeefdeadbeefdeadbeefdeadbeefdeadbeef87038d7ea4c6800080820fc6a05b7f9c8d459f5fd68335f1d26b25e5e98e13c6ed60c3ab0f87ba36f8c70a17f3a0713cb42316fd287ef3a91f86a227b60f9635bba2e501e1d75fc8b32275691630",
      "delta": {
        "0x0000000000000000000000000000000000000000": {
          "address": "0x0000000000000000000000000000000000000000",
          "read": true
        },
        "0x70A0bb66cF004D0FbdB6880Db1E283871cF13D27": {
          "address": "0x70A0bb66cF004D0FbdB6880Db1E283871cF13D27",
          "read": true
        },
        "0x85dA99c8a7C2C95964c8EfD687E95E632Fc533D6": {
          "address": "0x85dA99c8a7C2C95964c8EfD687E95E632Fc533D6",
          "nonce": 90,
          "read": true
        },
        "0xDeaDbeefdEAdbeefdEadbEEFdeadbeEFdEaDbeeF": {
          "address": "0xDeaDbeefdEAdbeefdEadbEEFdeadbeEFdEaDbeeF",
          "touched": true,
          "read": true
        }
      }
    },
    {
      "txn": "0xf86c5a8498f6f8a182520894deadbeefdeadbeefdeadbeefdeadbeefdeadbeef87038d7ea4c6800080820fc6a0d747f87182b91eba16ae3612f6f412df333eadb9ee3a954676b66967375abfbba054bc1f238dc07edf294e4133a8118a1d04b5ce23eeb300d125c7ec660831dd60",
      "delta": {
        "0x0000000000000000000000000000000000000000": {
          "address": "0x0000000000000000000000000000000000000000",
          "read": true
        },
        "0x70A0bb66cF004D0FbdB6880Db1E283871cF13D27": {
          "address": "0x70A0bb66cF004D0FbdB6880Db1E283871cF13D27",
          "read": true
        },
        "0x85dA99c8a7C2C95964c8EfD687E95E632Fc533D6": {
          "address": "0x85dA99c8a7C2C95964c8EfD687E95E632Fc533D6",
          "nonce": 91,
          "read": true
        },
        "0xDeaDbeefdEAdbeefdEadbEEFdeadbeEFdEaDbeeF": {
          "address": "0xDeaDbeefdEAdbeefdEadbEEFdeadbeEFdEaDbeeF",
          "touched": true,
          "read": true
        }
      }
    }
  ]
}
