{
  "accountTrie": {
    "0d3fee9d6cb7b02272d6e1905610a6b65645516d57d4df1586126474cb6eee69": "f871808080a053cdb533546c2cb2c96b4e6875263e789f749f94c991bb0de02c8ea5fcc0096fa0eb68126485dcaaca88731b1076aa5fe02a61cd409ffa5d95e08245b57d84c1afa03d2c9faa594230d254816429f8dc379c30c8b3679ef67f44dd31f3e6822f9a498080808080808080808080",
    "155b7672a1505f39bb34048ebbc648eb1140c13d176d646cc1679bbd65b00b32": "f89180a031d1eb10fdf37ef90417d463e9e3d1dad5bab6a3e8b38ccc4eaa744250317457808080a09ae6af07a2929f01dcf3e9446df361b58f94a2dd16e8fb6dee7638bd1092e809a088051b9667deb59e99614788c0d0aedaec2b9658bd714c851f16eb1d1ad3965280808080a056c9a23710ac9835e9a1a44b6725755589fc1f9ec5936cb5b11c7352657c58508080808080",
    "20bb837929aa7a7e065da41d7df43792e8a56bd5aef364bfe2915b578101e647": "f90211a09bd5985e83d92230c8f5e1f163da9b6a14db480ec2597a384ce775e4bbcb9321a0cd549d3bdcb62de71d9c5c737f2eb6413680d539bb1e51485b56b7c5787b5f95a0ed2b3f089e0c1d1c37445a0c3c034cbc8834a9ffddbe5809270fb562a7158446a04bb4c7cdcdeccf73fe237ac3243854cdbc243bf42d3c7310b243f70ae24e0deba00898774ab29060c8e1ebca88393ba0342e86bcff5cb7c23c84f62f0fec5729efa00d3fee9d6cb7b02272d6e1905610a6b65645516d57d4df1586126474cb6eee69a0f820e589d2219ae3f297594cfd731f2ec64d19b1ba0f918369e9b413c126732da033e8e4cf34afa27dff2eb641b1c4496e233a82c2738e75325c5c5c83272ea672a093cef858320d762531f52ff81ffa5a70576ffdba6410ec70685d1d1f111874b6a0e6e82a109ac4e5daed8f76043d8393d0298472e0518ff96a48b8492e479881fba0155b7672a1505f39bb34048ebbc648eb1140c13d176d646cc1679bbd65b00b32a054cab2921d01b8ab026305874aca3f192ae1af8f0bb0c5d39e381645509e3931a0efa4607ee0783dfb1abf6e217dd08dcf6440506e8a623b67cdf54ccb5f1e029ba0d5c3f35b3433034102536147a3dcfd190c7bb81fe37c4801a018ecc677f34deca08333762fcaf7193e048ab228010951a924224adf67ad901b5e98441becfcbbd7a092825616236bb69e7dce9723d0bcf9a7f9da80602dcab4c489d1e8ed8f6b347f80",
    "3b1015e98cd57c73c766adf256db94f1ce03754ee79cec802c44ebdccd87833a": "f8729f30c7b7ae81a58eb98d9c78de4a1fd7fd9535fc953ed2be602daaa41767312ab850f84e808ad3c21bd2b1baf55dff06a056e81f171bcc55a6ff8345e692c0f86e5b48e01b996cadc001622fb5e363b421a0c5d2460186f7233c927e7db2dcc703c0e500b653ca82273b7bfad8045d85a470",
    "53cdb533546c2cb2c96b4e6875263e789f749f94c991bb0de02c8ea5fcc0096f": "f851a0e29cd6451f96ed556022f6076eacfbb24d0680280f8a4a588419a89b9a4260aa80808080808080a03b1015e98cd57c73c766adf256db94f1ce03754ee79cec802c44ebdccd87833a8080808080808080",
    "8cf66cd85f65e5a93556b5c435da3c7b07ace85ceb3e344cdac8b58cbe3c2da3": "f873a0201e84137173633629f40faeb92a810dbcbf913533c7319539f3382ae8af9922b850f84e808ad3c21d1842bbfaad95eba056e81f171bcc55a6ff8345e692c0f86e5b48e01b996cadc001622fb5e363b421a0c5d2460186f7233c927e7db2dcc703c0e500b653ca82273b7bfad8045d85a470",
    "9ae6af07a2929f01dcf3e9446df361b58f94a2dd16e8fb6dee7638bd1092e809": "f85180a0cd5d4bdcc10f856f936c48e78f365aa6bb2470b1a7ccebb5fdd766a757dc0bee80808080808080808080a0b352e4c72d853473be5eac69cf10adfdc61a3747ec26a4b424f0a29292fc1d3780808080",
    "cd549d3bdcb62de71d9c5c737f2eb6413680d539bb1e51485b56b7c5787b5f95": "f8518080808080a0162c91a1ecf6c3da75a44156f3567e6831e19d3723f161e6e9e257fc3c77b28c808080808080a08cf66cd85f65e5a93556b5c435da3c7b07ace85ceb3e344cdac8b58cbe3c2da380808080",
    "cd5d4bdcc10f856f936c48e78f365aa6bb2470b1a7ccebb5fdd766a757dc0bee": "f8769f3eec2b84f0ba344fd4b4d2f022469febe7a772c4789acfc119eb558ab1da3db854f8528210458c033b2e3c620a5795b598eca1a056e81f171bcc55a6ff8345e692c0f86e5b48e01b996cadc001622fb5e363b421a0c5d2460186f7233c927e7db2dcc703c0e500b653ca82273b7bfad8045d85a470",
    "ed2b3f089e0c1d1c37445a0c3c034cbc8834a9ffddbe5809270fb562a7158446": "f869a038c1b2cd4b4be08c2ee3231297634832a2c7fc46a896e3156a8c33edca1dbc6cb846f8440180a0b3ed89dfe1b5d80fb1935710e966d5fcbb05468cd3bec0a29984cc1ebd1b9e19a0e86cf7cc93bf311f1751ca156a07c54a62d0769f9a09b61afd05b037a4713e1b"
  },
  "storageTrie": {
    "04e46aa977fad1922e05a180930386c700348590d7b0a33278ec5ecda604114b": "f8b1a0f69a624637cf9b15f3cb492266b4ed2b41f086fd5b01d9fe6dc3ac2b48582a6780a00987dcd8e96c4f926e7cef495ed0651da69ed87efd7354b1faba76a133b3a86d8080808080808080a0aa93dac12cca7622e28fdb77e5560a2172782e7a931ccde01fe768acf9c808c0a08d64149b28fbd573b28343745e2dddaf7d20919a4a5a4dc0501e48b16feed16180a09cf9e9de2d57afd4838a7209d26a2fb0772c889d3d8a54ee1e7170d8a336370d8080",
    "316c463a8777740576aedfdd3d859851b8cc455ec2c3c2fe2b235e102e59eeb6": "f8518080a04e95421ae968b7b246028c4cc527779c87308348bbba6d76a03d2e03feb7370d808080808080808080a01e9e9e6e03c79252b3d1b612b1727ffa0744ff5fe0bb8510be1bd19437cc7fd180808080",
    "34f927d8cb7dd37b23b0e1760984f38c0654cade533e23af873c943188110999": "f8518080a0241e3e43ec3e54a6db7c0797c2c9818f770339d1d9d837c7bba7aa3183a7a23480a0244605e58b270878c07199b94ad5c8fd6fd65ba79145d7b7a61570e501068edc808080808080808080808080",
    "403e1ab2cd7c9d4551963fc2738a61fb05f023868e3d21bbdb4a4614ffcb0db4": "f8d1a0bd28df911d326ba2fe592abb2fcb37461b96189d7d9fec1e14fcb948b65556ce80a04c9ad2fb075d268007283e368087553bc826c28a521491ed6ebcaa78e09b1dac808080a035965ee213bdb487d8a195c508f52dfc422be58de9a1d68a4ac7eede74be258a808080a0c7c5e593a9a5354f748c10e895c2d85efdbf14152a52cfaea23f1aed71e6b26a80a0ebe2ea7dcd6ab4882a40ab76f8ea1920eba0bd89633c35a4cff2a8e0701012f88080a080a182fbcc770e1022cf2534ca729a0939671c11682dd9414a2d314ce1d8ae1e80",
    "432f49b0876608883eba51c4a290f7bb9855e9983a755538dce4499fcfc02164": "f8718080a00cd5989dd0da346837bde3503cb53eb7119ec700e92fe9b5e3a5a7422ab5241280808080808080808080a0d66596f7602fa904d009a8465023bd0c55aee15125f55d2dc352ba75a242975b80a04d6a690768a0ea387b759e0bef01ee064b5d04cf830ff8fa74104e5dbeafab0980",
    "531c35c3c69329fe6e785c01fcf619e413967f47b9c31ca944026a11e42faaad": "f871808080a0ee4ea19a87fdf2b838a4923737f00007116a9c785404555b90a885f20a1cf93680808080a0b606b6d667bf4dc87ee0fb07c00adc58a54ccb2ad2e02e14b44cd43d8f8f61bc808080808080a04b6ba85c253c2b0785a5d38c99e6ef2306930c1d7f479c78911f0eab3adf4f9880",
    "625b0d1f520a1c5705cd451c35d3cdd7cf046b1df00c8be2ce12b385fd1fb612": "f8718080808080a04d0bc97a8348055859d5fbe238aad92dc408bf95a5b6c7c1b3f28ac71c8d1adaa09efdbb8b3ba16e4bfe54cb54f9b1699cc5a4fa67cd883e9ce4ed8d40274935f980808080808080a0d393732d09d16ec272559240512a582c67bef639babd4469ceaee4cde77a46e68080",
    "88f54c8e971ef2f33b31c84232edff7f54205f2e27c7903dae0729a1c567c15c": "f85180a0ee4a25ec65f86c3eb5d427153c557d6fbf7cd768a5a5648ae1ff940063d792cc8080808080808080a0e9818b4714322900754e9b8d3cc51581bde087a8002e09b3c64f96a9f155c9c5808080808080",
    "9135d897f78ebbb924b7cfe6481a83f02269b520422f23c7373b080a388ff8d9": "f87180808080a0277bb764a60af2f0c6ba5b673be5cc5e4709c9de459b65b437dfa5116ae7a6218080808080a0a84873d6484ae2528c3747b1a30fd26d192067c5305322effb33eccf4bcb702da0dc46debbcbb54990b2fbd3bd1a4c0606515f3b51fd6bb6ca67bfe2580e4757628080808080",
    "913df64b0396aa50d3e1462d92ead210f84fc82d46a8f97986a2c393cb58e1e4": "e4a03780bd76754cd8bdf6ebbcf526b1e9c300885e157b72e09c4f68214c616f7bd3828181",
    "9efdbb8b3ba16e4bfe54cb54f9b1699cc5a4fa67cd883e9ce4ed8d40274935f9": "f843a02005e486497dbb470ce04bc6cd8d6aa1cc0fa707511d6bcc61d0dbc855517366a1a0cafebabecafed00dcefaedfe0d15ea5edabbad00dead2baddeadbaaddeadbabe",
    "a89b4f3bd73ecb01df2ba20042f99e09fa128a4c7df4c8d028b2d3eb82f905a0": "f85180808080808080a0b0419d6b312471d075448ce2e30e5ca32724829f210c26a673c768ad9aa901518080808080a01ce17cdf68c656c9ee98ce8fdecb15b35147354bdb38167478df4163821f7ca6808080",
    "b3ed89dfe1b5d80fb1935710e966d5fcbb05468cd3bec0a29984cc1ebd1b9e19": "f901d1a004e46aa977fad1922e05a180930386c700348590d7b0a33278ec5ecda604114ba09135d897f78ebbb924b7cfe6481a83f02269b520422f23c7373b080a388ff8d9a0432f49b0876608883eba51c4a290f7bb9855e9983a755538dce4499fcfc0216480a0403e1ab2cd7c9d4551963fc2738a61fb05f023868e3d21bbdb4a4614ffcb0db4a0913df64b0396aa50d3e1462d92ead210f84fc82d46a8f97986a2c393cb58e1e4a0a89b4f3bd73ecb01df2ba20042f99e09fa128a4c7df4c8d028b2d3eb82f905a0a088f54c8e971ef2f33b31c84232edff7f54205f2e27c7903dae0729a1c567c15ca0531c35c3c69329fe6e785c01fcf619e413967f47b9c31ca944026a11e42faaada034f927d8cb7dd37b23b0e1760984f38c0654cade533e23af873c943188110999a0f399c14a1aca218d9f65fde0fede5584dd350446a9b85edb2531cd8ca793008fa0da70030b6ea00c2a5097e83ae2b5e2e645315ba062fefcce397ba39e90d5952da0316c463a8777740576aedfdd3d859851b8cc455ec2c3c2fe2b235e102e59eeb680a087f1a2f45e66f8a5ad146da4eb6f7466bab7b6369e5127848c7807fbd703dc11a0625b0d1f520a1c5705cd451c35d3cdd7cf046b1df00c8be2ce12b385fd1fb61280",
    "bd28df911d326ba2fe592abb2fcb37461b96189d7d9fec1e14fcb948b65556ce": "e2a0205787fa12a823e0f2b7631cc41b3ba8828b3321ca811111fa75cd3aa3bb5ace0a",
    "da70030b6ea00c2a5097e83ae2b5e2e645315ba062fefcce397ba39e90d5952d": "f891808080808080a087013d6ed7bba6d39e6c30a1629efa537f68817340178337d52ca5db3a08e46da0eea55a2063723ec5f83b1bc2fd4a14edd99b58afad68631b87dc0ac06cf12a3580a0bf9657e6432ca175ea55bb5aeb4f414dc311fd73cdc502dc6fd4b2f6365fd8c6a0752afe3056f625314510a73cc0c618a19d77cbbf010254dfb19abc117f320fb2808080808080",
    "f399c14a1aca218d9f65fde0fede5584dd350446a9b85edb2531cd8ca793008f": "f85180808080a0911b0ed06161c29a857ed6b38485353a0186d6bdbc8f4d5ff7caf9ba4c368fbb808080808080a05833e8d890d6458b1a0f6b9884db18eabbe41b3aa42fa57d097d7283583b63078080808080"
  },
  "parentStateRoot": "0x20bb837929aa7a7e065da41d7df43792e8a56bd5aef364bfe2915b578101e647",
  "transactionTraces": [
    {
      "txn": "0x02f904b58207d18210458498f6f8938498f6f8a1830ad21e94608dcefe5f08532b886fc1bc5f0c308670ac21fd80b90444b374012b00000000000000000000000000000000000000000000000000000000000000200000000000000000000000000000000000000000000000000000000000000400000ff1ce00bab10c1badb0028badf00dabadbabeb105f00db16b00b50b00b135baaaaaadbaadf00dbad22222baddcafecafeb0bab0bababebeefbabec00010ffcafebabecafed00dcefaedfe0d15ea5edabbad00dead2baddeadbaaddeadbabedeadbeafdeadbeefdeadc0dedeaddeaddeadd00ddeadfa11dead10ccdeadfeeddecafbaddefec8edd0d0cacae011cfd0facefeedfbadbeeffee1deadfeedbabefeedc0deffbadd11f00dbabe000ff1ce00bab10c1badb0028badf00dabadbabeb105f00db16b00b50b00b135baaaaaadbaadf00dbad22222baddcafecafeb0bab0bababebeefbabec00010ffcafebabecafed00dcefaedfe0d15ea5edabbad00dead2baddeadbaaddeadbabedeadbeafdeadbeefdeadc0dedeaddeaddeadd00ddeadfa11dead10ccdeadfeeddecafbaddefec8edd0d0cacae011cfd0facefeedfbadbeeffee1deadfeedbabefeedc0deffbadd11f00dbabe000ff1ce00bab10c1badb0028badf00dabadbabeb105f00db16b00b50b00b135baaaaaadbaadf00dbad22222baddcafecafeb0bab0bababebeefbabec00010ffcafebabecafed00dcefaedfe0d15ea5edabbad00dead2baddeadbaaddeadbabedeadbeafdeadbeefdeadc0dedeaddeaddeadd00ddeadfa11dead10ccdeadfeeddecafbaddefec8edd0d0cacae011cfd0facefeedfbadbeeffee1deadfeedbabefeedc0deffbadd11f00dbabe000ff1ce00bab10c1badb0028badf00dabadbabeb105f00db16b00b50b00b135baaaaaadbaadf00dbad22222baddcafecafeb0bab0bababebeefbabec00010ffcafebabecafed00dcefaedfe0d15ea5edabbad00dead2baddeadbaaddeadbabedeadbeafdeadbeefdeadc0dedeaddeaddeadd00ddeadfa11dead10ccdeadfeeddecafbaddefec8edd0d0cacae011cfd0facefeedfbadbeeffee1deadfeedbabefeedc0deffbadd11f00dbabe000ff1ce00bab10c1badb0028badf00dabadbabeb105f00db16b00b50b00b135baaaaaadbaadf00dbad22222baddcafecafeb0bab0bababebeefbabec00010ffcafebabecafed00dcefaedfe0d15ea5edabbad00dead2baddeadbaaddeadbabedeadbeafdeadbeefdeadc0dedeaddeaddeadd00ddeadfa11dead10ccdeadfeeddecafbaddefec8edd0d0cacae011cfd0facefeedfbadbeeffee1deadfeedbabefeedc0deffbadd11f00dbabe000ff1ce00bab10c1badb0028badf00dabadbabeb105f00db16b00b50b00b135baaaaaadbaadf00dbad22222baddcafecafeb0bab0bababebeefbabec00010ffcafebabecafed00dcefaedfe0d15ea5edabbad00dead2baddeadbaaddeadbabedeadbeafdeadbeefdeadc0dedeaddeaddeadd00ddeadfa11dead10ccdeadfeeddecafbaddefec8edd0d0cacae011cfd0facefeedfbadbeeffee1deadfeedbabefeedc0dec080a0334ddfcb7224010d5fcf3f1244385675b4f3b93b78c247abbf9059a308b37b01a0071f979568d783615ad81f60dc4bbef3b72d358b35ea94f39e798acacbfb63e7",
      "delta": {
        "0x0000000000000000000000000000000000000000": {
          "address": "0x0000000000000000000000000000000000000000",
          "read": true
        },
        "0x608dcEfe5F08532b886Fc1bC5f0c308670AC21fd": {
          "address": "0x608dcEfe5F08532b886Fc1bC5f0c308670AC21fd",
          "storage": {
            "0x0000000000000000000000000000000000000000000000000000000000000002": "0x000000000000000000000000000000000000000000000000000000000000000b",
            "0x405787fa12a823e0f2b7631cc41b3ba8828b3321ca811111fa75cd3aa3bb5ad8": "0x0000000000000000000000000000000000000000000000000000000000000801",
            "0x8236ebb7cf496a778a8b7475c9756d24e4e64d8278bd2441f907c82465f454a3": "0x000ff1ce00bab10c1badb0028badf00dabadbabeb105f00db16b00b50b00b135",
            "0x8236ebb7cf496a778a8b7475c9756d24e4e64d8278bd2441f907c82465f454a4": "0xbaaaaaadbaadf00dbad22222baddcafecafeb0bab0bababebeefbabec00010ff",
            "0x8236ebb7cf496a778a8b7475c9756d24e4e64d8278bd2441f907c82465f454a5": "0xcafebabecafed00dcefaedfe0d15ea5edabbad00dead2baddeadbaaddeadbabe",
            "0x8236ebb7cf496a778a8b7475c9756d24e4e64d8278bd2441f907c82465f454a6": "0xdeadbeafdeadbeefdeadc0dedeaddeaddeadd00ddeadfa11dead10ccdeadfeed",
            "0x8236ebb7cf496a778a8b7475c9756d24e4e64d8278bd2441f907c82465f454a7": "0xdecafbaddefec8edd0d0cacae011cfd0facefeedfbadbeeffee1deadfeedbabe",
            "0x8236ebb7cf496a778a8b7475c9756d24e4e64d8278bd2441f907c82465f454a8": "0xfeedc0deffbadd11f00dbabe000ff1ce00bab10c1badb0028badf00dabadbabe",
            "0x8236ebb7cf496a778a8b7475c9756d24e4e64d8278bd2441f907c82465f454a9": "0xb105f00db16b00b50b00b135baaaaaadbaadf00dbad22222baddcafecafeb0ba",
            "0x8236ebb7cf496a778a8b7475c9756d24e4e64d8278bd2441f907c82465f454aa": "0xb0bababebeefbabec00010ffcafebabecafed00dcefaedfe0d15ea5edabbad00",
            "0x8236ebb7cf496a778a8b7475c9756d24e4e64d8278bd2441f907c82465f454ab": "0xdead2baddeadbaaddeadbabedeadbeafdeadbeefdeadc0dedeaddeaddeadd00d",
            "0x8236ebb7cf496a778a8b7475c9756d24e4e64d8278bd2441f907c82465f454ac": "0xdeadfa11dead10ccdeadfeeddecafbaddefec8edd0d0cacae011cfd0facefeed",
            "0x8236ebb7cf496a778a8b7475c9756d24e4e64d8278bd2441f907c82465f454ad": "0xfbadbeeffee1deadfeedbabefeedc0deffbadd11f00dbabe000ff1ce00bab10c",
            "0x8236ebb7cf496a778a8b7475c9756d24e4e64d8278bd2441f907c82465f454ae": "0x1badb0028badf00dabadbabeb105f00db16b00b50b00b135baaaaaadbaadf00d",
            "0x8236ebb7cf496a778a8b7475c9756d24e4e64d8278bd2441f907c82465f454af": "0xbad22222baddcafecafeb0bab0bababebeefbabec00010ffcafebabecafed00d",
            "0x8236ebb7cf496a778a8b7475c9756d24e4e64d8278bd2441f907c82465f454b0": "0xcefaedfe0d15ea5edabbad00dead2baddeadbaaddeadbabedeadbeafdeadbeef",
            "0x8236ebb7cf496a778a8b7475c9756d24e4e64d8278bd2441f907c82465f454b1": "0xdeadc0dedeaddeaddeadd00ddeadfa11dead10ccdeadfeeddecafbaddefec8ed",
            "0x8236ebb7cf496a778a8b7475c9756d24e4e64d8278bd2441f907c82465f454b2": "0xd0d0cacae011cfd0facefeedfbadbeeffee1deadfeedbabefeedc0deffbadd11",
            "0x8236ebb7cf496a778a8b7475c9756d24e4e64d8278bd2441f907c82465f454b3": "0xf00dbabe000ff1ce00bab10c1badb0028badf00dabadbabeb105f00db16b00b5",
            "0x8236ebb7cf496a778a8b7475c9756d24e4e64d8278bd2441f907c82465f454b4": "0x0b00b135baaaaaadbaadf00dbad22222baddcafecafeb0bab0bababebeefbabe",
            "0x8236ebb7cf496a778a8b7475c9756d24e4e64d8278bd2441f907c82465f454b5": "0xc00010ffcafebabecafed00dcefaedfe0d15ea5edabbad00dead2baddeadbaad",
            "0x8236ebb7cf496a778a8b7475c9756d24e4e64d8278bd2441f907c82465f454b6": "0xdeadbabedeadbeafdeadbeefdeadc0dedeaddeaddeadd00ddeadfa11dead10cc",
            "0x8236ebb7cf496a778a8b7475c9756d24e4e64d8278bd2441f907c82465f454b7": "0xdeadfeeddecafbaddefec8edd0d0cacae011cfd0facefeedfbadbeeffee1dead",
            "0x8236ebb7cf496a778a8b7475c9756d24e4e64d8278bd2441f907c82465f454b8": "0xfeedbabefeedc0deffbadd11f00dbabe000ff1ce00bab10c1badb0028badf00d",
            "0x8236ebb7cf496a778a8b7475c9756d24e4e64d8278bd2441f907c82465f454b9": "0xabadbabeb105f00db16b00b50b00b135baaaaaadbaadf00dbad22222baddcafe",
            "0x8236ebb7cf496a778a8b7475c9756d24e4e64d8278bd2441f907c82465f454ba": "0xcafeb0bab0bababebeefbabec00010ffcafebabecafed00dcefaedfe0d15ea5e",
            "0x8236ebb7cf496a778a8b7475c9756d24e4e64d8278bd2441f907c82465f454bb": "0xdabbad00dead2baddeadbaaddeadbabedeadbeafdeadbeefdeadc0dedeaddead",
            "0x8236ebb7cf496a778a8b7475c9756d24e4e64d8278bd2441f907c82465f454bc": "0xdeadd00ddeadfa11dead10ccdeadfeeddecafbaddefec8edd0d0cacae011cfd0",
            "0x8236ebb7cf496a778a8b7475c9756d24e4e64d8278bd2441f907c82465f454bd": "0xfacefeedfbadbeeffee1deadfeedbabefeedc0deffbadd11f00dbabe000ff1ce",
            "0x8236ebb7cf496a778a8b7475c9756d24e4e64d8278bd2441f907c82465f454be": "0x00bab10c1badb0028badf00dabadbabeb105f00db16b00b50b00b135baaaaaad",
            "0x8236ebb7cf496a778a8b7475c9756d24e4e64d8278bd2441f907c82465f454bf": "0xbaadf00dbad22222baddcafecafeb0bab0bababebeefbabec00010ffcafebabe",
            "0x8236ebb7cf496a778a8b7475c9756d24e4e64d8278bd2441f907c82465f454c0": "0xcafed00dcefaedfe0d15ea5edabbad00dead2baddeadbaaddeadbabedeadbeaf",
            "0x8236ebb7cf496a778a8b7475c9756d24e4e64d8278bd2441f907c82465f454c1": "0xdeadbeefdeadc0dedeaddeaddeadd00ddeadfa11dead10ccdeadfeeddecafbad",
            "0x8236ebb7cf496a778a8b7475c9756d24e4e64d8278bd2441f907c82465f454c2": "0xdefec8edd0d0cacae011cfd0facefeedfbadbeeffee1deadfeedbabefeedc0de"
          },
          "storage_read": {
            "0x0000000000000000000000000000000000000000000000000000000000000002": {},
            "0x405787fa12a823e0f2b7631cc41b3ba8828b3321ca811111fa75cd3aa3bb5ad8": {},
            "0x8236ebb7cf496a778a8b7475c9756d24e4e64d8278bd2441f907c82465f454a3": {},
            "0x8236ebb7cf496a778a8b7475c9756d24e4e64d8278bd2441f907c82465f454a4": {},
            "0x8236ebb7cf496a778a8b7475c9756d24e4e64d8278bd2441f907c82465f454a5": {},
            "0x8236ebb7cf496a778a8b7475c9756d24e4e64d8278bd2441f907c82465f454a6": {},
            "0x8236ebb7cf496a778a8b7475c9756d24e4e64d8278bd2441f907c82465f454a7": {},
            "0x8236ebb7cf496a778a8b7475c9756d24e4e64d8278bd2441f907c82465f454a8": {},
            "0x8236ebb7cf496a778a8b7475c9756d24e4e64d8278bd2441f907c82465f454a9": {},
            "0x8236ebb7cf496a778a8b7475c9756d24e4e64d8278bd2441f907c82465f454aa": {},
            "0x8236ebb7cf496a778a8b7475c9756d24e4e64d8278bd2441f907c82465f454ab": {},
            "0x8236ebb7cf496a778a8b7475c9756d24e4e64d8278bd2441f907c82465f454ac": {},
            "0x8236ebb7cf496a778a8b7475c9756d24e4e64d8278bd2441f907c82465f454ad": {},
            "0x8236ebb7cf496a778a8b7475c9756d24e4e64d8278bd2441f907c82465f454ae": {},
            "0x8236ebb7cf496a778a8b7475c9756d24e4e64d8278bd2441f907c82465f454af": {},
            "0x8236ebb7cf496a778a8b7475c9756d24e4e64d8278bd2441f907c82465f454b0": {},
            "0x8236ebb7cf496a778a8b7475c9756d24e4e64d8278bd2441f907c82465f454b1": {},
            "0x8236ebb7cf496a778a8b7475c9756d24e4e64d8278bd2441f907c82465f454b2": {},
            "0x8236ebb7cf496a778a8b7475c9756d24e4e64d8278bd2441f907c82465f454b3": {},
            "0x8236ebb7cf496a778a8b7475c9756d24e4e64d8278bd2441f907c82465f454b4": {},
            "0x8236ebb7cf496a778a8b7475c9756d24e4e64d8278bd2441f907c82465f454b5": {},
            "0x8236ebb7cf496a778a8b7475c9756d24e4e64d8278bd2441f907c82465f454b6": {},
            "0x8236ebb7cf496a778a8b7475c9756d24e4e64d8278bd2441f907c82465f454b7": {},
            "0x8236ebb7cf496a778a8b7475c9756d24e4e64d8278bd2441f907c82465f454b8": {},
            "0x8236ebb7cf496a778a8b7475c9756d24e4e64d8278bd2441f907c82465f454b9": {},
            "0x8236ebb7cf496a778a8b7475c9756d24e4e64d8278bd2441f907c82465f454ba": {},
            "0x8236ebb7cf496a778a8b7475c9756d24e4e64d8278bd2441f907c82465f454bb": {},
            "0x8236ebb7cf496a778a8b7475c9756d24e4e64d8278bd2441f907c82465f454bc": {},
            "0x8236ebb7cf496a778a8b7475c9756d24e4e64d8278bd2441f907c82465f454bd": {},
            "0x8236ebb7cf496a778a8b7475c9756d24e4e64d8278bd2441f907c82465f454be": {},
            "0x8236ebb7cf496a778a8b7475c9756d24e4e64d8278bd2441f907c82465f454bf": {},
            "0x8236ebb7cf496a778a8b7475c9756d24e4e64d8278bd2441f907c82465f454c0": {},
            "0x8236ebb7cf496a778a8b7475c9756d24e4e64d8278bd2441f907c82465f454c1": {},
            "0x8236ebb7cf496a778a8b7475c9756d24e4e64d8278bd2441f907c82465f454c2": {}
          },
          "code_read": "YIBgQFI0gBVhABBXYACA/VtQYAQ2EGEEVFdgADVg4ByAY4CUf4ARYQJBV4Bjv1KcoRFhATtXgGPdm+9gEWEAw1eAY/J5yoERYQCHV4Bj8nnKgRRhEWFXgGP00fxhFGERkVeAY/WPw2oUYRHBV4Bj9rC79xRhEfFXgGP953IcFGESIVdhBFRWW4Bj3ZvvYBRhEHFXgGPel6NjFGEQoVeAY+n5s/IUYRDRV4Bj6lFB5hRhEQFXgGPt8APPFGERMVdhBFRWW4Bjzjz07xFhAQpXgGPOPPTvFGEPgVeAY9EXMgsUYQ+xV4Bj1R57WxRhD+FXgGPVP/P9FGEQEVeAY9k81VgUYRBBV2EEVFZbgGO/UpyhFGEOwVeAY8Ngq6YUYQ7xV4BjxCDrYRRhDyFXgGPEvWXVFGEPUVdhBFRWW4BjoYaDyxFhAclXgGOzdAErEWEBjVeAY7N0ASsUYQ3RV4Bjs9hH8hRhDgFXgGO3uGIHFGEOMVeAY7gcFIQUYQ5hV4Bjvch1/BRhDpFXYQRUVluAY6GGg8sUYQzzV4BjonG3IRRhDSNXgGOmChCHFGENQVeAY6ZFycIUYQ1xV4BjrK699hRhDaFXYQRUVluAY5YuTcIRYQIQV4Bjli5NwhRhDANXgGOYRW8+FGEMM1eAY5orfIEUYQxjV4BjnM58+RRhDJNXgGOgQK7GFGEMw1dhBFRWW4BjgJR/gBRhC0NXgGOIDv85FGELc1eAY5GKX80UYQujV4BjkeeydxRhC9NXYQRUVluAYzQw7AYRYQNSV4BjYOE83hFhAtpXgGNvCZyNEWECnleAY28JnI0UYQpTV4BjcdkdKBRhCoNXgGN7bgsOFGEKs1eAY3wZHSAUYQrjV4BjfejG+BRhCxNXYQRUVluAY2DhPN4UYQl1V4BjYT0KghRhCaVXgGNjE41PFGEJ1VeAY2Wbu08UYQoFV4Bjbn8f5xRhCiNXYQRUVluAY0D+JmIRYQMhV4BjQP4mYhRhCIVXgGNEzzvHFGEItVeAY0phrx8UYQjlV4BjTSx0sxRhCRVXgGNVkMLZFGEJRVdhBFRWW4BjNDDsBhRhB9dXgGM3EwPAFGEIB1eAYzpBHxIUYQglV4BjOkJd/BRhCFVXYQRUVluAYxgJO0YRYQPgV4BjIZzd6xFhA6RXgGMhnN3rFGEG51eAYyKU/H8UYQcXV4BjKHHvhRRhB0dXgGMrIe9EFGEHd1eAYy0055gUYQenV2EEVFZbgGMYCTtGFGEF91eAYxm2IdYUYQYnV4BjGroH6hRhBldXgGMd4vNDFGEGh1eAYyAHMy4UYQa3V2EEVFZbgGMLqKc7EWEEJ1eAYwuopzsUYQUZV4BjEoemjBRhBUlXgGMTXVL3FGEFZ1eAYxWBzxkUYQWXV4BjFlghUBRhBcdXYQRUVluAYwNK73EUYQRZV4BjBQCC+BRhBIlXgGMIe06EFGEEuVeAYws7mWoUYQTpV1tgAID9W2EEc2AEgDYDgQGQYQRukZBhJhFWW2ESUVZbYEBRYQSAkZBhJk1WW2BAUYCRA5DzW2EEo2AEgDYDgQGQYQSekZBhJhFWW2ESjFZbYEBRYQSwkZBhJk1WW2BAUYCRA5DzW2EE02AEgDYDgQGQYQTOkZBhJhFWW2ESx1ZbYEBRYQTgkZBhJk1WW2BAUYCRA5DzW2EFA2AEgDYDgQGQYQT+kZBhJ65WW2ETAVZbYEBRYQUQkZBhKHZWW2BAUYCRA5DzW2EFM2AEgDYDgQGQYQUukZBhJhFWW2ETKFZbYEBRYQVAkZBhJk1WW2BAUYCRA5DzW2EFUWETZFZbYEBRYQVekZBhJk1WW2BAUYCRA5DzW2EFgWAEgDYDgQGQYQV8kZBhJhFWW2ETbVZbYEBRYQWOkZBhJk1WW2BAUYCRA5DzW2EFsWAEgDYDgQGQYQWskZBhJhFWW2ETqVZbYEBRYQW+kZBhJk1WW2BAUYCRA5DzW2EF4WAEgDYDgQGQYQXckZBhJhFWW2ET5FZbYEBRYQXukZBhJk1WW2BAUYCRA5DzW2EGEWAEgDYDgQGQYQYMkZBhJhFWW2EUP1ZbYEBRYQYekZBhJk1WW2BAUYCRA5DzW2EGQWAEgDYDgQGQYQY8kZBhJhFWW2EUfVZbYEBRYQZOkZBhJk1WW2BAUYCRA5DzW2EGcWAEgDYDgQGQYQZskZBhJhFWW2EVDFZbYEBRYQZ+kZBhJk1WW2BAUYCRA5DzW2EGoWAEgDYDgQGQYQackZBhJhFWW2EVUlZbYEBRYQaukZBhJk1WW2BAUYCRA5DzW2EG0WAEgDYDgQGQYQbMkZBhJhFWW2EVkFZbYEBRYQbekZBhJk1WW2BAUYCRA5DzW2EHAWAEgDYDgQGQYQb8kZBhJhFWW2EVzFZbYEBRYQcOkZBhJk1WW2BAUYCRA5DzW2EHMWAEgDYDgQGQYQcskZBhJhFWW2EWB1ZbYEBRYQc+kZBhJk1WW2BAUYCRA5DzW2EHYWAEgDYDgQGQYQdckZBhJhFWW2EWRlZbYEBRYQdukZBhJk1WW2BAUYCRA5DzW2EHkWAEgDYDgQGQYQeMkZBhJhFWW2EWgVZbYEBRYQeekZBhJk1WW2BAUYCRA5DzW2EHwWAEgDYDgQGQYQe8kZBhJhFWW2EWvFZbYEBRYQfOkZBhJk1WW2BAUYCRA5DzW2EH8WAEgDYDgQGQYQfskZBhJhFWW2EW91ZbYEBRYQf+kZBhKHZWW2BAUYCRA5DzW2EID2EXo1ZbYEBRYQgckZBhJk1WW2BAUYCRA5DzW2EIP2AEgDYDgQGQYQg6kZBhJhFWW2EXwlZbYEBRYQhMkZBhJk1WW2BAUYCRA5DzW2EIb2AEgDYDgQGQYQhqkZBhJhFWW2EX/lZbYEBRYQh8kZBhJk1WW2BAUYCRA5DzW2EIn2AEgDYDgQGQYQiakZBhJhFWW2EYOlZbYEBRYQiskZBhJk1WW2BAUYCRA5DzW2EIz2AEgDYDgQGQYQjKkZBhJhFWW2EYeVZbYEBRYQjckZBhJk1WW2BAUYCRA5DzW2EI/2AEgDYDgQGQYQj6kZBhJhFWW2EYtFZbYEBRYQkMkZBhJk1WW2BAUYCRA5DzW2EJL2AEgDYDgQGQYQkqkZBhJhFWW2EY8lZbYEBRYQk8kZBhJk1WW2BAUYCRA5DzW2EJX2AEgDYDgQGQYQlakZBhJhFWW2EZLVZbYEBRYQlskZBhJk1WW2BAUYCRA5DzW2EJj2AEgDYDgQGQYQmKkZBhJhFWW2EZclZbYEBRYQmckZBhJk1WW2BAUYCRA5DzW2EJv2AEgDYDgQGQYQm6kZBhJ65WW2EZrlZbYEBRYQnMkZBhKHZWW2BAUYCRA5DzW2EJ72AEgDYDgQGQYQnqkZBhJ65WW2EZ4FZbYEBRYQn8kZBhKLFWW2BAUYCRA5DzW2EKDWEaDFZbYEBRYQoakZBhJk1WW2BAUYCRA5DzW2EKPWAEgDYDgQGQYQo4kZBhJhFWW2EaSFZbYEBRYQpKkZBhJk1WW2BAUYCRA5DzW2EKbWAEgDYDgQGQYQpokZBhJhFWW2EahlZbYEBRYQp6kZBhJk1WW2BAUYCRA5DzW2EKnWAEgDYDgQGQYQqYkZBhJhFWW2EawVZbYEBRYQqqkZBhJk1WW2BAUYCRA5DzW2EKzWAEgDYDgQGQYQrIkZBhJhFWW2Ea/1ZbYEBRYQrakZBhJk1WW2BAUYCRA5DzW2EK/WAEgDYDgQGQYQr4kZBhJhFWW2EbO1ZbYEBRYQsKkZBhJk1WW2BAUYCRA5DzW2ELLWAEgDYDgQGQYQsokZBhJhFWW2EbdlZbYEBRYQs6kZBhJk1WW2BAUYCRA5DzW2ELXWAEgDYDgQGQYQtYkZBhJhFWW2EbslZbYEBRYQtqkZBhJk1WW2BAUYCRA5DzW2ELjWAEgDYDgQGQYQuIkZBhJhFWW2EcD1ZbYEBRYQuakZBhJk1WW2BAUYCRA5DzW2ELvWAEgDYDgQGQYQu4kZBhJhFWW2EcTlZbYEBRYQvKkZBhJk1WW2BAUYCRA5DzW2EL7WAEgDYDgQGQYQvokZBhJhFWW2EciVZbYEBRYQv6kZBhJk1WW2BAUYCRA5DzW2EMHWAEgDYDgQGQYQwYkZBhJ65WW2Ec1VZbYEBRYQwqkZBhKHZWW2BAUYCRA5DzW2EMTWAEgDYDgQGQYQxIkZBhJhFWW2EdQ1ZbYEBRYQxakZBhJk1WW2BAUYCRA5DzW2EMfWAEgDYDgQGQYQx4kZBhJhFWW2Edg1ZbYEBRYQyKkZBhJk1WW2BAUYCRA5DzW2EMrWAEgDYDgQGQYQyokZBhJ65WW2EdvlZbYEBRYQy6kZBhKHZWW2BAUYCRA5DzW2EM3WAEgDYDgQGQYQzYkZBhJ65WW2Ed71ZbYEBRYQzqkZBhKHZWW2BAUYCRA5DzW2ENDWAEgDYDgQGQYQ0IkZBhJ65WW2EeFlZbYEBRYQ0akZBhKQ1WW2BAUYCRA5DzW2ENK2EemFZbYEBRYQ04kZBhJk1WW2BAUYCRA5DzW2ENW2AEgDYDgQGQYQ1WkZBhJhFWW2Ee41ZbYEBRYQ1okZBhJk1WW2BAUYCRA5DzW2ENi2AEgDYDgQGQYQ2GkZBhJhFWW2EfHlZbYEBRYQ2YkZBhJk1WW2BAUYCRA5DzW2ENu2AEgDYDgQGQYQ22kZBhJhFWW2EfWlZbYEBRYQ3IkZBhJk1WW2BAUYCRA5DzW2EN62AEgDYDgQGQYQ3mkZBhKYhWW2EfllZbYEBRYQ34kZBhJk1WW2BAUYCRA5DzW2EOG2AEgDYDgQGQYQ4WkZBhJhFWW2Ef5FZbYEBRYQ4okZBhJk1WW2BAUYCRA5DzW2EOS2AEgDYDgQGQYQ5GkZBhJhFWW2EgH1ZbYEBRYQ5YkZBhJk1WW2BAUYCRA5DzW2EOe2AEgDYDgQGQYQ52kZBhJhFWW2EgWlZbYEBRYQ6IkZBhJk1WW2BAUYCRA5DzW2EOq2AEgDYDgQGQYQ6mkZBhJhFWW2EglVZbYEBRYQ64kZBhJk1WW2BAUYCRA5DzW2EO22AEgDYDgQGQYQ7WkZBhJhFWW2Eg0FZbYEBRYQ7okZBhJk1WW2BAUYCRA5DzW2EPC2AEgDYDgQGQYQ8GkZBhJhFWW2EhFFZbYEBRYQ8YkZBhJk1WW2BAUYCRA5DzW2EPO2AEgDYDgQGQYQ82kZBhJhFWW2EhUFZbYEBRYQ9IkZBhJk1WW2BAUYCRA5DzW2EPa2AEgDYDgQGQYQ9mkZBhJhFWW2Ehi1ZbYEBRYQ94kZBhJk1WW2BAUYCRA5DzW2EPm2AEgDYDgQGQYQ+WkZBhJhFWW2EhyVZbYEBRYQ+okZBhJk1WW2BAUYCRA5DzW2EPy2AEgDYDgQGQYQ/GkZBhJhFWW2EiBlZbYEBRYQ/YkZBhJk1WW2BAUYCRA5DzW2EP+2AEgDYDgQGQYQ/2kZBhJhFWW2EiQFZbYEBRYRAIkZBhJk1WW2BAUYCRA5DzW2EQK2AEgDYDgQGQYRAmkZBhJhFWW2EifFZbYEBRYRA4kZBhJk1WW2BAUYCRA5DzW2EQW2AEgDYDgQGQYRBWkZBhJhFWW2EiuFZbYEBRYRBokZBhJk1WW2BAUYCRA5DzW2EQi2AEgDYDgQGQYRCGkZBhJhFWW2EjE1ZbYEBRYRCYkZBhJk1WW2BAUYCRA5DzW2EQu2AEgDYDgQGQYRC2kZBhJhFWW2EjVVZbYEBRYRDIkZBhJk1WW2BAUYCRA5DzW2EQ62AEgDYDgQGQYRDmkZBhJhFWW2EjkVZbYEBRYRD4kZBhJk1WW2BAUYCRA5DzW2ERG2AEgDYDgQGQYREWkZBhJhFWW2EjzlZbYEBRYREokZBhJk1WW2BAUYCRA5DzW2ERS2AEgDYDgQGQYRFGkZBhJ65WW2EkEFZbYEBRYRFYkZBhKHZWW2BAUYCRA5DzW2ERe2AEgDYDgQGQYRF2kZBhJhFWW2Ekf1ZbYEBRYRGIkZBhJk1WW2BAUYCRA5DzW2ERq2AEgDYDgQGQYRGmkZBhJhFWW2Eku1ZbYEBRYRG4kZBhJk1WW2BAUYCRA5DzW2ER22AEgDYDgQGQYRHWkZBhJhFWW2Ek+VZbYEBRYRHokZBhJk1WW2BAUYCRA5DzW2ESC2AEgDYDgQGQYRIGkZBhJ65WW2ElOFZbYEBRYRIYkZBhKhBWW2BAUYCRA5DzW2ESO2AEgDYDgQGQYRI2kZBhJhFWW2ElalZbYEBRYRJIkZBhJk1WW2BAUYCRA5DzW2AAYRJbYRejVltQYABl3q2+7wA2kFBgAIBbhIEQFWESgVc2kVBgAYEBkFBhEmtWW1BQgJFQUJGQUFZbYABhEpZhF6NWW1BgAGXerb7vADKQUGAAgFuEgRAVYRK8VzKRUGABgQGQUGESplZbUFCAkVBQkZBQVltgAGES0WEXo1ZbUGAAZd6tvu8AUpBQYABbg4EQFWES91eBYABSYAGBAZBQYRLgVltQgJFQUJGQUFZbYGBgAGAIkFBgQIKEUWAghgFgAIVa8YBhEyFXYACA/VtQUJGQUFZbYABhEzJhF6NWW1BgAGXerb7vAAGQUGAAW4OBEBVhE1pXYACCAZFQYAGBAZBQYRNBVltQgJFQUJGQUFZbYACAVJBQkFZbYABhE3dhF6NWW1BgAGXerb7vABeQUGAAW4OBEBVhE59XYACCF5FQYAGBAZBQYROGVltQgJFQUJGQUFZbYABhE7NhF6NWW1BgAGXerb7vADSQUGAAgFuEgRAVYRPZVzSRUGABgQGQUGETw1ZbUFCAkVBQkZBQVltgAGET7mEXo1ZbUGAAZd6tvu8ABpBQYABbg4EQFWEUNVd///////////////////////////////////////////+CBpFQYAGBAZBQYRP9VltQgJFQUJGQUFZbYABhFElhF6NWW1BgAGXerb7vABOQUGAAgFuEgRAVYRRyV2ABgxORUGABgQGQUGEUWVZbUFCAkVBQkZBQVltgAGEUh2EXo1ZbUGAAZd6tvu8AIJBQf/////8AAAAAAAAAAAAAAAAAAAAAAAAAAAAAAAAAAAAAYABSYACAW4SBEBVhFNVXYARgACCRUGABgQGQUGEUu1ZbUH8pBFpZIAfQwkbvAsIiNXDalSLQzw9zKCx5obyPC7LCOIEUYRUCV2AAkVBbUICRUFCRkFBWW2AAYRUWYRejVltQYABl3q2+7wCkkFCAYBBSYABbg4EQFWEVSFdgBGADYAKDYAZgEKRgAYEBkFBhFSlWW1CAkVBQkZBQVltgAGEVXGEXo1ZbUGAAZd6tvu8AGpBQYACAW4SBEBVhFYVXgmAAGpFQYAGBAZBQYRVsVltQUICRUFCRkFBWW2AAYRWaYRejVltQYABl3q2+7wAbkFBgAFuDgRAVYRXCV4FgABuRUGABgQGQUGEVqVZbUICRUFCRkFBWW2AAYRXWYRejVltQYABl3q2+7wBCkFBgAIBbhIEQFWEV/FdCkVBgAYEBkFBhFeZWW1BQgJFQUJGQUFZbYABhFhFhF6NWW1BgAGXerb7vADGQUGAAMGAAW4WBEBVhFjpXgTGSUGABgQGQUGEWI1ZbUFBQgJFQUJGQUFZbYABhFlBhF6NWW1BgAGXerb7vAEiQUGAAgFuEgRAVYRZ2V0iRUGABgQGQUGEWYFZbUFCAkVBQkZBQVltgAGEWi2EXo1ZbUGAAZd6tvu8APZBQYACAW4SBEBVhFrFXPZFQYAGBAZBQYRabVltQUICRUFCRkFBWW2AAYRbGYRejVltQYABl3q2+7wBDkFBgAIBbhIEQFWEW7FdDkVBgAYEBkFBhFtZWW1BQgJFQUJGQUFZbYAKBgVSBEGEXB1dgAID9W5BgAFJgIGAAIAFgAJFQkFCAVGEXIpBhKlpWW4BgHwFgIICRBAJgIAFgQFGQgQFgQFKAkpGQgYFSYCABgoBUYRdOkGEqWlZbgBVhF5tXgGAfEGEXcFdhAQCAg1QEAoNSkWAgAZFhF5tWW4IBkZBgAFJgIGAAIJBbgVSBUpBgAQGQYCABgIMRYRd+V4KQA2AfFoIBkVtQUFBQUIFWW2AAYAFgAFRhF7SRkGEqulZbYACBkFVQYABUkFCQVltgAGEXzGEXo1ZbUGAAZd6tvu8ABJBQYABbg4EQFWEX9FdgAYIEkVBgAYEBkFBhF9tWW1CAkVBQkZBQVltgAGEYCGEXo1ZbUGAAZd6tvu8AN5BQYABbg4EQFWEYMFdgIGAAgDdgAYEBkFBhGBdWW1CAkVBQkZBQVltgAGEYRGEXo1ZbUGAAZd6tvu8AoJBQgGAQUmAAW4OBEBVhGG9XYAZgEKBgAYEBkFBhGFdWW1CAkVBQkZBQVltgAGEYg2EXo1ZbUGAAZd6tvu8AM5BQYACAW4SBEBVhGKlXM5FQYAGBAZBQYRiTVltQUICRUFCRkFBWW2AAYRi+YRejVltQYABl3q2+7wBTkFBgAFuDgRAVYRjoV2Perb7vYABSYAGBAZBQYRjNVltQgJFQUJGQUFZbYABhGPxhF6NWW1BgAGXerb7vADqQUGAAgFuEgRAVYRkiVzqRUGABgQGQUGEZDFZbUFCAkVBQkZBQVltgAGEZN2EXo1ZbUGAAZd6tvu8AUZBQYACBYABSYABbhIEQFWEZZFdgAFGRUGABgQGQUGEZTFZbUICRUFCAkVBQkZBQVltgAGEZfGEXo1ZbUGAAZd6tvu8AHZBQYABbg4EQFWEZpFeBYAAdkVBgAYEBkFBhGYtWW1CAkVBQkZBQVltgYGAAYAWQUGAggwGDUWBAUWAggYOFYACIWvGAYRnTV2AAgP1bgZVQUFBQUFCRkFBWW2AAgGACkFBgIIMBg1GDYCCBg4VgAIha8YBhGgJXYACA/VtQUFBQUJGQUFZbYABhGhZhF6NWW1BbYQPoWhEVYRpAV2ABgGAAgoJUYRo0kZBhKrpWW5JQUIGQVVBhGhhWW2ABVJBQkFZbYABhGlJhF6NWW1BgAGXerb7vABCQUGAAgFuEgRAVYRp7V4JgARCRUGABgQGQUGEaYlZbUFCAkVBQkZBQVltgAGEakGEXo1ZbUGAAZd6tvu8ARJBQYACAW4SBEBVhGrZXRJFQYAGBAZBQYRqgVltQUICRUFCRkFBWW2AAYRrLYRejVltQYABl3q2+7wARkFBgAIBbhIEQFWEa9FdgAYMRkVBgAYEBkFBhGttWW1BQgJFQUJGQUFZbYABhGwlhF6NWW1BgAGXerb7vAD6QUGAAW4OBEBVhGzFXYCBgAIA+YAGBAZBQYRsYVltQgJFQUJGQUFZbYABhG0VhF6NWW1BgAGXerb7vAEWQUGAAgFuEgRAVYRtrV0WRUGABgQGQUGEbVVZbUFCAkVBQkZBQVltgAGEbgGEXo1ZbUGAAZd6tvu8AApBQYABbg4EQFWEbqFdgAYICkVBgAYEBkFBhG49WW1CAkVBQkZBQVltgAGEbvGEXo1ZbUGAAZd6tvu8ACJBQYABbg4EQFWEcBVd///////////////////////////////////////////9gAIMIkVBgAYEBkFBhG8tWW1CAkVBQkZBQVltgAGEcGWEXo1ZbUGAAZd6tvu8AVJBQgGAAVWAAW4OBEBVhHERXYABUkVBgAYEBkFBhHCxWW1CAkVBQkZBQVltgAGEcWGEXo1ZbUGAAZd6tvu8AWpBQYACAW4SBEBVhHH5XWpFQYAGBAZBQYRxoVltQUICRUFCRkFBWW2AAYRyTYRejVltQYABl3q2+7wAZkFBgAFuDgRAVYRy5V4EZkVBgAYEBkFBhHKJWW1Bl3q2+7wAZgRRhHMxXgBmQUFuAkVBQkZBQVltgYICCURRhHRpXYEBRfwjDeaAAAAAAAAAAAAAAAAAAAAAAAAAAAAAAAAAAAAAAgVJgBAFhHRGQYStLVltgQFGAkQOQ/VtgAGAHkFBgIIMBg1FgQISChGAAh1rxgGEdOldgAID9W1BQUFCRkFBWW2AAYR1NYRejVltQYABl3q2+7wChkFCAYBBSYABbg4EQFWEdeVeAYAZgEKFgAYEBkFBhHWBWW1CAkVBQkZBQVltgAGEdjWEXo1ZbUGAAZd6tvu8AFpBQYABbg4EQFWEdtFeBghaRUGABgQGQUGEdnFZbUICRUFCRkFBWW2BgYABgBJBQYCCDAYNRYEBRgYGDhWAAiFrxgGEd4ldgAID9W4GVUFBQUFBQkZBQVltgYGAAYAiQUGBAgoRRYCCGAWAAhVrxgGEeD1dgAID9W1BQkZBQVltgAGCAglEUYR5cV2BAUX8Iw3mgAAAAAAAAAAAAAAAAAAAAAAAAAAAAAAAAAAAAAIFSYAQBYR5TkGErt1ZbYEBRgJEDkP1bYABgAZBQYCCDAWAggQFRYB8aYCCCAVJgIGBAUWCAg2AAhlrxgGEeildgAID9W2BAUVGTUFBQUJGQUFZbYABhHqJhF6NWW1BbYQPoWhEVYR7bV2ABgGAAgoJUYR7AkZBhKrpWW5JQUIGQVVBDYAFUYR7VkZBhLAZWW1BhHqRWW2ABVJBQkFZbYABhHu1hF6NWW1BgAGXerb7vAEaQUGAAgFuEgRAVYR8TV0aRUGABgQGQUGEe/VZbUFCAkVBQkZBQVltgAGEfKGEXo1ZbUGAAZd6tvu8ABZBQYABbg4EQFWEfUFdgAYIFkVBgAYEBkFBhHzdWW1CAkVBQkZBQVltgAGEfZGEXo1ZbUGAAZd6tvu8AOZBQYABbg4EQFWEfjFdgIGAAgDlgAYEBkFBhH3NWW1CAkVBQkZBQVltgAGACg4OQkYBgAYFUAYCCVYCRUFBgAZADkGAAUmAgYAAgAWAAkJGSkJGSkJGSkJGSUJGCYR/VkpGQYS3uVltQYAKAVJBQkFCSkVBQVltgAGEf7mEXo1ZbUGAAZd6tvu8AWZBQYACAW4SBEBVhIBRXWZFQYAGBAZBQYR/+VltQUICRUFCRkFBWW2AAYSApYRejVltQYABl3q2+7wA4kFBgAIBbhIEQFWEgT1c4kVBgAYEBkFBhIDlWW1BQgJFQUJGQUFZbYABhIGRhF6NWW1BgAGXerb7vAEGQUGAAgFuEgRAVYSCKV0GRUGABgQGQUGEgdFZbUFCAkVBQkZBQVltgAGEgn2EXo1ZbUGAAZd6tvu8AMJBQYACAW4SBEBVhIMVXMJFQYAGBAZBQYSCvVltQUICRUFCRkFBWW2AAYSDaYRejVltQYABl3q2+7wCjkFCAYBBSYABbg4EQFWEhCldgA2ACgmAGYBCjYAGBAZBQYSDtVltQgJFQUJGQUFZbYABhIR5hF6NWW1BgAGXerb7vAAuQUGAAW4OBEBVhIUZXgWAgC5FQYAGBAZBQYSEtVltQgJFQUJGQUFZbYABhIVphF6NWW1BgAGXerb7vAEeQUGAAgFuEgRAVYSGAV0eRUGABgQGQUGEhalZbUFCAkVBQkZBQVltgAGEhlWEXo1ZbUGAAZd6tvu8AHJBQYACAW4SBEBVhIb5XgmAAHJJQYAGBAZBQYSGlVltQUICRUFCRkFBWW2AAYSHTYRejVltQYABl3q2+7wA1kFBgAIBbhIEQFWEh+1dgADWRUGABgQGQUGEh41ZbUFCAkVBQkZBQVltgAGEiEGEXo1ZbUGAAZd6tvu8AVZBQYABbg4EQFWEiNleBYABVYAGBAZBQYSIfVltQgJFQUJGQUFZbYABhIkphF6NWW1BgAGXerb7vABiQUGAAW4OBEBVhInJXYACCGJFQYAGBAZBQYSJZVltQgJFQUJGQUFZbYABhIoZhF6NWW1BgAGXerb7vAAOQUGAAW4OBEBVhIq5XYACCA5FQYAGBAZBQYSKVVltQgJFQUJGQUFZbYABhIsJhF6NWW1BgAGXerb7vAAeQUGAAW4OBEBVhIwlXf///////////////////////////////////////////ggeRUGABgQGQUGEi0VZbUICRUFCRkFBWW2AAYSMdYRejVltQYABl3q2+7wCikFCAYBBSYABbg4EQFWEjS1dgAoFgBmAQomABgQGQUGEjMFZbUICRUFCRkFBWW2AAYSNfYRejVltQYABl3q2+7wAKkFBgAFuDgRAVYSOHV2ABggqRUGABgQGQUGEjblZbUICRUFCRkFBWW2AAYSObYRejVltQYABl3q2+7wAUkFBgAIBbhIEQFWEjw1eCgxSRUGABgQGQUGEjq1ZbUFCAkVBQkZBQVltgAGEj2GEXo1ZbUGAAZd6tvu8AQJBQYABgAUMDYABbhYEQFWEkBFeBQJJQYAGBAZBQYSPtVltQUFCAkVBQkZBQVltgYGCAglEUYSRWV2BAUX8Iw3mgAAAAAAAAAAAAAAAAAAAAAAAAAAAAAAAAAAAAAIFSYAQBYSRNkGErS1ZbYEBRgJEDkP1bYABgBpBQYCCDAYNRYECEgoRgAIda8YBhJHZXYACA/VtQUFBQkZBQVltgAGEkiWEXo1ZbUGAAZd6tvu8AFZBQYACAW4SBEBVhJLBXghWRUGABgQGQUGEkmVZbUFCAkVBQkZBQVltgAGEkxWEXo1ZbUGAAZd6tvu8AEpBQYACAW4SBEBVhJO5XgmABEpFQYAGBAZBQYSTVVltQUICRUFCRkFBWW2AAYSUDYRejVltQYABl3q2+7wA7kFBgADBgAFuFgRAVYSUsV4E7klBgAYEBkFBhJRVWW1BQUICRUFCRkFBWW2AAgGADkFBgIIMBg1FgQFFgFIGDhWAAiFrxgGElXFdgAID9W4FRlVBQUFBQUJGQUFZbYABhJXRhF6NWW1BgAGXerb7vAAmQUGAAW4OBEBVhJb1Xf///////////////////////////////////////////YAGDCZFQYAGBAZBQYSWDVltQgJFQUJGQUFZbYABgQFGQUJBWW2AAgP1bYACA/VtgAIGQUJGQUFZbYSXugWEl21ZbgRRhJflXYACA/VtQVltgAIE1kFBhJguBYSXlVluSkVBQVltgAGAggoQDEhVhJidXYSYmYSXRVltbYABhJjWEgoUBYSX8VluRUFCSkVBQVlthJkeBYSXbVluCUlBQVltgAGAgggGQUGEmYmAAgwGEYSY+VluSkVBQVltgAID9W2AAgP1bYABgHxlgH4MBFpBQkZBQVlt/Tkh7cQAAAAAAAAAAAAAAAAAAAAAAAAAAAAAAAAAAAABgAFJgQWAEUmAkYAD9W2Emu4JhJnJWW4EBgYEQZ///////////ghEXFWEm2ldhJtlhJoNWW1uAYEBSUFBQVltgAGEm7WElx1ZbkFBhJvmCgmEmslZbkZBQVltgAGf//////////4IRFWEnGVdhJxhhJoNWW1thJyKCYSZyVluQUGAggQGQUJGQUFZbgoGDN2AAg4MBUlBQUFZbYABhJ1FhJ0yEYSb+VlthJuNWW5BQgoFSYCCBAYSEhAERFWEnbVdhJ2xhJm1WW1thJ3iEgoVhJy9WW1CTklBQUFZbYACCYB+DARJhJ5VXYSeUYSZoVltbgTVhJ6WEgmAghgFhJz5WW5FQUJKRUFBWW2AAYCCChAMSFWEnxFdhJ8NhJdFWW1tgAIIBNWf//////////4ERFWEn4ldhJ+FhJdZWW1thJ+6EgoUBYSeAVluRUFCSkVBQVltgAIFRkFCRkFBWW2AAgoJSYCCCAZBQkpFQUFZbYABbg4EQFWEoMVeAggFRgYQBUmAggQGQUGEoFlZbYACEhAFSUFBQUFZbYABhKEiCYSf3VlthKFKBhWEoAlZbk1BhKGKBhWAghgFhKBNWW2Eoa4FhJnJWW4QBkVBQkpFQUFZbYABgIIIBkFCBgQNgAIMBUmEokIGEYSg9VluQUJKRUFBWW2AAgZBQkZBQVlthKKuBYSiYVluCUlBQVltgAGAgggGQUGEoxmAAgwGEYSiiVluSkVBQVltgAHP//////////////////////////4IWkFCRkFBWW2AAYSj3gmEozFZbkFCRkFBWW2EpB4FhKOxWW4JSUFBWW2AAYCCCAZBQYSkiYACDAYRhKP5WW5KRUFBWW2AAgP1bYACA/VtgAICDYB+EARJhKUhXYSlHYSZoVltbgjWQUGf//////////4ERFWEpZVdhKWRhKShWW1tgIIMBkVCDYAGCAoMBERVhKYFXYSmAYSktVltbklCSkFBWW2AAgGAgg4UDEhVhKZ9XYSmeYSXRVltbYACDATVn//////////+BERVhKb1XYSm8YSXWVltbYSnJhYKGAWEpMlZbklCSUFCSUJKQUFZbYAB///////////////////////////8AAAAAAAAAAAAAAACCFpBQkZBQVlthKgqBYSnVVluCUlBQVltgAGAgggGQUGEqJWAAgwGEYSoBVluSkVBQVlt/Tkh7cQAAAAAAAAAAAAAAAAAAAAAAAAAAAAAAAAAAAABgAFJgImAEUmAkYAD9W2AAYAKCBJBQYAGCFoBhKnJXYH+CFpFQW2AgghCBA2EqhVdhKoRhKitWW1tQkZBQVlt/Tkh7cQAAAAAAAAAAAAAAAAAAAAAAAAAAAAAAAAAAAABgAFJgEWAEUmAkYAD9W2AAYSrFgmEl21ZbkVBhKtCDYSXbVluSUIKCAZBQgIIRFWEq6FdhKudhKotWW1uSkVBQVltgAIKCUmAgggGQUJKRUFBWW39JbnZhbGlkIGlucHV0IGxlbmd0aAAAAAAAAAAAAAAAAGAAggFSUFZbYABhKzVgFINhKu5WW5FQYStAgmEq/1ZbYCCCAZBQkZBQVltgAGAgggGQUIGBA2AAgwFSYStkgWErKFZbkFCRkFBWW39JbnZhbGlkIGlucHV0IGRhdGEgbGVuZ3RoLgAAAAAAAGAAggFSUFZbYABhK6FgGoNhKu5WW5FQYSusgmEra1ZbYCCCAZBQkZBQVltgAGAgggGQUIGBA2AAgwFSYSvQgWErlFZbkFCRkFBWW39OSHtxAAAAAAAAAAAAAAAAAAAAAAAAAAAAAAAAAAAAAGAAUmASYARSYCRgAP1bYABhLBGCYSXbVluRUGEsHINhJdtWW5JQgmEsLFdhLCthK9dWW1uCggaQUJKRUFBWW2AAgpBQkpFQUFZbYACBkFCBYABSYCBgACCQUJGQUFZbYABgIGAfgwEEkFCRkFBWW2AAgoIbkFCSkVBQVltgAGAIgwJhLKR///////////////////////////////////////////+CYSxnVlthLK6Gg2EsZ1ZblVCAGYQWk1CAhhaEF5JQUFCTklBQUFZbYACBkFCRkFBWW2AAYSzrYSzmYSzhhGEl21ZbYSzGVlthJdtWW5BQkZBQVltgAIGQUJGQUFZbYS0Fg2Es0FZbYS0ZYS0RgmEs8lZbhIRUYSx0VluCVVBQUFBWW2AAkFZbYS0uYS0hVlthLTmBhIRhLPxWW1BQUFZbW4GBEBVhLV1XYS1SYACCYS0mVltgAYEBkFBhLT9WW1BQVltgH4IRFWEtoldhLXOBYSxCVlthLXyEYSxXVluBAWAghRAVYS2LV4GQUFthLZ9hLZeFYSxXVluDAYJhLT5WW1BQW1BQUFZbYACCghyQUJKRUFBWW2AAYS3FYAAZhGAIAmEtp1ZbGYCDFpFQUJKRUFBWW2AAYS3eg4NhLbRWW5FQgmACAoIXkFCSkVBQVlthLfiDg2EsN1ZbZ///////////gREVYS4RV2EuEGEmg1ZbW2EuG4JUYSpaVlthLiaCgoVhLWFWW2AAYB+DEWABgRRhLlVXYACEFWEuQ1eChwE1kFBbYS5NhYJhLdJWW4ZVUGEutVZbYB8ZhBZhLmOGYSxCVltgAFuCgRAVYS6LV4SJATWCVWABggGRUGAghQGUUGAggQGQUGEuZlZbhoMQFWEuqFeEiQE1YS6kYB+JFoJhLbRWW4NVUFtgAWACiAIBiFVQUFBbUFBQUFBQUFb+omRpcGZzWCISIDEkITSIwvH8pZaHh/DD6W+6hGkSmoB5jhHudSkDtL/cZHNvbGNDAAgTADM=",
          "touched": true,
          "read": true
        },
        "0x70A0bb66cF004D0FbdB6880Db1E283871cF13D27": {
          "address": "0x70A0bb66cF004D0FbdB6880Db1E283871cF13D27",
          "read": true
        },
        "0x85dA99c8a7C2C95964c8EfD687E95E632Fc533D6": {
          "address": "0x85dA99c8a7C2C95964c8EfD687E95E632Fc533D6",
          "nonce": 4166,
          "read": true
        }
      }
    }
  ]
}
