{
  "accountTrie": {
    "10acbab12823357aa0f63313a255c78eec09c0b4d1c87054de7e7ba6b7fd90be": "f851808080808080808080a0dca76e0366599f3337b265d40bb5f1974763ca05f94a496f333a243d2397827d80a0a06cc4f3961b5e41430dce8fa6a916353920878556cc86d2561b8a612a51fbe28080808080",
    "546a82903699fe08bbb8c805e9a334e4bf4b00b66c3b1ce8617a92edeaa0b5ee": "f851a0e29cd6451f96ed556022f6076eacfbb24d0680280f8a4a588419a89b9a4260aa80808080808080a0564d1da5d6ac73a33a43d9e4091998138568d7d10286589f7f3787094a7d7cef8080808080808080",
    "564d1da5d6ac73a33a43d9e4091998138568d7d10286589f7f3787094a7d7cef": "f8729f30c7b7ae81a58eb98d9c78de4a1fd7fd9535fc953ed2be602daaa41767312ab850f84e808ad3c21bd2b14b5e27cb75a056e81f171bcc55a6ff8345e692c0f86e5b48e01b996cadc001622fb5e363b421a0c5d2460186f7233c927e7db2dcc703c0e500b653ca82273b7bfad8045d85a470",
    "8173925d56348f9ed0f2bf13a8d432726cd9d779226dcc952dea5eb6d0f5f222": "f8749f3eec2b84f0ba344fd4b4d2f022469febe7a772c4789acfc119eb558ab1da3db852f850128c033b2e3c9e96f9a24df2c3e4a056e81f171bcc55a6ff8345e692c0f86e5b48e01b996cadc001622fb5e363b421a0c5d2460186f7233c927e7db2dcc703c0e500b653ca82273b7bfad8045d85a470",
    "8628a66e9a02c9858a9318aa3f74be05b1fa73f1cef1f3a9f3539719b952cd2d": "f851808080a0546a82903699fe08bbb8c805e9a334e4bf4b00b66c3b1ce8617a92edeaa0b5ee80a03d2c9faa594230d254816429f8dc379c30c8b3679ef67f44dd31f3e6822f9a498080808080808080808080",
    "a06cc4f3961b5e41430dce8fa6a916353920878556cc86d2561b8a612a51fbe2": "f869a02038fb9c592da60867c745d18fca27ef0eb8ef0634db9f985ac5c8410bc5e81eb846f8440180a054a7dbfb9323175b5ec46ee4317de391230451e4a5f47ab5e94c70f055bb1b31a068ec34b771975592f4a19d0ab58f8579ab17e382a5e6ecddfa717b354472b9b0",
    "a472de998b80e6a796694bb95f64048fed85d4b2b87911e723a06652e2b80b73": "f901f1a07aa37f4e8b1366a6e684d0ca39dfbc36ea645faf486b16404b0319a0d7a290b5a0f26b308fbf175a60c25af491f4879ba1ec11914f6fa9dc722f9746e2ab44679980a0eb0147a6c13630999c8f65d437698ef757d29f8ae4e251554df9da7d2271cd94a0855acc3496e4c492ab905d1283e41ff4d1852a31494e06f7aaa642f99169cb42a08628a66e9a02c9858a9318aa3f74be05b1fa73f1cef1f3a9f3539719b952cd2da0f820e589d2219ae3f297594cfd731f2ec64d19b1ba0f918369e9b413c126732da0f1d3f558fb9b9d9c21f3f4fcf667ee86d3f0aac1350707c868141c0d942f1e06a010acbab12823357aa0f63313a255c78eec09c0b4d1c87054de7e7ba6b7fd90bea0e6e82a109ac4e5daed8f76043d8393d0298472e0518ff96a48b8492e479881fba0e3da760388f892400032cd2c86bbe668be6bc1d16ffc08304780472020f00bcaa054cab2921d01b8ab026305874aca3f192ae1af8f0bb0c5d39e381645509e3931a08df99f815b8aed978f07b7be6915071fcc32863c90b4fc54df8d3fef52e8f0b0a0d5c3f35b3433034102536147a3dcfd190c7bb81fe37c4801a018ecc677f34deca08333762fcaf7193e048ab228010951a924224adf67ad901b5e98441becfcbbd7a08316541ab79bcf6c62ced820a4cd885166ff789d06602f83e5307081d6d2e40980",
    "bba717702c6ef15fe3d95599611c6fdf56eb114bb026a46d2b112124f004cb03": "f85180a08173925d56348f9ed0f2bf13a8d432726cd9d779226dcc952dea5eb6d0f5f22280808080808080808080a0b352e4c72d853473be5eac69cf10adfdc61a3747ec26a4b424f0a29292fc1d3780808080",
    "dca76e0366599f3337b265d40bb5f1974763ca05f94a496f333a243d2397827d": "f8518080a098d0cb0f461988b32c524f081c9641ce96fce99510946457d3e41a33a7eaa8fa8080808080a0f8b5ef6981bbb8e2bae67dceaad9c110f189d6f01d744e38ee8f4fa8fb4c69f08080808080808080",
    "e3da760388f892400032cd2c86bbe668be6bc1d16ffc08304780472020f00bca": "f85180a031d1eb10fdf37ef90417d463e9e3d1dad5bab6a3e8b38ccc4eaa744250317457808080a0bba717702c6ef15fe3d95599611c6fdf56eb114bb026a46d2b112124f004cb038080808080808080808080",
    "f8b5ef6981bbb8e2bae67dceaad9c110f189d6f01d744e38ee8f4fa8fb4c69f0": "f8729f35f36a26b4ab3a7e0edbbc8241a6c302cac010ae108ba112772fdfe46ea0d4b850f84e808ad3c21c07b28931555600a056e81f171bcc55a6ff8345e692c0f86e5b48e01b996cadc001622fb5e363b421a0c5d2460186f7233c927e7db2dcc703c0e500b653ca82273b7bfad8045d85a470"
  },
  "storageTrie": {
    "54a7dbfb9323175b5ec46ee4317de391230451e4a5f47ab5e94c70f055bb1b31": "f8b180808080a01ac2f6079764f98dd9e82b615b42071b08d04f9447557044ac4669f9b750b1108080a043ba117e754e8d1be6795f21f4fcf2092c0f37f3f3e5a8cb69a180ad4b779866a0e062e154c1096dcf46c6968b518306698cbffa8369adc6f0122a57ccb3cbb1f5a047e1b61062a7dea0eb2917358f71d509eb31e317b957ef1300dccc96c42ea2668080a02aa97a556a6e4f188c87b89510eea3a6dcff2aa9b6b85e6548476f5d7666852680808080",
    "e062e154c1096dcf46c6968b518306698cbffa8369adc6f0122a57ccb3cbb1f5": "f843a03a35acfbc15ff81a39ae7d344fd709f28e8600b4aa8c65c6b64bfe7fe36bd19ba1a05357500000000000000000000000000000000000000000000000000000000006"
  },
  "parentStateRoot": "0xa472de998b80e6a796694bb95f64048fed85d4b2b87911e723a06652e2b80b73",
  "transactionTraces": [
    {
      "txn": "0xf8aa128496923fd382af189438d5062a70b0203580ca0c444df1041ad1bcc50e80b844095ea7b30000000000000000000000000775aafb6dd38417581f7c583053fa3b78fd4fd10000000000000000000000000000000000000000204fce5e3e25026110000000820fc6a0f804f179746de2e16881e457de93847a5a066c692ef72eef6f2e5a9b1c53b4aca07cc6ca8bcc0dffdf262f63c25fabeb938b7bd006a17bfefccec17ab6eccb2c33",
      "delta": {
        "0x0000000000000000000000000000000000000000": {
          "address": "0x0000000000000000000000000000000000000000",
          "read": true
        },
        "0x27c407D3Cd295E18a19bAdBA4036542aa59eCA91": {
          "address": "0x27c407D3Cd295E18a19bAdBA4036542aa59eCA91",
          "read": true
        },
        "0x38D5062a70b0203580ca0C444Df1041Ad1BCc50E": {
          "address": "0x38D5062a70b0203580ca0C444Df1041Ad1BCc50E",
          "storage": {
            "0xf48efcc0e394bf2b7a2936469d7e5f6c8b14b6fd573df5394e9f0d1405b0f39b": "0x0000000000000000000000000000000000000000204fce5e3e25026110000000"
          },
          "storage_read": {
            "0xf48efcc0e394bf2b7a2936469d7e5f6c8b14b6fd573df5394e9f0d1405b0f39b": {}
          },
          "code_read": "YIBgQFI0gBVhABBXYACA/VtQYAQ2EGEAqVdgADVg4ByAYzlQk1ERYQBxV4BjOVCTURRhAWhXgGNwoIIxFGEBmFeAY5XYm0EUYQHIV4BjpFfC1xRhAeZXgGOpBZy7FGECFleAY91i7T4UYQJGV2EAqVZbgGMG/d4DFGEArleAYwlep7MUYQDMV4BjGBYN3RRhAPxXgGMjuHLdFGEBGleAYzE85WcUYQFKV1tgAID9W2EAtmECdlZbYEBRYQDDkZBhCwxWW2BAUYCRA5DzW2EA5mAEgDYDgQGQYQDhkZBhC8dWW2EDCFZbYEBRYQDzkZBhDCJWW2BAUYCRA5DzW2EBBGEDK1ZbYEBRYQERkZBhDExWW2BAUYCRA5DzW2EBNGAEgDYDgQGQYQEvkZBhDGdWW2EDNVZbYEBRYQFBkZBhDCJWW2BAUYCRA5DzW2EBUmEDZFZbYEBRYQFfkZBhDNZWW2BAUYCRA5DzW2EBgmAEgDYDgQGQYQF9kZBhC8dWW2EDbVZbYEBRYQGPkZBhDCJWW2BAUYCRA5DzW2EBsmAEgDYDgQGQYQGtkZBhDPFWW2EDpFZbYEBRYQG/kZBhDExWW2BAUYCRA5DzW2EB0GED7FZbYEBRYQHdkZBhCwxWW2BAUYCRA5DzW2ECAGAEgDYDgQGQYQH7kZBhC8dWW2EEflZbYEBRYQINkZBhDCJWW2BAUYCRA5DzW2ECMGAEgDYDgQGQYQIrkZBhC8dWW2EE9VZbYEBRYQI9kZBhDCJWW2BAUYCRA5DzW2ECYGAEgDYDgQGQYQJbkZBhDR5WW2EFGFZbYEBRYQJtkZBhDExWW2BAUYCRA5DzW2BgYAOAVGEChZBhDY1WW4BgHwFgIICRBAJgIAFgQFGQgQFgQFKAkpGQgYFSYCABgoBUYQKxkGENjVZbgBVhAv5XgGAfEGEC01dhAQCAg1QEAoNSkWAgAZFhAv5WW4IBkZBgAFJgIGAAIJBbgVSBUpBgAQGQYCABgIMRYQLhV4KQA2AfFoIBkVtQUFBQUJBQkFZbYACAYQMTYQWfVluQUGEDIIGFhWEFp1ZbYAGRUFCSkVBQVltgAGACVJBQkFZbYACAYQNAYQWfVluQUGEDTYWChWEHcFZbYQNYhYWFYQf8VltgAZFQUJOSUFBQVltgAGASkFCQVltgAIBhA3hhBZ9WW5BQYQOZgYWFYQOKhYlhBRhWW2EDlJGQYQ3tVlthBadWW2ABkVBQkpFQUFZbYACAYACDc///////////////////////////FnP//////////////////////////xaBUmAgAZCBUmAgAWAAIFSQUJGQUFZbYGBgBIBUYQP7kGENjVZbgGAfAWAggJEEAmAgAWBAUZCBAWBAUoCSkZCBgVJgIAGCgFRhBCeQYQ2NVluAFWEEdFeAYB8QYQRJV2EBAICDVAQCg1KRYCABkWEEdFZbggGRkGAAUmAgYAAgkFuBVIFSkGABAZBgIAGAgxFhBFdXgpADYB8WggGRW1BQUFBQkFCQVltgAIBhBIlhBZ9WW5BQYABhBJeChmEFGFZbkFCDgRAVYQTcV2BAUX8Iw3mgAAAAAAAAAAAAAAAAAAAAAAAAAAAAAAAAAAAAAIFSYAQBYQTTkGEOk1ZbYEBRgJEDkP1bYQTpgoaGhANhBadWW2ABklBQUJKRUFBWW2AAgGEFAGEFn1ZbkFBhBQ2BhYVhB/xWW2ABkVBQkpFQUFZbYABgAWAAhHP//////////////////////////xZz//////////////////////////8WgVJgIAGQgVJgIAFgACBgAINz//////////////////////////8Wc///////////////////////////FoFSYCABkIFSYCABYAAgVJBQkpFQUFZbYAAzkFCQVltgAHP//////////////////////////xaDc///////////////////////////FgNhBhZXYEBRfwjDeaAAAAAAAAAAAAAAAAAAAAAAAAAAAAAAAAAAAAAAgVJgBAFhBg2QYQ8lVltgQFGAkQOQ/VtgAHP//////////////////////////xaCc///////////////////////////FgNhBoVXYEBRfwjDeaAAAAAAAAAAAAAAAAAAAAAAAAAAAAAAAAAAAAAAgVJgBAFhBnyQYQ+3VltgQFGAkQOQ/VuAYAFgAIVz//////////////////////////8Wc///////////////////////////FoFSYCABkIFSYCABYAAgYACEc///////////////////////////FnP//////////////////////////xaBUmAgAZCBUmAgAWAAIIGQVVCBc///////////////////////////FoNz//////////////////////////8Wf4xb4eXr7H1b0U9xQn0ehPPdAxTA97IpHlsgCsjHw7klg2BAUWEHY5GQYQxMVltgQFGAkQOQo1BQUFZbYABhB3yEhGEFGFZbkFB///////////////////////////////////////////+BFGEH9leBgRAVYQfoV2BAUX8Iw3mgAAAAAAAAAAAAAAAAAAAAAAAAAAAAAAAAAAAAAIFSYAQBYQffkGEQI1ZbYEBRgJEDkP1bYQf1hISEhANhBadWW1tQUFBQVltgAHP//////////////////////////xaDc///////////////////////////FgNhCGtXYEBRfwjDeaAAAAAAAAAAAAAAAAAAAAAAAAAAAAAAAAAAAAAAgVJgBAFhCGKQYRC1VltgQFGAkQOQ/VtgAHP//////////////////////////xaCc///////////////////////////FgNhCNpXYEBRfwjDeaAAAAAAAAAAAAAAAAAAAAAAAAAAAAAAAAAAAAAAgVJgBAFhCNGQYRFHVltgQFGAkQOQ/VthCOWDg4NhCnJWW2AAgGAAhXP//////////////////////////xZz//////////////////////////8WgVJgIAGQgVJgIAFgACBUkFCBgRAVYQlrV2BAUX8Iw3mgAAAAAAAAAAAAAAAAAAAAAAAAAAAAAAAAAAAAAIFSYAQBYQlikGER2VZbYEBRgJEDkP1bgYEDYACAhnP//////////////////////////xZz//////////////////////////8WgVJgIAGQgVJgIAFgACCBkFVQgWAAgIVz//////////////////////////8Wc///////////////////////////FoFSYCABkIFSYCABYAAgYACCglQBklBQgZBVUIJz//////////////////////////8WhHP//////////////////////////xZ/3fJSrRviyJtpwrBo/DeNqpUrp/FjxKEWKPVaTfUjs++EYEBRYQpZkZBhDExWW2BAUYCRA5CjYQpshISEYQp3VltQUFBQVltQUFBWW1BQUFZbYACBUZBQkZBQVltgAIKCUmAgggGQUJKRUFBWW2AAW4OBEBVhCrZXgIIBUYGEAVJgIIEBkFBhCptWW2AAhIQBUlBQUFBWW2AAYB8ZYB+DARaQUJGQUFZbYABhCt6CYQp8VlthCuiBhWEKh1Zbk1BhCviBhWAghgFhCphWW2ELAYFhCsJWW4QBkVBQkpFQUFZbYABgIIIBkFCBgQNgAIMBUmELJoGEYQrTVluQUJKRUFBWW2AAgP1bYABz//////////////////////////+CFpBQkZBQVltgAGELXoJhCzNWW5BQkZBQVlthC26BYQtTVluBFGELeVdgAID9W1BWW2AAgTWQUGELi4FhC2VWW5KRUFBWW2AAgZBQkZBQVlthC6SBYQuRVluBFGELr1dgAID9W1BWW2AAgTWQUGELwYFhC5tWW5KRUFBWW2AAgGBAg4UDEhVhC95XYQvdYQsuVltbYABhC+yFgoYBYQt8VluSUFBgIGEL/YWChgFhC7JWW5FQUJJQkpBQVltgAIEVFZBQkZBQVlthDByBYQwHVluCUlBQVltgAGAgggGQUGEMN2AAgwGEYQwTVluSkVBQVlthDEaBYQuRVluCUlBQVltgAGAgggGQUGEMYWAAgwGEYQw9VluSkVBQVltgAIBgAGBghIYDEhVhDIBXYQx/YQsuVltbYABhDI6GgocBYQt8VluTUFBgIGEMn4aChwFhC3xWW5JQUGBAYQywhoKHAWELslZbkVBQklCSUJJWW2AAYP+CFpBQkZBQVlthDNCBYQy6VluCUlBQVltgAGAgggGQUGEM62AAgwGEYQzHVluSkVBQVltgAGAggoQDEhVhDQdXYQ0GYQsuVltbYABhDRWEgoUBYQt8VluRUFCSkVBQVltgAIBgQIOFAxIVYQ01V2ENNGELLlZbW2AAYQ1DhYKGAWELfFZbklBQYCBhDVSFgoYBYQt8VluRUFCSUJKQUFZbf05Ie3EAAAAAAAAAAAAAAAAAAAAAAAAAAAAAAAAAAAAAYABSYCJgBFJgJGAA/VtgAGACggSQUGABghaAYQ2lV2B/ghaRUFtgIIIQgQNhDbhXYQ23YQ1eVltbUJGQUFZbf05Ie3EAAAAAAAAAAAAAAAAAAAAAAAAAAAAAAAAAAAAAYABSYBFgBFJgJGAA/VtgAGEN+IJhC5FWW5FQYQ4Dg2ELkVZbklCCggGQUICCERVhDhtXYQ4aYQ2+VltbkpFQUFZbf0VSQzIwOiBkZWNyZWFzZWQgYWxsb3dhbmNlIGJlbG93YACCAVJ/IHplcm8AAAAAAAAAAAAAAAAAAAAAAAAAAAAAAAAAAABgIIIBUlBWW2AAYQ59YCWDYQqHVluRUGEOiIJhDiFWW2BAggGQUJGQUFZbYABgIIIBkFCBgQNgAIMBUmEOrIFhDnBWW5BQkZBQVlt/RVJDMjA6IGFwcHJvdmUgZnJvbSB0aGUgemVybyBhZGRgAIIBUn9yZXNzAAAAAAAAAAAAAAAAAAAAAAAAAAAAAAAAAAAAAGAgggFSUFZbYABhDw9gJINhCodWW5FQYQ8agmEOs1ZbYECCAZBQkZBQVltgAGAgggGQUIGBA2AAgwFSYQ8+gWEPAlZbkFCRkFBWW39FUkMyMDogYXBwcm92ZSB0byB0aGUgemVybyBhZGRyZWAAggFSf3NzAAAAAAAAAAAAAAAAAAAAAAAAAAAAAAAAAAAAAAAAYCCCAVJQVltgAGEPoWAig2EKh1ZbkVBhD6yCYQ9FVltgQIIBkFCRkFBWW2AAYCCCAZBQgYEDYACDAVJhD9CBYQ+UVluQUJGQUFZbf0VSQzIwOiBpbnN1ZmZpY2llbnQgYWxsb3dhbmNlAAAAYACCAVJQVltgAGEQDWAdg2EKh1ZbkVBhEBiCYQ/XVltgIIIBkFCRkFBWW2AAYCCCAZBQgYEDYACDAVJhEDyBYRAAVluQUJGQUFZbf0VSQzIwOiB0cmFuc2ZlciBmcm9tIHRoZSB6ZXJvIGFkYACCAVJ/ZHJlc3MAAAAAAAAAAAAAAAAAAAAAAAAAAAAAAAAAAABgIIIBUlBWW2AAYRCfYCWDYQqHVluRUGEQqoJhEENWW2BAggGQUJGQUFZbYABgIIIBkFCBgQNgAIMBUmEQzoFhEJJWW5BQkZBQVlt/RVJDMjA6IHRyYW5zZmVyIHRvIHRoZSB6ZXJvIGFkZHJgAIIBUn9lc3MAAAAAAAAAAAAAAAAAAAAAAAAAAAAAAAAAAAAAAGAgggFSUFZbYABhETFgI4NhCodWW5FQYRE8gmEQ1VZbYECCAZBQkZBQVltgAGAgggGQUIGBA2AAgwFSYRFggWERJFZbkFCRkFBWW39FUkMyMDogdHJhbnNmZXIgYW1vdW50IGV4Y2VlZHMgYmAAggFSf2FsYW5jZQAAAAAAAAAAAAAAAAAAAAAAAAAAAAAAAAAAYCCCAVJQVltgAGERw2Amg2EKh1ZbkVBhEc6CYRFnVltgQIIBkFCRkFBWW2AAYCCCAZBQgYEDYACDAVJhEfKBYRG2VluQUJGQUFb+omRpcGZzWCISINwaT1Bj2EQcsY1D2YT/+vOyYNTTDgTLrJPce+non9O5ZHNvbGNDAAgTADM=",
          "touched": true,
          "read": true
        },
        "0x85dA99c8a7C2C95964c8EfD687E95E632Fc533D6": {
          "address": "0x85dA99c8a7C2C95964c8EfD687E95E632Fc533D6",
          "nonce": 19,
          "read": true
        }
      }
    }
  ]
}
