{
  "accountTrie": {
    "0db2bee1bc436f4de0c1ecb7b878b64be60df0dbc5c263db881a35e764ae6194": "f90211a0d9e686ec8bad1483fc8f31a95d0e7bd11337a1e8cfdb6be0457f06ab545f19c6a04fffe3b14f4b97c96945632e6e5fddd41827566dbce266b404bcf25826cc71a3a0f7336f1bbd47de3425668cbc835f9dea28e3337206a6ddc39e2d75c0cfbc3fa6a04bb4c7cdcdeccf73fe237ac3243854cdbc243bf42d3c7310b243f70ae24e0deba00898774ab29060c8e1ebca88393ba0342e86bcff5cb7c23c84f62f0fec5729efa0221bb7fefd21065080327b7d08e4e4ad1727503050c6246589031f9b8d256326a0f820e589d2219ae3f297594cfd731f2ec64d19b1ba0f918369e9b413c126732da0439b221f64c0e68adbc764dbe4e9f10efe3d6158fad6a5e555b7d8f9c7759988a0d5c0369176cb42cdd9a5d3ccc7c8d451e7582410f1baf984997c3c186edecb30a0e6e82a109ac4e5daed8f76043d8393d0298472e0518ff96a48b8492e479881fba0186bada89fad90d7a38dbb0347b057c01fcdc29776c4b981e3f0684214b949eba054cab2921d01b8ab026305874aca3f192ae1af8f0bb0c5d39e381645509e3931a0cba15c2b1a8ee7bb2a0ed57c4831628e1acce49cc87a8747262af16748f6fc77a0d5c3f35b3433034102536147a3dcfd190c7bb81fe37c4801a018ecc677f34deca08333762fcaf7193e048ab228010951a924224adf67ad901b5e98441becfcbbd7a092825616236bb69e7dce9723d0bcf9a7f9da80602dcab4c489d1e8ed8f6b347f80",
    "186bada89fad90d7a38dbb0347b057c01fcdc29776c4b981e3f0684214b949eb": "f89180a031d1eb10fdf37ef90417d463e9e3d1dad5bab6a3e8b38ccc4eaa744250317457808080a0d079128417a9b692ca4deef78e43fbadc2efe33f8c5edafaaed7bade0ba95cf5a088051b9667deb59e99614788c0d0aedaec2b9658bd714c851f16eb1d1ad3965280808080a056c9a23710ac9835e9a1a44b6725755589fc1f9ec5936cb5b11c7352657c58508080808080",
    "221bb7fefd21065080327b7d08e4e4ad1727503050c6246589031f9b8d256326": "f871808080a0f34876b7cb13355950b83ec8b2d2894684aa949ae866c03b061020907a336328a0eb68126485dcaaca88731b1076aa5fe02a61cd409ffa5d95e08245b57d84c1afa03d2c9faa594230d254816429f8dc379c30c8b3679ef67f44dd31f3e6822f9a498080808080808080808080",
    "36f7c51691277d92851cc5caff328783a7e29d92b387a87e6eff1bf771003047": "f873a02082f050cb357a36d397fbf1bf8ae229e585729de88fbd29953f3d46e686a400b850f84e808ad3c21bf1acdc121e6b90a056e81f171bcc55a6ff8345e692c0f86e5b48e01b996cadc001622fb5e363b421a0c5d2460186f7233c927e7db2dcc703c0e500b653ca82273b7bfad8045d85a470",
    "439b221f64c0e68adbc764dbe4e9f10efe3d6158fad6a5e555b7d8f9c7759988": "f8918080808080808080a08acfcc5d12f75a3532d30bec4da20159bcf79c89ab54616f4652018a6a6efbfb808080a036f7c51691277d92851cc5caff328783a7e29d92b387a87e6eff1bf771003047a08a0977db0c40a342485134dc58b8ec9ca0c4d0b37ec2659d0d7333265623b7f580a0426f557212756f658ce9ad6197f233d78ac00ebad04c145d0d8a4575abbfee4780",
    "457e0f2f63a8a5cafb80b2ca005923ac49739605f1e16d807b465b1173fdb636": "f8518080808080808080a03a80082a3587599daa3a3cc4ceb9be62daa7533f733dbe3bd62be3932cbc38f88080a0c1d7a7d357f9730bb4302bd59f030b76f9469f5fd9cf7620e8d6a7fbf65a93628080808080",
    "875bceca824cc83e194efa8c5962001729d937ebc692cc0ebbee643999fa2115": "f8749f3eec2b84f0ba344fd4b4d2f022469febe7a772c4789acfc119eb558ab1da3db852f850438c033b2e3c9ddf170b4c224b7fa056e81f171bcc55a6ff8345e692c0f86e5b48e01b996cadc001622fb5e363b421a0c5d2460186f7233c927e7db2dcc703c0e500b653ca82273b7bfad8045d85a470",
    "c1d7a7d357f9730bb4302bd59f030b76f9469f5fd9cf7620e8d6a7fbf65a9362": "f86f9f32adcfe18406ff7246f44d41408f7bc77391a1928be4fdde6b51a6c9c543f5b84df84b808718de76816d8000a056e81f171bcc55a6ff8345e692c0f86e5b48e01b996cadc001622fb5e363b421a0c5d2460186f7233c927e7db2dcc703c0e500b653ca82273b7bfad8045d85a470",
    "d079128417a9b692ca4deef78e43fbadc2efe33f8c5edafaaed7bade0ba95cf5": "f85180a0875bceca824cc83e194efa8c5962001729d937ebc692cc0ebbee643999fa211580808080808080808080a0b352e4c72d853473be5eac69cf10adfdc61a3747ec26a4b424f0a29292fc1d3780808080",
    "d9e686ec8bad1483fc8f31a95d0e7bd11337a1e8cfdb6be0457f06ab545f19c6": "f8718080a00a6df8e88efe9ec320b6bc3577cc219757a58ce573eadd452cbfad6bbab6813880808080a0457e0f2f63a8a5cafb80b2ca005923ac49739605f1e16d807b465b1173fdb636a0d6e7baf9ad6b04dff3a25f53357482c94918662b5267635373129b88ba77616f8080808080808080",
    "e2ccb65594a96b94d49854304321272add856506940204c42b6735b132251a67": "f8729f30c7b7ae81a58eb98d9c78de4a1fd7fd9535fc953ed2be602daaa41767312ab850f84e808ad3c21bd2b1bace2bc307a056e81f171bcc55a6ff8345e692c0f86e5b48e01b996cadc001622fb5e363b421a0c5d2460186f7233c927e7db2dcc703c0e500b653ca82273b7bfad8045d85a470",
    "f34876b7cb13355950b83ec8b2d2894684aa949ae866c03b061020907a336328": "f851a0e29cd6451f96ed556022f6076eacfbb24d0680280f8a4a588419a89b9a4260aa80808080808080a0e2ccb65594a96b94d49854304321272add856506940204c42b6735b132251a678080808080808080"
  },
  "storageTrie": null,
  "parentStateRoot": "0x0db2bee1bc436f4de0c1ecb7b878b64be60df0dbc5c263db881a35e764ae6194",
  "transactionTraces": [
    {
      "txn": "0xf86c438498f6f8a282520894deadbeefdeadbeefdeadbeefdeadbeefdeadbeef87038d7ea4c6800080820fc5a06a11ed610714fda8f9a510a86e046127e2fecc6b13dd725dfdc93cbe98d7dd6da0652e3b74c964ce799116cb690c6d8b1a8db31723d6f1aaf7515c76dd8dd0f446",
      "delta": {
        "0x0000000000000000000000000000000000000000": {
          "address": "0x0000000000000000000000000000000000000000",
          "read": true
        },
        "0x85dA99c8a7C2C95964c8EfD687E95E632Fc533D6": {
          "address": "0x85dA99c8a7C2C95964c8EfD687E95E632Fc533D6",
          "nonce": 68,
          "read": true
        },
        "0x8Ef7ccE1aced4258884e831527C674a2edEA4952": {
          "address": "0x8Ef7ccE1aced4258884e831527C674a2edEA4952",
          "read": true
        },
        "0xDeaDbeefdEAdbeefdEadbEEFdeadbeEFdEaDbeeF": {
          "address": "0xDeaDbeefdEAdbeefdEadbEEFdeadbeEFdEaDbeeF",
          "touched": true,
          "read": true
        }
      }
    },
    {
      "txn": "0xf86c448498f6f8a282520894deadbeefdeadbeefdeadbeefdeadbeefdeadbeef87038d7ea4c6800080820fc6a0b4d53539861fb9519c7e2b000b554d1f71911eff71864ce21d2f02560b183e8ba014ff6d133bcd7f9d05a1330566152747ebce094ea12c2b857842288f28c647bb",
      "delta": {
        "0x0000000000000000000000000000000000000000": {
          "address": "0x0000000000000000000000000000000000000000",
          "read": true
        },
        "0x85dA99c8a7C2C95964c8EfD687E95E632Fc533D6": {
          "address": "0x85dA99c8a7C2C95964c8EfD687E95E632Fc533D6",
          "nonce": 69,
          "read": true
        },
        "0x8Ef7ccE1aced4258884e831527C674a2edEA4952": {
          "address": "0x8Ef7ccE1aced4258884e831527C674a2edEA4952",
          "read": true
        },
        "0xDeaDbeefdEAdbeefdEadbEEFdeadbeEFdEaDbeeF": {
          "address": "0xDeaDbeefdEAdbeefdEadbEEFdeadbeEFdEaDbeeF",
          "touched": true,
          "read": true
        }
      }
    },
    {
      "txn": "0xf86c458498f6f8a282520894deadbeefdeadbeefdeadbeefdeadbeefdeadbeef87038d7ea4c6800080820fc5a01ac6e1d0386f2d1da45591a5e87ab0b0ef149c20ce6d33924855f85ecfc79311a04611524d6a1a8b85ae4b8edde9bc4c6495f4f5cf9e45d2ccf4dd87c05258b0f4",
      "delta": {
        "0x0000000000000000000000000000000000000000": {
          "address": "0x0000000000000000000000000000000000000000",
          "read": true
        },
        "0x85dA99c8a7C2C95964c8EfD687E95E632Fc533D6": {
          "address": "0x85dA99c8a7C2C95964c8EfD687E95E632Fc533D6",
          "nonce": 70,
          "read": true
        },
        "0x8Ef7ccE1aced4258884e831527C674a2edEA4952": {
          "address": "0x8Ef7ccE1aced4258884e831527C674a2edEA4952",
          "read": true
        },
        "0xDeaDbeefdEAdbeefdEadbEEFdeadbeEFdEaDbeeF": {
          "address": "0xDeaDbeefdEAdbeefdEadbEEFdeadbeEFdEaDbeeF",
          "touched": true,
          "read": true
        }
      }
    },
    {
      "txn": "0xf86c468498f6f8a282520894deadbeefdeadbeefdeadbeefdeadbeefdeadbeef87038d7ea4c6800080820fc5a0d7f51a04ec96f1dd39127919aba2aa0e7446708149f4e5d7e57090a89b41f8b9a03c351eac22954fd3835c8b2b43b2e43789773e377b1a50edc22cd2a45fe6d25e",
      "delta": {
        "0x0000000000000000000000000000000000000000": {
          "address": "0x0000000000000000000000000000000000000000",
          "read": true
        },
        "0x85dA99c8a7C2C95964c8EfD687E95E632Fc533D6": {
          "address": "0x85dA99c8a7C2C95964c8EfD687E95E632Fc533D6",
          "nonce": 71,
          "read": true
        },
        "0x8Ef7ccE1aced4258884e831527C674a2edEA4952": {
          "address": "0x8Ef7ccE1aced4258884e831527C674a2edEA4952",
          "read": true
        },
        "0xDeaDbeefdEAdbeefdEadbEEFdeadbeEFdEaDbeeF": {
          "address": "0xDeaDbeefdEAdbeefdEadbEEFdeadbeEFdEaDbeeF",
          "touched": true,
          "read": true
        }
      }
    },
    {
      "txn": "0xf86c478498f6f8a282520894deadbeefdeadbeefdeadbeefdeadbeefdeadbeef87038d7ea4c6800080820fc6a02be51db23879197bb4692d6a1463abc1e77a1268f2f9c311aab52b14a9199f9ba06bd370fd13c5ac670e1730656b8c52a6947928f29644bbd3c70f359c2ea8074f",
      "delta": {
        "0x0000000000000000000000000000000000000000": {
          "address": "0x0000000000000000000000000000000000000000",
          "read": true
        },
        "0x85dA99c8a7C2C95964c8EfD687E95E632Fc533D6": {
          "address": "0x85dA99c8a7C2C95964c8EfD687E95E632Fc533D6",
          "nonce": 72,
          "read": true
        },
        "0x8Ef7ccE1aced4258884e831527C674a2edEA4952": {
          "address": "0x8Ef7ccE1aced4258884e831527C674a2edEA4952",
          "read": true
        },
        "0xDeaDbeefdEAdbeefdEadbEEFdeadbeEFdEaDbeeF": {
          "address": "0xDeaDbeefdEAdbeefdEadbEEFdeadbeEFdEaDbeeF",
          "touched": true,
          "read": true
        }
      }
    },
    {
      "txn": "0xf86c488498f6f8a282520894deadbeefdeadbeefdeadbeefdeadbeefdeadbeef87038d7ea4c6800080820fc6a0ca16037a200141134a773f5207ecfc83d987b96b5ff8c2e693340b00872f745ba003708fdf32090bfae62e5ddbd075b1326a12efdc6fa18c82e5bec82f60d95484",
      "delta": {
        "0x0000000000000000000000000000000000000000": {
          "address": "0x0000000000000000000000000000000000000000",
          "read": true
        },
        "0x85dA99c8a7C2C95964c8EfD687E95E632Fc533D6": {
          "address": "0x85dA99c8a7C2C95964c8EfD687E95E632Fc533D6",
          "nonce": 73,
          "read": true
        },
        "0x8Ef7ccE1aced4258884e831527C674a2edEA4952": {
          "address": "0x8Ef7ccE1aced4258884e831527C674a2edEA4952",
          "read": true
        },
        "0xDeaDbeefdEAdbeefdEadbEEFdeadbeEFdEaDbeeF": {
          "address": "0xDeaDbeefdEAdbeefdEadbEEFdeadbeEFdEaDbeeF",
          "touched": true,
          "read": true
        }
      }
    },
    {
      "txn": "0xf86c498498f6f8a282520894deadbeefdeadbeefdeadbeefdeadbeefdeadbeef87038d7ea4c6800080820fc5a0d7d3aff9f45b5df1a0712c06748fd65d5b579d63b770bd7115f2efb4930902e7a03477356cc598d54b9a5d25bce82b93066340e498672790f842f59ce4028d6a76",
      "delta": {
        "0x0000000000000000000000000000000000000000": {
          "address": "0x0000000000000000000000000000000000000000",
          "read": true
        },
        "0x85dA99c8a7C2C95964c8EfD687E95E632Fc533D6": {
          "address": "0x85dA99c8a7C2C95964c8EfD687E95E632Fc533D6",
          "nonce": 74,
          "read": true
        },
        "0x8Ef7ccE1aced4258884e831527C674a2edEA4952": {
          "address": "0x8Ef7ccE1aced4258884e831527C674a2edEA4952",
          "read": true
        },
        "0xDeaDbeefdEAdbeefdEadbEEFdeadbeEFdEaDbeeF": {
          "address": "0xDeaDbeefdEAdbeefdEadbEEFdeadbeEFdEaDbeeF",
          "touched": true,
          "read": true
        }
      }
    },
    {
      "txn": "0xf86c4a8498f6f8a282520894deadbeefdeadbeefdeadbeefdeadbeefdeadbeef87038d7ea4c6800080820fc6a005eff1bb7ec946b06d0b99ee7fff392b4c06d348157c42a6b6d22ce2ab4f514fa007c2b3b3e0e54fafc9d3297356595a9396a46c6bbf2f55b89a12294cce3f77b6",
      "delta": {
        "0x0000000000000000000000000000000000000000": {
          "address": "0x0000000000000000000000000000000000000000",
          "read": true
        },
        "0x85dA99c8a7C2C95964c8EfD687E95E632Fc533D6": {
          "address": "0x85dA99c8a7C2C95964c8EfD687E95E632Fc533D6",
          "nonce": 75,
          "read": true
        },
        "0x8Ef7ccE1aced4258884e831527C674a2edEA4952": {
          "address": "0x8Ef7ccE1aced4258884e831527C674a2edEA4952",
          "read": true
        },
        "0xDeaDbeefdEAdbeefdEadbEEFdeadbeEFdEaDbeeF": {
          "address": "0xDeaDbeefdEAdbeefdEadbEEFdeadbeEFdEaDbeeF",
          "touched": true,
          "read": true
        }
      }
    }
  ]
}
