{
  "accountTrie": {
    "0fb1c89b27bab0810bd15555f03e42c7eed2aa9f7c8710a4861ff806f73bf66c": "f851a0e29cd6451f96ed556022f6076eacfbb24d0680280f8a4a588419a89b9a4260aa80808080808080a0a966786e573e17b9c83936f88b7e8c48283e81ea74f19c568e8f744d326d82518080808080808080",
    "118afb9710f34c5f1ffe494661dbe2648e7b907a7692d8af88ab0566d6c6fcd5": "f8749f3eec2b84f0ba344fd4b4d2f022469febe7a772c4789acfc119eb558ab1da3db852f8503f8c033b2e3c9dee11156cac37dfa056e81f171bcc55a6ff8345e692c0f86e5b48e01b996cadc001622fb5e363b421a0c5d2460186f7233c927e7db2dcc703c0e500b653ca82273b7bfad8045d85a470",
    "27112f53a124668875ed6398017a2e725dfff2e64dc03a02bb3dd90461a445ed": "f8518080808080808080a03a80082a3587599daa3a3cc4ceb9be62daa7533f733dbe3bd62be3932cbc38f88080a0a57584dc04c21b1a9bb9620da2240eee1930ca322d77d74e7fee8d23bdf845ec8080808080",
    "281ca531206d2c00a942d2789f827f62902c04ed4209022c588dc64f032e1793": "f90211a0338dbc1ec6382243768cec90f60f0eb53e2939f174b60d1197da3dab53500535a04fffe3b14f4b97c96945632e6e5fddd41827566dbce266b404bcf25826cc71a3a0f7336f1bbd47de3425668cbc835f9dea28e3337206a6ddc39e2d75c0cfbc3fa6a04bb4c7cdcdeccf73fe237ac3243854cdbc243bf42d3c7310b243f70ae24e0deba00898774ab29060c8e1ebca88393ba0342e86bcff5cb7c23c84f62f0fec5729efa07a31358c43bc56a9aad0684b4ae5758e76f7ec35042fbd4f77dc389b57b310dfa0f820e589d2219ae3f297594cfd731f2ec64d19b1ba0f918369e9b413c126732da0439b221f64c0e68adbc764dbe4e9f10efe3d6158fad6a5e555b7d8f9c7759988a0d5c0369176cb42cdd9a5d3ccc7c8d451e7582410f1baf984997c3c186edecb30a0e6e82a109ac4e5daed8f76043d8393d0298472e0518ff96a48b8492e479881fba05e87df0c2e46c840229442e295e999db55051fd2e7401416adc1dc84cd785c2ba054cab2921d01b8ab026305874aca3f192ae1af8f0bb0c5d39e381645509e3931a0a73d90c574fd18fd5d6ca74b2a6c42841f706bfaf831fdef76805b1029303688a0d5c3f35b3433034102536147a3dcfd190c7bb81fe37c4801a018ecc677f34deca08333762fcaf7193e048ab228010951a924224adf67ad901b5e98441becfcbbd7a092825616236bb69e7dce9723d0bcf9a7f9da80602dcab4c489d1e8ed8f6b347f80",
    "338dbc1ec6382243768cec90f60f0eb53e2939f174b60d1197da3dab53500535": "f8718080a00a6df8e88efe9ec320b6bc3577cc219757a58ce573eadd452cbfad6bbab6813880808080a027112f53a124668875ed6398017a2e725dfff2e64dc03a02bb3dd90461a445eda0d6e7baf9ad6b04dff3a25f53357482c94918662b5267635373129b88ba77616f8080808080808080",
    "5e87df0c2e46c840229442e295e999db55051fd2e7401416adc1dc84cd785c2b": "f89180a031d1eb10fdf37ef90417d463e9e3d1dad5bab6a3e8b38ccc4eaa744250317457808080a09a1f69c73909bd29d4fb1e0e6e4c7622989f2b8600d49a498affecfa704ac573a088051b9667deb59e99614788c0d0aedaec2b9658bd714c851f16eb1d1ad3965280808080a056c9a23710ac9835e9a1a44b6725755589fc1f9ec5936cb5b11c7352657c58508080808080",
    "7a31358c43bc56a9aad0684b4ae5758e76f7ec35042fbd4f77dc389b57b310df": "f871808080a00fb1c89b27bab0810bd15555f03e42c7eed2aa9f7c8710a4861ff806f73bf66ca0eb68126485dcaaca88731b1076aa5fe02a61cd409ffa5d95e08245b57d84c1afa03d2c9faa594230d254816429f8dc379c30c8b3679ef67f44dd31f3e6822f9a498080808080808080808080",
    "9a1f69c73909bd29d4fb1e0e6e4c7622989f2b8600d49a498affecfa704ac573": "f85180a0118afb9710f34c5f1ffe494661dbe2648e7b907a7692d8af88ab0566d6c6fcd580808080808080808080a0b352e4c72d853473be5eac69cf10adfdc61a3747ec26a4b424f0a29292fc1d3780808080",
    "a03a5257ef1632e7e002be3c2a65b16ca929e0bfcd25200fa688751ef28396f9": "f873a0209bad3efd7d22d728e0b92c3bcdab947570414641f88051189032c4b246dc34b850f84e808ad3c21c1da5ff3822efbea056e81f171bcc55a6ff8345e692c0f86e5b48e01b996cadc001622fb5e363b421a0c5d2460186f7233c927e7db2dcc703c0e500b653ca82273b7bfad8045d85a470",
    "a57584dc04c21b1a9bb9620da2240eee1930ca322d77d74e7fee8d23bdf845ec": "f86f9f32adcfe18406ff7246f44d41408f7bc77391a1928be4fdde6b51a6c9c543f5b84df84b80870aa87bee538000a056e81f171bcc55a6ff8345e692c0f86e5b48e01b996cadc001622fb5e363b421a0c5d2460186f7233c927e7db2dcc703c0e500b653ca82273b7bfad8045d85a470",
    "a73d90c574fd18fd5d6ca74b2a6c42841f706bfaf831fdef76805b1029303688": "f8918080808080a08d8d5cfa75bc646c9e6347dc2dedd4b9ce4a34d34d066344148525b0cc0cc7e58080a02b552522c790b0433d466408318c5c61bfa7e2dbb9c2e13bfec3d1d51290addd8080808080a0a03a5257ef1632e7e002be3c2a65b16ca929e0bfcd25200fa688751ef28396f9a099a6632dc218993740f5b428ad3602ef19498960c916c08326a1b5e6c61af9f280",
    "a966786e573e17b9c83936f88b7e8c48283e81ea74f19c568e8f744d326d8251": "f8729f30c7b7ae81a58eb98d9c78de4a1fd7fd9535fc953ed2be602daaa41767312ab850f84e808ad3c21bd2b1bacdebacc7a056e81f171bcc55a6ff8345e692c0f86e5b48e01b996cadc001622fb5e363b421a0c5d2460186f7233c927e7db2dcc703c0e500b653ca82273b7bfad8045d85a470"
  },
  "storageTrie": null,
  "parentStateRoot": "0x281ca531206d2c00a942d2789f827f62902c04ed4209022c588dc64f032e1793",
  "transactionTraces": [
    {
      "txn": "0xf86c3f8498f6f8a382520894deadbeefdeadbeefdeadbeefdeadbeefdeadbeef87038d7ea4c6800080820fc6a09bf690dc8aaac17f5034ce2cd982301073768c447d38d18aad4be23fa63e8918a05ecbcafa95e824e257ae5847bd5cbed93560d5bad61c7849d0e5bc2dd2260d6a",
      "delta": {
        "0x0000000000000000000000000000000000000000": {
          "address": "0x0000000000000000000000000000000000000000",
          "read": true
        },
        "0x85dA99c8a7C2C95964c8EfD687E95E632Fc533D6": {
          "address": "0x85dA99c8a7C2C95964c8EfD687E95E632Fc533D6",
          "nonce": 64,
          "read": true
        },
        "0xA52f1226449eA47013CceD3Dc59927657e3054dF": {
          "address": "0xA52f1226449eA47013CceD3Dc59927657e3054dF",
          "read": true
        },
        "0xDeaDbeefdEAdbeefdEadbEEFdeadbeEFdEaDbeeF": {
          "address": "0xDeaDbeefdEAdbeefdEadbEEFdeadbeEFdEaDbeeF",
          "touched": true,
          "read": true
        }
      }
    },
    {
      "txn": "0xf86c408498f6f8a382520894deadbeefdeadbeefdeadbeefdeadbeefdeadbeef87038d7ea4c6800080820fc5a0c8beff4f65d0287914bc853413cea4e8a04d1ceb9a02be839e8763999a58cd6aa0506868e906197ba962d618b3aab67512703300d34d73b69fd94d3cd73f892c3a",
      "delta": {
        "0x0000000000000000000000000000000000000000": {
          "address": "0x0000000000000000000000000000000000000000",
          "read": true
        },
        "0x85dA99c8a7C2C95964c8EfD687E95E632Fc533D6": {
          "address": "0x85dA99c8a7C2C95964c8EfD687E95E632Fc533D6",
          "nonce": 65,
          "read": true
        },
        "0xA52f1226449eA47013CceD3Dc59927657e3054dF": {
          "address": "0xA52f1226449eA47013CceD3Dc59927657e3054dF",
          "read": true
        },
        "0xDeaDbeefdEAdbeefdEadbEEFdeadbeEFdEaDbeeF": {
          "address": "0xDeaDbeefdEAdbeefdEadbEEFdeadbeEFdEaDbeeF",
          "touched": true,
          "read": true
        }
      }
    },
    {
      "txn": "0xf86c418498f6f8a382520894deadbeefdeadbeefdeadbeefdeadbeefdeadbeef87038d7ea4c6800080820fc5a0bcf4fbe95a63aacbdf3b347a61c16704f6dfe8fcef2ead27fd9353a9c16850b0a00c07197de756f0bdb1f374f652f0fdc8756492fddb685e5801ad85c7cff75bb5",
      "delta": {
        "0x0000000000000000000000000000000000000000": {
          "address": "0x0000000000000000000000000000000000000000",
          "read": true
        },
        "0x85dA99c8a7C2C95964c8EfD687E95E632Fc533D6": {
          "address": "0x85dA99c8a7C2C95964c8EfD687E95E632Fc533D6",
          "nonce": 66,
          "read": true
        },
        "0xA52f1226449eA47013CceD3Dc59927657e3054dF": {
          "address": "0xA52f1226449eA47013CceD3Dc59927657e3054dF",
          "read": true
        },
        "0xDeaDbeefdEAdbeefdEadbEEFdeadbeEFdEaDbeeF": {
          "address": "0xDeaDbeefdEAdbeefdEadbEEFdeadbeEFdEaDbeeF",
          "touched": true,
          "read": true
        }
      }
    },
    {
      "txn": "0xf86c428498f6f8a382520894deadbeefdeadbeefdeadbeefdeadbeefdeadbeef87038d7ea4c6800080820fc6a0ed977e785ca8bf15b8166e05d4d95b42e8b45932e1068853c9c8c6a164f0a3b4a038aa8c74b5062358a65bc1b48d599c4e18a9ff0cbc2dd221670ba556b1bb0a69",
      "delta": {
        "0x0000000000000000000000000000000000000000": {
          "address": "0x0000000000000000000000000000000000000000",
          "read": true
        },
        "0x85dA99c8a7C2C95964c8EfD687E95E632Fc533D6": {
          "address": "0x85dA99c8a7C2C95964c8EfD687E95E632Fc533D6",
          "nonce": 67,
          "read": true
        },
        "0xA52f1226449eA47013CceD3Dc59927657e3054dF": {
          "address": "0xA52f1226449eA47013CceD3Dc59927657e3054dF",
          "read": true
        },
        "0xDeaDbeefdEAdbeefdEadbEEFdeadbeEFdEaDbeeF": {
          "address": "0xDeaDbeefdEAdbeefdEadbEEFdeadbeEFdEaDbeeF",
          "touched": true,
          "read": true
        }
      }
    }
  ]
}
