{
  "accountTrie": {
    "0654507c37b7304633da90af8da2118a43dff70c9986967bee874aa2ea51fb23": "f8689f3606e41962f1804c88941fa04f6729c0b43f9bec0a6d09728995eba88736bdb846f8440180a0001afcfca299f58b16ccff18cc703c51b5b37a08f9d91958b50605f44fc4891fa05deadf02dd8344275283fee394945c5e15787054e0eef21f50c960fd91323297",
    "0e755ca680adce92afa9cd91465535133f218112ae73179267e8d894b79c106e": "f8769f3eec2b84f0ba344fd4b4d2f022469febe7a772c4789acfc119eb558ab1da3db854f8528215478c033b2e3c5fcd4ba4d6067f6da056e81f171bcc55a6ff8345e692c0f86e5b48e01b996cadc001622fb5e363b421a0c5d2460186f7233c927e7db2dcc703c0e500b653ca82273b7bfad8045d85a470",
    "1e832f64b1fed8e391b56a9d33747c1472c9d949c1dccac8d405dc2a5da80d9a": "f90211a09bd5985e83d92230c8f5e1f163da9b6a14db480ec2597a384ce775e4bbcb9321a0f85a4d33721990f360f3a7ee9bdc32272abf6b6019619092fc2dd4655895f542a0dd342585783a6ee4f0a371fc15d768acb4be61716720e20eecd272bbf094eb0ea04bb4c7cdcdeccf73fe237ac3243854cdbc243bf42d3c7310b243f70ae24e0deba06825012786ca3fece50a0b040fd0cba54047d4a056d58900b6b60a156064eb73a0c1358bb707bdb22557af33aa8a79bbbb7f543cc357e116d44bc6347e082c239aa0f820e589d2219ae3f297594cfd731f2ec64d19b1ba0f918369e9b413c126732da028f484a5a5a91b5cd65ad2948085d0fd9da8bbd3076b393a781fa923ea698573a0446d377165582abb992c8b5312f698a806c016c9943b76b8a16f999e6a68f1b6a0e6e82a109ac4e5daed8f76043d8393d0298472e0518ff96a48b8492e479881fba0421b96903a3d92c636739192cf2c56f7a678ed8cf42422a3c6ed0d5eeb8f1ba7a054cab2921d01b8ab026305874aca3f192ae1af8f0bb0c5d39e381645509e3931a0ceaa9104b68c41dab5da89b73253c5c9943bf078a43d91ea48a7824b06d19ff5a0d5c3f35b3433034102536147a3dcfd190c7bb81fe37c4801a018ecc677f34deca061c55a2935a894ae408aa9e7e507d0646596aef8e3300527b4ec9aa50b3068b9a092825616236bb69e7dce9723d0bcf9a7f9da80602dcab4c489d1e8ed8f6b347f80",
    "22a5a99cd56417c92ae77adbfdace72023ad1bbd03c6caa94f7b4d4be4a22606": "f873a0209bad3efd7d22d728e0b92c3bcdab947570414641f88051189032c4b246dc34b850f84e808ad3c21e1bbe091fbf56c0a056e81f171bcc55a6ff8345e692c0f86e5b48e01b996cadc001622fb5e363b421a0c5d2460186f7233c927e7db2dcc703c0e500b653ca82273b7bfad8045d85a470",
    "421b96903a3d92c636739192cf2c56f7a678ed8cf42422a3c6ed0d5eeb8f1ba7": "f89180a031d1eb10fdf37ef90417d463e9e3d1dad5bab6a3e8b38ccc4eaa744250317457808080a0d7ae8a8b0f10ed27e563952c19aadc988819610dbf66f7e824d895c5da6a63bca088051b9667deb59e99614788c0d0aedaec2b9658bd714c851f16eb1d1ad3965280808080a0274e2e0e8f8fc8484e8dbec1d909ba8aa63f30695c18d02d0698ff7ac8d89b4b8080808080",
    "4f3ed784decabb8ee207485632298bd95bbcdf09a978afd1bc3d0f42c23d5258": "f851a0e29cd6451f96ed556022f6076eacfbb24d0680280f8a4a588419a89b9a4260aa80808080808080a075ad5846e3c172a457d14c123b41227ecccf244c598061b4a8491c7ccd8adbdb8080808080808080",
    "6825012786ca3fece50a0b040fd0cba54047d4a056d58900b6b60a156064eb73": "f8718080a08e645f4126bf9d302b9a3ed09ca30ebce87dfd4f74897cc840071599812879998080a00ae1c4ba02676383dae477d0d99593002667249882cdd4469d1d8ddc39a491b7a00a694125e1d64f1116dbd48a397eccc689b388092d3ffcba2fec27efc4282e3480808080808080808080",
    "75ad5846e3c172a457d14c123b41227ecccf244c598061b4a8491c7ccd8adbdb": "f8729f30c7b7ae81a58eb98d9c78de4a1fd7fd9535fc953ed2be602daaa41767312ab850f84e808ad3c21bd2b1bb0f91e007a056e81f171bcc55a6ff8345e692c0f86e5b48e01b996cadc001622fb5e363b421a0c5d2460186f7233c927e7db2dcc703c0e500b653ca82273b7bfad8045d85a470",
    "8e645f4126bf9d302b9a3ed09ca30ebce87dfd4f74897cc84007159981287999": "f8518080a00654507c37b7304633da90af8da2118a43dff70c9986967bee874aa2ea51fb2380808080808080a03c6f881bc19560d22c617b35b9910ed20d0a9f519757cca5adf72fdd6fa84bc7808080808080",
    "c1358bb707bdb22557af33aa8a79bbbb7f543cc357e116d44bc6347e082c239a": "f871808080a04f3ed784decabb8ee207485632298bd95bbcdf09a978afd1bc3d0f42c23d5258a0eb68126485dcaaca88731b1076aa5fe02a61cd409ffa5d95e08245b57d84c1afa03d2c9faa594230d254816429f8dc379c30c8b3679ef67f44dd31f3e6822f9a498080808080808080808080",
    "ceaa9104b68c41dab5da89b73253c5c9943bf078a43d91ea48a7824b06d19ff5": "f8918080808080a03df28eb6e7d17f27be9351542dad778b5edbbb5a036df5baef45a8b9b8b8426a8080a02b552522c790b0433d466408318c5c61bfa7e2dbb9c2e13bfec3d1d51290addd8080808080a022a5a99cd56417c92ae77adbfdace72023ad1bbd03c6caa94f7b4d4be4a22606a099a6632dc218993740f5b428ad3602ef19498960c916c08326a1b5e6c61af9f280",
    "d7ae8a8b0f10ed27e563952c19aadc988819610dbf66f7e824d895c5da6a63bc": "f85180a00e755ca680adce92afa9cd91465535133f218112ae73179267e8d894b79c106e80808080808080808080a0b352e4c72d853473be5eac69cf10adfdc61a3747ec26a4b424f0a29292fc1d3780808080"
  },
  "storageTrie": {
    "001afcfca299f58b16ccff18cc703c51b5b37a08f9d91958b50605f44fc4891f": "f90211a0e5e5bd371c8ced04738d024ec2cbe1784d37e5017e0cd1e42edeb512c9a6aecda0a811683487c5610b32fe04988e506cb0623fe485846eb41b81375bb0931c928fa0f2723a5334b222273ce3f90a81d0badf46a558e8a2b5e5a8d18af965ab55eb3ca0015aaee333d01b7f4e852cce32b0e033f9b247f8303fc57038e126d5d7cd70bea041a7fe8003f11fe9d6811023cc68cf959ef93c5a0940becd6bd86af7e6708316a08d516bb80292a7347e5cab3b3885d6cc59561c4c5500bf014edf6739c7dda74da0eb18aba961a4f9f330bc883c84b78b4ed5efb4919a59ffe782b0068aad18abf1a0a189844d9a54ecb609c7bdddd07280cdde8af50cd178f8ae820e7315ed1d950da0bdd355f6652554e30ac74a19bc70be8be49c3d276b90010f789dae6fc399b287a0dd60f3343a6e32e8448cb225d892131d35607cea3d12a61379043b3b867f7f49a0231733933544b846cdbd4ea732ebb88616c382a16888c4a91264ed36ae291011a068d9112513a9fc7af94f769daa0f6e0a59ab8b3f6458a8c13e24ebec7946e3f5a06553db7491b06b5680ef72e8739815ecff033a8766c281cd7ff4350a1ef04453a0d9331c712b65ab8d2336624262eb1a6ba00bc4cf19aafb04deb0fecc75e2b58ba05721070a8b5332da93fcfffc1eff3ce8f43fa3ac65cc614a4a0f42e7632408d8a08ade51d4609e715c3e337bc6f6cb3451b21dce39ccb4e965551fc5aabbc11df480",
    "231733933544b846cdbd4ea732ebb88616c382a16888c4a91264ed36ae291011": "f9017180a0193994b386e6352b6a70f8300c29cd0749b5644efe248a0b792cd493b865c0a8a086acd7c5c61aa777819eed52134f39e634fec68e6829e5fea8d865bca22152bda0e62292930e812244810b0f525fa3e0a8b2b8af5f5c8a1567c40b8f80bbf11dc7a0a9a0dc50b5b63776f4a12e012f7666dc9a7e4d8989a264dfb8074a405e22492780a0dfc825904d037d65bfa6d7a1cc5b3b4eb1c3263336ecd76573b10195a6b9e401a0b37c3364f743a776fafaa1b03ebd75367c8a85a00f3b03b080c2a601a1bf4be9a0023335a4f66871494653521328f90bca29ca97b2aa1016265b75a306200a7a9a8080a0fade1231d26815c3c58ec4f220066e06d8ae1b495c6be010c15470b4e92bc0c3a051523f1e9f59b3a27e79b7072e075d874effaddc7066c7232463df83b22ad576a052085901f9528b3f5932b18521ae1de9f7cfc592bacdc7b88bdd007db1a0ebe180a0dffbc2c443ba3be5c0f6fb97659e9df0d2e2df3eb80f03474bc6b8840e55bc7b80",
    "4a5671b459003f197a9b8df4249cd4d89da5ba0a69cd6beaac83dd4793bd93d7": "f8518080a016e8a7882a6a970145e101b308152e7e13bd016ab43328cd5ba4815f3a53d577808080808080a0f9b305ee09548ef1dab1960302838bbe4bfbd0e3a53353b252640ce720242ed080808080808080",
    "5512294541eada3a1b709787581666230129f47510768242b5c0c3d49d7a5d91": "e39f35acfbc15ff81a39ae7d344fd709f28e8600b4aa8c65c6b64bfe7fe36bd19b8281fc",
    "69097d0b178078cb2c280c5b536f55ad33e03c308ee5692a0a036cab417f4d35": "f851808080a05512294541eada3a1b709787581666230129f47510768242b5c0c3d49d7a5d918080808080a0320cfa51352e010fda2115b9c44628278dc30b9606ee9bc7c7afc0f0a459e4ec80808080808080",
    "bdd355f6652554e30ac74a19bc70be8be49c3d276b90010f789dae6fc399b287": "f8b180a0d11e17281e2f690f70a115101e00680aefe20fe6fe2483511931293c3587b937808080a035e821cc79a8123ca6d9ce1268500b44dc7901889b055a4ec1cf8a11ec83ef9a80808080a069097d0b178078cb2c280c5b536f55ad33e03c308ee5692a0a036cab417f4d35a09a500e94f76e4090dd7b9f008b84d5af2e3ba71bf896296e5aceb6f462b9ff72a09e6e553185ce416fd9066fb14d47552e4c1b4649cebf7fbca5c3fdb7610f357b80808080",
    "dd60f3343a6e32e8448cb225d892131d35607cea3d12a61379043b3b867f7f49": "f90151a0a302bc196e862c6088c90ba55c109581dd5370d2ef72bdcc377433f2cfbbfafd80a03d6d3aadfe0fbf1ab65149c6d8e515fd2e5b7ce9fd2892e5658f97ae6399987aa0f6319b31be1c92291ddc8a7165e67460f8b63c70e20137165baf435678c77ac6a06cf62e07ba59df87d222c8f78de8f786be5ff55e6bf880640ebad6d25bbb561c80a0e119550d4d6d23e2c27dc9973a7c19f232ea071412e9622a25f843d213f8013880a00ea9b94825590c6bd96f657fd8a59f00251b43f88f8fa23e1ffedcbf6a8b78d380a04a5671b459003f197a9b8df4249cd4d89da5ba0a69cd6beaac83dd4793bd93d7a06f5625e8f949f3175e037ebde9f75f2f2a191c83528888cead137b626507d8f9a0c8cc23cfbb2161fa6678eaeefcd3679bb39fa523a351783009202f754552587b8080a07216a2efe74a5fee323ff25b6b7b5f671c0b4362d8fc5b692d44b7ddfe86259d80",
    "e62292930e812244810b0f525fa3e0a8b2b8af5f5c8a1567c40b8f80bbf11dc7": "e4a020274d838c103e9f9bc29f202d8ca1c20b69ed320596d739da4d0a930f8ab17a8281f4"
  },
  "parentStateRoot": "0x1e832f64b1fed8e391b56a9d33747c1472c9d949c1dccac8d405dc2a5da80d9a",
  "transactionTraces": [
    {
      "txn": "0x02f9027b8207d182154784b2d05e0084b2d05e0e83028da48080b9021e610210600e6000396102106000f361020456fefefefefefefefefefefefefefefefefefefefefefefefefefefefefefefefefefefefefefefefefefefefefefefefefefefefefefefefefefefefefefefefefefefefefefefefefefefefefefefefefefefefefefefefefefefefefefefefefefefefefefefefefefefefefefefefefefefefefefefefefefefefefefefefefefefefefefefefefefefefefefefefefefefefefefefefefefefefefefefefefefefefefefefefefefefefefefefefefefefefefefefefefefefefefefefefefefefefefefefefefefefefefefefefefefefefefefefefefefefefefefefefefefefefefefefefefefefefefefefefefefefefefefefefefefefefefefefefefefefefefefefefefefefefefefefefefefefefefefefefefefefefefefefefefefefefefefefefefefefefefefefefefefefefefefefefefefefefefefefefefefefefefefefefefefefefefefefefefefefefefefefefefefefefefefefefefefefefefefefefefefefefefefefefefefefefefefefefefefefefefefefefefefefefefefefefefefefefefefefefefefefefefefefefefefefefefefefefefefefefefefefefefefefefefefefefefefefefefefefefefefefefefefefefefefefefefefefefefefefefefefefefefefefefefefefefefefefefefefefefefefefefefefefefefefefefefefefefefefefefefefefefefefefefefefefefe5b61020060005260206000f3c080a0f71e2b70ae1e3cf15be000d29b16640c015f060330d7b7439fe7e1b393da5cd3a0419c45eb554c703b432feff99d05ef7d068ee7617df0d73871ed5eb02bfd3fed",
      "delta": {
        "0x0000000000000000000000000000000000000000": {
          "address": "0x0000000000000000000000000000000000000000",
          "read": true
        },
        "0x85dA99c8a7C2C95964c8EfD687E95E632Fc533D6": {
          "address": "0x85dA99c8a7C2C95964c8EfD687E95E632Fc533D6",
          "nonce": 5448,
          "read": true
        },
        "0xA52f1226449eA47013CceD3Dc59927657e3054dF": {
          "address": "0xA52f1226449eA47013CceD3Dc59927657e3054dF",
          "read": true
        },
        "0xf1d1fd8eE67D364c7c7038780eCffD8311CD829d": {
          "address": "0xf1d1fd8eE67D364c7c7038780eCffD8311CD829d",
          "nonce": 1,
          "code": "YQIEVv7+/v7+/v7+/v7+/v7+/v7+/v7+/v7+/v7+/v7+/v7+/v7+/v7+/v7+/v7+/v7+/v7+/v7+/v7+/v7+/v7+/v7+/v7+/v7+/v7+/v7+/v7+/v7+/v7+/v7+/v7+/v7+/v7+/v7+/v7+/v7+/v7+/v7+/v7+/v7+/v7+/v7+/v7+/v7+/v7+/v7+/v7+/v7+/v7+/v7+/v7+/v7+/v7+/v7+/v7+/v7+/v7+/v7+/v7+/v7+/v7+/v7+/v7+/v7+/v7+/v7+/v7+/v7+/v7+/v7+/v7+/v7+/v7+/v7+/v7+/v7+/v7+/v7+/v7+/v7+/v7+/v7+/v7+/v7+/v7+/v7+/v7+/v7+/v7+/v7+/v7+/v7+/v7+/v7+/v7+/v7+/v7+/v7+/v7+/v7+/v7+/v7+/v7+/v7+/v7+/v7+/v7+/v7+/v7+/v7+/v7+/v7+/v7+/v7+/v7+/v7+/v7+/v7+/v7+/v7+/v7+/v7+/v7+/v7+/v7+/v7+/v7+/v7+/v7+/v7+/v7+/v7+/v7+/v7+/v7+/v7+/v7+/v7+/v7+/v7+/v7+/v7+/v7+/v7+/v7+/v7+/v7+/v7+/v7+/v7+/v7+/v7+/v7+/v7+/v7+/v7+/v7+/v7+/v7+/v7+/v7+/v7+/v7+/v7+/v7+/v7+/v7+/v7+/v7+/v7+/v7+W2ECAGAAUmAgYADz",
          "read": true
        }
      }
    },
    {
      "txn": "0x02f8b38207d18215488498f6f8948498f6f8a282e483945b10b3e9e5489916ab01c3fcdc6cf061c271121080b844248b71fc000000000000000000000000deadbeefdeadbeefdeadbeefdeadbeefdeadbeef0000000000000000000000000000000000000000000000000000000000000001c001a049cb1c67c08c55435f14df14a19406b4d7ee18b7411aaf6a26f479d62dbcf97ba00d89eeb8a7911bf2f817a926b2c5f8f6ef2ff457da428ffb41a7bde8c187ce0b",
      "delta": {
        "0x0000000000000000000000000000000000000000": {
          "address": "0x0000000000000000000000000000000000000000",
          "read": true
        },
        "0x5b10B3E9E5489916ab01C3fcdC6Cf061C2711210": {
          "address": "0x5b10B3E9E5489916ab01C3fcdC6Cf061C2711210",
          "storage": {
            "0x0000000000000000000000000000000000000000000000000000000000000004": "0x00000000000000000000000000000000000000000000000000000000000000fd",
            "0x745422c7add378c86389db86ee5a6e595d74dcf073cc88056897d918f6a4f791": "0x000000000000000000000000deadbeefdeadbeefdeadbeefdeadbeefdeadbeef",
            "0xabd7b398c2237712843e3e780dcd40dfb99446b30666f04c025da4efa5ce5177": "0x00000000000000000000000000000000000000000000000000000000000000f5"
          },
          "storage_read": {
            "0x0000000000000000000000000000000000000000000000000000000000000004": {},
            "0x745422c7add378c86389db86ee5a6e595d74dcf073cc88056897d918f6a4f791": {},
            "0xabd7b398c2237712843e3e780dcd40dfb99446b30666f04c025da4efa5ce5177": {}
          },
          "code_read": "YIBgQFI0gBVhABBXYACA/VtQYAQ2EGEAqVdgADVg4ByAY0KELg4RYQBxV4BjQoQuDhRhAWJXgGNjUiEeFGEBfleAY3CggjEUYQGuV4Bjoiy0ZRRhAd5XgGO4jU/eFGEB+leAY+mF6cUUYQIWV2EAqVZbgGMB/8mnFGEArleAYwgYEvwUYQDeV4BjCV6nsxRhAQ5XgGMjuHLdFGEBKleAYySLcfwUYQFGV1tgAID9W2EAyGAEgDYDgQGQYQDDkZBhEj9WW2ECRlZbYEBRYQDVkZBhEodWW2BAUYCRA5DzW2EA+GAEgDYDgQGQYQDzkZBhEthWW2EDGFZbYEBRYQEFkZBhE0ZWW2BAUYCRA5DzW2EBKGAEgDYDgQGQYQEjkZBhE41WW2ED9VZbAFthAURgBIA2A4EBkGEBP5GQYRPNVlthBd1WWwBbYQFgYASANgOBAZBhAVuRkGETjVZbYQjJVlsAW2EBfGAEgDYDgQGQYQF3kZBhE81WW2EI11ZbAFthAZhgBIA2A4EBkGEBk5GQYRLYVlthCg9WW2BAUWEBpZGQYRNGVltgQFGAkQOQ81thAchgBIA2A4EBkGEBw5GQYRQgVlthCrpWW2BAUWEB1ZGQYRRcVltgQFGAkQOQ81thAfhgBIA2A4EBkGEB85GQYRSjVlthC3FWWwBbYQIUYASANgOBAZBhAg+RkGEVSFZbYQxuVlsAW2ECMGAEgDYDgQGQYQIrkZBhFdBWW2ENrFZbYEBRYQI9kZBhEodWW2BAUYCRA5DzW2AAf4CsWM0AAAAAAAAAAAAAAAAAAAAAAAAAAAAAAAAAAAAAe/////////////////////////////////////8ZFoJ7/////////////////////////////////////xkWFIBhAxFXUH8B/8mnAAAAAAAAAAAAAAAAAAAAAAAAAAAAAAAAAAAAAHv/////////////////////////////////////GRaCe/////////////////////////////////////8ZFhRbkFCRkFBWW2AAgHP//////////////////////////xZgAICEgVJgIAGQgVJgIAFgACBgAJBUkGEBAAqQBHP//////////////////////////xZz//////////////////////////8WA2EDuldgQFF/CMN5oAAAAAAAAAAAAAAAAAAAAAAAAAAAAAAAAAAAAACBUmAEAWEDsZBhFm1WW2BAUYCRA5D9W2ACYACDgVJgIAGQgVJgIAFgACBgAJBUkGEBAAqQBHP//////////////////////////xaQUJGQUFZbYACAYACDgVJgIAGQgVJgIAFgACBgAJBUkGEBAAqQBHP//////////////////////////xaQUIBz//////////////////////////8WM3P//////////////////////////xYUgGEE7FdQYANgAIJz//////////////////////////8Wc///////////////////////////FoFSYCABkIFSYCABYAAgYAAzc///////////////////////////FnP//////////////////////////xaBUmAgAZCBUmAgAWAAIGAAkFSQYQEACpAEYP8WW2EFK1dgQFF/CMN5oAAAAAAAAAAAAAAAAAAAAAAAAAAAAAAAAAAAAACBUmAEAWEFIpBhFtlWW2BAUYCRA5D9W4JgAmAAhIFSYCABkIFSYCABYAAgYABhAQAKgVSBc///////////////////////////AhkWkINz//////////////////////////8WAheQVVCBg3P//////////////////////////xaCc///////////////////////////Fn+MW+Hl6+x9W9FPcUJ9HoTz3QMUwPeyKR5bIArIx8O5JWBAUWBAUYCRA5CkUFBQVltgAICCgVJgIAGQgVJgIAFgACBgAJBUkGEBAAqQBHP//////////////////////////xZz//////////////////////////8Wg3P//////////////////////////xYUYQZ9V2BAUX8Iw3mgAAAAAAAAAAAAAAAAAAAAAAAAAAAAAAAAAAAAAIFSYAQBYQZ0kGEXRVZbYEBRgJEDkP1bYABz//////////////////////////8WgnP//////////////////////////xYDYQbsV2BAUX8Iw3mgAAAAAAAAAAAAAAAAAAAAAAAAAAAAAAAAAAAAAIFSYAQBYQbjkGEXsVZbYEBRgJEDkP1bYQb3gzODYQ3bVlthBzZXYEBRfwjDeaAAAAAAAAAAAAAAAAAAAAAAAAAAAAAAAAAAAAAAgVJgBAFhBy2QYRbZVltgQFGAkQOQ/VtgAYBgAIVz//////////////////////////8Wc///////////////////////////FoFSYCABkIFSYCABYAAgYACCglRhB4WRkGEYAFZbklBQgZBVUGABgGAAhHP//////////////////////////xZz//////////////////////////8WgVJgIAGQgVJgIAFgACBgAIKCVGEH25GQYRg0VluSUFCBkFVQgWAAgIOBUmAgAZCBUmAgAWAAIGAAYQEACoFUgXP//////////////////////////wIZFpCDc///////////////////////////FgIXkFVQYAJgAIKBUmAgAZCBUmAgAWAAIGAAYQEACoFUkHP//////////////////////////wIZFpBVgIJz//////////////////////////8WhHP//////////////////////////xZ/3fJSrRviyJtpwrBo/DeNqpUrp/FjxKEWKPVaTfUjs+9gQFFgQFGAkQOQpFBQUFZbYQjTgoJhDw9WW1BQVlthCOKDg4NhBd1WW2AAgnP//////////////////////////xY7FIBhCctXUGMVC3oCYOAbe/////////////////////////////////////8ZFoJz//////////////////////////8WYxULegIzhoVgQFGEY/////8WYOAbgVJgBAFhCWeTkpGQYRifVltgIGBAUYCDA4FgAIda8RWAFWEJhlc9YACAPj1gAP1bUFBQUGBAUT1gHxlgH4IBFoIBgGBAUlCBAZBhCaqRkGEY/lZbe/////////////////////////////////////8ZFhRbYQoKV2BAUX8Iw3mgAAAAAAAAAAAAAAAAAAAAAAAAAAAAAAAAAAAAAIFSYAQBYQoBkGEZd1ZbYEBRgJEDkP1bUFBQVltgAIBgAIOBUmAgAZCBUmAgAWAAIGAAkFSQYQEACpAEc///////////////////////////FpBQYABz//////////////////////////8WgXP//////////////////////////xYDYQq1V2BAUX8Iw3mgAAAAAAAAAAAAAAAAAAAAAAAAAAAAAAAAAAAAAIFSYAQBYQqskGEWbVZbYEBRgJEDkP1bkZBQVltgAIBz//////////////////////////8WgnP//////////////////////////xYDYQsqV2BAUX8Iw3mgAAAAAAAAAAAAAAAAAAAAAAAAAAAAAAAAAAAAAIFSYAQBYQshkGEZ41ZbYEBRgJEDkP1bYAFgAINz//////////////////////////8Wc///////////////////////////FoFSYCABkIFSYCABYAAgVJBQkZBQVluAYANgADNz//////////////////////////8Wc///////////////////////////FoFSYCABkIFSYCABYAAgYACEc///////////////////////////FnP//////////////////////////xaBUmAgAZCBUmAgAWAAIGAAYQEACoFUgWD/AhkWkIMVFQIXkFVQgXP//////////////////////////xYzc///////////////////////////Fn8XMH6rOathB+iJmEWtPVm9llPyAPIgkgSJyitZN2lsMYNgQFFhDGKRkGESh1ZbYEBRgJEDkKNQUFZbYQx5hYWFYQXdVltgAIRz//////////////////////////8WOxSAYQ1mV1BjFQt6AmDgG3v/////////////////////////////////////GRaEc///////////////////////////FmMVC3oCM4iHh4dgQFGGY/////8WYOAbgVJgBAFhDQKVlJOSkZBhGlBWW2AgYEBRgIMDgWAAh1rxFYAVYQ0hVz1gAIA+PWAA/VtQUFBQYEBRPWAfGWAfggEWggGAYEBSUIEBkGENRZGQYRj+Vlt7/////////////////////////////////////xkWFFthDaVXYEBRfwjDeaAAAAAAAAAAAAAAAAAAAAAAAAAAAAAAAAAAAAAAgVJgBAFhDZyQYRl3VltgQFGAkQOQ/VtQUFBQUFZbYANgIFKBYABSYEBgACBgIFKAYABSYEBgACBgAJFQkVCQVJBhAQAKkARg/xaBVltgAINz//////////////////////////8Wg3P//////////////////////////xYUgGEOnVdQYANgAIVz//////////////////////////8Wc///////////////////////////FoFSYCABkIFSYCABYAAgYACEc///////////////////////////FnP//////////////////////////xaBUmAgAZCBUmAgAWAAIGAAkFSQYQEACpAEYP8WW4BhDwZXUGACYACDgVJgIAGQgVJgIAFgACBgAJBUkGEBAAqQBHP//////////////////////////xZz//////////////////////////8Wg3P//////////////////////////xYUW5BQk5JQUFBWW2AAYARUkFBgAHP//////////////////////////xaDc///////////////////////////FgNhD4VXYEBRfwjDeaAAAAAAAAAAAAAAAAAAAAAAAAAAAAAAAAAAAAAAgVJgBAFhD3yQYRrqVltgQFGAkQOQ/VtgAHP//////////////////////////xZgAICDgVJgIAGQgVJgIAFgACBgAJBUkGEBAAqQBHP//////////////////////////xZz//////////////////////////8WFGEQJldgQFF/CMN5oAAAAAAAAAAAAAAAAAAAAAAAAAAAAAAAAAAAAACBUmAEAWEQHZBhG1ZWW2BAUYCRA5D9W38AAAAAAAAAAAAAAAAAAAAAAAAAAAAAAAAAAAAAAAAAZIIRFWEQiVdgQFF/CMN5oAAAAAAAAAAAAAAAAAAAAAAAAAAAAAAAAAAAAACBUmAEAWEQgJBhG+hWW2BAUYCRA5D9W4Fv/////////////////////xZgAWAAhXP//////////////////////////xZz//////////////////////////8WgVJgIAGQgVJgIAFgACBgAIKCVGEQ6pGQYRg0VluSUFCBkFVQYACBkFBgAFuDgRAVYRHPV4GFc///////////////////////////FmAAc///////////////////////////Fn/d8lKtG+LIm2nCsGj8N42qlSun8WPEoRYo9VpN9SOz72BAUWBAUYCRA5CkhGAAgISBUmAgAZCBUmAgAWAAIGAAYQEACoFUgXP//////////////////////////wIZFpCDc///////////////////////////FgIXkFVQgYBhEbmQYRwIVluSUFCAgGERx5BhHAhWW5FQUGEQ+VZbUIBgBIGQVVBQUFBQVltgAID9W2AAgP1bYAB//////wAAAAAAAAAAAAAAAAAAAAAAAAAAAAAAAAAAAACCFpBQkZBQVlthEhyBYRHnVluBFGESJ1dgAID9W1BWW2AAgTWQUGESOYFhEhNWW5KRUFBWW2AAYCCChAMSFWESVVdhElRhEd1WW1tgAGESY4SChQFhEipWW5FQUJKRUFBWW2AAgRUVkFCRkFBWW2ESgYFhEmxWW4JSUFBWW2AAYCCCAZBQYRKcYACDAYRhEnhWW5KRUFBWW2AAgZBQkZBQVlthErWBYRKiVluBFGESwFdgAID9W1BWW2AAgTWQUGES0oFhEqxWW5KRUFBWW2AAYCCChAMSFWES7ldhEu1hEd1WW1tgAGES/ISChQFhEsNWW5FQUJKRUFBWW2AAc///////////////////////////ghaQUJGQUFZbYABhEzCCYRMFVluQUJGQUFZbYRNAgWETJVZbglJQUFZbYABgIIIBkFBhE1tgAIMBhGETN1ZbkpFQUFZbYRNqgWETJVZbgRRhE3VXYACA/VtQVltgAIE1kFBhE4eBYRNhVluSkVBQVltgAIBgQIOFAxIVYROkV2ETo2ER3VZbW2AAYROyhYKGAWETeFZbklBQYCBhE8OFgoYBYRLDVluRUFCSUJKQUFZbYACAYABgYISGAxIVYRPmV2ET5WER3VZbW2AAYRP0hoKHAWETeFZbk1BQYCBhFAWGgocBYRN4VluSUFBgQGEUFoaChwFhEsNWW5FQUJJQklCSVltgAGAggoQDEhVhFDZXYRQ1YRHdVltbYABhFESEgoUBYRN4VluRUFCSkVBQVlthFFaBYRKiVluCUlBQVltgAGAgggGQUGEUcWAAgwGEYRRNVluSkVBQVlthFICBYRJsVluBFGEUi1dgAID9W1BWW2AAgTWQUGEUnYFhFHdWW5KRUFBWW2AAgGBAg4UDEhVhFLpXYRS5YRHdVltbYABhFMiFgoYBYRN4VluSUFBgIGEU2YWChgFhFI5WW5FQUJJQkpBQVltgAID9W2AAgP1bYACA/VtgAICDYB+EARJhFQhXYRUHYRTjVltbgjWQUGf//////////4ERFWEVJVdhFSRhFOhWW1tgIIMBkVCDYAGCAoMBERVhFUFXYRVAYRTtVltbklCSkFBWW2AAgGAAgGAAYICGiAMSFWEVZFdhFWNhEd1WW1tgAGEVcoiCiQFhE3hWW5VQUGAgYRWDiIKJAWETeFZblFBQYEBhFZSIgokBYRLDVluTUFBgYIYBNWf//////////4ERFWEVtVdhFbRhEeJWW1thFcGIgokBYRTyVluSUJJQUJKVUJKVkJNQVltgAIBgQIOFAxIVYRXnV2EV5mER3VZbW2AAYRX1hYKGAWETeFZbklBQYCBhFgaFgoYBYRN4VluRUFCSUJKQUFZbYACCglJgIIIBkFCSkVBQVlt/dG9rZW4gZG9lc24ndCBleGlzdAAAAAAAAAAAAAAAAABgAIIBUlBWW2AAYRZXYBODYRYQVluRUGEWYoJhFiFWW2AgggGQUJGQUFZbYABgIIIBkFCBgQNgAIMBUmEWhoFhFkpWW5BQkZBQVlt/bm90IGF1dGhvcml6ZWQAAAAAAAAAAAAAAAAAAAAAAABgAIIBUlBWW2AAYRbDYA6DYRYQVluRUGEWzoJhFo1WW2AgggGQUJGQUFZbYABgIIIBkFCBgQNgAIMBUmEW8oFhFrZWW5BQkZBQVlt/ZnJvbSAhPSBvd25lcgAAAAAAAAAAAAAAAAAAAAAAAABgAIIBUlBWW2AAYRcvYA2DYRYQVluRUGEXOoJhFvlWW2AgggGQUJGQUFZbYABgIIIBkFCBgQNgAIMBUmEXXoFhFyJWW5BQkZBQVlt/dHJhbnNmZXIgdG8gemVybyBhZGRyZXNzAAAAAAAAAABgAIIBUlBWW2AAYRebYBiDYRYQVluRUGEXpoJhF2VWW2AgggGQUJGQUFZbYABgIIIBkFCBgQNgAIMBUmEXyoFhF45WW5BQkZBQVlt/Tkh7cQAAAAAAAAAAAAAAAAAAAAAAAAAAAAAAAAAAAABgAFJgEWAEUmAkYAD9W2AAYRgLgmESolZbkVBhGBaDYRKiVluSUIKCA5BQgYERFWEYLldhGC1hF9FWW1uSkVBQVltgAGEYP4JhEqJWW5FQYRhKg2ESolZbklCCggGQUICCERVhGGJXYRhhYRfRVltbkpFQUFZbYACCglJgIIIBkFCSkVBQVltQVltgAGEYiWAAg2EYaFZbkVBhGJSCYRh5VltgAIIBkFCRkFBWW2AAYICCAZBQYRi0YACDAYZhEzdWW2EYwWAggwGFYRM3VlthGM5gQIMBhGEUTVZbgYEDYGCDAVJhGN+BYRh8VluQUJSTUFBQUFZbYACBUZBQYRj4gWESE1ZbkpFQUFZbYABgIIKEAxIVYRkUV2EZE2ER3VZbW2AAYRkihIKFAWEY6VZbkVBQkpFQUFZbf3Vuc2FmZSByZWNpcGllbnQAAAAAAAAAAAAAAAAAAAAAYACCAVJQVltgAGEZYWAQg2EWEFZbkVBhGWyCYRkrVltgIIIBkFCRkFBWW2AAYCCCAZBQgYEDYACDAVJhGZCBYRlUVluQUJGQUFZbf293bmVyID0gemVybyBhZGRyZXNzAAAAAAAAAAAAAAAAYACCAVJQVltgAGEZzWAUg2EWEFZbkVBhGdiCYRmXVltgIIIBkFCRkFBWW2AAYCCCAZBQgYEDYACDAVJhGfyBYRnAVluQUJGQUFZbgoGDN2AAg4MBUlBQUFZbYABgHxlgH4MBFpBQkZBQVltgAGEaL4OFYRhoVluTUGEaPIOFhGEaA1ZbYRpFg2EaElZbhAGQUJOSUFBQVltgAGCAggGQUGEaZWAAgwGIYRM3VlthGnJgIIMBh2ETN1ZbYRp/YECDAYZhFE1WW4GBA2BggwFSYRqSgYSGYRojVluQUJaVUFBQUFBQVlt/bWludCB0byB6ZXJvIGFkZHJlc3MAAAAAAAAAAAAAAABgAIIBUlBWW2AAYRrUYBSDYRYQVluRUGEa34JhGp5WW2AgggGQUJGQUFZbYABgIIIBkFCBgQNgAIMBUmEbA4FhGsdWW5BQkZBQVlt/YWxyZWFkeSBtaW50ZWQAAAAAAAAAAAAAAAAAAAAAAABgAIIBUlBWW2AAYRtAYA6DYRYQVluRUGEbS4JhGwpWW2AgggGQUJGQUFZbYABgIIIBkFCBgQNgAIMBUmEbb4FhGzNWW5BQkZBQVlt/RVJDNzIxQTogcXVhbnRpdHkgdG8gbWludCB0b28gaGlgAIIBUn9naAAAAAAAAAAAAAAAAAAAAAAAAAAAAAAAAAAAAAAAAGAgggFSUFZbYABhG9JgIoNhFhBWW5FQYRvdgmEbdlZbYECCAZBQkZBQVltgAGAgggGQUIGBA2AAgwFSYRwBgWEbxVZbkFCRkFBWW2AAYRwTgmESolZbkVB///////////////////////////////////////////+CA2EcRVdhHERhF9FWW1tgAYIBkFCRkFBW/qJkaXBmc1giEiB0ShnjEsZGBJjOoPQklISOU39GbAYmnRiOIVC0F6mikmRzb2xjQwAIEQAz",
          "touched": true,
          "read": true
        },
        "0x85dA99c8a7C2C95964c8EfD687E95E632Fc533D6": {
          "address": "0x85dA99c8a7C2C95964c8EfD687E95E632Fc533D6",
          "nonce": 5449,
          "read": true
        },
        "0xA52f1226449eA47013CceD3Dc59927657e3054dF": {
          "address": "0xA52f1226449eA47013CceD3Dc59927657e3054dF",
          "read": true
        }
      }
    }
  ]
}
