{
  "accountTrie": {
    "2bedce155a8e8b1769cd5315c0ead1b2518f7c89ebe3ccbc5c014fd3b29abfdd": "f873a032d99bef571219ad8b7007ff6a58b0bd81296db46821c9a73ce8861298b992aeb850f84e808ad3c21cafea1cc5d1ac19a056e81f171bcc55a6ff8345e692c0f86e5b48e01b996cadc001622fb5e363b421a0c5d2460186f7233c927e7db2dcc703c0e500b653ca82273b7bfad8045d85a470",
    "3598cdb2c5f051c34369db1c37273c5dd905ac8490436020f8db72c60387f34c": "f901d1a0d5653018d00cf355e0f6e4282a0ed3dd7e7c62cc86ce5a5405f820e6d679c24c80a02bedce155a8e8b1769cd5315c0ead1b2518f7c89ebe3ccbc5c014fd3b29abfdda0d379709dd7f28dcd01c9f7dad8b806aa54f8133adf378a7335aba34dc462cbcda07e76e82d4a030b56c2352e0cb128d5ac4c78ca4ad64ec679808dcb3308679520a0fbb0605093c53847533475108c71179d80a5749200ae46802eea519f97ba5ee9a055fb730a81af8615add1b4fb896303b1efd995f6da3da6dbb5022f05f150d5aba09e54942e5cbab33b4ec4216f6eeaf22c427135da3ee41438bcc4e7de07ffeee0a0364969fa64ed1edef177b8a87bbe20e26615582bf935df361abf64c0b7e2b589a0e6e82a109ac4e5daed8f76043d8393d0298472e0518ff96a48b8492e479881fba07f95c294bf0b48618f52f67d7598d95759033fe34b5b026ec15bdd19f8c7e273a0f27f1bbeffb4539acf7210c35186f1bfe181347ce530871f3f8d22689af29048a0e086c4db2fb20d0509e45cc93d81ebbb34392390d03ca817c15d77896cc23f7180a08333762fcaf7193e048ab228010951a924224adf67ad901b5e98441becfcbbd7a0a11a18515ce0ed3e2a45678b636ad1d88a21273a0f72d2e8845b8025efbe15f680",
    "5f9017e0d20e5824d9cec2d5effd3645a433764464cd8145e770838d532e6dcc": "f873a02080c7b7ae81a58eb98d9c78de4a1fd7fd9535fc953ed2be602daaa41767312ab850f84e808ad3c21bd1baa349367c9ca056e81f171bcc55a6ff8345e692c0f86e5b48e01b996cadc001622fb5e363b421a0c5d2460186f7233c927e7db2dcc703c0e500b653ca82273b7bfad8045d85a470",
    "7f95c294bf0b48618f52f67d7598d95759033fe34b5b026ec15bdd19f8c7e273": "f85180a031d1eb10fdf37ef90417d463e9e3d1dad5bab6a3e8b38ccc4eaa744250317457808080a0b3b0249d4c5770057c5b5e5c0115b863ecaf06a83d08f055c029bea9ad6940b98080808080808080808080",
    "b335954bc336feda7540b8ca11b7f73ad1f93a8edd660e13f962c23e370618ed": "f869a020417f50fc699ebb817e23468e114836fb4578b6281ced73df8cbbfefb427243b846f8440180a05f521f6615465a2d8b0397425c0fec12fa1f91137f7c3e9decba0a09913d4e5aa05deadf02dd8344275283fee394945c5e15787054e0eef21f50c960fd91323297",
    "b3b0249d4c5770057c5b5e5c0115b863ecaf06a83d08f055c029bea9ad6940b9": "f85180a0b71054cdc918019765947a05923a3eaa9ef4733d373e48f3281bb6922b2d830680808080808080808080a0b352e4c72d853473be5eac69cf10adfdc61a3747ec26a4b424f0a29292fc1d3780808080",
    "b71054cdc918019765947a05923a3eaa9ef4733d373e48f3281bb6922b2d8306": "f8769f3eec2b84f0ba344fd4b4d2f022469febe7a772c4789acfc119eb558ab1da3db854f8528212168c033b2e3c616dd6e5bb6c598aa056e81f171bcc55a6ff8345e692c0f86e5b48e01b996cadc001622fb5e363b421a0c5d2460186f7233c927e7db2dcc703c0e500b653ca82273b7bfad8045d85a470",
    "f27f1bbeffb4539acf7210c35186f1bfe181347ce530871f3f8d22689af29048": "f8518080808080808080a0502ea752a535c877de60ef1c494fb0ceb60d1ad0d2c2dfc56c054bbce5a03299808080808080a0b335954bc336feda7540b8ca11b7f73ad1f93a8edd660e13f962c23e370618ed80",
    "fbb0605093c53847533475108c71179d80a5749200ae46802eea519f97ba5ee9": "f871a06688a62eaffcabc9e0d1f9c51e8db5ccca187a14282abde749ca656fca1a541e8080a05f9017e0d20e5824d9cec2d5effd3645a433764464cd8145e770838d532e6dcc80a03a6ab9252d625ee34450f5f40ef8aeaf895aedcd7be4a964969ea65a145d7a288080808080808080808080"
  },
  "storageTrie": {
    "5f521f6615465a2d8b0397425c0fec12fa1f91137f7c3e9decba0a09913d4e5a": "f8b1a0fa041df2fe45bc115c09b97f4e06f41ea318a908d6ffcf66734bb2ef27c4a5efa0700b568369bab9b3af3f1561a426e991cc426bba9b8c73341a0ceda6ea392ca280a0f0bc45637247fc3def997a15e44f564a39bc546c09b4e68f26361fbaea02d3c180808080a0eae40301a6b7a115673b81cc913afcf886baecdfd153bdb8bd9b8f8748cbf580808080808080a0b31bceaf1564875cd3753188c6d491c0457329fbabc4bf1cd0f71dc8dd49fc9080",
    "7ee2c4db02e8159cc3664939293977a3ef471b5351a0dc2f30c9ff7018dbdc0c": "e2a020895aeba922f7a7fbe64d6e18ac301e6895dea1b10155bc0dfdfb93dd33da4004",
    "eae40301a6b7a115673b81cc913afcf886baecdfd153bdb8bd9b8f8748cbf580": "e2a03a35acfbc15ff81a39ae7d344fd709f28e8600b4aa8c65c6b64bfe7fe36bd19b04",
    "f0bc45637247fc3def997a15e44f564a39bc546c09b4e68f26361fbaea02d3c1": "f851808080808080a07ee2c4db02e8159cc3664939293977a3ef471b5351a0dc2f30c9ff7018dbdc0c8080808080808080a07208d6b504833528a018ecd2d190b5b0bbaf3cd5bae726ad517060f6389fc6f780"
  },
  "parentStateRoot": "0x3598cdb2c5f051c34369db1c37273c5dd905ac8490436020f8db72c60387f34c",
  "transactionTraces": [
    {
      "txn": "0x02f8b38207d182121684b6a77acd84b6a77c1182e48394ec59ea1acb9fc9f630b2dce73790ed8be0ac036e80b844248b71fc00000000000000000000000085da99c8a7c2c95964c8efd687e95e632fc533d60000000000000000000000000000000000000000000000000000000000000001c001a06476198bd672dd4854c55b57f3ac0cdca552c304f1fef70a1db0d2d5fa675bd1a05ea6cd55a6900bd3c6fdc1b24ce14b79aab850787fe6515734baa16329d6d0f4",
      "delta": {
        "0x0000000000000000000000000000000000000000": {
          "address": "0x0000000000000000000000000000000000000000",
          "read": true
        },
        "0x85dA99c8a7C2C95964c8EfD687E95E632Fc533D6": {
          "address": "0x85dA99c8a7C2C95964c8EfD687E95E632Fc533D6",
          "nonce": 4631,
          "read": true
        },
        "0xEc59Ea1ACB9fc9F630B2DCe73790eD8Be0ac036e": {
          "address": "0xEc59Ea1ACB9fc9F630B2DCe73790eD8Be0ac036e",
          "storage": {
            "0x0000000000000000000000000000000000000000000000000000000000000004": "0x0000000000000000000000000000000000000000000000000000000000000005",
            "0x42fe90393dafacccf318596e1ca7e1e77c330a9ddff37275ce72bbe7ecb10ab8": "0x0000000000000000000000000000000000000000000000000000000000000005",
            "0x52d75039926638d3c558b2bdefb945d5be8dae29dedd1c313212a4d472d9fde5": "0x00000000000000000000000085da99c8a7c2c95964c8efd687e95e632fc533d6"
          },
          "storage_read": {
            "0x0000000000000000000000000000000000000000000000000000000000000004": {},
            "0x42fe90393dafacccf318596e1ca7e1e77c330a9ddff37275ce72bbe7ecb10ab8": {},
            "0x52d75039926638d3c558b2bdefb945d5be8dae29dedd1c313212a4d472d9fde5": {}
          },
          "code_read": "YIBgQFI0gBVhABBXYACA/VtQYAQ2EGEAqVdgADVg4ByAY0KELg4RYQBxV4BjQoQuDhRhAWJXgGNjUiEeFGEBfleAY3CggjEUYQGuV4Bjoiy0ZRRhAd5XgGO4jU/eFGEB+leAY+mF6cUUYQIWV2EAqVZbgGMB/8mnFGEArleAYwgYEvwUYQDeV4BjCV6nsxRhAQ5XgGMjuHLdFGEBKleAYySLcfwUYQFGV1tgAID9W2EAyGAEgDYDgQGQYQDDkZBhEj9WW2ECRlZbYEBRYQDVkZBhEodWW2BAUYCRA5DzW2EA+GAEgDYDgQGQYQDzkZBhEthWW2EDGFZbYEBRYQEFkZBhE0ZWW2BAUYCRA5DzW2EBKGAEgDYDgQGQYQEjkZBhE41WW2ED9VZbAFthAURgBIA2A4EBkGEBP5GQYRPNVlthBd1WWwBbYQFgYASANgOBAZBhAVuRkGETjVZbYQjJVlsAW2EBfGAEgDYDgQGQYQF3kZBhE81WW2EI11ZbAFthAZhgBIA2A4EBkGEBk5GQYRLYVlthCg9WW2BAUWEBpZGQYRNGVltgQFGAkQOQ81thAchgBIA2A4EBkGEBw5GQYRQgVlthCrpWW2BAUWEB1ZGQYRRcVltgQFGAkQOQ81thAfhgBIA2A4EBkGEB85GQYRSjVlthC3FWWwBbYQIUYASANgOBAZBhAg+RkGEVSFZbYQxuVlsAW2ECMGAEgDYDgQGQYQIrkZBhFdBWW2ENrFZbYEBRYQI9kZBhEodWW2BAUYCRA5DzW2AAf4CsWM0AAAAAAAAAAAAAAAAAAAAAAAAAAAAAAAAAAAAAe/////////////////////////////////////8ZFoJ7/////////////////////////////////////xkWFIBhAxFXUH8B/8mnAAAAAAAAAAAAAAAAAAAAAAAAAAAAAAAAAAAAAHv/////////////////////////////////////GRaCe/////////////////////////////////////8ZFhRbkFCRkFBWW2AAgHP//////////////////////////xZgAICEgVJgIAGQgVJgIAFgACBgAJBUkGEBAAqQBHP//////////////////////////xZz//////////////////////////8WA2EDuldgQFF/CMN5oAAAAAAAAAAAAAAAAAAAAAAAAAAAAAAAAAAAAACBUmAEAWEDsZBhFm1WW2BAUYCRA5D9W2ACYACDgVJgIAGQgVJgIAFgACBgAJBUkGEBAAqQBHP//////////////////////////xaQUJGQUFZbYACAYACDgVJgIAGQgVJgIAFgACBgAJBUkGEBAAqQBHP//////////////////////////xaQUIBz//////////////////////////8WM3P//////////////////////////xYUgGEE7FdQYANgAIJz//////////////////////////8Wc///////////////////////////FoFSYCABkIFSYCABYAAgYAAzc///////////////////////////FnP//////////////////////////xaBUmAgAZCBUmAgAWAAIGAAkFSQYQEACpAEYP8WW2EFK1dgQFF/CMN5oAAAAAAAAAAAAAAAAAAAAAAAAAAAAAAAAAAAAACBUmAEAWEFIpBhFtlWW2BAUYCRA5D9W4JgAmAAhIFSYCABkIFSYCABYAAgYABhAQAKgVSBc///////////////////////////AhkWkINz//////////////////////////8WAheQVVCBg3P//////////////////////////xaCc///////////////////////////Fn+MW+Hl6+x9W9FPcUJ9HoTz3QMUwPeyKR5bIArIx8O5JWBAUWBAUYCRA5CkUFBQVltgAICCgVJgIAGQgVJgIAFgACBgAJBUkGEBAAqQBHP//////////////////////////xZz//////////////////////////8Wg3P//////////////////////////xYUYQZ9V2BAUX8Iw3mgAAAAAAAAAAAAAAAAAAAAAAAAAAAAAAAAAAAAAIFSYAQBYQZ0kGEXRVZbYEBRgJEDkP1bYABz//////////////////////////8WgnP//////////////////////////xYDYQbsV2BAUX8Iw3mgAAAAAAAAAAAAAAAAAAAAAAAAAAAAAAAAAAAAAIFSYAQBYQbjkGEXsVZbYEBRgJEDkP1bYQb3gzODYQ3bVlthBzZXYEBRfwjDeaAAAAAAAAAAAAAAAAAAAAAAAAAAAAAAAAAAAAAAgVJgBAFhBy2QYRbZVltgQFGAkQOQ/VtgAYBgAIVz//////////////////////////8Wc///////////////////////////FoFSYCABkIFSYCABYAAgYACCglRhB4WRkGEYAFZbklBQgZBVUGABgGAAhHP//////////////////////////xZz//////////////////////////8WgVJgIAGQgVJgIAFgACBgAIKCVGEH25GQYRg0VluSUFCBkFVQgWAAgIOBUmAgAZCBUmAgAWAAIGAAYQEACoFUgXP//////////////////////////wIZFpCDc///////////////////////////FgIXkFVQYAJgAIKBUmAgAZCBUmAgAWAAIGAAYQEACoFUkHP//////////////////////////wIZFpBVgIJz//////////////////////////8WhHP//////////////////////////xZ/3fJSrRviyJtpwrBo/DeNqpUrp/FjxKEWKPVaTfUjs+9gQFFgQFGAkQOQpFBQUFZbYQjTgoJhDw9WW1BQVlthCOKDg4NhBd1WW2AAgnP//////////////////////////xY7FIBhCctXUGMVC3oCYOAbe/////////////////////////////////////8ZFoJz//////////////////////////8WYxULegIzhoVgQFGEY/////8WYOAbgVJgBAFhCWeTkpGQYRifVltgIGBAUYCDA4FgAIda8RWAFWEJhlc9YACAPj1gAP1bUFBQUGBAUT1gHxlgH4IBFoIBgGBAUlCBAZBhCaqRkGEY/lZbe/////////////////////////////////////8ZFhRbYQoKV2BAUX8Iw3mgAAAAAAAAAAAAAAAAAAAAAAAAAAAAAAAAAAAAAIFSYAQBYQoBkGEZd1ZbYEBRgJEDkP1bUFBQVltgAIBgAIOBUmAgAZCBUmAgAWAAIGAAkFSQYQEACpAEc///////////////////////////FpBQYABz//////////////////////////8WgXP//////////////////////////xYDYQq1V2BAUX8Iw3mgAAAAAAAAAAAAAAAAAAAAAAAAAAAAAAAAAAAAAIFSYAQBYQqskGEWbVZbYEBRgJEDkP1bkZBQVltgAIBz//////////////////////////8WgnP//////////////////////////xYDYQsqV2BAUX8Iw3mgAAAAAAAAAAAAAAAAAAAAAAAAAAAAAAAAAAAAAIFSYAQBYQshkGEZ41ZbYEBRgJEDkP1bYAFgAINz//////////////////////////8Wc///////////////////////////FoFSYCABkIFSYCABYAAgVJBQkZBQVluAYANgADNz//////////////////////////8Wc///////////////////////////FoFSYCABkIFSYCABYAAgYACEc///////////////////////////FnP//////////////////////////xaBUmAgAZCBUmAgAWAAIGAAYQEACoFUgWD/AhkWkIMVFQIXkFVQgXP//////////////////////////xYzc///////////////////////////Fn8XMH6rOathB+iJmEWtPVm9llPyAPIgkgSJyitZN2lsMYNgQFFhDGKRkGESh1ZbYEBRgJEDkKNQUFZbYQx5hYWFYQXdVltgAIRz//////////////////////////8WOxSAYQ1mV1BjFQt6AmDgG3v/////////////////////////////////////GRaEc///////////////////////////FmMVC3oCM4iHh4dgQFGGY/////8WYOAbgVJgBAFhDQKVlJOSkZBhGlBWW2AgYEBRgIMDgWAAh1rxFYAVYQ0hVz1gAIA+PWAA/VtQUFBQYEBRPWAfGWAfggEWggGAYEBSUIEBkGENRZGQYRj+Vlt7/////////////////////////////////////xkWFFthDaVXYEBRfwjDeaAAAAAAAAAAAAAAAAAAAAAAAAAAAAAAAAAAAAAAgVJgBAFhDZyQYRl3VltgQFGAkQOQ/VtQUFBQUFZbYANgIFKBYABSYEBgACBgIFKAYABSYEBgACBgAJFQkVCQVJBhAQAKkARg/xaBVltgAINz//////////////////////////8Wg3P//////////////////////////xYUgGEOnVdQYANgAIVz//////////////////////////8Wc///////////////////////////FoFSYCABkIFSYCABYAAgYACEc///////////////////////////FnP//////////////////////////xaBUmAgAZCBUmAgAWAAIGAAkFSQYQEACpAEYP8WW4BhDwZXUGACYACDgVJgIAGQgVJgIAFgACBgAJBUkGEBAAqQBHP//////////////////////////xZz//////////////////////////8Wg3P//////////////////////////xYUW5BQk5JQUFBWW2AAYARUkFBgAHP//////////////////////////xaDc///////////////////////////FgNhD4VXYEBRfwjDeaAAAAAAAAAAAAAAAAAAAAAAAAAAAAAAAAAAAAAAgVJgBAFhD3yQYRrqVltgQFGAkQOQ/VtgAHP//////////////////////////xZgAICDgVJgIAGQgVJgIAFgACBgAJBUkGEBAAqQBHP//////////////////////////xZz//////////////////////////8WFGEQJldgQFF/CMN5oAAAAAAAAAAAAAAAAAAAAAAAAAAAAAAAAAAAAACBUmAEAWEQHZBhG1ZWW2BAUYCRA5D9W38AAAAAAAAAAAAAAAAAAAAAAAAAAAAAAAAAAAAAAAAAZIIRFWEQiVdgQFF/CMN5oAAAAAAAAAAAAAAAAAAAAAAAAAAAAAAAAAAAAACBUmAEAWEQgJBhG+hWW2BAUYCRA5D9W4Fv/////////////////////xZgAWAAhXP//////////////////////////xZz//////////////////////////8WgVJgIAGQgVJgIAFgACBgAIKCVGEQ6pGQYRg0VluSUFCBkFVQYACBkFBgAFuDgRAVYRHPV4GFc///////////////////////////FmAAc///////////////////////////Fn/d8lKtG+LIm2nCsGj8N42qlSun8WPEoRYo9VpN9SOz72BAUWBAUYCRA5CkhGAAgISBUmAgAZCBUmAgAWAAIGAAYQEACoFUgXP//////////////////////////wIZFpCDc///////////////////////////FgIXkFVQgYBhEbmQYRwIVluSUFCAgGERx5BhHAhWW5FQUGEQ+VZbUIBgBIGQVVBQUFBQVltgAID9W2AAgP1bYAB//////wAAAAAAAAAAAAAAAAAAAAAAAAAAAAAAAAAAAACCFpBQkZBQVlthEhyBYRHnVluBFGESJ1dgAID9W1BWW2AAgTWQUGESOYFhEhNWW5KRUFBWW2AAYCCChAMSFWESVVdhElRhEd1WW1tgAGESY4SChQFhEipWW5FQUJKRUFBWW2AAgRUVkFCRkFBWW2ESgYFhEmxWW4JSUFBWW2AAYCCCAZBQYRKcYACDAYRhEnhWW5KRUFBWW2AAgZBQkZBQVlthErWBYRKiVluBFGESwFdgAID9W1BWW2AAgTWQUGES0oFhEqxWW5KRUFBWW2AAYCCChAMSFWES7ldhEu1hEd1WW1tgAGES/ISChQFhEsNWW5FQUJKRUFBWW2AAc///////////////////////////ghaQUJGQUFZbYABhEzCCYRMFVluQUJGQUFZbYRNAgWETJVZbglJQUFZbYABgIIIBkFBhE1tgAIMBhGETN1ZbkpFQUFZbYRNqgWETJVZbgRRhE3VXYACA/VtQVltgAIE1kFBhE4eBYRNhVluSkVBQVltgAIBgQIOFAxIVYROkV2ETo2ER3VZbW2AAYROyhYKGAWETeFZbklBQYCBhE8OFgoYBYRLDVluRUFCSUJKQUFZbYACAYABgYISGAxIVYRPmV2ET5WER3VZbW2AAYRP0hoKHAWETeFZbk1BQYCBhFAWGgocBYRN4VluSUFBgQGEUFoaChwFhEsNWW5FQUJJQklCSVltgAGAggoQDEhVhFDZXYRQ1YRHdVltbYABhFESEgoUBYRN4VluRUFCSkVBQVlthFFaBYRKiVluCUlBQVltgAGAgggGQUGEUcWAAgwGEYRRNVluSkVBQVlthFICBYRJsVluBFGEUi1dgAID9W1BWW2AAgTWQUGEUnYFhFHdWW5KRUFBWW2AAgGBAg4UDEhVhFLpXYRS5YRHdVltbYABhFMiFgoYBYRN4VluSUFBgIGEU2YWChgFhFI5WW5FQUJJQkpBQVltgAID9W2AAgP1bYACA/VtgAICDYB+EARJhFQhXYRUHYRTjVltbgjWQUGf//////////4ERFWEVJVdhFSRhFOhWW1tgIIMBkVCDYAGCAoMBERVhFUFXYRVAYRTtVltbklCSkFBWW2AAgGAAgGAAYICGiAMSFWEVZFdhFWNhEd1WW1tgAGEVcoiCiQFhE3hWW5VQUGAgYRWDiIKJAWETeFZblFBQYEBhFZSIgokBYRLDVluTUFBgYIYBNWf//////////4ERFWEVtVdhFbRhEeJWW1thFcGIgokBYRTyVluSUJJQUJKVUJKVkJNQVltgAIBgQIOFAxIVYRXnV2EV5mER3VZbW2AAYRX1hYKGAWETeFZbklBQYCBhFgaFgoYBYRN4VluRUFCSUJKQUFZbYACCglJgIIIBkFCSkVBQVlt/dG9rZW4gZG9lc24ndCBleGlzdAAAAAAAAAAAAAAAAABgAIIBUlBWW2AAYRZXYBODYRYQVluRUGEWYoJhFiFWW2AgggGQUJGQUFZbYABgIIIBkFCBgQNgAIMBUmEWhoFhFkpWW5BQkZBQVlt/bm90IGF1dGhvcml6ZWQAAAAAAAAAAAAAAAAAAAAAAABgAIIBUlBWW2AAYRbDYA6DYRYQVluRUGEWzoJhFo1WW2AgggGQUJGQUFZbYABgIIIBkFCBgQNgAIMBUmEW8oFhFrZWW5BQkZBQVlt/ZnJvbSAhPSBvd25lcgAAAAAAAAAAAAAAAAAAAAAAAABgAIIBUlBWW2AAYRcvYA2DYRYQVluRUGEXOoJhFvlWW2AgggGQUJGQUFZbYABgIIIBkFCBgQNgAIMBUmEXXoFhFyJWW5BQkZBQVlt/dHJhbnNmZXIgdG8gemVybyBhZGRyZXNzAAAAAAAAAABgAIIBUlBWW2AAYRebYBiDYRYQVluRUGEXpoJhF2VWW2AgggGQUJGQUFZbYABgIIIBkFCBgQNgAIMBUmEXyoFhF45WW5BQkZBQVlt/Tkh7cQAAAAAAAAAAAAAAAAAAAAAAAAAAAAAAAAAAAABgAFJgEWAEUmAkYAD9W2AAYRgLgmESolZbkVBhGBaDYRKiVluSUIKCA5BQgYERFWEYLldhGC1hF9FWW1uSkVBQVltgAGEYP4JhEqJWW5FQYRhKg2ESolZbklCCggGQUICCERVhGGJXYRhhYRfRVltbkpFQUFZbYACCglJgIIIBkFCSkVBQVltQVltgAGEYiWAAg2EYaFZbkVBhGJSCYRh5VltgAIIBkFCRkFBWW2AAYICCAZBQYRi0YACDAYZhEzdWW2EYwWAggwGFYRM3VlthGM5gQIMBhGEUTVZbgYEDYGCDAVJhGN+BYRh8VluQUJSTUFBQUFZbYACBUZBQYRj4gWESE1ZbkpFQUFZbYABgIIKEAxIVYRkUV2EZE2ER3VZbW2AAYRkihIKFAWEY6VZbkVBQkpFQUFZbf3Vuc2FmZSByZWNpcGllbnQAAAAAAAAAAAAAAAAAAAAAYACCAVJQVltgAGEZYWAQg2EWEFZbkVBhGWyCYRkrVltgIIIBkFCRkFBWW2AAYCCCAZBQgYEDYACDAVJhGZCBYRlUVluQUJGQUFZbf293bmVyID0gemVybyBhZGRyZXNzAAAAAAAAAAAAAAAAYACCAVJQVltgAGEZzWAUg2EWEFZbkVBhGdiCYRmXVltgIIIBkFCRkFBWW2AAYCCCAZBQgYEDYACDAVJhGfyBYRnAVluQUJGQUFZbgoGDN2AAg4MBUlBQUFZbYABgHxlgH4MBFpBQkZBQVltgAGEaL4OFYRhoVluTUGEaPIOFhGEaA1ZbYRpFg2EaElZbhAGQUJOSUFBQVltgAGCAggGQUGEaZWAAgwGIYRM3VlthGnJgIIMBh2ETN1ZbYRp/YECDAYZhFE1WW4GBA2BggwFSYRqSgYSGYRojVluQUJaVUFBQUFBQVlt/bWludCB0byB6ZXJvIGFkZHJlc3MAAAAAAAAAAAAAAABgAIIBUlBWW2AAYRrUYBSDYRYQVluRUGEa34JhGp5WW2AgggGQUJGQUFZbYABgIIIBkFCBgQNgAIMBUmEbA4FhGsdWW5BQkZBQVlt/YWxyZWFkeSBtaW50ZWQAAAAAAAAAAAAAAAAAAAAAAABgAIIBUlBWW2AAYRtAYA6DYRYQVluRUGEbS4JhGwpWW2AgggGQUJGQUFZbYABgIIIBkFCBgQNgAIMBUmEbb4FhGzNWW5BQkZBQVlt/RVJDNzIxQTogcXVhbnRpdHkgdG8gbWludCB0b28gaGlgAIIBUn9naAAAAAAAAAAAAAAAAAAAAAAAAAAAAAAAAAAAAAAAAGAgggFSUFZbYABhG9JgIoNhFhBWW5FQYRvdgmEbdlZbYECCAZBQkZBQVltgAGAgggGQUIGBA2AAgwFSYRwBgWEbxVZbkFCRkFBWW2AAYRwTgmESolZbkVB///////////////////////////////////////////+CA2EcRVdhHERhF9FWW1tgAYIBkFCRkFBW/qJkaXBmc1giEiB0ShnjEsZGBJjOoPQklISOU39GbAYmnRiOIVC0F6mikmRzb2xjQwAIEQAz",
          "touched": true,
          "read": true
        },
        "0xaE61a307d07c9bc6ec66D13D6FdE4E0FAb33C253": {
          "address": "0xaE61a307d07c9bc6ec66D13D6FdE4E0FAb33C253",
          "read": true
        }
      }
    }
  ]
}
