{
  "accountTrie": {
    "1c873d1aa0079bd8793a7dbbbac9a82098a4b33bb6778dc6c7d1e69a9f4642a7": "f85180a0545819faaeb7cbcf12f380b6146319353f240c4f68fd728209debbc600c421f180808080808080808080a0b352e4c72d853473be5eac69cf10adfdc61a3747ec26a4b424f0a29292fc1d3780808080",
    "545819faaeb7cbcf12f380b6146319353f240c4f68fd728209debbc600c421f1": "f8749f3eec2b84f0ba344fd4b4d2f022469febe7a772c4789acfc119eb558ab1da3db852f850048c033b2e3c9f7ad95fb3a67702a056e81f171bcc55a6ff8345e692c0f86e5b48e01b996cadc001622fb5e363b421a0c5d2460186f7233c927e7db2dcc703c0e500b653ca82273b7bfad8045d85a470",
    "a0f6f22f9f8b6fb8250554f63959b9ec7be134635938d2f04d72ab815b8bb084": "f873a032d99bef571219ad8b7007ff6a58b0bd81296db46821c9a73ce8861298b992aeb850f84e808ad3c21bf0c6a7faf65200a056e81f171bcc55a6ff8345e692c0f86e5b48e01b996cadc001622fb5e363b421a0c5d2460186f7233c927e7db2dcc703c0e500b653ca82273b7bfad8045d85a470",
    "a94fba727d73734dd4192372ca9c73c144a310275fe04e7ba148e969d9eff4bd": "f869a0205237c3029b4a24179ef5ad0938a1d465559ff6257160070abdb475b4bae558b846f8440180a00ec8b6461f29898609825bdac473d45556a3e04f17edbafb21100bcb9029e5b2a047b29abe53c19aeca5c0eb589a063611294ffe0c4fb918af3faedacb1888a815",
    "bd337c1fb9780678b5e36b07740749a778d11a5432fb006ece7f9fbce9ca7039": "f901d1a03f84f317ceea01d67e9da286f143aea01d93cc275c3d9fad2722ce1aeb8a39bf80a0a0f6f22f9f8b6fb8250554f63959b9ec7be134635938d2f04d72ab815b8bb084a0d379709dd7f28dcd01c9f7dad8b806aa54f8133adf378a7335aba34dc462cbcda0c6e8ef6ebd6a3dbafbfdc007acf38ef93ade25a0574dcc403595f71f533625eba0ca5ffcf2a7fc2f9f4ed80efbca000c46a637c2d59185ddb95a3b1ee12f5b4745a055fb730a81af8615add1b4fb896303b1efd995f6da3da6dbb5022f05f150d5aba09e54942e5cbab33b4ec4216f6eeaf22c427135da3ee41438bcc4e7de07ffeee0a0364969fa64ed1edef177b8a87bbe20e26615582bf935df361abf64c0b7e2b589a0e6e82a109ac4e5daed8f76043d8393d0298472e0518ff96a48b8492e479881fba0cce1f24fbb2eea5c210f5adc2f985fc36298aadf74a35cf48f39c2e5daf7d1b8a0641172028033391973b95cc84af3b17df365c017f41cc4593e4c201102a5a53da0e086c4db2fb20d0509e45cc93d81ebbb34392390d03ca817c15d77896cc23f7180a08333762fcaf7193e048ab228010951a924224adf67ad901b5e98441becfcbbd7a0057de4e602c052849d58911ada0d6c554ec057058db09f7ec53b1de7b3a3b3ac80",
    "c6e8ef6ebd6a3dbafbfdc007acf38ef93ade25a0574dcc403595f71f533625eb": "f871808080a0a94fba727d73734dd4192372ca9c73c144a310275fe04e7ba148e969d9eff4bd80a07d17cb8bd5c71e3095d71dba47bba1e11b2cb9c46f51da3076edcfb78c595a9380808080808080a039ec3f1d3cf14244f58f7ac252f80b1f3401a3f39ccf4f6ea7b9d63907f140a2808080",
    "ca5ffcf2a7fc2f9f4ed80efbca000c46a637c2d59185ddb95a3b1ee12f5b4745": "f871a07c76fca15e14b9497481153ec6ce174197aed052f30c41b556d36c1ca2d36f028080a0f4b35fc0ef5ac52b3db03b5b4bdf8009cd256976ad6987e00e896c0772dcd6f380a03a6ab9252d625ee34450f5f40ef8aeaf895aedcd7be4a964969ea65a145d7a288080808080808080808080",
    "cce1f24fbb2eea5c210f5adc2f985fc36298aadf74a35cf48f39c2e5daf7d1b8": "f85180a031d1eb10fdf37ef90417d463e9e3d1dad5bab6a3e8b38ccc4eaa744250317457808080a01c873d1aa0079bd8793a7dbbbac9a82098a4b33bb6778dc6c7d1e69a9f4642a78080808080808080808080",
    "f4b35fc0ef5ac52b3db03b5b4bdf8009cd256976ad6987e00e896c0772dcd6f3": "f873a02080c7b7ae81a58eb98d9c78de4a1fd7fd9535fc953ed2be602daaa41767312ab850f84e808ad3c21bd1329f92e61c9fa056e81f171bcc55a6ff8345e692c0f86e5b48e01b996cadc001622fb5e363b421a0c5d2460186f7233c927e7db2dcc703c0e500b653ca82273b7bfad8045d85a470"
  },
  "storageTrie": {
    "0ec8b6461f29898609825bdac473d45556a3e04f17edbafb21100bcb9029e5b2": "f871a047d7ee2bc83e298d425fcad38e9b1ada9342f14b67f78ed69fe67a7893db9e5080808080808080a03c9725981e17707bd8612860278f4b6772db03e0e9ba3a550960d3cc81813df3808080a00217fd512c517b27264b1a710888bfc8c65bfff172b5e3f47cc71c76f0b11e3e80808080"
  },
  "parentStateRoot": "0xbd337c1fb9780678b5e36b07740749a778d11a5432fb006ece7f9fbce9ca7039",
  "transactionTraces": [
    {
      "txn": "0x02f8918207d10484b2d05e0084b984410e8301014594d36a3a58d754e0985c0bfdcf92ba79bd61c215e380a4a0712d680000000000000000000000000000000000000001431e0fae6d7217caa0000000c080a001268d69fd1db83485d4fe9c7dc5d6e240276f6f1c1a75ec2dfa94da8d1fff7fa067f1063c36cc37d1d85451290d146e5843596259cd57c184e12132ada8bd9883",
      "delta": {
        "0x0000000000000000000000000000000000000000": {
          "address": "0x0000000000000000000000000000000000000000",
          "read": true
        },
        "0x85dA99c8a7C2C95964c8EfD687E95E632Fc533D6": {
          "address": "0x85dA99c8a7C2C95964c8EfD687E95E632Fc533D6",
          "nonce": 5,
          "read": true
        },
        "0xD36A3a58d754E0985C0bFDcF92bA79Bd61c215e3": {
          "address": "0xD36A3a58d754E0985C0bFDcF92bA79Bd61c215e3",
          "storage": {
            "0x0000000000000000000000000000000000000000000000000000000000000000": "0x0000000000000000000000000000000000000001431e0fae6d7217caa0000000",
            "0x42fe90393dafacccf318596e1ca7e1e77c330a9ddff37275ce72bbe7ecb10ab8": "0x0000000000000000000000000000000000000001431e0fae6d7217caa0000000"
          },
          "storage_read": {
            "0x0000000000000000000000000000000000000000000000000000000000000000": {},
            "0x42fe90393dafacccf318596e1ca7e1e77c330a9ddff37275ce72bbe7ecb10ab8": {}
          },
          "code_read": "YIBgQFI0gBVhABBXYACA/VtQYAQ2EGEAqVdgADVg4ByAY0KWbGgRYQBxV4BjQpZsaBRhAWhXgGNwoIIxFGEBhFeAY5XYm0EUYQG0V4BjoHEtaBRhAdJXgGOpBZy7FGEB7leAY91i7T4UYQIeV2EAqVZbgGMG/d4DFGEArleAYwlep7MUYQDMV4BjGBYN3RRhAPxXgGMjuHLdFGEBGleAYzE85WcUYQFKV1tgAID9W2EAtmECTlZbYEBRYQDDkZBhCb5WW2BAUYCRA5DzW2EA5mAEgDYDgQGQYQDhkZBhCnlWW2EC3FZbYEBRYQDzkZBhCtRWW2BAUYCRA5DzW2EBBGEDzlZbYEBRYQERkZBhCv5WW2BAUYCRA5DzW2EBNGAEgDYDgQGQYQEvkZBhCxlWW2ED1FZbYEBRYQFBkZBhCtRWW2BAUYCRA5DzW2EBUmEFhVZbYEBRYQFfkZBhC4hWW2BAUYCRA5DzW2EBgmAEgDYDgQGQYQF9kZBhC6NWW2EFmFZbAFthAZ5gBIA2A4EBkGEBmZGQYQvQVlthBm9WW2BAUWEBq5GQYQr+VltgQFGAkQOQ81thAbxhBodWW2BAUWEByZGQYQm+VltgQFGAkQOQ81thAexgBIA2A4EBkGEB55GQYQujVlthBxVWWwBbYQIIYASANgOBAZBhAgORkGEKeVZbYQfsVltgQFFhAhWRkGEK1FZbYEBRgJEDkPNbYQI4YASANgOBAZBhAjORkGEL/VZbYQkJVltgQFFhAkWRkGEK/lZbYEBRgJEDkPNbYAOAVGECW5BhDGxWW4BgHwFgIICRBAJgIAFgQFGQgQFgQFKAkpGQgYFSYCABgoBUYQKHkGEMbFZbgBVhAtRXgGAfEGECqVdhAQCAg1QEAoNSkWAgAZFhAtRWW4IBkZBgAFJgIGAAIJBbgVSBUpBgAQGQYCABgIMRYQK3V4KQA2AfFoIBkVtQUFBQUIFWW2AAgWACYAAzc///////////////////////////FnP//////////////////////////xaBUmAgAZCBUmAgAWAAIGAAhXP//////////////////////////xZz//////////////////////////8WgVJgIAGQgVJgIAFgACCBkFVQgnP//////////////////////////xYzc///////////////////////////Fn+MW+Hl6+x9W9FPcUJ9HoTz3QMUwPeyKR5bIArIx8O5JYRgQFFhA7yRkGEK/lZbYEBRgJEDkKNgAZBQkpFQUFZbYABUgVZbYACBYAJgAIZz//////////////////////////8Wc///////////////////////////FoFSYCABkIFSYCABYAAgYAAzc///////////////////////////FnP//////////////////////////xaBUmAgAZCBUmAgAWAAIGAAgoJUYQRikZBhDMxWW5JQUIGQVVCBYAFgAIZz//////////////////////////8Wc///////////////////////////FoFSYCABkIFSYCABYAAgYACCglRhBLiRkGEMzFZbklBQgZBVUIFgAWAAhXP//////////////////////////xZz//////////////////////////8WgVJgIAGQgVJgIAFgACBgAIKCVGEFDpGQYQ0AVluSUFCBkFVQgnP//////////////////////////xaEc///////////////////////////Fn/d8lKtG+LIm2nCsGj8N42qlSun8WPEoRYo9VpN9SOz74RgQFFhBXKRkGEK/lZbYEBRgJEDkKNgAZBQk5JQUFBWW2AFYACQVJBhAQAKkARg/xaBVluAYAFgADNz//////////////////////////8Wc///////////////////////////FoFSYCABkIFSYCABYAAgYACCglRhBeeRkGEMzFZbklBQgZBVUIBgAICCglRhBf+RkGEMzFZbklBQgZBVUGAAc///////////////////////////FjNz//////////////////////////8Wf93yUq0b4sibacKwaPw3jaqVK6fxY8ShFij1Wk31I7Pvg2BAUWEGZJGQYQr+VltgQFGAkQOQo1BWW2ABYCBSgGAAUmBAYAAgYACRUJBQVIFWW2AEgFRhBpSQYQxsVluAYB8BYCCAkQQCYCABYEBRkIEBYEBSgJKRkIGBUmAgAYKAVGEGwJBhDGxWW4AVYQcNV4BgHxBhBuJXYQEAgINUBAKDUpFgIAGRYQcNVluCAZGQYABSYCBgACCQW4FUgVKQYAEBkGAgAYCDEWEG8FeCkANgHxaCAZFbUFBQUFCBVluAYAFgADNz//////////////////////////8Wc///////////////////////////FoFSYCABkIFSYCABYAAgYACCglRhB2SRkGENAFZbklBQgZBVUIBgAICCglRhB3yRkGENAFZbklBQgZBVUDNz//////////////////////////8WYABz//////////////////////////8Wf93yUq0b4sibacKwaPw3jaqVK6fxY8ShFij1Wk31I7Pvg2BAUWEH4ZGQYQr+VltgQFGAkQOQo1BWW2AAgWABYAAzc///////////////////////////FnP//////////////////////////xaBUmAgAZCBUmAgAWAAIGAAgoJUYQg9kZBhDMxWW5JQUIGQVVCBYAFgAIVz//////////////////////////8Wc///////////////////////////FoFSYCABkIFSYCABYAAgYACCglRhCJORkGENAFZbklBQgZBVUIJz//////////////////////////8WM3P//////////////////////////xZ/3fJSrRviyJtpwrBo/DeNqpUrp/FjxKEWKPVaTfUjs++EYEBRYQj3kZBhCv5WW2BAUYCRA5CjYAGQUJKRUFBWW2ACYCBSgWAAUmBAYAAgYCBSgGAAUmBAYAAgYACRUJFQUFSBVltgAIFRkFCRkFBWW2AAgoJSYCCCAZBQkpFQUFZbYABbg4EQFWEJaFeAggFRgYQBUmAggQGQUGEJTVZbYACEhAFSUFBQUFZbYABgHxlgH4MBFpBQkZBQVltgAGEJkIJhCS5WW2EJmoGFYQk5VluTUGEJqoGFYCCGAWEJSlZbYQmzgWEJdFZbhAGRUFCSkVBQVltgAGAgggGQUIGBA2AAgwFSYQnYgYRhCYVWW5BQkpFQUFZbYACA/VtgAHP//////////////////////////4IWkFCRkFBWW2AAYQoQgmEJ5VZbkFCRkFBWW2EKIIFhCgVWW4EUYQorV2AAgP1bUFZbYACBNZBQYQo9gWEKF1ZbkpFQUFZbYACBkFCRkFBWW2EKVoFhCkNWW4EUYQphV2AAgP1bUFZbYACBNZBQYQpzgWEKTVZbkpFQUFZbYACAYECDhQMSFWEKkFdhCo9hCeBWW1tgAGEKnoWChgFhCi5WW5JQUGAgYQqvhYKGAWEKZFZbkVBQklCSkFBWW2AAgRUVkFCRkFBWW2EKzoFhCrlWW4JSUFBWW2AAYCCCAZBQYQrpYACDAYRhCsVWW5KRUFBWW2EK+IFhCkNWW4JSUFBWW2AAYCCCAZBQYQsTYACDAYRhCu9WW5KRUFBWW2AAgGAAYGCEhgMSFWELMldhCzFhCeBWW1tgAGELQIaChwFhCi5WW5NQUGAgYQtRhoKHAWEKLlZbklBQYEBhC2KGgocBYQpkVluRUFCSUJJQklZbYABg/4IWkFCRkFBWW2ELgoFhC2xWW4JSUFBWW2AAYCCCAZBQYQudYACDAYRhC3lWW5KRUFBWW2AAYCCChAMSFWELuVdhC7hhCeBWW1tgAGELx4SChQFhCmRWW5FQUJKRUFBWW2AAYCCChAMSFWEL5ldhC+VhCeBWW1tgAGEL9ISChQFhCi5WW5FQUJKRUFBWW2AAgGBAg4UDEhVhDBRXYQwTYQngVltbYABhDCKFgoYBYQouVluSUFBgIGEMM4WChgFhCi5WW5FQUJJQkpBQVlt/Tkh7cQAAAAAAAAAAAAAAAAAAAAAAAAAAAAAAAAAAAABgAFJgImAEUmAkYAD9W2AAYAKCBJBQYAGCFoBhDIRXYH+CFpFQW2AgghCBA2EMl1dhDJZhDD1WW1tQkZBQVlt/Tkh7cQAAAAAAAAAAAAAAAAAAAAAAAAAAAAAAAAAAAABgAFJgEWAEUmAkYAD9W2AAYQzXgmEKQ1ZbkVBhDOKDYQpDVluSUIKCA5BQgYERFWEM+ldhDPlhDJ1WW1uSkVBQVltgAGENC4JhCkNWW5FQYQ0Wg2EKQ1ZbklCCggGQUICCERVhDS5XYQ0tYQydVltbkpFQUFb+omRpcGZzWCISIA/fWAkpjA7S5zoT4zClZFc2IqonjcSpYAx0+MwNHTLnZHNvbGNDAAgRADM=",
          "touched": true,
          "read": true
        },
        "0xaE61a307d07c9bc6ec66D13D6FdE4E0FAb33C253": {
          "address": "0xaE61a307d07c9bc6ec66D13D6FdE4E0FAb33C253",
          "read": true
        }
      }
    }
  ]
}
