{
  "accountTrie": {
    "14f835ecc07dd3654ea3c3c0dff208148831b52a521b33a5e5e304dfd77492eb": "f85180808080808080a019639ee978c98f87cd6efdc77ca88ca4c6c2585b23500d89a6f3ed361d0e178aa0d6e7baf9ad6b04dff3a25f53357482c94918662b5267635373129b88ba77616f8080808080808080",
    "19639ee978c98f87cd6efdc77ca88ca4c6c2585b23500d89a6f3ed361d0e178a": "f870a020b2adcfe18406ff7246f44d41408f7bc77391a1928be4fdde6b51a6c9c543f5b84df84b808718de76816d8000a056e81f171bcc55a6ff8345e692c0f86e5b48e01b996cadc001622fb5e363b421a0c5d2460186f7233c927e7db2dcc703c0e500b653ca82273b7bfad8045d85a470",
    "5280c3cb76e459bf129f21f70f6e0426978d8db2004acf0f323c8659bf65af7a": "f873a02080c7b7ae81a58eb98d9c78de4a1fd7fd9535fc953ed2be602daaa41767312ab850f84e808ad3c21bd1382c920ae082a056e81f171bcc55a6ff8345e692c0f86e5b48e01b996cadc001622fb5e363b421a0c5d2460186f7233c927e7db2dcc703c0e500b653ca82273b7bfad8045d85a470",
    "53da8ac7d9f88fb2b4e149ed9bbdb3752d2bc1f8bfb1af0c64d3c468083e07a2": "f85180a031d1eb10fdf37ef90417d463e9e3d1dad5bab6a3e8b38ccc4eaa744250317457808080a095e7b9bc447b2b16bf10c9c5be7ec17d3925baa61cd433e6e262fae3d33ecfd18080808080808080808080",
    "5c4f8e643ff3eeafb72e403bf4d0a39e577aa19fe9839594b4d0e1290c6b2ac8": "f8749f3eec2b84f0ba344fd4b4d2f022469febe7a772c4789acfc119eb558ab1da3db852f8500c8c033b2e3c9f5fa682ca2af144a056e81f171bcc55a6ff8345e692c0f86e5b48e01b996cadc001622fb5e363b421a0c5d2460186f7233c927e7db2dcc703c0e500b653ca82273b7bfad8045d85a470",
    "7c76fca15e14b9497481153ec6ce174197aed052f30c41b556d36c1ca2d36f02": "f873a020ca76189ff60bcdc5825b851694620aaf3c0c2f0c2a6f7af72b44093ef83d21b850f84e808ad3c21bcecceda1000000a056e81f171bcc55a6ff8345e692c0f86e5b48e01b996cadc001622fb5e363b421a0c5d2460186f7233c927e7db2dcc703c0e500b653ca82273b7bfad8045d85a470",
    "844f400e1a29024ea4f5f341870585ea31d53c74e07586e943e1081aa716eb94": "f901d1a014f835ecc07dd3654ea3c3c0dff208148831b52a521b33a5e5e304dfd77492eb80a056bc46c2638a979e6d0d4cc9e468643f00ccfceb0ab3c785b632b3e79a12ddb2a0d379709dd7f28dcd01c9f7dad8b806aa54f8133adf378a7335aba34dc462cbcda082f0966ef8ab01281c51d08632c9904833a1cd83f7a3b88d8b1b6f64702e1520a0986186940061fdec0bbb3f157f2e4da7c8ff0571cb027bc7c8504b8495317c2ca055fb730a81af8615add1b4fb896303b1efd995f6da3da6dbb5022f05f150d5aba09e54942e5cbab33b4ec4216f6eeaf22c427135da3ee41438bcc4e7de07ffeee0a0364969fa64ed1edef177b8a87bbe20e26615582bf935df361abf64c0b7e2b589a0e6e82a109ac4e5daed8f76043d8393d0298472e0518ff96a48b8492e479881fba053da8ac7d9f88fb2b4e149ed9bbdb3752d2bc1f8bfb1af0c64d3c468083e07a2a0641172028033391973b95cc84af3b17df365c017f41cc4593e4c201102a5a53da0e086c4db2fb20d0509e45cc93d81ebbb34392390d03ca817c15d77896cc23f7180a08333762fcaf7193e048ab228010951a924224adf67ad901b5e98441becfcbbd7a0b1a1bc9514be10d7a98c0693512e4b701ce1e1c08ce0913475c3a1e37a8bae2980",
    "95e7b9bc447b2b16bf10c9c5be7ec17d3925baa61cd433e6e262fae3d33ecfd1": "f85180a05c4f8e643ff3eeafb72e403bf4d0a39e577aa19fe9839594b4d0e1290c6b2ac880808080808080808080a0b352e4c72d853473be5eac69cf10adfdc61a3747ec26a4b424f0a29292fc1d3780808080",
    "986186940061fdec0bbb3f157f2e4da7c8ff0571cb027bc7c8504b8495317c2c": "f871a07c76fca15e14b9497481153ec6ce174197aed052f30c41b556d36c1ca2d36f028080a05280c3cb76e459bf129f21f70f6e0426978d8db2004acf0f323c8659bf65af7a80a03a6ab9252d625ee34450f5f40ef8aeaf895aedcd7be4a964969ea65a145d7a288080808080808080808080"
  },
  "storageTrie": null,
  "parentStateRoot": "0x844f400e1a29024ea4f5f341870585ea31d53c74e07586e943e1081aa716eb94",
  "transactionTraces": [
    {
      "txn": "0xf86c0c84b6c56b7282520894deadbeefdeadbeefdeadbeefdeadbeefdeadbeef87038d7ea4c6800080820fc6a025e483ca33d5ba2fecdea4d812c6c12a401c41274b826a271ab474a46e51e171a055398ea951de01d27251a446a621206299495debc801ff444bd98c6dd5ee9541",
      "delta": {
        "0x0000000000000000000000000000000000000000": {
          "address": "0x0000000000000000000000000000000000000000",
          "read": true
        },
        "0x72EE67708F8C3e02B3cf4850C402Cc2421Ceb2a3": {
          "address": "0x72EE67708F8C3e02B3cf4850C402Cc2421Ceb2a3",
          "read": true
        },
        "0x85dA99c8a7C2C95964c8EfD687E95E632Fc533D6": {
          "address": "0x85dA99c8a7C2C95964c8EfD687E95E632Fc533D6",
          "nonce": 13,
          "read": true
        },
        "0xDeaDbeefdEAdbeefdEadbEEFdeadbeEFdEaDbeeF": {
          "address": "0xDeaDbeefdEAdbeefdEadbEEFdeadbeEFdEaDbeeF",
          "touched": true,
          "read": true
        }
      }
    },
    {
      "txn": "0xf86c0d84b6c56b7282520894deadbeefdeadbeefdeadbeefdeadbeefdeadbeef87038d7ea4c6800080820fc5a0ee5bcacff03a765e8ca24a64f2379a2c00ccc2c855ca8d7fe321f95ad300ae74a003775bf5ecc9aee2bf4dd94bd1e19471be09b2f0e8704084757210db7c24fd9a",
      "delta": {
        "0x0000000000000000000000000000000000000000": {
          "address": "0x0000000000000000000000000000000000000000",
          "read": true
        },
        "0x72EE67708F8C3e02B3cf4850C402Cc2421Ceb2a3": {
          "address": "0x72EE67708F8C3e02B3cf4850C402Cc2421Ceb2a3",
          "read": true
        },
        "0x85dA99c8a7C2C95964c8EfD687E95E632Fc533D6": {
          "address": "0x85dA99c8a7C2C95964c8EfD687E95E632Fc533D6",
          "nonce": 14,
          "read": true
        },
        "0xDeaDbeefdEAdbeefdEadbEEFdeadbeEFdEaDbeeF": {
          "address": "0xDeaDbeefdEAdbeefdEadbEEFdeadbeEFdEaDbeeF",
          "touched": true,
          "read": true
        }
      }
    },
    {
      "txn": "0xf86c0e84b6c56b7282520894deadbeefdeadbeefdeadbeefdeadbeefdeadbeef87038d7ea4c6800080820fc5a073f18c4bbbd4953b540a3d81c6f3d8b9a3f1edc238cf567b334ccd81327d1568a005990d0ac325f95b0855a7309b453441a0facbeb729094255f9a38605011e908",
      "delta": {
        "0x0000000000000000000000000000000000000000": {
          "address": "0x0000000000000000000000000000000000000000",
          "read": true
        },
        "0x72EE67708F8C3e02B3cf4850C402Cc2421Ceb2a3": {
          "address": "0x72EE67708F8C3e02B3cf4850C402Cc2421Ceb2a3",
          "read": true
        },
        "0x85dA99c8a7C2C95964c8EfD687E95E632Fc533D6": {
          "address": "0x85dA99c8a7C2C95964c8EfD687E95E632Fc533D6",
          "nonce": 15,
          "read": true
        },
        "0xDeaDbeefdEAdbeefdEadbEEFdeadbeEFdEaDbeeF": {
          "address": "0xDeaDbeefdEAdbeefdEadbEEFdeadbeEFdEaDbeeF",
          "touched": true,
          "read": true
        }
      }
    },
    {
      "txn": "0xf86c0f84b6c56b7282520894deadbeefdeadbeefdeadbeefdeadbeefdeadbeef87038d7ea4c6800080820fc5a027c4a7123c868df8db8dbabc24534f58d29d2cc2f431b359520733dd131ba964a07852fc00f48074fe7786c90b111382bdba236f759d65dce4bbe29534941e6837",
      "delta": {
        "0x0000000000000000000000000000000000000000": {
          "address": "0x0000000000000000000000000000000000000000",
          "read": true
        },
        "0x72EE67708F8C3e02B3cf4850C402Cc2421Ceb2a3": {
          "address": "0x72EE67708F8C3e02B3cf4850C402Cc2421Ceb2a3",
          "read": true
        },
        "0x85dA99c8a7C2C95964c8EfD687E95E632Fc533D6": {
          "address": "0x85dA99c8a7C2C95964c8EfD687E95E632Fc533D6",
          "nonce": 16,
          "read": true
        },
        "0xDeaDbeefdEAdbeefdEadbEEFdeadbeEFdEaDbeeF": {
          "address": "0xDeaDbeefdEAdbeefdEadbEEFdeadbeEFdEaDbeeF",
          "touched": true,
          "read": true
        }
      }
    },
    {
      "txn": "0xf86c1084b6c56b7282520894deadbeefdeadbeefdeadbeefdeadbeefdeadbeef87038d7ea4c6800080820fc6a0978bc533532df7b9e068202feef7c31dfdccb3ba96eac6c398fd1e14f8302d48a06c70d460bf8c725e8fe2f8628ef0ab10da43b8382ddd4a9fd9552e1fe1f85639",
      "delta": {
        "0x0000000000000000000000000000000000000000": {
          "address": "0x0000000000000000000000000000000000000000",
          "read": true
        },
        "0x72EE67708F8C3e02B3cf4850C402Cc2421Ceb2a3": {
          "address": "0x72EE67708F8C3e02B3cf4850C402Cc2421Ceb2a3",
          "read": true
        },
        "0x85dA99c8a7C2C95964c8EfD687E95E632Fc533D6": {
          "address": "0x85dA99c8a7C2C95964c8EfD687E95E632Fc533D6",
          "nonce": 17,
          "read": true
        },
        "0xDeaDbeefdEAdbeefdEadbEEFdeadbeEFdEaDbeeF": {
          "address": "0xDeaDbeefdEAdbeefdEadbEEFdeadbeEFdEaDbeeF",
          "touched": true,
          "read": true
        }
      }
    },
    {
      "txn": "0xf86c1184b6c56b7282520894deadbeefdeadbeefdeadbeefdeadbeefdeadbeef87038d7ea4c6800080820fc6a0a862f95c7c22e6883bec8261fe3c699ef6408c8fb9ebf230aa354db4592e0d42a00b190f32fb21e62da635c469ae639539d34c6aa5f296a4448391fb107f448428",
      "delta": {
        "0x0000000000000000000000000000000000000000": {
          "address": "0x0000000000000000000000000000000000000000",
          "read": true
        },
        "0x72EE67708F8C3e02B3cf4850C402Cc2421Ceb2a3": {
          "address": "0x72EE67708F8C3e02B3cf4850C402Cc2421Ceb2a3",
          "read": true
        },
        "0x85dA99c8a7C2C95964c8EfD687E95E632Fc533D6": {
          "address": "0x85dA99c8a7C2C95964c8EfD687E95E632Fc533D6",
          "nonce": 18,
          "read": true
        },
        "0xDeaDbeefdEAdbeefdEadbEEFdeadbeEFdEaDbeeF": {
          "address": "0xDeaDbeefdEAdbeefdEadbEEFdeadbeEFdEaDbeeF",
          "touched": true,
          "read": true
        }
      }
    },
    {
      "txn": "0xf86c1284b6c56b7282520894deadbeefdeadbeefdeadbeefdeadbeefdeadbeef87038d7ea4c6800080820fc5a04d2d1b12615c04d23901c399cb6322d305fe5a1c18a1d8853cf8298947a6ebaba030d09c38bfedbe2af6230bbf81fa3eebc0eab65252b75cbb121c03af334c34ee",
      "delta": {
        "0x0000000000000000000000000000000000000000": {
          "address": "0x0000000000000000000000000000000000000000",
          "read": true
        },
        "0x72EE67708F8C3e02B3cf4850C402Cc2421Ceb2a3": {
          "address": "0x72EE67708F8C3e02B3cf4850C402Cc2421Ceb2a3",
          "read": true
        },
        "0x85dA99c8a7C2C95964c8EfD687E95E632Fc533D6": {
          "address": "0x85dA99c8a7C2C95964c8EfD687E95E632Fc533D6",
          "nonce": 19,
          "read": true
        },
        "0xDeaDbeefdEAdbeefdEadbEEFdeadbeEFdEaDbeeF": {
          "address": "0xDeaDbeefdEAdbeefdEadbEEFdeadbeEFdEaDbeeF",
          "touched": true,
          "read": true
        }
      }
    },
    {
      "txn": "0xf86c1384b6c56b7282520894deadbeefdeadbeefdeadbeefdeadbeefdeadbeef87038d7ea4c6800080820fc5a00b19311866b228100bfa42c403f1573c8063fe0e02299046fd2123c6291496e9a069ef622aac8ba74964c9c437d169ff4e6c14732b6f4af13a38b1a56199f56b30",
      "delta": {
        "0x0000000000000000000000000000000000000000": {
          "address": "0x0000000000000000000000000000000000000000",
          "read": true
        },
        "0x72EE67708F8C3e02B3cf4850C402Cc2421Ceb2a3": {
          "address": "0x72EE67708F8C3e02B3cf4850C402Cc2421Ceb2a3",
          "read": true
        },
        "0x85dA99c8a7C2C95964c8EfD687E95E632Fc533D6": {
          "address": "0x85dA99c8a7C2C95964c8EfD687E95E632Fc533D6",
          "nonce": 20,
          "read": true
        },
        "0xDeaDbeefdEAdbeefdEadbEEFdeadbeEFdEaDbeeF": {
          "address": "0xDeaDbeefdEAdbeefdEadbEEFdeadbeEFdEaDbeeF",
          "touched": true,
          "read": true
        }
      }
    }
  ]
}
