{
  "accountTrie": {
    "221c3e16c0d8ec81ca0b36c64b4a9f779d40ab69f70e0e4a862dd95bbd4cac96": "f873a02080c7b7ae81a58eb98d9c78de4a1fd7fd9535fc953ed2be602daaa41767312ab850f84e808ad3c21bd135e1a4a0b372a056e81f171bcc55a6ff8345e692c0f86e5b48e01b996cadc001622fb5e363b421a0c5d2460186f7233c927e7db2dcc703c0e500b653ca82273b7bfad8045d85a470",
    "41a0642a35274d29a6a608572c714a50699d89e93b5ebdf52799c7d0ec60f18f": "f8749f3eec2b84f0ba344fd4b4d2f022469febe7a772c4789acfc119eb558ab1da3db852f850068c033b2e3c9f7656e056552ea4a056e81f171bcc55a6ff8345e692c0f86e5b48e01b996cadc001622fb5e363b421a0c5d2460186f7233c927e7db2dcc703c0e500b653ca82273b7bfad8045d85a470",
    "4daf4c99c7f17b7ebdf4277a20426733f204ccab0e6464806c2b2613aa080b96": "f85180a041a0642a35274d29a6a608572c714a50699d89e93b5ebdf52799c7d0ec60f18f80808080808080808080a0b352e4c72d853473be5eac69cf10adfdc61a3747ec26a4b424f0a29292fc1d3780808080",
    "720c54d40e5c96621b0df0983d6c63006b2ce15168bbb899f1c23600c72c72ce": "f870a020b2adcfe18406ff7246f44d41408f7bc77391a1928be4fdde6b51a6c9c543f5b84df84b8087038d7ea4c68000a056e81f171bcc55a6ff8345e692c0f86e5b48e01b996cadc001622fb5e363b421a0c5d2460186f7233c927e7db2dcc703c0e500b653ca82273b7bfad8045d85a470",
    "a02e798182a43a0a1d637660c6fb2b633d36917109ee3d2f5f942b95c49bc341": "f85180808080808080a0720c54d40e5c96621b0df0983d6c63006b2ce15168bbb899f1c23600c72c72cea0d6e7baf9ad6b04dff3a25f53357482c94918662b5267635373129b88ba77616f8080808080808080",
    "a8cf6c3a0356f1b18876bf9006f824887d02a32ea6322275dba06d0d842ef0b1": "f85180a031d1eb10fdf37ef90417d463e9e3d1dad5bab6a3e8b38ccc4eaa744250317457808080a04daf4c99c7f17b7ebdf4277a20426733f204ccab0e6464806c2b2613aa080b968080808080808080808080",
    "c16f3365b896e585df45595857bd17ed97ac3e4aeea4e7c544dc87f67fbec2e9": "f873a032d99bef571219ad8b7007ff6a58b0bd81296db46821c9a73ce8861298b992aeb850f84e808ad3c21bf17a5b5b7da800a056e81f171bcc55a6ff8345e692c0f86e5b48e01b996cadc001622fb5e363b421a0c5d2460186f7233c927e7db2dcc703c0e500b653ca82273b7bfad8045d85a470",
    "df4e2cc97ce47a96a36d1847dd738cfab255575b16dd0ebaf083a8769211a704": "f871a07c76fca15e14b9497481153ec6ce174197aed052f30c41b556d36c1ca2d36f028080a0221c3e16c0d8ec81ca0b36c64b4a9f779d40ab69f70e0e4a862dd95bbd4cac9680a03a6ab9252d625ee34450f5f40ef8aeaf895aedcd7be4a964969ea65a145d7a288080808080808080808080",
    "ffe6c04bcf340bb4dfc66b30aafadc255c0a280895b89504bb384f9534f13a00": "f901d1a0a02e798182a43a0a1d637660c6fb2b633d36917109ee3d2f5f942b95c49bc34180a0c16f3365b896e585df45595857bd17ed97ac3e4aeea4e7c544dc87f67fbec2e9a0d379709dd7f28dcd01c9f7dad8b806aa54f8133adf378a7335aba34dc462cbcda003570c0eb8451a9b144d237f706c59b0596e2ac895caddad8bdfb8df300f91baa0df4e2cc97ce47a96a36d1847dd738cfab255575b16dd0ebaf083a8769211a704a055fb730a81af8615add1b4fb896303b1efd995f6da3da6dbb5022f05f150d5aba09e54942e5cbab33b4ec4216f6eeaf22c427135da3ee41438bcc4e7de07ffeee0a0364969fa64ed1edef177b8a87bbe20e26615582bf935df361abf64c0b7e2b589a0e6e82a109ac4e5daed8f76043d8393d0298472e0518ff96a48b8492e479881fba0a8cf6c3a0356f1b18876bf9006f824887d02a32ea6322275dba06d0d842ef0b1a0641172028033391973b95cc84af3b17df365c017f41cc4593e4c201102a5a53da0e086c4db2fb20d0509e45cc93d81ebbb34392390d03ca817c15d77896cc23f7180a08333762fcaf7193e048ab228010951a924224adf67ad901b5e98441becfcbbd7a0b1a1bc9514be10d7a98c0693512e4b701ce1e1c08ce0913475c3a1e37a8bae2980"
  },
  "storageTrie": null,
  "parentStateRoot": "0xffe6c04bcf340bb4dfc66b30aafadc255c0a280895b89504bb384f9534f13a00",
  "transactionTraces": [
    {
      "txn": "0xf86c0684b6c56b7282520894deadbeefdeadbeefdeadbeefdeadbeefdeadbeef87038d7ea4c6800080820fc5a0ecbb467f8c6a01ce9caf1cc39a6276cac6751f5dcd044beabba9198a9d82bbe4a00b7002b89f70c309ca9657dfa7bcb7b59628f31ef02d33d42854c9ea282fa2cd",
      "delta": {
        "0x0000000000000000000000000000000000000000": {
          "address": "0x0000000000000000000000000000000000000000",
          "read": true
        },
        "0x85dA99c8a7C2C95964c8EfD687E95E632Fc533D6": {
          "address": "0x85dA99c8a7C2C95964c8EfD687E95E632Fc533D6",
          "nonce": 7,
          "read": true
        },
        "0xDeaDbeefdEAdbeefdEadbEEFdeadbeEFdEaDbeeF": {
          "address": "0xDeaDbeefdEAdbeefdEadbEEFdeadbeEFdEaDbeeF",
          "touched": true,
          "read": true
        },
        "0xaE61a307d07c9bc6ec66D13D6FdE4E0FAb33C253": {
          "address": "0xaE61a307d07c9bc6ec66D13D6FdE4E0FAb33C253",
          "read": true
        }
      }
    },
    {
      "txn": "0xf86c0784b6c56b7282520894deadbeefdeadbeefdeadbeefdeadbeefdeadbeef87038d7ea4c6800080820fc6a0b05d86e52211c2c54fb2dc9a9791ffc87f7c5255ec242c5d7c646dcdffa15091a07ad803bd1d75d70cbb0d5b7a0cd32162654229cececba1f8165a7c275b4d81d9",
      "delta": {
        "0x0000000000000000000000000000000000000000": {
          "address": "0x0000000000000000000000000000000000000000",
          "read": true
        },
        "0x85dA99c8a7C2C95964c8EfD687E95E632Fc533D6": {
          "address": "0x85dA99c8a7C2C95964c8EfD687E95E632Fc533D6",
          "nonce": 8,
          "read": true
        },
        "0xDeaDbeefdEAdbeefdEadbEEFdeadbeEFdEaDbeeF": {
          "address": "0xDeaDbeefdEAdbeefdEadbEEFdeadbeEFdEaDbeeF",
          "touched": true,
          "read": true
        },
        "0xaE61a307d07c9bc6ec66D13D6FdE4E0FAb33C253": {
          "address": "0xaE61a307d07c9bc6ec66D13D6FdE4E0FAb33C253",
          "read": true
        }
      }
    }
  ]
}
