{
  "accountTrie": {
    "3b4e114e3865dd9a3295cee8f0e7dad940b0e5e3f3b96392b8eb503c9fd80cdc": "f901f1a0311e1c63c695b718b0d47258d9066227d956f499ef8930d57419f9fe3da8beef80a0b11a4068d18c4211f748c7c8c78d851450a89c85cb82c60f63851b7831775287a0d379709dd7f28dcd01c9f7dad8b806aa54f8133adf378a7335aba34dc462cbcda08e3fe96df7ece93130026230c33d2b565ff2e4c1c2c8c1447e0787425247484aa070db3c423fbc773c014cc64523521bb5e3d71a0f7157f9ade855a7a314288f8ea055fb730a81af8615add1b4fb896303b1efd995f6da3da6dbb5022f05f150d5aba0bcbda9f9391f238c05945e180f63aca04b5c087b61e9bc5651f634c1fb03b6b2a0364969fa64ed1edef177b8a87bbe20e26615582bf935df361abf64c0b7e2b589a0e6e82a109ac4e5daed8f76043d8393d0298472e0518ff96a48b8492e479881fba0fcba5cb9df423cc45269138b66f8675821f9fff8dc50ec5f6ea312d144976a47a0fdfdc0f4a18550facc0b3266fd35dcda6fc51d2191ed7856662b122c523573cba0e086c4db2fb20d0509e45cc93d81ebbb34392390d03ca817c15d77896cc23f71a0c8039f867576d6e567aa64b1d5bd865a7ff4bd154e4cec391c5384508fa190f7a08333762fcaf7193e048ab228010951a924224adf67ad901b5e98441becfcbbd7a0e703bc64601f102c89523f6197da1dcbefdc0587df5779b0724251a46760e52580",
    "55fb730a81af8615add1b4fb896303b1efd995f6da3da6dbb5022f05f150d5ab": "f85180808080808080808080a0065b9e6a7cd70587ca03f8c24da900f82d57f5ebe0fe69e41c3735b3c7086d1880808080a0bb0698acc00704ffa43bd94da69aeff25aa86f3d62a959a7c9bb782c50c09b4380",
    "64533cbdd3d4c06b167e775ff32e717f4c45099954173a35cf0f08a95b22d44b": "f85180a084412320508bcb02829504ac7f153449532c3c0f5f18baaedbf0902641d38f5d80808080808080808080a0b352e4c72d853473be5eac69cf10adfdc61a3747ec26a4b424f0a29292fc1d3780808080",
    "68f164a6969ed72fde51bfb895ac36ba1f6dda187d85deb11ed1a2408268b54c": "f873a02059c241d99ff19d6781feaf10eafba6d43f87543a75316fe0ae22a76eec0361b850f84e808ad3c21de33178d9324ca6a056e81f171bcc55a6ff8345e692c0f86e5b48e01b996cadc001622fb5e363b421a0c5d2460186f7233c927e7db2dcc703c0e500b653ca82273b7bfad8045d85a470",
    "70db3c423fbc773c014cc64523521bb5e3d71a0f7157f9ade855a7a314288f8e": "f871a06688a62eaffcabc9e0d1f9c51e8db5ccca187a14282abde749ca656fca1a541e8080a0c954b270877d90ee84160af45dc0c7e6cf45c4ffda76f13fda2a495c802f06a880a03a6ab9252d625ee34450f5f40ef8aeaf895aedcd7be4a964969ea65a145d7a288080808080808080808080",
    "84412320508bcb02829504ac7f153449532c3c0f5f18baaedbf0902641d38f5d": "f8769f3eec2b84f0ba344fd4b4d2f022469febe7a772c4789acfc119eb558ab1da3db854f8528213258c033b2e3c608d9c6f219f59f5a056e81f171bcc55a6ff8345e692c0f86e5b48e01b996cadc001622fb5e363b421a0c5d2460186f7233c927e7db2dcc703c0e500b653ca82273b7bfad8045d85a470",
    "b11a4068d18c4211f748c7c8c78d851450a89c85cb82c60f63851b7831775287": "f8518080a0d77441a77f588d67db0c720b1c895a97d4a079c44b7d1cdfe7b23899fcb78f1d808080808080a01808e90ca9a327cb0d716961c0065e8639a2715416b7c91fd27096403102c78c80808080808080",
    "c954b270877d90ee84160af45dc0c7e6cf45c4ffda76f13fda2a495c802f06a8": "f873a02080c7b7ae81a58eb98d9c78de4a1fd7fd9535fc953ed2be602daaa41767312ab850f84e808ad3c21bd1baa368ee3b12a056e81f171bcc55a6ff8345e692c0f86e5b48e01b996cadc001622fb5e363b421a0c5d2460186f7233c927e7db2dcc703c0e500b653ca82273b7bfad8045d85a470",
    "cc912e4f7e6a66761845f1144c404c59867d6b99f2590f0ea8cfd101e7024824": "f869a02058c2c1ac06ad29eab5b631a2a76f7997030f5468deb7f384eb6e276208d046b846f8440180a056e81f171bcc55a6ff8345e692c0f86e5b48e01b996cadc001622fb5e363b421a0ed677cb1cce5890694d26042b2f3cc6f7a46d81a07cc27aff7b7ad8c955796e1",
    "e086c4db2fb20d0509e45cc93d81ebbb34392390d03ca817c15d77896cc23f71": "f8518080808080a0cc912e4f7e6a66761845f1144c404c59867d6b99f2590f0ea8cfd101e70248248080a02b552522c790b0433d466408318c5c61bfa7e2dbb9c2e13bfec3d1d51290addd8080808080808080",
    "e703bc64601f102c89523f6197da1dcbefdc0587df5779b0724251a46760e525": "f871808080a082df813457d4783f4c7004117481a40efa3d3de29473f7084dd2fa81a82b4d4fa068f164a6969ed72fde51bfb895ac36ba1f6dda187d85deb11ed1a2408268b54c80808080808080808080a0947517eccb603bcfa8b71d01a4376e00ceeb0e0d5b6c570c87eb982f5329d7fe80",
    "fcba5cb9df423cc45269138b66f8675821f9fff8dc50ec5f6ea312d144976a47": "f87180a031d1eb10fdf37ef90417d463e9e3d1dad5bab6a3e8b38ccc4eaa744250317457808080a064533cbdd3d4c06b167e775ff32e717f4c45099954173a35cf0f08a95b22d44b808080808080808080a0e40de48c8ff5b6ab2bf4cbd8ccb4cdb7d7d1b9050021438f95ce36280dfee5f080"
  },
  "storageTrie": null,
  "parentStateRoot": "0x3b4e114e3865dd9a3295cee8f0e7dad940b0e5e3f3b96392b8eb503c9fd80cdc",
  "transactionTraces": [
    {
      "txn": "0x02f8d48207d182132584b2d05e0084b2d05e0e830aef41946fda56c57b0acadb96ed5624ac500c0429d5942980b864ce1b193a00000000000000000000000000000000000000000000000000000000000000010000000000000000000000000000000000000000000000000000000000000001000000000000000000000000000000000000000000000000000000000000ffefc001a02475f996baff079ce81921f252fc5310e7104aeb1bb44c60db98d8f6be6a2464a00dac430cfe19d5ebf5495c098f8f43392643f5db955072ba14cd2df9c03791b1",
      "delta": {
        "0x0000000000000000000000000000000000000000": {
          "address": "0x0000000000000000000000000000000000000000",
          "read": true
        },
        "0x6FdA56C57B0Acadb96Ed5624aC500C0429d59429": {
          "address": "0x6FdA56C57B0Acadb96Ed5624aC500C0429d59429",
          "nonce": 3,
          "storage": {
            "0x0000000000000000000000000000000000000000000000000000000000000000": "0x000000000000000000000000000000000000000000000000000000007aae88dc",
            "0x0000000000000000000000000000000000000000000000000000000000000002": "0x0000000000000000000000000000000000000000000000000000000000000000",
            "0x0000000000000000000000000000000000000000000000000000000000000003": "0x0000000000000000000000000000000000000000000000000000000000000000",
            "0x405787fa12a823e0f2b7631cc41b3ba8828b3321ca811111fa75cd3aa3bb5ace": "0x0000000000000000000000000000000000000000000000000000000000000000",
            "0xcc69885fda6bcc1a4ace058b4a62bf5e179ea78fd58a1ccd71c22cc9b688792f": "0x6bc651f45d3b9f9fb9b7f9ef51077e67ef3f94de3e9069afaa77f50a521cd673"
          },
          "storage_read": {
            "0x0000000000000000000000000000000000000000000000000000000000000000": {},
            "0x0000000000000000000000000000000000000000000000000000000000000002": {},
            "0x0000000000000000000000000000000000000000000000000000000000000003": {},
            "0x405787fa12a823e0f2b7631cc41b3ba8828b3321ca811111fa75cd3aa3bb5ace": {},
            "0xcc69885fda6bcc1a4ace058b4a62bf5e179ea78fd58a1ccd71c22cc9b688792f": {}
          },
          "code_read": "YIBgQFJgBDYQYQDdV2AANWDgHIBjdj78CBFhAH9XgGOyrNUJEWEAWVeAY7Ks1QkUYQIfV4BjyqJgMhRhAj9XgGPOGxk6FGECbFeAY+yLRmoUYQJ/V2AAgP1bgGN2PvwIFGEB1VeAY32UeSoUYQHqV4BjrpjbLxRhAgpXYACA/VuAY0ILfa4RYQC7V4BjQgt9rhRhAU9XgGNISfJ5FGEBfleAY0nT1gUUYQGrV4BjV/wQoxRhAcBXYACA/VuAYwMTv4YUYQDiV4BjFFsFYxRhAQ1XgGMxSPFPFGEBL1dbYACA/Vs0gBVhAO5XYACA/VtQYQD3YAKBVltgQFFhAQSRkGEcOFZbYEBRgJEDkPNbNIAVYQEZV2AAgP1bUGEBImECn1ZbYEBRYQEEkZBhHFtWWzSAFWEBO1dgAID9W1BhAPdhAUo2YARhHIRWW2EC+1ZbNIAVYQFbV2AAgP1bUGEA92EBajZgBGEc1FZbYAFgIFKAYABSYEBgACBUkFCBVls0gBVhAYpXYACA/VtQYQGeYQGZNmAEYRz9VlthA0lWW2BAUWEBBJGQYR2pVls0gBVhAbdXYACA/VtQYQD3YASBVls0gBVhAcxXYACA/VtQYQD3YAiBVls0gBVhAeFXYACA/VtQYQD3YAGBVls0gBVhAfZXYACA/VtQYABUYQEikGABYAFgQBsDFoFWWzSAFWECFldgAID9W1BhAPdgEIFWWzSAFWECK1dgAID9W1BhAPdhAjo2YARhHrRWW2EDklZbNIAVYQJLV2AAgP1bUGECX2ECWjZgBGEetFZbYQPSVltgQFFhAQSRkGEfSlZbYQD3YQJ6NmAEYR+TVlthBDtWWzSAFWECi1dgAID9W1BhAZ5hApo2YARhHIRWW2Ebj1ZbYACAVGOAAAAAkGECwJBgAWABYEAbAxZjQcZObWEf3lZbYQLMkGEwOWEgBFZbYQLWkZBhID1WW2AAgFRn//////////8ZFmABYAFgQBsDkpCSFpGCF5BVkZBQVltgAGBAUWAggVJgIICCAVJgIGBAggFShGBgggFSg2CAggFSgmCgggFSYMBRYCCBYMCEYABgBWAAGfFhAz1XYACA/VuAUZaVUFBQUFBQVlthA1FhG9BWW2EDWWEb61ZbhYFSYCCBAYWQUmBAgIIBhZBSYGCCAYSQUoJggINgAGAGWvGAgGEDh1dgAID9W1BQUJSTUFBQUFZbYACAglGQUGEDpGDAgmEgalZbFWEDrldgAID9W2BAUWAggYNgIIcBYABgCFrxgIAVYQDdV4JRlpVQUFBQUFBWW2BgYACCUWABYAFgQBsDgREVYQPvV2ED72Edt1ZbYEBRgYFSYB8ZYB+DARaBAWAgAWBAUpCAFWEEGVdgIIIBgYA2gzcBkFBbUJBQglGAYCCDAYJgIIcBYABgBFrxYQQ0V/5bUJKRUFBWW2AAgFRn//////////8ZFmABYAFgQBsDhRYXgVV/w9BhFFxngKp1sVcYcb3W+ZNyxgQ08z2K+lQJ71xyYzqEYEBRYQSGkZBhHFtWW2BAUYCRA5ChYACAYACAYACAYACAYABgQFFgQFGAkQOQoGAAW4xj/////xaBY/////8WEBVhGp5XYQTGYQKfVltgAWABYEAbAxaZUGEE2WECn1ZbYAFgAWBAGwMWmFBhBO6Ji2EgclZbYEBRYCABYQT+kZBhII5WW2BAUWAggYMDA4FSkGBAUoBRkGAgASCVUGEFHmECn1ZbYAFgAWBAGwMWmVBhBTFhAp9WW2ABYAFgQBsDFphQhWEFR4qMYSCjVltgQFFgIAFhBViSkZBhILtWW2BAUWAggYMDA4FSkGBAUoBRkGAgASCVUGEFeGECn1ZbYAFgAWBAGwMWmVBhBYthAp9WW2ABYAFgQBsDFphQhYmLA2BAUWAgAWEFq5KRkGEgu1ZbYEBRYCCBgwMDgVKQYEBSgFGQYCABIJVQWZlQhYpgQFFgIAFhBdmSkZBhILtWW2BAUWAggYMDA4FSkGBAUoBRkGAgASCVUDiZUIWKYEBRYCABYQYHkpGQYSC7VltgQFFgIIGDAwOBUpBgQFKAUZBgIAEglVBhBidhAp9WW2ABYAFgQBsDFplQYQY6YQKfVltgAWABYEAbAxaYUIVhBlCKjGEg4VZbYEBRYCABYQZhkpGQYSC7VltgQFFgIIGDAwOBUpBgQFKAUZBgIAEglVBhBoFhAp9WW2ABYAFgQBsDFplQYQaUYQKfVltgAWABYEAbAxaYUIVhBqyKYAAZYSD1VlthBraQjGEhJlZbYEBRYCABYQbHkpGQYSC7VltgQFFgIIGDAwOBUpBgQFKAUZBgIAEglVBhBudhAp9WW2ABYAFgQBsDFplQYQb6YQKfVltgAWABYEAbAxaYUIVhBxCKjGEgalZbYEBRYCABYQchkpGQYSC7VltgQFFgIIGDAwOBUpBgQFKAUZBgIAEglVBhB0FhAp9WW2ABYAFgQBsDFplQYQdUYQKfVltgAWABYEAbAxaYUIVhB2yKYAAZYSD1VlthB3aQjGEhVFZbYEBRYCABYQeHkpGQYSC7VltgQFFgIIGDAwOBUpBgQFKAUZBgIAEglVBhB6dhAp9WW2ABYAFgQBsDFplQYQe6YQKfVltgAWABYEAbAxaYUGEHzWECn1ZbYAFgAWBAGwMWl1CFiIBhB+dXYQfnYSAnVluKjAhgQFFgIAFhB/uSkZBhILtWW2BAUWAggYMDA4FSkGBAUoBRkGAgASCVUGEIG2ECn1ZbYAFgAWBAGwMWmVBhCC5hAp9WW2ABYAFgQBsDFphQYQhBYQKfVltgAWABYEAbAxaXUIWIgGEIW1dhCFthICdWW4qMCWBAUWAgAWEIb5KRkGEgu1ZbYEBRYCCBgwMDgVKQYEBSgFGQYCABIJVQYQiPYQKfVltgAWABYEAbAxaZUGEIomECn1ZbYAFgAWBAGwMWmFCFiYsKYEBRYCABYQjCkpGQYSC7VltgQFFgIIGDAwOBUpBgQFKAUZBgIAEglVBhCOJhAp9WW2ABYAFgQBsDFplQhYpgAwtgQFFgIAFhCQOSkZBhILtWW2BAUWAggYMDA4FSkGBAUoBRkGAgASCVUGEJI2ECn1ZbYAFgAWBAGwMWmVBhCTZhAp9WW2ABYAFgQBsDFphQhYmLEGEJT1eJYQlRVluKW2BAUWAgAWEJYpKRkGEgu1ZbYEBRYCCBgwMDgVKQYEBSgFGQYCABIJVQYQmCYQKfVltgAWABYEAbAxaZUGEJlWECn1ZbYAFgAWBAGwMWmFCFiYsRYQmuV4lhCbBWW4pbYEBRYCABYQnBkpGQYSC7VltgQFFgIIGDAwOBUpBgQFKAUZBgIAEglVBhCeFhAp9WW2ABYAFgQBsDFplQYQn0YQKfVltgAWABYEAbAxaYUIWJixJhCg1XiWEKD1ZbiltgQFFgIAFhCiCSkZBhILtWW2BAUWAggYMDA4FSkGBAUoBRkGAgASCVUGEKQGECn1ZbYAFgAWBAGwMWmVBhClNhAp9WW2ABYAFgQBsDFphQhYmLE2EKbFeJYQpuVluKW2BAUWAgAWEKf5KRkGEgu1ZbYEBRYCCBgwMDgVKQYEBSgFGQYCABIJVQYQqfYQKfVltgAWABYEAbAxaZUGEKsmECn1ZbYAFgAWBAGwMWmFCFiYsUYQrLV4lhCs1WW4pbYEBRYCABYQrekpGQYSC7VltgQFFgIIGDAwOBUpBgQFKAUZBgIAEglVBhCv5hAp9WW2ABYAFgQBsDFplQYQsRYQKfVltgAWABYEAbAxaYUIWKFWELKVeJYQsrVluKW2BAUWAgAWELPJKRkGEgu1ZbYEBRYCCBgwMDgVKQYEBSgFGQYCABIJVQYQtcYQKfVltgAWABYEAbAxaZUGELb2ECn1ZbYAFgAWBAGwMWmFCFiYsWYEBRYCABYQuPkpGQYSC7VltgQFFgIIGDAwOBUpBgQFKAUZBgIAEglVBhC69hAp9WW2ABYAFgQBsDFplQYQvCYQKfVltgAWABYEAbAxaYUIWJixdgQFFgIAFhC+KSkZBhILtWW2BAUWAggYMDA4FSkGBAUoBRkGAgASCVUGEMAmECn1ZbYAFgAWBAGwMWmVBhDBVhAp9WW2ABYAFgQBsDFphQhYmLGGBAUWAgAWEMNZKRkGEgu1ZbYEBRYCCBgwMDgVKQYEBSgFGQYCABIJVQYQxVYQKfVltgAWABYEAbAxaZUIWKGWBAUWAgAWEMdJKRkGEgu1ZbYEBRYCCBgwMDgVKQYEBSgFGQYCABIJVQhYBgABpg+BtgQFFgIAFhDKWSkZBhIXhWW2BAUWAggYMDA4FSkGBAUoBRkGAgASCVUGEMxWECn1ZbYAFgAWBAGwMWmVCFYAGLkBtgQFFgIAFhDOeSkZBhILtWW2BAUWAggYMDA4FSkGBAUoBRkGAgASCVUGENB2ECn1ZbYAFgAWBAGwMWmVCFYAGLkBxgQFFgIAFhDSmSkZBhILtWW2BAUWAggYMDA4FSkGBAUoBRkGAgASCVUGENSWECn1ZbYAFgAWBAGwMWmVCFYAGLkB1gQFFgIAFhDWuSkZBhILtWW2BAUWAggYMDA4FSkGBAUoBRkGAgASCVUIWUUIQwYEBRYCABYQ2ZkpGQYSHXVltgQFFgIIGDAwOBUpBgQFKAUZBgIAEglVCFMIA7YCCBAWBAUZCBAWBAUoGBUmAAkIBgIAGQkzxgQFFgIAFhDeCSkZBhIiVWW2BAUWAggYMDA4FSkGBAUoBRkGAgASCVUIUwP2BAUWAgAWEODJKRkGEgu1ZbYEBRYCCBgwMDgVKQYEBSgFGQYCABIJVQhWAAMWBAUWAgAWEOOZKRkGEgu1ZbYEBRYCCBgwMDgVKQYEBSgFGQYCABIJVQhUdgQFFgIAFhDmSSkZBhILtWW2BAUWAggYMDA4FSkGBAUoBRkGAgASCVUIVaYEBRYCABYQ6PkpGQYSC7VltgQFFgIIGDAwOBUpBgQFKAUZBgIAEglVBgAYCNFgNhDwhXhTJgQFFgIAFhDsSSkZBhIddWW2BAUWAggYMDA4FSkGBAUoBRkGAgASCVUIU6YEBRYCABYQ7vkpGQYSC7VltgQFFgIIGDAwOBUpBgQFKAUZBgIAEglVBbhZNQYAEZYAKNFgFhD9NXhTNgQFFgIAFhDyqSkZBhIddWW2BAUWAggYMDA4FSkGBAUoBRkGAgASCVUIVgADZgQFFgIAFhD1iTkpGQYSJUVltgQFFgIIGDAwOBUpBgQFKAUZBgIAEglVCFYAA1YAFgAWDgGwMZFmBAUWAgAWEPj5KRkGEiilZbYEBRYCCBgwMDgVKQYEBSgFGQYCABIJVQhTRgQFFgIAFhD7qSkZBhILtWW2BAUWAggYMDA4FSkGBAUoBRkGAgASCVUFuFklBgAxlgBI0WAWERPFeFQ0BgQFFgIAFhD/aSkZBhILtWW2BAUWAggYMDA4FSkGBAUoBRkGAgASCVUIVIYEBRYCABYRAhkpGQYSC7VltgQFFgIIGDAwOBUpBgQFKAUZBgIAEglVCFRmBAUWAgAWEQTJKRkGEgu1ZbYEBRYCCBgwMDgVKQYEBSgFGQYCABIJVQhUFgQFFgIAFhEHeSkZBhIddWW2BAUWAggYMDA4FSkGBAUoBRkGAgASCVUIVEYEBRYCABYRCikpGQYSC7VltgQFFgIIGDAwOBUpBgQFKAUZBgIAEglVCFRWBAUWAgAWEQzZKRkGEgu1ZbYEBRYCCBgwMDgVKQYEBSgFGQYCABIJVQhUNgQFFgIAFhEPiSkZBhILtWW2BAUWAggYMDA4FSkGBAUoBRkGAgASCVUIVCYEBRYCABYREjkpGQYSC7VltgQFFgIIGDAwOBUpBgQFKAUZBgIAEglVBbhZFQYAcZYAiNFgFhFtpXYRFTYQKfVltgAWABYEAbAxaZUGAAYEBRYRFskGEcB1ZbYEBRgJEDkGAA8IAVgBVhEYhXPWAAgD49YAD9W1CQUGAAi2BAUWERmpBhHAdWW4GQYEBRgJEDkGAA9ZBQgBWAFWERulc9YACAPj1gAP1bUJBQgGABYAFgoBsDFmPttFUpM2BAUYJj/////xZg4BuBUmAEAWER6ZGQYSK5VltgAGBAUYCDA4FgAIeAOxWAFWESA1dgAID9W1Ba8RWAFWESF1c9YACAPj1gAP1bUFBQUIFgAWABYKAbAxZj0J3gimBAUYFj/////xZg4BuBUmAEAWAgYEBRgIMDgWAAh1rxFYAVYRJbVz1gAIA+PWAA/VtQUFBQYEBRYB89kIEBYB8ZFoIBYEBSYRJ+kZCBAZBhItZWW5tQh4xgQFFgIAFhEpOSkZBhILtWW2BAUWAggYMDA4FSkGBAUoBRkGAgASCXUIFgAWABYKAbAxZjLvw87mBAUYFj/////xZg4BuBUmAEAWAAYEBRgIMDgWAAh4A7FYAVYRLmV2AAgP1bUFrxklBQUIAVYRL3V1BgAVthEy1XPYCAFWETJVdgQFE9YD8BYB8ZFoEBYEBSPYFSkVA9YABgIIQBPmETKlZbYGCRUFtQUFuHgmABYAFgoBsDFoA7gGAgAWBAUZCBAWBAUoGBUmAAkIBgIAGQkzxgQFFgIAFhE2WSkZBhIiVWW2BAUWAggYMDA4FSkGBAUoBRkGAgASCXUIeCYAFgAWCgGwMWP2BAUWAgAWETmpKRkGEgu1ZbYEBRYCCBgwMDgVKQYEBSgFGQYCABIJdQgWABYAFgoBsDFmHDUGBAUWAkAWBAUWAfGYGDAwGBUmBAkZCRUmNoTvBFYOEbYCCCAYBRYAFgAWDgGwMWkJEXkFJgQFFhFACRkGEi91ZbYABgQFGAgwOBYACHh/GSUFBQPYBgAIEUYRQ+V2BAUT1gPwFgHxkWgQFgQFI9gVKRUD1gAGAghAE+YRRDVltgYJFQW1BgA2AAYAJhFFSEgmEj8lZbUIFUYP9hAQCSkJIKgoECGZCRFpQVFQKTkJMXkFVQYANUiZEWYAJgQFFgIAFhFIyTkpGQYSVuVltgQFFgIIGDAwOBUpBgQFKAUZBgIAEgl1CBYAFgAWCgGwMWYcNQYEBRYCQBYEBRYB8ZgYMDAYFSYECRkJFSY2hO8EVg4RtgIIIBgFFgAWABYOAbAxaQkReQUmBAUWEU8pGQYSL3VltgAGBAUYCDA4GGhvSSUFBQPYBgAIEUYRUuV2BAUT1gPwFgHxkWgQFgQFI9gVKRUD1gAGAghAE+YRUzVltgYJFQW1BgA2AAYAJhFUSEgmEj8lZbUIFUYP9hAQCSkJIKgoECGZCRFpQVFQKTkJMXkFVQYANUiZEWYAJgQFFgIAFhFXyTkpGQYSVuVltgQFFgIIGDAwOBUpBgQFKAUZBgIAEgl1CBYAFgAWCgGwMWYcNQYEBRYCQBYEBRYB8ZgYMDAYFSYECRkJFSY2hO8EVg4RtgIIIBgFFgAWABYOAbAxaQkReQUmBAUWEV4pGQYSL3VltgAGBAUYCDA4GGhvqSUFBQPYBgAIEUYRYeV2BAUT1gPwFgHxkWgQFgQFI9gVKRUD1gAGAghAE+YRYjVltgYJFQW1BgA2AAYAJhFjSEgmEj8lZbUIFUYP9hAQCSkJIKgoECGZCRFpQVFQKTkJMXkFVQYANUiZEWYAJgQFFgIAFhFmyTkpGQYSVuVltgQFFgIIGDAwOBUpBgQFKAUZBgIAEgl1CBYAFgAWCgGwMWYwfaaPVgQFGBY/////8WYOAbgVJgBAFgAGBAUYCDA4FgAIeAOxWAFWEWv1dgAID9W1Ba8RWAFWEW01c9YACAPj1gAP1bUFBQUFBQW2AQgI0WA2EajFdhFuxhAp9WW2ABYAFgQBsDFplQYRb/YQKfVltgAWABYEAbAxaYUGEXEmECn1ZbYAFgAWBAGwMWl1BgAGABgYyMjGBAUWAAgVJgIAFgQFJgQFFhF0KUk5KRkGElo1ZbYCBgQFFgIIEDkICEA5CFWvoVgBVhF2RXPWAAgD49YAD9W1BQUGAgYEBRA1GQUIaBYEBRYCABYReDkpGQYSHXVltgQFFgIIGDAwOBUpBgQFKAUZBgIAEgllBhF6NhAp9WW2ABYAFgQBsDFppQhmACjGBAUWAgAWEXwpGQYSCOVltgQFFgIIGDAwOBUpBgQFJgQFFhF96RkGEi91ZbYCBgQFGAgwOBhVr6FYAVYRf7Vz1gAIA+PWAA/VtQUFBgQFFgHz2QgQFgHxkWggFgQFJhGB2RkIEBkGEi1lZbYEBRYCABYRgukpGQYSC7VltgQFFgIIGDAwOBUpBgQFKAUZBgIAEgllBhGE5hAp9WW2ABYAFgQBsDFppQhmADjGBAUWAgAWEYbZGQYSCOVltgQFFgIIGDAwOBUpBgQFJgQFFhGImRkGEi91ZbYCBgQFGAgwOBhVr6FYAVYRimVz1gAIA+PWAA/VtQUFBgQFFRYGAbYEBRYCABYRjBkpGQYSXtVltgQFFgIIGDAwOBUpBgQFKAUZBgIAEgllBhGOFhAp9WW2ABYAFgQBsDFppQhmEZFYxgQFFgIAFhGQGRkGEcOFZbYEBRYCCBgwMDgVKQYEBSYQPSVltgQFFgIAFhGSaSkZBhIiVWW2BAUWAggYMDA4FSkGBAUoBRkGAgASCWUGEZRmECn1ZbYAFgAWBAGwMWmlBhGVlhAp9WW2ABYAFgQBsDFplQhmEZcYxgGI1hAvtWW2BAUWAgAWEZgpKRkGEgu1ZbYEBRYCCBgwMDgVKQYEBSgFGQYCABIJZQYRmiYQKfVltgAWABYEAbAxaaUGEZtWECn1ZbYAFgAWBAGwMWmVBhGchhAp9WW2ABYAFgQBsDFphQYRnbYQKfVltgAWABYEAbAxaXUIZhGfOMjIyMYQNJVltgQFFgIAFhGgSSkZBhJjVWW2BAUWAggYMDA4FSkGBAUoBRkGAgASCWUGEaJGECn1ZbYAFgAWBAGwMWmlBhGjdhAp9WW2ABYAFgQBsDFplQYRpKYQKfVltgAWABYEAbAxaYUIZhGmGMjIxhG49WW2BAUWAgAWEacpKRkGEmNVZbYEBRYCCBgwMDgVKQYEBSgFGQYCABIJZQUFthGpeBYAFhJltWW5BQYQSqVltQg39DeJsw5MbVPic15XASB7BSmyzCKbG7ArlpHTnqIY2n12BAUWBAUYCRA5CigoR/LLhghrx2EHgvyGBrpogAzSGyz1vZ2fgBOQGQWm/06l1gQFFgQFGAkQOQo4GDhX+UoiRQ6nEm1bSPOCHvCccnIHktJbwmDsRaICITgFZ5XWBAUWBAUYCRA5CkgYOFf48xFOAAuU+mmMqzw4lpAH/0bV2AqUXc3nZTcrHROD9ShGBAUWEbW5GQYRw4VltgQFGAkQOQpGABYAFgQBsDjRZgAJCBUmABYCBShZBgQJAgVVCSm5pQUFBQUFBQUFBQUFZbYRuXYRvQVlthG59hHBRWW4SBUmAggQGEkFJgQICCAYSQUoJgYINgAGAHWvGAgGEbxldgAID9W1BQUJOSUFBQVltgQFFgQICCAYFSYAKQgpCANoM3UJGSkVBQVltgQFFggICCAWBAUmAEkIKQgDaDN1CRkpFQUFZbYQI9gGEmfIM5AZBWW2BAUWBggIIBYEBSYAOQgpCANoM3UJGSkVBQVluAW4JSUFBWW2AggQFhHEaChGEcMFZbkpFQUFZbYAFgAWBAGwOBFmEcMlZbYCCBAWEcRoKEYRxMVluAW4EUYRx2V2AAgP1bUFZbgDVhHEaBYRxpVltgAIBgAGBghIYDEhVhHJxXYRycYACA/VtgAGEcqIaGYRx5VluTUFBgIGEcuYaChwFhHHlWW5JQUGBAYRzKhoKHAWEceVZbkVBQklCSUJJWW2AAYCCChAMSFWEc6VdhHOlgAID9W2AAYRz1hIRhHHlWW5STUFBQUFZbYACAYACAYICFhwMSFWEdFldhHRZgAID9W2AAYR0ih4dhHHlWW5RQUGAgYR0zh4KIAWEceVZbk1BQYEBhHUSHgogBYRx5VluSUFBgYGEdVYeCiAFhHHlWW5FQUJKVkZRQklBWW2AAYR1tg4NhHDBWW1BQYCABkFZbYAKBgGAAW4OBEBVhHaFXgVFhHZCHgmEdYVZbllBgIIMBklBQYAEBYR18VltQUFBQUFBWW2BAgQFhHEaChGEddVZbY05Ie3Fg4BtgAFJgQWAEUmAkYAD9W2AfGWAfgwEWgQGBgRBgAWABYEAbA4IRFxVhHfJXYR3yYR23VltgQFJQUFZbYABhHghgAGBAUZBQkFZbkFBhHhSCgmEdzVZbkZBQVltgAGABYAFgQBsDghEVYR4yV2EeMmEdt1ZbYB8ZYB+DARZgIAGSkVBQVluCgYM3UGAAkQFSVltgAGEeYmEeXYRhHhlWW2Ed+VZbkFCCgVJgIIEBhISEAREVYR59V2EefWAAgP1bYR6IhIKFYR5DVltQk5JQUFBWW2AAgmAfgwESYR6kV2EepGAAgP1bgTVhHPWEgmAghgFhHk9WW2AAYCCChAMSFWEeyVdhHslgAID9W4E1YAFgAWBAGwOBERVhHuJXYR7iYACA/VthHPWEgoUBYR6QVltgAFuDgRAVYR8JV4CCAVGDggFSYCABYR7xVltQUGAAkQFSVltgAGEfIoJgAIFRkpFQUFZbgIRSYCCEAZNQYR85gYVgIIYBYR7uVltgHwFgHxkWkpCSAZKRUFBWW2AggIJSgQFhH1uBhGEfElZbk5JQUFBWW2ABYAFgQBsDgRZhHGtWW4A1YRxGgWEfYlZbY/////+BFmEca1ZbgDVhHEaBYR98VltgAIBgAGBghIYDEhVhH6tXYR+rYACA/VtgAGEft4aGYR9xVluTUFBgIGEcuYaChwFhH4hWW2NOSHtxYOAbYABSYBFgBFJgJGAA/VtgAWABYEAbA5GCFpGQgRaQgoICkIEWkIGBFGEENFdhBDRhH8hWW2ABYAFgQBsDkYIWkZCBFpCCggGQgREVYRxGV2EcRmEfyFZbY05Ie3Fg4BtgAFJgEmAEUmAkYAD9W2AAYAFgAWBAGwOCFpFQYAFgAWBAGwODFluSUIJhIGVXYSBlYSAnVltQBpBWW2AAgmEgVlZbgIIBgIIRFWEcRldhHEZhH8hWW4BhHDJWW5BWW2AAYSCagoRhIIVWW1BgIAGRkFBWW4GBAoCCFYOCBIUUF2EENFdhBDRhH8hWW2AAYSDHgoVhIIVWW2AgggGRUGEg14KEYSCFVltQYCABkpFQUFZbYACCYSDwV2Eg8GEgJ1ZbUASQVluBgQKAYACDEmABYP8bhRQWFWEhEldhIRJhH8hWW4KCBYQUgxUXYQQ0V2EENGEfyFZbYACCYSE1V2EhNWEgJ1ZbYAFg/xuCFGAAGYQUFhVhIU9XYSFPYR/IVltQBZBWW2AAgmEhY1dhIWNhICdWW1AHkFZbYAFgAWD4GwMZgRZhHDJWW2AAYSGEgoVhIIVWW2AgggGRUGEhlIKEYSFoVltQYAEBkpFQUFZbYABgAWABYKAbA4IWYRxGVltgAGEcRoJgYBuQVltgAGEcRoJhIa9WW2EcMmEh0oJhIZ5WW2Ehu1ZbYABhIeOChWEghVZbYCCCAZFQYSHzgoRhIcZWW1BgFAGSkVBQVltgAGEiDYJgAIFRkpFQUFZbYSIbgYVgIIYBYR7uVluSkJIBkpFQUFZbYABhIjGChWEghVZbYCCCAZFQYRz1goRhIf1WW2AAYSJOg4WEYR5DVltQUAGQVltgAGEiYIKGYSCFVltgIIIBkVBhInGChIZhIkFWW5WUUFBQUFBWW2ABYAFg4BsDGYEWYRwyVltgAGEiloKFYSCFVltgIIIBkVBhIqaChGEielZbUGAEAZKRUFBWW2EcMoFhIZ5WW2AggQFhHEaChGEisFZbYACBUZBQYRxGgWEcaVZbYABgIIKEAxIVYSLrV2Ei62AAgP1bYABhHPWEhGEix1ZbYABhH1uChGEh/VZbY05Ie3Fg4BtgAFJgImAEUmAkYAD9W2ACgQRgAYIWgGEjLVdgf4IWkVBbYCCCEIEDYSM/V2EjP2EjA1ZbUJGQUFZbYABhHEZhIIuDgVZbYSNag2EjRVZbgVRgABlgCJSQlAKThBsZFpIbkZCRF5BVUFZbYABhI4KBhIRhI1FWW1BQUFZbgYEQFWEjoldhI5pgAIJhI3VWW2ABAWEjh1ZbUFBWW2AfghEVYSOCV2EjxIFgAIGBUoGQYCCQIJKRUFBWW2AgYB+FAQSBAWAghRAVYSPZV1CAW2Ej62AgYB+GAQSDAYJhI4dWW1BQUFBQVlthJACCYACBUZKRUFBWW2ABYAFgQBsDgREVYSQXV2EkF2Edt1ZbYSQhglRhIxlWW2EkLIKChWEjplZbYCBgH4MRYAGBFGEkYVdgAIQVYSRJV4KHAVGQUFtgABlgCIYCHBmBFmAChgIXhlVQYR2hVltgHxmEFmEke4ZgAIGBUoGQYCCQIJKRUFBWW2AAW4KBEBVhJJ5XhIkBUYJVYCCUhQGUYAGQkgGRAWEkflZbhoMQFWEkuleEiQFRYAAZYB+JFmAIAhwZFoJVW2ABYAKIAgGIVVBQUFBQUFBQUFZbYABhHEaCYPgbkFZbYABhHEaCYSTOVlthHDKBFRVhJNpWW2AAgVRhJP2BYSMZVltgAYIWgBVhJRRXYAGBFGElKVdhJWVWW2D/GYMWhlKBFRWCAoYBk1BhJWVWW2ElPoVgAIGBUoGQYCCQIJKRUFBWW2AAW4OBEBVhJV1XgVSIggFSYAGQkQGQYCABYSVBVluDiAGVUFBQW1BQUJKRUFBWW2AAYSV6goZhIIVWW2AgggGRUGElioKFYSTlVltgAYIBkVBhInGChGEk8FZbYP+BFmEcMlZbYICBAWElsYKHYRwwVlthJb5gIIMBhmElmlZbYSXLYECDAYVhHDBWW2EicWBggwGEYRwwVltr////////////////GYEWYRwyVltgAGEl+YKFYSCFVltgIIIBkVBhIfOChGEl2FZbYAKBgGAAW4OBEBVhHaFXgVFhJiSHgmEdYVZbllBgIIMBklBQYAEBYSYQVltgAGEmQYKFYSCFVltgIIIBkVBhJlGChGEmCVZbUGBAAZKRUFBWW2P/////kYIWkZCBFpCCggGQgREVYRxGV2EcRmEfyFb+YIBgQFI0gBVhABBXYACA/VtQYQIdgGEAIGAAOWAA8/5ggGBAUjSAFWEAEFdgAID9W1BgBDYQYQBiV2AANWDgHIBjB9po9RRhAGdXgGMu/DzuFGEAcVeAYz+1wcsUYQB5V4Bjg4H1ihRhAIxXgGPQneCKFGEAq1eAY+20VSkUYQCzV1tgAID9W2EAb2EAxlZbAFthAG9hANtWW2EAb2EAhzZgBGEBPFZbYABVVlthAJVgAFSBVltgQFFhAKKRkGEBZVZbYEBRgJEDkPNbYQCVYQDzVlthAG9hAME2YARhAZZWW2EBD1ZbYACAVJCAYQDVg2EBzVZbkZBQVQBbYACAVJCAYQDqg2EBzVZbkZBQVWAAgP1bYACAVIGAYQECg2EBzVZbkZBQVVBgAFSQUJBWW4BgAWABYKAbAxb/W4BbgRRhAShXYACA/VtQVluANWEBNoFhARtWW5KRUFBWW2AAYCCChAMSFWEBUVdhAVFgAID9W2AAYQFdhIRhAStWW5STUFBQUFZbgYFSYCCBAWEBNlZbYABgAWABYKAbA4IWYQE2VlthAR2BYQFxVluANWEBNoFhAYJWW2AAYCCChAMSFWEBq1dhAatgAID9W2AAYQFdhIRhAYtWW2NOSHtxYOAbYABSYBFgBFJgJGAA/VtgAGAAGYIDYQHgV2EB4GEBt1ZbUGABAZBW/qJkaXBmc1giEiCnrnbn50RyuM4hffrJnVe0IzXyMSf5l1vn/dGQa508K2Rzb2xjQwAIEwAzomRpcGZzWCISIPC3ZkHMXTN5Mi9FUD9DHjM8ZnbRC3JF+rNeQmuSa3jDZHNvbGNDAAgTADM=",
          "touched": true,
          "read": true
        },
        "0x70eBAE4cACF9B7C49B8132C81d3C838f50b61365": {
          "address": "0x70eBAE4cACF9B7C49B8132C81d3C838f50b61365",
          "nonce": 1,
          "storage": {
            "0x0000000000000000000000000000000000000000000000000000000000000000": "0x0000000000000000000000000000000000000000000000000000000000000003"
          },
          "storage_read": {
            "0x0000000000000000000000000000000000000000000000000000000000000000": {}
          },
          "code": "YIBgQFI0gBVhABBXYACA/VtQYAQ2EGEAYldgADVg4ByAYwfaaPUUYQBnV4BjLvw87hRhAHFXgGM/tcHLFGEAeVeAY4OB9YoUYQCMV4Bj0J3gihRhAKtXgGPttFUpFGEAs1dbYACA/VthAG9hAMZWWwBbYQBvYQDbVlthAG9hAIc2YARhATxWW2AAVVZbYQCVYABUgVZbYEBRYQCikZBhAWVWW2BAUYCRA5DzW2EAlWEA81ZbYQBvYQDBNmAEYQGWVlthAQ9WW2AAgFSQgGEA1YNhAc1WW5GQUFUAW2AAgFSQgGEA6oNhAc1WW5GQUFVgAID9W2AAgFSBgGEBAoNhAc1WW5GQUFVQYABUkFCQVluAYAFgAWCgGwMW/1uAW4EUYQEoV2AAgP1bUFZbgDVhATaBYQEbVluSkVBQVltgAGAggoQDEhVhAVFXYQFRYACA/VtgAGEBXYSEYQErVluUk1BQUFBWW4GBUmAggQFhATZWW2AAYAFgAWCgGwOCFmEBNlZbYQEdgWEBcVZbgDVhATaBYQGCVltgAGAggoQDEhVhAatXYQGrYACA/VtgAGEBXYSEYQGLVltjTkh7cWDgG2AAUmARYARSYCRgAP1bYABgABmCA2EB4FdhAeBhAbdWW1BgAQGQVv6iZGlwZnNYIhIgp6525+dEcrjOIX36yZ1XtCM18jEn+Zdb5/3RkGudPCtkc29sY0MACBMAMw==",
          "code_read": "YIBgQFI0gBVhABBXYACA/VtQYAQ2EGEAYldgADVg4ByAYwfaaPUUYQBnV4BjLvw87hRhAHFXgGM/tcHLFGEAeVeAY4OB9YoUYQCMV4Bj0J3gihRhAKtXgGPttFUpFGEAs1dbYACA/VthAG9hAMZWWwBbYQBvYQDbVlthAG9hAIc2YARhATxWW2AAVVZbYQCVYABUgVZbYEBRYQCikZBhAWVWW2BAUYCRA5DzW2EAlWEA81ZbYQBvYQDBNmAEYQGWVlthAQ9WW2AAgFSQgGEA1YNhAc1WW5GQUFUAW2AAgFSQgGEA6oNhAc1WW5GQUFVgAID9W2AAgFSBgGEBAoNhAc1WW5GQUFVQYABUkFCQVluAYAFgAWCgGwMW/1uAW4EUYQEoV2AAgP1bUFZbgDVhATaBYQEbVluSkVBQVltgAGAggoQDEhVhAVFXYQFRYACA/VtgAGEBXYSEYQErVluUk1BQUFBWW4GBUmAggQFhATZWW2AAYAFgAWCgGwOCFmEBNlZbYQEdgWEBcVZbgDVhATaBYQGCVltgAGAggoQDEhVhAatXYQGrYACA/VtgAGEBXYSEYQGLVltjTkh7cWDgG2AAUmARYARSYCRgAP1bYABgABmCA2EB4FdhAeBhAbdWW1BgAQGQVv6iZGlwZnNYIhIgp6525+dEcrjOIX36yZ1XtCM18jEn+Zdb5/3RkGudPCtkc29sY0MACBMAMw==",
          "touched": true,
          "read": true
        },
        "0x7f0480640BB89A19324292C5dE95F6f629e2139E": {
          "address": "0x7f0480640BB89A19324292C5dE95F6f629e2139E",
          "read": true
        },
        "0x85dA99c8a7C2C95964c8EfD687E95E632Fc533D6": {
          "address": "0x85dA99c8a7C2C95964c8EfD687E95E632Fc533D6",
          "nonce": 4902,
          "read": true
        },
        "0xa07A64FA1E0569EBA977c61270ca1e99390Ae0FD": {
          "address": "0xa07A64FA1E0569EBA977c61270ca1e99390Ae0FD",
          "nonce": 1,
          "code": "YIBgQFI0gBVhABBXYACA/VtQYAQ2EGEAYldgADVg4ByAYwfaaPUUYQBnV4BjLvw87hRhAHFXgGM/tcHLFGEAeVeAY4OB9YoUYQCMV4Bj0J3gihRhAKtXgGPttFUpFGEAs1dbYACA/VthAG9hAMZWWwBbYQBvYQDbVlthAG9hAIc2YARhATxWW2AAVVZbYQCVYABUgVZbYEBRYQCikZBhAWVWW2BAUYCRA5DzW2EAlWEA81ZbYQBvYQDBNmAEYQGWVlthAQ9WW2AAgFSQgGEA1YNhAc1WW5GQUFUAW2AAgFSQgGEA6oNhAc1WW5GQUFVgAID9W2AAgFSBgGEBAoNhAc1WW5GQUFVQYABUkFCQVluAYAFgAWCgGwMW/1uAW4EUYQEoV2AAgP1bUFZbgDVhATaBYQEbVluSkVBQVltgAGAggoQDEhVhAVFXYQFRYACA/VtgAGEBXYSEYQErVluUk1BQUFBWW4GBUmAggQFhATZWW2AAYAFgAWCgGwOCFmEBNlZbYQEdgWEBcVZbgDVhATaBYQGCVltgAGAggoQDEhVhAatXYQGrYACA/VtgAGEBXYSEYQGLVltjTkh7cWDgG2AAUmARYARSYCRgAP1bYABgABmCA2EB4FdhAeBhAbdWW1BgAQGQVv6iZGlwZnNYIhIgp6525+dEcrjOIX36yZ1XtCM18jEn+Zdb5/3RkGudPCtkc29sY0MACBMAMw==",
          "code_read": "YIBgQFI0gBVhABBXYACA/VtQYAQ2EGEAYldgADVg4ByAYwfaaPUUYQBnV4BjLvw87hRhAHFXgGM/tcHLFGEAeVeAY4OB9YoUYQCMV4Bj0J3gihRhAKtXgGPttFUpFGEAs1dbYACA/VthAG9hAMZWWwBbYQBvYQDbVlthAG9hAIc2YARhATxWW2AAVVZbYQCVYABUgVZbYEBRYQCikZBhAWVWW2BAUYCRA5DzW2EAlWEA81ZbYQBvYQDBNmAEYQGWVlthAQ9WW2AAgFSQgGEA1YNhAc1WW5GQUFUAW2AAgFSQgGEA6oNhAc1WW5GQUFVgAID9W2AAgFSBgGEBAoNhAc1WW5GQUFVQYABUkFCQVluAYAFgAWCgGwMW/1uAW4EUYQEoV2AAgP1bUFZbgDVhATaBYQEbVluSkVBQVltgAGAggoQDEhVhAVFXYQFRYACA/VtgAGEBXYSEYQErVluUk1BQUFBWW4GBUmAggQFhATZWW2AAYAFgAWCgGwOCFmEBNlZbYQEdgWEBcVZbgDVhATaBYQGCVltgAGAggoQDEhVhAatXYQGrYACA/VtgAGEBXYSEYQGLVltjTkh7cWDgG2AAUmARYARSYCRgAP1bYABgABmCA2EB4FdhAeBhAbdWW1BgAQGQVv6iZGlwZnNYIhIgp6525+dEcrjOIX36yZ1XtCM18jEn+Zdb5/3RkGudPCtkc29sY0MACBMAMw==",
          "suicide": true,
          "touched": true,
          "read": true
        }
      }
    }
  ]
}
