{
  "accountTrie": {
    "0dbe334844a4dbd4599b3ec208d0163856d0805fb135129397ca04a75b9a10e5": "f85180a016819356c7f115861436701b6784f634817ef3a3f14e0a5bc8f430b35009089380808080808080808080a0b352e4c72d853473be5eac69cf10adfdc61a3747ec26a4b424f0a29292fc1d3780808080",
    "16819356c7f115861436701b6784f634817ef3a3f14e0a5bc8f430b350090893": "f8769f3eec2b84f0ba344fd4b4d2f022469febe7a772c4789acfc119eb558ab1da3db854f8528213278c033b2e3c607a3362625718a5a056e81f171bcc55a6ff8345e692c0f86e5b48e01b996cadc001622fb5e363b421a0c5d2460186f7233c927e7db2dcc703c0e500b653ca82273b7bfad8045d85a470",
    "265ff8fbc7d86e577941de6e4ade4d2f56319b5a07a3f43208a61b27d464153e": "f871808080a082df813457d4783f4c7004117481a40efa3d3de29473f7084dd2fa81a82b4d4fa0fb63f9dca70c2c076e46c2cd23c653b9239f4de841ab74b8b3b12848e395ba2780808080808080808080a0947517eccb603bcfa8b71d01a4376e00ceeb0e0d5b6c570c87eb982f5329d7fe80",
    "311e1c63c695b718b0d47258d9066227d956f499ef8930d57419f9fe3da8beef": "f87180808080808080a0bbba9f4dab22ed6ef327e90e3115720ba1766f3a24280ee2a8f36f678b4b7caba0d6e7baf9ad6b04dff3a25f53357482c94918662b5267635373129b88ba77616f808080a07370e92b6c5ae168cdbc0f3b2fddaf6c0684341663a1b3d3ad37088e739302fd80808080",
    "3a6ab9252d625ee34450f5f40ef8aeaf895aedcd7be4a964969ea65a145d7a28": "f869a02062b58d0bc03515be602303fc76ea7d180d92200c52b77b45f8a9e84ff8c365b846f8448080a073a78108c47c4448b9bed27b1b1d8c9ab61d64080545a7ecc5766b89d8b45734a0c6d622f1dfbbe2cc4cf31e002681d3b786c0a9b028fbf179f1cd586a3778cc62",
    "42179b2598eeaf09e46737396a8a1966a3a3cd19b0bc1ce30e643f284effe9b5": "f869a02058c2c1ac06ad29eab5b631a2a76f7997030f5468deb7f384eb6e276208d046b846f8440780a0976c991ad2ba2ffe9123c33a676225b83ba45b422e8fb7f53d3829bf48211807a0ed677cb1cce5890694d26042b2f3cc6f7a46d81a07cc27aff7b7ad8c955796e1",
    "42ff13848bc299f48c3b22f6fa1d34d7a569cfa8a123dc89aa92018a6356df1f": "f8518080a0a1bf2cba30e7699d3087fbd627d51964c6e37d59b6120898332f1c3208c4b30b808080808080a01808e90ca9a327cb0d716961c0065e8639a2715416b7c91fd27096403102c78c80808080808080",
    "4ac0a0b02213c598b00a81983629b2a0524a9777a5832e3c15aa28a9d9fc12a8": "f90211a0311e1c63c695b718b0d47258d9066227d956f499ef8930d57419f9fe3da8beefa0eb712762547c326ea3d48c76fce2fc26ff059b89b2688c6e280dfc16d515f136a042ff13848bc299f48c3b22f6fa1d34d7a569cfa8a123dc89aa92018a6356df1fa0d379709dd7f28dcd01c9f7dad8b806aa54f8133adf378a7335aba34dc462cbcda08e3fe96df7ece93130026230c33d2b565ff2e4c1c2c8c1447e0787425247484aa0f978184b95282bd3ce1e848851b3291350e64c0607ef737b2dc516db85f93c68a075a051af145696ac3fbf0a61f67b4a8b7996b2e216f02fb08233db5ec24dbc70a0bcbda9f9391f238c05945e180f63aca04b5c087b61e9bc5651f634c1fb03b6b2a0364969fa64ed1edef177b8a87bbe20e26615582bf935df361abf64c0b7e2b589a0e6e82a109ac4e5daed8f76043d8393d0298472e0518ff96a48b8492e479881fba0ed8f489db18606dffb4d45fb6992db6c0b3021768783378a1008c85fcccb9901a0fdfdc0f4a18550facc0b3266fd35dcda6fc51d2191ed7856662b122c523573cba089c591e7ac0b9dc550481d0dc12264cb54fc0a49fac17da885f51d7b4d4137d8a0c8039f867576d6e567aa64b1d5bd865a7ff4bd154e4cec391c5384508fa190f7a08333762fcaf7193e048ab228010951a924224adf67ad901b5e98441becfcbbd7a0265ff8fbc7d86e577941de6e4ade4d2f56319b5a07a3f43208a61b27d464153e80",
    "502ea752a535c877de60ef1c494fb0ceb60d1ad0d2c2dfc56c054bbce5a03299": "f869a020683e1d755c8cf95151c1e8809332cb56c747579c66fec109eb1de472d163feb846f8448080a0a2a81c4b2e97143ec52d55e835aee6aed27220e737e7decdb6c0a275e7677b4da09fa99d5f4b929b1f678d8a7fa86048efd78bf896866879ed06b20ad8961ed4e4",
    "89c591e7ac0b9dc550481d0dc12264cb54fc0a49fac17da885f51d7b4d4137d8": "f8518080808080a042179b2598eeaf09e46737396a8a1966a3a3cd19b0bc1ce30e643f284effe9b58080a02b552522c790b0433d466408318c5c61bfa7e2dbb9c2e13bfec3d1d51290addd8080808080808080",
    "bcbda9f9391f238c05945e180f63aca04b5c087b61e9bc5651f634c1fb03b6b2": "f8b18080808080808080a0081c2b4440268a65f99f655c4c1064438e338263472c901f8df2ff1ecf096a82a0b0c5360fecc83ac91a0701bc3bb124a38bfad049dc8b5c92833d4895bfa55ceca0e0a4255e8aea161aa9ff2397406fe7ec6aad5e655391e8dc39dceb00644011078080a08a0977db0c40a342485134dc58b8ec9ca0c4d0b37ec2659d0d7333265623b7f580a0de08ba642a2621e04e5421b15a18dc456274294be9703e9633461469308d367c80",
    "d6e7baf9ad6b04dff3a25f53357482c94918662b5267635373129b88ba77616f": "f869a020aa49c1d12105de82bf1c7ed7c54f741e846b6b70539e92d2e0dedfc801491fb846f8448080a04e71219ea0dfee98b22365f87e6c87ce10a12696c07eb611d45123aeb52c665da0bc022a807ab2cb7c98fd7ac2002a893918264d6dea60bd4797cac0d44ffca0f6",
    "de5696a460c57bfa33b226ea91613ce9fe03210896c5f4fbb77b342a33eaf930": "f873a02080c7b7ae81a58eb98d9c78de4a1fd7fd9535fc953ed2be602daaa41767312ab850f84e808ad3c21bd1baa369b0c0daa056e81f171bcc55a6ff8345e692c0f86e5b48e01b996cadc001622fb5e363b421a0c5d2460186f7233c927e7db2dcc703c0e500b653ca82273b7bfad8045d85a470",
    "ed8f489db18606dffb4d45fb6992db6c0b3021768783378a1008c85fcccb9901": "f87180a031d1eb10fdf37ef90417d463e9e3d1dad5bab6a3e8b38ccc4eaa744250317457808080a00dbe334844a4dbd4599b3ec208d0163856d0805fb135129397ca04a75b9a10e5808080808080808080a0e40de48c8ff5b6ab2bf4cbd8ccb4cdb7d7d1b9050021438f95ce36280dfee5f080",
    "f978184b95282bd3ce1e848851b3291350e64c0607ef737b2dc516db85f93c68": "f871a06688a62eaffcabc9e0d1f9c51e8db5ccca187a14282abde749ca656fca1a541e8080a0de5696a460c57bfa33b226ea91613ce9fe03210896c5f4fbb77b342a33eaf93080a03a6ab9252d625ee34450f5f40ef8aeaf895aedcd7be4a964969ea65a145d7a288080808080808080808080",
    "fb63f9dca70c2c076e46c2cd23c653b9239f4de841ab74b8b3b12848e395ba27": "f873a02059c241d99ff19d6781feaf10eafba6d43f87543a75316fe0ae22a76eec0361b850f84e808ad3c21de9f61582d1aaa6a056e81f171bcc55a6ff8345e692c0f86e5b48e01b996cadc001622fb5e363b421a0c5d2460186f7233c927e7db2dcc703c0e500b653ca82273b7bfad8045d85a470",
    "fdfdc0f4a18550facc0b3266fd35dcda6fc51d2191ed7856662b122c523573cb": "f891808080a0568682ff896950a3d9703cbbdd60fb594c8a262a890d04e3fcffc0b54403486c80808080a0502ea752a535c877de60ef1c494fb0ceb60d1ad0d2c2dfc56c054bbce5a03299a0079b027d40888aeb91db9cfe6c732edbafaeee40d3d7756a606d6325d3af58708080808080a032ad450c4b68a9f217a31ce3cccf4ce620ee70dbcda08f74d6bf58fcca5da30780"
  },
  "storageTrie": {
    "95b67224ff76fcdc2ccb1b5ee200b0d5eb9e2bdeb5f546b1980e89576b897a8e": "e7a0390decd9548b62a8d60345a988386fc84ba6bc95484008f6362f93160ef3e56385840562d530",
    "976c991ad2ba2ffe9123c33a676225b83ba45b422e8fb7f53d3829bf48211807": "f8718080a095b67224ff76fcdc2ccb1b5ee200b0d5eb9e2bdeb5f546b1980e89576b897a8e808080a0f7e75ad7de042907547d0d67cd5dbe30d3286d2e523affaafaca0b8cbf67aee58080a0ea17183ceb26e8431c2b8537d92f0488cdb3af5597929fdd8eadac4f669861be80808080808080"
  },
  "parentStateRoot": "0x4ac0a0b02213c598b00a81983629b2a0524a9777a5832e3c15aa28a9d9fc12a8",
  "transactionTraces": [
    {
      "txn": "0x02f8d48207d182132784b2d05e0084b2d05e0e83287c88946fda56c57b0acadb96ed5624ac500c0429d5942980b864ce1b193a00000000000000000000000000000000000000000000000000000000000000040000000000000000000000000000000000000000000000000000000000000004000000000000000000000000000000000000000000000000000000000000ffefc080a08291391f2fd1fc35e994e9d72f8f39ff09de40d24b0220ae503d5758d7797fe2a0226c301a4cd2c742e20edc9a088b76d07cdaeead6d51875223ee87d87c433c36",
      "delta": {
        "0x0000000000000000000000000000000000000000": {
          "address": "0x0000000000000000000000000000000000000000",
          "read": true
        },
        "0x0b5F1Cea95aD01fa92F04FFdcE4057Fd798d3B16": {
          "address": "0x0b5F1Cea95aD01fa92F04FFdcE4057Fd798d3B16",
          "nonce": 1,
          "storage": {
            "0x0000000000000000000000000000000000000000000000000000000000000000": "0x0000000000000000000000000000000000000000000000000000000000000003"
          },
          "storage_read": {
            "0x0000000000000000000000000000000000000000000000000000000000000000": {}
          },
          "code": "YIBgQFI0gBVhABBXYACA/VtQYAQ2EGEAYldgADVg4ByAYwfaaPUUYQBnV4BjLvw87hRhAHFXgGM/tcHLFGEAeVeAY4OB9YoUYQCMV4Bj0J3gihRhAKtXgGPttFUpFGEAs1dbYACA/VthAG9hAMZWWwBbYQBvYQDbVlthAG9hAIc2YARhATxWW2AAVVZbYQCVYABUgVZbYEBRYQCikZBhAWVWW2BAUYCRA5DzW2EAlWEA81ZbYQBvYQDBNmAEYQGWVlthAQ9WW2AAgFSQgGEA1YNhAc1WW5GQUFUAW2AAgFSQgGEA6oNhAc1WW5GQUFVgAID9W2AAgFSBgGEBAoNhAc1WW5GQUFVQYABUkFCQVluAYAFgAWCgGwMW/1uAW4EUYQEoV2AAgP1bUFZbgDVhATaBYQEbVluSkVBQVltgAGAggoQDEhVhAVFXYQFRYACA/VtgAGEBXYSEYQErVluUk1BQUFBWW4GBUmAggQFhATZWW2AAYAFgAWCgGwOCFmEBNlZbYQEdgWEBcVZbgDVhATaBYQGCVltgAGAggoQDEhVhAatXYQGrYACA/VtgAGEBXYSEYQGLVltjTkh7cWDgG2AAUmARYARSYCRgAP1bYABgABmCA2EB4FdhAeBhAbdWW1BgAQGQVv6iZGlwZnNYIhIgp6525+dEcrjOIX36yZ1XtCM18jEn+Zdb5/3RkGudPCtkc29sY0MACBMAMw==",
          "code_read": "YIBgQFI0gBVhABBXYACA/VtQYAQ2EGEAYldgADVg4ByAYwfaaPUUYQBnV4BjLvw87hRhAHFXgGM/tcHLFGEAeVeAY4OB9YoUYQCMV4Bj0J3gihRhAKtXgGPttFUpFGEAs1dbYACA/VthAG9hAMZWWwBbYQBvYQDbVlthAG9hAIc2YARhATxWW2AAVVZbYQCVYABUgVZbYEBRYQCikZBhAWVWW2BAUYCRA5DzW2EAlWEA81ZbYQBvYQDBNmAEYQGWVlthAQ9WW2AAgFSQgGEA1YNhAc1WW5GQUFUAW2AAgFSQgGEA6oNhAc1WW5GQUFVgAID9W2AAgFSBgGEBAoNhAc1WW5GQUFVQYABUkFCQVluAYAFgAWCgGwMW/1uAW4EUYQEoV2AAgP1bUFZbgDVhATaBYQEbVluSkVBQVltgAGAggoQDEhVhAVFXYQFRYACA/VtgAGEBXYSEYQErVluUk1BQUFBWW4GBUmAggQFhATZWW2AAYAFgAWCgGwOCFmEBNlZbYQEdgWEBcVZbgDVhATaBYQGCVltgAGAggoQDEhVhAatXYQGrYACA/VtgAGEBXYSEYQGLVltjTkh7cWDgG2AAUmARYARSYCRgAP1bYABgABmCA2EB4FdhAeBhAbdWW1BgAQGQVv6iZGlwZnNYIhIgp6525+dEcrjOIX36yZ1XtCM18jEn+Zdb5/3RkGudPCtkc29sY0MACBMAMw==",
          "touched": true,
          "read": true
        },
        "0x453C1712536AA23aeEB8D216b7Bae856081A28f0": {
          "address": "0x453C1712536AA23aeEB8D216b7Bae856081A28f0",
          "nonce": 1,
          "storage": {
            "0x0000000000000000000000000000000000000000000000000000000000000000": "0x0000000000000000000000000000000000000000000000000000000000000003"
          },
          "storage_read": {
            "0x0000000000000000000000000000000000000000000000000000000000000000": {}
          },
          "code": "YIBgQFI0gBVhABBXYACA/VtQYAQ2EGEAYldgADVg4ByAYwfaaPUUYQBnV4BjLvw87hRhAHFXgGM/tcHLFGEAeVeAY4OB9YoUYQCMV4Bj0J3gihRhAKtXgGPttFUpFGEAs1dbYACA/VthAG9hAMZWWwBbYQBvYQDbVlthAG9hAIc2YARhATxWW2AAVVZbYQCVYABUgVZbYEBRYQCikZBhAWVWW2BAUYCRA5DzW2EAlWEA81ZbYQBvYQDBNmAEYQGWVlthAQ9WW2AAgFSQgGEA1YNhAc1WW5GQUFUAW2AAgFSQgGEA6oNhAc1WW5GQUFVgAID9W2AAgFSBgGEBAoNhAc1WW5GQUFVQYABUkFCQVluAYAFgAWCgGwMW/1uAW4EUYQEoV2AAgP1bUFZbgDVhATaBYQEbVluSkVBQVltgAGAggoQDEhVhAVFXYQFRYACA/VtgAGEBXYSEYQErVluUk1BQUFBWW4GBUmAggQFhATZWW2AAYAFgAWCgGwOCFmEBNlZbYQEdgWEBcVZbgDVhATaBYQGCVltgAGAggoQDEhVhAatXYQGrYACA/VtgAGEBXYSEYQGLVltjTkh7cWDgG2AAUmARYARSYCRgAP1bYABgABmCA2EB4FdhAeBhAbdWW1BgAQGQVv6iZGlwZnNYIhIgp6525+dEcrjOIX36yZ1XtCM18jEn+Zdb5/3RkGudPCtkc29sY0MACBMAMw==",
          "code_read": "YIBgQFI0gBVhABBXYACA/VtQYAQ2EGEAYldgADVg4ByAYwfaaPUUYQBnV4BjLvw87hRhAHFXgGM/tcHLFGEAeVeAY4OB9YoUYQCMV4Bj0J3gihRhAKtXgGPttFUpFGEAs1dbYACA/VthAG9hAMZWWwBbYQBvYQDbVlthAG9hAIc2YARhATxWW2AAVVZbYQCVYABUgVZbYEBRYQCikZBhAWVWW2BAUYCRA5DzW2EAlWEA81ZbYQBvYQDBNmAEYQGWVlthAQ9WW2AAgFSQgGEA1YNhAc1WW5GQUFUAW2AAgFSQgGEA6oNhAc1WW5GQUFVgAID9W2AAgFSBgGEBAoNhAc1WW5GQUFVQYABUkFCQVluAYAFgAWCgGwMW/1uAW4EUYQEoV2AAgP1bUFZbgDVhATaBYQEbVluSkVBQVltgAGAggoQDEhVhAVFXYQFRYACA/VtgAGEBXYSEYQErVluUk1BQUFBWW4GBUmAggQFhATZWW2AAYAFgAWCgGwOCFmEBNlZbYQEdgWEBcVZbgDVhATaBYQGCVltgAGAggoQDEhVhAatXYQGrYACA/VtgAGEBXYSEYQGLVltjTkh7cWDgG2AAUmARYARSYCRgAP1bYABgABmCA2EB4FdhAeBhAbdWW1BgAQGQVv6iZGlwZnNYIhIgp6525+dEcrjOIX36yZ1XtCM18jEn+Zdb5/3RkGudPCtkc29sY0MACBMAMw==",
          "touched": true,
          "read": true
        },
        "0x6FdA56C57B0Acadb96Ed5624aC500C0429d59429": {
          "address": "0x6FdA56C57B0Acadb96Ed5624aC500C0429d59429",
          "nonce": 15,
          "storage": {
            "0x0000000000000000000000000000000000000000000000000000000000000000": "0x000000000000000000000000000000000000000000000000000000005a5fd040",
            "0x0000000000000000000000000000000000000000000000000000000000000002": "0x0000000000000000000000000000000000000000000000000000000000000000",
            "0x0000000000000000000000000000000000000000000000000000000000000003": "0x0000000000000000000000000000000000000000000000000000000000000000",
            "0x405787fa12a823e0f2b7631cc41b3ba8828b3321ca811111fa75cd3aa3bb5ace": "0x0000000000000000000000000000000000000000000000000000000000000000",
            "0xedc95719e9a3b28dd8e80877cb5880a9be7de1a13fc8b05e7999683b6b567643": "0xd20d00d1ee1054b8b6b3bfd12dea490cb70f3eb1d94f14c3957c79e7e9ad881d"
          },
          "storage_read": {
            "0x0000000000000000000000000000000000000000000000000000000000000000": {},
            "0x0000000000000000000000000000000000000000000000000000000000000002": {},
            "0x0000000000000000000000000000000000000000000000000000000000000003": {},
            "0x405787fa12a823e0f2b7631cc41b3ba8828b3321ca811111fa75cd3aa3bb5ace": {},
            "0xedc95719e9a3b28dd8e80877cb5880a9be7de1a13fc8b05e7999683b6b567643": {}
          },
          "code_read": "YIBgQFJgBDYQYQDdV2AANWDgHIBjdj78CBFhAH9XgGOyrNUJEWEAWVeAY7Ks1QkUYQIfV4BjyqJgMhRhAj9XgGPOGxk6FGECbFeAY+yLRmoUYQJ/V2AAgP1bgGN2PvwIFGEB1VeAY32UeSoUYQHqV4BjrpjbLxRhAgpXYACA/VuAY0ILfa4RYQC7V4BjQgt9rhRhAU9XgGNISfJ5FGEBfleAY0nT1gUUYQGrV4BjV/wQoxRhAcBXYACA/VuAYwMTv4YUYQDiV4BjFFsFYxRhAQ1XgGMxSPFPFGEBL1dbYACA/Vs0gBVhAO5XYACA/VtQYQD3YAKBVltgQFFhAQSRkGEcOFZbYEBRgJEDkPNbNIAVYQEZV2AAgP1bUGEBImECn1ZbYEBRYQEEkZBhHFtWWzSAFWEBO1dgAID9W1BhAPdhAUo2YARhHIRWW2EC+1ZbNIAVYQFbV2AAgP1bUGEA92EBajZgBGEc1FZbYAFgIFKAYABSYEBgACBUkFCBVls0gBVhAYpXYACA/VtQYQGeYQGZNmAEYRz9VlthA0lWW2BAUWEBBJGQYR2pVls0gBVhAbdXYACA/VtQYQD3YASBVls0gBVhAcxXYACA/VtQYQD3YAiBVls0gBVhAeFXYACA/VtQYQD3YAGBVls0gBVhAfZXYACA/VtQYABUYQEikGABYAFgQBsDFoFWWzSAFWECFldgAID9W1BhAPdgEIFWWzSAFWECK1dgAID9W1BhAPdhAjo2YARhHrRWW2EDklZbNIAVYQJLV2AAgP1bUGECX2ECWjZgBGEetFZbYQPSVltgQFFhAQSRkGEfSlZbYQD3YQJ6NmAEYR+TVlthBDtWWzSAFWECi1dgAID9W1BhAZ5hApo2YARhHIRWW2Ebj1ZbYACAVGOAAAAAkGECwJBgAWABYEAbAxZjQcZObWEf3lZbYQLMkGEwOWEgBFZbYQLWkZBhID1WW2AAgFRn//////////8ZFmABYAFgQBsDkpCSFpGCF5BVkZBQVltgAGBAUWAggVJgIICCAVJgIGBAggFShGBgggFSg2CAggFSgmCgggFSYMBRYCCBYMCEYABgBWAAGfFhAz1XYACA/VuAUZaVUFBQUFBQVlthA1FhG9BWW2EDWWEb61ZbhYFSYCCBAYWQUmBAgIIBhZBSYGCCAYSQUoJggINgAGAGWvGAgGEDh1dgAID9W1BQUJSTUFBQUFZbYACAglGQUGEDpGDAgmEgalZbFWEDrldgAID9W2BAUWAggYNgIIcBYABgCFrxgIAVYQDdV4JRlpVQUFBQUFBWW2BgYACCUWABYAFgQBsDgREVYQPvV2ED72Edt1ZbYEBRgYFSYB8ZYB+DARaBAWAgAWBAUpCAFWEEGVdgIIIBgYA2gzcBkFBbUJBQglGAYCCDAYJgIIcBYABgBFrxYQQ0V/5bUJKRUFBWW2AAgFRn//////////8ZFmABYAFgQBsDhRYXgVV/w9BhFFxngKp1sVcYcb3W+ZNyxgQ08z2K+lQJ71xyYzqEYEBRYQSGkZBhHFtWW2BAUYCRA5ChYACAYACAYACAYACAYABgQFFgQFGAkQOQoGAAW4xj/////xaBY/////8WEBVhGp5XYQTGYQKfVltgAWABYEAbAxaZUGEE2WECn1ZbYAFgAWBAGwMWmFBhBO6Ji2EgclZbYEBRYCABYQT+kZBhII5WW2BAUWAggYMDA4FSkGBAUoBRkGAgASCVUGEFHmECn1ZbYAFgAWBAGwMWmVBhBTFhAp9WW2ABYAFgQBsDFphQhWEFR4qMYSCjVltgQFFgIAFhBViSkZBhILtWW2BAUWAggYMDA4FSkGBAUoBRkGAgASCVUGEFeGECn1ZbYAFgAWBAGwMWmVBhBYthAp9WW2ABYAFgQBsDFphQhYmLA2BAUWAgAWEFq5KRkGEgu1ZbYEBRYCCBgwMDgVKQYEBSgFGQYCABIJVQWZlQhYpgQFFgIAFhBdmSkZBhILtWW2BAUWAggYMDA4FSkGBAUoBRkGAgASCVUDiZUIWKYEBRYCABYQYHkpGQYSC7VltgQFFgIIGDAwOBUpBgQFKAUZBgIAEglVBhBidhAp9WW2ABYAFgQBsDFplQYQY6YQKfVltgAWABYEAbAxaYUIVhBlCKjGEg4VZbYEBRYCABYQZhkpGQYSC7VltgQFFgIIGDAwOBUpBgQFKAUZBgIAEglVBhBoFhAp9WW2ABYAFgQBsDFplQYQaUYQKfVltgAWABYEAbAxaYUIVhBqyKYAAZYSD1VlthBraQjGEhJlZbYEBRYCABYQbHkpGQYSC7VltgQFFgIIGDAwOBUpBgQFKAUZBgIAEglVBhBudhAp9WW2ABYAFgQBsDFplQYQb6YQKfVltgAWABYEAbAxaYUIVhBxCKjGEgalZbYEBRYCABYQchkpGQYSC7VltgQFFgIIGDAwOBUpBgQFKAUZBgIAEglVBhB0FhAp9WW2ABYAFgQBsDFplQYQdUYQKfVltgAWABYEAbAxaYUIVhB2yKYAAZYSD1VlthB3aQjGEhVFZbYEBRYCABYQeHkpGQYSC7VltgQFFgIIGDAwOBUpBgQFKAUZBgIAEglVBhB6dhAp9WW2ABYAFgQBsDFplQYQe6YQKfVltgAWABYEAbAxaYUGEHzWECn1ZbYAFgAWBAGwMWl1CFiIBhB+dXYQfnYSAnVluKjAhgQFFgIAFhB/uSkZBhILtWW2BAUWAggYMDA4FSkGBAUoBRkGAgASCVUGEIG2ECn1ZbYAFgAWBAGwMWmVBhCC5hAp9WW2ABYAFgQBsDFphQYQhBYQKfVltgAWABYEAbAxaXUIWIgGEIW1dhCFthICdWW4qMCWBAUWAgAWEIb5KRkGEgu1ZbYEBRYCCBgwMDgVKQYEBSgFGQYCABIJVQYQiPYQKfVltgAWABYEAbAxaZUGEIomECn1ZbYAFgAWBAGwMWmFCFiYsKYEBRYCABYQjCkpGQYSC7VltgQFFgIIGDAwOBUpBgQFKAUZBgIAEglVBhCOJhAp9WW2ABYAFgQBsDFplQhYpgAwtgQFFgIAFhCQOSkZBhILtWW2BAUWAggYMDA4FSkGBAUoBRkGAgASCVUGEJI2ECn1ZbYAFgAWBAGwMWmVBhCTZhAp9WW2ABYAFgQBsDFphQhYmLEGEJT1eJYQlRVluKW2BAUWAgAWEJYpKRkGEgu1ZbYEBRYCCBgwMDgVKQYEBSgFGQYCABIJVQYQmCYQKfVltgAWABYEAbAxaZUGEJlWECn1ZbYAFgAWBAGwMWmFCFiYsRYQmuV4lhCbBWW4pbYEBRYCABYQnBkpGQYSC7VltgQFFgIIGDAwOBUpBgQFKAUZBgIAEglVBhCeFhAp9WW2ABYAFgQBsDFplQYQn0YQKfVltgAWABYEAbAxaYUIWJixJhCg1XiWEKD1ZbiltgQFFgIAFhCiCSkZBhILtWW2BAUWAggYMDA4FSkGBAUoBRkGAgASCVUGEKQGECn1ZbYAFgAWBAGwMWmVBhClNhAp9WW2ABYAFgQBsDFphQhYmLE2EKbFeJYQpuVluKW2BAUWAgAWEKf5KRkGEgu1ZbYEBRYCCBgwMDgVKQYEBSgFGQYCABIJVQYQqfYQKfVltgAWABYEAbAxaZUGEKsmECn1ZbYAFgAWBAGwMWmFCFiYsUYQrLV4lhCs1WW4pbYEBRYCABYQrekpGQYSC7VltgQFFgIIGDAwOBUpBgQFKAUZBgIAEglVBhCv5hAp9WW2ABYAFgQBsDFplQYQsRYQKfVltgAWABYEAbAxaYUIWKFWELKVeJYQsrVluKW2BAUWAgAWELPJKRkGEgu1ZbYEBRYCCBgwMDgVKQYEBSgFGQYCABIJVQYQtcYQKfVltgAWABYEAbAxaZUGELb2ECn1ZbYAFgAWBAGwMWmFCFiYsWYEBRYCABYQuPkpGQYSC7VltgQFFgIIGDAwOBUpBgQFKAUZBgIAEglVBhC69hAp9WW2ABYAFgQBsDFplQYQvCYQKfVltgAWABYEAbAxaYUIWJixdgQFFgIAFhC+KSkZBhILtWW2BAUWAggYMDA4FSkGBAUoBRkGAgASCVUGEMAmECn1ZbYAFgAWBAGwMWmVBhDBVhAp9WW2ABYAFgQBsDFphQhYmLGGBAUWAgAWEMNZKRkGEgu1ZbYEBRYCCBgwMDgVKQYEBSgFGQYCABIJVQYQxVYQKfVltgAWABYEAbAxaZUIWKGWBAUWAgAWEMdJKRkGEgu1ZbYEBRYCCBgwMDgVKQYEBSgFGQYCABIJVQhYBgABpg+BtgQFFgIAFhDKWSkZBhIXhWW2BAUWAggYMDA4FSkGBAUoBRkGAgASCVUGEMxWECn1ZbYAFgAWBAGwMWmVCFYAGLkBtgQFFgIAFhDOeSkZBhILtWW2BAUWAggYMDA4FSkGBAUoBRkGAgASCVUGENB2ECn1ZbYAFgAWBAGwMWmVCFYAGLkBxgQFFgIAFhDSmSkZBhILtWW2BAUWAggYMDA4FSkGBAUoBRkGAgASCVUGENSWECn1ZbYAFgAWBAGwMWmVCFYAGLkB1gQFFgIAFhDWuSkZBhILtWW2BAUWAggYMDA4FSkGBAUoBRkGAgASCVUIWUUIQwYEBRYCABYQ2ZkpGQYSHXVltgQFFgIIGDAwOBUpBgQFKAUZBgIAEglVCFMIA7YCCBAWBAUZCBAWBAUoGBUmAAkIBgIAGQkzxgQFFgIAFhDeCSkZBhIiVWW2BAUWAggYMDA4FSkGBAUoBRkGAgASCVUIUwP2BAUWAgAWEODJKRkGEgu1ZbYEBRYCCBgwMDgVKQYEBSgFGQYCABIJVQhWAAMWBAUWAgAWEOOZKRkGEgu1ZbYEBRYCCBgwMDgVKQYEBSgFGQYCABIJVQhUdgQFFgIAFhDmSSkZBhILtWW2BAUWAggYMDA4FSkGBAUoBRkGAgASCVUIVaYEBRYCABYQ6PkpGQYSC7VltgQFFgIIGDAwOBUpBgQFKAUZBgIAEglVBgAYCNFgNhDwhXhTJgQFFgIAFhDsSSkZBhIddWW2BAUWAggYMDA4FSkGBAUoBRkGAgASCVUIU6YEBRYCABYQ7vkpGQYSC7VltgQFFgIIGDAwOBUpBgQFKAUZBgIAEglVBbhZNQYAEZYAKNFgFhD9NXhTNgQFFgIAFhDyqSkZBhIddWW2BAUWAggYMDA4FSkGBAUoBRkGAgASCVUIVgADZgQFFgIAFhD1iTkpGQYSJUVltgQFFgIIGDAwOBUpBgQFKAUZBgIAEglVCFYAA1YAFgAWDgGwMZFmBAUWAgAWEPj5KRkGEiilZbYEBRYCCBgwMDgVKQYEBSgFGQYCABIJVQhTRgQFFgIAFhD7qSkZBhILtWW2BAUWAggYMDA4FSkGBAUoBRkGAgASCVUFuFklBgAxlgBI0WAWERPFeFQ0BgQFFgIAFhD/aSkZBhILtWW2BAUWAggYMDA4FSkGBAUoBRkGAgASCVUIVIYEBRYCABYRAhkpGQYSC7VltgQFFgIIGDAwOBUpBgQFKAUZBgIAEglVCFRmBAUWAgAWEQTJKRkGEgu1ZbYEBRYCCBgwMDgVKQYEBSgFGQYCABIJVQhUFgQFFgIAFhEHeSkZBhIddWW2BAUWAggYMDA4FSkGBAUoBRkGAgASCVUIVEYEBRYCABYRCikpGQYSC7VltgQFFgIIGDAwOBUpBgQFKAUZBgIAEglVCFRWBAUWAgAWEQzZKRkGEgu1ZbYEBRYCCBgwMDgVKQYEBSgFGQYCABIJVQhUNgQFFgIAFhEPiSkZBhILtWW2BAUWAggYMDA4FSkGBAUoBRkGAgASCVUIVCYEBRYCABYREjkpGQYSC7VltgQFFgIIGDAwOBUpBgQFKAUZBgIAEglVBbhZFQYAcZYAiNFgFhFtpXYRFTYQKfVltgAWABYEAbAxaZUGAAYEBRYRFskGEcB1ZbYEBRgJEDkGAA8IAVgBVhEYhXPWAAgD49YAD9W1CQUGAAi2BAUWERmpBhHAdWW4GQYEBRgJEDkGAA9ZBQgBWAFWERulc9YACAPj1gAP1bUJBQgGABYAFgoBsDFmPttFUpM2BAUYJj/////xZg4BuBUmAEAWER6ZGQYSK5VltgAGBAUYCDA4FgAIeAOxWAFWESA1dgAID9W1Ba8RWAFWESF1c9YACAPj1gAP1bUFBQUIFgAWABYKAbAxZj0J3gimBAUYFj/////xZg4BuBUmAEAWAgYEBRgIMDgWAAh1rxFYAVYRJbVz1gAIA+PWAA/VtQUFBQYEBRYB89kIEBYB8ZFoIBYEBSYRJ+kZCBAZBhItZWW5tQh4xgQFFgIAFhEpOSkZBhILtWW2BAUWAggYMDA4FSkGBAUoBRkGAgASCXUIFgAWABYKAbAxZjLvw87mBAUYFj/////xZg4BuBUmAEAWAAYEBRgIMDgWAAh4A7FYAVYRLmV2AAgP1bUFrxklBQUIAVYRL3V1BgAVthEy1XPYCAFWETJVdgQFE9YD8BYB8ZFoEBYEBSPYFSkVA9YABgIIQBPmETKlZbYGCRUFtQUFuHgmABYAFgoBsDFoA7gGAgAWBAUZCBAWBAUoGBUmAAkIBgIAGQkzxgQFFgIAFhE2WSkZBhIiVWW2BAUWAggYMDA4FSkGBAUoBRkGAgASCXUIeCYAFgAWCgGwMWP2BAUWAgAWETmpKRkGEgu1ZbYEBRYCCBgwMDgVKQYEBSgFGQYCABIJdQgWABYAFgoBsDFmHDUGBAUWAkAWBAUWAfGYGDAwGBUmBAkZCRUmNoTvBFYOEbYCCCAYBRYAFgAWDgGwMWkJEXkFJgQFFhFACRkGEi91ZbYABgQFGAgwOBYACHh/GSUFBQPYBgAIEUYRQ+V2BAUT1gPwFgHxkWgQFgQFI9gVKRUD1gAGAghAE+YRRDVltgYJFQW1BgA2AAYAJhFFSEgmEj8lZbUIFUYP9hAQCSkJIKgoECGZCRFpQVFQKTkJMXkFVQYANUiZEWYAJgQFFgIAFhFIyTkpGQYSVuVltgQFFgIIGDAwOBUpBgQFKAUZBgIAEgl1CBYAFgAWCgGwMWYcNQYEBRYCQBYEBRYB8ZgYMDAYFSYECRkJFSY2hO8EVg4RtgIIIBgFFgAWABYOAbAxaQkReQUmBAUWEU8pGQYSL3VltgAGBAUYCDA4GGhvSSUFBQPYBgAIEUYRUuV2BAUT1gPwFgHxkWgQFgQFI9gVKRUD1gAGAghAE+YRUzVltgYJFQW1BgA2AAYAJhFUSEgmEj8lZbUIFUYP9hAQCSkJIKgoECGZCRFpQVFQKTkJMXkFVQYANUiZEWYAJgQFFgIAFhFXyTkpGQYSVuVltgQFFgIIGDAwOBUpBgQFKAUZBgIAEgl1CBYAFgAWCgGwMWYcNQYEBRYCQBYEBRYB8ZgYMDAYFSYECRkJFSY2hO8EVg4RtgIIIBgFFgAWABYOAbAxaQkReQUmBAUWEV4pGQYSL3VltgAGBAUYCDA4GGhvqSUFBQPYBgAIEUYRYeV2BAUT1gPwFgHxkWgQFgQFI9gVKRUD1gAGAghAE+YRYjVltgYJFQW1BgA2AAYAJhFjSEgmEj8lZbUIFUYP9hAQCSkJIKgoECGZCRFpQVFQKTkJMXkFVQYANUiZEWYAJgQFFgIAFhFmyTkpGQYSVuVltgQFFgIIGDAwOBUpBgQFKAUZBgIAEgl1CBYAFgAWCgGwMWYwfaaPVgQFGBY/////8WYOAbgVJgBAFgAGBAUYCDA4FgAIeAOxWAFWEWv1dgAID9W1Ba8RWAFWEW01c9YACAPj1gAP1bUFBQUFBQW2AQgI0WA2EajFdhFuxhAp9WW2ABYAFgQBsDFplQYRb/YQKfVltgAWABYEAbAxaYUGEXEmECn1ZbYAFgAWBAGwMWl1BgAGABgYyMjGBAUWAAgVJgIAFgQFJgQFFhF0KUk5KRkGElo1ZbYCBgQFFgIIEDkICEA5CFWvoVgBVhF2RXPWAAgD49YAD9W1BQUGAgYEBRA1GQUIaBYEBRYCABYReDkpGQYSHXVltgQFFgIIGDAwOBUpBgQFKAUZBgIAEgllBhF6NhAp9WW2ABYAFgQBsDFppQhmACjGBAUWAgAWEXwpGQYSCOVltgQFFgIIGDAwOBUpBgQFJgQFFhF96RkGEi91ZbYCBgQFGAgwOBhVr6FYAVYRf7Vz1gAIA+PWAA/VtQUFBgQFFgHz2QgQFgHxkWggFgQFJhGB2RkIEBkGEi1lZbYEBRYCABYRgukpGQYSC7VltgQFFgIIGDAwOBUpBgQFKAUZBgIAEgllBhGE5hAp9WW2ABYAFgQBsDFppQhmADjGBAUWAgAWEYbZGQYSCOVltgQFFgIIGDAwOBUpBgQFJgQFFhGImRkGEi91ZbYCBgQFGAgwOBhVr6FYAVYRimVz1gAIA+PWAA/VtQUFBgQFFRYGAbYEBRYCABYRjBkpGQYSXtVltgQFFgIIGDAwOBUpBgQFKAUZBgIAEgllBhGOFhAp9WW2ABYAFgQBsDFppQhmEZFYxgQFFgIAFhGQGRkGEcOFZbYEBRYCCBgwMDgVKQYEBSYQPSVltgQFFgIAFhGSaSkZBhIiVWW2BAUWAggYMDA4FSkGBAUoBRkGAgASCWUGEZRmECn1ZbYAFgAWBAGwMWmlBhGVlhAp9WW2ABYAFgQBsDFplQhmEZcYxgGI1hAvtWW2BAUWAgAWEZgpKRkGEgu1ZbYEBRYCCBgwMDgVKQYEBSgFGQYCABIJZQYRmiYQKfVltgAWABYEAbAxaaUGEZtWECn1ZbYAFgAWBAGwMWmVBhGchhAp9WW2ABYAFgQBsDFphQYRnbYQKfVltgAWABYEAbAxaXUIZhGfOMjIyMYQNJVltgQFFgIAFhGgSSkZBhJjVWW2BAUWAggYMDA4FSkGBAUoBRkGAgASCWUGEaJGECn1ZbYAFgAWBAGwMWmlBhGjdhAp9WW2ABYAFgQBsDFplQYRpKYQKfVltgAWABYEAbAxaYUIZhGmGMjIxhG49WW2BAUWAgAWEacpKRkGEmNVZbYEBRYCCBgwMDgVKQYEBSgFGQYCABIJZQUFthGpeBYAFhJltWW5BQYQSqVltQg39DeJsw5MbVPic15XASB7BSmyzCKbG7ArlpHTnqIY2n12BAUWBAUYCRA5CigoR/LLhghrx2EHgvyGBrpogAzSGyz1vZ2fgBOQGQWm/06l1gQFFgQFGAkQOQo4GDhX+UoiRQ6nEm1bSPOCHvCccnIHktJbwmDsRaICITgFZ5XWBAUWBAUYCRA5CkgYOFf48xFOAAuU+mmMqzw4lpAH/0bV2AqUXc3nZTcrHROD9ShGBAUWEbW5GQYRw4VltgQFGAkQOQpGABYAFgQBsDjRZgAJCBUmABYCBShZBgQJAgVVCSm5pQUFBQUFBQUFBQUFZbYRuXYRvQVlthG59hHBRWW4SBUmAggQGEkFJgQICCAYSQUoJgYINgAGAHWvGAgGEbxldgAID9W1BQUJOSUFBQVltgQFFgQICCAYFSYAKQgpCANoM3UJGSkVBQVltgQFFggICCAWBAUmAEkIKQgDaDN1CRkpFQUFZbYQI9gGEmfIM5AZBWW2BAUWBggIIBYEBSYAOQgpCANoM3UJGSkVBQVluAW4JSUFBWW2AggQFhHEaChGEcMFZbkpFQUFZbYAFgAWBAGwOBFmEcMlZbYCCBAWEcRoKEYRxMVluAW4EUYRx2V2AAgP1bUFZbgDVhHEaBYRxpVltgAIBgAGBghIYDEhVhHJxXYRycYACA/VtgAGEcqIaGYRx5VluTUFBgIGEcuYaChwFhHHlWW5JQUGBAYRzKhoKHAWEceVZbkVBQklCSUJJWW2AAYCCChAMSFWEc6VdhHOlgAID9W2AAYRz1hIRhHHlWW5STUFBQUFZbYACAYACAYICFhwMSFWEdFldhHRZgAID9W2AAYR0ih4dhHHlWW5RQUGAgYR0zh4KIAWEceVZbk1BQYEBhHUSHgogBYRx5VluSUFBgYGEdVYeCiAFhHHlWW5FQUJKVkZRQklBWW2AAYR1tg4NhHDBWW1BQYCABkFZbYAKBgGAAW4OBEBVhHaFXgVFhHZCHgmEdYVZbllBgIIMBklBQYAEBYR18VltQUFBQUFBWW2BAgQFhHEaChGEddVZbY05Ie3Fg4BtgAFJgQWAEUmAkYAD9W2AfGWAfgwEWgQGBgRBgAWABYEAbA4IRFxVhHfJXYR3yYR23VltgQFJQUFZbYABhHghgAGBAUZBQkFZbkFBhHhSCgmEdzVZbkZBQVltgAGABYAFgQBsDghEVYR4yV2EeMmEdt1ZbYB8ZYB+DARZgIAGSkVBQVluCgYM3UGAAkQFSVltgAGEeYmEeXYRhHhlWW2Ed+VZbkFCCgVJgIIEBhISEAREVYR59V2EefWAAgP1bYR6IhIKFYR5DVltQk5JQUFBWW2AAgmAfgwESYR6kV2EepGAAgP1bgTVhHPWEgmAghgFhHk9WW2AAYCCChAMSFWEeyVdhHslgAID9W4E1YAFgAWBAGwOBERVhHuJXYR7iYACA/VthHPWEgoUBYR6QVltgAFuDgRAVYR8JV4CCAVGDggFSYCABYR7xVltQUGAAkQFSVltgAGEfIoJgAIFRkpFQUFZbgIRSYCCEAZNQYR85gYVgIIYBYR7uVltgHwFgHxkWkpCSAZKRUFBWW2AggIJSgQFhH1uBhGEfElZbk5JQUFBWW2ABYAFgQBsDgRZhHGtWW4A1YRxGgWEfYlZbY/////+BFmEca1ZbgDVhHEaBYR98VltgAIBgAGBghIYDEhVhH6tXYR+rYACA/VtgAGEft4aGYR9xVluTUFBgIGEcuYaChwFhH4hWW2NOSHtxYOAbYABSYBFgBFJgJGAA/VtgAWABYEAbA5GCFpGQgRaQgoICkIEWkIGBFGEENFdhBDRhH8hWW2ABYAFgQBsDkYIWkZCBFpCCggGQgREVYRxGV2EcRmEfyFZbY05Ie3Fg4BtgAFJgEmAEUmAkYAD9W2AAYAFgAWBAGwOCFpFQYAFgAWBAGwODFluSUIJhIGVXYSBlYSAnVltQBpBWW2AAgmEgVlZbgIIBgIIRFWEcRldhHEZhH8hWW4BhHDJWW5BWW2AAYSCagoRhIIVWW1BgIAGRkFBWW4GBAoCCFYOCBIUUF2EENFdhBDRhH8hWW2AAYSDHgoVhIIVWW2AgggGRUGEg14KEYSCFVltQYCABkpFQUFZbYACCYSDwV2Eg8GEgJ1ZbUASQVluBgQKAYACDEmABYP8bhRQWFWEhEldhIRJhH8hWW4KCBYQUgxUXYQQ0V2EENGEfyFZbYACCYSE1V2EhNWEgJ1ZbYAFg/xuCFGAAGYQUFhVhIU9XYSFPYR/IVltQBZBWW2AAgmEhY1dhIWNhICdWW1AHkFZbYAFgAWD4GwMZgRZhHDJWW2AAYSGEgoVhIIVWW2AgggGRUGEhlIKEYSFoVltQYAEBkpFQUFZbYABgAWABYKAbA4IWYRxGVltgAGEcRoJgYBuQVltgAGEcRoJhIa9WW2EcMmEh0oJhIZ5WW2Ehu1ZbYABhIeOChWEghVZbYCCCAZFQYSHzgoRhIcZWW1BgFAGSkVBQVltgAGEiDYJgAIFRkpFQUFZbYSIbgYVgIIYBYR7uVluSkJIBkpFQUFZbYABhIjGChWEghVZbYCCCAZFQYRz1goRhIf1WW2AAYSJOg4WEYR5DVltQUAGQVltgAGEiYIKGYSCFVltgIIIBkVBhInGChIZhIkFWW5WUUFBQUFBWW2ABYAFg4BsDGYEWYRwyVltgAGEiloKFYSCFVltgIIIBkVBhIqaChGEielZbUGAEAZKRUFBWW2EcMoFhIZ5WW2AggQFhHEaChGEisFZbYACBUZBQYRxGgWEcaVZbYABgIIKEAxIVYSLrV2Ei62AAgP1bYABhHPWEhGEix1ZbYABhH1uChGEh/VZbY05Ie3Fg4BtgAFJgImAEUmAkYAD9W2ACgQRgAYIWgGEjLVdgf4IWkVBbYCCCEIEDYSM/V2EjP2EjA1ZbUJGQUFZbYABhHEZhIIuDgVZbYSNag2EjRVZbgVRgABlgCJSQlAKThBsZFpIbkZCRF5BVUFZbYABhI4KBhIRhI1FWW1BQUFZbgYEQFWEjoldhI5pgAIJhI3VWW2ABAWEjh1ZbUFBWW2AfghEVYSOCV2EjxIFgAIGBUoGQYCCQIJKRUFBWW2AgYB+FAQSBAWAghRAVYSPZV1CAW2Ej62AgYB+GAQSDAYJhI4dWW1BQUFBQVlthJACCYACBUZKRUFBWW2ABYAFgQBsDgREVYSQXV2EkF2Edt1ZbYSQhglRhIxlWW2EkLIKChWEjplZbYCBgH4MRYAGBFGEkYVdgAIQVYSRJV4KHAVGQUFtgABlgCIYCHBmBFmAChgIXhlVQYR2hVltgHxmEFmEke4ZgAIGBUoGQYCCQIJKRUFBWW2AAW4KBEBVhJJ5XhIkBUYJVYCCUhQGUYAGQkgGRAWEkflZbhoMQFWEkuleEiQFRYAAZYB+JFmAIAhwZFoJVW2ABYAKIAgGIVVBQUFBQUFBQUFZbYABhHEaCYPgbkFZbYABhHEaCYSTOVlthHDKBFRVhJNpWW2AAgVRhJP2BYSMZVltgAYIWgBVhJRRXYAGBFGElKVdhJWVWW2D/GYMWhlKBFRWCAoYBk1BhJWVWW2ElPoVgAIGBUoGQYCCQIJKRUFBWW2AAW4OBEBVhJV1XgVSIggFSYAGQkQGQYCABYSVBVluDiAGVUFBQW1BQUJKRUFBWW2AAYSV6goZhIIVWW2AgggGRUGElioKFYSTlVltgAYIBkVBhInGChGEk8FZbYP+BFmEcMlZbYICBAWElsYKHYRwwVlthJb5gIIMBhmElmlZbYSXLYECDAYVhHDBWW2EicWBggwGEYRwwVltr////////////////GYEWYRwyVltgAGEl+YKFYSCFVltgIIIBkVBhIfOChGEl2FZbYAKBgGAAW4OBEBVhHaFXgVFhJiSHgmEdYVZbllBgIIMBklBQYAEBYSYQVltgAGEmQYKFYSCFVltgIIIBkVBhJlGChGEmCVZbUGBAAZKRUFBWW2P/////kYIWkZCBFpCCggGQgREVYRxGV2EcRmEfyFb+YIBgQFI0gBVhABBXYACA/VtQYQIdgGEAIGAAOWAA8/5ggGBAUjSAFWEAEFdgAID9W1BgBDYQYQBiV2AANWDgHIBjB9po9RRhAGdXgGMu/DzuFGEAcVeAYz+1wcsUYQB5V4Bjg4H1ihRhAIxXgGPQneCKFGEAq1eAY+20VSkUYQCzV1tgAID9W2EAb2EAxlZbAFthAG9hANtWW2EAb2EAhzZgBGEBPFZbYABVVlthAJVgAFSBVltgQFFhAKKRkGEBZVZbYEBRgJEDkPNbYQCVYQDzVlthAG9hAME2YARhAZZWW2EBD1ZbYACAVJCAYQDVg2EBzVZbkZBQVQBbYACAVJCAYQDqg2EBzVZbkZBQVWAAgP1bYACAVIGAYQECg2EBzVZbkZBQVVBgAFSQUJBWW4BgAWABYKAbAxb/W4BbgRRhAShXYACA/VtQVluANWEBNoFhARtWW5KRUFBWW2AAYCCChAMSFWEBUVdhAVFgAID9W2AAYQFdhIRhAStWW5STUFBQUFZbgYFSYCCBAWEBNlZbYABgAWABYKAbA4IWYQE2VlthAR2BYQFxVluANWEBNoFhAYJWW2AAYCCChAMSFWEBq1dhAatgAID9W2AAYQFdhIRhAYtWW2NOSHtxYOAbYABSYBFgBFJgJGAA/VtgAGAAGYIDYQHgV2EB4GEBt1ZbUGABAZBW/qJkaXBmc1giEiCnrnbn50RyuM4hffrJnVe0IzXyMSf5l1vn/dGQa508K2Rzb2xjQwAIEwAzomRpcGZzWCISIPC3ZkHMXTN5Mi9FUD9DHjM8ZnbRC3JF+rNeQmuSa3jDZHNvbGNDAAgTADM=",
          "touched": true,
          "read": true
        },
        "0x7B945cb4A443EDa80512B52de86fd807f13Fc6ff": {
          "address": "0x7B945cb4A443EDa80512B52de86fd807f13Fc6ff",
          "nonce": 1,
          "code": "YIBgQFI0gBVhABBXYACA/VtQYAQ2EGEAYldgADVg4ByAYwfaaPUUYQBnV4BjLvw87hRhAHFXgGM/tcHLFGEAeVeAY4OB9YoUYQCMV4Bj0J3gihRhAKtXgGPttFUpFGEAs1dbYACA/VthAG9hAMZWWwBbYQBvYQDbVlthAG9hAIc2YARhATxWW2AAVVZbYQCVYABUgVZbYEBRYQCikZBhAWVWW2BAUYCRA5DzW2EAlWEA81ZbYQBvYQDBNmAEYQGWVlthAQ9WW2AAgFSQgGEA1YNhAc1WW5GQUFUAW2AAgFSQgGEA6oNhAc1WW5GQUFVgAID9W2AAgFSBgGEBAoNhAc1WW5GQUFVQYABUkFCQVluAYAFgAWCgGwMW/1uAW4EUYQEoV2AAgP1bUFZbgDVhATaBYQEbVluSkVBQVltgAGAggoQDEhVhAVFXYQFRYACA/VtgAGEBXYSEYQErVluUk1BQUFBWW4GBUmAggQFhATZWW2AAYAFgAWCgGwOCFmEBNlZbYQEdgWEBcVZbgDVhATaBYQGCVltgAGAggoQDEhVhAatXYQGrYACA/VtgAGEBXYSEYQGLVltjTkh7cWDgG2AAUmARYARSYCRgAP1bYABgABmCA2EB4FdhAeBhAbdWW1BgAQGQVv6iZGlwZnNYIhIgp6525+dEcrjOIX36yZ1XtCM18jEn+Zdb5/3RkGudPCtkc29sY0MACBMAMw==",
          "code_read": "YIBgQFI0gBVhABBXYACA/VtQYAQ2EGEAYldgADVg4ByAYwfaaPUUYQBnV4BjLvw87hRhAHFXgGM/tcHLFGEAeVeAY4OB9YoUYQCMV4Bj0J3gihRhAKtXgGPttFUpFGEAs1dbYACA/VthAG9hAMZWWwBbYQBvYQDbVlthAG9hAIc2YARhATxWW2AAVVZbYQCVYABUgVZbYEBRYQCikZBhAWVWW2BAUYCRA5DzW2EAlWEA81ZbYQBvYQDBNmAEYQGWVlthAQ9WW2AAgFSQgGEA1YNhAc1WW5GQUFUAW2AAgFSQgGEA6oNhAc1WW5GQUFVgAID9W2AAgFSBgGEBAoNhAc1WW5GQUFVQYABUkFCQVluAYAFgAWCgGwMW/1uAW4EUYQEoV2AAgP1bUFZbgDVhATaBYQEbVluSkVBQVltgAGAggoQDEhVhAVFXYQFRYACA/VtgAGEBXYSEYQErVluUk1BQUFBWW4GBUmAggQFhATZWW2AAYAFgAWCgGwOCFmEBNlZbYQEdgWEBcVZbgDVhATaBYQGCVltgAGAggoQDEhVhAatXYQGrYACA/VtgAGEBXYSEYQGLVltjTkh7cWDgG2AAUmARYARSYCRgAP1bYABgABmCA2EB4FdhAeBhAbdWW1BgAQGQVv6iZGlwZnNYIhIgp6525+dEcrjOIX36yZ1XtCM18jEn+Zdb5/3RkGudPCtkc29sY0MACBMAMw==",
          "suicide": true,
          "touched": true,
          "read": true
        },
        "0x7f0480640BB89A19324292C5dE95F6f629e2139E": {
          "address": "0x7f0480640BB89A19324292C5dE95F6f629e2139E",
          "read": true
        },
        "0x85dA99c8a7C2C95964c8EfD687E95E632Fc533D6": {
          "address": "0x85dA99c8a7C2C95964c8EfD687E95E632Fc533D6",
          "nonce": 4904,
          "read": true
        },
        "0xB688659958dFe24375Ed7C6F72aa3ae2D5756282": {
          "address": "0xB688659958dFe24375Ed7C6F72aa3ae2D5756282",
          "nonce": 1,
          "storage": {
            "0x0000000000000000000000000000000000000000000000000000000000000000": "0x0000000000000000000000000000000000000000000000000000000000000003"
          },
          "storage_read": {
            "0x0000000000000000000000000000000000000000000000000000000000000000": {}
          },
          "code": "YIBgQFI0gBVhABBXYACA/VtQYAQ2EGEAYldgADVg4ByAYwfaaPUUYQBnV4BjLvw87hRhAHFXgGM/tcHLFGEAeVeAY4OB9YoUYQCMV4Bj0J3gihRhAKtXgGPttFUpFGEAs1dbYACA/VthAG9hAMZWWwBbYQBvYQDbVlthAG9hAIc2YARhATxWW2AAVVZbYQCVYABUgVZbYEBRYQCikZBhAWVWW2BAUYCRA5DzW2EAlWEA81ZbYQBvYQDBNmAEYQGWVlthAQ9WW2AAgFSQgGEA1YNhAc1WW5GQUFUAW2AAgFSQgGEA6oNhAc1WW5GQUFVgAID9W2AAgFSBgGEBAoNhAc1WW5GQUFVQYABUkFCQVluAYAFgAWCgGwMW/1uAW4EUYQEoV2AAgP1bUFZbgDVhATaBYQEbVluSkVBQVltgAGAggoQDEhVhAVFXYQFRYACA/VtgAGEBXYSEYQErVluUk1BQUFBWW4GBUmAggQFhATZWW2AAYAFgAWCgGwOCFmEBNlZbYQEdgWEBcVZbgDVhATaBYQGCVltgAGAggoQDEhVhAatXYQGrYACA/VtgAGEBXYSEYQGLVltjTkh7cWDgG2AAUmARYARSYCRgAP1bYABgABmCA2EB4FdhAeBhAbdWW1BgAQGQVv6iZGlwZnNYIhIgp6525+dEcrjOIX36yZ1XtCM18jEn+Zdb5/3RkGudPCtkc29sY0MACBMAMw==",
          "code_read": "YIBgQFI0gBVhABBXYACA/VtQYAQ2EGEAYldgADVg4ByAYwfaaPUUYQBnV4BjLvw87hRhAHFXgGM/tcHLFGEAeVeAY4OB9YoUYQCMV4Bj0J3gihRhAKtXgGPttFUpFGEAs1dbYACA/VthAG9hAMZWWwBbYQBvYQDbVlthAG9hAIc2YARhATxWW2AAVVZbYQCVYABUgVZbYEBRYQCikZBhAWVWW2BAUYCRA5DzW2EAlWEA81ZbYQBvYQDBNmAEYQGWVlthAQ9WW2AAgFSQgGEA1YNhAc1WW5GQUFUAW2AAgFSQgGEA6oNhAc1WW5GQUFVgAID9W2AAgFSBgGEBAoNhAc1WW5GQUFVQYABUkFCQVluAYAFgAWCgGwMW/1uAW4EUYQEoV2AAgP1bUFZbgDVhATaBYQEbVluSkVBQVltgAGAggoQDEhVhAVFXYQFRYACA/VtgAGEBXYSEYQErVluUk1BQUFBWW4GBUmAggQFhATZWW2AAYAFgAWCgGwOCFmEBNlZbYQEdgWEBcVZbgDVhATaBYQGCVltgAGAggoQDEhVhAatXYQGrYACA/VtgAGEBXYSEYQGLVltjTkh7cWDgG2AAUmARYARSYCRgAP1bYABgABmCA2EB4FdhAeBhAbdWW1BgAQGQVv6iZGlwZnNYIhIgp6525+dEcrjOIX36yZ1XtCM18jEn+Zdb5/3RkGudPCtkc29sY0MACBMAMw==",
          "touched": true,
          "read": true
        },
        "0xF06Bd87FBcd6f4353a5dA2961ba5D1DEAd88B6Bc": {
          "address": "0xF06Bd87FBcd6f4353a5dA2961ba5D1DEAd88B6Bc",
          "nonce": 1,
          "storage": {
            "0x0000000000000000000000000000000000000000000000000000000000000000": "0x0000000000000000000000000000000000000000000000000000000000000003"
          },
          "storage_read": {
            "0x0000000000000000000000000000000000000000000000000000000000000000": {}
          },
          "code": "YIBgQFI0gBVhABBXYACA/VtQYAQ2EGEAYldgADVg4ByAYwfaaPUUYQBnV4BjLvw87hRhAHFXgGM/tcHLFGEAeVeAY4OB9YoUYQCMV4Bj0J3gihRhAKtXgGPttFUpFGEAs1dbYACA/VthAG9hAMZWWwBbYQBvYQDbVlthAG9hAIc2YARhATxWW2AAVVZbYQCVYABUgVZbYEBRYQCikZBhAWVWW2BAUYCRA5DzW2EAlWEA81ZbYQBvYQDBNmAEYQGWVlthAQ9WW2AAgFSQgGEA1YNhAc1WW5GQUFUAW2AAgFSQgGEA6oNhAc1WW5GQUFVgAID9W2AAgFSBgGEBAoNhAc1WW5GQUFVQYABUkFCQVluAYAFgAWCgGwMW/1uAW4EUYQEoV2AAgP1bUFZbgDVhATaBYQEbVluSkVBQVltgAGAggoQDEhVhAVFXYQFRYACA/VtgAGEBXYSEYQErVluUk1BQUFBWW4GBUmAggQFhATZWW2AAYAFgAWCgGwOCFmEBNlZbYQEdgWEBcVZbgDVhATaBYQGCVltgAGAggoQDEhVhAatXYQGrYACA/VtgAGEBXYSEYQGLVltjTkh7cWDgG2AAUmARYARSYCRgAP1bYABgABmCA2EB4FdhAeBhAbdWW1BgAQGQVv6iZGlwZnNYIhIgp6525+dEcrjOIX36yZ1XtCM18jEn+Zdb5/3RkGudPCtkc29sY0MACBMAMw==",
          "code_read": "YIBgQFI0gBVhABBXYACA/VtQYAQ2EGEAYldgADVg4ByAYwfaaPUUYQBnV4BjLvw87hRhAHFXgGM/tcHLFGEAeVeAY4OB9YoUYQCMV4Bj0J3gihRhAKtXgGPttFUpFGEAs1dbYACA/VthAG9hAMZWWwBbYQBvYQDbVlthAG9hAIc2YARhATxWW2AAVVZbYQCVYABUgVZbYEBRYQCikZBhAWVWW2BAUYCRA5DzW2EAlWEA81ZbYQBvYQDBNmAEYQGWVlthAQ9WW2AAgFSQgGEA1YNhAc1WW5GQUFUAW2AAgFSQgGEA6oNhAc1WW5GQUFVgAID9W2AAgFSBgGEBAoNhAc1WW5GQUFVQYABUkFCQVluAYAFgAWCgGwMW/1uAW4EUYQEoV2AAgP1bUFZbgDVhATaBYQEbVluSkVBQVltgAGAggoQDEhVhAVFXYQFRYACA/VtgAGEBXYSEYQErVluUk1BQUFBWW4GBUmAggQFhATZWW2AAYAFgAWCgGwOCFmEBNlZbYQEdgWEBcVZbgDVhATaBYQGCVltgAGAggoQDEhVhAatXYQGrYACA/VtgAGEBXYSEYQGLVltjTkh7cWDgG2AAUmARYARSYCRgAP1bYABgABmCA2EB4FdhAeBhAbdWW1BgAQGQVv6iZGlwZnNYIhIgp6525+dEcrjOIX36yZ1XtCM18jEn+Zdb5/3RkGudPCtkc29sY0MACBMAMw==",
          "touched": true,
          "read": true
        },
        "0xaabC25D84bD8d83CC2fE2871EB70221b24Ca6088": {
          "address": "0xaabC25D84bD8d83CC2fE2871EB70221b24Ca6088",
          "nonce": 1,
          "code": "YIBgQFI0gBVhABBXYACA/VtQYAQ2EGEAYldgADVg4ByAYwfaaPUUYQBnV4BjLvw87hRhAHFXgGM/tcHLFGEAeVeAY4OB9YoUYQCMV4Bj0J3gihRhAKtXgGPttFUpFGEAs1dbYACA/VthAG9hAMZWWwBbYQBvYQDbVlthAG9hAIc2YARhATxWW2AAVVZbYQCVYABUgVZbYEBRYQCikZBhAWVWW2BAUYCRA5DzW2EAlWEA81ZbYQBvYQDBNmAEYQGWVlthAQ9WW2AAgFSQgGEA1YNhAc1WW5GQUFUAW2AAgFSQgGEA6oNhAc1WW5GQUFVgAID9W2AAgFSBgGEBAoNhAc1WW5GQUFVQYABUkFCQVluAYAFgAWCgGwMW/1uAW4EUYQEoV2AAgP1bUFZbgDVhATaBYQEbVluSkVBQVltgAGAggoQDEhVhAVFXYQFRYACA/VtgAGEBXYSEYQErVluUk1BQUFBWW4GBUmAggQFhATZWW2AAYAFgAWCgGwOCFmEBNlZbYQEdgWEBcVZbgDVhATaBYQGCVltgAGAggoQDEhVhAatXYQGrYACA/VtgAGEBXYSEYQGLVltjTkh7cWDgG2AAUmARYARSYCRgAP1bYABgABmCA2EB4FdhAeBhAbdWW1BgAQGQVv6iZGlwZnNYIhIgp6525+dEcrjOIX36yZ1XtCM18jEn+Zdb5/3RkGudPCtkc29sY0MACBMAMw==",
          "code_read": "YIBgQFI0gBVhABBXYACA/VtQYAQ2EGEAYldgADVg4ByAYwfaaPUUYQBnV4BjLvw87hRhAHFXgGM/tcHLFGEAeVeAY4OB9YoUYQCMV4Bj0J3gihRhAKtXgGPttFUpFGEAs1dbYACA/VthAG9hAMZWWwBbYQBvYQDbVlthAG9hAIc2YARhATxWW2AAVVZbYQCVYABUgVZbYEBRYQCikZBhAWVWW2BAUYCRA5DzW2EAlWEA81ZbYQBvYQDBNmAEYQGWVlthAQ9WW2AAgFSQgGEA1YNhAc1WW5GQUFUAW2AAgFSQgGEA6oNhAc1WW5GQUFVgAID9W2AAgFSBgGEBAoNhAc1WW5GQUFVQYABUkFCQVluAYAFgAWCgGwMW/1uAW4EUYQEoV2AAgP1bUFZbgDVhATaBYQEbVluSkVBQVltgAGAggoQDEhVhAVFXYQFRYACA/VtgAGEBXYSEYQErVluUk1BQUFBWW4GBUmAggQFhATZWW2AAYAFgAWCgGwOCFmEBNlZbYQEdgWEBcVZbgDVhATaBYQGCVltgAGAggoQDEhVhAatXYQGrYACA/VtgAGEBXYSEYQGLVltjTkh7cWDgG2AAUmARYARSYCRgAP1bYABgABmCA2EB4FdhAeBhAbdWW1BgAQGQVv6iZGlwZnNYIhIgp6525+dEcrjOIX36yZ1XtCM18jEn+Zdb5/3RkGudPCtkc29sY0MACBMAMw==",
          "suicide": true,
          "touched": true,
          "read": true
        },
        "0xe177Ea41142d615d7cd0f50c5576e719FB2b6fE8": {
          "address": "0xe177Ea41142d615d7cd0f50c5576e719FB2b6fE8",
          "nonce": 1,
          "code": "YIBgQFI0gBVhABBXYACA/VtQYAQ2EGEAYldgADVg4ByAYwfaaPUUYQBnV4BjLvw87hRhAHFXgGM/tcHLFGEAeVeAY4OB9YoUYQCMV4Bj0J3gihRhAKtXgGPttFUpFGEAs1dbYACA/VthAG9hAMZWWwBbYQBvYQDbVlthAG9hAIc2YARhATxWW2AAVVZbYQCVYABUgVZbYEBRYQCikZBhAWVWW2BAUYCRA5DzW2EAlWEA81ZbYQBvYQDBNmAEYQGWVlthAQ9WW2AAgFSQgGEA1YNhAc1WW5GQUFUAW2AAgFSQgGEA6oNhAc1WW5GQUFVgAID9W2AAgFSBgGEBAoNhAc1WW5GQUFVQYABUkFCQVluAYAFgAWCgGwMW/1uAW4EUYQEoV2AAgP1bUFZbgDVhATaBYQEbVluSkVBQVltgAGAggoQDEhVhAVFXYQFRYACA/VtgAGEBXYSEYQErVluUk1BQUFBWW4GBUmAggQFhATZWW2AAYAFgAWCgGwOCFmEBNlZbYQEdgWEBcVZbgDVhATaBYQGCVltgAGAggoQDEhVhAatXYQGrYACA/VtgAGEBXYSEYQGLVltjTkh7cWDgG2AAUmARYARSYCRgAP1bYABgABmCA2EB4FdhAeBhAbdWW1BgAQGQVv6iZGlwZnNYIhIgp6525+dEcrjOIX36yZ1XtCM18jEn+Zdb5/3RkGudPCtkc29sY0MACBMAMw==",
          "code_read": "YIBgQFI0gBVhABBXYACA/VtQYAQ2EGEAYldgADVg4ByAYwfaaPUUYQBnV4BjLvw87hRhAHFXgGM/tcHLFGEAeVeAY4OB9YoUYQCMV4Bj0J3gihRhAKtXgGPttFUpFGEAs1dbYACA/VthAG9hAMZWWwBbYQBvYQDbVlthAG9hAIc2YARhATxWW2AAVVZbYQCVYABUgVZbYEBRYQCikZBhAWVWW2BAUYCRA5DzW2EAlWEA81ZbYQBvYQDBNmAEYQGWVlthAQ9WW2AAgFSQgGEA1YNhAc1WW5GQUFUAW2AAgFSQgGEA6oNhAc1WW5GQUFVgAID9W2AAgFSBgGEBAoNhAc1WW5GQUFVQYABUkFCQVluAYAFgAWCgGwMW/1uAW4EUYQEoV2AAgP1bUFZbgDVhATaBYQEbVluSkVBQVltgAGAggoQDEhVhAVFXYQFRYACA/VtgAGEBXYSEYQErVluUk1BQUFBWW4GBUmAggQFhATZWW2AAYAFgAWCgGwOCFmEBNlZbYQEdgWEBcVZbgDVhATaBYQGCVltgAGAggoQDEhVhAatXYQGrYACA/VtgAGEBXYSEYQGLVltjTkh7cWDgG2AAUmARYARSYCRgAP1bYABgABmCA2EB4FdhAeBhAbdWW1BgAQGQVv6iZGlwZnNYIhIgp6525+dEcrjOIX36yZ1XtCM18jEn+Zdb5/3RkGudPCtkc29sY0MACBMAMw==",
          "suicide": true,
          "touched": true,
          "read": true
        },
        "0xfE6eb1A36e8147D7B762C0D16bCf01179f852A14": {
          "address": "0xfE6eb1A36e8147D7B762C0D16bCf01179f852A14",
          "nonce": 1,
          "code": "YIBgQFI0gBVhABBXYACA/VtQYAQ2EGEAYldgADVg4ByAYwfaaPUUYQBnV4BjLvw87hRhAHFXgGM/tcHLFGEAeVeAY4OB9YoUYQCMV4Bj0J3gihRhAKtXgGPttFUpFGEAs1dbYACA/VthAG9hAMZWWwBbYQBvYQDbVlthAG9hAIc2YARhATxWW2AAVVZbYQCVYABUgVZbYEBRYQCikZBhAWVWW2BAUYCRA5DzW2EAlWEA81ZbYQBvYQDBNmAEYQGWVlthAQ9WW2AAgFSQgGEA1YNhAc1WW5GQUFUAW2AAgFSQgGEA6oNhAc1WW5GQUFVgAID9W2AAgFSBgGEBAoNhAc1WW5GQUFVQYABUkFCQVluAYAFgAWCgGwMW/1uAW4EUYQEoV2AAgP1bUFZbgDVhATaBYQEbVluSkVBQVltgAGAggoQDEhVhAVFXYQFRYACA/VtgAGEBXYSEYQErVluUk1BQUFBWW4GBUmAggQFhATZWW2AAYAFgAWCgGwOCFmEBNlZbYQEdgWEBcVZbgDVhATaBYQGCVltgAGAggoQDEhVhAatXYQGrYACA/VtgAGEBXYSEYQGLVltjTkh7cWDgG2AAUmARYARSYCRgAP1bYABgABmCA2EB4FdhAeBhAbdWW1BgAQGQVv6iZGlwZnNYIhIgp6525+dEcrjOIX36yZ1XtCM18jEn+Zdb5/3RkGudPCtkc29sY0MACBMAMw==",
          "code_read": "YIBgQFI0gBVhABBXYACA/VtQYAQ2EGEAYldgADVg4ByAYwfaaPUUYQBnV4BjLvw87hRhAHFXgGM/tcHLFGEAeVeAY4OB9YoUYQCMV4Bj0J3gihRhAKtXgGPttFUpFGEAs1dbYACA/VthAG9hAMZWWwBbYQBvYQDbVlthAG9hAIc2YARhATxWW2AAVVZbYQCVYABUgVZbYEBRYQCikZBhAWVWW2BAUYCRA5DzW2EAlWEA81ZbYQBvYQDBNmAEYQGWVlthAQ9WW2AAgFSQgGEA1YNhAc1WW5GQUFUAW2AAgFSQgGEA6oNhAc1WW5GQUFVgAID9W2AAgFSBgGEBAoNhAc1WW5GQUFVQYABUkFCQVluAYAFgAWCgGwMW/1uAW4EUYQEoV2AAgP1bUFZbgDVhATaBYQEbVluSkVBQVltgAGAggoQDEhVhAVFXYQFRYACA/VtgAGEBXYSEYQErVluUk1BQUFBWW4GBUmAggQFhATZWW2AAYAFgAWCgGwOCFmEBNlZbYQEdgWEBcVZbgDVhATaBYQGCVltgAGAggoQDEhVhAatXYQGrYACA/VtgAGEBXYSEYQGLVltjTkh7cWDgG2AAUmARYARSYCRgAP1bYABgABmCA2EB4FdhAeBhAbdWW1BgAQGQVv6iZGlwZnNYIhIgp6525+dEcrjOIX36yZ1XtCM18jEn+Zdb5/3RkGudPCtkc29sY0MACBMAMw==",
          "suicide": true,
          "touched": true,
          "read": true
        }
      }
    }
  ]
}
