{
  "accountTrie": {
    "143cf0428ce81c1c161f97dc68cf03d796cec815a7207bd7c233d38545751d7f": "f873a02080c7b7ae81a58eb98d9c78de4a1fd7fd9535fc953ed2be602daaa41767312ab850f84e808ad3c21bd1baa03d58c13fa056e81f171bcc55a6ff8345e692c0f86e5b48e01b996cadc001622fb5e363b421a0c5d2460186f7233c927e7db2dcc703c0e500b653ca82273b7bfad8045d85a470",
    "1cf2cea11d9026c96b9b4b25468c306bcea67d4866d4a9ca2e78fac0b3ec3ace": "f85180a031d1eb10fdf37ef90417d463e9e3d1dad5bab6a3e8b38ccc4eaa744250317457808080a0fa10dfee776a56ad065d25e812a76a8a3576fb5d01cadb3dc103a0dd3eb399368080808080808080808080",
    "36323cd3370958dc3ad566a4242f6f5537d2b086f79ca1ecfc044bf75a779c30": "f869a0205237c3029b4a24179ef5ad0938a1d465559ff6257160070abdb475b4bae558b846f8440180a0f691144de2167cb350f6c22a08c849774f90c7b3dd8f9cd3ff92c5b4475df901a047b29abe53c19aeca5c0eb589a063611294ffe0c4fb918af3faedacb1888a815",
    "38d2f69b13f02750f3bbb883b4d4d27ed6952417c33516c80075478e47ed20de": "f871808080a036323cd3370958dc3ad566a4242f6f5537d2b086f79ca1ecfc044bf75a779c3080a07d17cb8bd5c71e3095d71dba47bba1e11b2cb9c46f51da3076edcfb78c595a9380808080808080a0737aa6010da4dcb7b85c223b4613bf1f8c7df3a21be035f8c7cbd3e35e4feab1808080",
    "8eeea2452c575c56f8f09199c01000ca5e2e9d419a23b23731c2b5bec6fdca24": "f873a032d99bef571219ad8b7007ff6a58b0bd81296db46821c9a73ce8861298b992aeb850f84e808ad3c21c55a397f21ddc5da056e81f171bcc55a6ff8345e692c0f86e5b48e01b996cadc001622fb5e363b421a0c5d2460186f7233c927e7db2dcc703c0e500b653ca82273b7bfad8045d85a470",
    "949e93134803ff806818edd8f8905e88393f3f83068f6dfe3653e001cc1e5fe7": "f901d1a0d5653018d00cf355e0f6e4282a0ed3dd7e7c62cc86ce5a5405f820e6d679c24c80a08eeea2452c575c56f8f09199c01000ca5e2e9d419a23b23731c2b5bec6fdca24a0d379709dd7f28dcd01c9f7dad8b806aa54f8133adf378a7335aba34dc462cbcda038d2f69b13f02750f3bbb883b4d4d27ed6952417c33516c80075478e47ed20dea0d376f742323c38ff261254ea93fcd63fa1e0079e223d2282e7eaebf695dc1d0ca055fb730a81af8615add1b4fb896303b1efd995f6da3da6dbb5022f05f150d5aba09e54942e5cbab33b4ec4216f6eeaf22c427135da3ee41438bcc4e7de07ffeee0a0364969fa64ed1edef177b8a87bbe20e26615582bf935df361abf64c0b7e2b589a0e6e82a109ac4e5daed8f76043d8393d0298472e0518ff96a48b8492e479881fba01cf2cea11d9026c96b9b4b25468c306bcea67d4866d4a9ca2e78fac0b3ec3acea0641172028033391973b95cc84af3b17df365c017f41cc4593e4c201102a5a53da0e086c4db2fb20d0509e45cc93d81ebbb34392390d03ca817c15d77896cc23f7180a08333762fcaf7193e048ab228010951a924224adf67ad901b5e98441becfcbbd7a0b7836b4d539362023793340a9f18f46f9ea2490313953d75270f12f761ba0f4580",
    "9b4bff7141716d7d5d399bff62b1f9cb412cd1f17f53e2fb65e938687575ca74": "f8769f3eec2b84f0ba344fd4b4d2f022469febe7a772c4789acfc119eb558ab1da3db854f8528210168c033b2e3c620dee600d4ddc36a056e81f171bcc55a6ff8345e692c0f86e5b48e01b996cadc001622fb5e363b421a0c5d2460186f7233c927e7db2dcc703c0e500b653ca82273b7bfad8045d85a470",
    "d376f742323c38ff261254ea93fcd63fa1e0079e223d2282e7eaebf695dc1d0c": "f871a0351c60dcb3bf6af3ae475d5bc42eedd8b8dbec817c592dfa444cbab08a0dd21b8080a0143cf0428ce81c1c161f97dc68cf03d796cec815a7207bd7c233d38545751d7f80a03a6ab9252d625ee34450f5f40ef8aeaf895aedcd7be4a964969ea65a145d7a288080808080808080808080",
    "fa10dfee776a56ad065d25e812a76a8a3576fb5d01cadb3dc103a0dd3eb39936": "f85180a09b4bff7141716d7d5d399bff62b1f9cb412cd1f17f53e2fb65e938687575ca7480808080808080808080a0b352e4c72d853473be5eac69cf10adfdc61a3747ec26a4b424f0a29292fc1d3780808080"
  },
  "storageTrie": {
    "e1444f32bf9652e1ed1b2c2c91f44e81e2366cf5360645a941241378ccb31e19": "f0a036895aeba922f7a7fbe64d6e18ac301e6895dea1b10155bc0dfdfb93dd33da408e8d01431e0fae6d676f4eb1ac8000",
    "f691144de2167cb350f6c22a08c849774f90c7b3dd8f9cd3ff92c5b4475df901": "f8d1a047d7ee2bc83e298d425fcad38e9b1ada9342f14b67f78ed69fe67a7893db9e5080a0ab350e4f1a393dfa843944bb80358483367e70c09427024b1610dfc15d699536a0e1444f32bf9652e1ed1b2c2c91f44e81e2366cf5360645a941241378ccb31e1980808080a03c9725981e17707bd8612860278f4b6772db03e0e9ba3a550960d3cc81813df380a0fd5cdd97ebbfc0ceb8c6dc0fc57eccd191813087a21dacc8aaf9efba2a06beef80a00217fd512c517b27264b1a710888bfc8c65bfff172b5e3f47cc71c76f0b11e3e80808080",
    "fd5cdd97ebbfc0ceb8c6dc0fc57eccd191813087a21dacc8aaf9efba2a06beef": "eaa033274d838c103e9f9bc29f202d8ca1c20b69ed320596d739da4d0a930f8ab17a88870aa87bee538000"
  },
  "parentStateRoot": "0x949e93134803ff806818edd8f8905e88393f3f83068f6dfe3653e001cc1e5fe7",
  "transactionTraces": [
    {
      "txn": "0x02f8b38207d182101684b6a77acd84b6a7a85f828f6794d36a3a58d754e0985c0bfdcf92ba79bd61c215e380b844a9059cbb000000000000000000000000deadbeefdeadbeefdeadbeefdeadbeefdeadbeef00000000000000000000000000000000000000000000000000038d7ea4c68000c001a01374309089f9888c99f2299c9c3504d7b5de89b42b67b9227325d6eab95e0bb7a06b9d4c449a283c42f71b59d05ca6c902ea69f7945acebeb61fc292cd5ebe25d4",
      "delta": {
        "0x0000000000000000000000000000000000000000": {
          "address": "0x0000000000000000000000000000000000000000",
          "read": true
        },
        "0x85dA99c8a7C2C95964c8EfD687E95E632Fc533D6": {
          "address": "0x85dA99c8a7C2C95964c8EfD687E95E632Fc533D6",
          "nonce": 4119,
          "read": true
        },
        "0xD36A3a58d754E0985C0bFDcF92bA79Bd61c215e3": {
          "address": "0xD36A3a58d754E0985C0bFDcF92bA79Bd61c215e3",
          "storage": {
            "0x42fe90393dafacccf318596e1ca7e1e77c330a9ddff37275ce72bbe7ecb10ab8": "0x0000000000000000000000000000000000000001431e0fae6d63e1d00ce60000",
            "0xabd7b398c2237712843e3e780dcd40dfb99446b30666f04c025da4efa5ce5177": "0x000000000000000000000000000000000000000000000000000e35fa931a0000"
          },
          "storage_read": {
            "0x42fe90393dafacccf318596e1ca7e1e77c330a9ddff37275ce72bbe7ecb10ab8": {},
            "0xabd7b398c2237712843e3e780dcd40dfb99446b30666f04c025da4efa5ce5177": {}
          },
          "code_read": "YIBgQFI0gBVhABBXYACA/VtQYAQ2EGEAqVdgADVg4ByAY0KWbGgRYQBxV4BjQpZsaBRhAWhXgGNwoIIxFGEBhFeAY5XYm0EUYQG0V4BjoHEtaBRhAdJXgGOpBZy7FGEB7leAY91i7T4UYQIeV2EAqVZbgGMG/d4DFGEArleAYwlep7MUYQDMV4BjGBYN3RRhAPxXgGMjuHLdFGEBGleAYzE85WcUYQFKV1tgAID9W2EAtmECTlZbYEBRYQDDkZBhCb5WW2BAUYCRA5DzW2EA5mAEgDYDgQGQYQDhkZBhCnlWW2EC3FZbYEBRYQDzkZBhCtRWW2BAUYCRA5DzW2EBBGEDzlZbYEBRYQERkZBhCv5WW2BAUYCRA5DzW2EBNGAEgDYDgQGQYQEvkZBhCxlWW2ED1FZbYEBRYQFBkZBhCtRWW2BAUYCRA5DzW2EBUmEFhVZbYEBRYQFfkZBhC4hWW2BAUYCRA5DzW2EBgmAEgDYDgQGQYQF9kZBhC6NWW2EFmFZbAFthAZ5gBIA2A4EBkGEBmZGQYQvQVlthBm9WW2BAUWEBq5GQYQr+VltgQFGAkQOQ81thAbxhBodWW2BAUWEByZGQYQm+VltgQFGAkQOQ81thAexgBIA2A4EBkGEB55GQYQujVlthBxVWWwBbYQIIYASANgOBAZBhAgORkGEKeVZbYQfsVltgQFFhAhWRkGEK1FZbYEBRgJEDkPNbYQI4YASANgOBAZBhAjORkGEL/VZbYQkJVltgQFFhAkWRkGEK/lZbYEBRgJEDkPNbYAOAVGECW5BhDGxWW4BgHwFgIICRBAJgIAFgQFGQgQFgQFKAkpGQgYFSYCABgoBUYQKHkGEMbFZbgBVhAtRXgGAfEGECqVdhAQCAg1QEAoNSkWAgAZFhAtRWW4IBkZBgAFJgIGAAIJBbgVSBUpBgAQGQYCABgIMRYQK3V4KQA2AfFoIBkVtQUFBQUIFWW2AAgWACYAAzc///////////////////////////FnP//////////////////////////xaBUmAgAZCBUmAgAWAAIGAAhXP//////////////////////////xZz//////////////////////////8WgVJgIAGQgVJgIAFgACCBkFVQgnP//////////////////////////xYzc///////////////////////////Fn+MW+Hl6+x9W9FPcUJ9HoTz3QMUwPeyKR5bIArIx8O5JYRgQFFhA7yRkGEK/lZbYEBRgJEDkKNgAZBQkpFQUFZbYABUgVZbYACBYAJgAIZz//////////////////////////8Wc///////////////////////////FoFSYCABkIFSYCABYAAgYAAzc///////////////////////////FnP//////////////////////////xaBUmAgAZCBUmAgAWAAIGAAgoJUYQRikZBhDMxWW5JQUIGQVVCBYAFgAIZz//////////////////////////8Wc///////////////////////////FoFSYCABkIFSYCABYAAgYACCglRhBLiRkGEMzFZbklBQgZBVUIFgAWAAhXP//////////////////////////xZz//////////////////////////8WgVJgIAGQgVJgIAFgACBgAIKCVGEFDpGQYQ0AVluSUFCBkFVQgnP//////////////////////////xaEc///////////////////////////Fn/d8lKtG+LIm2nCsGj8N42qlSun8WPEoRYo9VpN9SOz74RgQFFhBXKRkGEK/lZbYEBRgJEDkKNgAZBQk5JQUFBWW2AFYACQVJBhAQAKkARg/xaBVluAYAFgADNz//////////////////////////8Wc///////////////////////////FoFSYCABkIFSYCABYAAgYACCglRhBeeRkGEMzFZbklBQgZBVUIBgAICCglRhBf+RkGEMzFZbklBQgZBVUGAAc///////////////////////////FjNz//////////////////////////8Wf93yUq0b4sibacKwaPw3jaqVK6fxY8ShFij1Wk31I7Pvg2BAUWEGZJGQYQr+VltgQFGAkQOQo1BWW2ABYCBSgGAAUmBAYAAgYACRUJBQVIFWW2AEgFRhBpSQYQxsVluAYB8BYCCAkQQCYCABYEBRkIEBYEBSgJKRkIGBUmAgAYKAVGEGwJBhDGxWW4AVYQcNV4BgHxBhBuJXYQEAgINUBAKDUpFgIAGRYQcNVluCAZGQYABSYCBgACCQW4FUgVKQYAEBkGAgAYCDEWEG8FeCkANgHxaCAZFbUFBQUFCBVluAYAFgADNz//////////////////////////8Wc///////////////////////////FoFSYCABkIFSYCABYAAgYACCglRhB2SRkGENAFZbklBQgZBVUIBgAICCglRhB3yRkGENAFZbklBQgZBVUDNz//////////////////////////8WYABz//////////////////////////8Wf93yUq0b4sibacKwaPw3jaqVK6fxY8ShFij1Wk31I7Pvg2BAUWEH4ZGQYQr+VltgQFGAkQOQo1BWW2AAgWABYAAzc///////////////////////////FnP//////////////////////////xaBUmAgAZCBUmAgAWAAIGAAgoJUYQg9kZBhDMxWW5JQUIGQVVCBYAFgAIVz//////////////////////////8Wc///////////////////////////FoFSYCABkIFSYCABYAAgYACCglRhCJORkGENAFZbklBQgZBVUIJz//////////////////////////8WM3P//////////////////////////xZ/3fJSrRviyJtpwrBo/DeNqpUrp/FjxKEWKPVaTfUjs++EYEBRYQj3kZBhCv5WW2BAUYCRA5CjYAGQUJKRUFBWW2ACYCBSgWAAUmBAYAAgYCBSgGAAUmBAYAAgYACRUJFQUFSBVltgAIFRkFCRkFBWW2AAgoJSYCCCAZBQkpFQUFZbYABbg4EQFWEJaFeAggFRgYQBUmAggQGQUGEJTVZbYACEhAFSUFBQUFZbYABgHxlgH4MBFpBQkZBQVltgAGEJkIJhCS5WW2EJmoGFYQk5VluTUGEJqoGFYCCGAWEJSlZbYQmzgWEJdFZbhAGRUFCSkVBQVltgAGAgggGQUIGBA2AAgwFSYQnYgYRhCYVWW5BQkpFQUFZbYACA/VtgAHP//////////////////////////4IWkFCRkFBWW2AAYQoQgmEJ5VZbkFCRkFBWW2EKIIFhCgVWW4EUYQorV2AAgP1bUFZbYACBNZBQYQo9gWEKF1ZbkpFQUFZbYACBkFCRkFBWW2EKVoFhCkNWW4EUYQphV2AAgP1bUFZbYACBNZBQYQpzgWEKTVZbkpFQUFZbYACAYECDhQMSFWEKkFdhCo9hCeBWW1tgAGEKnoWChgFhCi5WW5JQUGAgYQqvhYKGAWEKZFZbkVBQklCSkFBWW2AAgRUVkFCRkFBWW2EKzoFhCrlWW4JSUFBWW2AAYCCCAZBQYQrpYACDAYRhCsVWW5KRUFBWW2EK+IFhCkNWW4JSUFBWW2AAYCCCAZBQYQsTYACDAYRhCu9WW5KRUFBWW2AAgGAAYGCEhgMSFWELMldhCzFhCeBWW1tgAGELQIaChwFhCi5WW5NQUGAgYQtRhoKHAWEKLlZbklBQYEBhC2KGgocBYQpkVluRUFCSUJJQklZbYABg/4IWkFCRkFBWW2ELgoFhC2xWW4JSUFBWW2AAYCCCAZBQYQudYACDAYRhC3lWW5KRUFBWW2AAYCCChAMSFWELuVdhC7hhCeBWW1tgAGELx4SChQFhCmRWW5FQUJKRUFBWW2AAYCCChAMSFWEL5ldhC+VhCeBWW1tgAGEL9ISChQFhCi5WW5FQUJKRUFBWW2AAgGBAg4UDEhVhDBRXYQwTYQngVltbYABhDCKFgoYBYQouVluSUFBgIGEMM4WChgFhCi5WW5FQUJJQkpBQVlt/Tkh7cQAAAAAAAAAAAAAAAAAAAAAAAAAAAAAAAAAAAABgAFJgImAEUmAkYAD9W2AAYAKCBJBQYAGCFoBhDIRXYH+CFpFQW2AgghCBA2EMl1dhDJZhDD1WW1tQkZBQVlt/Tkh7cQAAAAAAAAAAAAAAAAAAAAAAAAAAAAAAAAAAAABgAFJgEWAEUmAkYAD9W2AAYQzXgmEKQ1ZbkVBhDOKDYQpDVluSUIKCA5BQgYERFWEM+ldhDPlhDJ1WW1uSkVBQVltgAGENC4JhCkNWW5FQYQ0Wg2EKQ1ZbklCCggGQUICCERVhDS5XYQ0tYQydVltbkpFQUFb+omRpcGZzWCISIA/fWAkpjA7S5zoT4zClZFc2IqonjcSpYAx0+MwNHTLnZHNvbGNDAAgRADM=",
          "touched": true,
          "read": true
        },
        "0xaE61a307d07c9bc6ec66D13D6FdE4E0FAb33C253": {
          "address": "0xaE61a307d07c9bc6ec66D13D6FdE4E0FAb33C253",
          "read": true
        }
      }
    },
    {
      "txn": "0x02f8b38207d182101784b6a77acd84b6a7a85f828f6794d36a3a58d754e0985c0bfdcf92ba79bd61c215e380b844a9059cbb000000000000000000000000deadbeefdeadbeefdeadbeefdeadbeefdeadbeef00000000000000000000000000000000000000000000000000038d7ea4c68000c080a007894f17f4634c8434ddf02b9bd498f713f971976d90ac9c0780e9b57d811115a01ca76d18a3b110ca2a251113e21ef4acea111795b0ff9bc7997e0cd1ef75496b",
      "delta": {
        "0x0000000000000000000000000000000000000000": {
          "address": "0x0000000000000000000000000000000000000000",
          "read": true
        },
        "0x85dA99c8a7C2C95964c8EfD687E95E632Fc533D6": {
          "address": "0x85dA99c8a7C2C95964c8EfD687E95E632Fc533D6",
          "nonce": 4120,
          "read": true
        },
        "0xD36A3a58d754E0985C0bFDcF92bA79Bd61c215e3": {
          "address": "0xD36A3a58d754E0985C0bFDcF92bA79Bd61c215e3",
          "storage": {
            "0x42fe90393dafacccf318596e1ca7e1e77c330a9ddff37275ce72bbe7ecb10ab8": "0x0000000000000000000000000000000000000001431e0fae6d605451681f8000",
            "0xabd7b398c2237712843e3e780dcd40dfb99446b30666f04c025da4efa5ce5177": "0x0000000000000000000000000000000000000000000000000011c37937e08000"
          },
          "storage_read": {
            "0x42fe90393dafacccf318596e1ca7e1e77c330a9ddff37275ce72bbe7ecb10ab8": {},
            "0xabd7b398c2237712843e3e780dcd40dfb99446b30666f04c025da4efa5ce5177": {}
          },
          "code_read": "YIBgQFI0gBVhABBXYACA/VtQYAQ2EGEAqVdgADVg4ByAY0KWbGgRYQBxV4BjQpZsaBRhAWhXgGNwoIIxFGEBhFeAY5XYm0EUYQG0V4BjoHEtaBRhAdJXgGOpBZy7FGEB7leAY91i7T4UYQIeV2EAqVZbgGMG/d4DFGEArleAYwlep7MUYQDMV4BjGBYN3RRhAPxXgGMjuHLdFGEBGleAYzE85WcUYQFKV1tgAID9W2EAtmECTlZbYEBRYQDDkZBhCb5WW2BAUYCRA5DzW2EA5mAEgDYDgQGQYQDhkZBhCnlWW2EC3FZbYEBRYQDzkZBhCtRWW2BAUYCRA5DzW2EBBGEDzlZbYEBRYQERkZBhCv5WW2BAUYCRA5DzW2EBNGAEgDYDgQGQYQEvkZBhCxlWW2ED1FZbYEBRYQFBkZBhCtRWW2BAUYCRA5DzW2EBUmEFhVZbYEBRYQFfkZBhC4hWW2BAUYCRA5DzW2EBgmAEgDYDgQGQYQF9kZBhC6NWW2EFmFZbAFthAZ5gBIA2A4EBkGEBmZGQYQvQVlthBm9WW2BAUWEBq5GQYQr+VltgQFGAkQOQ81thAbxhBodWW2BAUWEByZGQYQm+VltgQFGAkQOQ81thAexgBIA2A4EBkGEB55GQYQujVlthBxVWWwBbYQIIYASANgOBAZBhAgORkGEKeVZbYQfsVltgQFFhAhWRkGEK1FZbYEBRgJEDkPNbYQI4YASANgOBAZBhAjORkGEL/VZbYQkJVltgQFFhAkWRkGEK/lZbYEBRgJEDkPNbYAOAVGECW5BhDGxWW4BgHwFgIICRBAJgIAFgQFGQgQFgQFKAkpGQgYFSYCABgoBUYQKHkGEMbFZbgBVhAtRXgGAfEGECqVdhAQCAg1QEAoNSkWAgAZFhAtRWW4IBkZBgAFJgIGAAIJBbgVSBUpBgAQGQYCABgIMRYQK3V4KQA2AfFoIBkVtQUFBQUIFWW2AAgWACYAAzc///////////////////////////FnP//////////////////////////xaBUmAgAZCBUmAgAWAAIGAAhXP//////////////////////////xZz//////////////////////////8WgVJgIAGQgVJgIAFgACCBkFVQgnP//////////////////////////xYzc///////////////////////////Fn+MW+Hl6+x9W9FPcUJ9HoTz3QMUwPeyKR5bIArIx8O5JYRgQFFhA7yRkGEK/lZbYEBRgJEDkKNgAZBQkpFQUFZbYABUgVZbYACBYAJgAIZz//////////////////////////8Wc///////////////////////////FoFSYCABkIFSYCABYAAgYAAzc///////////////////////////FnP//////////////////////////xaBUmAgAZCBUmAgAWAAIGAAgoJUYQRikZBhDMxWW5JQUIGQVVCBYAFgAIZz//////////////////////////8Wc///////////////////////////FoFSYCABkIFSYCABYAAgYACCglRhBLiRkGEMzFZbklBQgZBVUIFgAWAAhXP//////////////////////////xZz//////////////////////////8WgVJgIAGQgVJgIAFgACBgAIKCVGEFDpGQYQ0AVluSUFCBkFVQgnP//////////////////////////xaEc///////////////////////////Fn/d8lKtG+LIm2nCsGj8N42qlSun8WPEoRYo9VpN9SOz74RgQFFhBXKRkGEK/lZbYEBRgJEDkKNgAZBQk5JQUFBWW2AFYACQVJBhAQAKkARg/xaBVluAYAFgADNz//////////////////////////8Wc///////////////////////////FoFSYCABkIFSYCABYAAgYACCglRhBeeRkGEMzFZbklBQgZBVUIBgAICCglRhBf+RkGEMzFZbklBQgZBVUGAAc///////////////////////////FjNz//////////////////////////8Wf93yUq0b4sibacKwaPw3jaqVK6fxY8ShFij1Wk31I7Pvg2BAUWEGZJGQYQr+VltgQFGAkQOQo1BWW2ABYCBSgGAAUmBAYAAgYACRUJBQVIFWW2AEgFRhBpSQYQxsVluAYB8BYCCAkQQCYCABYEBRkIEBYEBSgJKRkIGBUmAgAYKAVGEGwJBhDGxWW4AVYQcNV4BgHxBhBuJXYQEAgINUBAKDUpFgIAGRYQcNVluCAZGQYABSYCBgACCQW4FUgVKQYAEBkGAgAYCDEWEG8FeCkANgHxaCAZFbUFBQUFCBVluAYAFgADNz//////////////////////////8Wc///////////////////////////FoFSYCABkIFSYCABYAAgYACCglRhB2SRkGENAFZbklBQgZBVUIBgAICCglRhB3yRkGENAFZbklBQgZBVUDNz//////////////////////////8WYABz//////////////////////////8Wf93yUq0b4sibacKwaPw3jaqVK6fxY8ShFij1Wk31I7Pvg2BAUWEH4ZGQYQr+VltgQFGAkQOQo1BWW2AAgWABYAAzc///////////////////////////FnP//////////////////////////xaBUmAgAZCBUmAgAWAAIGAAgoJUYQg9kZBhDMxWW5JQUIGQVVCBYAFgAIVz//////////////////////////8Wc///////////////////////////FoFSYCABkIFSYCABYAAgYACCglRhCJORkGENAFZbklBQgZBVUIJz//////////////////////////8WM3P//////////////////////////xZ/3fJSrRviyJtpwrBo/DeNqpUrp/FjxKEWKPVaTfUjs++EYEBRYQj3kZBhCv5WW2BAUYCRA5CjYAGQUJKRUFBWW2ACYCBSgWAAUmBAYAAgYCBSgGAAUmBAYAAgYACRUJFQUFSBVltgAIFRkFCRkFBWW2AAgoJSYCCCAZBQkpFQUFZbYABbg4EQFWEJaFeAggFRgYQBUmAggQGQUGEJTVZbYACEhAFSUFBQUFZbYABgHxlgH4MBFpBQkZBQVltgAGEJkIJhCS5WW2EJmoGFYQk5VluTUGEJqoGFYCCGAWEJSlZbYQmzgWEJdFZbhAGRUFCSkVBQVltgAGAgggGQUIGBA2AAgwFSYQnYgYRhCYVWW5BQkpFQUFZbYACA/VtgAHP//////////////////////////4IWkFCRkFBWW2AAYQoQgmEJ5VZbkFCRkFBWW2EKIIFhCgVWW4EUYQorV2AAgP1bUFZbYACBNZBQYQo9gWEKF1ZbkpFQUFZbYACBkFCRkFBWW2EKVoFhCkNWW4EUYQphV2AAgP1bUFZbYACBNZBQYQpzgWEKTVZbkpFQUFZbYACAYECDhQMSFWEKkFdhCo9hCeBWW1tgAGEKnoWChgFhCi5WW5JQUGAgYQqvhYKGAWEKZFZbkVBQklCSkFBWW2AAgRUVkFCRkFBWW2EKzoFhCrlWW4JSUFBWW2AAYCCCAZBQYQrpYACDAYRhCsVWW5KRUFBWW2EK+IFhCkNWW4JSUFBWW2AAYCCCAZBQYQsTYACDAYRhCu9WW5KRUFBWW2AAgGAAYGCEhgMSFWELMldhCzFhCeBWW1tgAGELQIaChwFhCi5WW5NQUGAgYQtRhoKHAWEKLlZbklBQYEBhC2KGgocBYQpkVluRUFCSUJJQklZbYABg/4IWkFCRkFBWW2ELgoFhC2xWW4JSUFBWW2AAYCCCAZBQYQudYACDAYRhC3lWW5KRUFBWW2AAYCCChAMSFWELuVdhC7hhCeBWW1tgAGELx4SChQFhCmRWW5FQUJKRUFBWW2AAYCCChAMSFWEL5ldhC+VhCeBWW1tgAGEL9ISChQFhCi5WW5FQUJKRUFBWW2AAgGBAg4UDEhVhDBRXYQwTYQngVltbYABhDCKFgoYBYQouVluSUFBgIGEMM4WChgFhCi5WW5FQUJJQkpBQVlt/Tkh7cQAAAAAAAAAAAAAAAAAAAAAAAAAAAAAAAAAAAABgAFJgImAEUmAkYAD9W2AAYAKCBJBQYAGCFoBhDIRXYH+CFpFQW2AgghCBA2EMl1dhDJZhDD1WW1tQkZBQVlt/Tkh7cQAAAAAAAAAAAAAAAAAAAAAAAAAAAAAAAAAAAABgAFJgEWAEUmAkYAD9W2AAYQzXgmEKQ1ZbkVBhDOKDYQpDVluSUIKCA5BQgYERFWEM+ldhDPlhDJ1WW1uSkVBQVltgAGENC4JhCkNWW5FQYQ0Wg2EKQ1ZbklCCggGQUICCERVhDS5XYQ0tYQydVltbkpFQUFb+omRpcGZzWCISIA/fWAkpjA7S5zoT4zClZFc2IqonjcSpYAx0+MwNHTLnZHNvbGNDAAgRADM=",
          "touched": true,
          "read": true
        },
        "0xaE61a307d07c9bc6ec66D13D6FdE4E0FAb33C253": {
          "address": "0xaE61a307d07c9bc6ec66D13D6FdE4E0FAb33C253",
          "read": true
        }
      }
    },
    {
      "txn": "0x02f8b38207d182101884b6a77acd84b6a7a85f828f6794d36a3a58d754e0985c0bfdcf92ba79bd61c215e380b844a9059cbb000000000000000000000000deadbeefdeadbeefdeadbeefdeadbeefdeadbeef00000000000000000000000000000000000000000000000000038d7ea4c68000c001a01eebaed8bf69332ce76d8874ed9dc2160056035d6d5983b24dc88cea07dbd20ca0291e650cd72ad924711fc24b862958d1492d05818d8b6a43df74aa6ff1778427",
      "delta": {
        "0x0000000000000000000000000000000000000000": {
          "address": "0x0000000000000000000000000000000000000000",
          "read": true
        },
        "0x85dA99c8a7C2C95964c8EfD687E95E632Fc533D6": {
          "address": "0x85dA99c8a7C2C95964c8EfD687E95E632Fc533D6",
          "nonce": 4121,
          "read": true
        },
        "0xD36A3a58d754E0985C0bFDcF92bA79Bd61c215e3": {
          "address": "0xD36A3a58d754E0985C0bFDcF92bA79Bd61c215e3",
          "storage": {
            "0x42fe90393dafacccf318596e1ca7e1e77c330a9ddff37275ce72bbe7ecb10ab8": "0x0000000000000000000000000000000000000001431e0fae6d5cc6d2c3590000",
            "0xabd7b398c2237712843e3e780dcd40dfb99446b30666f04c025da4efa5ce5177": "0x000000000000000000000000000000000000000000000000001550f7dca70000"
          },
          "storage_read": {
            "0x42fe90393dafacccf318596e1ca7e1e77c330a9ddff37275ce72bbe7ecb10ab8": {},
            "0xabd7b398c2237712843e3e780dcd40dfb99446b30666f04c025da4efa5ce5177": {}
          },
          "code_read": "YIBgQFI0gBVhABBXYACA/VtQYAQ2EGEAqVdgADVg4ByAY0KWbGgRYQBxV4BjQpZsaBRhAWhXgGNwoIIxFGEBhFeAY5XYm0EUYQG0V4BjoHEtaBRhAdJXgGOpBZy7FGEB7leAY91i7T4UYQIeV2EAqVZbgGMG/d4DFGEArleAYwlep7MUYQDMV4BjGBYN3RRhAPxXgGMjuHLdFGEBGleAYzE85WcUYQFKV1tgAID9W2EAtmECTlZbYEBRYQDDkZBhCb5WW2BAUYCRA5DzW2EA5mAEgDYDgQGQYQDhkZBhCnlWW2EC3FZbYEBRYQDzkZBhCtRWW2BAUYCRA5DzW2EBBGEDzlZbYEBRYQERkZBhCv5WW2BAUYCRA5DzW2EBNGAEgDYDgQGQYQEvkZBhCxlWW2ED1FZbYEBRYQFBkZBhCtRWW2BAUYCRA5DzW2EBUmEFhVZbYEBRYQFfkZBhC4hWW2BAUYCRA5DzW2EBgmAEgDYDgQGQYQF9kZBhC6NWW2EFmFZbAFthAZ5gBIA2A4EBkGEBmZGQYQvQVlthBm9WW2BAUWEBq5GQYQr+VltgQFGAkQOQ81thAbxhBodWW2BAUWEByZGQYQm+VltgQFGAkQOQ81thAexgBIA2A4EBkGEB55GQYQujVlthBxVWWwBbYQIIYASANgOBAZBhAgORkGEKeVZbYQfsVltgQFFhAhWRkGEK1FZbYEBRgJEDkPNbYQI4YASANgOBAZBhAjORkGEL/VZbYQkJVltgQFFhAkWRkGEK/lZbYEBRgJEDkPNbYAOAVGECW5BhDGxWW4BgHwFgIICRBAJgIAFgQFGQgQFgQFKAkpGQgYFSYCABgoBUYQKHkGEMbFZbgBVhAtRXgGAfEGECqVdhAQCAg1QEAoNSkWAgAZFhAtRWW4IBkZBgAFJgIGAAIJBbgVSBUpBgAQGQYCABgIMRYQK3V4KQA2AfFoIBkVtQUFBQUIFWW2AAgWACYAAzc///////////////////////////FnP//////////////////////////xaBUmAgAZCBUmAgAWAAIGAAhXP//////////////////////////xZz//////////////////////////8WgVJgIAGQgVJgIAFgACCBkFVQgnP//////////////////////////xYzc///////////////////////////Fn+MW+Hl6+x9W9FPcUJ9HoTz3QMUwPeyKR5bIArIx8O5JYRgQFFhA7yRkGEK/lZbYEBRgJEDkKNgAZBQkpFQUFZbYABUgVZbYACBYAJgAIZz//////////////////////////8Wc///////////////////////////FoFSYCABkIFSYCABYAAgYAAzc///////////////////////////FnP//////////////////////////xaBUmAgAZCBUmAgAWAAIGAAgoJUYQRikZBhDMxWW5JQUIGQVVCBYAFgAIZz//////////////////////////8Wc///////////////////////////FoFSYCABkIFSYCABYAAgYACCglRhBLiRkGEMzFZbklBQgZBVUIFgAWAAhXP//////////////////////////xZz//////////////////////////8WgVJgIAGQgVJgIAFgACBgAIKCVGEFDpGQYQ0AVluSUFCBkFVQgnP//////////////////////////xaEc///////////////////////////Fn/d8lKtG+LIm2nCsGj8N42qlSun8WPEoRYo9VpN9SOz74RgQFFhBXKRkGEK/lZbYEBRgJEDkKNgAZBQk5JQUFBWW2AFYACQVJBhAQAKkARg/xaBVluAYAFgADNz//////////////////////////8Wc///////////////////////////FoFSYCABkIFSYCABYAAgYACCglRhBeeRkGEMzFZbklBQgZBVUIBgAICCglRhBf+RkGEMzFZbklBQgZBVUGAAc///////////////////////////FjNz//////////////////////////8Wf93yUq0b4sibacKwaPw3jaqVK6fxY8ShFij1Wk31I7Pvg2BAUWEGZJGQYQr+VltgQFGAkQOQo1BWW2ABYCBSgGAAUmBAYAAgYACRUJBQVIFWW2AEgFRhBpSQYQxsVluAYB8BYCCAkQQCYCABYEBRkIEBYEBSgJKRkIGBUmAgAYKAVGEGwJBhDGxWW4AVYQcNV4BgHxBhBuJXYQEAgINUBAKDUpFgIAGRYQcNVluCAZGQYABSYCBgACCQW4FUgVKQYAEBkGAgAYCDEWEG8FeCkANgHxaCAZFbUFBQUFCBVluAYAFgADNz//////////////////////////8Wc///////////////////////////FoFSYCABkIFSYCABYAAgYACCglRhB2SRkGENAFZbklBQgZBVUIBgAICCglRhB3yRkGENAFZbklBQgZBVUDNz//////////////////////////8WYABz//////////////////////////8Wf93yUq0b4sibacKwaPw3jaqVK6fxY8ShFij1Wk31I7Pvg2BAUWEH4ZGQYQr+VltgQFGAkQOQo1BWW2AAgWABYAAzc///////////////////////////FnP//////////////////////////xaBUmAgAZCBUmAgAWAAIGAAgoJUYQg9kZBhDMxWW5JQUIGQVVCBYAFgAIVz//////////////////////////8Wc///////////////////////////FoFSYCABkIFSYCABYAAgYACCglRhCJORkGENAFZbklBQgZBVUIJz//////////////////////////8WM3P//////////////////////////xZ/3fJSrRviyJtpwrBo/DeNqpUrp/FjxKEWKPVaTfUjs++EYEBRYQj3kZBhCv5WW2BAUYCRA5CjYAGQUJKRUFBWW2ACYCBSgWAAUmBAYAAgYCBSgGAAUmBAYAAgYACRUJFQUFSBVltgAIFRkFCRkFBWW2AAgoJSYCCCAZBQkpFQUFZbYABbg4EQFWEJaFeAggFRgYQBUmAggQGQUGEJTVZbYACEhAFSUFBQUFZbYABgHxlgH4MBFpBQkZBQVltgAGEJkIJhCS5WW2EJmoGFYQk5VluTUGEJqoGFYCCGAWEJSlZbYQmzgWEJdFZbhAGRUFCSkVBQVltgAGAgggGQUIGBA2AAgwFSYQnYgYRhCYVWW5BQkpFQUFZbYACA/VtgAHP//////////////////////////4IWkFCRkFBWW2AAYQoQgmEJ5VZbkFCRkFBWW2EKIIFhCgVWW4EUYQorV2AAgP1bUFZbYACBNZBQYQo9gWEKF1ZbkpFQUFZbYACBkFCRkFBWW2EKVoFhCkNWW4EUYQphV2AAgP1bUFZbYACBNZBQYQpzgWEKTVZbkpFQUFZbYACAYECDhQMSFWEKkFdhCo9hCeBWW1tgAGEKnoWChgFhCi5WW5JQUGAgYQqvhYKGAWEKZFZbkVBQklCSkFBWW2AAgRUVkFCRkFBWW2EKzoFhCrlWW4JSUFBWW2AAYCCCAZBQYQrpYACDAYRhCsVWW5KRUFBWW2EK+IFhCkNWW4JSUFBWW2AAYCCCAZBQYQsTYACDAYRhCu9WW5KRUFBWW2AAgGAAYGCEhgMSFWELMldhCzFhCeBWW1tgAGELQIaChwFhCi5WW5NQUGAgYQtRhoKHAWEKLlZbklBQYEBhC2KGgocBYQpkVluRUFCSUJJQklZbYABg/4IWkFCRkFBWW2ELgoFhC2xWW4JSUFBWW2AAYCCCAZBQYQudYACDAYRhC3lWW5KRUFBWW2AAYCCChAMSFWELuVdhC7hhCeBWW1tgAGELx4SChQFhCmRWW5FQUJKRUFBWW2AAYCCChAMSFWEL5ldhC+VhCeBWW1tgAGEL9ISChQFhCi5WW5FQUJKRUFBWW2AAgGBAg4UDEhVhDBRXYQwTYQngVltbYABhDCKFgoYBYQouVluSUFBgIGEMM4WChgFhCi5WW5FQUJJQkpBQVlt/Tkh7cQAAAAAAAAAAAAAAAAAAAAAAAAAAAAAAAAAAAABgAFJgImAEUmAkYAD9W2AAYAKCBJBQYAGCFoBhDIRXYH+CFpFQW2AgghCBA2EMl1dhDJZhDD1WW1tQkZBQVlt/Tkh7cQAAAAAAAAAAAAAAAAAAAAAAAAAAAAAAAAAAAABgAFJgEWAEUmAkYAD9W2AAYQzXgmEKQ1ZbkVBhDOKDYQpDVluSUIKCA5BQgYERFWEM+ldhDPlhDJ1WW1uSkVBQVltgAGENC4JhCkNWW5FQYQ0Wg2EKQ1ZbklCCggGQUICCERVhDS5XYQ0tYQydVltbkpFQUFb+omRpcGZzWCISIA/fWAkpjA7S5zoT4zClZFc2IqonjcSpYAx0+MwNHTLnZHNvbGNDAAgRADM=",
          "touched": true,
          "read": true
        },
        "0xaE61a307d07c9bc6ec66D13D6FdE4E0FAb33C253": {
          "address": "0xaE61a307d07c9bc6ec66D13D6FdE4E0FAb33C253",
          "read": true
        }
      }
    },
    {
      "txn": "0x02f8b38207d182101984b6a77acd84b6a7a85f828f6794d36a3a58d754e0985c0bfdcf92ba79bd61c215e380b844a9059cbb000000000000000000000000deadbeefdeadbeefdeadbeefdeadbeefdeadbeef00000000000000000000000000000000000000000000000000038d7ea4c68000c001a016f7d535a409881e8193618fffa3a4d10ff130f6c85a1663a6313c2a207ce61ca06bc329eaedd601581ac7ed5ab1eb6a330ed8427c61e0cc0c28157461ebd54de6",
      "delta": {
        "0x0000000000000000000000000000000000000000": {
          "address": "0x0000000000000000000000000000000000000000",
          "read": true
        },
        "0x85dA99c8a7C2C95964c8EfD687E95E632Fc533D6": {
          "address": "0x85dA99c8a7C2C95964c8EfD687E95E632Fc533D6",
          "nonce": 4122,
          "read": true
        },
        "0xD36A3a58d754E0985C0bFDcF92bA79Bd61c215e3": {
          "address": "0xD36A3a58d754E0985C0bFDcF92bA79Bd61c215e3",
          "storage": {
            "0x42fe90393dafacccf318596e1ca7e1e77c330a9ddff37275ce72bbe7ecb10ab8": "0x0000000000000000000000000000000000000001431e0fae6d5939541e928000",
            "0xabd7b398c2237712843e3e780dcd40dfb99446b30666f04c025da4efa5ce5177": "0x0000000000000000000000000000000000000000000000000018de76816d8000"
          },
          "storage_read": {
            "0x42fe90393dafacccf318596e1ca7e1e77c330a9ddff37275ce72bbe7ecb10ab8": {},
            "0xabd7b398c2237712843e3e780dcd40dfb99446b30666f04c025da4efa5ce5177": {}
          },
          "code_read": "YIBgQFI0gBVhABBXYACA/VtQYAQ2EGEAqVdgADVg4ByAY0KWbGgRYQBxV4BjQpZsaBRhAWhXgGNwoIIxFGEBhFeAY5XYm0EUYQG0V4BjoHEtaBRhAdJXgGOpBZy7FGEB7leAY91i7T4UYQIeV2EAqVZbgGMG/d4DFGEArleAYwlep7MUYQDMV4BjGBYN3RRhAPxXgGMjuHLdFGEBGleAYzE85WcUYQFKV1tgAID9W2EAtmECTlZbYEBRYQDDkZBhCb5WW2BAUYCRA5DzW2EA5mAEgDYDgQGQYQDhkZBhCnlWW2EC3FZbYEBRYQDzkZBhCtRWW2BAUYCRA5DzW2EBBGEDzlZbYEBRYQERkZBhCv5WW2BAUYCRA5DzW2EBNGAEgDYDgQGQYQEvkZBhCxlWW2ED1FZbYEBRYQFBkZBhCtRWW2BAUYCRA5DzW2EBUmEFhVZbYEBRYQFfkZBhC4hWW2BAUYCRA5DzW2EBgmAEgDYDgQGQYQF9kZBhC6NWW2EFmFZbAFthAZ5gBIA2A4EBkGEBmZGQYQvQVlthBm9WW2BAUWEBq5GQYQr+VltgQFGAkQOQ81thAbxhBodWW2BAUWEByZGQYQm+VltgQFGAkQOQ81thAexgBIA2A4EBkGEB55GQYQujVlthBxVWWwBbYQIIYASANgOBAZBhAgORkGEKeVZbYQfsVltgQFFhAhWRkGEK1FZbYEBRgJEDkPNbYQI4YASANgOBAZBhAjORkGEL/VZbYQkJVltgQFFhAkWRkGEK/lZbYEBRgJEDkPNbYAOAVGECW5BhDGxWW4BgHwFgIICRBAJgIAFgQFGQgQFgQFKAkpGQgYFSYCABgoBUYQKHkGEMbFZbgBVhAtRXgGAfEGECqVdhAQCAg1QEAoNSkWAgAZFhAtRWW4IBkZBgAFJgIGAAIJBbgVSBUpBgAQGQYCABgIMRYQK3V4KQA2AfFoIBkVtQUFBQUIFWW2AAgWACYAAzc///////////////////////////FnP//////////////////////////xaBUmAgAZCBUmAgAWAAIGAAhXP//////////////////////////xZz//////////////////////////8WgVJgIAGQgVJgIAFgACCBkFVQgnP//////////////////////////xYzc///////////////////////////Fn+MW+Hl6+x9W9FPcUJ9HoTz3QMUwPeyKR5bIArIx8O5JYRgQFFhA7yRkGEK/lZbYEBRgJEDkKNgAZBQkpFQUFZbYABUgVZbYACBYAJgAIZz//////////////////////////8Wc///////////////////////////FoFSYCABkIFSYCABYAAgYAAzc///////////////////////////FnP//////////////////////////xaBUmAgAZCBUmAgAWAAIGAAgoJUYQRikZBhDMxWW5JQUIGQVVCBYAFgAIZz//////////////////////////8Wc///////////////////////////FoFSYCABkIFSYCABYAAgYACCglRhBLiRkGEMzFZbklBQgZBVUIFgAWAAhXP//////////////////////////xZz//////////////////////////8WgVJgIAGQgVJgIAFgACBgAIKCVGEFDpGQYQ0AVluSUFCBkFVQgnP//////////////////////////xaEc///////////////////////////Fn/d8lKtG+LIm2nCsGj8N42qlSun8WPEoRYo9VpN9SOz74RgQFFhBXKRkGEK/lZbYEBRgJEDkKNgAZBQk5JQUFBWW2AFYACQVJBhAQAKkARg/xaBVluAYAFgADNz//////////////////////////8Wc///////////////////////////FoFSYCABkIFSYCABYAAgYACCglRhBeeRkGEMzFZbklBQgZBVUIBgAICCglRhBf+RkGEMzFZbklBQgZBVUGAAc///////////////////////////FjNz//////////////////////////8Wf93yUq0b4sibacKwaPw3jaqVK6fxY8ShFij1Wk31I7Pvg2BAUWEGZJGQYQr+VltgQFGAkQOQo1BWW2ABYCBSgGAAUmBAYAAgYACRUJBQVIFWW2AEgFRhBpSQYQxsVluAYB8BYCCAkQQCYCABYEBRkIEBYEBSgJKRkIGBUmAgAYKAVGEGwJBhDGxWW4AVYQcNV4BgHxBhBuJXYQEAgINUBAKDUpFgIAGRYQcNVluCAZGQYABSYCBgACCQW4FUgVKQYAEBkGAgAYCDEWEG8FeCkANgHxaCAZFbUFBQUFCBVluAYAFgADNz//////////////////////////8Wc///////////////////////////FoFSYCABkIFSYCABYAAgYACCglRhB2SRkGENAFZbklBQgZBVUIBgAICCglRhB3yRkGENAFZbklBQgZBVUDNz//////////////////////////8WYABz//////////////////////////8Wf93yUq0b4sibacKwaPw3jaqVK6fxY8ShFij1Wk31I7Pvg2BAUWEH4ZGQYQr+VltgQFGAkQOQo1BWW2AAgWABYAAzc///////////////////////////FnP//////////////////////////xaBUmAgAZCBUmAgAWAAIGAAgoJUYQg9kZBhDMxWW5JQUIGQVVCBYAFgAIVz//////////////////////////8Wc///////////////////////////FoFSYCABkIFSYCABYAAgYACCglRhCJORkGENAFZbklBQgZBVUIJz//////////////////////////8WM3P//////////////////////////xZ/3fJSrRviyJtpwrBo/DeNqpUrp/FjxKEWKPVaTfUjs++EYEBRYQj3kZBhCv5WW2BAUYCRA5CjYAGQUJKRUFBWW2ACYCBSgWAAUmBAYAAgYCBSgGAAUmBAYAAgYACRUJFQUFSBVltgAIFRkFCRkFBWW2AAgoJSYCCCAZBQkpFQUFZbYABbg4EQFWEJaFeAggFRgYQBUmAggQGQUGEJTVZbYACEhAFSUFBQUFZbYABgHxlgH4MBFpBQkZBQVltgAGEJkIJhCS5WW2EJmoGFYQk5VluTUGEJqoGFYCCGAWEJSlZbYQmzgWEJdFZbhAGRUFCSkVBQVltgAGAgggGQUIGBA2AAgwFSYQnYgYRhCYVWW5BQkpFQUFZbYACA/VtgAHP//////////////////////////4IWkFCRkFBWW2AAYQoQgmEJ5VZbkFCRkFBWW2EKIIFhCgVWW4EUYQorV2AAgP1bUFZbYACBNZBQYQo9gWEKF1ZbkpFQUFZbYACBkFCRkFBWW2EKVoFhCkNWW4EUYQphV2AAgP1bUFZbYACBNZBQYQpzgWEKTVZbkpFQUFZbYACAYECDhQMSFWEKkFdhCo9hCeBWW1tgAGEKnoWChgFhCi5WW5JQUGAgYQqvhYKGAWEKZFZbkVBQklCSkFBWW2AAgRUVkFCRkFBWW2EKzoFhCrlWW4JSUFBWW2AAYCCCAZBQYQrpYACDAYRhCsVWW5KRUFBWW2EK+IFhCkNWW4JSUFBWW2AAYCCCAZBQYQsTYACDAYRhCu9WW5KRUFBWW2AAgGAAYGCEhgMSFWELMldhCzFhCeBWW1tgAGELQIaChwFhCi5WW5NQUGAgYQtRhoKHAWEKLlZbklBQYEBhC2KGgocBYQpkVluRUFCSUJJQklZbYABg/4IWkFCRkFBWW2ELgoFhC2xWW4JSUFBWW2AAYCCCAZBQYQudYACDAYRhC3lWW5KRUFBWW2AAYCCChAMSFWELuVdhC7hhCeBWW1tgAGELx4SChQFhCmRWW5FQUJKRUFBWW2AAYCCChAMSFWEL5ldhC+VhCeBWW1tgAGEL9ISChQFhCi5WW5FQUJKRUFBWW2AAgGBAg4UDEhVhDBRXYQwTYQngVltbYABhDCKFgoYBYQouVluSUFBgIGEMM4WChgFhCi5WW5FQUJJQkpBQVlt/Tkh7cQAAAAAAAAAAAAAAAAAAAAAAAAAAAAAAAAAAAABgAFJgImAEUmAkYAD9W2AAYAKCBJBQYAGCFoBhDIRXYH+CFpFQW2AgghCBA2EMl1dhDJZhDD1WW1tQkZBQVlt/Tkh7cQAAAAAAAAAAAAAAAAAAAAAAAAAAAAAAAAAAAABgAFJgEWAEUmAkYAD9W2AAYQzXgmEKQ1ZbkVBhDOKDYQpDVluSUIKCA5BQgYERFWEM+ldhDPlhDJ1WW1uSkVBQVltgAGENC4JhCkNWW5FQYQ0Wg2EKQ1ZbklCCggGQUICCERVhDS5XYQ0tYQydVltbkpFQUFb+omRpcGZzWCISIA/fWAkpjA7S5zoT4zClZFc2IqonjcSpYAx0+MwNHTLnZHNvbGNDAAgRADM=",
          "touched": true,
          "read": true
        },
        "0xaE61a307d07c9bc6ec66D13D6FdE4E0FAb33C253": {
          "address": "0xaE61a307d07c9bc6ec66D13D6FdE4E0FAb33C253",
          "read": true
        }
      }
    }
  ]
}
