{
  "accountTrie": {
    "096ed6d155b1543b8c5983377ab089ddb08f4c0fe6f1af8ee59941a97bc0e756": "f8769f3eec2b84f0ba344fd4b4d2f022469febe7a772c4789acfc119eb558ab1da3db854f8528212158c033b2e3c616e79f05df77463a056e81f171bcc55a6ff8345e692c0f86e5b48e01b996cadc001622fb5e363b421a0c5d2460186f7233c927e7db2dcc703c0e500b653ca82273b7bfad8045d85a470",
    "2c5ee077f1024b80d90031def886930bcbf7c16d475c045c26607791ebc8da9c": "f8518080808080808080a0502ea752a535c877de60ef1c494fb0ceb60d1ad0d2c2dfc56c054bbce5a03299808080808080a0572eab18e714f78745eff1187a659b7b2d22423384e0c54e6467db0e57ed5de980",
    "2f99a627eef6eb28b99d5858f08ef8d8c0e89badbd1c1d576c61c0af3c938f9a": "f85180a031d1eb10fdf37ef90417d463e9e3d1dad5bab6a3e8b38ccc4eaa744250317457808080a04baa8bfcf04480fa43fe9492bfcaeb7734e5673b485c4e202f2896afee5f571e8080808080808080808080",
    "4baa8bfcf04480fa43fe9492bfcaeb7734e5673b485c4e202f2896afee5f571e": "f85180a0096ed6d155b1543b8c5983377ab089ddb08f4c0fe6f1af8ee59941a97bc0e75680808080808080808080a0b352e4c72d853473be5eac69cf10adfdc61a3747ec26a4b424f0a29292fc1d3780808080",
    "572eab18e714f78745eff1187a659b7b2d22423384e0c54e6467db0e57ed5de9": "f869a020417f50fc699ebb817e23468e114836fb4578b6281ced73df8cbbfefb427243b846f8440180a00588b43007d2769bf8ecdb44e9934f945796054acfc94ff116915009676d2174a05deadf02dd8344275283fee394945c5e15787054e0eef21f50c960fd91323297",
    "72ae08cc6bfd26811afa12ec7df8686527a5f3b2b1b26e264a6d8a1117266133": "f873a02059c241d99ff19d6781feaf10eafba6d43f87543a75316fe0ae22a76eec0361b850f84e808ad3c21dc5c41f70dafcd8a056e81f171bcc55a6ff8345e692c0f86e5b48e01b996cadc001622fb5e363b421a0c5d2460186f7233c927e7db2dcc703c0e500b653ca82273b7bfad8045d85a470",
    "78bf93c76316b04575c96b9ba849ecae481b5c6c5df4728a14a699bbe283154d": "f873a02080c7b7ae81a58eb98d9c78de4a1fd7fd9535fc953ed2be602daaa41767312ab850f84e808ad3c21bd1baa348a5e1b6a056e81f171bcc55a6ff8345e692c0f86e5b48e01b996cadc001622fb5e363b421a0c5d2460186f7233c927e7db2dcc703c0e500b653ca82273b7bfad8045d85a470",
    "bdbf6f15ab2602db876fcffc78adb23b4499959cb0460f9508bb14f884cacad0": "f871a06688a62eaffcabc9e0d1f9c51e8db5ccca187a14282abde749ca656fca1a541e8080a078bf93c76316b04575c96b9ba849ecae481b5c6c5df4728a14a699bbe283154d80a03a6ab9252d625ee34450f5f40ef8aeaf895aedcd7be4a964969ea65a145d7a288080808080808080808080",
    "c5986a57c4754ef0dbb94095742abdcb31ac1f8bfa03c41ad9d90e6689dc3367": "f901d1a0d5653018d00cf355e0f6e4282a0ed3dd7e7c62cc86ce5a5405f820e6d679c24c80a02bedce155a8e8b1769cd5315c0ead1b2518f7c89ebe3ccbc5c014fd3b29abfdda0d379709dd7f28dcd01c9f7dad8b806aa54f8133adf378a7335aba34dc462cbcda07e76e82d4a030b56c2352e0cb128d5ac4c78ca4ad64ec679808dcb3308679520a0bdbf6f15ab2602db876fcffc78adb23b4499959cb0460f9508bb14f884cacad0a055fb730a81af8615add1b4fb896303b1efd995f6da3da6dbb5022f05f150d5aba09e54942e5cbab33b4ec4216f6eeaf22c427135da3ee41438bcc4e7de07ffeee0a0364969fa64ed1edef177b8a87bbe20e26615582bf935df361abf64c0b7e2b589a0e6e82a109ac4e5daed8f76043d8393d0298472e0518ff96a48b8492e479881fba02f99a627eef6eb28b99d5858f08ef8d8c0e89badbd1c1d576c61c0af3c938f9aa02c5ee077f1024b80d90031def886930bcbf7c16d475c045c26607791ebc8da9ca0e086c4db2fb20d0509e45cc93d81ebbb34392390d03ca817c15d77896cc23f7180a08333762fcaf7193e048ab228010951a924224adf67ad901b5e98441becfcbbd7a0df1bbc47d51aad17cbec68b44b154f06235dd53ee83ac0945852cb265a1e442880",
    "df1bbc47d51aad17cbec68b44b154f06235dd53ee83ac0945852cb265a1e4428": "f851808080a082df813457d4783f4c7004117481a40efa3d3de29473f7084dd2fa81a82b4d4fa072ae08cc6bfd26811afa12ec7df8686527a5f3b2b1b26e264a6d8a1117266133808080808080808080808080"
  },
  "storageTrie": {
    "0588b43007d2769bf8ecdb44e9934f945796054acfc94ff116915009676d2174": "f89180a0700b568369bab9b3af3f1561a426e991cc426bba9b8c73341a0ceda6ea392ca280a0a3d9f82321c11d0055cb4f02f6f344a3ee02ea7d6d02edbc9f5eb64973e10d6080808080a0d403acbfffcb923d23bebdf5f6a80e3909e5afa7096607df83dc090641a561d8808080808080a0b31bceaf1564875cd3753188c6d491c0457329fbabc4bf1cd0f71dc8dd49fc9080",
    "411cb21da38bda029ce19dd0816a52bdeef635d9a123d979514982ec78fdab5d": "e2a020895aeba922f7a7fbe64d6e18ac301e6895dea1b10155bc0dfdfb93dd33da4003",
    "a3d9f82321c11d0055cb4f02f6f344a3ee02ea7d6d02edbc9f5eb64973e10d60": "f851808080808080a0411cb21da38bda029ce19dd0816a52bdeef635d9a123d979514982ec78fdab5d8080808080808080a07208d6b504833528a018ecd2d190b5b0bbaf3cd5bae726ad517060f6389fc6f780",
    "d403acbfffcb923d23bebdf5f6a80e3909e5afa7096607df83dc090641a561d8": "e2a03a35acfbc15ff81a39ae7d344fd709f28e8600b4aa8c65c6b64bfe7fe36bd19b03"
  },
  "parentStateRoot": "0xc5986a57c4754ef0dbb94095742abdcb31ac1f8bfa03c41ad9d90e6689dc3367",
  "transactionTraces": [
    {
      "txn": "0x02f8b38207d182121584b6a77acd84b6a77c7382e48394ec59ea1acb9fc9f630b2dce73790ed8be0ac036e80b844248b71fc00000000000000000000000085da99c8a7c2c95964c8efd687e95e632fc533d60000000000000000000000000000000000000000000000000000000000000001c080a02fcfb0a718eb46f37d10752940a0ba724929f48a749b69c9a795d4aeeb05daeba05c5e7628ea75781fe260d3d360cf010fad3bee7fe541822eed5dff533e32c5eb",
      "delta": {
        "0x0000000000000000000000000000000000000000": {
          "address": "0x0000000000000000000000000000000000000000",
          "read": true
        },
        "0x7f0480640BB89A19324292C5dE95F6f629e2139E": {
          "address": "0x7f0480640BB89A19324292C5dE95F6f629e2139E",
          "read": true
        },
        "0x85dA99c8a7C2C95964c8EfD687E95E632Fc533D6": {
          "address": "0x85dA99c8a7C2C95964c8EfD687E95E632Fc533D6",
          "nonce": 4630,
          "read": true
        },
        "0xEc59Ea1ACB9fc9F630B2DCe73790eD8Be0ac036e": {
          "address": "0xEc59Ea1ACB9fc9F630B2DCe73790eD8Be0ac036e",
          "storage": {
            "0x0000000000000000000000000000000000000000000000000000000000000004": "0x0000000000000000000000000000000000000000000000000000000000000004",
            "0x101e368776582e57ab3d116ffe2517c0a585cd5b23174b01e275c2d8329c3d83": "0x00000000000000000000000085da99c8a7c2c95964c8efd687e95e632fc533d6",
            "0x42fe90393dafacccf318596e1ca7e1e77c330a9ddff37275ce72bbe7ecb10ab8": "0x0000000000000000000000000000000000000000000000000000000000000004"
          },
          "storage_read": {
            "0x0000000000000000000000000000000000000000000000000000000000000004": {},
            "0x101e368776582e57ab3d116ffe2517c0a585cd5b23174b01e275c2d8329c3d83": {},
            "0x42fe90393dafacccf318596e1ca7e1e77c330a9ddff37275ce72bbe7ecb10ab8": {}
          },
          "code_read": "YIBgQFI0gBVhABBXYACA/VtQYAQ2EGEAqVdgADVg4ByAY0KELg4RYQBxV4BjQoQuDhRhAWJXgGNjUiEeFGEBfleAY3CggjEUYQGuV4Bjoiy0ZRRhAd5XgGO4jU/eFGEB+leAY+mF6cUUYQIWV2EAqVZbgGMB/8mnFGEArleAYwgYEvwUYQDeV4BjCV6nsxRhAQ5XgGMjuHLdFGEBKleAYySLcfwUYQFGV1tgAID9W2EAyGAEgDYDgQGQYQDDkZBhEj9WW2ECRlZbYEBRYQDVkZBhEodWW2BAUYCRA5DzW2EA+GAEgDYDgQGQYQDzkZBhEthWW2EDGFZbYEBRYQEFkZBhE0ZWW2BAUYCRA5DzW2EBKGAEgDYDgQGQYQEjkZBhE41WW2ED9VZbAFthAURgBIA2A4EBkGEBP5GQYRPNVlthBd1WWwBbYQFgYASANgOBAZBhAVuRkGETjVZbYQjJVlsAW2EBfGAEgDYDgQGQYQF3kZBhE81WW2EI11ZbAFthAZhgBIA2A4EBkGEBk5GQYRLYVlthCg9WW2BAUWEBpZGQYRNGVltgQFGAkQOQ81thAchgBIA2A4EBkGEBw5GQYRQgVlthCrpWW2BAUWEB1ZGQYRRcVltgQFGAkQOQ81thAfhgBIA2A4EBkGEB85GQYRSjVlthC3FWWwBbYQIUYASANgOBAZBhAg+RkGEVSFZbYQxuVlsAW2ECMGAEgDYDgQGQYQIrkZBhFdBWW2ENrFZbYEBRYQI9kZBhEodWW2BAUYCRA5DzW2AAf4CsWM0AAAAAAAAAAAAAAAAAAAAAAAAAAAAAAAAAAAAAe/////////////////////////////////////8ZFoJ7/////////////////////////////////////xkWFIBhAxFXUH8B/8mnAAAAAAAAAAAAAAAAAAAAAAAAAAAAAAAAAAAAAHv/////////////////////////////////////GRaCe/////////////////////////////////////8ZFhRbkFCRkFBWW2AAgHP//////////////////////////xZgAICEgVJgIAGQgVJgIAFgACBgAJBUkGEBAAqQBHP//////////////////////////xZz//////////////////////////8WA2EDuldgQFF/CMN5oAAAAAAAAAAAAAAAAAAAAAAAAAAAAAAAAAAAAACBUmAEAWEDsZBhFm1WW2BAUYCRA5D9W2ACYACDgVJgIAGQgVJgIAFgACBgAJBUkGEBAAqQBHP//////////////////////////xaQUJGQUFZbYACAYACDgVJgIAGQgVJgIAFgACBgAJBUkGEBAAqQBHP//////////////////////////xaQUIBz//////////////////////////8WM3P//////////////////////////xYUgGEE7FdQYANgAIJz//////////////////////////8Wc///////////////////////////FoFSYCABkIFSYCABYAAgYAAzc///////////////////////////FnP//////////////////////////xaBUmAgAZCBUmAgAWAAIGAAkFSQYQEACpAEYP8WW2EFK1dgQFF/CMN5oAAAAAAAAAAAAAAAAAAAAAAAAAAAAAAAAAAAAACBUmAEAWEFIpBhFtlWW2BAUYCRA5D9W4JgAmAAhIFSYCABkIFSYCABYAAgYABhAQAKgVSBc///////////////////////////AhkWkINz//////////////////////////8WAheQVVCBg3P//////////////////////////xaCc///////////////////////////Fn+MW+Hl6+x9W9FPcUJ9HoTz3QMUwPeyKR5bIArIx8O5JWBAUWBAUYCRA5CkUFBQVltgAICCgVJgIAGQgVJgIAFgACBgAJBUkGEBAAqQBHP//////////////////////////xZz//////////////////////////8Wg3P//////////////////////////xYUYQZ9V2BAUX8Iw3mgAAAAAAAAAAAAAAAAAAAAAAAAAAAAAAAAAAAAAIFSYAQBYQZ0kGEXRVZbYEBRgJEDkP1bYABz//////////////////////////8WgnP//////////////////////////xYDYQbsV2BAUX8Iw3mgAAAAAAAAAAAAAAAAAAAAAAAAAAAAAAAAAAAAAIFSYAQBYQbjkGEXsVZbYEBRgJEDkP1bYQb3gzODYQ3bVlthBzZXYEBRfwjDeaAAAAAAAAAAAAAAAAAAAAAAAAAAAAAAAAAAAAAAgVJgBAFhBy2QYRbZVltgQFGAkQOQ/VtgAYBgAIVz//////////////////////////8Wc///////////////////////////FoFSYCABkIFSYCABYAAgYACCglRhB4WRkGEYAFZbklBQgZBVUGABgGAAhHP//////////////////////////xZz//////////////////////////8WgVJgIAGQgVJgIAFgACBgAIKCVGEH25GQYRg0VluSUFCBkFVQgWAAgIOBUmAgAZCBUmAgAWAAIGAAYQEACoFUgXP//////////////////////////wIZFpCDc///////////////////////////FgIXkFVQYAJgAIKBUmAgAZCBUmAgAWAAIGAAYQEACoFUkHP//////////////////////////wIZFpBVgIJz//////////////////////////8WhHP//////////////////////////xZ/3fJSrRviyJtpwrBo/DeNqpUrp/FjxKEWKPVaTfUjs+9gQFFgQFGAkQOQpFBQUFZbYQjTgoJhDw9WW1BQVlthCOKDg4NhBd1WW2AAgnP//////////////////////////xY7FIBhCctXUGMVC3oCYOAbe/////////////////////////////////////8ZFoJz//////////////////////////8WYxULegIzhoVgQFGEY/////8WYOAbgVJgBAFhCWeTkpGQYRifVltgIGBAUYCDA4FgAIda8RWAFWEJhlc9YACAPj1gAP1bUFBQUGBAUT1gHxlgH4IBFoIBgGBAUlCBAZBhCaqRkGEY/lZbe/////////////////////////////////////8ZFhRbYQoKV2BAUX8Iw3mgAAAAAAAAAAAAAAAAAAAAAAAAAAAAAAAAAAAAAIFSYAQBYQoBkGEZd1ZbYEBRgJEDkP1bUFBQVltgAIBgAIOBUmAgAZCBUmAgAWAAIGAAkFSQYQEACpAEc///////////////////////////FpBQYABz//////////////////////////8WgXP//////////////////////////xYDYQq1V2BAUX8Iw3mgAAAAAAAAAAAAAAAAAAAAAAAAAAAAAAAAAAAAAIFSYAQBYQqskGEWbVZbYEBRgJEDkP1bkZBQVltgAIBz//////////////////////////8WgnP//////////////////////////xYDYQsqV2BAUX8Iw3mgAAAAAAAAAAAAAAAAAAAAAAAAAAAAAAAAAAAAAIFSYAQBYQshkGEZ41ZbYEBRgJEDkP1bYAFgAINz//////////////////////////8Wc///////////////////////////FoFSYCABkIFSYCABYAAgVJBQkZBQVluAYANgADNz//////////////////////////8Wc///////////////////////////FoFSYCABkIFSYCABYAAgYACEc///////////////////////////FnP//////////////////////////xaBUmAgAZCBUmAgAWAAIGAAYQEACoFUgWD/AhkWkIMVFQIXkFVQgXP//////////////////////////xYzc///////////////////////////Fn8XMH6rOathB+iJmEWtPVm9llPyAPIgkgSJyitZN2lsMYNgQFFhDGKRkGESh1ZbYEBRgJEDkKNQUFZbYQx5hYWFYQXdVltgAIRz//////////////////////////8WOxSAYQ1mV1BjFQt6AmDgG3v/////////////////////////////////////GRaEc///////////////////////////FmMVC3oCM4iHh4dgQFGGY/////8WYOAbgVJgBAFhDQKVlJOSkZBhGlBWW2AgYEBRgIMDgWAAh1rxFYAVYQ0hVz1gAIA+PWAA/VtQUFBQYEBRPWAfGWAfggEWggGAYEBSUIEBkGENRZGQYRj+Vlt7/////////////////////////////////////xkWFFthDaVXYEBRfwjDeaAAAAAAAAAAAAAAAAAAAAAAAAAAAAAAAAAAAAAAgVJgBAFhDZyQYRl3VltgQFGAkQOQ/VtQUFBQUFZbYANgIFKBYABSYEBgACBgIFKAYABSYEBgACBgAJFQkVCQVJBhAQAKkARg/xaBVltgAINz//////////////////////////8Wg3P//////////////////////////xYUgGEOnVdQYANgAIVz//////////////////////////8Wc///////////////////////////FoFSYCABkIFSYCABYAAgYACEc///////////////////////////FnP//////////////////////////xaBUmAgAZCBUmAgAWAAIGAAkFSQYQEACpAEYP8WW4BhDwZXUGACYACDgVJgIAGQgVJgIAFgACBgAJBUkGEBAAqQBHP//////////////////////////xZz//////////////////////////8Wg3P//////////////////////////xYUW5BQk5JQUFBWW2AAYARUkFBgAHP//////////////////////////xaDc///////////////////////////FgNhD4VXYEBRfwjDeaAAAAAAAAAAAAAAAAAAAAAAAAAAAAAAAAAAAAAAgVJgBAFhD3yQYRrqVltgQFGAkQOQ/VtgAHP//////////////////////////xZgAICDgVJgIAGQgVJgIAFgACBgAJBUkGEBAAqQBHP//////////////////////////xZz//////////////////////////8WFGEQJldgQFF/CMN5oAAAAAAAAAAAAAAAAAAAAAAAAAAAAAAAAAAAAACBUmAEAWEQHZBhG1ZWW2BAUYCRA5D9W38AAAAAAAAAAAAAAAAAAAAAAAAAAAAAAAAAAAAAAAAAZIIRFWEQiVdgQFF/CMN5oAAAAAAAAAAAAAAAAAAAAAAAAAAAAAAAAAAAAACBUmAEAWEQgJBhG+hWW2BAUYCRA5D9W4Fv/////////////////////xZgAWAAhXP//////////////////////////xZz//////////////////////////8WgVJgIAGQgVJgIAFgACBgAIKCVGEQ6pGQYRg0VluSUFCBkFVQYACBkFBgAFuDgRAVYRHPV4GFc///////////////////////////FmAAc///////////////////////////Fn/d8lKtG+LIm2nCsGj8N42qlSun8WPEoRYo9VpN9SOz72BAUWBAUYCRA5CkhGAAgISBUmAgAZCBUmAgAWAAIGAAYQEACoFUgXP//////////////////////////wIZFpCDc///////////////////////////FgIXkFVQgYBhEbmQYRwIVluSUFCAgGERx5BhHAhWW5FQUGEQ+VZbUIBgBIGQVVBQUFBQVltgAID9W2AAgP1bYAB//////wAAAAAAAAAAAAAAAAAAAAAAAAAAAAAAAAAAAACCFpBQkZBQVlthEhyBYRHnVluBFGESJ1dgAID9W1BWW2AAgTWQUGESOYFhEhNWW5KRUFBWW2AAYCCChAMSFWESVVdhElRhEd1WW1tgAGESY4SChQFhEipWW5FQUJKRUFBWW2AAgRUVkFCRkFBWW2ESgYFhEmxWW4JSUFBWW2AAYCCCAZBQYRKcYACDAYRhEnhWW5KRUFBWW2AAgZBQkZBQVlthErWBYRKiVluBFGESwFdgAID9W1BWW2AAgTWQUGES0oFhEqxWW5KRUFBWW2AAYCCChAMSFWES7ldhEu1hEd1WW1tgAGES/ISChQFhEsNWW5FQUJKRUFBWW2AAc///////////////////////////ghaQUJGQUFZbYABhEzCCYRMFVluQUJGQUFZbYRNAgWETJVZbglJQUFZbYABgIIIBkFBhE1tgAIMBhGETN1ZbkpFQUFZbYRNqgWETJVZbgRRhE3VXYACA/VtQVltgAIE1kFBhE4eBYRNhVluSkVBQVltgAIBgQIOFAxIVYROkV2ETo2ER3VZbW2AAYROyhYKGAWETeFZbklBQYCBhE8OFgoYBYRLDVluRUFCSUJKQUFZbYACAYABgYISGAxIVYRPmV2ET5WER3VZbW2AAYRP0hoKHAWETeFZbk1BQYCBhFAWGgocBYRN4VluSUFBgQGEUFoaChwFhEsNWW5FQUJJQklCSVltgAGAggoQDEhVhFDZXYRQ1YRHdVltbYABhFESEgoUBYRN4VluRUFCSkVBQVlthFFaBYRKiVluCUlBQVltgAGAgggGQUGEUcWAAgwGEYRRNVluSkVBQVlthFICBYRJsVluBFGEUi1dgAID9W1BWW2AAgTWQUGEUnYFhFHdWW5KRUFBWW2AAgGBAg4UDEhVhFLpXYRS5YRHdVltbYABhFMiFgoYBYRN4VluSUFBgIGEU2YWChgFhFI5WW5FQUJJQkpBQVltgAID9W2AAgP1bYACA/VtgAICDYB+EARJhFQhXYRUHYRTjVltbgjWQUGf//////////4ERFWEVJVdhFSRhFOhWW1tgIIMBkVCDYAGCAoMBERVhFUFXYRVAYRTtVltbklCSkFBWW2AAgGAAgGAAYICGiAMSFWEVZFdhFWNhEd1WW1tgAGEVcoiCiQFhE3hWW5VQUGAgYRWDiIKJAWETeFZblFBQYEBhFZSIgokBYRLDVluTUFBgYIYBNWf//////////4ERFWEVtVdhFbRhEeJWW1thFcGIgokBYRTyVluSUJJQUJKVUJKVkJNQVltgAIBgQIOFAxIVYRXnV2EV5mER3VZbW2AAYRX1hYKGAWETeFZbklBQYCBhFgaFgoYBYRN4VluRUFCSUJKQUFZbYACCglJgIIIBkFCSkVBQVlt/dG9rZW4gZG9lc24ndCBleGlzdAAAAAAAAAAAAAAAAABgAIIBUlBWW2AAYRZXYBODYRYQVluRUGEWYoJhFiFWW2AgggGQUJGQUFZbYABgIIIBkFCBgQNgAIMBUmEWhoFhFkpWW5BQkZBQVlt/bm90IGF1dGhvcml6ZWQAAAAAAAAAAAAAAAAAAAAAAABgAIIBUlBWW2AAYRbDYA6DYRYQVluRUGEWzoJhFo1WW2AgggGQUJGQUFZbYABgIIIBkFCBgQNgAIMBUmEW8oFhFrZWW5BQkZBQVlt/ZnJvbSAhPSBvd25lcgAAAAAAAAAAAAAAAAAAAAAAAABgAIIBUlBWW2AAYRcvYA2DYRYQVluRUGEXOoJhFvlWW2AgggGQUJGQUFZbYABgIIIBkFCBgQNgAIMBUmEXXoFhFyJWW5BQkZBQVlt/dHJhbnNmZXIgdG8gemVybyBhZGRyZXNzAAAAAAAAAABgAIIBUlBWW2AAYRebYBiDYRYQVluRUGEXpoJhF2VWW2AgggGQUJGQUFZbYABgIIIBkFCBgQNgAIMBUmEXyoFhF45WW5BQkZBQVlt/Tkh7cQAAAAAAAAAAAAAAAAAAAAAAAAAAAAAAAAAAAABgAFJgEWAEUmAkYAD9W2AAYRgLgmESolZbkVBhGBaDYRKiVluSUIKCA5BQgYERFWEYLldhGC1hF9FWW1uSkVBQVltgAGEYP4JhEqJWW5FQYRhKg2ESolZbklCCggGQUICCERVhGGJXYRhhYRfRVltbkpFQUFZbYACCglJgIIIBkFCSkVBQVltQVltgAGEYiWAAg2EYaFZbkVBhGJSCYRh5VltgAIIBkFCRkFBWW2AAYICCAZBQYRi0YACDAYZhEzdWW2EYwWAggwGFYRM3VlthGM5gQIMBhGEUTVZbgYEDYGCDAVJhGN+BYRh8VluQUJSTUFBQUFZbYACBUZBQYRj4gWESE1ZbkpFQUFZbYABgIIKEAxIVYRkUV2EZE2ER3VZbW2AAYRkihIKFAWEY6VZbkVBQkpFQUFZbf3Vuc2FmZSByZWNpcGllbnQAAAAAAAAAAAAAAAAAAAAAYACCAVJQVltgAGEZYWAQg2EWEFZbkVBhGWyCYRkrVltgIIIBkFCRkFBWW2AAYCCCAZBQgYEDYACDAVJhGZCBYRlUVluQUJGQUFZbf293bmVyID0gemVybyBhZGRyZXNzAAAAAAAAAAAAAAAAYACCAVJQVltgAGEZzWAUg2EWEFZbkVBhGdiCYRmXVltgIIIBkFCRkFBWW2AAYCCCAZBQgYEDYACDAVJhGfyBYRnAVluQUJGQUFZbgoGDN2AAg4MBUlBQUFZbYABgHxlgH4MBFpBQkZBQVltgAGEaL4OFYRhoVluTUGEaPIOFhGEaA1ZbYRpFg2EaElZbhAGQUJOSUFBQVltgAGCAggGQUGEaZWAAgwGIYRM3VlthGnJgIIMBh2ETN1ZbYRp/YECDAYZhFE1WW4GBA2BggwFSYRqSgYSGYRojVluQUJaVUFBQUFBQVlt/bWludCB0byB6ZXJvIGFkZHJlc3MAAAAAAAAAAAAAAABgAIIBUlBWW2AAYRrUYBSDYRYQVluRUGEa34JhGp5WW2AgggGQUJGQUFZbYABgIIIBkFCBgQNgAIMBUmEbA4FhGsdWW5BQkZBQVlt/YWxyZWFkeSBtaW50ZWQAAAAAAAAAAAAAAAAAAAAAAABgAIIBUlBWW2AAYRtAYA6DYRYQVluRUGEbS4JhGwpWW2AgggGQUJGQUFZbYABgIIIBkFCBgQNgAIMBUmEbb4FhGzNWW5BQkZBQVlt/RVJDNzIxQTogcXVhbnRpdHkgdG8gbWludCB0b28gaGlgAIIBUn9naAAAAAAAAAAAAAAAAAAAAAAAAAAAAAAAAAAAAAAAAGAgggFSUFZbYABhG9JgIoNhFhBWW5FQYRvdgmEbdlZbYECCAZBQkZBQVltgAGAgggGQUIGBA2AAgwFSYRwBgWEbxVZbkFCRkFBWW2AAYRwTgmESolZbkVB///////////////////////////////////////////+CA2EcRVdhHERhF9FWW1tgAYIBkFCRkFBW/qJkaXBmc1giEiB0ShnjEsZGBJjOoPQklISOU39GbAYmnRiOIVC0F6mikmRzb2xjQwAIEQAz",
          "touched": true,
          "read": true
        }
      }
    }
  ]
}
