{
  "accountTrie": {
    "420d4cb6a221a2f126e35a1761a43d5aeed49375d7e63f414db0cc9b60124fe2": "f871a0e60681448ad1e9720eca3ffa2a7a27b8b1419fa488a6dce63a6eb7189e955c308080a0b07adef7b13d110ed9c47690c679f0fdd54ec274e2fb927b109d7257426600f780a03a6ab9252d625ee34450f5f40ef8aeaf895aedcd7be4a964969ea65a145d7a288080808080808080808080",
    "630424b701bf4d77811f845109754b2b6fec0f98ed00103c59b8c32416fa7b58": "f85180a031d1eb10fdf37ef90417d463e9e3d1dad5bab6a3e8b38ccc4eaa744250317457808080a0c26c6a19101a707a018d3d8c28b205c93810f10f6c3a5dfc8e00226a81ffde108080808080808080808080",
    "74e766e003f009804a9f3e6d75ca39de3ac7ab0527d2e5221088de84cac9c09e": "f851808080a0f5627cf407b0fb2a329ddc8e2200f6e6c2a5e06c1d652adc6aea3cd8a83bd58fa0a36446a0229e6c8d4a556774979539f4a4892b3eea8cbe359bdce01f97130a31808080808080808080808080",
    "8384dc8e771de42b1c57c74c27968f85b9e16f22298b337c0a925961bec9f380": "f8769f3eec2b84f0ba344fd4b4d2f022469febe7a772c4789acfc119eb558ab1da3db854f85282100c8c033b2e3c62f6cf5c1645a3dba056e81f171bcc55a6ff8345e692c0f86e5b48e01b996cadc001622fb5e363b421a0c5d2460186f7233c927e7db2dcc703c0e500b653ca82273b7bfad8045d85a470",
    "a1c6233453632080985c7dd53ae986d3b5b246c46ad43b2d4dbea45d6c55edc5": "f901d1a0d5653018d00cf355e0f6e4282a0ed3dd7e7c62cc86ce5a5405f820e6d679c24c80a0c9781c19a58a4f225d09e3a25bf750646b047090cdbfc97cf1fd57ca5def1e64a0d379709dd7f28dcd01c9f7dad8b806aa54f8133adf378a7335aba34dc462cbcda0bcb072ae9f4e41bae3e9c7c8998ea1ef3c1f7220ac63c40dccd74a6f710a61a3a0420d4cb6a221a2f126e35a1761a43d5aeed49375d7e63f414db0cc9b60124fe2a055fb730a81af8615add1b4fb896303b1efd995f6da3da6dbb5022f05f150d5aba09e54942e5cbab33b4ec4216f6eeaf22c427135da3ee41438bcc4e7de07ffeee0a0364969fa64ed1edef177b8a87bbe20e26615582bf935df361abf64c0b7e2b589a0e6e82a109ac4e5daed8f76043d8393d0298472e0518ff96a48b8492e479881fba0630424b701bf4d77811f845109754b2b6fec0f98ed00103c59b8c32416fa7b58a0641172028033391973b95cc84af3b17df365c017f41cc4593e4c201102a5a53da0e086c4db2fb20d0509e45cc93d81ebbb34392390d03ca817c15d77896cc23f7180a08333762fcaf7193e048ab228010951a924224adf67ad901b5e98441becfcbbd7a074e766e003f009804a9f3e6d75ca39de3ac7ab0527d2e5221088de84cac9c09e80",
    "b07adef7b13d110ed9c47690c679f0fdd54ec274e2fb927b109d7257426600f7": "f873a02080c7b7ae81a58eb98d9c78de4a1fd7fd9535fc953ed2be602daaa41767312ab850f84e808ad3c21bd1ba4eebb6689ea056e81f171bcc55a6ff8345e692c0f86e5b48e01b996cadc001622fb5e363b421a0c5d2460186f7233c927e7db2dcc703c0e500b653ca82273b7bfad8045d85a470",
    "c26c6a19101a707a018d3d8c28b205c93810f10f6c3a5dfc8e00226a81ffde10": "f85180a08384dc8e771de42b1c57c74c27968f85b9e16f22298b337c0a925961bec9f38080808080808080808080a0b352e4c72d853473be5eac69cf10adfdc61a3747ec26a4b424f0a29292fc1d3780808080",
    "e60681448ad1e9720eca3ffa2a7a27b8b1419fa488a6dce63a6eb7189e955c30": "f873a020ca76189ff60bcdc5825b851694620aaf3c0c2f0c2a6f7af72b44093ef83d21b850f84e808ad3c21bfb4cb4ef5d2aeea056e81f171bcc55a6ff8345e692c0f86e5b48e01b996cadc001622fb5e363b421a0c5d2460186f7233c927e7db2dcc703c0e500b653ca82273b7bfad8045d85a470",
    "f5627cf407b0fb2a329ddc8e2200f6e6c2a5e06c1d652adc6aea3cd8a83bd58f": "f869a0206d6fadc19b5ec9189ae65683241081f7c772ec596ea1facb9daef2a1396637b846f8440180a028ebcecde8d9e925364d5d3740e118d3208cfa6fa61bae4bc2c14c357bde5f84a0e86cf7cc93bf311f1751ca156a07c54a62d0769f9a09b61afd05b037a4713e1b"
  },
  "storageTrie": {
    "179c634c6086ec2b3f35fdaab3ca54191772a05445f7ef3081c42d8776f7a2cc": "f842a0202149d90beac0570c7f26368e4bc897ca24bba51b1a0f4960d358f764f11f31a09f0f000000000000000000000000000000000000000000000000000000000004",
    "28ebcecde8d9e925364d5d3740e118d3208cfa6fa61bae4bc2c14c357bde5f84": "f90171a02e02615eb4b65ae139caa378e1d5bdd5a82c313955b9f1847019d239409b2d4ba0ce073c007ab1438c6ed1eb0762cb59c4f7231e51fab3bd359fcec46336e5d3e1a037bca61d1a1ea382830708bdc18a58dcfae13be2da58569deeb418ee3e21743e80a0a7c22e9645714412470ab066f12e3730a279c0da0b272f0ba9acf8222665b32ba0913df64b0396aa50d3e1462d92ead210f84fc82d46a8f97986a2c393cb58e1e4a0ef817e40be5549fff6d3710633334e62f76f54b1c654275433349a5ef8de62fc8080a0500abd24c4538d3ab6b7c90989fe078e046268cb6b3b205c7f63f510f0a2ce9aa0f399c14a1aca218d9f65fde0fede5584dd350446a9b85edb2531cd8ca793008fa03f5c8f157b1c7e3374432d89e466b9f3d8c605ac378c54325d6e3f70f66d78e1a05949646b5b0e646a428a5ece500afbabd61361c4aa4e1f946595e1f88b02c19c80a087f1a2f45e66f8a5ad146da4eb6f7466bab7b6369e5127848c7807fbd703dc118080",
    "37bca61d1a1ea382830708bdc18a58dcfae13be2da58569deeb418ee3e21743e": "f85180808080808080808080808080a0d66596f7602fa904d009a8465023bd0c55aee15125f55d2dc352ba75a242975b80a0179c634c6086ec2b3f35fdaab3ca54191772a05445f7ef3081c42d8776f7a2cc80",
    "3f5c8f157b1c7e3374432d89e466b9f3d8c605ac378c54325d6e3f70f66d78e1": "f842a036b7834d611e25670b584f73a3e810d0a47c773fe173fc6975449e876b0a6a70a09f0ff1ce00bab10c000000000000000000000000000000000000000000000010",
    "500abd24c4538d3ab6b7c90989fe078e046268cb6b3b205c7f63f510f0a2ce9a": "f842a0324a8d2842600cb703d1a12f6e37579be2cdf8f3c9dd299e97a8a6ac73d6350fa09f0ff1ce00bab10c1badb0028badf00dabadbabeb105f00db16b00b50b00b135",
    "5949646b5b0e646a428a5ece500afbabd61361c4aa4e1f946595e1f88b02c19c": "f842a03c034019b449ad16908580172ec972745a229ec6575a8d785eaa22043f92c453a09f0ff1ce00bab10c1badb0028badf00d00000000000000000000000000000020",
    "a58dc785f044e567ec17b4ce555e403e6380e347b08411b6c467242cb836564a": "e2a0205787fa12a823e0f2b7631cc41b3ba8828b3321ca811111fa75cd3aa3bb5ace08",
    "a7c22e9645714412470ab066f12e3730a279c0da0b272f0ba9acf8222665b32b": "f851a0a58dc785f044e567ec17b4ce555e403e6380e347b08411b6c467242cb836564a808080808080808080a0c7c5e593a9a5354f748c10e895c2d85efdbf14152a52cfaea23f1aed71e6b26a808080808080"
  },
  "parentStateRoot": "0xa1c6233453632080985c7dd53ae986d3b5b246c46ad43b2d4dbea45d6c55edc5",
  "transactionTraces": [
    {
      "txn": "0x02f901b58207d182100c84b6b1a2be84b6b4c89e8303476e9458145f797db29e89b1f132f80c10f09ada7c374280b90144b374012b00000000000000000000000000000000000000000000000000000000000000200000000000000000000000000000000000000000000000000000000000000100000ff1ce00bab10c1badb0028badf00dabadbabeb105f00db16b00b50b00b135baaaaaadbaadf00dbad22222baddcafecafeb0bab0bababebeefbabec00010ffcafebabecafed00dcefaedfe0d15ea5edabbad00dead2baddeadbaaddeadbabedeadbeafdeadbeefdeadc0dedeaddeaddeadd00ddeadfa11dead10ccdeadfeeddecafbaddefec8edd0d0cacae011cfd0facefeedfbadbeeffee1deadfeedbabefeedc0deffbadd11f00dbabe000ff1ce00bab10c1badb0028badf00dabadbabeb105f00db16b00b50b00b135baaaaaadbaadf00dbad22222baddcafecafeb0bab0bababebeefbabec00010ffcafebabecafed00dcefaedfe0d15ea5edabbad00c080a0e1fe8e84c0122b6fd9bb5584378cfc55a2d731c2bc9d8f5caa222f4de80030eca07c09df39901e4726cfaf36607629f9c4fdf6a3cc216c229bdf709656d1201efd",
      "delta": {
        "0x0000000000000000000000000000000000000000": {
          "address": "0x0000000000000000000000000000000000000000",
          "read": true
        },
        "0x58145F797Db29e89b1F132F80c10F09Ada7c3742": {
          "address": "0x58145F797Db29e89b1F132F80c10F09Ada7c3742",
          "storage": {
            "0x0000000000000000000000000000000000000000000000000000000000000002": "0x0000000000000000000000000000000000000000000000000000000000000009",
            "0x405787fa12a823e0f2b7631cc41b3ba8828b3321ca811111fa75cd3aa3bb5ad6": "0x0000000000000000000000000000000000000000000000000000000000000201",
            "0xb9ca152920095f2fe7984b9ce1a725c3bc9436952ed17113f5fc7b7b613c401d": "0x000ff1ce00bab10c1badb0028badf00dabadbabeb105f00db16b00b50b00b135",
            "0xb9ca152920095f2fe7984b9ce1a725c3bc9436952ed17113f5fc7b7b613c401e": "0xbaaaaaadbaadf00dbad22222baddcafecafeb0bab0bababebeefbabec00010ff",
            "0xb9ca152920095f2fe7984b9ce1a725c3bc9436952ed17113f5fc7b7b613c401f": "0xcafebabecafed00dcefaedfe0d15ea5edabbad00dead2baddeadbaaddeadbabe",
            "0xb9ca152920095f2fe7984b9ce1a725c3bc9436952ed17113f5fc7b7b613c4020": "0xdeadbeafdeadbeefdeadc0dedeaddeaddeadd00ddeadfa11dead10ccdeadfeed",
            "0xb9ca152920095f2fe7984b9ce1a725c3bc9436952ed17113f5fc7b7b613c4021": "0xdecafbaddefec8edd0d0cacae011cfd0facefeedfbadbeeffee1deadfeedbabe",
            "0xb9ca152920095f2fe7984b9ce1a725c3bc9436952ed17113f5fc7b7b613c4022": "0xfeedc0deffbadd11f00dbabe000ff1ce00bab10c1badb0028badf00dabadbabe",
            "0xb9ca152920095f2fe7984b9ce1a725c3bc9436952ed17113f5fc7b7b613c4023": "0xb105f00db16b00b50b00b135baaaaaadbaadf00dbad22222baddcafecafeb0ba",
            "0xb9ca152920095f2fe7984b9ce1a725c3bc9436952ed17113f5fc7b7b613c4024": "0xb0bababebeefbabec00010ffcafebabecafed00dcefaedfe0d15ea5edabbad00"
          },
          "storage_read": {
            "0x0000000000000000000000000000000000000000000000000000000000000002": {},
            "0x405787fa12a823e0f2b7631cc41b3ba8828b3321ca811111fa75cd3aa3bb5ad6": {},
            "0xb9ca152920095f2fe7984b9ce1a725c3bc9436952ed17113f5fc7b7b613c401d": {},
            "0xb9ca152920095f2fe7984b9ce1a725c3bc9436952ed17113f5fc7b7b613c401e": {},
            "0xb9ca152920095f2fe7984b9ce1a725c3bc9436952ed17113f5fc7b7b613c401f": {},
            "0xb9ca152920095f2fe7984b9ce1a725c3bc9436952ed17113f5fc7b7b613c4020": {},
            "0xb9ca152920095f2fe7984b9ce1a725c3bc9436952ed17113f5fc7b7b613c4021": {},
            "0xb9ca152920095f2fe7984b9ce1a725c3bc9436952ed17113f5fc7b7b613c4022": {},
            "0xb9ca152920095f2fe7984b9ce1a725c3bc9436952ed17113f5fc7b7b613c4023": {},
            "0xb9ca152920095f2fe7984b9ce1a725c3bc9436952ed17113f5fc7b7b613c4024": {}
          },
          "code_read": "YIBgQFI0gBVhABBXYACA/VtQYAQ2EGEEVFdgADVg4ByAY4CUf4ARYQJBV4Bjv1KcoRFhATtXgGPdm+9gEWEAw1eAY/J5yoERYQCHV4Bj8nnKgRRhEWFXgGP00fxhFGERkVeAY/WPw2oUYRHBV4Bj9rC79xRhEfFXgGP953IcFGESIVdhBFRWW4Bj3ZvvYBRhEHFXgGPel6NjFGEQoVeAY+n5s/IUYRDRV4Bj6lFB5hRhEQFXgGPt8APPFGERMVdhBFRWW4Bjzjz07xFhAQpXgGPOPPTvFGEPgVeAY9EXMgsUYQ+xV4Bj1R57WxRhD+FXgGPVP/P9FGEQEVeAY9k81VgUYRBBV2EEVFZbgGO/UpyhFGEOwVeAY8Ngq6YUYQ7xV4BjxCDrYRRhDyFXgGPEvWXVFGEPUVdhBFRWW4BjoYaDyxFhAclXgGOzdAErEWEBjVeAY7N0ASsUYQ3RV4Bjs9hH8hRhDgFXgGO3uGIHFGEOMVeAY7gcFIQUYQ5hV4Bjvch1/BRhDpFXYQRUVluAY6GGg8sUYQzzV4BjonG3IRRhDSNXgGOmChCHFGENQVeAY6ZFycIUYQ1xV4BjrK699hRhDaFXYQRUVluAY5YuTcIRYQIQV4Bjli5NwhRhDANXgGOYRW8+FGEMM1eAY5orfIEUYQxjV4BjnM58+RRhDJNXgGOgQK7GFGEMw1dhBFRWW4BjgJR/gBRhC0NXgGOIDv85FGELc1eAY5GKX80UYQujV4BjkeeydxRhC9NXYQRUVluAYzQw7AYRYQNSV4BjYOE83hFhAtpXgGNvCZyNEWECnleAY28JnI0UYQpTV4BjcdkdKBRhCoNXgGN7bgsOFGEKs1eAY3wZHSAUYQrjV4BjfejG+BRhCxNXYQRUVluAY2DhPN4UYQl1V4BjYT0KghRhCaVXgGNjE41PFGEJ1VeAY2Wbu08UYQoFV4Bjbn8f5xRhCiNXYQRUVluAY0D+JmIRYQMhV4BjQP4mYhRhCIVXgGNEzzvHFGEItVeAY0phrx8UYQjlV4BjTSx0sxRhCRVXgGNVkMLZFGEJRVdhBFRWW4BjNDDsBhRhB9dXgGM3EwPAFGEIB1eAYzpBHxIUYQglV4BjOkJd/BRhCFVXYQRUVluAYxgJO0YRYQPgV4BjIZzd6xFhA6RXgGMhnN3rFGEG51eAYyKU/H8UYQcXV4BjKHHvhRRhB0dXgGMrIe9EFGEHd1eAYy0055gUYQenV2EEVFZbgGMYCTtGFGEF91eAYxm2IdYUYQYnV4BjGroH6hRhBldXgGMd4vNDFGEGh1eAYyAHMy4UYQa3V2EEVFZbgGMLqKc7EWEEJ1eAYwuopzsUYQUZV4BjEoemjBRhBUlXgGMTXVL3FGEFZ1eAYxWBzxkUYQWXV4BjFlghUBRhBcdXYQRUVluAYwNK73EUYQRZV4BjBQCC+BRhBIlXgGMIe06EFGEEuVeAYws7mWoUYQTpV1tgAID9W2EEc2AEgDYDgQGQYQRukZBhJhFWW2ESUVZbYEBRYQSAkZBhJk1WW2BAUYCRA5DzW2EEo2AEgDYDgQGQYQSekZBhJhFWW2ESjFZbYEBRYQSwkZBhJk1WW2BAUYCRA5DzW2EE02AEgDYDgQGQYQTOkZBhJhFWW2ESx1ZbYEBRYQTgkZBhJk1WW2BAUYCRA5DzW2EFA2AEgDYDgQGQYQT+kZBhJ65WW2ETAVZbYEBRYQUQkZBhKHZWW2BAUYCRA5DzW2EFM2AEgDYDgQGQYQUukZBhJhFWW2ETKFZbYEBRYQVAkZBhJk1WW2BAUYCRA5DzW2EFUWETZFZbYEBRYQVekZBhJk1WW2BAUYCRA5DzW2EFgWAEgDYDgQGQYQV8kZBhJhFWW2ETbVZbYEBRYQWOkZBhJk1WW2BAUYCRA5DzW2EFsWAEgDYDgQGQYQWskZBhJhFWW2ETqVZbYEBRYQW+kZBhJk1WW2BAUYCRA5DzW2EF4WAEgDYDgQGQYQXckZBhJhFWW2ET5FZbYEBRYQXukZBhJk1WW2BAUYCRA5DzW2EGEWAEgDYDgQGQYQYMkZBhJhFWW2EUP1ZbYEBRYQYekZBhJk1WW2BAUYCRA5DzW2EGQWAEgDYDgQGQYQY8kZBhJhFWW2EUfVZbYEBRYQZOkZBhJk1WW2BAUYCRA5DzW2EGcWAEgDYDgQGQYQZskZBhJhFWW2EVDFZbYEBRYQZ+kZBhJk1WW2BAUYCRA5DzW2EGoWAEgDYDgQGQYQackZBhJhFWW2EVUlZbYEBRYQaukZBhJk1WW2BAUYCRA5DzW2EG0WAEgDYDgQGQYQbMkZBhJhFWW2EVkFZbYEBRYQbekZBhJk1WW2BAUYCRA5DzW2EHAWAEgDYDgQGQYQb8kZBhJhFWW2EVzFZbYEBRYQcOkZBhJk1WW2BAUYCRA5DzW2EHMWAEgDYDgQGQYQcskZBhJhFWW2EWB1ZbYEBRYQc+kZBhJk1WW2BAUYCRA5DzW2EHYWAEgDYDgQGQYQdckZBhJhFWW2EWRlZbYEBRYQdukZBhJk1WW2BAUYCRA5DzW2EHkWAEgDYDgQGQYQeMkZBhJhFWW2EWgVZbYEBRYQeekZBhJk1WW2BAUYCRA5DzW2EHwWAEgDYDgQGQYQe8kZBhJhFWW2EWvFZbYEBRYQfOkZBhJk1WW2BAUYCRA5DzW2EH8WAEgDYDgQGQYQfskZBhJhFWW2EW91ZbYEBRYQf+kZBhKHZWW2BAUYCRA5DzW2EID2EXo1ZbYEBRYQgckZBhJk1WW2BAUYCRA5DzW2EIP2AEgDYDgQGQYQg6kZBhJhFWW2EXwlZbYEBRYQhMkZBhJk1WW2BAUYCRA5DzW2EIb2AEgDYDgQGQYQhqkZBhJhFWW2EX/lZbYEBRYQh8kZBhJk1WW2BAUYCRA5DzW2EIn2AEgDYDgQGQYQiakZBhJhFWW2EYOlZbYEBRYQiskZBhJk1WW2BAUYCRA5DzW2EIz2AEgDYDgQGQYQjKkZBhJhFWW2EYeVZbYEBRYQjckZBhJk1WW2BAUYCRA5DzW2EI/2AEgDYDgQGQYQj6kZBhJhFWW2EYtFZbYEBRYQkMkZBhJk1WW2BAUYCRA5DzW2EJL2AEgDYDgQGQYQkqkZBhJhFWW2EY8lZbYEBRYQk8kZBhJk1WW2BAUYCRA5DzW2EJX2AEgDYDgQGQYQlakZBhJhFWW2EZLVZbYEBRYQlskZBhJk1WW2BAUYCRA5DzW2EJj2AEgDYDgQGQYQmKkZBhJhFWW2EZclZbYEBRYQmckZBhJk1WW2BAUYCRA5DzW2EJv2AEgDYDgQGQYQm6kZBhJ65WW2EZrlZbYEBRYQnMkZBhKHZWW2BAUYCRA5DzW2EJ72AEgDYDgQGQYQnqkZBhJ65WW2EZ4FZbYEBRYQn8kZBhKLFWW2BAUYCRA5DzW2EKDWEaDFZbYEBRYQoakZBhJk1WW2BAUYCRA5DzW2EKPWAEgDYDgQGQYQo4kZBhJhFWW2EaSFZbYEBRYQpKkZBhJk1WW2BAUYCRA5DzW2EKbWAEgDYDgQGQYQpokZBhJhFWW2EahlZbYEBRYQp6kZBhJk1WW2BAUYCRA5DzW2EKnWAEgDYDgQGQYQqYkZBhJhFWW2EawVZbYEBRYQqqkZBhJk1WW2BAUYCRA5DzW2EKzWAEgDYDgQGQYQrIkZBhJhFWW2Ea/1ZbYEBRYQrakZBhJk1WW2BAUYCRA5DzW2EK/WAEgDYDgQGQYQr4kZBhJhFWW2EbO1ZbYEBRYQsKkZBhJk1WW2BAUYCRA5DzW2ELLWAEgDYDgQGQYQsokZBhJhFWW2EbdlZbYEBRYQs6kZBhJk1WW2BAUYCRA5DzW2ELXWAEgDYDgQGQYQtYkZBhJhFWW2EbslZbYEBRYQtqkZBhJk1WW2BAUYCRA5DzW2ELjWAEgDYDgQGQYQuIkZBhJhFWW2EcD1ZbYEBRYQuakZBhJk1WW2BAUYCRA5DzW2ELvWAEgDYDgQGQYQu4kZBhJhFWW2EcTlZbYEBRYQvKkZBhJk1WW2BAUYCRA5DzW2EL7WAEgDYDgQGQYQvokZBhJhFWW2EciVZbYEBRYQv6kZBhJk1WW2BAUYCRA5DzW2EMHWAEgDYDgQGQYQwYkZBhJ65WW2Ec1VZbYEBRYQwqkZBhKHZWW2BAUYCRA5DzW2EMTWAEgDYDgQGQYQxIkZBhJhFWW2EdQ1ZbYEBRYQxakZBhJk1WW2BAUYCRA5DzW2EMfWAEgDYDgQGQYQx4kZBhJhFWW2Edg1ZbYEBRYQyKkZBhJk1WW2BAUYCRA5DzW2EMrWAEgDYDgQGQYQyokZBhJ65WW2EdvlZbYEBRYQy6kZBhKHZWW2BAUYCRA5DzW2EM3WAEgDYDgQGQYQzYkZBhJ65WW2Ed71ZbYEBRYQzqkZBhKHZWW2BAUYCRA5DzW2ENDWAEgDYDgQGQYQ0IkZBhJ65WW2EeFlZbYEBRYQ0akZBhKQ1WW2BAUYCRA5DzW2ENK2EemFZbYEBRYQ04kZBhJk1WW2BAUYCRA5DzW2ENW2AEgDYDgQGQYQ1WkZBhJhFWW2Ee41ZbYEBRYQ1okZBhJk1WW2BAUYCRA5DzW2ENi2AEgDYDgQGQYQ2GkZBhJhFWW2EfHlZbYEBRYQ2YkZBhJk1WW2BAUYCRA5DzW2ENu2AEgDYDgQGQYQ22kZBhJhFWW2EfWlZbYEBRYQ3IkZBhJk1WW2BAUYCRA5DzW2EN62AEgDYDgQGQYQ3mkZBhKYhWW2EfllZbYEBRYQ34kZBhJk1WW2BAUYCRA5DzW2EOG2AEgDYDgQGQYQ4WkZBhJhFWW2Ef5FZbYEBRYQ4okZBhJk1WW2BAUYCRA5DzW2EOS2AEgDYDgQGQYQ5GkZBhJhFWW2EgH1ZbYEBRYQ5YkZBhJk1WW2BAUYCRA5DzW2EOe2AEgDYDgQGQYQ52kZBhJhFWW2EgWlZbYEBRYQ6IkZBhJk1WW2BAUYCRA5DzW2EOq2AEgDYDgQGQYQ6mkZBhJhFWW2EglVZbYEBRYQ64kZBhJk1WW2BAUYCRA5DzW2EO22AEgDYDgQGQYQ7WkZBhJhFWW2Eg0FZbYEBRYQ7okZBhJk1WW2BAUYCRA5DzW2EPC2AEgDYDgQGQYQ8GkZBhJhFWW2EhFFZbYEBRYQ8YkZBhJk1WW2BAUYCRA5DzW2EPO2AEgDYDgQGQYQ82kZBhJhFWW2EhUFZbYEBRYQ9IkZBhJk1WW2BAUYCRA5DzW2EPa2AEgDYDgQGQYQ9mkZBhJhFWW2Ehi1ZbYEBRYQ94kZBhJk1WW2BAUYCRA5DzW2EPm2AEgDYDgQGQYQ+WkZBhJhFWW2EhyVZbYEBRYQ+okZBhJk1WW2BAUYCRA5DzW2EPy2AEgDYDgQGQYQ/GkZBhJhFWW2EiBlZbYEBRYQ/YkZBhJk1WW2BAUYCRA5DzW2EP+2AEgDYDgQGQYQ/2kZBhJhFWW2EiQFZbYEBRYRAIkZBhJk1WW2BAUYCRA5DzW2EQK2AEgDYDgQGQYRAmkZBhJhFWW2EifFZbYEBRYRA4kZBhJk1WW2BAUYCRA5DzW2EQW2AEgDYDgQGQYRBWkZBhJhFWW2EiuFZbYEBRYRBokZBhJk1WW2BAUYCRA5DzW2EQi2AEgDYDgQGQYRCGkZBhJhFWW2EjE1ZbYEBRYRCYkZBhJk1WW2BAUYCRA5DzW2EQu2AEgDYDgQGQYRC2kZBhJhFWW2EjVVZbYEBRYRDIkZBhJk1WW2BAUYCRA5DzW2EQ62AEgDYDgQGQYRDmkZBhJhFWW2EjkVZbYEBRYRD4kZBhJk1WW2BAUYCRA5DzW2ERG2AEgDYDgQGQYREWkZBhJhFWW2EjzlZbYEBRYREokZBhJk1WW2BAUYCRA5DzW2ERS2AEgDYDgQGQYRFGkZBhJ65WW2EkEFZbYEBRYRFYkZBhKHZWW2BAUYCRA5DzW2ERe2AEgDYDgQGQYRF2kZBhJhFWW2Ekf1ZbYEBRYRGIkZBhJk1WW2BAUYCRA5DzW2ERq2AEgDYDgQGQYRGmkZBhJhFWW2Eku1ZbYEBRYRG4kZBhJk1WW2BAUYCRA5DzW2ER22AEgDYDgQGQYRHWkZBhJhFWW2Ek+VZbYEBRYRHokZBhJk1WW2BAUYCRA5DzW2ESC2AEgDYDgQGQYRIGkZBhJ65WW2ElOFZbYEBRYRIYkZBhKhBWW2BAUYCRA5DzW2ESO2AEgDYDgQGQYRI2kZBhJhFWW2ElalZbYEBRYRJIkZBhJk1WW2BAUYCRA5DzW2AAYRJbYRejVltQYABl3q2+7wA2kFBgAIBbhIEQFWESgVc2kVBgAYEBkFBhEmtWW1BQgJFQUJGQUFZbYABhEpZhF6NWW1BgAGXerb7vADKQUGAAgFuEgRAVYRK8VzKRUGABgQGQUGESplZbUFCAkVBQkZBQVltgAGES0WEXo1ZbUGAAZd6tvu8AUpBQYABbg4EQFWES91eBYABSYAGBAZBQYRLgVltQgJFQUJGQUFZbYGBgAGAIkFBgQIKEUWAghgFgAIVa8YBhEyFXYACA/VtQUJGQUFZbYABhEzJhF6NWW1BgAGXerb7vAAGQUGAAW4OBEBVhE1pXYACCAZFQYAGBAZBQYRNBVltQgJFQUJGQUFZbYACAVJBQkFZbYABhE3dhF6NWW1BgAGXerb7vABeQUGAAW4OBEBVhE59XYACCF5FQYAGBAZBQYROGVltQgJFQUJGQUFZbYABhE7NhF6NWW1BgAGXerb7vADSQUGAAgFuEgRAVYRPZVzSRUGABgQGQUGETw1ZbUFCAkVBQkZBQVltgAGET7mEXo1ZbUGAAZd6tvu8ABpBQYABbg4EQFWEUNVd///////////////////////////////////////////+CBpFQYAGBAZBQYRP9VltQgJFQUJGQUFZbYABhFElhF6NWW1BgAGXerb7vABOQUGAAgFuEgRAVYRRyV2ABgxORUGABgQGQUGEUWVZbUFCAkVBQkZBQVltgAGEUh2EXo1ZbUGAAZd6tvu8AIJBQf/////8AAAAAAAAAAAAAAAAAAAAAAAAAAAAAAAAAAAAAYABSYACAW4SBEBVhFNVXYARgACCRUGABgQGQUGEUu1ZbUH8pBFpZIAfQwkbvAsIiNXDalSLQzw9zKCx5obyPC7LCOIEUYRUCV2AAkVBbUICRUFCRkFBWW2AAYRUWYRejVltQYABl3q2+7wCkkFCAYBBSYABbg4EQFWEVSFdgBGADYAKDYAZgEKRgAYEBkFBhFSlWW1CAkVBQkZBQVltgAGEVXGEXo1ZbUGAAZd6tvu8AGpBQYACAW4SBEBVhFYVXgmAAGpFQYAGBAZBQYRVsVltQUICRUFCRkFBWW2AAYRWaYRejVltQYABl3q2+7wAbkFBgAFuDgRAVYRXCV4FgABuRUGABgQGQUGEVqVZbUICRUFCRkFBWW2AAYRXWYRejVltQYABl3q2+7wBCkFBgAIBbhIEQFWEV/FdCkVBgAYEBkFBhFeZWW1BQgJFQUJGQUFZbYABhFhFhF6NWW1BgAGXerb7vADGQUGAAMGAAW4WBEBVhFjpXgTGSUGABgQGQUGEWI1ZbUFBQgJFQUJGQUFZbYABhFlBhF6NWW1BgAGXerb7vAEiQUGAAgFuEgRAVYRZ2V0iRUGABgQGQUGEWYFZbUFCAkVBQkZBQVltgAGEWi2EXo1ZbUGAAZd6tvu8APZBQYACAW4SBEBVhFrFXPZFQYAGBAZBQYRabVltQUICRUFCRkFBWW2AAYRbGYRejVltQYABl3q2+7wBDkFBgAIBbhIEQFWEW7FdDkVBgAYEBkFBhFtZWW1BQgJFQUJGQUFZbYAKBgVSBEGEXB1dgAID9W5BgAFJgIGAAIAFgAJFQkFCAVGEXIpBhKlpWW4BgHwFgIICRBAJgIAFgQFGQgQFgQFKAkpGQgYFSYCABgoBUYRdOkGEqWlZbgBVhF5tXgGAfEGEXcFdhAQCAg1QEAoNSkWAgAZFhF5tWW4IBkZBgAFJgIGAAIJBbgVSBUpBgAQGQYCABgIMRYRd+V4KQA2AfFoIBkVtQUFBQUIFWW2AAYAFgAFRhF7SRkGEqulZbYACBkFVQYABUkFCQVltgAGEXzGEXo1ZbUGAAZd6tvu8ABJBQYABbg4EQFWEX9FdgAYIEkVBgAYEBkFBhF9tWW1CAkVBQkZBQVltgAGEYCGEXo1ZbUGAAZd6tvu8AN5BQYABbg4EQFWEYMFdgIGAAgDdgAYEBkFBhGBdWW1CAkVBQkZBQVltgAGEYRGEXo1ZbUGAAZd6tvu8AoJBQgGAQUmAAW4OBEBVhGG9XYAZgEKBgAYEBkFBhGFdWW1CAkVBQkZBQVltgAGEYg2EXo1ZbUGAAZd6tvu8AM5BQYACAW4SBEBVhGKlXM5FQYAGBAZBQYRiTVltQUICRUFCRkFBWW2AAYRi+YRejVltQYABl3q2+7wBTkFBgAFuDgRAVYRjoV2Perb7vYABSYAGBAZBQYRjNVltQgJFQUJGQUFZbYABhGPxhF6NWW1BgAGXerb7vADqQUGAAgFuEgRAVYRkiVzqRUGABgQGQUGEZDFZbUFCAkVBQkZBQVltgAGEZN2EXo1ZbUGAAZd6tvu8AUZBQYACBYABSYABbhIEQFWEZZFdgAFGRUGABgQGQUGEZTFZbUICRUFCAkVBQkZBQVltgAGEZfGEXo1ZbUGAAZd6tvu8AHZBQYABbg4EQFWEZpFeBYAAdkVBgAYEBkFBhGYtWW1CAkVBQkZBQVltgYGAAYAWQUGAggwGDUWBAUWAggYOFYACIWvGAYRnTV2AAgP1bgZVQUFBQUFCRkFBWW2AAgGACkFBgIIMBg1GDYCCBg4VgAIha8YBhGgJXYACA/VtQUFBQUJGQUFZbYABhGhZhF6NWW1BbYQPoWhEVYRpAV2ABgGAAgoJUYRo0kZBhKrpWW5JQUIGQVVBhGhhWW2ABVJBQkFZbYABhGlJhF6NWW1BgAGXerb7vABCQUGAAgFuEgRAVYRp7V4JgARCRUGABgQGQUGEaYlZbUFCAkVBQkZBQVltgAGEakGEXo1ZbUGAAZd6tvu8ARJBQYACAW4SBEBVhGrZXRJFQYAGBAZBQYRqgVltQUICRUFCRkFBWW2AAYRrLYRejVltQYABl3q2+7wARkFBgAIBbhIEQFWEa9FdgAYMRkVBgAYEBkFBhGttWW1BQgJFQUJGQUFZbYABhGwlhF6NWW1BgAGXerb7vAD6QUGAAW4OBEBVhGzFXYCBgAIA+YAGBAZBQYRsYVltQgJFQUJGQUFZbYABhG0VhF6NWW1BgAGXerb7vAEWQUGAAgFuEgRAVYRtrV0WRUGABgQGQUGEbVVZbUFCAkVBQkZBQVltgAGEbgGEXo1ZbUGAAZd6tvu8AApBQYABbg4EQFWEbqFdgAYICkVBgAYEBkFBhG49WW1CAkVBQkZBQVltgAGEbvGEXo1ZbUGAAZd6tvu8ACJBQYABbg4EQFWEcBVd///////////////////////////////////////////9gAIMIkVBgAYEBkFBhG8tWW1CAkVBQkZBQVltgAGEcGWEXo1ZbUGAAZd6tvu8AVJBQgGAAVWAAW4OBEBVhHERXYABUkVBgAYEBkFBhHCxWW1CAkVBQkZBQVltgAGEcWGEXo1ZbUGAAZd6tvu8AWpBQYACAW4SBEBVhHH5XWpFQYAGBAZBQYRxoVltQUICRUFCRkFBWW2AAYRyTYRejVltQYABl3q2+7wAZkFBgAFuDgRAVYRy5V4EZkVBgAYEBkFBhHKJWW1Bl3q2+7wAZgRRhHMxXgBmQUFuAkVBQkZBQVltgYICCURRhHRpXYEBRfwjDeaAAAAAAAAAAAAAAAAAAAAAAAAAAAAAAAAAAAAAAgVJgBAFhHRGQYStLVltgQFGAkQOQ/VtgAGAHkFBgIIMBg1FgQISChGAAh1rxgGEdOldgAID9W1BQUFCRkFBWW2AAYR1NYRejVltQYABl3q2+7wChkFCAYBBSYABbg4EQFWEdeVeAYAZgEKFgAYEBkFBhHWBWW1CAkVBQkZBQVltgAGEdjWEXo1ZbUGAAZd6tvu8AFpBQYABbg4EQFWEdtFeBghaRUGABgQGQUGEdnFZbUICRUFCRkFBWW2BgYABgBJBQYCCDAYNRYEBRgYGDhWAAiFrxgGEd4ldgAID9W4GVUFBQUFBQkZBQVltgYGAAYAiQUGBAgoRRYCCGAWAAhVrxgGEeD1dgAID9W1BQkZBQVltgAGCAglEUYR5cV2BAUX8Iw3mgAAAAAAAAAAAAAAAAAAAAAAAAAAAAAAAAAAAAAIFSYAQBYR5TkGErt1ZbYEBRgJEDkP1bYABgAZBQYCCDAWAggQFRYB8aYCCCAVJgIGBAUWCAg2AAhlrxgGEeildgAID9W2BAUVGTUFBQUJGQUFZbYABhHqJhF6NWW1BbYQPoWhEVYR7bV2ABgGAAgoJUYR7AkZBhKrpWW5JQUIGQVVBDYAFUYR7VkZBhLAZWW1BhHqRWW2ABVJBQkFZbYABhHu1hF6NWW1BgAGXerb7vAEaQUGAAgFuEgRAVYR8TV0aRUGABgQGQUGEe/VZbUFCAkVBQkZBQVltgAGEfKGEXo1ZbUGAAZd6tvu8ABZBQYABbg4EQFWEfUFdgAYIFkVBgAYEBkFBhHzdWW1CAkVBQkZBQVltgAGEfZGEXo1ZbUGAAZd6tvu8AOZBQYABbg4EQFWEfjFdgIGAAgDlgAYEBkFBhH3NWW1CAkVBQkZBQVltgAGACg4OQkYBgAYFUAYCCVYCRUFBgAZADkGAAUmAgYAAgAWAAkJGSkJGSkJGSkJGSUJGCYR/VkpGQYS3uVltQYAKAVJBQkFCSkVBQVltgAGEf7mEXo1ZbUGAAZd6tvu8AWZBQYACAW4SBEBVhIBRXWZFQYAGBAZBQYR/+VltQUICRUFCRkFBWW2AAYSApYRejVltQYABl3q2+7wA4kFBgAIBbhIEQFWEgT1c4kVBgAYEBkFBhIDlWW1BQgJFQUJGQUFZbYABhIGRhF6NWW1BgAGXerb7vAEGQUGAAgFuEgRAVYSCKV0GRUGABgQGQUGEgdFZbUFCAkVBQkZBQVltgAGEgn2EXo1ZbUGAAZd6tvu8AMJBQYACAW4SBEBVhIMVXMJFQYAGBAZBQYSCvVltQUICRUFCRkFBWW2AAYSDaYRejVltQYABl3q2+7wCjkFCAYBBSYABbg4EQFWEhCldgA2ACgmAGYBCjYAGBAZBQYSDtVltQgJFQUJGQUFZbYABhIR5hF6NWW1BgAGXerb7vAAuQUGAAW4OBEBVhIUZXgWAgC5FQYAGBAZBQYSEtVltQgJFQUJGQUFZbYABhIVphF6NWW1BgAGXerb7vAEeQUGAAgFuEgRAVYSGAV0eRUGABgQGQUGEhalZbUFCAkVBQkZBQVltgAGEhlWEXo1ZbUGAAZd6tvu8AHJBQYACAW4SBEBVhIb5XgmAAHJJQYAGBAZBQYSGlVltQUICRUFCRkFBWW2AAYSHTYRejVltQYABl3q2+7wA1kFBgAIBbhIEQFWEh+1dgADWRUGABgQGQUGEh41ZbUFCAkVBQkZBQVltgAGEiEGEXo1ZbUGAAZd6tvu8AVZBQYABbg4EQFWEiNleBYABVYAGBAZBQYSIfVltQgJFQUJGQUFZbYABhIkphF6NWW1BgAGXerb7vABiQUGAAW4OBEBVhInJXYACCGJFQYAGBAZBQYSJZVltQgJFQUJGQUFZbYABhIoZhF6NWW1BgAGXerb7vAAOQUGAAW4OBEBVhIq5XYACCA5FQYAGBAZBQYSKVVltQgJFQUJGQUFZbYABhIsJhF6NWW1BgAGXerb7vAAeQUGAAW4OBEBVhIwlXf///////////////////////////////////////////ggeRUGABgQGQUGEi0VZbUICRUFCRkFBWW2AAYSMdYRejVltQYABl3q2+7wCikFCAYBBSYABbg4EQFWEjS1dgAoFgBmAQomABgQGQUGEjMFZbUICRUFCRkFBWW2AAYSNfYRejVltQYABl3q2+7wAKkFBgAFuDgRAVYSOHV2ABggqRUGABgQGQUGEjblZbUICRUFCRkFBWW2AAYSObYRejVltQYABl3q2+7wAUkFBgAIBbhIEQFWEjw1eCgxSRUGABgQGQUGEjq1ZbUFCAkVBQkZBQVltgAGEj2GEXo1ZbUGAAZd6tvu8AQJBQYABgAUMDYABbhYEQFWEkBFeBQJJQYAGBAZBQYSPtVltQUFCAkVBQkZBQVltgYGCAglEUYSRWV2BAUX8Iw3mgAAAAAAAAAAAAAAAAAAAAAAAAAAAAAAAAAAAAAIFSYAQBYSRNkGErS1ZbYEBRgJEDkP1bYABgBpBQYCCDAYNRYECEgoRgAIda8YBhJHZXYACA/VtQUFBQkZBQVltgAGEkiWEXo1ZbUGAAZd6tvu8AFZBQYACAW4SBEBVhJLBXghWRUGABgQGQUGEkmVZbUFCAkVBQkZBQVltgAGEkxWEXo1ZbUGAAZd6tvu8AEpBQYACAW4SBEBVhJO5XgmABEpFQYAGBAZBQYSTVVltQUICRUFCRkFBWW2AAYSUDYRejVltQYABl3q2+7wA7kFBgADBgAFuFgRAVYSUsV4E7klBgAYEBkFBhJRVWW1BQUICRUFCRkFBWW2AAgGADkFBgIIMBg1FgQFFgFIGDhWAAiFrxgGElXFdgAID9W4FRlVBQUFBQUJGQUFZbYABhJXRhF6NWW1BgAGXerb7vAAmQUGAAW4OBEBVhJb1Xf///////////////////////////////////////////YAGDCZFQYAGBAZBQYSWDVltQgJFQUJGQUFZbYABgQFGQUJBWW2AAgP1bYACA/VtgAIGQUJGQUFZbYSXugWEl21ZbgRRhJflXYACA/VtQVltgAIE1kFBhJguBYSXlVluSkVBQVltgAGAggoQDEhVhJidXYSYmYSXRVltbYABhJjWEgoUBYSX8VluRUFCSkVBQVlthJkeBYSXbVluCUlBQVltgAGAgggGQUGEmYmAAgwGEYSY+VluSkVBQVltgAID9W2AAgP1bYABgHxlgH4MBFpBQkZBQVlt/Tkh7cQAAAAAAAAAAAAAAAAAAAAAAAAAAAAAAAAAAAABgAFJgQWAEUmAkYAD9W2Emu4JhJnJWW4EBgYEQZ///////////ghEXFWEm2ldhJtlhJoNWW1uAYEBSUFBQVltgAGEm7WElx1ZbkFBhJvmCgmEmslZbkZBQVltgAGf//////////4IRFWEnGVdhJxhhJoNWW1thJyKCYSZyVluQUGAggQGQUJGQUFZbgoGDN2AAg4MBUlBQUFZbYABhJ1FhJ0yEYSb+VlthJuNWW5BQgoFSYCCBAYSEhAERFWEnbVdhJ2xhJm1WW1thJ3iEgoVhJy9WW1CTklBQUFZbYACCYB+DARJhJ5VXYSeUYSZoVltbgTVhJ6WEgmAghgFhJz5WW5FQUJKRUFBWW2AAYCCChAMSFWEnxFdhJ8NhJdFWW1tgAIIBNWf//////////4ERFWEn4ldhJ+FhJdZWW1thJ+6EgoUBYSeAVluRUFCSkVBQVltgAIFRkFCRkFBWW2AAgoJSYCCCAZBQkpFQUFZbYABbg4EQFWEoMVeAggFRgYQBUmAggQGQUGEoFlZbYACEhAFSUFBQUFZbYABhKEiCYSf3VlthKFKBhWEoAlZbk1BhKGKBhWAghgFhKBNWW2Eoa4FhJnJWW4QBkVBQkpFQUFZbYABgIIIBkFCBgQNgAIMBUmEokIGEYSg9VluQUJKRUFBWW2AAgZBQkZBQVlthKKuBYSiYVluCUlBQVltgAGAgggGQUGEoxmAAgwGEYSiiVluSkVBQVltgAHP//////////////////////////4IWkFCRkFBWW2AAYSj3gmEozFZbkFCRkFBWW2EpB4FhKOxWW4JSUFBWW2AAYCCCAZBQYSkiYACDAYRhKP5WW5KRUFBWW2AAgP1bYACA/VtgAICDYB+EARJhKUhXYSlHYSZoVltbgjWQUGf//////////4ERFWEpZVdhKWRhKShWW1tgIIMBkVCDYAGCAoMBERVhKYFXYSmAYSktVltbklCSkFBWW2AAgGAgg4UDEhVhKZ9XYSmeYSXRVltbYACDATVn//////////+BERVhKb1XYSm8YSXWVltbYSnJhYKGAWEpMlZbklCSUFCSUJKQUFZbYAB///////////////////////////8AAAAAAAAAAAAAAACCFpBQkZBQVlthKgqBYSnVVluCUlBQVltgAGAgggGQUGEqJWAAgwGEYSoBVluSkVBQVlt/Tkh7cQAAAAAAAAAAAAAAAAAAAAAAAAAAAAAAAAAAAABgAFJgImAEUmAkYAD9W2AAYAKCBJBQYAGCFoBhKnJXYH+CFpFQW2AgghCBA2EqhVdhKoRhKitWW1tQkZBQVlt/Tkh7cQAAAAAAAAAAAAAAAAAAAAAAAAAAAAAAAAAAAABgAFJgEWAEUmAkYAD9W2AAYSrFgmEl21ZbkVBhKtCDYSXbVluSUIKCAZBQgIIRFWEq6FdhKudhKotWW1uSkVBQVltgAIKCUmAgggGQUJKRUFBWW39JbnZhbGlkIGlucHV0IGxlbmd0aAAAAAAAAAAAAAAAAGAAggFSUFZbYABhKzVgFINhKu5WW5FQYStAgmEq/1ZbYCCCAZBQkZBQVltgAGAgggGQUIGBA2AAgwFSYStkgWErKFZbkFCRkFBWW39JbnZhbGlkIGlucHV0IGRhdGEgbGVuZ3RoLgAAAAAAAGAAggFSUFZbYABhK6FgGoNhKu5WW5FQYSusgmEra1ZbYCCCAZBQkZBQVltgAGAgggGQUIGBA2AAgwFSYSvQgWErlFZbkFCRkFBWW39OSHtxAAAAAAAAAAAAAAAAAAAAAAAAAAAAAAAAAAAAAGAAUmASYARSYCRgAP1bYABhLBGCYSXbVluRUGEsHINhJdtWW5JQgmEsLFdhLCthK9dWW1uCggaQUJKRUFBWW2AAgpBQkpFQUFZbYACBkFCBYABSYCBgACCQUJGQUFZbYABgIGAfgwEEkFCRkFBWW2AAgoIbkFCSkVBQVltgAGAIgwJhLKR///////////////////////////////////////////+CYSxnVlthLK6Gg2EsZ1ZblVCAGYQWk1CAhhaEF5JQUFCTklBQUFZbYACBkFCRkFBWW2AAYSzrYSzmYSzhhGEl21ZbYSzGVlthJdtWW5BQkZBQVltgAIGQUJGQUFZbYS0Fg2Es0FZbYS0ZYS0RgmEs8lZbhIRUYSx0VluCVVBQUFBWW2AAkFZbYS0uYS0hVlthLTmBhIRhLPxWW1BQUFZbW4GBEBVhLV1XYS1SYACCYS0mVltgAYEBkFBhLT9WW1BQVltgH4IRFWEtoldhLXOBYSxCVlthLXyEYSxXVluBAWAghRAVYS2LV4GQUFthLZ9hLZeFYSxXVluDAYJhLT5WW1BQW1BQUFZbYACCghyQUJKRUFBWW2AAYS3FYAAZhGAIAmEtp1ZbGYCDFpFQUJKRUFBWW2AAYS3eg4NhLbRWW5FQgmACAoIXkFCSkVBQVlthLfiDg2EsN1ZbZ///////////gREVYS4RV2EuEGEmg1ZbW2EuG4JUYSpaVlthLiaCgoVhLWFWW2AAYB+DEWABgRRhLlVXYACEFWEuQ1eChwE1kFBbYS5NhYJhLdJWW4ZVUGEutVZbYB8ZhBZhLmOGYSxCVltgAFuCgRAVYS6LV4SJATWCVWABggGRUGAghQGUUGAggQGQUGEuZlZbhoMQFWEuqFeEiQE1YS6kYB+JFoJhLbRWW4NVUFtgAWACiAIBiFVQUFBbUFBQUFBQUFb+omRpcGZzWCISIDEkITSIwvH8pZaHh/DD6W+6hGkSmoB5jhHudSkDtL/cZHNvbGNDAAgTADM=",
          "touched": true,
          "read": true
        },
        "0x72EE67708F8C3e02B3cf4850C402Cc2421Ceb2a3": {
          "address": "0x72EE67708F8C3e02B3cf4850C402Cc2421Ceb2a3",
          "read": true
        },
        "0x85dA99c8a7C2C95964c8EfD687E95E632Fc533D6": {
          "address": "0x85dA99c8a7C2C95964c8EfD687E95E632Fc533D6",
          "nonce": 4109,
          "read": true
        }
      }
    }
  ]
}
