{
  "accountTrie": {
    "0147e535454921ba8ca21b156fb8740983840c99708c65caed85238bb0ebc0c6": "f8749f3eec2b84f0ba344fd4b4d2f022469febe7a772c4789acfc119eb558ab1da3db852f850088c033b2e3c9f6ec6c1279c6f84a056e81f171bcc55a6ff8345e692c0f86e5b48e01b996cadc001622fb5e363b421a0c5d2460186f7233c927e7db2dcc703c0e500b653ca82273b7bfad8045d85a470",
    "03570c0eb8451a9b144d237f706c59b0596e2ac895caddad8bdfb8df300f91ba": "f871808080a0962566ad201cf817df7a8dc4f916fb0d52880249d8f93e2bf0b9c5796815a51480a07d17cb8bd5c71e3095d71dba47bba1e11b2cb9c46f51da3076edcfb78c595a9380808080808080a039ec3f1d3cf14244f58f7ac252f80b1f3401a3f39ccf4f6ea7b9d63907f140a2808080",
    "39ec3f1d3cf14244f58f7ac252f80b1f3401a3f39ccf4f6ea7b9d63907f140a2": "f873a020989523aef5e3560215d9a73bf12a6a0970ff12e841b0d744e8b18ccc0cf308b850f84e808ad3c21bcecceda1000000a056e81f171bcc55a6ff8345e692c0f86e5b48e01b996cadc001622fb5e363b421a0c5d2460186f7233c927e7db2dcc703c0e500b653ca82273b7bfad8045d85a470",
    "3a97b47e62024b8028f0cd043bd93c723e0bca7fccb5ee58311108f15f856ef1": "f901d1a08f51def5c920df56f094923bd65f983e2d02f4ef34ce049043d9f52e3b3f55c480a056bc46c2638a979e6d0d4cc9e468643f00ccfceb0ab3c785b632b3e79a12ddb2a0d379709dd7f28dcd01c9f7dad8b806aa54f8133adf378a7335aba34dc462cbcda003570c0eb8451a9b144d237f706c59b0596e2ac895caddad8bdfb8df300f91baa097df51c5d93606e4268225f9159051bd2a4dc8116972c2f4b772f49397240edfa055fb730a81af8615add1b4fb896303b1efd995f6da3da6dbb5022f05f150d5aba09e54942e5cbab33b4ec4216f6eeaf22c427135da3ee41438bcc4e7de07ffeee0a0364969fa64ed1edef177b8a87bbe20e26615582bf935df361abf64c0b7e2b589a0e6e82a109ac4e5daed8f76043d8393d0298472e0518ff96a48b8492e479881fba068ac7ddf224ba833884260324c670316bd3b1016be3644563bc404ddbc70d65ea0641172028033391973b95cc84af3b17df365c017f41cc4593e4c201102a5a53da0e086c4db2fb20d0509e45cc93d81ebbb34392390d03ca817c15d77896cc23f7180a08333762fcaf7193e048ab228010951a924224adf67ad901b5e98441becfcbbd7a0b1a1bc9514be10d7a98c0693512e4b701ce1e1c08ce0913475c3a1e37a8bae2980",
    "68ac7ddf224ba833884260324c670316bd3b1016be3644563bc404ddbc70d65e": "f85180a031d1eb10fdf37ef90417d463e9e3d1dad5bab6a3e8b38ccc4eaa744250317457808080a074098078932cb6bc8bc5475b0189b29179ee22a1e781ad9f03406e1ff4f4941d8080808080808080808080",
    "74098078932cb6bc8bc5475b0189b29179ee22a1e781ad9f03406e1ff4f4941d": "f85180a00147e535454921ba8ca21b156fb8740983840c99708c65caed85238bb0ebc0c680808080808080808080a0b352e4c72d853473be5eac69cf10adfdc61a3747ec26a4b424f0a29292fc1d3780808080",
    "7a70657f4297ead07d6e673ff3dff2a6489bb76d3ec058ade218a18d7bf2e4e3": "f873a02080c7b7ae81a58eb98d9c78de4a1fd7fd9535fc953ed2be602daaa41767312ab850f84e808ad3c21bd136dc6d1179c2a056e81f171bcc55a6ff8345e692c0f86e5b48e01b996cadc001622fb5e363b421a0c5d2460186f7233c927e7db2dcc703c0e500b653ca82273b7bfad8045d85a470",
    "8f51def5c920df56f094923bd65f983e2d02f4ef34ce049043d9f52e3b3f55c4": "f85180808080808080a0f73c845d986a95819cab76a76eb88bbc6f97f7b2088ee4d04f0a10a4e3923039a0d6e7baf9ad6b04dff3a25f53357482c94918662b5267635373129b88ba77616f8080808080808080",
    "97df51c5d93606e4268225f9159051bd2a4dc8116972c2f4b772f49397240edf": "f871a07c76fca15e14b9497481153ec6ce174197aed052f30c41b556d36c1ca2d36f028080a07a70657f4297ead07d6e673ff3dff2a6489bb76d3ec058ade218a18d7bf2e4e380a03a6ab9252d625ee34450f5f40ef8aeaf895aedcd7be4a964969ea65a145d7a288080808080808080808080",
    "f73c845d986a95819cab76a76eb88bbc6f97f7b2088ee4d04f0a10a4e3923039": "f870a020b2adcfe18406ff7246f44d41408f7bc77391a1928be4fdde6b51a6c9c543f5b84df84b80870aa87bee538000a056e81f171bcc55a6ff8345e692c0f86e5b48e01b996cadc001622fb5e363b421a0c5d2460186f7233c927e7db2dcc703c0e500b653ca82273b7bfad8045d85a470"
  },
  "storageTrie": null,
  "parentStateRoot": "0x3a97b47e62024b8028f0cd043bd93c723e0bca7fccb5ee58311108f15f856ef1",
  "transactionTraces": [
    {
      "txn": "0xf86c0884b6c56b7282520894deadbeefdeadbeefdeadbeefdeadbeefdeadbeef87038d7ea4c6800080820fc5a03cc5dc9ebb0007f3b1028e2543a96031a50c18ddfa5c4af209f59b61076197e0a0533c1654e319487f5753cf9d0224472d75467a1b1156caf1d7d758b6d187d80b",
      "delta": {
        "0x0000000000000000000000000000000000000000": {
          "address": "0x0000000000000000000000000000000000000000",
          "read": true
        },
        "0x85dA99c8a7C2C95964c8EfD687E95E632Fc533D6": {
          "address": "0x85dA99c8a7C2C95964c8EfD687E95E632Fc533D6",
          "nonce": 9,
          "read": true
        },
        "0xDeaDbeefdEAdbeefdEadbEEFdeadbeEFdEaDbeeF": {
          "address": "0xDeaDbeefdEAdbeefdEadbEEFdeadbeEFdEaDbeeF",
          "touched": true,
          "read": true
        },
        "0xd58881FaD0844d2503681f96228A2CD9da6Aba52": {
          "address": "0xd58881FaD0844d2503681f96228A2CD9da6Aba52",
          "read": true
        }
      }
    },
    {
      "txn": "0xf86c0984b6c56b7282520894deadbeefdeadbeefdeadbeefdeadbeefdeadbeef87038d7ea4c6800080820fc6a00e0fefacd5bd6ab42edf1b1c42404337936332c567871193b22a94513934b401a054e1976daa782fe6159865120e5b10febb0dc9af32397049db782d6bf82526fd",
      "delta": {
        "0x0000000000000000000000000000000000000000": {
          "address": "0x0000000000000000000000000000000000000000",
          "read": true
        },
        "0x85dA99c8a7C2C95964c8EfD687E95E632Fc533D6": {
          "address": "0x85dA99c8a7C2C95964c8EfD687E95E632Fc533D6",
          "nonce": 10,
          "read": true
        },
        "0xDeaDbeefdEAdbeefdEadbEEFdeadbeEFdEaDbeeF": {
          "address": "0xDeaDbeefdEAdbeefdEadbEEFdeadbeEFdEaDbeeF",
          "touched": true,
          "read": true
        },
        "0xd58881FaD0844d2503681f96228A2CD9da6Aba52": {
          "address": "0xd58881FaD0844d2503681f96228A2CD9da6Aba52",
          "read": true
        }
      }
    },
    {
      "txn": "0xf86c0a84b6c56b7282520894deadbeefdeadbeefdeadbeefdeadbeefdeadbeef87038d7ea4c6800080820fc6a0e3fb069bd3396a849f5bfe0f4a94ebaae7392c7a81b6538e4d72093114390fb7a05770824635d80d8bbfa13336d3c23a2b1d6da56d0377938b6b9cdf4ef24ff6ec",
      "delta": {
        "0x0000000000000000000000000000000000000000": {
          "address": "0x0000000000000000000000000000000000000000",
          "read": true
        },
        "0x85dA99c8a7C2C95964c8EfD687E95E632Fc533D6": {
          "address": "0x85dA99c8a7C2C95964c8EfD687E95E632Fc533D6",
          "nonce": 11,
          "read": true
        },
        "0xDeaDbeefdEAdbeefdEadbEEFdeadbeEFdEaDbeeF": {
          "address": "0xDeaDbeefdEAdbeefdEadbEEFdeadbeEFdEaDbeeF",
          "touched": true,
          "read": true
        },
        "0xd58881FaD0844d2503681f96228A2CD9da6Aba52": {
          "address": "0xd58881FaD0844d2503681f96228A2CD9da6Aba52",
          "read": true
        }
      }
    },
    {
      "txn": "0xf86c0b84b6c56b7282520894deadbeefdeadbeefdeadbeefdeadbeefdeadbeef87038d7ea4c6800080820fc5a067f02fdbf8e1e556124c6264b2cf7b5d362c35f382176cba2bf3d5870f5f3a0da05d0a5641221373612b1f3fe277e43035166dbdfa3a72d8a0a2f41aae0c343445",
      "delta": {
        "0x0000000000000000000000000000000000000000": {
          "address": "0x0000000000000000000000000000000000000000",
          "read": true
        },
        "0x85dA99c8a7C2C95964c8EfD687E95E632Fc533D6": {
          "address": "0x85dA99c8a7C2C95964c8EfD687E95E632Fc533D6",
          "nonce": 12,
          "read": true
        },
        "0xDeaDbeefdEAdbeefdEadbEEFdeadbeEFdEaDbeeF": {
          "address": "0xDeaDbeefdEAdbeefdEadbEEFdeadbeEFdEaDbeeF",
          "touched": true,
          "read": true
        },
        "0xd58881FaD0844d2503681f96228A2CD9da6Aba52": {
          "address": "0xd58881FaD0844d2503681f96228A2CD9da6Aba52",
          "read": true
        }
      }
    }
  ]
}
