{
  "accountTrie": {
    "057de4e602c052849d58911ada0d6c554ec057058db09f7ec53b1de7b3a3b3ac": "f851808080a0fa5ef87be5ccac0f25150e1d6f7a8ab20657eec38cb6255b38ec2385cb16c63da0482f01f0f6abbd3e26df48ddce5f6f8146ad45225372b030418397e08e8a0ceb808080808080808080808080",
    "071a7e08a5bc0be6c9f4d23428c52c08a7eeb1152d1c5b669d280b6b75a5be6e": "f85180a031d1eb10fdf37ef90417d463e9e3d1dad5bab6a3e8b38ccc4eaa744250317457808080a086f2606f1067754ec71913d5707c0e528888687412071b248189701027aaed438080808080808080808080",
    "07c6bfcd44c424d26bd4af4408907d0eb126844b0754a3809b1644d9029ae9fc": "f8749f3eec2b84f0ba344fd4b4d2f022469febe7a772c4789acfc119eb558ab1da3db852f850058c033b2e3c9f7a1eefedb1e03ca056e81f171bcc55a6ff8345e692c0f86e5b48e01b996cadc001622fb5e363b421a0c5d2460186f7233c927e7db2dcc703c0e500b653ca82273b7bfad8045d85a470",
    "1705520db9f5f6dd420c69d1ca42fbcf28e85b6959154819db8852254b18e7c2": "f873a02080c7b7ae81a58eb98d9c78de4a1fd7fd9535fc953ed2be602daaa41767312ab850f84e808ad3c21bd1353de631d1daa056e81f171bcc55a6ff8345e692c0f86e5b48e01b996cadc001622fb5e363b421a0c5d2460186f7233c927e7db2dcc703c0e500b653ca82273b7bfad8045d85a470",
    "3f84f317ceea01d67e9da286f143aea01d93cc275c3d9fad2722ce1aeb8a39bf": "f869a038aa49c1d12105de82bf1c7ed7c54f741e846b6b70539e92d2e0dedfc801491fb846f8448080a04e71219ea0dfee98b22365f87e6c87ce10a12696c07eb611d45123aeb52c665da0bc022a807ab2cb7c98fd7ac2002a893918264d6dea60bd4797cac0d44ffca0f6",
    "482f01f0f6abbd3e26df48ddce5f6f8146ad45225372b030418397e08e8a0ceb": "f873a02059c241d99ff19d6781feaf10eafba6d43f87543a75316fe0ae22a76eec0361b850f84e808ad3c21bfc4903e3927a00a056e81f171bcc55a6ff8345e692c0f86e5b48e01b996cadc001622fb5e363b421a0c5d2460186f7233c927e7db2dcc703c0e500b653ca82273b7bfad8045d85a470",
    "4bde009271c23f5693450c3139660ad6c0439d20eaaac7b1a141a88aa7a220d0": "f871a07c76fca15e14b9497481153ec6ce174197aed052f30c41b556d36c1ca2d36f028080a01705520db9f5f6dd420c69d1ca42fbcf28e85b6959154819db8852254b18e7c280a03a6ab9252d625ee34450f5f40ef8aeaf895aedcd7be4a964969ea65a145d7a288080808080808080808080",
    "86f2606f1067754ec71913d5707c0e528888687412071b248189701027aaed43": "f85180a007c6bfcd44c424d26bd4af4408907d0eb126844b0754a3809b1644d9029ae9fc80808080808080808080a0b352e4c72d853473be5eac69cf10adfdc61a3747ec26a4b424f0a29292fc1d3780808080",
    "e8d1e794589395d34796cf6a01c9142112e12083d28925e8a291f57b30358024": "f901d1a03f84f317ceea01d67e9da286f143aea01d93cc275c3d9fad2722ce1aeb8a39bf80a0c16f3365b896e585df45595857bd17ed97ac3e4aeea4e7c544dc87f67fbec2e9a0d379709dd7f28dcd01c9f7dad8b806aa54f8133adf378a7335aba34dc462cbcda003570c0eb8451a9b144d237f706c59b0596e2ac895caddad8bdfb8df300f91baa04bde009271c23f5693450c3139660ad6c0439d20eaaac7b1a141a88aa7a220d0a055fb730a81af8615add1b4fb896303b1efd995f6da3da6dbb5022f05f150d5aba09e54942e5cbab33b4ec4216f6eeaf22c427135da3ee41438bcc4e7de07ffeee0a0364969fa64ed1edef177b8a87bbe20e26615582bf935df361abf64c0b7e2b589a0e6e82a109ac4e5daed8f76043d8393d0298472e0518ff96a48b8492e479881fba0071a7e08a5bc0be6c9f4d23428c52c08a7eeb1152d1c5b669d280b6b75a5be6ea0641172028033391973b95cc84af3b17df365c017f41cc4593e4c201102a5a53da0e086c4db2fb20d0509e45cc93d81ebbb34392390d03ca817c15d77896cc23f7180a08333762fcaf7193e048ab228010951a924224adf67ad901b5e98441becfcbbd7a0057de4e602c052849d58911ada0d6c554ec057058db09f7ec53b1de7b3a3b3ac80"
  },
  "storageTrie": null,
  "parentStateRoot": "0xe8d1e794589395d34796cf6a01c9142112e12083d28925e8a291f57b30358024",
  "transactionTraces": [
    {
      "txn": "0xf86c0584b6c56b7382520894deadbeefdeadbeefdeadbeefdeadbeefdeadbeef87038d7ea4c6800080820fc6a0589a7619b4dc1a8c309fad6ed2742a6f803d9b2634db955704e9e4a85df92b9ba05cca724f329c2b3a1b9ae771ac97c48bfd3410beee166a0a9a7cd3cad4d852e9",
      "delta": {
        "0x0000000000000000000000000000000000000000": {
          "address": "0x0000000000000000000000000000000000000000",
          "read": true
        },
        "0x7f0480640BB89A19324292C5dE95F6f629e2139E": {
          "address": "0x7f0480640BB89A19324292C5dE95F6f629e2139E",
          "read": true
        },
        "0x85dA99c8a7C2C95964c8EfD687E95E632Fc533D6": {
          "address": "0x85dA99c8a7C2C95964c8EfD687E95E632Fc533D6",
          "nonce": 6,
          "read": true
        },
        "0xDeaDbeefdEAdbeefdEadbEEFdeadbeEFdEaDbeeF": {
          "address": "0xDeaDbeefdEAdbeefdEadbEEFdeadbeEFdEaDbeeF",
          "touched": true,
          "read": true
        }
      }
    }
  ]
}
